{"abi":[{"inputs":[],"payable":false,"stateMutability":"nonpayable","type":"constructor","name":"constructor"},{"anonymous":false,"inputs":[{"indexed":true,"internalType":"address","name":"account","type":"address"}],"name":"AdminAdded","type":"event"},{"anonymous":false,"inputs":[{"indexed":true,"internalType":"address","name":"account","type":"address"}],"name":"AdminRemoved","type":"event"},{"anonymous":false,"inputs":[{"indexed":true,"internalType":"address","name":"account","type":"address"}],"name":"BrokerAdded","type":"event"},{"anonymous":false,"inputs":[{"indexed":true,"internalType":"address","name":"account","type":"address"}],"name":"BrokerRemoved","type":"event"},{"anonymous":false,"inputs":[{"indexed":true,"internalType":"address","name":"buyer","type":"address"},{"indexed":true,"internalType":"uint256","name":"amount","type":"uint256"},{"indexed":true,"internalType":"uint256","name":"price","type":"uint256"}],"name":"Buy","type":"event"},{"anonymous":false,"inputs":[{"indexed":true,"internalType":"address","name":"who","type":"address"},{"indexed":true,"internalType":"uint256","name":"when","type":"uint256"}],"name":"ChangeEnd","type":"event"},{"anonymous":false,"inputs":[{"indexed":true,"internalType":"address","name":"who","type":"address"},{"indexed":true,"internalType":"uint256","name":"when","type":"uint256"}],"name":"ChangeStart","type":"event"},{"anonymous":false,"inputs":[{"indexed":true,"internalType":"address","name":"changer","type":"address"},{"indexed":true,"internalType":"uint256","name":"id_price","type":"uint256"},{"indexed":true,"internalType":"uint256","name":"price","type":"uint256"}],"name":"PriceChange","type":"event"},{"anonymous":false,"inputs":[{"indexed":true,"internalType":"address","name":"buyer","type":"address"},{"indexed":true,"internalType":"uint256","name":"amount","type":"uint256"},{"indexed":true,"internalType":"uint256","name":"price","type":"uint256"}],"name":"Sell","type":"event"},{"constant":true,"inputs":[],"name":"_overnightCalls","outputs":[{"internalType":"uint8","name":"","type":"uint8"}],"payable":false,"stateMutability":"view","type":"function"},{"constant":false,"inputs":[{"internalType":"address","name":"account","type":"address"}],"name":"addAdmin","outputs":[],"payable":false,"stateMutability":"nonpayable","type":"function"},{"constant":false,"inputs":[{"internalType":"address","name":"account","type":"address"}],"name":"addBroker","outputs":[],"payable":false,"stateMutability":"nonpayable","type":"function"},{"constant":false,"inputs":[{"internalType":"uint256","name":"tokenAmount","type":"uint256"}],"name":"buy","outputs":[{"internalType":"bool","name":"","type":"bool"}],"payable":false,"stateMutability":"nonpayable","type":"function"},{"constant":false,"inputs":[{"internalType":"uint256","name":"amount","type":"uint256"},{"internalType":"bool","name":"from_buy","type":"bool"}],"name":"getFee","outputs":[{"internalType":"uint256","name":"","type":"uint256"}],"payable":false,"stateMutability":"nonpayable","type":"function"},{"constant":true,"inputs":[{"internalType":"uint256","name":"id_price","type":"uint256"}],"name":"getHistory","outputs":[{"internalType":"uint256","name":"","type":"uint256"}],"payable":false,"stateMutability":"view","type":"function"},{"constant":true,"inputs":[{"internalType":"address","name":"account","type":"address"}],"name":"isAdmin","outputs":[{"internalType":"bool","name":"","type":"bool"}],"payable":false,"stateMutability":"view","type":"function"},{"constant":true,"inputs":[{"internalType":"address","name":"account","type":"address"}],"name":"isBroker","outputs":[{"internalType":"bool","name":"","type":"bool"}],"payable":false,"stateMutability":"view","type":"function"},{"constant":true,"inputs":[],"name":"isOpen","outputs":[{"internalType":"bool","name":"","type":"bool"}],"payable":false,"stateMutability":"view","type":"function"},{"constant":true,"inputs":[],"name":"lastPrice","outputs":[{"internalType":"uint256","name":"","type":"uint256"},{"internalType":"uint256","name":"","type":"uint256"}],"payable":false,"stateMutability":"view","type":"function"},{"constant":true,"inputs":[],"name":"payCoin","outputs":[{"internalType":"contract IT_PayCoin","name":"","type":"address"}],"payable":false,"stateMutability":"view","type":"function"},{"constant":false,"inputs":[],"name":"renounceAdmin","outputs":[],"payable":false,"stateMutability":"nonpayable","type":"function"},{"constant":false,"inputs":[],"name":"renounceBroker","outputs":[],"payable":false,"stateMutability":"nonpayable","type":"function"},{"constant":false,"inputs":[{"internalType":"uint256","name":"tokenAmount","type":"uint256"}],"name":"sell","outputs":[{"internalType":"bool","name":"","type":"bool"}],"payable":false,"stateMutability":"nonpayable","type":"function"},{"constant":false,"inputs":[{"internalType":"uint256","name":"price","type":"uint256"}],"name":"setHistory","outputs":[],"payable":false,"stateMutability":"nonpayable","type":"function"},{"constant":false,"inputs":[{"internalType":"int256","name":"delta_price","type":"int256"}],"name":"setNewPrice","outputs":[{"internalType":"uint256","name":"","type":"uint256"}],"payable":false,"stateMutability":"nonpayable","type":"function"},{"constant":false,"inputs":[],"name":"setOpenTime","outputs":[],"payable":false,"stateMutability":"nonpayable","type":"function"},{"constant":true,"inputs":[],"name":"token","outputs":[{"internalType":"contract IT_ERC20","name":"","type":"address"}],"payable":false,"stateMutability":"view","type":"function"}],"bytecode":"6080604052600980546001600160a01b0319167385a8d7241ffffee7290501473a9b11bfda2ae9ff1790553480156200003757600080fd5b506200005e6200004f6001600160e01b036200028d16565b6001600160e01b036200029116565b62000084620000756001600160e01b036200028d16565b6001600160e01b03620002e316565b60405162000092906200055c565b604051809103906000f080158015620000af573d6000803e3d6000fd5b50600280546001600160a01b0319166001600160a01b0392909216919091179055604051620000de906200056a565b604051809103906000f080158015620000fb573d6000803e3d6000fd5b50600380546001600160a01b0319166001600160a01b03928316179055670de0b6b3a76400006004819055600880546001810182556000919091527ff3f7a9fe364faab93b216da50a3214154f22a0a2b415b23a84c8169e8b636ee30155426005819055610e10016006556007805460ff191690556009546200017f911662000335565b8015620001a75750600954620001a7906001600160a01b03166001600160e01b036200035816565b620001ec57600954620001cc906001600160a01b03166001600160e01b036200037516565b600954620001ec906001600160a01b03166001600160e01b03620003ef16565b600554620002026001600160e01b036200028d16565b6001600160a01b03167f16c752bdf6502cc829c9a81132e2e73aeb12d145e0e3b1cd632a9759485a5f5360405160405180910390a360065462093a8001620002526001600160e01b036200028d16565b6001600160a01b03167f9cd0f0f4c626f6284b893eff5aa9a5f50e76b4fa9811bf3ec86ac52cc6ed782760405160405180910390a362000578565b3390565b620002ac8160006200046660201b620011d41790919060201c565b6040516001600160a01b038216907f40c56d2c4c08eead919e7228cf5b749297271698ec38e954d322ef4bcf1d58fb90600090a250565b620002fe8160016200046660201b620011d41790919060201c565b6040516001600160a01b038216907f44d6d25963f097ad14f29f06854a01f575648a1ef82f30e562ccd3889717e33990600090a250565b600062000352826001620004f360201b62000baa1790919060201c565b92915050565b600062000352826000620004f360201b62000baa1790919060201c565b6200039b6200038c6001600160e01b036200028d16565b6001600160e01b036200033516565b620003d85760405162461bcd60e51b815260040180806020018281038252602e81526020018062004c56602e913960400191505060405180910390fd5b620003ec816001600160e01b03620002e316565b50565b62000415620004066001600160e01b036200028d16565b6001600160e01b036200035816565b620004525760405162461bcd60e51b815260040180806020018281038252603081526020018062004c046030913960400191505060405180910390fd5b620003ec816001600160e01b036200029116565b6200047b82826001600160e01b03620004f316565b15620004ce576040805162461bcd60e51b815260206004820152601f60248201527f526f6c65733a206163636f756e7420616c72656164792068617320726f6c6500604482015290519081900360640190fd5b6001600160a01b0316600090815260209190915260409020805460ff19166001179055565b60006001600160a01b0382166200053c5760405162461bcd60e51b815260040180806020018281038252602281526020018062004c346022913960400191505060405180910390fd5b506001600160a01b03166000908152602091909152604090205460ff1690565b611935806200199a83390190565b61193580620032cf83390190565b61141280620005886000396000f3fe608060405234801561001057600080fd5b50600436106101165760003560e01c80638bad0c0a116100a2578063c8691b2a11610071578063c8691b2a14610299578063d96a094a146102b6578063e4849b32146102d3578063fc0c546a146102f0578063ffb4e0751461031457610116565b80638bad0c0a1461021f5780639c9795b214610227578063a48ff7821461025e578063a96711931461027c57610116565b806347535d7b116100e957806347535d7b146101a65780634f15e62e146101ae57806370480275146101b6578063761909d0146101dc578063836cae65146101f957610116565b8063053f14da1461011b57806322b31d9f1461013c57806324d7806c14610176578063431e5c9d1461019c575b600080fd5b61012361031c565b6040805192835260208301919091528051918290030190f35b6101626004803603602081101561015257600080fd5b50356001600160a01b0316610367565b604080519115158252519081900360200190f35b6101626004803603602081101561018c57600080fd5b50356001600160a01b031661037f565b6101a4610392565b005b6101626103a4565b6101a46103bf565b6101a4600480360360208110156101cc57600080fd5b50356001600160a01b031661047d565b6101a4600480360360208110156101f257600080fd5b50356104cf565b6101a46004803603602081101561020f57600080fd5b50356001600160a01b031661054f565b6101a461059e565b61024c6004803603604081101561023d57600080fd5b508035906020013515156105ae565b60408051918252519081900360200190f35b6102666106ce565b6040805160ff9092168252519081900360200190f35b61024c6004803603602081101561029257600080fd5b50356106d7565b61024c600480360360208110156102af57600080fd5b5035610993565b610162600480360360208110156102cc57600080fd5b50356109b4565b610162600480360360208110156102e957600080fd5b5035610a9f565b6102f8610b43565b604080516001600160a01b039092168252519081900360200190f35b6102f8610b52565b600854600090819061033590600163ffffffff610b6116565b6008805461034a90600163ffffffff610b6116565b8154811061035457fe5b9060005260206000200154915091509091565b6000610379818363ffffffff610baa16565b92915050565b600061037960018363ffffffff610baa16565b6103a261039d610c11565b610c15565b565b600060055442101580156103ba57506006544211155b905090565b6103cf6103ca610c11565b61037f565b61040a5760405162461bcd60e51b815260040180806020018281038252602e8152602001806113b0602e913960400191505060405180910390fd5b6006546005541061044c5760405162461bcd60e51b815260040180806020018281038252604081526020018061132d6040913960400191505060405180910390fd5b6006546104619061d2f063ffffffff610c5d16565b600581905561047890617e9063ffffffff610c5d16565b600655565b6104886103ca610c11565b6104c35760405162461bcd60e51b815260040180806020018281038252602e8152602001806113b0602e913960400191505060405180910390fd5b6104cc81610cb7565b50565b6104df6104da610c11565b610367565b61051a5760405162461bcd60e51b81526004018080602001828103825260308152602001806112dc6030913960400191505060405180910390fd5b600880546001810182556000919091527ff3f7a9fe364faab93b216da50a3214154f22a0a2b415b23a84c8169e8b636ee30155565b61055a6104da610c11565b6105955760405162461bcd60e51b81526004018080602001828103825260308152602001806112dc6030913960400191505060405180910390fd5b6104cc81610cff565b6103a26105a9610c11565b610d47565b600080600260009054906101000a90046001600160a01b03166001600160a01b031663313ce5676040518163ffffffff1660e01b815260040160206040518083038186803b1580156105ff57600080fd5b505afa158015610613573d6000803e3d6000fd5b505050506040513d602081101561062957600080fd5b505160ff169050821561068c5761068461065c6103e861065087600263ffffffff610d8f16565b9063ffffffff610de816565b61067883600a0a61065060045489610d8f90919063ffffffff16565b9063ffffffff610c5d16565b915050610379565b6106846106a66103e861065087600263ffffffff610d8f16565b6106c283600a0a61065060045489610d8f90919063ffffffff16565b9063ffffffff610b6116565b60075460ff1681565b60006106e46104da610c11565b61071f5760405162461bcd60e51b81526004018080602001828103825260308152602001806112dc6030913960400191505060405180910390fd5b600880546000919061073890600163ffffffff610b6116565b8154811061074257fe5b60009182526020822001549150838201908082136107a7576040805162461bcd60e51b815260206004820152601760248201527f5072696365206d75737420626520706f73697469766521000000000000000000604482015290519081900360640190fd5b6107b26103ca610c11565b15610866576107bf6103a4565b610803576040805162461bcd60e51b815260206004820152601060248201526f13585c9ad95d081a5cc818db1bdcd95960821b604482015290519081900360640190fd5b61080c826104cf565b60085461082090600163ffffffff610b6116565b9050818161082c610c11565b6001600160a01b03167f024e1c492bc15609a5125924e67e792a203a4f550a353426fad01a2c6d5ff97660405160405180910390a461098b565b600754600460ff909116106108ac5760405162461bcd60e51b81526004018080602001828103825260218152602001806112bb6021913960400191505060405180910390fd5b6108d26108c5606461065086600a63ffffffff610d8f16565b849063ffffffff610b6116565b8211801561090457506109016108f4606461065086600a63ffffffff610d8f16565b849063ffffffff610c5d16565b82105b610955576040805162461bcd60e51b815260206004820152601c60248201527f43616e2774206368616e6765206d6f7265207468616e202d2b31302500000000604482015290519081900360640190fd5b61095e826104cf565b60085461097290600163ffffffff610b6116565b6007805460ff8082166001011660ff1990911617905590505b949350505050565b6000600882815481106109a257fe5b90600052602060002001549050919050565b60006109be6103a4565b610a02576040805162461bcd60e51b815260206004820152601060248201526f13585c9ad95d081a5cc818db1bdcd95960821b604482015290519081900360640190fd5b610a97610a0d610c11565b6002546040805163313ce56760e01b81529051610a92926001600160a01b03169163313ce567916004808301926020929190829003018186803b158015610a5357600080fd5b505afa158015610a67573d6000803e3d6000fd5b505050506040513d6020811015610a7d57600080fd5b5051859060ff16600a0a63ffffffff610d8f16565b610e2a565b506001919050565b6000610aa96103a4565b610aed576040805162461bcd60e51b815260206004820152601060248201526f13585c9ad95d081a5cc818db1bdcd95960821b604482015290519081900360640190fd5b610a97610af8610c11565b6002546040805163313ce56760e01b81529051610b3e926001600160a01b03169163313ce567916004808301926020929190829003018186803b158015610a5357600080fd5b610f9b565b6002546001600160a01b031681565b6003546001600160a01b031681565b6000610ba383836040518060400160405280601e81526020017f536166654d6174683a207375627472616374696f6e206f766572666c6f7700008152506110d6565b9392505050565b60006001600160a01b038216610bf15760405162461bcd60e51b815260040180806020018281038252602281526020018061138e6022913960400191505060405180910390fd5b506001600160a01b03166000908152602091909152604090205460ff1690565b3390565b610c2660008263ffffffff61116d16565b6040516001600160a01b038216907fe5c6f32fb04b7de81910252a1e1d29267cd9e5fc428afad67442d00c7b127bd090600090a250565b600082820183811015610ba3576040805162461bcd60e51b815260206004820152601b60248201527f536166654d6174683a206164646974696f6e206f766572666c6f770000000000604482015290519081900360640190fd5b610cc860018263ffffffff6111d416565b6040516001600160a01b038216907f44d6d25963f097ad14f29f06854a01f575648a1ef82f30e562ccd3889717e33990600090a250565b610d1060008263ffffffff6111d416565b6040516001600160a01b038216907f40c56d2c4c08eead919e7228cf5b749297271698ec38e954d322ef4bcf1d58fb90600090a250565b610d5860018263ffffffff61116d16565b6040516001600160a01b038216907fa3b62bc36326052d97ea62d63c3d60308ed4c3ea8ac079dd8499f1e9c4f80c0f90600090a250565b600082610d9e57506000610379565b82820282848281610dab57fe5b0414610ba35760405162461bcd60e51b815260040180806020018281038252602181526020018061136d6021913960400191505060405180910390fd5b6000610ba383836040518060400160405280601a81526020017f536166654d6174683a206469766973696f6e206279207a65726f000000000000815250611255565b6003546001600160a01b03166323b872dd8330610e488560016105ae565b6040518463ffffffff1660e01b815260040180846001600160a01b03166001600160a01b03168152602001836001600160a01b03166001600160a01b031681526020018281526020019350505050602060405180830381600087803b158015610eb057600080fd5b505af1158015610ec4573d6000803e3d6000fd5b505050506040513d6020811015610eda57600080fd5b5050600254604080516340c10f1960e01b81526001600160a01b03858116600483015260248201859052915191909216916340c10f199160448083019260209291908290030181600087803b158015610f3257600080fd5b505af1158015610f46573d6000803e3d6000fd5b505050506040513d6020811015610f5c57600080fd5b505060045460405182906001600160a01b038516907f1cbc5ab135991bd2b6a4b034a04aa2aa086dac1371cb9b16b8b5e2ed6b036bed90600090a45050565b6002546040805163079cc67960e41b81526001600160a01b03858116600483015260248201859052915191909216916379cc679091604480830192600092919082900301818387803b158015610ff057600080fd5b505af1158015611004573d6000803e3d6000fd5b50506003546001600160a01b031691506340c10f199050836110278460006105ae565b6040518363ffffffff1660e01b815260040180836001600160a01b03166001600160a01b0316815260200182815260200192505050602060405180830381600087803b15801561107657600080fd5b505af115801561108a573d6000803e3d6000fd5b505050506040513d60208110156110a057600080fd5b5050600454604051829030907fed7a144fad14804d5c249145e3e0e2b63a9eb455b76aee5bc92d711e9bba3e4a90600090a45050565b600081848411156111655760405162461bcd60e51b81526004018080602001828103825283818151815260200191508051906020019080838360005b8381101561112a578181015183820152602001611112565b50505050905090810190601f1680156111575780820380516001836020036101000a031916815260200191505b509250505060405180910390fd5b505050900390565b6111778282610baa565b6111b25760405162461bcd60e51b815260040180806020018281038252602181526020018061130c6021913960400191505060405180910390fd5b6001600160a01b0316600090815260209190915260409020805460ff19169055565b6111de8282610baa565b15611230576040805162461bcd60e51b815260206004820152601f60248201527f526f6c65733a206163636f756e7420616c72656164792068617320726f6c6500604482015290519081900360640190fd5b6001600160a01b0316600090815260209190915260409020805460ff19166001179055565b600081836112a45760405162461bcd60e51b815260206004820181815283516024840152835190928392604490910191908501908083836000831561112a578181015183820152602001611112565b5060008385816112b057fe5b049594505050505056fe416c72656164792063616c6c7320342074696d65732074686973206e696768742e42726f6b6572526f6c653a2063616c6c657220646f6573206e6f742068617665207468652042726f6b657220726f6c65526f6c65733a206163636f756e7420646f6573206e6f74206861766520726f6c65536f6d657468696e6727732077726f6e672c206d6179626520796f75207365742074686520696e697469616c205f6f70656e696e6774696d652077726f6e672e536166654d6174683a206d756c7469706c69636174696f6e206f766572666c6f77526f6c65733a206163636f756e7420697320746865207a65726f206164647265737341646d696e526f6c653a2063616c6c657220646f6573206e6f742068617665207468652041646d696e20726f6c65a265627a7a72315820ac891bc102ae16523888c2611a8d5bbae7e35a41b58ee816742f5211e10d128064736f6c634300051100326080604052600880546001600160a01b0319167385a8d7241ffffee7290501473a9b11bfda2ae9ff1790553480156200003757600080fd5b50604051806040016040528060078152602001662329a9a1b7b4b760c91b8152506040518060400160405280600381526020016246535360e81b8152506012620000996200008a6200018c60201b60201c565b6001600160e01b036200019116565b8251620000ae9060049060208601906200045c565b508151620000c49060059060208501906200045c565b506006805460ff191660ff9290921691909117905550620000f99050620000ea6200018c565b6001600160e01b03620001e316565b60085462000119906001600160a01b03166001600160e01b036200023516565b801562000141575060085462000141906001600160a01b03166001600160e01b036200025816565b620001865760085462000166906001600160a01b03166001600160e01b036200027516565b60085462000186906001600160a01b03166001600160e01b03620002ef16565b620004fe565b335b90565b620001ac8160036200036660201b6200103b1790919060201c565b6040516001600160a01b038216907f6ae172837ea30b801fbfcdd4108aa1d5bf8ff775444fd70256b44e6bf3dfc3f690600090a250565b620001fe8160076200036660201b6200103b1790919060201c565b6040516001600160a01b038216907f86e57fd2b90329052917118de7c3f521f400d439b9650deaa906a25b08b9456090600090a250565b600062000252826003620003f360201b62000d5a1790919060201c565b92915050565b600062000252826007620003f360201b62000d5a1790919060201c565b6200029b6200028c6001600160e01b036200018c16565b6001600160e01b036200023516565b620002d85760405162461bcd60e51b8152600401808060200182810382526030815260200180620018e36030913960400191505060405180910390fd5b620002ec816001600160e01b036200019116565b50565b62000315620003066001600160e01b036200018c16565b6001600160e01b036200025816565b620003525760405162461bcd60e51b8152600401808060200182810382526030815260200180620018b36030913960400191505060405180910390fd5b620002ec816001600160e01b03620001e316565b6200037b82826001600160e01b03620003f316565b15620003ce576040805162461bcd60e51b815260206004820152601f60248201527f526f6c65733a206163636f756e7420616c72656164792068617320726f6c6500604482015290519081900360640190fd5b6001600160a01b0316600090815260209190915260409020805460ff19166001179055565b60006001600160a01b0382166200043c5760405162461bcd60e51b8152600401808060200182810382526022815260200180620019136022913960400191505060405180910390fd5b506001600160a01b03166000908152602091909152604090205460ff1690565b828054600181600116156101000203166002900490600052602060002090601f016020900481019282601f106200049f57805160ff1916838001178555620004cf565b82800160010185558215620004cf579182015b82811115620004cf578251825591602001919060010190620004b2565b50620004dd929150620004e1565b5090565b6200018e91905b80821115620004dd5760008155600101620004e8565b6113a5806200050e6000396000f3fe608060405234801561001057600080fd5b506004361061012c5760003560e01c806379cc6790116100ad578063a9059cbb11610071578063a9059cbb146103ad578063aa271e1a146103d9578063dd62ed3e146103ff578063e9ec9e8b1461042d578063f44637ba146104355761012c565b806379cc67901461031f57806395d89b411461034b578063983b2d56146103535780639865027514610379578063a457c2d7146103815761012c565b806339509351116100f4578063395093511461025c57806340c10f191461028857806342966c68146102b45780634334614a146102d357806370a08231146102f95761012c565b806306fdde0314610131578063095ea7b3146101ae57806318160ddd146101ee57806323b872dd14610208578063313ce5671461023e575b600080fd5b61013961045b565b6040805160208082528351818301528351919283929083019185019080838360005b8381101561017357818101518382015260200161015b565b50505050905090810190601f1680156101a05780820380516001836020036101000a031916815260200191505b509250505060405180910390f35b6101da600480360360408110156101c457600080fd5b506001600160a01b0381351690602001356104f1565b604080519115158252519081900360200190f35b6101f661050e565b60408051918252519081900360200190f35b6101da6004803603606081101561021e57600080fd5b506001600160a01b03813581169160208101359091169060400135610514565b6102466105a1565b6040805160ff9092168252519081900360200190f35b6101da6004803603604081101561027257600080fd5b506001600160a01b0381351690602001356105aa565b6101da6004803603604081101561029e57600080fd5b506001600160a01b0381351690602001356105fe565b6102d1600480360360208110156102ca57600080fd5b5035610655565b005b6101da600480360360208110156102e957600080fd5b50356001600160a01b03166106ac565b6101f66004803603602081101561030f57600080fd5b50356001600160a01b03166106c5565b6102d16004803603604081101561033557600080fd5b506001600160a01b0381351690602001356106e0565b610139610734565b6102d16004803603602081101561036957600080fd5b50356001600160a01b0316610795565b6102d16107e4565b6101da6004803603604081101561039757600080fd5b506001600160a01b0381351690602001356107f6565b6101da600480360360408110156103c357600080fd5b506001600160a01b038135169060200135610864565b6101da600480360360208110156103ef57600080fd5b50356001600160a01b0316610878565b6101f66004803603604081101561041557600080fd5b506001600160a01b038135811691602001351661088b565b6102d16108b6565b6102d16004803603602081101561044b57600080fd5b50356001600160a01b03166108c6565b60048054604080516020601f60026000196101006001881615020190951694909404938401819004810282018101909252828152606093909290918301828280156104e75780601f106104bc576101008083540402835291602001916104e7565b820191906000526020600020905b8154815290600101906020018083116104ca57829003601f168201915b5050505050905090565b60006105056104fe610915565b8484610919565b50600192915050565b60025490565b6000610521848484610a05565b6105978461052d610915565b61059285604051806060016040528060288152602001611274602891396001600160a01b038a1660009081526001602052604081209061056b610915565b6001600160a01b03168152602081019190915260400160002054919063ffffffff610b6116565b610919565b5060019392505050565b60065460ff1690565b60006105056105b7610915565b8461059285600160006105c8610915565b6001600160a01b03908116825260208083019390935260409182016000908120918c16815292529020549063ffffffff610bf816565b600061061061060b610915565b610878565b61064b5760405162461bcd60e51b81526004018080602001828103825260308152602001806112236030913960400191505060405180910390fd5b6105058383610c59565b610665610660610915565b6106ac565b6106a05760405162461bcd60e51b81526004018080602001828103825260308152602001806111f36030913960400191505060405180910390fd5b6106a981610d49565b50565b60006106bf60078363ffffffff610d5a16565b92915050565b6001600160a01b031660009081526020819052604090205490565b6106eb610660610915565b6107265760405162461bcd60e51b81526004018080602001828103825260308152602001806111f36030913960400191505060405180910390fd5b6107308282610dc1565b5050565b60058054604080516020601f60026000196101006001881615020190951694909404938401819004810282018101909252828152606093909290918301828280156104e75780601f106104bc576101008083540402835291602001916104e7565b6107a061060b610915565b6107db5760405162461bcd60e51b81526004018080602001828103825260308152602001806112236030913960400191505060405180910390fd5b6106a981610dcb565b6107f46107ef610915565b610e13565b565b6000610505610803610915565b846105928560405180606001604052806025815260200161134c602591396001600061082d610915565b6001600160a01b03908116825260208083019390935260409182016000908120918d1681529252902054919063ffffffff610b6116565b6000610505610871610915565b8484610a05565b60006106bf60038363ffffffff610d5a16565b6001600160a01b03918216600090815260016020908152604080832093909416825291909152205490565b6107f46108c1610915565b610e5b565b6108d1610660610915565b61090c5760405162461bcd60e51b81526004018080602001828103825260308152602001806111f36030913960400191505060405180910390fd5b6106a981610ea3565b3390565b6001600160a01b03831661095e5760405162461bcd60e51b81526004018080602001828103825260248152602001806113286024913960400191505060405180910390fd5b6001600160a01b0382166109a35760405162461bcd60e51b81526004018080602001828103825260228152602001806111ab6022913960400191505060405180910390fd5b6001600160a01b03808416600081815260016020908152604080832094871680845294825291829020859055815185815291517f8c5be1e5ebec7d5bd14f71427d1e84f3dd0314c0f7b2291e5b200ac8c7c3b9259281900390910190a3505050565b6001600160a01b038316610a4a5760405162461bcd60e51b81526004018080602001828103825260258152602001806113036025913960400191505060405180910390fd5b6001600160a01b038216610a8f5760405162461bcd60e51b81526004018080602001828103825260238152602001806111666023913960400191505060405180910390fd5b610ad2816040518060600160405280602681526020016111cd602691396001600160a01b038616600090815260208190526040902054919063ffffffff610b6116565b6001600160a01b038085166000908152602081905260408082209390935590841681522054610b07908263ffffffff610bf816565b6001600160a01b038084166000818152602081815260409182902094909455805185815290519193928716927fddf252ad1be2c89b69c2b068fc378daa952ba7f163c4a11628f55a4df523b3ef92918290030190a3505050565b60008184841115610bf05760405162461bcd60e51b81526004018080602001828103825283818151815260200191508051906020019080838360005b83811015610bb5578181015183820152602001610b9d565b50505050905090810190601f168015610be25780820380516001836020036101000a031916815260200191505b509250505060405180910390fd5b505050900390565b600082820183811015610c52576040805162461bcd60e51b815260206004820152601b60248201527f536166654d6174683a206164646974696f6e206f766572666c6f770000000000604482015290519081900360640190fd5b9392505050565b6001600160a01b038216610cb4576040805162461bcd60e51b815260206004820152601f60248201527f45524332303a206d696e7420746f20746865207a65726f206164647265737300604482015290519081900360640190fd5b600254610cc7908263ffffffff610bf816565b6002556001600160a01b038216600090815260208190526040902054610cf3908263ffffffff610bf816565b6001600160a01b0383166000818152602081815260408083209490945583518581529351929391927fddf252ad1be2c89b69c2b068fc378daa952ba7f163c4a11628f55a4df523b3ef9281900390910190a35050565b6106a9610d54610915565b82610eeb565b60006001600160a01b038216610da15760405162461bcd60e51b815260040180806020018281038252602281526020018061129c6022913960400191505060405180910390fd5b506001600160a01b03166000908152602091909152604090205460ff1690565b6107308282610fe7565b610ddc60038263ffffffff61103b16565b6040516001600160a01b038216907f6ae172837ea30b801fbfcdd4108aa1d5bf8ff775444fd70256b44e6bf3dfc3f690600090a250565b610e2460038263ffffffff6110bc16565b6040516001600160a01b038216907fe94479a9f7e1952cc78f2d6baab678adc1b772d936c6583def489e524cb6669290600090a250565b610e6c60078263ffffffff6110bc16565b6040516001600160a01b038216907f90eabbc0c667db2a5029ed6bc0f5fe9f356d11684a4ca9fcfaec0e53f12b9c8e90600090a250565b610eb460078263ffffffff61103b16565b6040516001600160a01b038216907f86e57fd2b90329052917118de7c3f521f400d439b9650deaa906a25b08b9456090600090a250565b6001600160a01b038216610f305760405162461bcd60e51b81526004018080602001828103825260218152602001806112e26021913960400191505060405180910390fd5b610f7381604051806060016040528060228152602001611189602291396001600160a01b038516600090815260208190526040902054919063ffffffff610b6116565b6001600160a01b038316600090815260208190526040902055600254610f9f908263ffffffff61112316565b6002556040805182815290516000916001600160a01b038516917fddf252ad1be2c89b69c2b068fc378daa952ba7f163c4a11628f55a4df523b3ef9181900360200190a35050565b610ff18282610eeb565b61073082610ffd610915565b610592846040518060600160405280602481526020016112be602491396001600160a01b03881660009081526001602052604081209061056b610915565b6110458282610d5a565b15611097576040805162461bcd60e51b815260206004820152601f60248201527f526f6c65733a206163636f756e7420616c72656164792068617320726f6c6500604482015290519081900360640190fd5b6001600160a01b0316600090815260209190915260409020805460ff19166001179055565b6110c68282610d5a565b6111015760405162461bcd60e51b81526004018080602001828103825260218152602001806112536021913960400191505060405180910390fd5b6001600160a01b0316600090815260209190915260409020805460ff19169055565b6000610c5283836040518060400160405280601e81526020017f536166654d6174683a207375627472616374696f6e206f766572666c6f770000815250610b6156fe45524332303a207472616e7366657220746f20746865207a65726f206164647265737345524332303a206275726e20616d6f756e7420657863656564732062616c616e636545524332303a20617070726f766520746f20746865207a65726f206164647265737345524332303a207472616e7366657220616d6f756e7420657863656564732062616c616e63654275726e6572526f6c653a2063616c6c657220646f6573206e6f74206861766520746865204275726e657220726f6c654d696e746572526f6c653a2063616c6c657220646f6573206e6f74206861766520746865204d696e74657220726f6c65526f6c65733a206163636f756e7420646f6573206e6f74206861766520726f6c6545524332303a207472616e7366657220616d6f756e74206578636565647320616c6c6f77616e6365526f6c65733a206163636f756e7420697320746865207a65726f206164647265737345524332303a206275726e20616d6f756e74206578636565647320616c6c6f77616e636545524332303a206275726e2066726f6d20746865207a65726f206164647265737345524332303a207472616e736665722066726f6d20746865207a65726f206164647265737345524332303a20617070726f76652066726f6d20746865207a65726f206164647265737345524332303a2064656372656173656420616c6c6f77616e63652062656c6f77207a65726fa265627a7a72315820a9098e46632a4fb5e53c8bdd690b28c5d7db66650e7c11ec47acdb4e872000df64736f6c634300051100324275726e6572526f6c653a2063616c6c657220646f6573206e6f74206861766520746865204275726e657220726f6c654d696e746572526f6c653a2063616c6c657220646f6573206e6f74206861766520746865204d696e74657220726f6c65526f6c65733a206163636f756e7420697320746865207a65726f20616464726573736080604052600880546001600160a01b0319167385a8d7241ffffee7290501473a9b11bfda2ae9ff1790553480156200003757600080fd5b50604051806040016040528060078152602001662830bca1b7b4b760c91b8152506040518060400160405280600381526020016250614360e81b8152506012620000996200008a6200018c60201b60201c565b6001600160e01b036200019116565b8251620000ae9060049060208601906200045c565b508151620000c49060059060208501906200045c565b506006805460ff191660ff9290921691909117905550620000f99050620000ea6200018c565b6001600160e01b03620001e316565b60085462000119906001600160a01b03166001600160e01b036200023516565b801562000141575060085462000141906001600160a01b03166001600160e01b036200025816565b620001865760085462000166906001600160a01b03166001600160e01b036200027516565b60085462000186906001600160a01b03166001600160e01b03620002ef16565b620004fe565b335b90565b620001ac8160036200036660201b6200103b1790919060201c565b6040516001600160a01b038216907f6ae172837ea30b801fbfcdd4108aa1d5bf8ff775444fd70256b44e6bf3dfc3f690600090a250565b620001fe8160076200036660201b6200103b1790919060201c565b6040516001600160a01b038216907f86e57fd2b90329052917118de7c3f521f400d439b9650deaa906a25b08b9456090600090a250565b600062000252826003620003f360201b62000d5a1790919060201c565b92915050565b600062000252826007620003f360201b62000d5a1790919060201c565b6200029b6200028c6001600160e01b036200018c16565b6001600160e01b036200023516565b620002d85760405162461bcd60e51b8152600401808060200182810382526030815260200180620018e36030913960400191505060405180910390fd5b620002ec816001600160e01b036200019116565b50565b62000315620003066001600160e01b036200018c16565b6001600160e01b036200025816565b620003525760405162461bcd60e51b8152600401808060200182810382526030815260200180620018b36030913960400191505060405180910390fd5b620002ec816001600160e01b03620001e316565b6200037b82826001600160e01b03620003f316565b15620003ce576040805162461bcd60e51b815260206004820152601f60248201527f526f6c65733a206163636f756e7420616c72656164792068617320726f6c6500604482015290519081900360640190fd5b6001600160a01b0316600090815260209190915260409020805460ff19166001179055565b60006001600160a01b0382166200043c5760405162461bcd60e51b8152600401808060200182810382526022815260200180620019136022913960400191505060405180910390fd5b506001600160a01b03166000908152602091909152604090205460ff1690565b828054600181600116156101000203166002900490600052602060002090601f016020900481019282601f106200049f57805160ff1916838001178555620004cf565b82800160010185558215620004cf579182015b82811115620004cf578251825591602001919060010190620004b2565b50620004dd929150620004e1565b5090565b6200018e91905b80821115620004dd5760008155600101620004e8565b6113a5806200050e6000396000f3fe608060405234801561001057600080fd5b506004361061012c5760003560e01c806379cc6790116100ad578063a9059cbb11610071578063a9059cbb146103ad578063aa271e1a146103d9578063dd62ed3e146103ff578063e9ec9e8b1461042d578063f44637ba146104355761012c565b806379cc67901461031f57806395d89b411461034b578063983b2d56146103535780639865027514610379578063a457c2d7146103815761012c565b806339509351116100f4578063395093511461025c57806340c10f191461028857806342966c68146102b45780634334614a146102d357806370a08231146102f95761012c565b806306fdde0314610131578063095ea7b3146101ae57806318160ddd146101ee57806323b872dd14610208578063313ce5671461023e575b600080fd5b61013961045b565b6040805160208082528351818301528351919283929083019185019080838360005b8381101561017357818101518382015260200161015b565b50505050905090810190601f1680156101a05780820380516001836020036101000a031916815260200191505b509250505060405180910390f35b6101da600480360360408110156101c457600080fd5b506001600160a01b0381351690602001356104f1565b604080519115158252519081900360200190f35b6101f661050e565b60408051918252519081900360200190f35b6101da6004803603606081101561021e57600080fd5b506001600160a01b03813581169160208101359091169060400135610514565b6102466105a1565b6040805160ff9092168252519081900360200190f35b6101da6004803603604081101561027257600080fd5b506001600160a01b0381351690602001356105aa565b6101da6004803603604081101561029e57600080fd5b506001600160a01b0381351690602001356105fe565b6102d1600480360360208110156102ca57600080fd5b5035610655565b005b6101da600480360360208110156102e957600080fd5b50356001600160a01b03166106ac565b6101f66004803603602081101561030f57600080fd5b50356001600160a01b03166106c5565b6102d16004803603604081101561033557600080fd5b506001600160a01b0381351690602001356106e0565b610139610734565b6102d16004803603602081101561036957600080fd5b50356001600160a01b0316610795565b6102d16107e4565b6101da6004803603604081101561039757600080fd5b506001600160a01b0381351690602001356107f6565b6101da600480360360408110156103c357600080fd5b506001600160a01b038135169060200135610864565b6101da600480360360208110156103ef57600080fd5b50356001600160a01b0316610878565b6101f66004803603604081101561041557600080fd5b506001600160a01b038135811691602001351661088b565b6102d16108b6565b6102d16004803603602081101561044b57600080fd5b50356001600160a01b03166108c6565b60048054604080516020601f60026000196101006001881615020190951694909404938401819004810282018101909252828152606093909290918301828280156104e75780601f106104bc576101008083540402835291602001916104e7565b820191906000526020600020905b8154815290600101906020018083116104ca57829003601f168201915b5050505050905090565b60006105056104fe610915565b8484610919565b50600192915050565b60025490565b6000610521848484610a05565b6105978461052d610915565b61059285604051806060016040528060288152602001611274602891396001600160a01b038a1660009081526001602052604081209061056b610915565b6001600160a01b03168152602081019190915260400160002054919063ffffffff610b6116565b610919565b5060019392505050565b60065460ff1690565b60006105056105b7610915565b8461059285600160006105c8610915565b6001600160a01b03908116825260208083019390935260409182016000908120918c16815292529020549063ffffffff610bf816565b600061061061060b610915565b610878565b61064b5760405162461bcd60e51b81526004018080602001828103825260308152602001806112236030913960400191505060405180910390fd5b6105058383610c59565b610665610660610915565b6106ac565b6106a05760405162461bcd60e51b81526004018080602001828103825260308152602001806111f36030913960400191505060405180910390fd5b6106a981610d49565b50565b60006106bf60078363ffffffff610d5a16565b92915050565b6001600160a01b031660009081526020819052604090205490565b6106eb610660610915565b6107265760405162461bcd60e51b81526004018080602001828103825260308152602001806111f36030913960400191505060405180910390fd5b6107308282610dc1565b5050565b60058054604080516020601f60026000196101006001881615020190951694909404938401819004810282018101909252828152606093909290918301828280156104e75780601f106104bc576101008083540402835291602001916104e7565b6107a061060b610915565b6107db5760405162461bcd60e51b81526004018080602001828103825260308152602001806112236030913960400191505060405180910390fd5b6106a981610dcb565b6107f46107ef610915565b610e13565b565b6000610505610803610915565b846105928560405180606001604052806025815260200161134c602591396001600061082d610915565b6001600160a01b03908116825260208083019390935260409182016000908120918d1681529252902054919063ffffffff610b6116565b6000610505610871610915565b8484610a05565b60006106bf60038363ffffffff610d5a16565b6001600160a01b03918216600090815260016020908152604080832093909416825291909152205490565b6107f46108c1610915565b610e5b565b6108d1610660610915565b61090c5760405162461bcd60e51b81526004018080602001828103825260308152602001806111f36030913960400191505060405180910390fd5b6106a981610ea3565b3390565b6001600160a01b03831661095e5760405162461bcd60e51b81526004018080602001828103825260248152602001806113286024913960400191505060405180910390fd5b6001600160a01b0382166109a35760405162461bcd60e51b81526004018080602001828103825260228152602001806111ab6022913960400191505060405180910390fd5b6001600160a01b03808416600081815260016020908152604080832094871680845294825291829020859055815185815291517f8c5be1e5ebec7d5bd14f71427d1e84f3dd0314c0f7b2291e5b200ac8c7c3b9259281900390910190a3505050565b6001600160a01b038316610a4a5760405162461bcd60e51b81526004018080602001828103825260258152602001806113036025913960400191505060405180910390fd5b6001600160a01b038216610a8f5760405162461bcd60e51b81526004018080602001828103825260238152602001806111666023913960400191505060405180910390fd5b610ad2816040518060600160405280602681526020016111cd602691396001600160a01b038616600090815260208190526040902054919063ffffffff610b6116565b6001600160a01b038085166000908152602081905260408082209390935590841681522054610b07908263ffffffff610bf816565b6001600160a01b038084166000818152602081815260409182902094909455805185815290519193928716927fddf252ad1be2c89b69c2b068fc378daa952ba7f163c4a11628f55a4df523b3ef92918290030190a3505050565b60008184841115610bf05760405162461bcd60e51b81526004018080602001828103825283818151815260200191508051906020019080838360005b83811015610bb5578181015183820152602001610b9d565b50505050905090810190601f168015610be25780820380516001836020036101000a031916815260200191505b509250505060405180910390fd5b505050900390565b600082820183811015610c52576040805162461bcd60e51b815260206004820152601b60248201527f536166654d6174683a206164646974696f6e206f766572666c6f770000000000604482015290519081900360640190fd5b9392505050565b6001600160a01b038216610cb4576040805162461bcd60e51b815260206004820152601f60248201527f45524332303a206d696e7420746f20746865207a65726f206164647265737300604482015290519081900360640190fd5b600254610cc7908263ffffffff610bf816565b6002556001600160a01b038216600090815260208190526040902054610cf3908263ffffffff610bf816565b6001600160a01b0383166000818152602081815260408083209490945583518581529351929391927fddf252ad1be2c89b69c2b068fc378daa952ba7f163c4a11628f55a4df523b3ef9281900390910190a35050565b6106a9610d54610915565b82610eeb565b60006001600160a01b038216610da15760405162461bcd60e51b815260040180806020018281038252602281526020018061129c6022913960400191505060405180910390fd5b506001600160a01b03166000908152602091909152604090205460ff1690565b6107308282610fe7565b610ddc60038263ffffffff61103b16565b6040516001600160a01b038216907f6ae172837ea30b801fbfcdd4108aa1d5bf8ff775444fd70256b44e6bf3dfc3f690600090a250565b610e2460038263ffffffff6110bc16565b6040516001600160a01b038216907fe94479a9f7e1952cc78f2d6baab678adc1b772d936c6583def489e524cb6669290600090a250565b610e6c60078263ffffffff6110bc16565b6040516001600160a01b038216907f90eabbc0c667db2a5029ed6bc0f5fe9f356d11684a4ca9fcfaec0e53f12b9c8e90600090a250565b610eb460078263ffffffff61103b16565b6040516001600160a01b038216907f86e57fd2b90329052917118de7c3f521f400d439b9650deaa906a25b08b9456090600090a250565b6001600160a01b038216610f305760405162461bcd60e51b81526004018080602001828103825260218152602001806112e26021913960400191505060405180910390fd5b610f7381604051806060016040528060228152602001611189602291396001600160a01b038516600090815260208190526040902054919063ffffffff610b6116565b6001600160a01b038316600090815260208190526040902055600254610f9f908263ffffffff61112316565b6002556040805182815290516000916001600160a01b038516917fddf252ad1be2c89b69c2b068fc378daa952ba7f163c4a11628f55a4df523b3ef9181900360200190a35050565b610ff18282610eeb565b61073082610ffd610915565b610592846040518060600160405280602481526020016112be602491396001600160a01b03881660009081526001602052604081209061056b610915565b6110458282610d5a565b15611097576040805162461bcd60e51b815260206004820152601f60248201527f526f6c65733a206163636f756e7420616c72656164792068617320726f6c6500604482015290519081900360640190fd5b6001600160a01b0316600090815260209190915260409020805460ff19166001179055565b6110c68282610d5a565b6111015760405162461bcd60e51b81526004018080602001828103825260218152602001806112536021913960400191505060405180910390fd5b6001600160a01b0316600090815260209190915260409020805460ff19169055565b6000610c5283836040518060400160405280601e81526020017f536166654d6174683a207375627472616374696f6e206f766572666c6f770000815250610b6156fe45524332303a207472616e7366657220746f20746865207a65726f206164647265737345524332303a206275726e20616d6f756e7420657863656564732062616c616e636545524332303a20617070726f766520746f20746865207a65726f206164647265737345524332303a207472616e7366657220616d6f756e7420657863656564732062616c616e63654275726e6572526f6c653a2063616c6c657220646f6573206e6f74206861766520746865204275726e657220726f6c654d696e746572526f6c653a2063616c6c657220646f6573206e6f74206861766520746865204d696e74657220726f6c65526f6c65733a206163636f756e7420646f6573206e6f74206861766520726f6c6545524332303a207472616e7366657220616d6f756e74206578636565647320616c6c6f77616e6365526f6c65733a206163636f756e7420697320746865207a65726f206164647265737345524332303a206275726e20616d6f756e74206578636565647320616c6c6f77616e636545524332303a206275726e2066726f6d20746865207a65726f206164647265737345524332303a207472616e736665722066726f6d20746865207a65726f206164647265737345524332303a20617070726f76652066726f6d20746865207a65726f206164647265737345524332303a2064656372656173656420616c6c6f77616e63652062656c6f77207a65726fa265627a7a72315820426ab355e9a2908e9def7b4d551afd265d23eb2f2bb7175321eedc0f0854af2164736f6c634300051100324275726e6572526f6c653a2063616c6c657220646f6573206e6f74206861766520746865204275726e657220726f6c654d696e746572526f6c653a2063616c6c657220646f6573206e6f74206861766520746865204d696e74657220726f6c65526f6c65733a206163636f756e7420697320746865207a65726f206164647265737342726f6b6572526f6c653a2063616c6c657220646f6573206e6f742068617665207468652042726f6b657220726f6c65526f6c65733a206163636f756e7420697320746865207a65726f206164647265737341646d696e526f6c653a2063616c6c657220646f6573206e6f742068617665207468652041646d696e20726f6c65","bytecodeSha1":"da39a3ee5e6b4b0d3255bfef95601890afd80709","compiler":{"evm_version":"istanbul","optimizer":{"enabled":true,"runs":200},"version":"0.5.17"},"contractName":"token_exchange","language":"Solidity","natspec":{"methods":{}},"opcodes":"PUSH1 0x80 PUSH1 0x40 MSTORE CALLVALUE DUP1 ISZERO PUSH2 0x10 JUMPI PUSH1 0x0 DUP1 REVERT JUMPDEST POP PUSH1 0x4 CALLDATASIZE LT PUSH2 0x116 JUMPI PUSH1 0x0 CALLDATALOAD PUSH1 0xE0 SHR DUP1 PUSH4 0x8BAD0C0A GT PUSH2 0xA2 JUMPI DUP1 PUSH4 0xC8691B2A GT PUSH2 0x71 JUMPI DUP1 PUSH4 0xC8691B2A EQ PUSH2 0x299 JUMPI DUP1 PUSH4 0xD96A094A EQ PUSH2 0x2B6 JUMPI DUP1 PUSH4 0xE4849B32 EQ PUSH2 0x2D3 JUMPI DUP1 PUSH4 0xFC0C546A EQ PUSH2 0x2F0 JUMPI DUP1 PUSH4 0xFFB4E075 EQ PUSH2 0x314 JUMPI PUSH2 0x116 JUMP JUMPDEST DUP1 PUSH4 0x8BAD0C0A EQ PUSH2 0x21F JUMPI DUP1 PUSH4 0x9C9795B2 EQ PUSH2 0x227 JUMPI DUP1 PUSH4 0xA48FF782 EQ PUSH2 0x25E JUMPI DUP1 PUSH4 0xA9671193 EQ PUSH2 0x27C JUMPI PUSH2 0x116 JUMP JUMPDEST DUP1 PUSH4 0x47535D7B GT PUSH2 0xE9 JUMPI DUP1 PUSH4 0x47535D7B EQ PUSH2 0x1A6 JUMPI DUP1 PUSH4 0x4F15E62E EQ PUSH2 0x1AE JUMPI DUP1 PUSH4 0x70480275 EQ PUSH2 0x1B6 JUMPI DUP1 PUSH4 0x761909D0 EQ PUSH2 0x1DC JUMPI DUP1 PUSH4 0x836CAE65 EQ PUSH2 0x1F9 JUMPI PUSH2 0x116 JUMP JUMPDEST DUP1 PUSH4 0x53F14DA EQ PUSH2 0x11B JUMPI DUP1 PUSH4 0x22B31D9F EQ PUSH2 0x13C JUMPI DUP1 PUSH4 0x24D7806C EQ PUSH2 0x176 JUMPI DUP1 PUSH4 0x431E5C9D EQ PUSH2 0x19C JUMPI JUMPDEST PUSH1 0x0 DUP1 REVERT JUMPDEST PUSH2 0x123 PUSH2 0x31C JUMP JUMPDEST PUSH1 0x40 DUP1 MLOAD SWAP3 DUP4 MSTORE PUSH1 0x20 DUP4 ADD SWAP2 SWAP1 SWAP2 MSTORE DUP1 MLOAD SWAP2 DUP3 SWAP1 SUB ADD SWAP1 RETURN JUMPDEST PUSH2 0x162 PUSH1 0x4 DUP1 CALLDATASIZE SUB PUSH1 0x20 DUP2 LT ISZERO PUSH2 0x152 JUMPI PUSH1 0x0 DUP1 REVERT JUMPDEST POP CALLDATALOAD PUSH1 0x1 PUSH1 0x1 PUSH1 0xA0 SHL SUB AND PUSH2 0x367 JUMP JUMPDEST PUSH1 0x40 DUP1 MLOAD SWAP2 ISZERO ISZERO DUP3 MSTORE MLOAD SWAP1 DUP2 SWAP1 SUB PUSH1 0x20 ADD SWAP1 RETURN JUMPDEST PUSH2 0x162 PUSH1 0x4 DUP1 CALLDATASIZE SUB PUSH1 0x20 DUP2 LT ISZERO PUSH2 0x18C JUMPI PUSH1 0x0 DUP1 REVERT JUMPDEST POP CALLDATALOAD PUSH1 0x1 PUSH1 0x1 PUSH1 0xA0 SHL SUB AND PUSH2 0x37F JUMP JUMPDEST PUSH2 0x1A4 PUSH2 0x392 JUMP JUMPDEST STOP JUMPDEST PUSH2 0x162 PUSH2 0x3A4 JUMP JUMPDEST PUSH2 0x1A4 PUSH2 0x3BF JUMP JUMPDEST PUSH2 0x1A4 PUSH1 0x4 DUP1 CALLDATASIZE SUB PUSH1 0x20 DUP2 LT ISZERO PUSH2 0x1CC JUMPI PUSH1 0x0 DUP1 REVERT JUMPDEST POP CALLDATALOAD PUSH1 0x1 PUSH1 0x1 PUSH1 0xA0 SHL SUB AND PUSH2 0x47D JUMP JUMPDEST PUSH2 0x1A4 PUSH1 0x4 DUP1 CALLDATASIZE SUB PUSH1 0x20 DUP2 LT ISZERO PUSH2 0x1F2 JUMPI PUSH1 0x0 DUP1 REVERT JUMPDEST POP CALLDATALOAD PUSH2 0x4CF JUMP JUMPDEST PUSH2 0x1A4 PUSH1 0x4 DUP1 CALLDATASIZE SUB PUSH1 0x20 DUP2 LT ISZERO PUSH2 0x20F JUMPI PUSH1 0x0 DUP1 REVERT JUMPDEST POP CALLDATALOAD PUSH1 0x1 PUSH1 0x1 PUSH1 0xA0 SHL SUB AND PUSH2 0x54F JUMP JUMPDEST PUSH2 0x1A4 PUSH2 0x59E JUMP JUMPDEST PUSH2 0x24C PUSH1 0x4 DUP1 CALLDATASIZE SUB PUSH1 0x40 DUP2 LT ISZERO PUSH2 0x23D JUMPI PUSH1 0x0 DUP1 REVERT JUMPDEST POP DUP1 CALLDATALOAD SWAP1 PUSH1 0x20 ADD CALLDATALOAD ISZERO ISZERO PUSH2 0x5AE JUMP JUMPDEST PUSH1 0x40 DUP1 MLOAD SWAP2 DUP3 MSTORE MLOAD SWAP1 DUP2 SWAP1 SUB PUSH1 0x20 ADD SWAP1 RETURN JUMPDEST PUSH2 0x266 PUSH2 0x6CE JUMP JUMPDEST PUSH1 0x40 DUP1 MLOAD PUSH1 0xFF SWAP1 SWAP3 AND DUP3 MSTORE MLOAD SWAP1 DUP2 SWAP1 SUB PUSH1 0x20 ADD SWAP1 RETURN JUMPDEST PUSH2 0x24C PUSH1 0x4 DUP1 CALLDATASIZE SUB PUSH1 0x20 DUP2 LT ISZERO PUSH2 0x292 JUMPI PUSH1 0x0 DUP1 REVERT JUMPDEST POP CALLDATALOAD PUSH2 0x6D7 JUMP JUMPDEST PUSH2 0x24C PUSH1 0x4 DUP1 CALLDATASIZE SUB PUSH1 0x20 DUP2 LT ISZERO PUSH2 0x2AF JUMPI PUSH1 0x0 DUP1 REVERT JUMPDEST POP CALLDATALOAD PUSH2 0x993 JUMP JUMPDEST PUSH2 0x162 PUSH1 0x4 DUP1 CALLDATASIZE SUB PUSH1 0x20 DUP2 LT ISZERO PUSH2 0x2CC JUMPI PUSH1 0x0 DUP1 REVERT JUMPDEST POP CALLDATALOAD PUSH2 0x9B4 JUMP JUMPDEST PUSH2 0x162 PUSH1 0x4 DUP1 CALLDATASIZE SUB PUSH1 0x20 DUP2 LT ISZERO PUSH2 0x2E9 JUMPI PUSH1 0x0 DUP1 REVERT JUMPDEST POP CALLDATALOAD PUSH2 0xA9F JUMP JUMPDEST PUSH2 0x2F8 PUSH2 0xB43 JUMP JUMPDEST PUSH1 0x40 DUP1 MLOAD PUSH1 0x1 PUSH1 0x1 PUSH1 0xA0 SHL SUB SWAP1 SWAP3 AND DUP3 MSTORE MLOAD SWAP1 DUP2 SWAP1 SUB PUSH1 0x20 ADD SWAP1 RETURN JUMPDEST PUSH2 0x2F8 PUSH2 0xB52 JUMP JUMPDEST PUSH1 0x8 SLOAD PUSH1 0x0 SWAP1 DUP2 SWAP1 PUSH2 0x335 SWAP1 PUSH1 0x1 PUSH4 0xFFFFFFFF PUSH2 0xB61 AND JUMP JUMPDEST PUSH1 0x8 DUP1 SLOAD PUSH2 0x34A SWAP1 PUSH1 0x1 PUSH4 0xFFFFFFFF PUSH2 0xB61 AND JUMP JUMPDEST DUP2 SLOAD DUP2 LT PUSH2 0x354 JUMPI INVALID JUMPDEST SWAP1 PUSH1 0x0 MSTORE PUSH1 0x20 PUSH1 0x0 KECCAK256 ADD SLOAD SWAP2 POP SWAP2 POP SWAP1 SWAP2 JUMP JUMPDEST PUSH1 0x0 PUSH2 0x379 DUP2 DUP4 PUSH4 0xFFFFFFFF PUSH2 0xBAA AND JUMP JUMPDEST SWAP3 SWAP2 POP POP JUMP JUMPDEST PUSH1 0x0 PUSH2 0x379 PUSH1 0x1 DUP4 PUSH4 0xFFFFFFFF PUSH2 0xBAA AND JUMP JUMPDEST PUSH2 0x3A2 PUSH2 0x39D PUSH2 0xC11 JUMP JUMPDEST PUSH2 0xC15 JUMP JUMPDEST JUMP JUMPDEST PUSH1 0x0 PUSH1 0x5 SLOAD TIMESTAMP LT ISZERO DUP1 ISZERO PUSH2 0x3BA JUMPI POP PUSH1 0x6 SLOAD TIMESTAMP GT ISZERO JUMPDEST SWAP1 POP SWAP1 JUMP JUMPDEST PUSH2 0x3CF PUSH2 0x3CA PUSH2 0xC11 JUMP JUMPDEST PUSH2 0x37F JUMP JUMPDEST PUSH2 0x40A JUMPI PUSH1 0x40 MLOAD PUSH3 0x461BCD PUSH1 0xE5 SHL DUP2 MSTORE PUSH1 0x4 ADD DUP1 DUP1 PUSH1 0x20 ADD DUP3 DUP2 SUB DUP3 MSTORE PUSH1 0x2E DUP2 MSTORE PUSH1 0x20 ADD DUP1 PUSH2 0x13B0 PUSH1 0x2E SWAP2 CODECOPY PUSH1 0x40 ADD SWAP2 POP POP PUSH1 0x40 MLOAD DUP1 SWAP2 SUB SWAP1 REVERT JUMPDEST PUSH1 0x6 SLOAD PUSH1 0x5 SLOAD LT PUSH2 0x44C JUMPI PUSH1 0x40 MLOAD PUSH3 0x461BCD PUSH1 0xE5 SHL DUP2 MSTORE PUSH1 0x4 ADD DUP1 DUP1 PUSH1 0x20 ADD DUP3 DUP2 SUB DUP3 MSTORE PUSH1 0x40 DUP2 MSTORE PUSH1 0x20 ADD DUP1 PUSH2 0x132D PUSH1 0x40 SWAP2 CODECOPY PUSH1 0x40 ADD SWAP2 POP POP PUSH1 0x40 MLOAD DUP1 SWAP2 SUB SWAP1 REVERT JUMPDEST PUSH1 0x6 SLOAD PUSH2 0x461 SWAP1 PUSH2 0xD2F0 PUSH4 0xFFFFFFFF PUSH2 0xC5D AND JUMP JUMPDEST PUSH1 0x5 DUP2 SWAP1 SSTORE PUSH2 0x478 SWAP1 PUSH2 0x7E90 PUSH4 0xFFFFFFFF PUSH2 0xC5D AND JUMP JUMPDEST PUSH1 0x6 SSTORE JUMP JUMPDEST PUSH2 0x488 PUSH2 0x3CA PUSH2 0xC11 JUMP JUMPDEST PUSH2 0x4C3 JUMPI PUSH1 0x40 MLOAD PUSH3 0x461BCD PUSH1 0xE5 SHL DUP2 MSTORE PUSH1 0x4 ADD DUP1 DUP1 PUSH1 0x20 ADD DUP3 DUP2 SUB DUP3 MSTORE PUSH1 0x2E DUP2 MSTORE PUSH1 0x20 ADD DUP1 PUSH2 0x13B0 PUSH1 0x2E SWAP2 CODECOPY PUSH1 0x40 ADD SWAP2 POP POP PUSH1 0x40 MLOAD DUP1 SWAP2 SUB SWAP1 REVERT JUMPDEST PUSH2 0x4CC DUP2 PUSH2 0xCB7 JUMP JUMPDEST POP JUMP JUMPDEST PUSH2 0x4DF PUSH2 0x4DA PUSH2 0xC11 JUMP JUMPDEST PUSH2 0x367 JUMP JUMPDEST PUSH2 0x51A JUMPI PUSH1 0x40 MLOAD PUSH3 0x461BCD PUSH1 0xE5 SHL DUP2 MSTORE PUSH1 0x4 ADD DUP1 DUP1 PUSH1 0x20 ADD DUP3 DUP2 SUB DUP3 MSTORE PUSH1 0x30 DUP2 MSTORE PUSH1 0x20 ADD DUP1 PUSH2 0x12DC PUSH1 0x30 SWAP2 CODECOPY PUSH1 0x40 ADD SWAP2 POP POP PUSH1 0x40 MLOAD DUP1 SWAP2 SUB SWAP1 REVERT JUMPDEST PUSH1 0x8 DUP1 SLOAD PUSH1 0x1 DUP2 ADD DUP3 SSTORE PUSH1 0x0 SWAP2 SWAP1 SWAP2 MSTORE PUSH32 0xF3F7A9FE364FAAB93B216DA50A3214154F22A0A2B415B23A84C8169E8B636EE3 ADD SSTORE JUMP JUMPDEST PUSH2 0x55A PUSH2 0x4DA PUSH2 0xC11 JUMP JUMPDEST PUSH2 0x595 JUMPI PUSH1 0x40 MLOAD PUSH3 0x461BCD PUSH1 0xE5 SHL DUP2 MSTORE PUSH1 0x4 ADD DUP1 DUP1 PUSH1 0x20 ADD DUP3 DUP2 SUB DUP3 MSTORE PUSH1 0x30 DUP2 MSTORE PUSH1 0x20 ADD DUP1 PUSH2 0x12DC PUSH1 0x30 SWAP2 CODECOPY PUSH1 0x40 ADD SWAP2 POP POP PUSH1 0x40 MLOAD DUP1 SWAP2 SUB SWAP1 REVERT JUMPDEST PUSH2 0x4CC DUP2 PUSH2 0xCFF JUMP JUMPDEST PUSH2 0x3A2 PUSH2 0x5A9 PUSH2 0xC11 JUMP JUMPDEST PUSH2 0xD47 JUMP JUMPDEST PUSH1 0x0 DUP1 PUSH1 0x2 PUSH1 0x0 SWAP1 SLOAD SWAP1 PUSH2 0x100 EXP SWAP1 DIV PUSH1 0x1 PUSH1 0x1 PUSH1 0xA0 SHL SUB AND PUSH1 0x1 PUSH1 0x1 PUSH1 0xA0 SHL SUB AND PUSH4 0x313CE567 PUSH1 0x40 MLOAD DUP2 PUSH4 0xFFFFFFFF AND PUSH1 0xE0 SHL DUP2 MSTORE PUSH1 0x4 ADD PUSH1 0x20 PUSH1 0x40 MLOAD DUP1 DUP4 SUB DUP2 DUP7 DUP1 EXTCODESIZE ISZERO DUP1 ISZERO PUSH2 0x5FF JUMPI PUSH1 0x0 DUP1 REVERT JUMPDEST POP GAS STATICCALL ISZERO DUP1 ISZERO PUSH2 0x613 JUMPI RETURNDATASIZE PUSH1 0x0 DUP1 RETURNDATACOPY RETURNDATASIZE PUSH1 0x0 REVERT JUMPDEST POP POP POP POP PUSH1 0x40 MLOAD RETURNDATASIZE PUSH1 0x20 DUP2 LT ISZERO PUSH2 0x629 JUMPI PUSH1 0x0 DUP1 REVERT JUMPDEST POP MLOAD PUSH1 0xFF AND SWAP1 POP DUP3 ISZERO PUSH2 0x68C JUMPI PUSH2 0x684 PUSH2 0x65C PUSH2 0x3E8 PUSH2 0x650 DUP8 PUSH1 0x2 PUSH4 0xFFFFFFFF PUSH2 0xD8F AND JUMP JUMPDEST SWAP1 PUSH4 0xFFFFFFFF PUSH2 0xDE8 AND JUMP JUMPDEST PUSH2 0x678 DUP4 PUSH1 0xA EXP PUSH2 0x650 PUSH1 0x4 SLOAD DUP10 PUSH2 0xD8F SWAP1 SWAP2 SWAP1 PUSH4 0xFFFFFFFF AND JUMP JUMPDEST SWAP1 PUSH4 0xFFFFFFFF PUSH2 0xC5D AND JUMP JUMPDEST SWAP2 POP POP PUSH2 0x379 JUMP JUMPDEST PUSH2 0x684 PUSH2 0x6A6 PUSH2 0x3E8 PUSH2 0x650 DUP8 PUSH1 0x2 PUSH4 0xFFFFFFFF PUSH2 0xD8F AND JUMP JUMPDEST PUSH2 0x6C2 DUP4 PUSH1 0xA EXP PUSH2 0x650 PUSH1 0x4 SLOAD DUP10 PUSH2 0xD8F SWAP1 SWAP2 SWAP1 PUSH4 0xFFFFFFFF AND JUMP JUMPDEST SWAP1 PUSH4 0xFFFFFFFF PUSH2 0xB61 AND JUMP JUMPDEST PUSH1 0x7 SLOAD PUSH1 0xFF AND DUP2 JUMP JUMPDEST PUSH1 0x0 PUSH2 0x6E4 PUSH2 0x4DA PUSH2 0xC11 JUMP JUMPDEST PUSH2 0x71F JUMPI PUSH1 0x40 MLOAD PUSH3 0x461BCD PUSH1 0xE5 SHL DUP2 MSTORE PUSH1 0x4 ADD DUP1 DUP1 PUSH1 0x20 ADD DUP3 DUP2 SUB DUP3 MSTORE PUSH1 0x30 DUP2 MSTORE PUSH1 0x20 ADD DUP1 PUSH2 0x12DC PUSH1 0x30 SWAP2 CODECOPY PUSH1 0x40 ADD SWAP2 POP POP PUSH1 0x40 MLOAD DUP1 SWAP2 SUB SWAP1 REVERT JUMPDEST PUSH1 0x8 DUP1 SLOAD PUSH1 0x0 SWAP2 SWAP1 PUSH2 0x738 SWAP1 PUSH1 0x1 PUSH4 0xFFFFFFFF PUSH2 0xB61 AND JUMP JUMPDEST DUP2 SLOAD DUP2 LT PUSH2 0x742 JUMPI INVALID JUMPDEST PUSH1 0x0 SWAP2 DUP3 MSTORE PUSH1 0x20 DUP3 KECCAK256 ADD SLOAD SWAP2 POP DUP4 DUP3 ADD SWAP1 DUP1 DUP3 SGT PUSH2 0x7A7 JUMPI PUSH1 0x40 DUP1 MLOAD PUSH3 0x461BCD PUSH1 0xE5 SHL DUP2 MSTORE PUSH1 0x20 PUSH1 0x4 DUP3 ADD MSTORE PUSH1 0x17 PUSH1 0x24 DUP3 ADD MSTORE PUSH32 0x5072696365206D75737420626520706F73697469766521000000000000000000 PUSH1 0x44 DUP3 ADD MSTORE SWAP1 MLOAD SWAP1 DUP2 SWAP1 SUB PUSH1 0x64 ADD SWAP1 REVERT JUMPDEST PUSH2 0x7B2 PUSH2 0x3CA PUSH2 0xC11 JUMP JUMPDEST ISZERO PUSH2 0x866 JUMPI PUSH2 0x7BF PUSH2 0x3A4 JUMP JUMPDEST PUSH2 0x803 JUMPI PUSH1 0x40 DUP1 MLOAD PUSH3 0x461BCD PUSH1 0xE5 SHL DUP2 MSTORE PUSH1 0x20 PUSH1 0x4 DUP3 ADD MSTORE PUSH1 0x10 PUSH1 0x24 DUP3 ADD MSTORE PUSH16 0x13585C9AD95D081A5CC818DB1BDCD959 PUSH1 0x82 SHL PUSH1 0x44 DUP3 ADD MSTORE SWAP1 MLOAD SWAP1 DUP2 SWAP1 SUB PUSH1 0x64 ADD SWAP1 REVERT JUMPDEST PUSH2 0x80C DUP3 PUSH2 0x4CF JUMP JUMPDEST PUSH1 0x8 SLOAD PUSH2 0x820 SWAP1 PUSH1 0x1 PUSH4 0xFFFFFFFF PUSH2 0xB61 AND JUMP JUMPDEST SWAP1 POP DUP2 DUP2 PUSH2 0x82C PUSH2 0xC11 JUMP JUMPDEST PUSH1 0x1 PUSH1 0x1 PUSH1 0xA0 SHL SUB AND PUSH32 0x24E1C492BC15609A5125924E67E792A203A4F550A353426FAD01A2C6D5FF976 PUSH1 0x40 MLOAD PUSH1 0x40 MLOAD DUP1 SWAP2 SUB SWAP1 LOG4 PUSH2 0x98B JUMP JUMPDEST PUSH1 0x7 SLOAD PUSH1 0x4 PUSH1 0xFF SWAP1 SWAP2 AND LT PUSH2 0x8AC JUMPI PUSH1 0x40 MLOAD PUSH3 0x461BCD PUSH1 0xE5 SHL DUP2 MSTORE PUSH1 0x4 ADD DUP1 DUP1 PUSH1 0x20 ADD DUP3 DUP2 SUB DUP3 MSTORE PUSH1 0x21 DUP2 MSTORE PUSH1 0x20 ADD DUP1 PUSH2 0x12BB PUSH1 0x21 SWAP2 CODECOPY PUSH1 0x40 ADD SWAP2 POP POP PUSH1 0x40 MLOAD DUP1 SWAP2 SUB SWAP1 REVERT JUMPDEST PUSH2 0x8D2 PUSH2 0x8C5 PUSH1 0x64 PUSH2 0x650 DUP7 PUSH1 0xA PUSH4 0xFFFFFFFF PUSH2 0xD8F AND JUMP JUMPDEST DUP5 SWAP1 PUSH4 0xFFFFFFFF PUSH2 0xB61 AND JUMP JUMPDEST DUP3 GT DUP1 ISZERO PUSH2 0x904 JUMPI POP PUSH2 0x901 PUSH2 0x8F4 PUSH1 0x64 PUSH2 0x650 DUP7 PUSH1 0xA PUSH4 0xFFFFFFFF PUSH2 0xD8F AND JUMP JUMPDEST DUP5 SWAP1 PUSH4 0xFFFFFFFF PUSH2 0xC5D AND JUMP JUMPDEST DUP3 LT JUMPDEST PUSH2 0x955 JUMPI PUSH1 0x40 DUP1 MLOAD PUSH3 0x461BCD PUSH1 0xE5 SHL DUP2 MSTORE PUSH1 0x20 PUSH1 0x4 DUP3 ADD MSTORE PUSH1 0x1C PUSH1 0x24 DUP3 ADD MSTORE PUSH32 0x43616E2774206368616E6765206D6F7265207468616E202D2B31302500000000 PUSH1 0x44 DUP3 ADD MSTORE SWAP1 MLOAD SWAP1 DUP2 SWAP1 SUB PUSH1 0x64 ADD SWAP1 REVERT JUMPDEST PUSH2 0x95E DUP3 PUSH2 0x4CF JUMP JUMPDEST PUSH1 0x8 SLOAD PUSH2 0x972 SWAP1 PUSH1 0x1 PUSH4 0xFFFFFFFF PUSH2 0xB61 AND JUMP JUMPDEST PUSH1 0x7 DUP1 SLOAD PUSH1 0xFF DUP1 DUP3 AND PUSH1 0x1 ADD AND PUSH1 0xFF NOT SWAP1 SWAP2 AND OR SWAP1 SSTORE SWAP1 POP JUMPDEST SWAP5 SWAP4 POP POP POP POP JUMP JUMPDEST PUSH1 0x0 PUSH1 0x8 DUP3 DUP2 SLOAD DUP2 LT PUSH2 0x9A2 JUMPI INVALID JUMPDEST SWAP1 PUSH1 0x0 MSTORE PUSH1 0x20 PUSH1 0x0 KECCAK256 ADD SLOAD SWAP1 POP SWAP2 SWAP1 POP JUMP JUMPDEST PUSH1 0x0 PUSH2 0x9BE PUSH2 0x3A4 JUMP JUMPDEST PUSH2 0xA02 JUMPI PUSH1 0x40 DUP1 MLOAD PUSH3 0x461BCD PUSH1 0xE5 SHL DUP2 MSTORE PUSH1 0x20 PUSH1 0x4 DUP3 ADD MSTORE PUSH1 0x10 PUSH1 0x24 DUP3 ADD MSTORE PUSH16 0x13585C9AD95D081A5CC818DB1BDCD959 PUSH1 0x82 SHL PUSH1 0x44 DUP3 ADD MSTORE SWAP1 MLOAD SWAP1 DUP2 SWAP1 SUB PUSH1 0x64 ADD SWAP1 REVERT JUMPDEST PUSH2 0xA97 PUSH2 0xA0D PUSH2 0xC11 JUMP JUMPDEST PUSH1 0x2 SLOAD PUSH1 0x40 DUP1 MLOAD PUSH4 0x313CE567 PUSH1 0xE0 SHL DUP2 MSTORE SWAP1 MLOAD PUSH2 0xA92 SWAP3 PUSH1 0x1 PUSH1 0x1 PUSH1 0xA0 SHL SUB AND SWAP2 PUSH4 0x313CE567 SWAP2 PUSH1 0x4 DUP1 DUP4 ADD SWAP3 PUSH1 0x20 SWAP3 SWAP2 SWAP1 DUP3 SWAP1 SUB ADD DUP2 DUP7 DUP1 EXTCODESIZE ISZERO DUP1 ISZERO PUSH2 0xA53 JUMPI PUSH1 0x0 DUP1 REVERT JUMPDEST POP GAS STATICCALL ISZERO DUP1 ISZERO PUSH2 0xA67 JUMPI RETURNDATASIZE PUSH1 0x0 DUP1 RETURNDATACOPY RETURNDATASIZE PUSH1 0x0 REVERT JUMPDEST POP POP POP POP PUSH1 0x40 MLOAD RETURNDATASIZE PUSH1 0x20 DUP2 LT ISZERO PUSH2 0xA7D JUMPI PUSH1 0x0 DUP1 REVERT JUMPDEST POP MLOAD DUP6 SWAP1 PUSH1 0xFF AND PUSH1 0xA EXP PUSH4 0xFFFFFFFF PUSH2 0xD8F AND JUMP JUMPDEST PUSH2 0xE2A JUMP JUMPDEST POP PUSH1 0x1 SWAP2 SWAP1 POP JUMP JUMPDEST PUSH1 0x0 PUSH2 0xAA9 PUSH2 0x3A4 JUMP JUMPDEST PUSH2 0xAED JUMPI PUSH1 0x40 DUP1 MLOAD PUSH3 0x461BCD PUSH1 0xE5 SHL DUP2 MSTORE PUSH1 0x20 PUSH1 0x4 DUP3 ADD MSTORE PUSH1 0x10 PUSH1 0x24 DUP3 ADD MSTORE PUSH16 0x13585C9AD95D081A5CC818DB1BDCD959 PUSH1 0x82 SHL PUSH1 0x44 DUP3 ADD MSTORE SWAP1 MLOAD SWAP1 DUP2 SWAP1 SUB PUSH1 0x64 ADD SWAP1 REVERT JUMPDEST PUSH2 0xA97 PUSH2 0xAF8 PUSH2 0xC11 JUMP JUMPDEST PUSH1 0x2 SLOAD PUSH1 0x40 DUP1 MLOAD PUSH4 0x313CE567 PUSH1 0xE0 SHL DUP2 MSTORE SWAP1 MLOAD PUSH2 0xB3E SWAP3 PUSH1 0x1 PUSH1 0x1 PUSH1 0xA0 SHL SUB AND SWAP2 PUSH4 0x313CE567 SWAP2 PUSH1 0x4 DUP1 DUP4 ADD SWAP3 PUSH1 0x20 SWAP3 SWAP2 SWAP1 DUP3 SWAP1 SUB ADD DUP2 DUP7 DUP1 EXTCODESIZE ISZERO DUP1 ISZERO PUSH2 0xA53 JUMPI PUSH1 0x0 DUP1 REVERT JUMPDEST PUSH2 0xF9B JUMP JUMPDEST PUSH1 0x2 SLOAD PUSH1 0x1 PUSH1 0x1 PUSH1 0xA0 SHL SUB AND DUP2 JUMP JUMPDEST PUSH1 0x3 SLOAD PUSH1 0x1 PUSH1 0x1 PUSH1 0xA0 SHL SUB AND DUP2 JUMP JUMPDEST PUSH1 0x0 PUSH2 0xBA3 DUP4 DUP4 PUSH1 0x40 MLOAD DUP1 PUSH1 0x40 ADD PUSH1 0x40 MSTORE DUP1 PUSH1 0x1E DUP2 MSTORE PUSH1 0x20 ADD PUSH32 0x536166654D6174683A207375627472616374696F6E206F766572666C6F770000 DUP2 MSTORE POP PUSH2 0x10D6 JUMP JUMPDEST SWAP4 SWAP3 POP POP POP JUMP JUMPDEST PUSH1 0x0 PUSH1 0x1 PUSH1 0x1 PUSH1 0xA0 SHL SUB DUP3 AND PUSH2 0xBF1 JUMPI PUSH1 0x40 MLOAD PUSH3 0x461BCD PUSH1 0xE5 SHL DUP2 MSTORE PUSH1 0x4 ADD DUP1 DUP1 PUSH1 0x20 ADD DUP3 DUP2 SUB DUP3 MSTORE PUSH1 0x22 DUP2 MSTORE PUSH1 0x20 ADD DUP1 PUSH2 0x138E PUSH1 0x22 SWAP2 CODECOPY PUSH1 0x40 ADD SWAP2 POP POP PUSH1 0x40 MLOAD DUP1 SWAP2 SUB SWAP1 REVERT JUMPDEST POP PUSH1 0x1 PUSH1 0x1 PUSH1 0xA0 SHL SUB AND PUSH1 0x0 SWAP1 DUP2 MSTORE PUSH1 0x20 SWAP2 SWAP1 SWAP2 MSTORE PUSH1 0x40 SWAP1 KECCAK256 SLOAD PUSH1 0xFF AND SWAP1 JUMP JUMPDEST CALLER SWAP1 JUMP JUMPDEST PUSH2 0xC26 PUSH1 0x0 DUP3 PUSH4 0xFFFFFFFF PUSH2 0x116D AND JUMP JUMPDEST PUSH1 0x40 MLOAD PUSH1 0x1 PUSH1 0x1 PUSH1 0xA0 SHL SUB DUP3 AND SWAP1 PUSH32 0xE5C6F32FB04B7DE81910252A1E1D29267CD9E5FC428AFAD67442D00C7B127BD0 SWAP1 PUSH1 0x0 SWAP1 LOG2 POP JUMP JUMPDEST PUSH1 0x0 DUP3 DUP3 ADD DUP4 DUP2 LT ISZERO PUSH2 0xBA3 JUMPI PUSH1 0x40 DUP1 MLOAD PUSH3 0x461BCD PUSH1 0xE5 SHL DUP2 MSTORE PUSH1 0x20 PUSH1 0x4 DUP3 ADD MSTORE PUSH1 0x1B PUSH1 0x24 DUP3 ADD MSTORE PUSH32 0x536166654D6174683A206164646974696F6E206F766572666C6F770000000000 PUSH1 0x44 DUP3 ADD MSTORE SWAP1 MLOAD SWAP1 DUP2 SWAP1 SUB PUSH1 0x64 ADD SWAP1 REVERT JUMPDEST PUSH2 0xCC8 PUSH1 0x1 DUP3 PUSH4 0xFFFFFFFF PUSH2 0x11D4 AND JUMP JUMPDEST PUSH1 0x40 MLOAD PUSH1 0x1 PUSH1 0x1 PUSH1 0xA0 SHL SUB DUP3 AND SWAP1 PUSH32 0x44D6D25963F097AD14F29F06854A01F575648A1EF82F30E562CCD3889717E339 SWAP1 PUSH1 0x0 SWAP1 LOG2 POP JUMP JUMPDEST PUSH2 0xD10 PUSH1 0x0 DUP3 PUSH4 0xFFFFFFFF PUSH2 0x11D4 AND JUMP JUMPDEST PUSH1 0x40 MLOAD PUSH1 0x1 PUSH1 0x1 PUSH1 0xA0 SHL SUB DUP3 AND SWAP1 PUSH32 0x40C56D2C4C08EEAD919E7228CF5B749297271698EC38E954D322EF4BCF1D58FB SWAP1 PUSH1 0x0 SWAP1 LOG2 POP JUMP JUMPDEST PUSH2 0xD58 PUSH1 0x1 DUP3 PUSH4 0xFFFFFFFF PUSH2 0x116D AND JUMP JUMPDEST PUSH1 0x40 MLOAD PUSH1 0x1 PUSH1 0x1 PUSH1 0xA0 SHL SUB DUP3 AND SWAP1 PUSH32 0xA3B62BC36326052D97EA62D63C3D60308ED4C3EA8AC079DD8499F1E9C4F80C0F SWAP1 PUSH1 0x0 SWAP1 LOG2 POP JUMP JUMPDEST PUSH1 0x0 DUP3 PUSH2 0xD9E JUMPI POP PUSH1 0x0 PUSH2 0x379 JUMP JUMPDEST DUP3 DUP3 MUL DUP3 DUP5 DUP3 DUP2 PUSH2 0xDAB JUMPI INVALID JUMPDEST DIV EQ PUSH2 0xBA3 JUMPI PUSH1 0x40 MLOAD PUSH3 0x461BCD PUSH1 0xE5 SHL DUP2 MSTORE PUSH1 0x4 ADD DUP1 DUP1 PUSH1 0x20 ADD DUP3 DUP2 SUB DUP3 MSTORE PUSH1 0x21 DUP2 MSTORE PUSH1 0x20 ADD DUP1 PUSH2 0x136D PUSH1 0x21 SWAP2 CODECOPY PUSH1 0x40 ADD SWAP2 POP POP PUSH1 0x40 MLOAD DUP1 SWAP2 SUB SWAP1 REVERT JUMPDEST PUSH1 0x0 PUSH2 0xBA3 DUP4 DUP4 PUSH1 0x40 MLOAD DUP1 PUSH1 0x40 ADD PUSH1 0x40 MSTORE DUP1 PUSH1 0x1A DUP2 MSTORE PUSH1 0x20 ADD PUSH32 0x536166654D6174683A206469766973696F6E206279207A65726F000000000000 DUP2 MSTORE POP PUSH2 0x1255 JUMP JUMPDEST PUSH1 0x3 SLOAD PUSH1 0x1 PUSH1 0x1 PUSH1 0xA0 SHL SUB AND PUSH4 0x23B872DD DUP4 ADDRESS PUSH2 0xE48 DUP6 PUSH1 0x1 PUSH2 0x5AE JUMP JUMPDEST PUSH1 0x40 MLOAD DUP5 PUSH4 0xFFFFFFFF AND PUSH1 0xE0 SHL DUP2 MSTORE PUSH1 0x4 ADD DUP1 DUP5 PUSH1 0x1 PUSH1 0x1 PUSH1 0xA0 SHL SUB AND PUSH1 0x1 PUSH1 0x1 PUSH1 0xA0 SHL SUB AND DUP2 MSTORE PUSH1 0x20 ADD DUP4 PUSH1 0x1 PUSH1 0x1 PUSH1 0xA0 SHL SUB AND PUSH1 0x1 PUSH1 0x1 PUSH1 0xA0 SHL SUB AND DUP2 MSTORE PUSH1 0x20 ADD DUP3 DUP2 MSTORE PUSH1 0x20 ADD SWAP4 POP POP POP POP PUSH1 0x20 PUSH1 0x40 MLOAD DUP1 DUP4 SUB DUP2 PUSH1 0x0 DUP8 DUP1 EXTCODESIZE ISZERO DUP1 ISZERO PUSH2 0xEB0 JUMPI PUSH1 0x0 DUP1 REVERT JUMPDEST POP GAS CALL ISZERO DUP1 ISZERO PUSH2 0xEC4 JUMPI RETURNDATASIZE PUSH1 0x0 DUP1 RETURNDATACOPY RETURNDATASIZE PUSH1 0x0 REVERT JUMPDEST POP POP POP POP PUSH1 0x40 MLOAD RETURNDATASIZE PUSH1 0x20 DUP2 LT ISZERO PUSH2 0xEDA JUMPI PUSH1 0x0 DUP1 REVERT JUMPDEST POP POP PUSH1 0x2 SLOAD PUSH1 0x40 DUP1 MLOAD PUSH4 0x40C10F19 PUSH1 0xE0 SHL DUP2 MSTORE PUSH1 0x1 PUSH1 0x1 PUSH1 0xA0 SHL SUB DUP6 DUP2 AND PUSH1 0x4 DUP4 ADD MSTORE PUSH1 0x24 DUP3 ADD DUP6 SWAP1 MSTORE SWAP2 MLOAD SWAP2 SWAP1 SWAP3 AND SWAP2 PUSH4 0x40C10F19 SWAP2 PUSH1 0x44 DUP1 DUP4 ADD SWAP3 PUSH1 0x20 SWAP3 SWAP2 SWAP1 DUP3 SWAP1 SUB ADD DUP2 PUSH1 0x0 DUP8 DUP1 EXTCODESIZE ISZERO DUP1 ISZERO PUSH2 0xF32 JUMPI PUSH1 0x0 DUP1 REVERT JUMPDEST POP GAS CALL ISZERO DUP1 ISZERO PUSH2 0xF46 JUMPI RETURNDATASIZE PUSH1 0x0 DUP1 RETURNDATACOPY RETURNDATASIZE PUSH1 0x0 REVERT JUMPDEST POP POP POP POP PUSH1 0x40 MLOAD RETURNDATASIZE PUSH1 0x20 DUP2 LT ISZERO PUSH2 0xF5C JUMPI PUSH1 0x0 DUP1 REVERT JUMPDEST POP POP PUSH1 0x4 SLOAD PUSH1 0x40 MLOAD DUP3 SWAP1 PUSH1 0x1 PUSH1 0x1 PUSH1 0xA0 SHL SUB DUP6 AND SWAP1 PUSH32 0x1CBC5AB135991BD2B6A4B034A04AA2AA086DAC1371CB9B16B8B5E2ED6B036BED SWAP1 PUSH1 0x0 SWAP1 LOG4 POP POP JUMP JUMPDEST PUSH1 0x2 SLOAD PUSH1 0x40 DUP1 MLOAD PUSH4 0x79CC679 PUSH1 0xE4 SHL DUP2 MSTORE PUSH1 0x1 PUSH1 0x1 PUSH1 0xA0 SHL SUB DUP6 DUP2 AND PUSH1 0x4 DUP4 ADD MSTORE PUSH1 0x24 DUP3 ADD DUP6 SWAP1 MSTORE SWAP2 MLOAD SWAP2 SWAP1 SWAP3 AND SWAP2 PUSH4 0x79CC6790 SWAP2 PUSH1 0x44 DUP1 DUP4 ADD SWAP3 PUSH1 0x0 SWAP3 SWAP2 SWAP1 DUP3 SWAP1 SUB ADD DUP2 DUP4 DUP8 DUP1 EXTCODESIZE ISZERO DUP1 ISZERO PUSH2 0xFF0 JUMPI PUSH1 0x0 DUP1 REVERT JUMPDEST POP GAS CALL ISZERO DUP1 ISZERO PUSH2 0x1004 JUMPI RETURNDATASIZE PUSH1 0x0 DUP1 RETURNDATACOPY RETURNDATASIZE PUSH1 0x0 REVERT JUMPDEST POP POP PUSH1 0x3 SLOAD PUSH1 0x1 PUSH1 0x1 PUSH1 0xA0 SHL SUB AND SWAP2 POP PUSH4 0x40C10F19 SWAP1 POP DUP4 PUSH2 0x1027 DUP5 PUSH1 0x0 PUSH2 0x5AE JUMP JUMPDEST PUSH1 0x40 MLOAD DUP4 PUSH4 0xFFFFFFFF AND PUSH1 0xE0 SHL DUP2 MSTORE PUSH1 0x4 ADD DUP1 DUP4 PUSH1 0x1 PUSH1 0x1 PUSH1 0xA0 SHL SUB AND PUSH1 0x1 PUSH1 0x1 PUSH1 0xA0 SHL SUB AND DUP2 MSTORE PUSH1 0x20 ADD DUP3 DUP2 MSTORE PUSH1 0x20 ADD SWAP3 POP POP POP PUSH1 0x20 PUSH1 0x40 MLOAD DUP1 DUP4 SUB DUP2 PUSH1 0x0 DUP8 DUP1 EXTCODESIZE ISZERO DUP1 ISZERO PUSH2 0x1076 JUMPI PUSH1 0x0 DUP1 REVERT JUMPDEST POP GAS CALL ISZERO DUP1 ISZERO PUSH2 0x108A JUMPI RETURNDATASIZE PUSH1 0x0 DUP1 RETURNDATACOPY RETURNDATASIZE PUSH1 0x0 REVERT JUMPDEST POP POP POP POP PUSH1 0x40 MLOAD RETURNDATASIZE PUSH1 0x20 DUP2 LT ISZERO PUSH2 0x10A0 JUMPI PUSH1 0x0 DUP1 REVERT JUMPDEST POP POP PUSH1 0x4 SLOAD PUSH1 0x40 MLOAD DUP3 SWAP1 ADDRESS SWAP1 PUSH32 0xED7A144FAD14804D5C249145E3E0E2B63A9EB455B76AEE5BC92D711E9BBA3E4A SWAP1 PUSH1 0x0 SWAP1 LOG4 POP POP JUMP JUMPDEST PUSH1 0x0 DUP2 DUP5 DUP5 GT ISZERO PUSH2 0x1165 JUMPI PUSH1 0x40 MLOAD PUSH3 0x461BCD PUSH1 0xE5 SHL DUP2 MSTORE PUSH1 0x4 ADD DUP1 DUP1 PUSH1 0x20 ADD DUP3 DUP2 SUB DUP3 MSTORE DUP4 DUP2 DUP2 MLOAD DUP2 MSTORE PUSH1 0x20 ADD SWAP2 POP DUP1 MLOAD SWAP1 PUSH1 0x20 ADD SWAP1 DUP1 DUP4 DUP4 PUSH1 0x0 JUMPDEST DUP4 DUP2 LT ISZERO PUSH2 0x112A JUMPI DUP2 DUP2 ADD MLOAD DUP4 DUP3 ADD MSTORE PUSH1 0x20 ADD PUSH2 0x1112 JUMP JUMPDEST POP POP POP POP SWAP1 POP SWAP1 DUP2 ADD SWAP1 PUSH1 0x1F AND DUP1 ISZERO PUSH2 0x1157 JUMPI DUP1 DUP3 SUB DUP1 MLOAD PUSH1 0x1 DUP4 PUSH1 0x20 SUB PUSH2 0x100 EXP SUB NOT AND DUP2 MSTORE PUSH1 0x20 ADD SWAP2 POP JUMPDEST POP SWAP3 POP POP POP PUSH1 0x40 MLOAD DUP1 SWAP2 SUB SWAP1 REVERT JUMPDEST POP POP POP SWAP1 SUB SWAP1 JUMP JUMPDEST PUSH2 0x1177 DUP3 DUP3 PUSH2 0xBAA JUMP JUMPDEST PUSH2 0x11B2 JUMPI PUSH1 0x40 MLOAD PUSH3 0x461BCD PUSH1 0xE5 SHL DUP2 MSTORE PUSH1 0x4 ADD DUP1 DUP1 PUSH1 0x20 ADD DUP3 DUP2 SUB DUP3 MSTORE PUSH1 0x21 DUP2 MSTORE PUSH1 0x20 ADD DUP1 PUSH2 0x130C PUSH1 0x21 SWAP2 CODECOPY PUSH1 0x40 ADD SWAP2 POP POP PUSH1 0x40 MLOAD DUP1 SWAP2 SUB SWAP1 REVERT JUMPDEST PUSH1 0x1 PUSH1 0x1 PUSH1 0xA0 SHL SUB AND PUSH1 0x0 SWAP1 DUP2 MSTORE PUSH1 0x20 SWAP2 SWAP1 SWAP2 MSTORE PUSH1 0x40 SWAP1 KECCAK256 DUP1 SLOAD PUSH1 0xFF NOT AND SWAP1 SSTORE JUMP JUMPDEST PUSH2 0x11DE DUP3 DUP3 PUSH2 0xBAA JUMP JUMPDEST ISZERO PUSH2 0x1230 JUMPI PUSH1 0x40 DUP1 MLOAD PUSH3 0x461BCD PUSH1 0xE5 SHL DUP2 MSTORE PUSH1 0x20 PUSH1 0x4 DUP3 ADD MSTORE PUSH1 0x1F PUSH1 0x24 DUP3 ADD MSTORE PUSH32 0x526F6C65733A206163636F756E7420616C72656164792068617320726F6C6500 PUSH1 0x44 DUP3 ADD MSTORE SWAP1 MLOAD SWAP1 DUP2 SWAP1 SUB PUSH1 0x64 ADD SWAP1 REVERT JUMPDEST PUSH1 0x1 PUSH1 0x1 PUSH1 0xA0 SHL SUB AND PUSH1 0x0 SWAP1 DUP2 MSTORE PUSH1 0x20 SWAP2 SWAP1 SWAP2 MSTORE PUSH1 0x40 SWAP1 KECCAK256 DUP1 SLOAD PUSH1 0xFF NOT AND PUSH1 0x1 OR SWAP1 SSTORE JUMP JUMPDEST PUSH1 0x0 DUP2 DUP4 PUSH2 0x12A4 JUMPI PUSH1 0x40 MLOAD PUSH3 0x461BCD PUSH1 0xE5 SHL DUP2 MSTORE PUSH1 0x20 PUSH1 0x4 DUP3 ADD DUP2 DUP2 MSTORE DUP4 MLOAD PUSH1 0x24 DUP5 ADD MSTORE DUP4 MLOAD SWAP1 SWAP3 DUP4 SWAP3 PUSH1 0x44 SWAP1 SWAP2 ADD SWAP2 SWAP1 DUP6 ADD SWAP1 DUP1 DUP4 DUP4 PUSH1 0x0 DUP4 ISZERO PUSH2 0x112A JUMPI DUP2 DUP2 ADD MLOAD DUP4 DUP3 ADD MSTORE PUSH1 0x20 ADD PUSH2 0x1112 JUMP JUMPDEST POP PUSH1 0x0 DUP4 DUP6 DUP2 PUSH2 0x12B0 JUMPI INVALID JUMPDEST DIV SWAP6 SWAP5 POP POP POP POP POP JUMP INVALID COINBASE PUSH13 0x72656164792063616C6C732034 KECCAK256 PUSH21 0x696D65732074686973206E696768742E42726F6B65 PUSH19 0x526F6C653A2063616C6C657220646F6573206E PUSH16 0x742068617665207468652042726F6B65 PUSH19 0x20726F6C65526F6C65733A206163636F756E74 KECCAK256 PUSH5 0x6F6573206E PUSH16 0x74206861766520726F6C65536F6D6574 PUSH9 0x696E6727732077726F PUSH15 0x672C206D6179626520796F75207365 PUSH21 0x2074686520696E697469616C205F6F70656E696E67 PUSH21 0x696D652077726F6E672E536166654D6174683A206D PUSH22 0x6C7469706C69636174696F6E206F766572666C6F7752 PUSH16 0x6C65733A206163636F756E7420697320 PUSH21 0x6865207A65726F206164647265737341646D696E52 PUSH16 0x6C653A2063616C6C657220646F657320 PUSH15 0x6F742068617665207468652041646D PUSH10 0x6E20726F6C65A265627A PUSH27 0x72315820AC891BC102AE16523888C2611A8D5BBAE7E35A41B58EE8 AND PUSH21 0x2F5211E10D128064736F6C63430005110032000000 ","sha1":"b839133e3311336986dc25bb4133e7b23522584f","source":"pragma solidity ^0.5.0;\n\n\nimport \"./PayCoin.sol\";\nimport \"../interfaces/IT_ERC20.sol\";\nimport \"./token_erc20.sol\";\nimport \"./BrokerRole.sol\";\nimport \"./AdminRole.sol\";\n\ncontract token_exchange is BrokerRole, AdminRole {\n    using SafeMath for uint256;\n    using SafeMath for int256; \n\n    IT_ERC20 public token;\n    IT_PayCoin public payCoin;\n\n    uint256 private tk_price;\n    uint256 private _openingtime;\n    uint256 private _closingtime;\n    uint8 public _overnightCalls; \n\n    uint256[] priceHistory;\n\n    //address _addressPC ;\n    //= 0xc429620C4451d820B96FD3E5209FADa0F5a89852\n    /*\n    address _frama = 0x96E7Cf89FF09659854277531FA315AFc27102E37 ;\n    address _libra = 0x2FbfB1e766E6F6244669E4794ff022a653F34eFf ;\n    address _pirot = 0x743491ab1511287491af8De4Ca25b2fbc707eB88 ;\n    */\n\n    address _fss = 0x85A8d7241Ffffee7290501473A9B11BFdA2Ae9Ff ; \n\n    event Buy(address indexed buyer, uint256 indexed amount, uint256 indexed price);\n    event Sell(address indexed buyer, uint256 indexed amount, uint256 indexed price);\n    event PriceChange(address indexed changer, uint256 indexed id_price, uint256 indexed price); \n    event ChangeStart(address indexed who, uint256 indexed when); \n    event ChangeEnd(address indexed who, uint256 indexed when); \n\n    modifier onlyWhileOpen {\n        require(isOpen(), \"Market is closed\");\n        _;\n    }\n\n    constructor() public {\n\n        token = new token_erc20();\n        payCoin = new PayCoin();\n\n        tk_price = 1e18 ; //accounts for PayCoin's decimals\n        priceHistory.push(tk_price);\n\n        _openingtime = now ;\n        _closingtime = now + 1 hours ; //TODO Remember to modify it!\n        _overnightCalls = 0; \n\n        if (!(isAdmin(_fss) && isBroker(_fss))){\n            addAdmin(_fss);\n            addBroker(_fss);\n        }\n        /*\n        if (!(isAdmin(_frama) && isBroker(_frama))){\n            addAdmin(_frama);\n            addBroker(_frama);\n        }\n        if (!(isAdmin(_libra) && isBroker(_libra))){\n            addAdmin(_libra);\n            addBroker(_libra);\n        }\n        if (!(isAdmin(_pirot) && isBroker(_pirot))){\n            addAdmin(_pirot);\n            addBroker(_pirot);\n        }\n        */\n        emit ChangeStart(_msgSender(), _openingtime); \n        emit ChangeEnd(_msgSender(), _closingtime + 7 days); \n    }\n\n    function buy(uint256 tokenAmount) external onlyWhileOpen returns (bool){\n        /*\n        require(msg.value > 0, \"You have to pay, my friend\");\n        require(msg.value == getFee(tokenAmount), \"That's not enough money!\");\n        */\n        //require(!(token.isMinter(_msgSender())), \"You can't buy your own tokens, my friend\");\n\n        _buy(_msgSender(), tokenAmount.mul(10**uint256(token.decimals())));\n\n        return true;\n    }\n\n    function sell(uint256 tokenAmount) external onlyWhileOpen returns (bool){\n        /*\n        require(msg.value > 0, \"You have to pay, my friend\");\n        require(msg.value == getFee(tokenAmount), \"That's not enough money!\");\n        */\n        //require(!(token.isMinter(_msgSender())), \"You can't buy your own tokens, my friend\");\n\n        _sell(_msgSender(), tokenAmount.mul(10**uint256(token.decimals())));\n\n        return true;\n    }\n\n    function _buy(address recipient, uint256 amount) internal {\n        // TODO set real address of the team\n        payCoin.transferFrom(recipient, address(this), getFee(amount, true));\n\n        token.mint(recipient, amount);\n\n        emit Buy(recipient, amount, tk_price);\n    }\n\n    function _sell(address seller, uint256 amount) internal {\n        // token_exchange != team, so it can mint paycoin (these doesn't count vs initial 50k)\n\n        token.burnFrom(seller, amount);\n\n        payCoin.mint(seller,getFee(amount, false));\n\n        emit Sell(address(this), amount, tk_price);\n    }\n\n    function getFee(uint256 amount, bool from_buy) public returns (uint256){\n        // amount * tk_price / 10^18 +- 2*amount/1000\n        uint256 exp = uint256(token.decimals());\n\n        if (from_buy){\n            return amount.mul(tk_price).div(10**exp).add(amount.mul(2).div(1000));\n        }\n        else{\n            return amount.mul(tk_price).div(10**exp).sub(amount.mul(2).div(1000));\n        }\n\n    }\n\n    function isOpen() public view returns (bool) {\n        return now >= _openingtime && now <= _closingtime;\n    }\n\n    function setOpenTime() external onlyAdmin {\n        require(_openingtime < _closingtime, \"Something's wrong, maybe you set the initial _openingtime wrong.\");\n        _openingtime = _closingtime.add(15 hours) ;\n        _closingtime = _openingtime.add(9 hours) ;\n    }\n\n    function lastPrice() external view returns (uint256, uint256){\n        return (priceHistory.length.sub(1), priceHistory[priceHistory.length.sub(1)]);\n    }\n\n    function getHistory(uint256 id_price) external view returns (uint256){\n        return priceHistory[id_price] ;        \n    }\n\n    function setHistory(uint256 price) onlyBroker public {\n        priceHistory.push(price); \n    }\n\n    function setNewPrice(int256 delta_price) onlyBroker public returns (uint256) {\n        uint256 last_price = priceHistory[priceHistory.length.sub(1)]; \n        int256 new_price = int256(last_price) + delta_price; \n        uint256 last_id_price; \n\n        require (new_price > 0, \"Price must be positive!\"); \n        \n        if (isAdmin(_msgSender())) {\n            require(isOpen(), \"Market is closed\"); \n            \n            setHistory(uint256(new_price));\n            last_id_price = priceHistory.length.sub(1);\n            \n            emit PriceChange(_msgSender(), last_id_price, uint256(new_price)); \n        }\n        else{\n            require(_overnightCalls < 4, \"Already calls 4 times this night.\"); \n            require( uint256(new_price) > last_price.sub(last_price.mul(10).div(100)) && uint256(new_price) < last_price.add(last_price.mul(10).div(100)), \"Can't change more than -+10%\" ); \n            \n            setHistory(uint256(new_price));\n            last_id_price = priceHistory.length.sub(1);\n            \n            _overnightCalls += 1; \n        }\n\n        return last_id_price; \n    }\n\n    //TEAMTOKEN & PAYCOIN ADDRESS\n    /*\n    function setToken(address tokenAddress) onlyAdmin external {\n        token = token_erc20(tokenAddress); \n    }\n    \n    function setPayCoin(address payCoinAddress) onlyAdmin external {\n        payCoin = IT_PayCoin(payCoinAddress); \n    }\n    */\n\n\n\n}\n","sourcePath":"contracts/token_exchange.sol","type":"contract"}