{
  "abi": [
    {
      "inputs": [],
      "payable": false,
      "stateMutability": "nonpayable",
      "type": "constructor"
    },
    {
      "anonymous": false,
      "inputs": [
        {
          "indexed": true,
          "internalType": "address",
          "name": "account",
          "type": "address"
        }
      ],
      "name": "AdminAdded",
      "type": "event"
    },
    {
      "anonymous": false,
      "inputs": [
        {
          "indexed": true,
          "internalType": "address",
          "name": "account",
          "type": "address"
        }
      ],
      "name": "AdminRemoved",
      "type": "event"
    },
    {
      "anonymous": false,
      "inputs": [
        {
          "indexed": true,
          "internalType": "address",
          "name": "account",
          "type": "address"
        }
      ],
      "name": "BrokerAdded",
      "type": "event"
    },
    {
      "anonymous": false,
      "inputs": [
        {
          "indexed": true,
          "internalType": "address",
          "name": "account",
          "type": "address"
        }
      ],
      "name": "BrokerRemoved",
      "type": "event"
    },
    {
      "anonymous": false,
      "inputs": [
        {
          "indexed": true,
          "internalType": "address",
          "name": "buyer",
          "type": "address"
        },
        {
          "indexed": true,
          "internalType": "uint256",
          "name": "amount",
          "type": "uint256"
        },
        {
          "indexed": true,
          "internalType": "uint256",
          "name": "price",
          "type": "uint256"
        }
      ],
      "name": "Buy",
      "type": "event"
    },
    {
      "anonymous": false,
      "inputs": [
        {
          "indexed": true,
          "internalType": "address",
          "name": "buyer",
          "type": "address"
        },
        {
          "indexed": true,
          "internalType": "uint256",
          "name": "amount",
          "type": "uint256"
        },
        {
          "indexed": true,
          "internalType": "uint256",
          "name": "price",
          "type": "uint256"
        }
      ],
      "name": "Sell",
      "type": "event"
    },
    {
      "constant": false,
      "inputs": [
        {
          "internalType": "address",
          "name": "account",
          "type": "address"
        }
      ],
      "name": "addAdmin",
      "outputs": [],
      "payable": false,
      "stateMutability": "nonpayable",
      "type": "function"
    },
    {
      "constant": false,
      "inputs": [
        {
          "internalType": "address",
          "name": "account",
          "type": "address"
        }
      ],
      "name": "addBroker",
      "outputs": [],
      "payable": false,
      "stateMutability": "nonpayable",
      "type": "function"
    },
    {
      "constant": false,
      "inputs": [
        {
          "internalType": "uint256",
          "name": "tokenAmount",
          "type": "uint256"
        }
      ],
      "name": "buy",
      "outputs": [
        {
          "internalType": "bool",
          "name": "",
          "type": "bool"
        }
      ],
      "payable": false,
      "stateMutability": "nonpayable",
      "type": "function"
    },
    {
      "constant": true,
      "inputs": [
        {
          "internalType": "address",
          "name": "account",
          "type": "address"
        }
      ],
      "name": "isAdmin",
      "outputs": [
        {
          "internalType": "bool",
          "name": "",
          "type": "bool"
        }
      ],
      "payable": false,
      "stateMutability": "view",
      "type": "function"
    },
    {
      "constant": true,
      "inputs": [
        {
          "internalType": "address",
          "name": "account",
          "type": "address"
        }
      ],
      "name": "isBroker",
      "outputs": [
        {
          "internalType": "bool",
          "name": "",
          "type": "bool"
        }
      ],
      "payable": false,
      "stateMutability": "view",
      "type": "function"
    },
    {
      "constant": true,
      "inputs": [],
      "name": "isOpen",
      "outputs": [
        {
          "internalType": "bool",
          "name": "",
          "type": "bool"
        }
      ],
      "payable": false,
      "stateMutability": "view",
      "type": "function"
    },
    {
      "constant": false,
      "inputs": [],
      "name": "renounceAdmin",
      "outputs": [],
      "payable": false,
      "stateMutability": "nonpayable",
      "type": "function"
    },
    {
      "constant": false,
      "inputs": [],
      "name": "renounceBroker",
      "outputs": [],
      "payable": false,
      "stateMutability": "nonpayable",
      "type": "function"
    },
    {
      "constant": false,
      "inputs": [
        {
          "internalType": "uint256",
          "name": "tokenAmount",
          "type": "uint256"
        }
      ],
      "name": "sell",
      "outputs": [
        {
          "internalType": "bool",
          "name": "",
          "type": "bool"
        }
      ],
      "payable": false,
      "stateMutability": "nonpayable",
      "type": "function"
    },
    {
      "constant": false,
      "inputs": [],
      "name": "setOpenTime",
      "outputs": [],
      "payable": false,
      "stateMutability": "nonpayable",
      "type": "function"
    },
    {
      "constant": true,
      "inputs": [],
      "name": "token",
      "outputs": [
        {
          "internalType": "contract IT_ERC20",
          "name": "",
          "type": "address"
        }
      ],
      "payable": false,
      "stateMutability": "view",
      "type": "function"
    }
  ],
  "bytecode": "6080604052600680546001600160a01b03199081167396e7cf89ff09659854277531fa315afc27102e3717909155600780548216732fbfb1e766e6f6244669e4794ff022a653f34eff1790556008805490911673743491ab1511287491af8de4ca25b2fbc707eb881790553480156200007757600080fd5b506200009e6200008f6001600160e01b03620002ba16565b6001600160e01b03620002be16565b620000c4620000b56001600160e01b03620002ba16565b6001600160e01b036200031016565b604051620000d29062000589565b604051809103906000f080158015620000ef573d6000803e3d6000fd5b50600280546001600160a01b0319166001600160a01b03928316179055600160035542600481905561012c016005556006546200012d911662000362565b801562000155575060065462000155906001600160a01b03166001600160e01b036200038516565b6200019a576006546200017a906001600160a01b03166001600160e01b03620003a216565b6006546200019a906001600160a01b03166001600160e01b036200041c16565b600754620001ba906001600160a01b03166001600160e01b036200036216565b8015620001e25750600754620001e2906001600160a01b03166001600160e01b036200038516565b620002275760075462000207906001600160a01b03166001600160e01b03620003a216565b60075462000227906001600160a01b03166001600160e01b036200041c16565b60085462000247906001600160a01b03166001600160e01b036200036216565b80156200026f57506008546200026f906001600160a01b03166001600160e01b036200038516565b620002b45760085462000294906001600160a01b03166001600160e01b03620003a216565b600854620002b4906001600160a01b03166001600160e01b036200041c16565b62000597565b3390565b620002d98160006200049360201b62000af91790919060201c565b6040516001600160a01b038216907f40c56d2c4c08eead919e7228cf5b749297271698ec38e954d322ef4bcf1d58fb90600090a250565b6200032b8160016200049360201b62000af91790919060201c565b6040516001600160a01b038216907f44d6d25963f097ad14f29f06854a01f575648a1ef82f30e562ccd3889717e33990600090a250565b60006200037f8260016200052060201b620006d21790919060201c565b92915050565b60006200037f8260006200052060201b620006d21790919060201c565b620003c8620003b96001600160e01b03620002ba16565b6001600160e01b036200036216565b620004055760405162461bcd60e51b815260040180806020018281038252602e81526020018062002d61602e913960400191505060405180910390fd5b62000419816001600160e01b036200031016565b50565b62000442620004336001600160e01b03620002ba16565b6001600160e01b036200038516565b6200047f5760405162461bcd60e51b815260040180806020018281038252603081526020018062002d0f6030913960400191505060405180910390fd5b62000419816001600160e01b03620002be16565b620004a882826001600160e01b036200052016565b15620004fb576040805162461bcd60e51b815260206004820152601f60248201527f526f6c65733a206163636f756e7420616c72656164792068617320726f6c6500604482015290519081900360640190fd5b6001600160a01b0316600090815260209190915260409020805460ff19166001179055565b60006001600160a01b038216620005695760405162461bcd60e51b815260040180806020018281038252602281526020018062002d3f6022913960400191505060405180910390fd5b506001600160a01b03166000908152602091909152604090205460ff1690565b611a8f806200128083390190565b610cd980620005a76000396000f3fe608060405234801561001057600080fd5b50600436106100a95760003560e01c806370480275116100715780637048027514610128578063836cae651461014e5780638bad0c0a14610174578063d96a094a1461017c578063e4849b3214610199578063fc0c546a146101b6576100a9565b806322b31d9f146100ae57806324d7806c146100e8578063431e5c9d1461010e57806347535d7b146101185780634f15e62e14610120575b600080fd5b6100d4600480360360208110156100c457600080fd5b50356001600160a01b03166101da565b604080519115158252519081900360200190f35b6100d4600480360360208110156100fe57600080fd5b50356001600160a01b03166101f2565b610116610205565b005b6100d4610217565b610116610232565b6101166004803603602081101561013e57600080fd5b50356001600160a01b03166102f0565b6101166004803603602081101561016457600080fd5b50356001600160a01b0316610342565b610116610396565b6100d46004803603602081101561019257600080fd5b50356103a6565b6100d4600480360360208110156101af57600080fd5b5035610558565b6101be6106c3565b604080516001600160a01b039092168252519081900360200190f35b60006101ec818363ffffffff6106d216565b92915050565b60006101ec60018363ffffffff6106d216565b610215610210610739565b61073d565b565b6000600454421015801561022d57506005544211155b905090565b61024261023d610739565b6101f2565b61027d5760405162461bcd60e51b815260040180806020018281038252602e815260200180610c77602e913960400191505060405180910390fd5b600554600454106102bf5760405162461bcd60e51b8152600401808060200182810382526040815260200180610bcc6040913960400191505060405180910390fd5b6005546102d49061d2f063ffffffff61078516565b60048190556102eb90617e9063ffffffff61078516565b600555565b6102fb61023d610739565b6103365760405162461bcd60e51b815260040180806020018281038252602e815260200180610c77602e913960400191505060405180910390fd5b61033f816107e6565b50565b61035261034d610739565b6101da565b61038d5760405162461bcd60e51b8152600401808060200182810382526030815260200180610b7b6030913960400191505060405180910390fd5b61033f8161082e565b6102156103a1610739565b610876565b60006103b0610217565b6103f4576040805162461bcd60e51b815260206004820152601060248201526f13585c9ad95d081a5cc818db1bdcd95960821b604482015290519081900360640190fd5b6002546001600160a01b031663aa271e1a61040d610739565b6040518263ffffffff1660e01b815260040180826001600160a01b03166001600160a01b0316815260200191505060206040518083038186803b15801561045357600080fd5b505afa158015610467573d6000803e3d6000fd5b505050506040513d602081101561047d57600080fd5b5051156104bb5760405162461bcd60e51b8152600401808060200182810382526028815260200180610c0c6028913960400191505060405180910390fd5b6105506104c6610739565b6002546040805163313ce56760e01b8152905161054b926001600160a01b03169163313ce567916004808301926020929190829003018186803b15801561050c57600080fd5b505afa158015610520573d6000803e3d6000fd5b505050506040513d602081101561053657600080fd5b5051859060ff16600a0a63ffffffff6108be16565b610917565b506001919050565b6000610562610217565b6105a6576040805162461bcd60e51b815260206004820152601060248201526f13585c9ad95d081a5cc818db1bdcd95960821b604482015290519081900360640190fd5b6002546001600160a01b031663aa271e1a6105bf610739565b6040518263ffffffff1660e01b815260040180826001600160a01b03166001600160a01b0316815260200191505060206040518083038186803b15801561060557600080fd5b505afa158015610619573d6000803e3d6000fd5b505050506040513d602081101561062f57600080fd5b50511561066d5760405162461bcd60e51b8152600401808060200182810382526028815260200180610c0c6028913960400191505060405180910390fd5b610550610678610739565b6002546040805163313ce56760e01b815290516106be926001600160a01b03169163313ce567916004808301926020929190829003018186803b15801561050c57600080fd5b6109d6565b6002546001600160a01b031681565b60006001600160a01b0382166107195760405162461bcd60e51b8152600401808060200182810382526022815260200180610c556022913960400191505060405180910390fd5b506001600160a01b03166000908152602091909152604090205460ff1690565b3390565b61074e60008263ffffffff610a9216565b6040516001600160a01b038216907fe5c6f32fb04b7de81910252a1e1d29267cd9e5fc428afad67442d00c7b127bd090600090a250565b6000828201838110156107df576040805162461bcd60e51b815260206004820152601b60248201527f536166654d6174683a206164646974696f6e206f766572666c6f770000000000604482015290519081900360640190fd5b9392505050565b6107f760018263ffffffff610af916565b6040516001600160a01b038216907f44d6d25963f097ad14f29f06854a01f575648a1ef82f30e562ccd3889717e33990600090a250565b61083f60008263ffffffff610af916565b6040516001600160a01b038216907f40c56d2c4c08eead919e7228cf5b749297271698ec38e954d322ef4bcf1d58fb90600090a250565b61088760018263ffffffff610a9216565b6040516001600160a01b038216907fa3b62bc36326052d97ea62d63c3d60308ed4c3ea8ac079dd8499f1e9c4f80c0f90600090a250565b6000826108cd575060006101ec565b828202828482816108da57fe5b04146107df5760405162461bcd60e51b8152600401808060200182810382526021815260200180610c346021913960400191505060405180910390fd5b600254604080516340c10f1960e01b81526001600160a01b03858116600483015260248201859052915191909216916340c10f199160448083019260209291908290030181600087803b15801561096d57600080fd5b505af1158015610981573d6000803e3d6000fd5b505050506040513d602081101561099757600080fd5b505060035460405182906001600160a01b038516907f1cbc5ab135991bd2b6a4b034a04aa2aa086dac1371cb9b16b8b5e2ed6b036bed90600090a45050565b600254604080516323b872dd60e01b81526001600160a01b03858116600483015230602483015260448201859052915191909216916323b872dd9160648083019260209291908290030181600087803b158015610a3257600080fd5b505af1158015610a46573d6000803e3d6000fd5b505050506040513d6020811015610a5c57600080fd5b5050600354604051829030907fed7a144fad14804d5c249145e3e0e2b63a9eb455b76aee5bc92d711e9bba3e4a90600090a45050565b610a9c82826106d2565b610ad75760405162461bcd60e51b8152600401808060200182810382526021815260200180610bab6021913960400191505060405180910390fd5b6001600160a01b0316600090815260209190915260409020805460ff19169055565b610b0382826106d2565b15610b55576040805162461bcd60e51b815260206004820152601f60248201527f526f6c65733a206163636f756e7420616c72656164792068617320726f6c6500604482015290519081900360640190fd5b6001600160a01b0316600090815260209190915260409020805460ff1916600117905556fe42726f6b6572526f6c653a2063616c6c657220646f6573206e6f742068617665207468652042726f6b657220726f6c65526f6c65733a206163636f756e7420646f6573206e6f74206861766520726f6c65536f6d657468696e6727732077726f6e672c206d6179626520796f75207365742074686520696e697469616c205f6f70656e696e6774696d652077726f6e672e596f752063616e27742062757920796f7572206f776e20746f6b656e732c206d7920667269656e64536166654d6174683a206d756c7469706c69636174696f6e206f766572666c6f77526f6c65733a206163636f756e7420697320746865207a65726f206164647265737341646d696e526f6c653a2063616c6c657220646f6573206e6f742068617665207468652041646d696e20726f6c65a265627a7a7231582013a295a103bede1297220355106faa05850cd4553a431e170f4a1cecefadc1f864736f6c634300051100326080604052600880546001600160a01b03199081167396e7cf89ff09659854277531fa315afc27102e3717909155600980548216732fbfb1e766e6f6244669e4794ff022a653f34eff179055600a805490911673743491ab1511287491af8de4ca25b2fbc707eb881790553480156200007757600080fd5b50604051806040016040528060078152602001662329a9a1b7b4b760c91b8152506040518060400160405280600381526020016246535360e81b8152506012620000d9620000ca620002e660201b60201c565b6001600160e01b03620002eb16565b8251620000ee906004906020860190620005b6565b50815162000104906005906020850190620005b6565b506006805460ff191660ff92909216919091179055506200013990506200012a620002e6565b6001600160e01b036200033d16565b60085462000159906001600160a01b03166001600160e01b036200038f16565b801562000181575060085462000181906001600160a01b03166001600160e01b03620003b216565b620001c657600854620001a6906001600160a01b03166001600160e01b03620003cf16565b600854620001c6906001600160a01b03166001600160e01b036200044916565b600954620001e6906001600160a01b03166001600160e01b036200038f16565b80156200020e57506009546200020e906001600160a01b03166001600160e01b03620003b216565b620002535760095462000233906001600160a01b03166001600160e01b03620003cf16565b60095462000253906001600160a01b03166001600160e01b036200044916565b600a5462000273906001600160a01b03166001600160e01b036200038f16565b80156200029b5750600a546200029b906001600160a01b03166001600160e01b03620003b216565b620002e057600a54620002c0906001600160a01b03166001600160e01b03620003cf16565b600a54620002e0906001600160a01b03166001600160e01b036200044916565b62000658565b335b90565b62000306816003620004c060201b6200103b1790919060201c565b6040516001600160a01b038216907f6ae172837ea30b801fbfcdd4108aa1d5bf8ff775444fd70256b44e6bf3dfc3f690600090a250565b62000358816007620004c060201b6200103b1790919060201c565b6040516001600160a01b038216907f86e57fd2b90329052917118de7c3f521f400d439b9650deaa906a25b08b9456090600090a250565b6000620003ac8260036200054d60201b62000d5a1790919060201c565b92915050565b6000620003ac8260076200054d60201b62000d5a1790919060201c565b620003f5620003e66001600160e01b03620002e616565b6001600160e01b036200038f16565b620004325760405162461bcd60e51b815260040180806020018281038252603081526020018062001a3d6030913960400191505060405180910390fd5b62000446816001600160e01b03620002eb16565b50565b6200046f620004606001600160e01b03620002e616565b6001600160e01b03620003b216565b620004ac5760405162461bcd60e51b815260040180806020018281038252603081526020018062001a0d6030913960400191505060405180910390fd5b62000446816001600160e01b036200033d16565b620004d582826001600160e01b036200054d16565b1562000528576040805162461bcd60e51b815260206004820152601f60248201527f526f6c65733a206163636f756e7420616c72656164792068617320726f6c6500604482015290519081900360640190fd5b6001600160a01b0316600090815260209190915260409020805460ff19166001179055565b60006001600160a01b038216620005965760405162461bcd60e51b815260040180806020018281038252602281526020018062001a6d6022913960400191505060405180910390fd5b506001600160a01b03166000908152602091909152604090205460ff1690565b828054600181600116156101000203166002900490600052602060002090601f016020900481019282601f10620005f957805160ff191683800117855562000629565b8280016001018555821562000629579182015b82811115620006295782518255916020019190600101906200060c565b50620006379291506200063b565b5090565b620002e891905b8082111562000637576000815560010162000642565b6113a580620006686000396000f3fe608060405234801561001057600080fd5b506004361061012c5760003560e01c806379cc6790116100ad578063a9059cbb11610071578063a9059cbb146103ad578063aa271e1a146103d9578063dd62ed3e146103ff578063e9ec9e8b1461042d578063f44637ba146104355761012c565b806379cc67901461031f57806395d89b411461034b578063983b2d56146103535780639865027514610379578063a457c2d7146103815761012c565b806339509351116100f4578063395093511461025c57806340c10f191461028857806342966c68146102b45780634334614a146102d357806370a08231146102f95761012c565b806306fdde0314610131578063095ea7b3146101ae57806318160ddd146101ee57806323b872dd14610208578063313ce5671461023e575b600080fd5b61013961045b565b6040805160208082528351818301528351919283929083019185019080838360005b8381101561017357818101518382015260200161015b565b50505050905090810190601f1680156101a05780820380516001836020036101000a031916815260200191505b509250505060405180910390f35b6101da600480360360408110156101c457600080fd5b506001600160a01b0381351690602001356104f1565b604080519115158252519081900360200190f35b6101f661050e565b60408051918252519081900360200190f35b6101da6004803603606081101561021e57600080fd5b506001600160a01b03813581169160208101359091169060400135610514565b6102466105a1565b6040805160ff9092168252519081900360200190f35b6101da6004803603604081101561027257600080fd5b506001600160a01b0381351690602001356105aa565b6101da6004803603604081101561029e57600080fd5b506001600160a01b0381351690602001356105fe565b6102d1600480360360208110156102ca57600080fd5b5035610655565b005b6101da600480360360208110156102e957600080fd5b50356001600160a01b03166106ac565b6101f66004803603602081101561030f57600080fd5b50356001600160a01b03166106c5565b6102d16004803603604081101561033557600080fd5b506001600160a01b0381351690602001356106e0565b610139610734565b6102d16004803603602081101561036957600080fd5b50356001600160a01b0316610795565b6102d16107e4565b6101da6004803603604081101561039757600080fd5b506001600160a01b0381351690602001356107f6565b6101da600480360360408110156103c357600080fd5b506001600160a01b038135169060200135610864565b6101da600480360360208110156103ef57600080fd5b50356001600160a01b0316610878565b6101f66004803603604081101561041557600080fd5b506001600160a01b038135811691602001351661088b565b6102d16108b6565b6102d16004803603602081101561044b57600080fd5b50356001600160a01b03166108c6565b60048054604080516020601f60026000196101006001881615020190951694909404938401819004810282018101909252828152606093909290918301828280156104e75780601f106104bc576101008083540402835291602001916104e7565b820191906000526020600020905b8154815290600101906020018083116104ca57829003601f168201915b5050505050905090565b60006105056104fe610915565b8484610919565b50600192915050565b60025490565b6000610521848484610a05565b6105978461052d610915565b61059285604051806060016040528060288152602001611274602891396001600160a01b038a1660009081526001602052604081209061056b610915565b6001600160a01b03168152602081019190915260400160002054919063ffffffff610b6116565b610919565b5060019392505050565b60065460ff1690565b60006105056105b7610915565b8461059285600160006105c8610915565b6001600160a01b03908116825260208083019390935260409182016000908120918c16815292529020549063ffffffff610bf816565b600061061061060b610915565b610878565b61064b5760405162461bcd60e51b81526004018080602001828103825260308152602001806112236030913960400191505060405180910390fd5b6105058383610c59565b610665610660610915565b6106ac565b6106a05760405162461bcd60e51b81526004018080602001828103825260308152602001806111f36030913960400191505060405180910390fd5b6106a981610d49565b50565b60006106bf60078363ffffffff610d5a16565b92915050565b6001600160a01b031660009081526020819052604090205490565b6106eb610660610915565b6107265760405162461bcd60e51b81526004018080602001828103825260308152602001806111f36030913960400191505060405180910390fd5b6107308282610dc1565b5050565b60058054604080516020601f60026000196101006001881615020190951694909404938401819004810282018101909252828152606093909290918301828280156104e75780601f106104bc576101008083540402835291602001916104e7565b6107a061060b610915565b6107db5760405162461bcd60e51b81526004018080602001828103825260308152602001806112236030913960400191505060405180910390fd5b6106a981610dcb565b6107f46107ef610915565b610e13565b565b6000610505610803610915565b846105928560405180606001604052806025815260200161134c602591396001600061082d610915565b6001600160a01b03908116825260208083019390935260409182016000908120918d1681529252902054919063ffffffff610b6116565b6000610505610871610915565b8484610a05565b60006106bf60038363ffffffff610d5a16565b6001600160a01b03918216600090815260016020908152604080832093909416825291909152205490565b6107f46108c1610915565b610e5b565b6108d1610660610915565b61090c5760405162461bcd60e51b81526004018080602001828103825260308152602001806111f36030913960400191505060405180910390fd5b6106a981610ea3565b3390565b6001600160a01b03831661095e5760405162461bcd60e51b81526004018080602001828103825260248152602001806113286024913960400191505060405180910390fd5b6001600160a01b0382166109a35760405162461bcd60e51b81526004018080602001828103825260228152602001806111ab6022913960400191505060405180910390fd5b6001600160a01b03808416600081815260016020908152604080832094871680845294825291829020859055815185815291517f8c5be1e5ebec7d5bd14f71427d1e84f3dd0314c0f7b2291e5b200ac8c7c3b9259281900390910190a3505050565b6001600160a01b038316610a4a5760405162461bcd60e51b81526004018080602001828103825260258152602001806113036025913960400191505060405180910390fd5b6001600160a01b038216610a8f5760405162461bcd60e51b81526004018080602001828103825260238152602001806111666023913960400191505060405180910390fd5b610ad2816040518060600160405280602681526020016111cd602691396001600160a01b038616600090815260208190526040902054919063ffffffff610b6116565b6001600160a01b038085166000908152602081905260408082209390935590841681522054610b07908263ffffffff610bf816565b6001600160a01b038084166000818152602081815260409182902094909455805185815290519193928716927fddf252ad1be2c89b69c2b068fc378daa952ba7f163c4a11628f55a4df523b3ef92918290030190a3505050565b60008184841115610bf05760405162461bcd60e51b81526004018080602001828103825283818151815260200191508051906020019080838360005b83811015610bb5578181015183820152602001610b9d565b50505050905090810190601f168015610be25780820380516001836020036101000a031916815260200191505b509250505060405180910390fd5b505050900390565b600082820183811015610c52576040805162461bcd60e51b815260206004820152601b60248201527f536166654d6174683a206164646974696f6e206f766572666c6f770000000000604482015290519081900360640190fd5b9392505050565b6001600160a01b038216610cb4576040805162461bcd60e51b815260206004820152601f60248201527f45524332303a206d696e7420746f20746865207a65726f206164647265737300604482015290519081900360640190fd5b600254610cc7908263ffffffff610bf816565b6002556001600160a01b038216600090815260208190526040902054610cf3908263ffffffff610bf816565b6001600160a01b0383166000818152602081815260408083209490945583518581529351929391927fddf252ad1be2c89b69c2b068fc378daa952ba7f163c4a11628f55a4df523b3ef9281900390910190a35050565b6106a9610d54610915565b82610eeb565b60006001600160a01b038216610da15760405162461bcd60e51b815260040180806020018281038252602281526020018061129c6022913960400191505060405180910390fd5b506001600160a01b03166000908152602091909152604090205460ff1690565b6107308282610fe7565b610ddc60038263ffffffff61103b16565b6040516001600160a01b038216907f6ae172837ea30b801fbfcdd4108aa1d5bf8ff775444fd70256b44e6bf3dfc3f690600090a250565b610e2460038263ffffffff6110bc16565b6040516001600160a01b038216907fe94479a9f7e1952cc78f2d6baab678adc1b772d936c6583def489e524cb6669290600090a250565b610e6c60078263ffffffff6110bc16565b6040516001600160a01b038216907f90eabbc0c667db2a5029ed6bc0f5fe9f356d11684a4ca9fcfaec0e53f12b9c8e90600090a250565b610eb460078263ffffffff61103b16565b6040516001600160a01b038216907f86e57fd2b90329052917118de7c3f521f400d439b9650deaa906a25b08b9456090600090a250565b6001600160a01b038216610f305760405162461bcd60e51b81526004018080602001828103825260218152602001806112e26021913960400191505060405180910390fd5b610f7381604051806060016040528060228152602001611189602291396001600160a01b038516600090815260208190526040902054919063ffffffff610b6116565b6001600160a01b038316600090815260208190526040902055600254610f9f908263ffffffff61112316565b6002556040805182815290516000916001600160a01b038516917fddf252ad1be2c89b69c2b068fc378daa952ba7f163c4a11628f55a4df523b3ef9181900360200190a35050565b610ff18282610eeb565b61073082610ffd610915565b610592846040518060600160405280602481526020016112be602491396001600160a01b03881660009081526001602052604081209061056b610915565b6110458282610d5a565b15611097576040805162461bcd60e51b815260206004820152601f60248201527f526f6c65733a206163636f756e7420616c72656164792068617320726f6c6500604482015290519081900360640190fd5b6001600160a01b0316600090815260209190915260409020805460ff19166001179055565b6110c68282610d5a565b6111015760405162461bcd60e51b81526004018080602001828103825260218152602001806112536021913960400191505060405180910390fd5b6001600160a01b0316600090815260209190915260409020805460ff19169055565b6000610c5283836040518060400160405280601e81526020017f536166654d6174683a207375627472616374696f6e206f766572666c6f770000815250610b6156fe45524332303a207472616e7366657220746f20746865207a65726f206164647265737345524332303a206275726e20616d6f756e7420657863656564732062616c616e636545524332303a20617070726f766520746f20746865207a65726f206164647265737345524332303a207472616e7366657220616d6f756e7420657863656564732062616c616e63654275726e6572526f6c653a2063616c6c657220646f6573206e6f74206861766520746865204275726e657220726f6c654d696e746572526f6c653a2063616c6c657220646f6573206e6f74206861766520746865204d696e74657220726f6c65526f6c65733a206163636f756e7420646f6573206e6f74206861766520726f6c6545524332303a207472616e7366657220616d6f756e74206578636565647320616c6c6f77616e6365526f6c65733a206163636f756e7420697320746865207a65726f206164647265737345524332303a206275726e20616d6f756e74206578636565647320616c6c6f77616e636545524332303a206275726e2066726f6d20746865207a65726f206164647265737345524332303a207472616e736665722066726f6d20746865207a65726f206164647265737345524332303a20617070726f76652066726f6d20746865207a65726f206164647265737345524332303a2064656372656173656420616c6c6f77616e63652062656c6f77207a65726fa265627a7a723158208ba7d46c491cdd608d1a94d557fffcc6b0ab6419e9eb37c338417e0b175c324f64736f6c634300051100324275726e6572526f6c653a2063616c6c657220646f6573206e6f74206861766520746865204275726e657220726f6c654d696e746572526f6c653a2063616c6c657220646f6573206e6f74206861766520746865204d696e74657220726f6c65526f6c65733a206163636f756e7420697320746865207a65726f206164647265737342726f6b6572526f6c653a2063616c6c657220646f6573206e6f742068617665207468652042726f6b657220726f6c65526f6c65733a206163636f756e7420697320746865207a65726f206164647265737341646d696e526f6c653a2063616c6c657220646f6573206e6f742068617665207468652041646d696e20726f6c65",
  "bytecodeSha1": "da39a3ee5e6b4b0d3255bfef95601890afd80709",
  "compiler": {
    "evm_version": "istanbul",
    "optimizer": {
      "enabled": true,
      "runs": 200
    },
    "version": "0.5.17"
  },
  "contractName": "token_exchange",
  "language": "Solidity",
  "natspec": {
    "methods": {}
  },
  "opcodes": "PUSH1 0x80 PUSH1 0x40 MSTORE CALLVALUE DUP1 ISZERO PUSH2 0x10 JUMPI PUSH1 0x0 DUP1 REVERT JUMPDEST POP PUSH1 0x4 CALLDATASIZE LT PUSH2 0xA9 JUMPI PUSH1 0x0 CALLDATALOAD PUSH1 0xE0 SHR DUP1 PUSH4 0x70480275 GT PUSH2 0x71 JUMPI DUP1 PUSH4 0x70480275 EQ PUSH2 0x128 JUMPI DUP1 PUSH4 0x836CAE65 EQ PUSH2 0x14E JUMPI DUP1 PUSH4 0x8BAD0C0A EQ PUSH2 0x174 JUMPI DUP1 PUSH4 0xD96A094A EQ PUSH2 0x17C JUMPI DUP1 PUSH4 0xE4849B32 EQ PUSH2 0x199 JUMPI DUP1 PUSH4 0xFC0C546A EQ PUSH2 0x1B6 JUMPI PUSH2 0xA9 JUMP JUMPDEST DUP1 PUSH4 0x22B31D9F EQ PUSH2 0xAE JUMPI DUP1 PUSH4 0x24D7806C EQ PUSH2 0xE8 JUMPI DUP1 PUSH4 0x431E5C9D EQ PUSH2 0x10E JUMPI DUP1 PUSH4 0x47535D7B EQ PUSH2 0x118 JUMPI DUP1 PUSH4 0x4F15E62E EQ PUSH2 0x120 JUMPI JUMPDEST PUSH1 0x0 DUP1 REVERT JUMPDEST PUSH2 0xD4 PUSH1 0x4 DUP1 CALLDATASIZE SUB PUSH1 0x20 DUP2 LT ISZERO PUSH2 0xC4 JUMPI PUSH1 0x0 DUP1 REVERT JUMPDEST POP CALLDATALOAD PUSH1 0x1 PUSH1 0x1 PUSH1 0xA0 SHL SUB AND PUSH2 0x1DA JUMP JUMPDEST PUSH1 0x40 DUP1 MLOAD SWAP2 ISZERO ISZERO DUP3 MSTORE MLOAD SWAP1 DUP2 SWAP1 SUB PUSH1 0x20 ADD SWAP1 RETURN JUMPDEST PUSH2 0xD4 PUSH1 0x4 DUP1 CALLDATASIZE SUB PUSH1 0x20 DUP2 LT ISZERO PUSH2 0xFE JUMPI PUSH1 0x0 DUP1 REVERT JUMPDEST POP CALLDATALOAD PUSH1 0x1 PUSH1 0x1 PUSH1 0xA0 SHL SUB AND PUSH2 0x1F2 JUMP JUMPDEST PUSH2 0x116 PUSH2 0x205 JUMP JUMPDEST STOP JUMPDEST PUSH2 0xD4 PUSH2 0x217 JUMP JUMPDEST PUSH2 0x116 PUSH2 0x232 JUMP JUMPDEST PUSH2 0x116 PUSH1 0x4 DUP1 CALLDATASIZE SUB PUSH1 0x20 DUP2 LT ISZERO PUSH2 0x13E JUMPI PUSH1 0x0 DUP1 REVERT JUMPDEST POP CALLDATALOAD PUSH1 0x1 PUSH1 0x1 PUSH1 0xA0 SHL SUB AND PUSH2 0x2F0 JUMP JUMPDEST PUSH2 0x116 PUSH1 0x4 DUP1 CALLDATASIZE SUB PUSH1 0x20 DUP2 LT ISZERO PUSH2 0x164 JUMPI PUSH1 0x0 DUP1 REVERT JUMPDEST POP CALLDATALOAD PUSH1 0x1 PUSH1 0x1 PUSH1 0xA0 SHL SUB AND PUSH2 0x342 JUMP JUMPDEST PUSH2 0x116 PUSH2 0x396 JUMP JUMPDEST PUSH2 0xD4 PUSH1 0x4 DUP1 CALLDATASIZE SUB PUSH1 0x20 DUP2 LT ISZERO PUSH2 0x192 JUMPI PUSH1 0x0 DUP1 REVERT JUMPDEST POP CALLDATALOAD PUSH2 0x3A6 JUMP JUMPDEST PUSH2 0xD4 PUSH1 0x4 DUP1 CALLDATASIZE SUB PUSH1 0x20 DUP2 LT ISZERO PUSH2 0x1AF JUMPI PUSH1 0x0 DUP1 REVERT JUMPDEST POP CALLDATALOAD PUSH2 0x558 JUMP JUMPDEST PUSH2 0x1BE PUSH2 0x6C3 JUMP JUMPDEST PUSH1 0x40 DUP1 MLOAD PUSH1 0x1 PUSH1 0x1 PUSH1 0xA0 SHL SUB SWAP1 SWAP3 AND DUP3 MSTORE MLOAD SWAP1 DUP2 SWAP1 SUB PUSH1 0x20 ADD SWAP1 RETURN JUMPDEST PUSH1 0x0 PUSH2 0x1EC DUP2 DUP4 PUSH4 0xFFFFFFFF PUSH2 0x6D2 AND JUMP JUMPDEST SWAP3 SWAP2 POP POP JUMP JUMPDEST PUSH1 0x0 PUSH2 0x1EC PUSH1 0x1 DUP4 PUSH4 0xFFFFFFFF PUSH2 0x6D2 AND JUMP JUMPDEST PUSH2 0x215 PUSH2 0x210 PUSH2 0x739 JUMP JUMPDEST PUSH2 0x73D JUMP JUMPDEST JUMP JUMPDEST PUSH1 0x0 PUSH1 0x4 SLOAD TIMESTAMP LT ISZERO DUP1 ISZERO PUSH2 0x22D JUMPI POP PUSH1 0x5 SLOAD TIMESTAMP GT ISZERO JUMPDEST SWAP1 POP SWAP1 JUMP JUMPDEST PUSH2 0x242 PUSH2 0x23D PUSH2 0x739 JUMP JUMPDEST PUSH2 0x1F2 JUMP JUMPDEST PUSH2 0x27D JUMPI PUSH1 0x40 MLOAD PUSH3 0x461BCD PUSH1 0xE5 SHL DUP2 MSTORE PUSH1 0x4 ADD DUP1 DUP1 PUSH1 0x20 ADD DUP3 DUP2 SUB DUP3 MSTORE PUSH1 0x2E DUP2 MSTORE PUSH1 0x20 ADD DUP1 PUSH2 0xC77 PUSH1 0x2E SWAP2 CODECOPY PUSH1 0x40 ADD SWAP2 POP POP PUSH1 0x40 MLOAD DUP1 SWAP2 SUB SWAP1 REVERT JUMPDEST PUSH1 0x5 SLOAD PUSH1 0x4 SLOAD LT PUSH2 0x2BF JUMPI PUSH1 0x40 MLOAD PUSH3 0x461BCD PUSH1 0xE5 SHL DUP2 MSTORE PUSH1 0x4 ADD DUP1 DUP1 PUSH1 0x20 ADD DUP3 DUP2 SUB DUP3 MSTORE PUSH1 0x40 DUP2 MSTORE PUSH1 0x20 ADD DUP1 PUSH2 0xBCC PUSH1 0x40 SWAP2 CODECOPY PUSH1 0x40 ADD SWAP2 POP POP PUSH1 0x40 MLOAD DUP1 SWAP2 SUB SWAP1 REVERT JUMPDEST PUSH1 0x5 SLOAD PUSH2 0x2D4 SWAP1 PUSH2 0xD2F0 PUSH4 0xFFFFFFFF PUSH2 0x785 AND JUMP JUMPDEST PUSH1 0x4 DUP2 SWAP1 SSTORE PUSH2 0x2EB SWAP1 PUSH2 0x7E90 PUSH4 0xFFFFFFFF PUSH2 0x785 AND JUMP JUMPDEST PUSH1 0x5 SSTORE JUMP JUMPDEST PUSH2 0x2FB PUSH2 0x23D PUSH2 0x739 JUMP JUMPDEST PUSH2 0x336 JUMPI PUSH1 0x40 MLOAD PUSH3 0x461BCD PUSH1 0xE5 SHL DUP2 MSTORE PUSH1 0x4 ADD DUP1 DUP1 PUSH1 0x20 ADD DUP3 DUP2 SUB DUP3 MSTORE PUSH1 0x2E DUP2 MSTORE PUSH1 0x20 ADD DUP1 PUSH2 0xC77 PUSH1 0x2E SWAP2 CODECOPY PUSH1 0x40 ADD SWAP2 POP POP PUSH1 0x40 MLOAD DUP1 SWAP2 SUB SWAP1 REVERT JUMPDEST PUSH2 0x33F DUP2 PUSH2 0x7E6 JUMP JUMPDEST POP JUMP JUMPDEST PUSH2 0x352 PUSH2 0x34D PUSH2 0x739 JUMP JUMPDEST PUSH2 0x1DA JUMP JUMPDEST PUSH2 0x38D JUMPI PUSH1 0x40 MLOAD PUSH3 0x461BCD PUSH1 0xE5 SHL DUP2 MSTORE PUSH1 0x4 ADD DUP1 DUP1 PUSH1 0x20 ADD DUP3 DUP2 SUB DUP3 MSTORE PUSH1 0x30 DUP2 MSTORE PUSH1 0x20 ADD DUP1 PUSH2 0xB7B PUSH1 0x30 SWAP2 CODECOPY PUSH1 0x40 ADD SWAP2 POP POP PUSH1 0x40 MLOAD DUP1 SWAP2 SUB SWAP1 REVERT JUMPDEST PUSH2 0x33F DUP2 PUSH2 0x82E JUMP JUMPDEST PUSH2 0x215 PUSH2 0x3A1 PUSH2 0x739 JUMP JUMPDEST PUSH2 0x876 JUMP JUMPDEST PUSH1 0x0 PUSH2 0x3B0 PUSH2 0x217 JUMP JUMPDEST PUSH2 0x3F4 JUMPI PUSH1 0x40 DUP1 MLOAD PUSH3 0x461BCD PUSH1 0xE5 SHL DUP2 MSTORE PUSH1 0x20 PUSH1 0x4 DUP3 ADD MSTORE PUSH1 0x10 PUSH1 0x24 DUP3 ADD MSTORE PUSH16 0x13585C9AD95D081A5CC818DB1BDCD959 PUSH1 0x82 SHL PUSH1 0x44 DUP3 ADD MSTORE SWAP1 MLOAD SWAP1 DUP2 SWAP1 SUB PUSH1 0x64 ADD SWAP1 REVERT JUMPDEST PUSH1 0x2 SLOAD PUSH1 0x1 PUSH1 0x1 PUSH1 0xA0 SHL SUB AND PUSH4 0xAA271E1A PUSH2 0x40D PUSH2 0x739 JUMP JUMPDEST PUSH1 0x40 MLOAD DUP3 PUSH4 0xFFFFFFFF AND PUSH1 0xE0 SHL DUP2 MSTORE PUSH1 0x4 ADD DUP1 DUP3 PUSH1 0x1 PUSH1 0x1 PUSH1 0xA0 SHL SUB AND PUSH1 0x1 PUSH1 0x1 PUSH1 0xA0 SHL SUB AND DUP2 MSTORE PUSH1 0x20 ADD SWAP2 POP POP PUSH1 0x20 PUSH1 0x40 MLOAD DUP1 DUP4 SUB DUP2 DUP7 DUP1 EXTCODESIZE ISZERO DUP1 ISZERO PUSH2 0x453 JUMPI PUSH1 0x0 DUP1 REVERT JUMPDEST POP GAS STATICCALL ISZERO DUP1 ISZERO PUSH2 0x467 JUMPI RETURNDATASIZE PUSH1 0x0 DUP1 RETURNDATACOPY RETURNDATASIZE PUSH1 0x0 REVERT JUMPDEST POP POP POP POP PUSH1 0x40 MLOAD RETURNDATASIZE PUSH1 0x20 DUP2 LT ISZERO PUSH2 0x47D JUMPI PUSH1 0x0 DUP1 REVERT JUMPDEST POP MLOAD ISZERO PUSH2 0x4BB JUMPI PUSH1 0x40 MLOAD PUSH3 0x461BCD PUSH1 0xE5 SHL DUP2 MSTORE PUSH1 0x4 ADD DUP1 DUP1 PUSH1 0x20 ADD DUP3 DUP2 SUB DUP3 MSTORE PUSH1 0x28 DUP2 MSTORE PUSH1 0x20 ADD DUP1 PUSH2 0xC0C PUSH1 0x28 SWAP2 CODECOPY PUSH1 0x40 ADD SWAP2 POP POP PUSH1 0x40 MLOAD DUP1 SWAP2 SUB SWAP1 REVERT JUMPDEST PUSH2 0x550 PUSH2 0x4C6 PUSH2 0x739 JUMP JUMPDEST PUSH1 0x2 SLOAD PUSH1 0x40 DUP1 MLOAD PUSH4 0x313CE567 PUSH1 0xE0 SHL DUP2 MSTORE SWAP1 MLOAD PUSH2 0x54B SWAP3 PUSH1 0x1 PUSH1 0x1 PUSH1 0xA0 SHL SUB AND SWAP2 PUSH4 0x313CE567 SWAP2 PUSH1 0x4 DUP1 DUP4 ADD SWAP3 PUSH1 0x20 SWAP3 SWAP2 SWAP1 DUP3 SWAP1 SUB ADD DUP2 DUP7 DUP1 EXTCODESIZE ISZERO DUP1 ISZERO PUSH2 0x50C JUMPI PUSH1 0x0 DUP1 REVERT JUMPDEST POP GAS STATICCALL ISZERO DUP1 ISZERO PUSH2 0x520 JUMPI RETURNDATASIZE PUSH1 0x0 DUP1 RETURNDATACOPY RETURNDATASIZE PUSH1 0x0 REVERT JUMPDEST POP POP POP POP PUSH1 0x40 MLOAD RETURNDATASIZE PUSH1 0x20 DUP2 LT ISZERO PUSH2 0x536 JUMPI PUSH1 0x0 DUP1 REVERT JUMPDEST POP MLOAD DUP6 SWAP1 PUSH1 0xFF AND PUSH1 0xA EXP PUSH4 0xFFFFFFFF PUSH2 0x8BE AND JUMP JUMPDEST PUSH2 0x917 JUMP JUMPDEST POP PUSH1 0x1 SWAP2 SWAP1 POP JUMP JUMPDEST PUSH1 0x0 PUSH2 0x562 PUSH2 0x217 JUMP JUMPDEST PUSH2 0x5A6 JUMPI PUSH1 0x40 DUP1 MLOAD PUSH3 0x461BCD PUSH1 0xE5 SHL DUP2 MSTORE PUSH1 0x20 PUSH1 0x4 DUP3 ADD MSTORE PUSH1 0x10 PUSH1 0x24 DUP3 ADD MSTORE PUSH16 0x13585C9AD95D081A5CC818DB1BDCD959 PUSH1 0x82 SHL PUSH1 0x44 DUP3 ADD MSTORE SWAP1 MLOAD SWAP1 DUP2 SWAP1 SUB PUSH1 0x64 ADD SWAP1 REVERT JUMPDEST PUSH1 0x2 SLOAD PUSH1 0x1 PUSH1 0x1 PUSH1 0xA0 SHL SUB AND PUSH4 0xAA271E1A PUSH2 0x5BF PUSH2 0x739 JUMP JUMPDEST PUSH1 0x40 MLOAD DUP3 PUSH4 0xFFFFFFFF AND PUSH1 0xE0 SHL DUP2 MSTORE PUSH1 0x4 ADD DUP1 DUP3 PUSH1 0x1 PUSH1 0x1 PUSH1 0xA0 SHL SUB AND PUSH1 0x1 PUSH1 0x1 PUSH1 0xA0 SHL SUB AND DUP2 MSTORE PUSH1 0x20 ADD SWAP2 POP POP PUSH1 0x20 PUSH1 0x40 MLOAD DUP1 DUP4 SUB DUP2 DUP7 DUP1 EXTCODESIZE ISZERO DUP1 ISZERO PUSH2 0x605 JUMPI PUSH1 0x0 DUP1 REVERT JUMPDEST POP GAS STATICCALL ISZERO DUP1 ISZERO PUSH2 0x619 JUMPI RETURNDATASIZE PUSH1 0x0 DUP1 RETURNDATACOPY RETURNDATASIZE PUSH1 0x0 REVERT JUMPDEST POP POP POP POP PUSH1 0x40 MLOAD RETURNDATASIZE PUSH1 0x20 DUP2 LT ISZERO PUSH2 0x62F JUMPI PUSH1 0x0 DUP1 REVERT JUMPDEST POP MLOAD ISZERO PUSH2 0x66D JUMPI PUSH1 0x40 MLOAD PUSH3 0x461BCD PUSH1 0xE5 SHL DUP2 MSTORE PUSH1 0x4 ADD DUP1 DUP1 PUSH1 0x20 ADD DUP3 DUP2 SUB DUP3 MSTORE PUSH1 0x28 DUP2 MSTORE PUSH1 0x20 ADD DUP1 PUSH2 0xC0C PUSH1 0x28 SWAP2 CODECOPY PUSH1 0x40 ADD SWAP2 POP POP PUSH1 0x40 MLOAD DUP1 SWAP2 SUB SWAP1 REVERT JUMPDEST PUSH2 0x550 PUSH2 0x678 PUSH2 0x739 JUMP JUMPDEST PUSH1 0x2 SLOAD PUSH1 0x40 DUP1 MLOAD PUSH4 0x313CE567 PUSH1 0xE0 SHL DUP2 MSTORE SWAP1 MLOAD PUSH2 0x6BE SWAP3 PUSH1 0x1 PUSH1 0x1 PUSH1 0xA0 SHL SUB AND SWAP2 PUSH4 0x313CE567 SWAP2 PUSH1 0x4 DUP1 DUP4 ADD SWAP3 PUSH1 0x20 SWAP3 SWAP2 SWAP1 DUP3 SWAP1 SUB ADD DUP2 DUP7 DUP1 EXTCODESIZE ISZERO DUP1 ISZERO PUSH2 0x50C JUMPI PUSH1 0x0 DUP1 REVERT JUMPDEST PUSH2 0x9D6 JUMP JUMPDEST PUSH1 0x2 SLOAD PUSH1 0x1 PUSH1 0x1 PUSH1 0xA0 SHL SUB AND DUP2 JUMP JUMPDEST PUSH1 0x0 PUSH1 0x1 PUSH1 0x1 PUSH1 0xA0 SHL SUB DUP3 AND PUSH2 0x719 JUMPI PUSH1 0x40 MLOAD PUSH3 0x461BCD PUSH1 0xE5 SHL DUP2 MSTORE PUSH1 0x4 ADD DUP1 DUP1 PUSH1 0x20 ADD DUP3 DUP2 SUB DUP3 MSTORE PUSH1 0x22 DUP2 MSTORE PUSH1 0x20 ADD DUP1 PUSH2 0xC55 PUSH1 0x22 SWAP2 CODECOPY PUSH1 0x40 ADD SWAP2 POP POP PUSH1 0x40 MLOAD DUP1 SWAP2 SUB SWAP1 REVERT JUMPDEST POP PUSH1 0x1 PUSH1 0x1 PUSH1 0xA0 SHL SUB AND PUSH1 0x0 SWAP1 DUP2 MSTORE PUSH1 0x20 SWAP2 SWAP1 SWAP2 MSTORE PUSH1 0x40 SWAP1 KECCAK256 SLOAD PUSH1 0xFF AND SWAP1 JUMP JUMPDEST CALLER SWAP1 JUMP JUMPDEST PUSH2 0x74E PUSH1 0x0 DUP3 PUSH4 0xFFFFFFFF PUSH2 0xA92 AND JUMP JUMPDEST PUSH1 0x40 MLOAD PUSH1 0x1 PUSH1 0x1 PUSH1 0xA0 SHL SUB DUP3 AND SWAP1 PUSH32 0xE5C6F32FB04B7DE81910252A1E1D29267CD9E5FC428AFAD67442D00C7B127BD0 SWAP1 PUSH1 0x0 SWAP1 LOG2 POP JUMP JUMPDEST PUSH1 0x0 DUP3 DUP3 ADD DUP4 DUP2 LT ISZERO PUSH2 0x7DF JUMPI PUSH1 0x40 DUP1 MLOAD PUSH3 0x461BCD PUSH1 0xE5 SHL DUP2 MSTORE PUSH1 0x20 PUSH1 0x4 DUP3 ADD MSTORE PUSH1 0x1B PUSH1 0x24 DUP3 ADD MSTORE PUSH32 0x536166654D6174683A206164646974696F6E206F766572666C6F770000000000 PUSH1 0x44 DUP3 ADD MSTORE SWAP1 MLOAD SWAP1 DUP2 SWAP1 SUB PUSH1 0x64 ADD SWAP1 REVERT JUMPDEST SWAP4 SWAP3 POP POP POP JUMP JUMPDEST PUSH2 0x7F7 PUSH1 0x1 DUP3 PUSH4 0xFFFFFFFF PUSH2 0xAF9 AND JUMP JUMPDEST PUSH1 0x40 MLOAD PUSH1 0x1 PUSH1 0x1 PUSH1 0xA0 SHL SUB DUP3 AND SWAP1 PUSH32 0x44D6D25963F097AD14F29F06854A01F575648A1EF82F30E562CCD3889717E339 SWAP1 PUSH1 0x0 SWAP1 LOG2 POP JUMP JUMPDEST PUSH2 0x83F PUSH1 0x0 DUP3 PUSH4 0xFFFFFFFF PUSH2 0xAF9 AND JUMP JUMPDEST PUSH1 0x40 MLOAD PUSH1 0x1 PUSH1 0x1 PUSH1 0xA0 SHL SUB DUP3 AND SWAP1 PUSH32 0x40C56D2C4C08EEAD919E7228CF5B749297271698EC38E954D322EF4BCF1D58FB SWAP1 PUSH1 0x0 SWAP1 LOG2 POP JUMP JUMPDEST PUSH2 0x887 PUSH1 0x1 DUP3 PUSH4 0xFFFFFFFF PUSH2 0xA92 AND JUMP JUMPDEST PUSH1 0x40 MLOAD PUSH1 0x1 PUSH1 0x1 PUSH1 0xA0 SHL SUB DUP3 AND SWAP1 PUSH32 0xA3B62BC36326052D97EA62D63C3D60308ED4C3EA8AC079DD8499F1E9C4F80C0F SWAP1 PUSH1 0x0 SWAP1 LOG2 POP JUMP JUMPDEST PUSH1 0x0 DUP3 PUSH2 0x8CD JUMPI POP PUSH1 0x0 PUSH2 0x1EC JUMP JUMPDEST DUP3 DUP3 MUL DUP3 DUP5 DUP3 DUP2 PUSH2 0x8DA JUMPI INVALID JUMPDEST DIV EQ PUSH2 0x7DF JUMPI PUSH1 0x40 MLOAD PUSH3 0x461BCD PUSH1 0xE5 SHL DUP2 MSTORE PUSH1 0x4 ADD DUP1 DUP1 PUSH1 0x20 ADD DUP3 DUP2 SUB DUP3 MSTORE PUSH1 0x21 DUP2 MSTORE PUSH1 0x20 ADD DUP1 PUSH2 0xC34 PUSH1 0x21 SWAP2 CODECOPY PUSH1 0x40 ADD SWAP2 POP POP PUSH1 0x40 MLOAD DUP1 SWAP2 SUB SWAP1 REVERT JUMPDEST PUSH1 0x2 SLOAD PUSH1 0x40 DUP1 MLOAD PUSH4 0x40C10F19 PUSH1 0xE0 SHL DUP2 MSTORE PUSH1 0x1 PUSH1 0x1 PUSH1 0xA0 SHL SUB DUP6 DUP2 AND PUSH1 0x4 DUP4 ADD MSTORE PUSH1 0x24 DUP3 ADD DUP6 SWAP1 MSTORE SWAP2 MLOAD SWAP2 SWAP1 SWAP3 AND SWAP2 PUSH4 0x40C10F19 SWAP2 PUSH1 0x44 DUP1 DUP4 ADD SWAP3 PUSH1 0x20 SWAP3 SWAP2 SWAP1 DUP3 SWAP1 SUB ADD DUP2 PUSH1 0x0 DUP8 DUP1 EXTCODESIZE ISZERO DUP1 ISZERO PUSH2 0x96D JUMPI PUSH1 0x0 DUP1 REVERT JUMPDEST POP GAS CALL ISZERO DUP1 ISZERO PUSH2 0x981 JUMPI RETURNDATASIZE PUSH1 0x0 DUP1 RETURNDATACOPY RETURNDATASIZE PUSH1 0x0 REVERT JUMPDEST POP POP POP POP PUSH1 0x40 MLOAD RETURNDATASIZE PUSH1 0x20 DUP2 LT ISZERO PUSH2 0x997 JUMPI PUSH1 0x0 DUP1 REVERT JUMPDEST POP POP PUSH1 0x3 SLOAD PUSH1 0x40 MLOAD DUP3 SWAP1 PUSH1 0x1 PUSH1 0x1 PUSH1 0xA0 SHL SUB DUP6 AND SWAP1 PUSH32 0x1CBC5AB135991BD2B6A4B034A04AA2AA086DAC1371CB9B16B8B5E2ED6B036BED SWAP1 PUSH1 0x0 SWAP1 LOG4 POP POP JUMP JUMPDEST PUSH1 0x2 SLOAD PUSH1 0x40 DUP1 MLOAD PUSH4 0x23B872DD PUSH1 0xE0 SHL DUP2 MSTORE PUSH1 0x1 PUSH1 0x1 PUSH1 0xA0 SHL SUB DUP6 DUP2 AND PUSH1 0x4 DUP4 ADD MSTORE ADDRESS PUSH1 0x24 DUP4 ADD MSTORE PUSH1 0x44 DUP3 ADD DUP6 SWAP1 MSTORE SWAP2 MLOAD SWAP2 SWAP1 SWAP3 AND SWAP2 PUSH4 0x23B872DD SWAP2 PUSH1 0x64 DUP1 DUP4 ADD SWAP3 PUSH1 0x20 SWAP3 SWAP2 SWAP1 DUP3 SWAP1 SUB ADD DUP2 PUSH1 0x0 DUP8 DUP1 EXTCODESIZE ISZERO DUP1 ISZERO PUSH2 0xA32 JUMPI PUSH1 0x0 DUP1 REVERT JUMPDEST POP GAS CALL ISZERO DUP1 ISZERO PUSH2 0xA46 JUMPI RETURNDATASIZE PUSH1 0x0 DUP1 RETURNDATACOPY RETURNDATASIZE PUSH1 0x0 REVERT JUMPDEST POP POP POP POP PUSH1 0x40 MLOAD RETURNDATASIZE PUSH1 0x20 DUP2 LT ISZERO PUSH2 0xA5C JUMPI PUSH1 0x0 DUP1 REVERT JUMPDEST POP POP PUSH1 0x3 SLOAD PUSH1 0x40 MLOAD DUP3 SWAP1 ADDRESS SWAP1 PUSH32 0xED7A144FAD14804D5C249145E3E0E2B63A9EB455B76AEE5BC92D711E9BBA3E4A SWAP1 PUSH1 0x0 SWAP1 LOG4 POP POP JUMP JUMPDEST PUSH2 0xA9C DUP3 DUP3 PUSH2 0x6D2 JUMP JUMPDEST PUSH2 0xAD7 JUMPI PUSH1 0x40 MLOAD PUSH3 0x461BCD PUSH1 0xE5 SHL DUP2 MSTORE PUSH1 0x4 ADD DUP1 DUP1 PUSH1 0x20 ADD DUP3 DUP2 SUB DUP3 MSTORE PUSH1 0x21 DUP2 MSTORE PUSH1 0x20 ADD DUP1 PUSH2 0xBAB PUSH1 0x21 SWAP2 CODECOPY PUSH1 0x40 ADD SWAP2 POP POP PUSH1 0x40 MLOAD DUP1 SWAP2 SUB SWAP1 REVERT JUMPDEST PUSH1 0x1 PUSH1 0x1 PUSH1 0xA0 SHL SUB AND PUSH1 0x0 SWAP1 DUP2 MSTORE PUSH1 0x20 SWAP2 SWAP1 SWAP2 MSTORE PUSH1 0x40 SWAP1 KECCAK256 DUP1 SLOAD PUSH1 0xFF NOT AND SWAP1 SSTORE JUMP JUMPDEST PUSH2 0xB03 DUP3 DUP3 PUSH2 0x6D2 JUMP JUMPDEST ISZERO PUSH2 0xB55 JUMPI PUSH1 0x40 DUP1 MLOAD PUSH3 0x461BCD PUSH1 0xE5 SHL DUP2 MSTORE PUSH1 0x20 PUSH1 0x4 DUP3 ADD MSTORE PUSH1 0x1F PUSH1 0x24 DUP3 ADD MSTORE PUSH32 0x526F6C65733A206163636F756E7420616C72656164792068617320726F6C6500 PUSH1 0x44 DUP3 ADD MSTORE SWAP1 MLOAD SWAP1 DUP2 SWAP1 SUB PUSH1 0x64 ADD SWAP1 REVERT JUMPDEST PUSH1 0x1 PUSH1 0x1 PUSH1 0xA0 SHL SUB AND PUSH1 0x0 SWAP1 DUP2 MSTORE PUSH1 0x20 SWAP2 SWAP1 SWAP2 MSTORE PUSH1 0x40 SWAP1 KECCAK256 DUP1 SLOAD PUSH1 0xFF NOT AND PUSH1 0x1 OR SWAP1 SSTORE JUMP INVALID TIMESTAMP PUSH19 0x6F6B6572526F6C653A2063616C6C657220646F PUSH6 0x73206E6F7420 PUSH9 0x617665207468652042 PUSH19 0x6F6B657220726F6C65526F6C65733A20616363 PUSH16 0x756E7420646F6573206E6F7420686176 PUSH6 0x20726F6C6553 PUSH16 0x6D657468696E6727732077726F6E672C KECCAK256 PUSH14 0x6179626520796F75207365742074 PUSH9 0x6520696E697469616C KECCAK256 0x5F PUSH16 0x70656E696E6774696D652077726F6E67 0x2E MSIZE PUSH16 0x752063616E27742062757920796F7572 KECCAK256 PUSH16 0x776E20746F6B656E732C206D79206672 PUSH10 0x656E64536166654D6174 PUSH9 0x3A206D756C7469706C PUSH10 0x636174696F6E206F7665 PUSH19 0x666C6F77526F6C65733A206163636F756E7420 PUSH10 0x7320746865207A65726F KECCAK256 PUSH2 0x6464 PUSH19 0x65737341646D696E526F6C653A2063616C6C65 PUSH19 0x20646F6573206E6F7420686176652074686520 COINBASE PUSH5 0x6D696E2072 PUSH16 0x6C65A265627A7A7231582013A295A103 0xBE 0xDE SLT SWAP8 0x22 SUB SSTORE LT PUSH16 0xAA05850CD4553A431E170F4A1CECEFAD 0xC1 0xF8 PUSH5 0x736F6C6343 STOP SDIV GT STOP ORIGIN ",
  "sha1": "fcabfa55cdcc4385dbdc0469bc7e6bf0cb47e5c1",
  "source": "pragma solidity ^0.5.0;\n\n/*\nimport \"./PayCoin.sol\";\n*/\nimport \"../interfaces/IT_ERC20.sol\";\nimport \"./token_erc20.sol\";\nimport \"./BrokerRole.sol\";\nimport \"./AdminRole.sol\";\n\ncontract token_exchange is BrokerRole, AdminRole {\n    using SafeMath for uint256;\n\n    IT_ERC20 public token;\n    uint256 private tk_price;\n    uint256 private _openingtime;\n    uint256 private _closingtime;\n\n    address _frama = 0x96E7Cf89FF09659854277531FA315AFc27102E37 ;\n    address _libra = 0x2FbfB1e766E6F6244669E4794ff022a653F34eFf ;\n    address _pirot = 0x743491ab1511287491af8De4Ca25b2fbc707eB88 ;\n\n    event Buy(address indexed buyer, uint256 indexed amount, uint256 indexed price);\n    event Sell(address indexed buyer, uint256 indexed amount, uint256 indexed price);\n\n    modifier onlyWhileOpen {\n        require(isOpen(), \"Market is closed\");\n        _;\n    }\n\n    constructor() public {\n\n        token = new token_erc20();\n        tk_price = 1 wei; //accounts for PayCoin's decimals\n        _openingtime = now ;\n        _closingtime = now + 5 minutes ;\n\n        if (!(isAdmin(_frama) && isBroker(_frama))){\n            addAdmin(_frama);\n            addBroker(_frama);\n        }\n        if (!(isAdmin(_libra) && isBroker(_libra))){\n            addAdmin(_libra);\n            addBroker(_libra);\n        }\n        if (!(isAdmin(_pirot) && isBroker(_pirot))){\n            addAdmin(_pirot);\n            addBroker(_pirot);\n        }\n\n    }\n\n    function buy(uint256 tokenAmount) external onlyWhileOpen returns (bool){\n        /*\n        require(msg.value > 0, \"You have to pay, my friend\");\n        require(msg.value == getFee(tokenAmount), \"That's not enough money!\");\n        */\n        require(!(token.isMinter(_msgSender())), \"You can't buy your own tokens, my friend\");\n\n        _buy(_msgSender(), tokenAmount.mul(10**uint256(token.decimals())));\n\n        return true;\n    }\n\n    function sell(uint256 tokenAmount) external onlyWhileOpen returns (bool){\n        /*\n        require(msg.value > 0, \"You have to pay, my friend\");\n        require(msg.value == getFee(tokenAmount), \"That's not enough money!\");\n        */\n        require(!(token.isMinter(_msgSender())), \"You can't buy your own tokens, my friend\");\n\n        _sell(_msgSender(), tokenAmount.mul(10**uint256(token.decimals())));\n\n        return true;\n    }\n\n    function _buy(address recipient, uint256 amount) internal {\n        // TODO Implement allowances for transferFrom\n        /*\n        PayCoin pcn = PayCoin(_addressPC);\n        pcn.transferFrom(recipient, address(this), getFee(amount));\n        */\n        token.mint(recipient, amount);\n\n        emit Buy(recipient, amount, tk_price);\n    }\n\n    function _sell(address seller, uint256 amount) internal {\n        // TODO: Implement allowances for transferFrom\n        /*\n        PayCoin pcn = PayCoin(_addressPC);\n        pcn.transferFrom(address(this), seller, getFee(amount));\n        */\n        token.transferFrom(seller, address(this), amount);\n\n        emit Sell(address(this), amount, tk_price);\n    }\n\n    function getFee(uint256 amount) internal returns (uint256){\n        // TODO: Implement different fees for buying and selling\n        uint256 exp = uint256(token.decimals());\n        // amount * tk_price / 10^18 + 2*amount/1000\n        return amount.mul(tk_price).div(10**exp).add(amount.mul(2).div(1000));\n    }\n\n    function isOpen() public view returns (bool) {\n        return now >= _openingtime && now <= _closingtime;\n    }\n\n    function setOpenTime() external onlyAdmin {\n        require(_openingtime < _closingtime, \"Something's wrong, maybe you set the initial _openingtime wrong.\");\n        _openingtime = _closingtime.add(15 hours) ;\n        _closingtime = _openingtime.add(9 hours) ;\n    }\n\n\n\n\n}\n",
  "sourcePath": "contracts/token_exchange.sol",
  "type": "contract"
}