{
  "abi": [
    {
      "inputs": [
        {
          "internalType": "address",
          "name": "payCoinAddress",
          "type": "address"
        }
      ],
      "payable": false,
      "stateMutability": "nonpayable",
      "type": "constructor"
    },
    {
      "anonymous": false,
      "inputs": [
        {
          "indexed": true,
          "internalType": "address",
          "name": "account",
          "type": "address"
        }
      ],
      "name": "AdminAdded",
      "type": "event"
    },
    {
      "anonymous": false,
      "inputs": [
        {
          "indexed": true,
          "internalType": "address",
          "name": "account",
          "type": "address"
        }
      ],
      "name": "AdminRemoved",
      "type": "event"
    },
    {
      "anonymous": false,
      "inputs": [
        {
          "indexed": true,
          "internalType": "address",
          "name": "who",
          "type": "address"
        },
        {
          "indexed": true,
          "internalType": "uint256",
          "name": "id_loan",
          "type": "uint256"
        }
      ],
      "name": "CloseLoan",
      "type": "event"
    },
    {
      "anonymous": false,
      "inputs": [
        {
          "indexed": true,
          "internalType": "address",
          "name": "who",
          "type": "address"
        },
        {
          "indexed": true,
          "internalType": "uint256",
          "name": "amount",
          "type": "uint256"
        },
        {
          "indexed": true,
          "internalType": "uint256",
          "name": "id_loan",
          "type": "uint256"
        }
      ],
      "name": "OpenLoan",
      "type": "event"
    },
    {
      "constant": false,
      "inputs": [
        {
          "internalType": "address",
          "name": "account",
          "type": "address"
        }
      ],
      "name": "addAdmin",
      "outputs": [],
      "payable": false,
      "stateMutability": "nonpayable",
      "type": "function"
    },
    {
      "constant": false,
      "inputs": [
        {
          "internalType": "uint256",
          "name": "id_loan",
          "type": "uint256"
        }
      ],
      "name": "closeLoan",
      "outputs": [],
      "payable": false,
      "stateMutability": "nonpayable",
      "type": "function"
    },
    {
      "constant": true,
      "inputs": [
        {
          "internalType": "address",
          "name": "account",
          "type": "address"
        }
      ],
      "name": "isAdmin",
      "outputs": [
        {
          "internalType": "bool",
          "name": "",
          "type": "bool"
        }
      ],
      "payable": false,
      "stateMutability": "view",
      "type": "function"
    },
    {
      "constant": true,
      "inputs": [
        {
          "internalType": "uint256",
          "name": "id_loan",
          "type": "uint256"
        }
      ],
      "name": "loanStatus",
      "outputs": [
        {
          "internalType": "uint256",
          "name": "",
          "type": "uint256"
        },
        {
          "internalType": "uint256",
          "name": "",
          "type": "uint256"
        }
      ],
      "payable": false,
      "stateMutability": "view",
      "type": "function"
    },
    {
      "constant": false,
      "inputs": [
        {
          "internalType": "uint256",
          "name": "amount",
          "type": "uint256"
        }
      ],
      "name": "openLoan",
      "outputs": [
        {
          "internalType": "uint256",
          "name": "",
          "type": "uint256"
        }
      ],
      "payable": false,
      "stateMutability": "nonpayable",
      "type": "function"
    },
    {
      "constant": false,
      "inputs": [],
      "name": "renounceAdmin",
      "outputs": [],
      "payable": false,
      "stateMutability": "nonpayable",
      "type": "function"
    }
  ],
  "bytecode": "60806040526203d09060075534801561001757600080fd5b50604051610e57380380610e578339818101604052602081101561003a57600080fd5b505161005e6100506001600160e01b0361008316565b6001600160e01b0361008716565b600180546001600160a01b0319166001600160a01b03929092169190911790556101c7565b3390565b61009f8160006100d660201b6109ec1790919060201c565b6040516001600160a01b038216907f44d6d25963f097ad14f29f06854a01f575648a1ef82f30e562ccd3889717e33990600090a250565b6100e982826001600160e01b0361016016565b1561013b576040805162461bcd60e51b815260206004820152601f60248201527f526f6c65733a206163636f756e7420616c72656164792068617320726f6c6500604482015290519081900360640190fd5b6001600160a01b0316600090815260209190915260409020805460ff19166001179055565b60006001600160a01b0382166101a75760405162461bcd60e51b8152600401808060200182810382526022815260200180610e356022913960400191505060405180910390fd5b506001600160a01b03166000908152602091909152604090205460ff1690565b610c5f806101d66000396000f3fe608060405234801561001057600080fd5b50600436106100625760003560e01c806324d7806c1461006757806354e3e70d146100a157806370480275146100d05780638bad0c0a146100f8578063d05951a014610100578063dcc9e14e1461011d575b600080fd5b61008d6004803603602081101561007d57600080fd5b50356001600160a01b0316610153565b604080519115158252519081900360200190f35b6100be600480360360208110156100b757600080fd5b503561016b565b60408051918252519081900360200190f35b6100f6600480360360208110156100e657600080fd5b50356001600160a01b0316610432565b005b6100f6610489565b6100f66004803603602081101561011657600080fd5b503561049b565b61013a6004803603602081101561013357600080fd5b5035610669565b6040805192835260208301919091528051918290030190f35b6000610165818363ffffffff61070816565b92915050565b600080610200600160009054906101000a90046001600160a01b03166001600160a01b031663313ce5676040518163ffffffff1660e01b815260040160206040518083038186803b1580156101bf57600080fd5b505afa1580156101d3573d6000803e3d6000fd5b505050506040513d60208110156101e957600080fd5b50516007549060ff16600a0a63ffffffff61076f16565b61023684600260006102106107cf565b6001600160a01b031681526020810191909152604001600020549063ffffffff6107d316565b11156102735760405162461bcd60e51b8152600401808060200182810382526022815260200180610b776022913960400191505060405180910390fd5b6001546001600160a01b03166340c10f1961028c6107cf565b856040518363ffffffff1660e01b815260040180836001600160a01b03166001600160a01b0316815260200182815260200192505050602060405180830381600087803b1580156102dc57600080fd5b505af11580156102f0573d6000803e3d6000fd5b505050506040513d602081101561030657600080fd5b50610319905083600260006102106107cf565b600260006103256107cf565b6001600160a01b03166001600160a01b031681526020019081526020016000208190555061035983600360006102106107cf565b600360006103656107cf565b6001600160a01b031681526020810191909152604001600090812091909155600680546001818101808455929093527ff652222313e28459528d920b65115c16c04f3efc82aaedc97be59f3f377c0d3f018590556103c89163ffffffff61082d16565b600081815260046020908152604080832043905560059091529020805460ff19169055905080836103f76107cf565b6001600160a01b03167f23cd1445b8a027ade09c4b0825b8f8754c4546359ee5580749840e268c53700d60405160405180910390a492915050565b61044261043d6107cf565b610153565b61047d5760405162461bcd60e51b815260040180806020018281038252602e815260200180610bfd602e913960400191505060405180910390fd5b6104868161086f565b50565b6104996104946107cf565b6108b7565b565b60008181526005602052604090205460ff16156104f6576040805162461bcd60e51b81526020600482015260146024820152732637b0b71030b63932b0b23c9031b637b9b2b21760611b604482015290519081900360640190fd5b60006006828154811061050557fe5b6000918252602090912001546001549091506001600160a01b03166379cc679061052d6107cf565b61054761053a85876108ff565b859063ffffffff6107d316565b6040518363ffffffff1660e01b815260040180836001600160a01b03166001600160a01b0316815260200182815260200192505050600060405180830381600087803b15801561059657600080fd5b505af11580156105aa573d6000803e3d6000fd5b505050506105e481600360006105be6107cf565b6001600160a01b031681526020810191909152604001600020549063ffffffff61082d16565b600360006105f06107cf565b6001600160a01b03168152602080820192909252604090810160009081209390935584835260059091529020805460ff19166001179055816106306107cf565b6001600160a01b03167f76801a4a22e85c96cbe318285c9b9504b000ab23d63b7daa07bc43f9b07b039f60405160405180910390a35050565b600081815260056020526040812054819060ff16156106c6576040805162461bcd60e51b81526020600482015260146024820152732637b0b71030b63932b0b23c9031b637b9b2b21760611b604482015290519081900360640190fd5b600683815481106106d357fe5b90600052602060002001546106ff600685815481106106ee57fe5b9060005260206000200154856108ff565b91509150915091565b60006001600160a01b03821661074f5760405162461bcd60e51b8152600401808060200182810382526022815260200180610bdb6022913960400191505060405180910390fd5b506001600160a01b03166000908152602091909152604090205460ff1690565b60008261077e57506000610165565b8282028284828161078b57fe5b04146107c85760405162461bcd60e51b8152600401808060200182810382526021815260200180610bba6021913960400191505060405180910390fd5b9392505050565b3390565b6000828201838110156107c8576040805162461bcd60e51b815260206004820152601b60248201527f536166654d6174683a206164646974696f6e206f766572666c6f770000000000604482015290519081900360640190fd5b60006107c883836040518060400160405280601e81526020017f536166654d6174683a207375627472616374696f6e206f766572666c6f770000815250610955565b61088060008263ffffffff6109ec16565b6040516001600160a01b038216907f44d6d25963f097ad14f29f06854a01f575648a1ef82f30e562ccd3889717e33990600090a250565b6108c860008263ffffffff610a6d16565b6040516001600160a01b038216907fa3b62bc36326052d97ea62d63c3d60308ed4c3ea8ac079dd8499f1e9c4f80c0f90600090a250565b6000818152600460205260408120546107c8906101f4906109499061092b90439063ffffffff61082d16565b61093d876103e863ffffffff610ad416565b9063ffffffff61076f16565b9063ffffffff610ad416565b600081848411156109e45760405162461bcd60e51b81526004018080602001828103825283818151815260200191508051906020019080838360005b838110156109a9578181015183820152602001610991565b50505050905090810190601f1680156109d65780820380516001836020036101000a031916815260200191505b509250505060405180910390fd5b505050900390565b6109f68282610708565b15610a48576040805162461bcd60e51b815260206004820152601f60248201527f526f6c65733a206163636f756e7420616c72656164792068617320726f6c6500604482015290519081900360640190fd5b6001600160a01b0316600090815260209190915260409020805460ff19166001179055565b610a778282610708565b610ab25760405162461bcd60e51b8152600401808060200182810382526021815260200180610b996021913960400191505060405180910390fd5b6001600160a01b0316600090815260209190915260409020805460ff19169055565b60006107c883836040518060400160405280601a81526020017f536166654d6174683a206469766973696f6e206279207a65726f00000000000081525060008183610b605760405162461bcd60e51b81526020600482018181528351602484015283519092839260449091019190850190808383600083156109a9578181015183820152602001610991565b506000838581610b6c57fe5b049594505050505056fe43616e2774206c6f616e206d6f7265207468616e203235306b20746f74616c6c792e526f6c65733a206163636f756e7420646f6573206e6f74206861766520726f6c65536166654d6174683a206d756c7469706c69636174696f6e206f766572666c6f77526f6c65733a206163636f756e7420697320746865207a65726f206164647265737341646d696e526f6c653a2063616c6c657220646f6573206e6f742068617665207468652041646d696e20726f6c65a265627a7a723158200fd6b5cce04f6c6ee9b2ae30622d27ad267026614b78b8ab4b21953613e00d5364736f6c63430005110032526f6c65733a206163636f756e7420697320746865207a65726f2061646472657373",
  "bytecodeSha1": "da39a3ee5e6b4b0d3255bfef95601890afd80709",
  "compiler": {
    "evm_version": "istanbul",
    "optimizer": {
      "enabled": true,
      "runs": 200
    },
    "version": "0.5.17"
  },
  "contractName": "Lender",
  "language": "Solidity",
  "natspec": {
    "methods": {}
  },
  "opcodes": "PUSH1 0x80 PUSH1 0x40 MSTORE CALLVALUE DUP1 ISZERO PUSH2 0x10 JUMPI PUSH1 0x0 DUP1 REVERT JUMPDEST POP PUSH1 0x4 CALLDATASIZE LT PUSH2 0x62 JUMPI PUSH1 0x0 CALLDATALOAD PUSH1 0xE0 SHR DUP1 PUSH4 0x24D7806C EQ PUSH2 0x67 JUMPI DUP1 PUSH4 0x54E3E70D EQ PUSH2 0xA1 JUMPI DUP1 PUSH4 0x70480275 EQ PUSH2 0xD0 JUMPI DUP1 PUSH4 0x8BAD0C0A EQ PUSH2 0xF8 JUMPI DUP1 PUSH4 0xD05951A0 EQ PUSH2 0x100 JUMPI DUP1 PUSH4 0xDCC9E14E EQ PUSH2 0x11D JUMPI JUMPDEST PUSH1 0x0 DUP1 REVERT JUMPDEST PUSH2 0x8D PUSH1 0x4 DUP1 CALLDATASIZE SUB PUSH1 0x20 DUP2 LT ISZERO PUSH2 0x7D JUMPI PUSH1 0x0 DUP1 REVERT JUMPDEST POP CALLDATALOAD PUSH1 0x1 PUSH1 0x1 PUSH1 0xA0 SHL SUB AND PUSH2 0x153 JUMP JUMPDEST PUSH1 0x40 DUP1 MLOAD SWAP2 ISZERO ISZERO DUP3 MSTORE MLOAD SWAP1 DUP2 SWAP1 SUB PUSH1 0x20 ADD SWAP1 RETURN JUMPDEST PUSH2 0xBE PUSH1 0x4 DUP1 CALLDATASIZE SUB PUSH1 0x20 DUP2 LT ISZERO PUSH2 0xB7 JUMPI PUSH1 0x0 DUP1 REVERT JUMPDEST POP CALLDATALOAD PUSH2 0x16B JUMP JUMPDEST PUSH1 0x40 DUP1 MLOAD SWAP2 DUP3 MSTORE MLOAD SWAP1 DUP2 SWAP1 SUB PUSH1 0x20 ADD SWAP1 RETURN JUMPDEST PUSH2 0xF6 PUSH1 0x4 DUP1 CALLDATASIZE SUB PUSH1 0x20 DUP2 LT ISZERO PUSH2 0xE6 JUMPI PUSH1 0x0 DUP1 REVERT JUMPDEST POP CALLDATALOAD PUSH1 0x1 PUSH1 0x1 PUSH1 0xA0 SHL SUB AND PUSH2 0x432 JUMP JUMPDEST STOP JUMPDEST PUSH2 0xF6 PUSH2 0x489 JUMP JUMPDEST PUSH2 0xF6 PUSH1 0x4 DUP1 CALLDATASIZE SUB PUSH1 0x20 DUP2 LT ISZERO PUSH2 0x116 JUMPI PUSH1 0x0 DUP1 REVERT JUMPDEST POP CALLDATALOAD PUSH2 0x49B JUMP JUMPDEST PUSH2 0x13A PUSH1 0x4 DUP1 CALLDATASIZE SUB PUSH1 0x20 DUP2 LT ISZERO PUSH2 0x133 JUMPI PUSH1 0x0 DUP1 REVERT JUMPDEST POP CALLDATALOAD PUSH2 0x669 JUMP JUMPDEST PUSH1 0x40 DUP1 MLOAD SWAP3 DUP4 MSTORE PUSH1 0x20 DUP4 ADD SWAP2 SWAP1 SWAP2 MSTORE DUP1 MLOAD SWAP2 DUP3 SWAP1 SUB ADD SWAP1 RETURN JUMPDEST PUSH1 0x0 PUSH2 0x165 DUP2 DUP4 PUSH4 0xFFFFFFFF PUSH2 0x708 AND JUMP JUMPDEST SWAP3 SWAP2 POP POP JUMP JUMPDEST PUSH1 0x0 DUP1 PUSH2 0x200 PUSH1 0x1 PUSH1 0x0 SWAP1 SLOAD SWAP1 PUSH2 0x100 EXP SWAP1 DIV PUSH1 0x1 PUSH1 0x1 PUSH1 0xA0 SHL SUB AND PUSH1 0x1 PUSH1 0x1 PUSH1 0xA0 SHL SUB AND PUSH4 0x313CE567 PUSH1 0x40 MLOAD DUP2 PUSH4 0xFFFFFFFF AND PUSH1 0xE0 SHL DUP2 MSTORE PUSH1 0x4 ADD PUSH1 0x20 PUSH1 0x40 MLOAD DUP1 DUP4 SUB DUP2 DUP7 DUP1 EXTCODESIZE ISZERO DUP1 ISZERO PUSH2 0x1BF JUMPI PUSH1 0x0 DUP1 REVERT JUMPDEST POP GAS STATICCALL ISZERO DUP1 ISZERO PUSH2 0x1D3 JUMPI RETURNDATASIZE PUSH1 0x0 DUP1 RETURNDATACOPY RETURNDATASIZE PUSH1 0x0 REVERT JUMPDEST POP POP POP POP PUSH1 0x40 MLOAD RETURNDATASIZE PUSH1 0x20 DUP2 LT ISZERO PUSH2 0x1E9 JUMPI PUSH1 0x0 DUP1 REVERT JUMPDEST POP MLOAD PUSH1 0x7 SLOAD SWAP1 PUSH1 0xFF AND PUSH1 0xA EXP PUSH4 0xFFFFFFFF PUSH2 0x76F AND JUMP JUMPDEST PUSH2 0x236 DUP5 PUSH1 0x2 PUSH1 0x0 PUSH2 0x210 PUSH2 0x7CF JUMP JUMPDEST PUSH1 0x1 PUSH1 0x1 PUSH1 0xA0 SHL SUB AND DUP2 MSTORE PUSH1 0x20 DUP2 ADD SWAP2 SWAP1 SWAP2 MSTORE PUSH1 0x40 ADD PUSH1 0x0 KECCAK256 SLOAD SWAP1 PUSH4 0xFFFFFFFF PUSH2 0x7D3 AND JUMP JUMPDEST GT ISZERO PUSH2 0x273 JUMPI PUSH1 0x40 MLOAD PUSH3 0x461BCD PUSH1 0xE5 SHL DUP2 MSTORE PUSH1 0x4 ADD DUP1 DUP1 PUSH1 0x20 ADD DUP3 DUP2 SUB DUP3 MSTORE PUSH1 0x22 DUP2 MSTORE PUSH1 0x20 ADD DUP1 PUSH2 0xB77 PUSH1 0x22 SWAP2 CODECOPY PUSH1 0x40 ADD SWAP2 POP POP PUSH1 0x40 MLOAD DUP1 SWAP2 SUB SWAP1 REVERT JUMPDEST PUSH1 0x1 SLOAD PUSH1 0x1 PUSH1 0x1 PUSH1 0xA0 SHL SUB AND PUSH4 0x40C10F19 PUSH2 0x28C PUSH2 0x7CF JUMP JUMPDEST DUP6 PUSH1 0x40 MLOAD DUP4 PUSH4 0xFFFFFFFF AND PUSH1 0xE0 SHL DUP2 MSTORE PUSH1 0x4 ADD DUP1 DUP4 PUSH1 0x1 PUSH1 0x1 PUSH1 0xA0 SHL SUB AND PUSH1 0x1 PUSH1 0x1 PUSH1 0xA0 SHL SUB AND DUP2 MSTORE PUSH1 0x20 ADD DUP3 DUP2 MSTORE PUSH1 0x20 ADD SWAP3 POP POP POP PUSH1 0x20 PUSH1 0x40 MLOAD DUP1 DUP4 SUB DUP2 PUSH1 0x0 DUP8 DUP1 EXTCODESIZE ISZERO DUP1 ISZERO PUSH2 0x2DC JUMPI PUSH1 0x0 DUP1 REVERT JUMPDEST POP GAS CALL ISZERO DUP1 ISZERO PUSH2 0x2F0 JUMPI RETURNDATASIZE PUSH1 0x0 DUP1 RETURNDATACOPY RETURNDATASIZE PUSH1 0x0 REVERT JUMPDEST POP POP POP POP PUSH1 0x40 MLOAD RETURNDATASIZE PUSH1 0x20 DUP2 LT ISZERO PUSH2 0x306 JUMPI PUSH1 0x0 DUP1 REVERT JUMPDEST POP PUSH2 0x319 SWAP1 POP DUP4 PUSH1 0x2 PUSH1 0x0 PUSH2 0x210 PUSH2 0x7CF JUMP JUMPDEST PUSH1 0x2 PUSH1 0x0 PUSH2 0x325 PUSH2 0x7CF JUMP JUMPDEST PUSH1 0x1 PUSH1 0x1 PUSH1 0xA0 SHL SUB AND PUSH1 0x1 PUSH1 0x1 PUSH1 0xA0 SHL SUB AND DUP2 MSTORE PUSH1 0x20 ADD SWAP1 DUP2 MSTORE PUSH1 0x20 ADD PUSH1 0x0 KECCAK256 DUP2 SWAP1 SSTORE POP PUSH2 0x359 DUP4 PUSH1 0x3 PUSH1 0x0 PUSH2 0x210 PUSH2 0x7CF JUMP JUMPDEST PUSH1 0x3 PUSH1 0x0 PUSH2 0x365 PUSH2 0x7CF JUMP JUMPDEST PUSH1 0x1 PUSH1 0x1 PUSH1 0xA0 SHL SUB AND DUP2 MSTORE PUSH1 0x20 DUP2 ADD SWAP2 SWAP1 SWAP2 MSTORE PUSH1 0x40 ADD PUSH1 0x0 SWAP1 DUP2 KECCAK256 SWAP2 SWAP1 SWAP2 SSTORE PUSH1 0x6 DUP1 SLOAD PUSH1 0x1 DUP2 DUP2 ADD DUP1 DUP5 SSTORE SWAP3 SWAP1 SWAP4 MSTORE PUSH32 0xF652222313E28459528D920B65115C16C04F3EFC82AAEDC97BE59F3F377C0D3F ADD DUP6 SWAP1 SSTORE PUSH2 0x3C8 SWAP2 PUSH4 0xFFFFFFFF PUSH2 0x82D AND JUMP JUMPDEST PUSH1 0x0 DUP2 DUP2 MSTORE PUSH1 0x4 PUSH1 0x20 SWAP1 DUP2 MSTORE PUSH1 0x40 DUP1 DUP4 KECCAK256 NUMBER SWAP1 SSTORE PUSH1 0x5 SWAP1 SWAP2 MSTORE SWAP1 KECCAK256 DUP1 SLOAD PUSH1 0xFF NOT AND SWAP1 SSTORE SWAP1 POP DUP1 DUP4 PUSH2 0x3F7 PUSH2 0x7CF JUMP JUMPDEST PUSH1 0x1 PUSH1 0x1 PUSH1 0xA0 SHL SUB AND PUSH32 0x23CD1445B8A027ADE09C4B0825B8F8754C4546359EE5580749840E268C53700D PUSH1 0x40 MLOAD PUSH1 0x40 MLOAD DUP1 SWAP2 SUB SWAP1 LOG4 SWAP3 SWAP2 POP POP JUMP JUMPDEST PUSH2 0x442 PUSH2 0x43D PUSH2 0x7CF JUMP JUMPDEST PUSH2 0x153 JUMP JUMPDEST PUSH2 0x47D JUMPI PUSH1 0x40 MLOAD PUSH3 0x461BCD PUSH1 0xE5 SHL DUP2 MSTORE PUSH1 0x4 ADD DUP1 DUP1 PUSH1 0x20 ADD DUP3 DUP2 SUB DUP3 MSTORE PUSH1 0x2E DUP2 MSTORE PUSH1 0x20 ADD DUP1 PUSH2 0xBFD PUSH1 0x2E SWAP2 CODECOPY PUSH1 0x40 ADD SWAP2 POP POP PUSH1 0x40 MLOAD DUP1 SWAP2 SUB SWAP1 REVERT JUMPDEST PUSH2 0x486 DUP2 PUSH2 0x86F JUMP JUMPDEST POP JUMP JUMPDEST PUSH2 0x499 PUSH2 0x494 PUSH2 0x7CF JUMP JUMPDEST PUSH2 0x8B7 JUMP JUMPDEST JUMP JUMPDEST PUSH1 0x0 DUP2 DUP2 MSTORE PUSH1 0x5 PUSH1 0x20 MSTORE PUSH1 0x40 SWAP1 KECCAK256 SLOAD PUSH1 0xFF AND ISZERO PUSH2 0x4F6 JUMPI PUSH1 0x40 DUP1 MLOAD PUSH3 0x461BCD PUSH1 0xE5 SHL DUP2 MSTORE PUSH1 0x20 PUSH1 0x4 DUP3 ADD MSTORE PUSH1 0x14 PUSH1 0x24 DUP3 ADD MSTORE PUSH20 0x2637B0B71030B63932B0B23C9031B637B9B2B217 PUSH1 0x61 SHL PUSH1 0x44 DUP3 ADD MSTORE SWAP1 MLOAD SWAP1 DUP2 SWAP1 SUB PUSH1 0x64 ADD SWAP1 REVERT JUMPDEST PUSH1 0x0 PUSH1 0x6 DUP3 DUP2 SLOAD DUP2 LT PUSH2 0x505 JUMPI INVALID JUMPDEST PUSH1 0x0 SWAP2 DUP3 MSTORE PUSH1 0x20 SWAP1 SWAP2 KECCAK256 ADD SLOAD PUSH1 0x1 SLOAD SWAP1 SWAP2 POP PUSH1 0x1 PUSH1 0x1 PUSH1 0xA0 SHL SUB AND PUSH4 0x79CC6790 PUSH2 0x52D PUSH2 0x7CF JUMP JUMPDEST PUSH2 0x547 PUSH2 0x53A DUP6 DUP8 PUSH2 0x8FF JUMP JUMPDEST DUP6 SWAP1 PUSH4 0xFFFFFFFF PUSH2 0x7D3 AND JUMP JUMPDEST PUSH1 0x40 MLOAD DUP4 PUSH4 0xFFFFFFFF AND PUSH1 0xE0 SHL DUP2 MSTORE PUSH1 0x4 ADD DUP1 DUP4 PUSH1 0x1 PUSH1 0x1 PUSH1 0xA0 SHL SUB AND PUSH1 0x1 PUSH1 0x1 PUSH1 0xA0 SHL SUB AND DUP2 MSTORE PUSH1 0x20 ADD DUP3 DUP2 MSTORE PUSH1 0x20 ADD SWAP3 POP POP POP PUSH1 0x0 PUSH1 0x40 MLOAD DUP1 DUP4 SUB DUP2 PUSH1 0x0 DUP8 DUP1 EXTCODESIZE ISZERO DUP1 ISZERO PUSH2 0x596 JUMPI PUSH1 0x0 DUP1 REVERT JUMPDEST POP GAS CALL ISZERO DUP1 ISZERO PUSH2 0x5AA JUMPI RETURNDATASIZE PUSH1 0x0 DUP1 RETURNDATACOPY RETURNDATASIZE PUSH1 0x0 REVERT JUMPDEST POP POP POP POP PUSH2 0x5E4 DUP2 PUSH1 0x3 PUSH1 0x0 PUSH2 0x5BE PUSH2 0x7CF JUMP JUMPDEST PUSH1 0x1 PUSH1 0x1 PUSH1 0xA0 SHL SUB AND DUP2 MSTORE PUSH1 0x20 DUP2 ADD SWAP2 SWAP1 SWAP2 MSTORE PUSH1 0x40 ADD PUSH1 0x0 KECCAK256 SLOAD SWAP1 PUSH4 0xFFFFFFFF PUSH2 0x82D AND JUMP JUMPDEST PUSH1 0x3 PUSH1 0x0 PUSH2 0x5F0 PUSH2 0x7CF JUMP JUMPDEST PUSH1 0x1 PUSH1 0x1 PUSH1 0xA0 SHL SUB AND DUP2 MSTORE PUSH1 0x20 DUP1 DUP3 ADD SWAP3 SWAP1 SWAP3 MSTORE PUSH1 0x40 SWAP1 DUP2 ADD PUSH1 0x0 SWAP1 DUP2 KECCAK256 SWAP4 SWAP1 SWAP4 SSTORE DUP5 DUP4 MSTORE PUSH1 0x5 SWAP1 SWAP2 MSTORE SWAP1 KECCAK256 DUP1 SLOAD PUSH1 0xFF NOT AND PUSH1 0x1 OR SWAP1 SSTORE DUP2 PUSH2 0x630 PUSH2 0x7CF JUMP JUMPDEST PUSH1 0x1 PUSH1 0x1 PUSH1 0xA0 SHL SUB AND PUSH32 0x76801A4A22E85C96CBE318285C9B9504B000AB23D63B7DAA07BC43F9B07B039F PUSH1 0x40 MLOAD PUSH1 0x40 MLOAD DUP1 SWAP2 SUB SWAP1 LOG3 POP POP JUMP JUMPDEST PUSH1 0x0 DUP2 DUP2 MSTORE PUSH1 0x5 PUSH1 0x20 MSTORE PUSH1 0x40 DUP2 KECCAK256 SLOAD DUP2 SWAP1 PUSH1 0xFF AND ISZERO PUSH2 0x6C6 JUMPI PUSH1 0x40 DUP1 MLOAD PUSH3 0x461BCD PUSH1 0xE5 SHL DUP2 MSTORE PUSH1 0x20 PUSH1 0x4 DUP3 ADD MSTORE PUSH1 0x14 PUSH1 0x24 DUP3 ADD MSTORE PUSH20 0x2637B0B71030B63932B0B23C9031B637B9B2B217 PUSH1 0x61 SHL PUSH1 0x44 DUP3 ADD MSTORE SWAP1 MLOAD SWAP1 DUP2 SWAP1 SUB PUSH1 0x64 ADD SWAP1 REVERT JUMPDEST PUSH1 0x6 DUP4 DUP2 SLOAD DUP2 LT PUSH2 0x6D3 JUMPI INVALID JUMPDEST SWAP1 PUSH1 0x0 MSTORE PUSH1 0x20 PUSH1 0x0 KECCAK256 ADD SLOAD PUSH2 0x6FF PUSH1 0x6 DUP6 DUP2 SLOAD DUP2 LT PUSH2 0x6EE JUMPI INVALID JUMPDEST SWAP1 PUSH1 0x0 MSTORE PUSH1 0x20 PUSH1 0x0 KECCAK256 ADD SLOAD DUP6 PUSH2 0x8FF JUMP JUMPDEST SWAP2 POP SWAP2 POP SWAP2 POP SWAP2 JUMP JUMPDEST PUSH1 0x0 PUSH1 0x1 PUSH1 0x1 PUSH1 0xA0 SHL SUB DUP3 AND PUSH2 0x74F JUMPI PUSH1 0x40 MLOAD PUSH3 0x461BCD PUSH1 0xE5 SHL DUP2 MSTORE PUSH1 0x4 ADD DUP1 DUP1 PUSH1 0x20 ADD DUP3 DUP2 SUB DUP3 MSTORE PUSH1 0x22 DUP2 MSTORE PUSH1 0x20 ADD DUP1 PUSH2 0xBDB PUSH1 0x22 SWAP2 CODECOPY PUSH1 0x40 ADD SWAP2 POP POP PUSH1 0x40 MLOAD DUP1 SWAP2 SUB SWAP1 REVERT JUMPDEST POP PUSH1 0x1 PUSH1 0x1 PUSH1 0xA0 SHL SUB AND PUSH1 0x0 SWAP1 DUP2 MSTORE PUSH1 0x20 SWAP2 SWAP1 SWAP2 MSTORE PUSH1 0x40 SWAP1 KECCAK256 SLOAD PUSH1 0xFF AND SWAP1 JUMP JUMPDEST PUSH1 0x0 DUP3 PUSH2 0x77E JUMPI POP PUSH1 0x0 PUSH2 0x165 JUMP JUMPDEST DUP3 DUP3 MUL DUP3 DUP5 DUP3 DUP2 PUSH2 0x78B JUMPI INVALID JUMPDEST DIV EQ PUSH2 0x7C8 JUMPI PUSH1 0x40 MLOAD PUSH3 0x461BCD PUSH1 0xE5 SHL DUP2 MSTORE PUSH1 0x4 ADD DUP1 DUP1 PUSH1 0x20 ADD DUP3 DUP2 SUB DUP3 MSTORE PUSH1 0x21 DUP2 MSTORE PUSH1 0x20 ADD DUP1 PUSH2 0xBBA PUSH1 0x21 SWAP2 CODECOPY PUSH1 0x40 ADD SWAP2 POP POP PUSH1 0x40 MLOAD DUP1 SWAP2 SUB SWAP1 REVERT JUMPDEST SWAP4 SWAP3 POP POP POP JUMP JUMPDEST CALLER SWAP1 JUMP JUMPDEST PUSH1 0x0 DUP3 DUP3 ADD DUP4 DUP2 LT ISZERO PUSH2 0x7C8 JUMPI PUSH1 0x40 DUP1 MLOAD PUSH3 0x461BCD PUSH1 0xE5 SHL DUP2 MSTORE PUSH1 0x20 PUSH1 0x4 DUP3 ADD MSTORE PUSH1 0x1B PUSH1 0x24 DUP3 ADD MSTORE PUSH32 0x536166654D6174683A206164646974696F6E206F766572666C6F770000000000 PUSH1 0x44 DUP3 ADD MSTORE SWAP1 MLOAD SWAP1 DUP2 SWAP1 SUB PUSH1 0x64 ADD SWAP1 REVERT JUMPDEST PUSH1 0x0 PUSH2 0x7C8 DUP4 DUP4 PUSH1 0x40 MLOAD DUP1 PUSH1 0x40 ADD PUSH1 0x40 MSTORE DUP1 PUSH1 0x1E DUP2 MSTORE PUSH1 0x20 ADD PUSH32 0x536166654D6174683A207375627472616374696F6E206F766572666C6F770000 DUP2 MSTORE POP PUSH2 0x955 JUMP JUMPDEST PUSH2 0x880 PUSH1 0x0 DUP3 PUSH4 0xFFFFFFFF PUSH2 0x9EC AND JUMP JUMPDEST PUSH1 0x40 MLOAD PUSH1 0x1 PUSH1 0x1 PUSH1 0xA0 SHL SUB DUP3 AND SWAP1 PUSH32 0x44D6D25963F097AD14F29F06854A01F575648A1EF82F30E562CCD3889717E339 SWAP1 PUSH1 0x0 SWAP1 LOG2 POP JUMP JUMPDEST PUSH2 0x8C8 PUSH1 0x0 DUP3 PUSH4 0xFFFFFFFF PUSH2 0xA6D AND JUMP JUMPDEST PUSH1 0x40 MLOAD PUSH1 0x1 PUSH1 0x1 PUSH1 0xA0 SHL SUB DUP3 AND SWAP1 PUSH32 0xA3B62BC36326052D97EA62D63C3D60308ED4C3EA8AC079DD8499F1E9C4F80C0F SWAP1 PUSH1 0x0 SWAP1 LOG2 POP JUMP JUMPDEST PUSH1 0x0 DUP2 DUP2 MSTORE PUSH1 0x4 PUSH1 0x20 MSTORE PUSH1 0x40 DUP2 KECCAK256 SLOAD PUSH2 0x7C8 SWAP1 PUSH2 0x1F4 SWAP1 PUSH2 0x949 SWAP1 PUSH2 0x92B SWAP1 NUMBER SWAP1 PUSH4 0xFFFFFFFF PUSH2 0x82D AND JUMP JUMPDEST PUSH2 0x93D DUP8 PUSH2 0x3E8 PUSH4 0xFFFFFFFF PUSH2 0xAD4 AND JUMP JUMPDEST SWAP1 PUSH4 0xFFFFFFFF PUSH2 0x76F AND JUMP JUMPDEST SWAP1 PUSH4 0xFFFFFFFF PUSH2 0xAD4 AND JUMP JUMPDEST PUSH1 0x0 DUP2 DUP5 DUP5 GT ISZERO PUSH2 0x9E4 JUMPI PUSH1 0x40 MLOAD PUSH3 0x461BCD PUSH1 0xE5 SHL DUP2 MSTORE PUSH1 0x4 ADD DUP1 DUP1 PUSH1 0x20 ADD DUP3 DUP2 SUB DUP3 MSTORE DUP4 DUP2 DUP2 MLOAD DUP2 MSTORE PUSH1 0x20 ADD SWAP2 POP DUP1 MLOAD SWAP1 PUSH1 0x20 ADD SWAP1 DUP1 DUP4 DUP4 PUSH1 0x0 JUMPDEST DUP4 DUP2 LT ISZERO PUSH2 0x9A9 JUMPI DUP2 DUP2 ADD MLOAD DUP4 DUP3 ADD MSTORE PUSH1 0x20 ADD PUSH2 0x991 JUMP JUMPDEST POP POP POP POP SWAP1 POP SWAP1 DUP2 ADD SWAP1 PUSH1 0x1F AND DUP1 ISZERO PUSH2 0x9D6 JUMPI DUP1 DUP3 SUB DUP1 MLOAD PUSH1 0x1 DUP4 PUSH1 0x20 SUB PUSH2 0x100 EXP SUB NOT AND DUP2 MSTORE PUSH1 0x20 ADD SWAP2 POP JUMPDEST POP SWAP3 POP POP POP PUSH1 0x40 MLOAD DUP1 SWAP2 SUB SWAP1 REVERT JUMPDEST POP POP POP SWAP1 SUB SWAP1 JUMP JUMPDEST PUSH2 0x9F6 DUP3 DUP3 PUSH2 0x708 JUMP JUMPDEST ISZERO PUSH2 0xA48 JUMPI PUSH1 0x40 DUP1 MLOAD PUSH3 0x461BCD PUSH1 0xE5 SHL DUP2 MSTORE PUSH1 0x20 PUSH1 0x4 DUP3 ADD MSTORE PUSH1 0x1F PUSH1 0x24 DUP3 ADD MSTORE PUSH32 0x526F6C65733A206163636F756E7420616C72656164792068617320726F6C6500 PUSH1 0x44 DUP3 ADD MSTORE SWAP1 MLOAD SWAP1 DUP2 SWAP1 SUB PUSH1 0x64 ADD SWAP1 REVERT JUMPDEST PUSH1 0x1 PUSH1 0x1 PUSH1 0xA0 SHL SUB AND PUSH1 0x0 SWAP1 DUP2 MSTORE PUSH1 0x20 SWAP2 SWAP1 SWAP2 MSTORE PUSH1 0x40 SWAP1 KECCAK256 DUP1 SLOAD PUSH1 0xFF NOT AND PUSH1 0x1 OR SWAP1 SSTORE JUMP JUMPDEST PUSH2 0xA77 DUP3 DUP3 PUSH2 0x708 JUMP JUMPDEST PUSH2 0xAB2 JUMPI PUSH1 0x40 MLOAD PUSH3 0x461BCD PUSH1 0xE5 SHL DUP2 MSTORE PUSH1 0x4 ADD DUP1 DUP1 PUSH1 0x20 ADD DUP3 DUP2 SUB DUP3 MSTORE PUSH1 0x21 DUP2 MSTORE PUSH1 0x20 ADD DUP1 PUSH2 0xB99 PUSH1 0x21 SWAP2 CODECOPY PUSH1 0x40 ADD SWAP2 POP POP PUSH1 0x40 MLOAD DUP1 SWAP2 SUB SWAP1 REVERT JUMPDEST PUSH1 0x1 PUSH1 0x1 PUSH1 0xA0 SHL SUB AND PUSH1 0x0 SWAP1 DUP2 MSTORE PUSH1 0x20 SWAP2 SWAP1 SWAP2 MSTORE PUSH1 0x40 SWAP1 KECCAK256 DUP1 SLOAD PUSH1 0xFF NOT AND SWAP1 SSTORE JUMP JUMPDEST PUSH1 0x0 PUSH2 0x7C8 DUP4 DUP4 PUSH1 0x40 MLOAD DUP1 PUSH1 0x40 ADD PUSH1 0x40 MSTORE DUP1 PUSH1 0x1A DUP2 MSTORE PUSH1 0x20 ADD PUSH32 0x536166654D6174683A206469766973696F6E206279207A65726F000000000000 DUP2 MSTORE POP PUSH1 0x0 DUP2 DUP4 PUSH2 0xB60 JUMPI PUSH1 0x40 MLOAD PUSH3 0x461BCD PUSH1 0xE5 SHL DUP2 MSTORE PUSH1 0x20 PUSH1 0x4 DUP3 ADD DUP2 DUP2 MSTORE DUP4 MLOAD PUSH1 0x24 DUP5 ADD MSTORE DUP4 MLOAD SWAP1 SWAP3 DUP4 SWAP3 PUSH1 0x44 SWAP1 SWAP2 ADD SWAP2 SWAP1 DUP6 ADD SWAP1 DUP1 DUP4 DUP4 PUSH1 0x0 DUP4 ISZERO PUSH2 0x9A9 JUMPI DUP2 DUP2 ADD MLOAD DUP4 DUP3 ADD MSTORE PUSH1 0x20 ADD PUSH2 0x991 JUMP JUMPDEST POP PUSH1 0x0 DUP4 DUP6 DUP2 PUSH2 0xB6C JUMPI INVALID JUMPDEST DIV SWAP6 SWAP5 POP POP POP POP POP JUMP INVALID NUMBER PUSH2 0x6E27 PUSH21 0x206C6F616E206D6F7265207468616E203235306B20 PUSH21 0x6F74616C6C792E526F6C65733A206163636F756E74 KECCAK256 PUSH5 0x6F6573206E PUSH16 0x74206861766520726F6C65536166654D PUSH2 0x7468 GASPRICE KECCAK256 PUSH14 0x756C7469706C69636174696F6E20 PUSH16 0x766572666C6F77526F6C65733A206163 PUSH4 0x6F756E74 KECCAK256 PUSH10 0x7320746865207A65726F KECCAK256 PUSH2 0x6464 PUSH19 0x65737341646D696E526F6C653A2063616C6C65 PUSH19 0x20646F6573206E6F7420686176652074686520 COINBASE PUSH5 0x6D696E2072 PUSH16 0x6C65A265627A7A723158200FD6B5CCE0 0x4F PUSH13 0x6EE9B2AE30622D27AD26702661 0x4B PUSH25 0xB8AB4B21953613E00D5364736F6C6343000511003200000000 ",
  "sha1": "ad963a89a080f873c4df661f4baa2aa2528b4319",
  "source": "pragma solidity ^0.5.0;\n\nimport \"./PayCoin.sol\";\nimport \"../interfaces/IT_PayCoin.sol\"; \nimport \"./AdminRole.sol\"; \n\ncontract Lender is AdminRole {\n    using SafeMath for uint256; \n\n    PayCoin payCoin;\n\n    mapping (address=>uint256) _loan;\n    mapping (address=>uint256) _debt;\n    mapping (uint256=>uint256) _blockNumber; \n    mapping (uint256=>bool) _closed; \n\n    uint256[] _id_loan; \n    uint256 private _maxLoan = 250000; \n\n    event OpenLoan(address indexed who, uint256 indexed amount, uint256 indexed id_loan); \n    event CloseLoan(address indexed who, uint256 indexed id_loan); \n\n    constructor (address payCoinAddress) public {\n        payCoin = PayCoin(payCoinAddress); \n    }\n\n    function openLoan(uint256 amount) external returns(uint256) {\n        uint256 _id ; \n        require(_loan[_msgSender()].add(amount) <= _maxLoan.mul(10**(uint256(payCoin.decimals()))), \"Can't loan more than 250k totally.\"); \n\n        payCoin.mint(_msgSender(), amount); \n\n        _loan[_msgSender()] = _loan[_msgSender()].add(amount); \n        _debt[_msgSender()] = _debt[_msgSender()].add(amount); \n        \n        _id = _id_loan.push(amount).sub(1); \n        _blockNumber[_id] = block.number; \n        _closed[_id] = false; \n\n        emit OpenLoan(_msgSender(), amount, _id);  \n\n        return _id; \n    }\n\n    function closeLoan(uint256 id_loan) external {\n        require(_closed[id_loan] == false, \"Loan already closed.\");\n        uint256 amount = _id_loan[id_loan]; \n\n        payCoin.burnFrom(_msgSender(), amount.add(getFee(amount, id_loan))); \n        _debt[_msgSender()] = _debt[_msgSender()].sub(amount); \n\n        _closed[id_loan] = true; \n        emit CloseLoan(_msgSender(), id_loan); \n    }\n\n    function loanStatus(uint256 id_loan) external view returns(uint256, uint256){\n        require(_closed[id_loan] == false, \"Loan already closed.\");\n        return(_id_loan[id_loan], getFee(_id_loan[id_loan], id_loan)); \n    }\n    /*\n    function penalty(address teamAddress) onlyAdmin external returns(uint256) {\n        //require(now >= \"18 dell'ultimo giorno\");\n        payCoin.burnFrom(teamAddress, _debt[teamAddress].mul(15).div(10)); \n        return _debt[teamAddress].mul(15).div(10); \n    }\n    */\n    function getFee(uint256 amount, uint256 id_loan) internal view returns(uint256) {\n        return amount.div(1000).mul(block.number.sub(_blockNumber[id_loan])).div(500); \n    }\n    \n}",
  "sourcePath": "contracts/Lender.sol",
  "type": "contract"
}