{
  "abi": [
    {
      "inputs": [
        {
          "internalType": "address",
          "name": "exchangeAddress",
          "type": "address"
        }
      ],
      "payable": false,
      "stateMutability": "nonpayable",
      "type": "constructor"
    },
    {
      "anonymous": false,
      "inputs": [
        {
          "indexed": true,
          "internalType": "address",
          "name": "account",
          "type": "address"
        }
      ],
      "name": "AdminAdded",
      "type": "event"
    },
    {
      "anonymous": false,
      "inputs": [
        {
          "indexed": true,
          "internalType": "address",
          "name": "account",
          "type": "address"
        }
      ],
      "name": "AdminRemoved",
      "type": "event"
    },
    {
      "anonymous": false,
      "inputs": [
        {
          "indexed": true,
          "internalType": "address",
          "name": "directChallenger",
          "type": "address"
        },
        {
          "indexed": true,
          "internalType": "address",
          "name": "directChallenged",
          "type": "address"
        },
        {
          "indexed": false,
          "internalType": "uint256",
          "name": "directFlag",
          "type": "uint256"
        }
      ],
      "name": "DirectChallenge",
      "type": "event"
    },
    {
      "anonymous": false,
      "inputs": [
        {
          "indexed": true,
          "internalType": "address",
          "name": "directWinner",
          "type": "address"
        },
        {
          "indexed": true,
          "internalType": "uint256",
          "name": "directFlag",
          "type": "uint256"
        },
        {
          "indexed": true,
          "internalType": "uint256",
          "name": "coin_amount",
          "type": "uint256"
        }
      ],
      "name": "DirectChallengeWon",
      "type": "event"
    },
    {
      "anonymous": false,
      "inputs": [
        {
          "indexed": true,
          "internalType": "address",
          "name": "winner",
          "type": "address"
        },
        {
          "indexed": true,
          "internalType": "uint256",
          "name": "coin_won",
          "type": "uint256"
        }
      ],
      "name": "Overnight",
      "type": "event"
    },
    {
      "anonymous": false,
      "inputs": [
        {
          "indexed": true,
          "internalType": "address",
          "name": "teamAddress",
          "type": "address"
        }
      ],
      "name": "Registered",
      "type": "event"
    },
    {
      "anonymous": false,
      "inputs": [
        {
          "indexed": true,
          "internalType": "address",
          "name": "account",
          "type": "address"
        }
      ],
      "name": "TeamAdded",
      "type": "event"
    },
    {
      "anonymous": false,
      "inputs": [
        {
          "indexed": true,
          "internalType": "address",
          "name": "teamChallenger",
          "type": "address"
        },
        {
          "indexed": false,
          "internalType": "uint256",
          "name": "teamFlag",
          "type": "uint256"
        }
      ],
      "name": "TeamChallenge",
      "type": "event"
    },
    {
      "anonymous": false,
      "inputs": [
        {
          "indexed": true,
          "internalType": "address",
          "name": "teamWinner",
          "type": "address"
        },
        {
          "indexed": true,
          "internalType": "uint256",
          "name": "teamFlag",
          "type": "uint256"
        },
        {
          "indexed": true,
          "internalType": "uint256",
          "name": "coin_amount",
          "type": "uint256"
        }
      ],
      "name": "TeamChallengeWon",
      "type": "event"
    },
    {
      "anonymous": false,
      "inputs": [
        {
          "indexed": true,
          "internalType": "address",
          "name": "account",
          "type": "address"
        }
      ],
      "name": "TeamRemoved",
      "type": "event"
    },
    {
      "constant": false,
      "inputs": [
        {
          "internalType": "address",
          "name": "account",
          "type": "address"
        }
      ],
      "name": "addAdmin",
      "outputs": [],
      "payable": false,
      "stateMutability": "nonpayable",
      "type": "function"
    },
    {
      "constant": false,
      "inputs": [
        {
          "internalType": "address",
          "name": "account",
          "type": "address"
        }
      ],
      "name": "addTeam",
      "outputs": [],
      "payable": false,
      "stateMutability": "nonpayable",
      "type": "function"
    },
    {
      "constant": false,
      "inputs": [
        {
          "internalType": "address",
          "name": "directChallenged",
          "type": "address"
        },
        {
          "internalType": "uint256",
          "name": "flag",
          "type": "uint256"
        }
      ],
      "name": "challengeStart",
      "outputs": [],
      "payable": false,
      "stateMutability": "nonpayable",
      "type": "function"
    },
    {
      "constant": false,
      "inputs": [
        {
          "internalType": "uint256",
          "name": "flag",
          "type": "uint256"
        }
      ],
      "name": "challengeStart",
      "outputs": [],
      "payable": false,
      "stateMutability": "nonpayable",
      "type": "function"
    },
    {
      "constant": true,
      "inputs": [
        {
          "internalType": "address",
          "name": "account",
          "type": "address"
        }
      ],
      "name": "isAdmin",
      "outputs": [
        {
          "internalType": "bool",
          "name": "",
          "type": "bool"
        }
      ],
      "payable": false,
      "stateMutability": "view",
      "type": "function"
    },
    {
      "constant": true,
      "inputs": [
        {
          "internalType": "address",
          "name": "teamAddress",
          "type": "address"
        }
      ],
      "name": "isRegistered",
      "outputs": [
        {
          "internalType": "bool",
          "name": "",
          "type": "bool"
        }
      ],
      "payable": false,
      "stateMutability": "view",
      "type": "function"
    },
    {
      "constant": true,
      "inputs": [
        {
          "internalType": "address",
          "name": "account",
          "type": "address"
        }
      ],
      "name": "isTeam",
      "outputs": [
        {
          "internalType": "bool",
          "name": "",
          "type": "bool"
        }
      ],
      "payable": false,
      "stateMutability": "view",
      "type": "function"
    },
    {
      "constant": false,
      "inputs": [
        {
          "internalType": "uint256",
          "name": "id_price",
          "type": "uint256"
        }
      ],
      "name": "overnightCheck",
      "outputs": [],
      "payable": false,
      "stateMutability": "nonpayable",
      "type": "function"
    },
    {
      "constant": false,
      "inputs": [
        {
          "internalType": "int256",
          "name": "new_delta_price",
          "type": "int256"
        }
      ],
      "name": "overnightStart",
      "outputs": [],
      "payable": false,
      "stateMutability": "nonpayable",
      "type": "function"
    },
    {
      "constant": false,
      "inputs": [
        {
          "internalType": "address",
          "name": "teamAddress",
          "type": "address"
        }
      ],
      "name": "register",
      "outputs": [],
      "payable": false,
      "stateMutability": "nonpayable",
      "type": "function"
    },
    {
      "constant": false,
      "inputs": [],
      "name": "renounceAdmin",
      "outputs": [],
      "payable": false,
      "stateMutability": "nonpayable",
      "type": "function"
    },
    {
      "constant": false,
      "inputs": [],
      "name": "renounceTeam",
      "outputs": [],
      "payable": false,
      "stateMutability": "nonpayable",
      "type": "function"
    },
    {
      "constant": false,
      "inputs": [
        {
          "internalType": "uint256",
          "name": "flag",
          "type": "uint256"
        }
      ],
      "name": "winDirectChallenge",
      "outputs": [
        {
          "internalType": "bool",
          "name": "",
          "type": "bool"
        }
      ],
      "payable": false,
      "stateMutability": "nonpayable",
      "type": "function"
    },
    {
      "constant": false,
      "inputs": [
        {
          "internalType": "uint256",
          "name": "flag",
          "type": "uint256"
        }
      ],
      "name": "winTeamChallenge",
      "outputs": [
        {
          "internalType": "bool",
          "name": "",
          "type": "bool"
        }
      ],
      "payable": false,
      "stateMutability": "nonpayable",
      "type": "function"
    }
  ],
  "bytecode": "6080604052600280546001600160a01b0319167385a8d7241ffffee7290501473a9b11bfda2ae9ff1790553480156200003757600080fd5b50604051620019ad380380620019ad833981810160405260208110156200005d57600080fd5b505162000085620000766001600160e01b036200015f16565b6001600160e01b036200016316565b620000ab6200009c6001600160e01b036200015f16565b6001600160e01b03620001b516565b600380546001600160a01b0319166001600160a01b038381169190911791829055604080516001624b1f8b60e01b031981529051929091169163ffb4e07591600480820192602092909190829003018186803b1580156200010b57600080fd5b505afa15801562000120573d6000803e3d6000fd5b505050506040513d60208110156200013757600080fd5b5051600480546001600160a01b0319166001600160a01b0390921691909117905550620002fd565b3390565b6200017e8160006200020760201b6200143d1790919060201c565b6040516001600160a01b038216907f44d6d25963f097ad14f29f06854a01f575648a1ef82f30e562ccd3889717e33990600090a250565b620001d08160016200020760201b6200143d1790919060201c565b6040516001600160a01b038216907f3f5f1db80208f0d453083a86e16909cecc1e95e2618d5d927c93ace22b8200fc90600090a250565b6200021c82826001600160e01b036200029416565b156200026f576040805162461bcd60e51b815260206004820152601f60248201527f526f6c65733a206163636f756e7420616c72656164792068617320726f6c6500604482015290519081900360640190fd5b6001600160a01b0316600090815260209190915260409020805460ff19166001179055565b60006001600160a01b038216620002dd5760405162461bcd60e51b81526004018080602001828103825260228152602001806200198b6022913960400191505060405180910390fd5b506001600160a01b03166000908152602091909152604090205460ff1690565b61167e806200030d6000396000f3fe608060405234801561001057600080fd5b50600436106100ea5760003560e01c806378591bfd1161008c578063b463a75c11610066578063b463a75c14610245578063c3c5a5471461026b578063d5d35f9514610291578063d9a431b3146102ae576100ea565b806378591bfd146102035780638bad0c0a14610220578063a5c6a02214610228576100ea565b8063561675e1116100c8578063561675e114610177578063612b75431461019457806370480275146101c057806376a9e7b3146101e6576100ea565b806324851914146100ef57806324d7806c146101295780634420e4861461014f575b600080fd5b6101156004803603602081101561010557600080fd5b50356001600160a01b03166102b6565b604080519115158252519081900360200190f35b6101156004803603602081101561013f57600080fd5b50356001600160a01b03166102d1565b6101756004803603602081101561016557600080fd5b50356001600160a01b03166102e3565b005b6101156004803603602081101561018d57600080fd5b5035610467565b610175600480360360408110156101aa57600080fd5b506001600160a01b038135169060200135610764565b610175600480360360208110156101d657600080fd5b50356001600160a01b03166108cc565b610175600480360360208110156101fc57600080fd5b5035610923565b6101156004803603602081101561021957600080fd5b5035610a6b565b610175610c97565b6101756004803603602081101561023e57600080fd5b5035610ca9565b6101756004803603602081101561025b57600080fd5b50356001600160a01b0316610e91565b6101156004803603602081101561028157600080fd5b50356001600160a01b0316610ee0565b610175600480360360208110156102a757600080fd5b5035610f3b565b610175611181565b60006102c960018363ffffffff61119116565b90505b919050565b60006102c9818363ffffffff61119116565b6000805b60055481101561033057826001600160a01b03166005828154811061030857fe5b6000918252602090912001546001600160a01b0316141561032857600191505b6001016102e7565b508015610384576040805162461bcd60e51b815260206004820152601a60248201527f596f7527726520616c726561647920726567697374657265642e000000000000604482015290519081900360640190fd5b600580546001810182556000919091527f036b6384b5eca791c62761152d0c79bb0604c104a5fb6f4eb0703f3154bb3db00180546001600160a01b0319166001600160a01b0384161790556103d8826102b6565b6103e5576103e582610e91565b6005546003101561042f576040805162461bcd60e51b815260206004820152600f60248201526e2a37b79036b0b73c903a32b0b6b99760891b604482015290519081900360640190fd5b6040516001600160a01b038316907f2d3734a8e47ac8316e500ac231c90a6e1848ca2285f40d07eaa52005e4b3a0e990600090a25050565b60006104796104746111f8565b6102b6565b6104b45760405162461bcd60e51b815260040180806020018281038252602c81526020018061161e602c913960400191505060405180910390fd5b600480546040805163079cc67960e41b8152339381019390935268056bc75e2d631000006024840152516000926001600160a01b03909216916379cc6790916044808301928692919082900301818387803b15801561051257600080fd5b505af1158015610526573d6000803e3d6000fd5b5050506000848152601160205260409020546005014210905061075a5760008381526012602052604090205460ff16156105915760405162461bcd60e51b81526004018080602001828103825260238152602001806115fb6023913960400191505060405180910390fd5b61059c600e846111fc565b600f546001600160a01b03163314156106755760048054604080516340c10f1960e01b81523393810193909352685150ae84a8cdf000006024840152516001600160a01b03909116916340c10f199160448083019260209291908290030181600087803b15801561060c57600080fd5b505af1158015610620573d6000803e3d6000fd5b505050506040513d602081101561063657600080fd5b5050604051685150ae84a8cdf0000090849033907ffa5c135de8c72e98296cdf12890ca8b3682f079fbb46849f6f549372f634802990600090a4610737565b60048054604080516340c10f1960e01b81523393810193909352683635c9adc5dea000006024840152516001600160a01b03909116916340c10f199160448083019260209291908290030181600087803b1580156106d257600080fd5b505af11580156106e6573d6000803e3d6000fd5b505050506040513d60208110156106fc57600080fd5b5050604051683635c9adc5dea0000090849033907ffa5c135de8c72e98296cdf12890ca8b3682f079fbb46849f6f549372f634802990600090a45b50506000818152601260205260409020805460ff191660019081179091556102cc565b60009150506102cc565b61076f600982611290565b336001600160a01b03831614156107cd576040805162461bcd60e51b815260206004820181905260248201527f54686520616464726573736573206d75737420626520646966666572656e742e604482015290519081900360640190fd5b6000818152600d60209081526040808320429055600a80546001600160a01b031990811633178255600b80546001600160a01b0389811691909316178155600c855294839020805460ff1916905593549054825186815292519185169416927fed4685cef203f43449f0207532eb272e1f2de4f8a6992033ed24099f086c2106928290030190a3600480546040805163079cc67960e41b815233938101939093526802b5e3af16b18800006024840152516001600160a01b03909116916379cc679091604480830192600092919082900301818387803b1580156108b057600080fd5b505af11580156108c4573d6000803e3d6000fd5b505050505050565b6108dc6108d76111f8565b6102d1565b6109175760405162461bcd60e51b815260040180806020018281038252602e8152602001806115cd602e913960400191505060405180910390fd5b6109208161131d565b50565b61092e6108d76111f8565b6109695760405162461bcd60e51b815260040180806020018281038252602e8152602001806115cd602e913960400191505060405180910390fd5b426007556003546040805163a967119360e01b81526004810184905290516001600160a01b039092169163a9671193916024808201926020929091908290030181600087803b1580156109bb57600080fd5b505af11580156109cf573d6000803e3d6000fd5b505050506040513d60208110156109e557600080fd5b50516006556008805460ff19169055600480546040805163079cc67960e41b81523393810193909352680ad78ebc5ac62000006024840152516001600160a01b03909116916379cc679091604480830192600092919082900301818387803b158015610a5057600080fd5b505af1158015610a64573d6000803e3d6000fd5b5050505050565b600480546040805163079cc67960e41b815233938101939093526802b5e3af16b188000060248401525160009283926001600160a01b0316916379cc679091604480820192869290919082900301818387803b158015610aca57600080fd5b505af1158015610ade573d6000803e3d6000fd5b5050600a546001600160a01b031633149150819050610b075750600b546001600160a01b031633145b610b425760405162461bcd60e51b81526004018080602001828103825260348152602001806115996034913960400191505060405180910390fd5b6000838152600d6020526040902054600501421061075a576000838152600c602052604090205460ff1615610ba85760405162461bcd60e51b81526004018080602001828103825260238152602001806115fb6023913960400191505060405180910390fd5b610bb36009846111fc565b60048054604080516340c10f1960e01b81523393810193909352683635c9adc5dea000006024840152516001600160a01b03909116916340c10f199160448083019260209291908290030181600087803b158015610c1057600080fd5b505af1158015610c24573d6000803e3d6000fd5b505050506040513d6020811015610c3a57600080fd5b5050604051683635c9adc5dea0000090849033907f06c48e695609c5cc5b9d779d70abb26282055513fb1a55cba442b3cbc6d43bcd90600090a450506000818152600c60205260409020805460ff191660019081179091556102cc565b610ca7610ca26111f8565b611365565b565b610cb46104746111f8565b610cef5760405162461bcd60e51b815260040180806020018281038252602c81526020018061161e602c913960400191505060405180910390fd5b610cfa600e82611290565b600081815260116020908152604080832042905560129091529020805460ff19169055600554600314610d5e5760405162461bcd60e51b81526004018080602001828103825260308152602001806115266030913960400191505060405180910390fd5b60005b600554811015610dfe5760058181548110610d7857fe5b6000918252602090912001546001600160a01b0316331415610dab57600f80546001600160a01b03191633179055610df6565b601060058281548110610dba57fe5b60009182526020808320909101548354600181018555938352912090910180546001600160a01b0319166001600160a01b039092169190911790555b600101610d61565b5060408051828152905133917f3d1151f535ab57b7eefbbf3baaff50efaac64f3f0df368617499905f78cb2373919081900360200190a2600480546040805163079cc67960e41b8152339381019390935268056bc75e2d631000006024840152516001600160a01b03909116916379cc679091604480830192600092919082900301818387803b158015610a5057600080fd5b610e9c6104746111f8565b610ed75760405162461bcd60e51b815260040180806020018281038252602c81526020018061161e602c913960400191505060405180910390fd5b610920816113ad565b6000805b600554811015610f3257826001600160a01b031660058281548110610f0557fe5b6000918252602090912001546001600160a01b03161415610f2a5760019150506102cc565b600101610ee4565b50600092915050565b6006548114610f83576040805162461bcd60e51b815260206004820152600f60248201526e2bb937b7339034b210383934b1b29760891b604482015290519081900360640190fd5b60075442118015610f985750600754603c0142105b156110b05760085460ff1615610fdf5760405162461bcd60e51b81526004018080602001828103825260238152602001806115fb6023913960400191505060405180910390fd5b60048054604080516340c10f1960e01b8152339381019390935268410d586a20a4c000006024840152516001600160a01b03909116916340c10f199160448083019260209291908290030181600087803b15801561103c57600080fd5b505af1158015611050573d6000803e3d6000fd5b505050506040513d602081101561106657600080fd5b50506008805460ff1916600117905560405168410d586a20a4c000009033907f75e44bccb8e953f3228b7bde1dc2a77ac72025aa92a8a329378d26b4f4e1a86090600090a3610920565b60048054600254604080516340c10f1960e01b81526001600160a01b0392831694810194909452686c6b935b8bbd4000006024850152519116916340c10f199160448083019260209291908290030181600087803b15801561111157600080fd5b505af1158015611125573d6000803e3d6000fd5b505050506040513d602081101561113b57600080fd5b5050600254604051686c6b935b8bbd400000916001600160a01b0316907f75e44bccb8e953f3228b7bde1dc2a77ac72025aa92a8a329378d26b4f4e1a86090600090a350565b610ca761118c6111f8565b6113f5565b60006001600160a01b0382166111d85760405162461bcd60e51b81526004018080602001828103825260228152602001806115776022913960400191505060405180910390fd5b506001600160a01b03166000908152602091909152604090205460ff1690565b3390565b6000805b8354811015611238578284828154811061121657fe5b906000526020600020015414156112305760019150611238565b600101611200565b508061128b576040805162461bcd60e51b815260206004820152601860248201527f436f756c646e27742066696e642079756f7220666c6167210000000000000000604482015290519081900360640190fd5b505050565b60005b825481101561130457818382815481106112a957fe5b906000526020600020015414156112fc576040805162461bcd60e51b8152602060048201526012602482015271466c616720616c726561647920757365642160701b604482015290519081900360640190fd5b600101611293565b5081546001810183556000928352602090922090910155565b61132e60008263ffffffff61143d16565b6040516001600160a01b038216907f44d6d25963f097ad14f29f06854a01f575648a1ef82f30e562ccd3889717e33990600090a250565b61137660008263ffffffff6114be16565b6040516001600160a01b038216907fa3b62bc36326052d97ea62d63c3d60308ed4c3ea8ac079dd8499f1e9c4f80c0f90600090a250565b6113be60018263ffffffff61143d16565b6040516001600160a01b038216907f3f5f1db80208f0d453083a86e16909cecc1e95e2618d5d927c93ace22b8200fc90600090a250565b61140660018263ffffffff6114be16565b6040516001600160a01b038216907f26b6063d78aefcf96f02ff06bc9822b5a623278253add7fffa5fb453db39981090600090a250565b6114478282611191565b15611499576040805162461bcd60e51b815260206004820152601f60248201527f526f6c65733a206163636f756e7420616c72656164792068617320726f6c6500604482015290519081900360640190fd5b6001600160a01b0316600090815260209190915260409020805460ff19166001179055565b6114c88282611191565b6115035760405162461bcd60e51b81526004018080602001828103825260218152602001806115566021913960400191505060405180910390fd5b6001600160a01b0316600090815260209190915260409020805460ff1916905556fe4368616c6c656e67652063616e277420737461727420756e74696c20616c6c207465616d73207265676974657265642e526f6c65733a206163636f756e7420646f6573206e6f74206861766520726f6c65526f6c65733a206163636f756e7420697320746865207a65726f2061646472657373596f75206d7573742062652065697468657220746865206368616c6c656e676572206f7220746865206368616c6c656e6765642e41646d696e526f6c653a2063616c6c657220646f6573206e6f742068617665207468652041646d696e20726f6c65546865206368616c6c656e67652068617320616c7265616479206265656e20776f6e2e5465616d526f6c653a2063616c6c657220646f6573206e6f74206861766520746865205465616d20726f6c65a265627a7a723158206878c798f7a39b06201907323853bc51439f4f4b5b2b309dffc1f58df5c2aef964736f6c63430005110032526f6c65733a206163636f756e7420697320746865207a65726f2061646472657373",
  "bytecodeSha1": "da39a3ee5e6b4b0d3255bfef95601890afd80709",
  "compiler": {
    "evm_version": "istanbul",
    "optimizer": {
      "enabled": true,
      "runs": 200
    },
    "version": "0.5.17"
  },
  "contractName": "token_challenge",
  "language": "Solidity",
  "natspec": {
    "methods": {}
  },
  "opcodes": "PUSH1 0x80 PUSH1 0x40 MSTORE CALLVALUE DUP1 ISZERO PUSH2 0x10 JUMPI PUSH1 0x0 DUP1 REVERT JUMPDEST POP PUSH1 0x4 CALLDATASIZE LT PUSH2 0xEA JUMPI PUSH1 0x0 CALLDATALOAD PUSH1 0xE0 SHR DUP1 PUSH4 0x78591BFD GT PUSH2 0x8C JUMPI DUP1 PUSH4 0xB463A75C GT PUSH2 0x66 JUMPI DUP1 PUSH4 0xB463A75C EQ PUSH2 0x245 JUMPI DUP1 PUSH4 0xC3C5A547 EQ PUSH2 0x26B JUMPI DUP1 PUSH4 0xD5D35F95 EQ PUSH2 0x291 JUMPI DUP1 PUSH4 0xD9A431B3 EQ PUSH2 0x2AE JUMPI PUSH2 0xEA JUMP JUMPDEST DUP1 PUSH4 0x78591BFD EQ PUSH2 0x203 JUMPI DUP1 PUSH4 0x8BAD0C0A EQ PUSH2 0x220 JUMPI DUP1 PUSH4 0xA5C6A022 EQ PUSH2 0x228 JUMPI PUSH2 0xEA JUMP JUMPDEST DUP1 PUSH4 0x561675E1 GT PUSH2 0xC8 JUMPI DUP1 PUSH4 0x561675E1 EQ PUSH2 0x177 JUMPI DUP1 PUSH4 0x612B7543 EQ PUSH2 0x194 JUMPI DUP1 PUSH4 0x70480275 EQ PUSH2 0x1C0 JUMPI DUP1 PUSH4 0x76A9E7B3 EQ PUSH2 0x1E6 JUMPI PUSH2 0xEA JUMP JUMPDEST DUP1 PUSH4 0x24851914 EQ PUSH2 0xEF JUMPI DUP1 PUSH4 0x24D7806C EQ PUSH2 0x129 JUMPI DUP1 PUSH4 0x4420E486 EQ PUSH2 0x14F JUMPI JUMPDEST PUSH1 0x0 DUP1 REVERT JUMPDEST PUSH2 0x115 PUSH1 0x4 DUP1 CALLDATASIZE SUB PUSH1 0x20 DUP2 LT ISZERO PUSH2 0x105 JUMPI PUSH1 0x0 DUP1 REVERT JUMPDEST POP CALLDATALOAD PUSH1 0x1 PUSH1 0x1 PUSH1 0xA0 SHL SUB AND PUSH2 0x2B6 JUMP JUMPDEST PUSH1 0x40 DUP1 MLOAD SWAP2 ISZERO ISZERO DUP3 MSTORE MLOAD SWAP1 DUP2 SWAP1 SUB PUSH1 0x20 ADD SWAP1 RETURN JUMPDEST PUSH2 0x115 PUSH1 0x4 DUP1 CALLDATASIZE SUB PUSH1 0x20 DUP2 LT ISZERO PUSH2 0x13F JUMPI PUSH1 0x0 DUP1 REVERT JUMPDEST POP CALLDATALOAD PUSH1 0x1 PUSH1 0x1 PUSH1 0xA0 SHL SUB AND PUSH2 0x2D1 JUMP JUMPDEST PUSH2 0x175 PUSH1 0x4 DUP1 CALLDATASIZE SUB PUSH1 0x20 DUP2 LT ISZERO PUSH2 0x165 JUMPI PUSH1 0x0 DUP1 REVERT JUMPDEST POP CALLDATALOAD PUSH1 0x1 PUSH1 0x1 PUSH1 0xA0 SHL SUB AND PUSH2 0x2E3 JUMP JUMPDEST STOP JUMPDEST PUSH2 0x115 PUSH1 0x4 DUP1 CALLDATASIZE SUB PUSH1 0x20 DUP2 LT ISZERO PUSH2 0x18D JUMPI PUSH1 0x0 DUP1 REVERT JUMPDEST POP CALLDATALOAD PUSH2 0x467 JUMP JUMPDEST PUSH2 0x175 PUSH1 0x4 DUP1 CALLDATASIZE SUB PUSH1 0x40 DUP2 LT ISZERO PUSH2 0x1AA JUMPI PUSH1 0x0 DUP1 REVERT JUMPDEST POP PUSH1 0x1 PUSH1 0x1 PUSH1 0xA0 SHL SUB DUP2 CALLDATALOAD AND SWAP1 PUSH1 0x20 ADD CALLDATALOAD PUSH2 0x764 JUMP JUMPDEST PUSH2 0x175 PUSH1 0x4 DUP1 CALLDATASIZE SUB PUSH1 0x20 DUP2 LT ISZERO PUSH2 0x1D6 JUMPI PUSH1 0x0 DUP1 REVERT JUMPDEST POP CALLDATALOAD PUSH1 0x1 PUSH1 0x1 PUSH1 0xA0 SHL SUB AND PUSH2 0x8CC JUMP JUMPDEST PUSH2 0x175 PUSH1 0x4 DUP1 CALLDATASIZE SUB PUSH1 0x20 DUP2 LT ISZERO PUSH2 0x1FC JUMPI PUSH1 0x0 DUP1 REVERT JUMPDEST POP CALLDATALOAD PUSH2 0x923 JUMP JUMPDEST PUSH2 0x115 PUSH1 0x4 DUP1 CALLDATASIZE SUB PUSH1 0x20 DUP2 LT ISZERO PUSH2 0x219 JUMPI PUSH1 0x0 DUP1 REVERT JUMPDEST POP CALLDATALOAD PUSH2 0xA6B JUMP JUMPDEST PUSH2 0x175 PUSH2 0xC97 JUMP JUMPDEST PUSH2 0x175 PUSH1 0x4 DUP1 CALLDATASIZE SUB PUSH1 0x20 DUP2 LT ISZERO PUSH2 0x23E JUMPI PUSH1 0x0 DUP1 REVERT JUMPDEST POP CALLDATALOAD PUSH2 0xCA9 JUMP JUMPDEST PUSH2 0x175 PUSH1 0x4 DUP1 CALLDATASIZE SUB PUSH1 0x20 DUP2 LT ISZERO PUSH2 0x25B JUMPI PUSH1 0x0 DUP1 REVERT JUMPDEST POP CALLDATALOAD PUSH1 0x1 PUSH1 0x1 PUSH1 0xA0 SHL SUB AND PUSH2 0xE91 JUMP JUMPDEST PUSH2 0x115 PUSH1 0x4 DUP1 CALLDATASIZE SUB PUSH1 0x20 DUP2 LT ISZERO PUSH2 0x281 JUMPI PUSH1 0x0 DUP1 REVERT JUMPDEST POP CALLDATALOAD PUSH1 0x1 PUSH1 0x1 PUSH1 0xA0 SHL SUB AND PUSH2 0xEE0 JUMP JUMPDEST PUSH2 0x175 PUSH1 0x4 DUP1 CALLDATASIZE SUB PUSH1 0x20 DUP2 LT ISZERO PUSH2 0x2A7 JUMPI PUSH1 0x0 DUP1 REVERT JUMPDEST POP CALLDATALOAD PUSH2 0xF3B JUMP JUMPDEST PUSH2 0x175 PUSH2 0x1181 JUMP JUMPDEST PUSH1 0x0 PUSH2 0x2C9 PUSH1 0x1 DUP4 PUSH4 0xFFFFFFFF PUSH2 0x1191 AND JUMP JUMPDEST SWAP1 POP JUMPDEST SWAP2 SWAP1 POP JUMP JUMPDEST PUSH1 0x0 PUSH2 0x2C9 DUP2 DUP4 PUSH4 0xFFFFFFFF PUSH2 0x1191 AND JUMP JUMPDEST PUSH1 0x0 DUP1 JUMPDEST PUSH1 0x5 SLOAD DUP2 LT ISZERO PUSH2 0x330 JUMPI DUP3 PUSH1 0x1 PUSH1 0x1 PUSH1 0xA0 SHL SUB AND PUSH1 0x5 DUP3 DUP2 SLOAD DUP2 LT PUSH2 0x308 JUMPI INVALID JUMPDEST PUSH1 0x0 SWAP2 DUP3 MSTORE PUSH1 0x20 SWAP1 SWAP2 KECCAK256 ADD SLOAD PUSH1 0x1 PUSH1 0x1 PUSH1 0xA0 SHL SUB AND EQ ISZERO PUSH2 0x328 JUMPI PUSH1 0x1 SWAP2 POP JUMPDEST PUSH1 0x1 ADD PUSH2 0x2E7 JUMP JUMPDEST POP DUP1 ISZERO PUSH2 0x384 JUMPI PUSH1 0x40 DUP1 MLOAD PUSH3 0x461BCD PUSH1 0xE5 SHL DUP2 MSTORE PUSH1 0x20 PUSH1 0x4 DUP3 ADD MSTORE PUSH1 0x1A PUSH1 0x24 DUP3 ADD MSTORE PUSH32 0x596F7527726520616C726561647920726567697374657265642E000000000000 PUSH1 0x44 DUP3 ADD MSTORE SWAP1 MLOAD SWAP1 DUP2 SWAP1 SUB PUSH1 0x64 ADD SWAP1 REVERT JUMPDEST PUSH1 0x5 DUP1 SLOAD PUSH1 0x1 DUP2 ADD DUP3 SSTORE PUSH1 0x0 SWAP2 SWAP1 SWAP2 MSTORE PUSH32 0x36B6384B5ECA791C62761152D0C79BB0604C104A5FB6F4EB0703F3154BB3DB0 ADD DUP1 SLOAD PUSH1 0x1 PUSH1 0x1 PUSH1 0xA0 SHL SUB NOT AND PUSH1 0x1 PUSH1 0x1 PUSH1 0xA0 SHL SUB DUP5 AND OR SWAP1 SSTORE PUSH2 0x3D8 DUP3 PUSH2 0x2B6 JUMP JUMPDEST PUSH2 0x3E5 JUMPI PUSH2 0x3E5 DUP3 PUSH2 0xE91 JUMP JUMPDEST PUSH1 0x5 SLOAD PUSH1 0x3 LT ISZERO PUSH2 0x42F JUMPI PUSH1 0x40 DUP1 MLOAD PUSH3 0x461BCD PUSH1 0xE5 SHL DUP2 MSTORE PUSH1 0x20 PUSH1 0x4 DUP3 ADD MSTORE PUSH1 0xF PUSH1 0x24 DUP3 ADD MSTORE PUSH15 0x2A37B79036B0B73C903A32B0B6B997 PUSH1 0x89 SHL PUSH1 0x44 DUP3 ADD MSTORE SWAP1 MLOAD SWAP1 DUP2 SWAP1 SUB PUSH1 0x64 ADD SWAP1 REVERT JUMPDEST PUSH1 0x40 MLOAD PUSH1 0x1 PUSH1 0x1 PUSH1 0xA0 SHL SUB DUP4 AND SWAP1 PUSH32 0x2D3734A8E47AC8316E500AC231C90A6E1848CA2285F40D07EAA52005E4B3A0E9 SWAP1 PUSH1 0x0 SWAP1 LOG2 POP POP JUMP JUMPDEST PUSH1 0x0 PUSH2 0x479 PUSH2 0x474 PUSH2 0x11F8 JUMP JUMPDEST PUSH2 0x2B6 JUMP JUMPDEST PUSH2 0x4B4 JUMPI PUSH1 0x40 MLOAD PUSH3 0x461BCD PUSH1 0xE5 SHL DUP2 MSTORE PUSH1 0x4 ADD DUP1 DUP1 PUSH1 0x20 ADD DUP3 DUP2 SUB DUP3 MSTORE PUSH1 0x2C DUP2 MSTORE PUSH1 0x20 ADD DUP1 PUSH2 0x161E PUSH1 0x2C SWAP2 CODECOPY PUSH1 0x40 ADD SWAP2 POP POP PUSH1 0x40 MLOAD DUP1 SWAP2 SUB SWAP1 REVERT JUMPDEST PUSH1 0x4 DUP1 SLOAD PUSH1 0x40 DUP1 MLOAD PUSH4 0x79CC679 PUSH1 0xE4 SHL DUP2 MSTORE CALLER SWAP4 DUP2 ADD SWAP4 SWAP1 SWAP4 MSTORE PUSH9 0x56BC75E2D63100000 PUSH1 0x24 DUP5 ADD MSTORE MLOAD PUSH1 0x0 SWAP3 PUSH1 0x1 PUSH1 0x1 PUSH1 0xA0 SHL SUB SWAP1 SWAP3 AND SWAP2 PUSH4 0x79CC6790 SWAP2 PUSH1 0x44 DUP1 DUP4 ADD SWAP3 DUP7 SWAP3 SWAP2 SWAP1 DUP3 SWAP1 SUB ADD DUP2 DUP4 DUP8 DUP1 EXTCODESIZE ISZERO DUP1 ISZERO PUSH2 0x512 JUMPI PUSH1 0x0 DUP1 REVERT JUMPDEST POP GAS CALL ISZERO DUP1 ISZERO PUSH2 0x526 JUMPI RETURNDATASIZE PUSH1 0x0 DUP1 RETURNDATACOPY RETURNDATASIZE PUSH1 0x0 REVERT JUMPDEST POP POP POP PUSH1 0x0 DUP5 DUP2 MSTORE PUSH1 0x11 PUSH1 0x20 MSTORE PUSH1 0x40 SWAP1 KECCAK256 SLOAD PUSH1 0x5 ADD TIMESTAMP LT SWAP1 POP PUSH2 0x75A JUMPI PUSH1 0x0 DUP4 DUP2 MSTORE PUSH1 0x12 PUSH1 0x20 MSTORE PUSH1 0x40 SWAP1 KECCAK256 SLOAD PUSH1 0xFF AND ISZERO PUSH2 0x591 JUMPI PUSH1 0x40 MLOAD PUSH3 0x461BCD PUSH1 0xE5 SHL DUP2 MSTORE PUSH1 0x4 ADD DUP1 DUP1 PUSH1 0x20 ADD DUP3 DUP2 SUB DUP3 MSTORE PUSH1 0x23 DUP2 MSTORE PUSH1 0x20 ADD DUP1 PUSH2 0x15FB PUSH1 0x23 SWAP2 CODECOPY PUSH1 0x40 ADD SWAP2 POP POP PUSH1 0x40 MLOAD DUP1 SWAP2 SUB SWAP1 REVERT JUMPDEST PUSH2 0x59C PUSH1 0xE DUP5 PUSH2 0x11FC JUMP JUMPDEST PUSH1 0xF SLOAD PUSH1 0x1 PUSH1 0x1 PUSH1 0xA0 SHL SUB AND CALLER EQ ISZERO PUSH2 0x675 JUMPI PUSH1 0x4 DUP1 SLOAD PUSH1 0x40 DUP1 MLOAD PUSH4 0x40C10F19 PUSH1 0xE0 SHL DUP2 MSTORE CALLER SWAP4 DUP2 ADD SWAP4 SWAP1 SWAP4 MSTORE PUSH9 0x5150AE84A8CDF00000 PUSH1 0x24 DUP5 ADD MSTORE MLOAD PUSH1 0x1 PUSH1 0x1 PUSH1 0xA0 SHL SUB SWAP1 SWAP2 AND SWAP2 PUSH4 0x40C10F19 SWAP2 PUSH1 0x44 DUP1 DUP4 ADD SWAP3 PUSH1 0x20 SWAP3 SWAP2 SWAP1 DUP3 SWAP1 SUB ADD DUP2 PUSH1 0x0 DUP8 DUP1 EXTCODESIZE ISZERO DUP1 ISZERO PUSH2 0x60C JUMPI PUSH1 0x0 DUP1 REVERT JUMPDEST POP GAS CALL ISZERO DUP1 ISZERO PUSH2 0x620 JUMPI RETURNDATASIZE PUSH1 0x0 DUP1 RETURNDATACOPY RETURNDATASIZE PUSH1 0x0 REVERT JUMPDEST POP POP POP POP PUSH1 0x40 MLOAD RETURNDATASIZE PUSH1 0x20 DUP2 LT ISZERO PUSH2 0x636 JUMPI PUSH1 0x0 DUP1 REVERT JUMPDEST POP POP PUSH1 0x40 MLOAD PUSH9 0x5150AE84A8CDF00000 SWAP1 DUP5 SWAP1 CALLER SWAP1 PUSH32 0xFA5C135DE8C72E98296CDF12890CA8B3682F079FBB46849F6F549372F6348029 SWAP1 PUSH1 0x0 SWAP1 LOG4 PUSH2 0x737 JUMP JUMPDEST PUSH1 0x4 DUP1 SLOAD PUSH1 0x40 DUP1 MLOAD PUSH4 0x40C10F19 PUSH1 0xE0 SHL DUP2 MSTORE CALLER SWAP4 DUP2 ADD SWAP4 SWAP1 SWAP4 MSTORE PUSH9 0x3635C9ADC5DEA00000 PUSH1 0x24 DUP5 ADD MSTORE MLOAD PUSH1 0x1 PUSH1 0x1 PUSH1 0xA0 SHL SUB SWAP1 SWAP2 AND SWAP2 PUSH4 0x40C10F19 SWAP2 PUSH1 0x44 DUP1 DUP4 ADD SWAP3 PUSH1 0x20 SWAP3 SWAP2 SWAP1 DUP3 SWAP1 SUB ADD DUP2 PUSH1 0x0 DUP8 DUP1 EXTCODESIZE ISZERO DUP1 ISZERO PUSH2 0x6D2 JUMPI PUSH1 0x0 DUP1 REVERT JUMPDEST POP GAS CALL ISZERO DUP1 ISZERO PUSH2 0x6E6 JUMPI RETURNDATASIZE PUSH1 0x0 DUP1 RETURNDATACOPY RETURNDATASIZE PUSH1 0x0 REVERT JUMPDEST POP POP POP POP PUSH1 0x40 MLOAD RETURNDATASIZE PUSH1 0x20 DUP2 LT ISZERO PUSH2 0x6FC JUMPI PUSH1 0x0 DUP1 REVERT JUMPDEST POP POP PUSH1 0x40 MLOAD PUSH9 0x3635C9ADC5DEA00000 SWAP1 DUP5 SWAP1 CALLER SWAP1 PUSH32 0xFA5C135DE8C72E98296CDF12890CA8B3682F079FBB46849F6F549372F6348029 SWAP1 PUSH1 0x0 SWAP1 LOG4 JUMPDEST POP POP PUSH1 0x0 DUP2 DUP2 MSTORE PUSH1 0x12 PUSH1 0x20 MSTORE PUSH1 0x40 SWAP1 KECCAK256 DUP1 SLOAD PUSH1 0xFF NOT AND PUSH1 0x1 SWAP1 DUP2 OR SWAP1 SWAP2 SSTORE PUSH2 0x2CC JUMP JUMPDEST PUSH1 0x0 SWAP2 POP POP PUSH2 0x2CC JUMP JUMPDEST PUSH2 0x76F PUSH1 0x9 DUP3 PUSH2 0x1290 JUMP JUMPDEST CALLER PUSH1 0x1 PUSH1 0x1 PUSH1 0xA0 SHL SUB DUP4 AND EQ ISZERO PUSH2 0x7CD JUMPI PUSH1 0x40 DUP1 MLOAD PUSH3 0x461BCD PUSH1 0xE5 SHL DUP2 MSTORE PUSH1 0x20 PUSH1 0x4 DUP3 ADD DUP2 SWAP1 MSTORE PUSH1 0x24 DUP3 ADD MSTORE PUSH32 0x54686520616464726573736573206D75737420626520646966666572656E742E PUSH1 0x44 DUP3 ADD MSTORE SWAP1 MLOAD SWAP1 DUP2 SWAP1 SUB PUSH1 0x64 ADD SWAP1 REVERT JUMPDEST PUSH1 0x0 DUP2 DUP2 MSTORE PUSH1 0xD PUSH1 0x20 SWAP1 DUP2 MSTORE PUSH1 0x40 DUP1 DUP4 KECCAK256 TIMESTAMP SWAP1 SSTORE PUSH1 0xA DUP1 SLOAD PUSH1 0x1 PUSH1 0x1 PUSH1 0xA0 SHL SUB NOT SWAP1 DUP2 AND CALLER OR DUP3 SSTORE PUSH1 0xB DUP1 SLOAD PUSH1 0x1 PUSH1 0x1 PUSH1 0xA0 SHL SUB DUP10 DUP2 AND SWAP2 SWAP1 SWAP4 AND OR DUP2 SSTORE PUSH1 0xC DUP6 MSTORE SWAP5 DUP4 SWAP1 KECCAK256 DUP1 SLOAD PUSH1 0xFF NOT AND SWAP1 SSTORE SWAP4 SLOAD SWAP1 SLOAD DUP3 MLOAD DUP7 DUP2 MSTORE SWAP3 MLOAD SWAP2 DUP6 AND SWAP5 AND SWAP3 PUSH32 0xED4685CEF203F43449F0207532EB272E1F2DE4F8A6992033ED24099F086C2106 SWAP3 DUP3 SWAP1 SUB ADD SWAP1 LOG3 PUSH1 0x4 DUP1 SLOAD PUSH1 0x40 DUP1 MLOAD PUSH4 0x79CC679 PUSH1 0xE4 SHL DUP2 MSTORE CALLER SWAP4 DUP2 ADD SWAP4 SWAP1 SWAP4 MSTORE PUSH9 0x2B5E3AF16B1880000 PUSH1 0x24 DUP5 ADD MSTORE MLOAD PUSH1 0x1 PUSH1 0x1 PUSH1 0xA0 SHL SUB SWAP1 SWAP2 AND SWAP2 PUSH4 0x79CC6790 SWAP2 PUSH1 0x44 DUP1 DUP4 ADD SWAP3 PUSH1 0x0 SWAP3 SWAP2 SWAP1 DUP3 SWAP1 SUB ADD DUP2 DUP4 DUP8 DUP1 EXTCODESIZE ISZERO DUP1 ISZERO PUSH2 0x8B0 JUMPI PUSH1 0x0 DUP1 REVERT JUMPDEST POP GAS CALL ISZERO DUP1 ISZERO PUSH2 0x8C4 JUMPI RETURNDATASIZE PUSH1 0x0 DUP1 RETURNDATACOPY RETURNDATASIZE PUSH1 0x0 REVERT JUMPDEST POP POP POP POP POP POP JUMP JUMPDEST PUSH2 0x8DC PUSH2 0x8D7 PUSH2 0x11F8 JUMP JUMPDEST PUSH2 0x2D1 JUMP JUMPDEST PUSH2 0x917 JUMPI PUSH1 0x40 MLOAD PUSH3 0x461BCD PUSH1 0xE5 SHL DUP2 MSTORE PUSH1 0x4 ADD DUP1 DUP1 PUSH1 0x20 ADD DUP3 DUP2 SUB DUP3 MSTORE PUSH1 0x2E DUP2 MSTORE PUSH1 0x20 ADD DUP1 PUSH2 0x15CD PUSH1 0x2E SWAP2 CODECOPY PUSH1 0x40 ADD SWAP2 POP POP PUSH1 0x40 MLOAD DUP1 SWAP2 SUB SWAP1 REVERT JUMPDEST PUSH2 0x920 DUP2 PUSH2 0x131D JUMP JUMPDEST POP JUMP JUMPDEST PUSH2 0x92E PUSH2 0x8D7 PUSH2 0x11F8 JUMP JUMPDEST PUSH2 0x969 JUMPI PUSH1 0x40 MLOAD PUSH3 0x461BCD PUSH1 0xE5 SHL DUP2 MSTORE PUSH1 0x4 ADD DUP1 DUP1 PUSH1 0x20 ADD DUP3 DUP2 SUB DUP3 MSTORE PUSH1 0x2E DUP2 MSTORE PUSH1 0x20 ADD DUP1 PUSH2 0x15CD PUSH1 0x2E SWAP2 CODECOPY PUSH1 0x40 ADD SWAP2 POP POP PUSH1 0x40 MLOAD DUP1 SWAP2 SUB SWAP1 REVERT JUMPDEST TIMESTAMP PUSH1 0x7 SSTORE PUSH1 0x3 SLOAD PUSH1 0x40 DUP1 MLOAD PUSH4 0xA9671193 PUSH1 0xE0 SHL DUP2 MSTORE PUSH1 0x4 DUP2 ADD DUP5 SWAP1 MSTORE SWAP1 MLOAD PUSH1 0x1 PUSH1 0x1 PUSH1 0xA0 SHL SUB SWAP1 SWAP3 AND SWAP2 PUSH4 0xA9671193 SWAP2 PUSH1 0x24 DUP1 DUP3 ADD SWAP3 PUSH1 0x20 SWAP3 SWAP1 SWAP2 SWAP1 DUP3 SWAP1 SUB ADD DUP2 PUSH1 0x0 DUP8 DUP1 EXTCODESIZE ISZERO DUP1 ISZERO PUSH2 0x9BB JUMPI PUSH1 0x0 DUP1 REVERT JUMPDEST POP GAS CALL ISZERO DUP1 ISZERO PUSH2 0x9CF JUMPI RETURNDATASIZE PUSH1 0x0 DUP1 RETURNDATACOPY RETURNDATASIZE PUSH1 0x0 REVERT JUMPDEST POP POP POP POP PUSH1 0x40 MLOAD RETURNDATASIZE PUSH1 0x20 DUP2 LT ISZERO PUSH2 0x9E5 JUMPI PUSH1 0x0 DUP1 REVERT JUMPDEST POP MLOAD PUSH1 0x6 SSTORE PUSH1 0x8 DUP1 SLOAD PUSH1 0xFF NOT AND SWAP1 SSTORE PUSH1 0x4 DUP1 SLOAD PUSH1 0x40 DUP1 MLOAD PUSH4 0x79CC679 PUSH1 0xE4 SHL DUP2 MSTORE CALLER SWAP4 DUP2 ADD SWAP4 SWAP1 SWAP4 MSTORE PUSH9 0xAD78EBC5AC6200000 PUSH1 0x24 DUP5 ADD MSTORE MLOAD PUSH1 0x1 PUSH1 0x1 PUSH1 0xA0 SHL SUB SWAP1 SWAP2 AND SWAP2 PUSH4 0x79CC6790 SWAP2 PUSH1 0x44 DUP1 DUP4 ADD SWAP3 PUSH1 0x0 SWAP3 SWAP2 SWAP1 DUP3 SWAP1 SUB ADD DUP2 DUP4 DUP8 DUP1 EXTCODESIZE ISZERO DUP1 ISZERO PUSH2 0xA50 JUMPI PUSH1 0x0 DUP1 REVERT JUMPDEST POP GAS CALL ISZERO DUP1 ISZERO PUSH2 0xA64 JUMPI RETURNDATASIZE PUSH1 0x0 DUP1 RETURNDATACOPY RETURNDATASIZE PUSH1 0x0 REVERT JUMPDEST POP POP POP POP POP JUMP JUMPDEST PUSH1 0x4 DUP1 SLOAD PUSH1 0x40 DUP1 MLOAD PUSH4 0x79CC679 PUSH1 0xE4 SHL DUP2 MSTORE CALLER SWAP4 DUP2 ADD SWAP4 SWAP1 SWAP4 MSTORE PUSH9 0x2B5E3AF16B1880000 PUSH1 0x24 DUP5 ADD MSTORE MLOAD PUSH1 0x0 SWAP3 DUP4 SWAP3 PUSH1 0x1 PUSH1 0x1 PUSH1 0xA0 SHL SUB AND SWAP2 PUSH4 0x79CC6790 SWAP2 PUSH1 0x44 DUP1 DUP3 ADD SWAP3 DUP7 SWAP3 SWAP1 SWAP2 SWAP1 DUP3 SWAP1 SUB ADD DUP2 DUP4 DUP8 DUP1 EXTCODESIZE ISZERO DUP1 ISZERO PUSH2 0xACA JUMPI PUSH1 0x0 DUP1 REVERT JUMPDEST POP GAS CALL ISZERO DUP1 ISZERO PUSH2 0xADE JUMPI RETURNDATASIZE PUSH1 0x0 DUP1 RETURNDATACOPY RETURNDATASIZE PUSH1 0x0 REVERT JUMPDEST POP POP PUSH1 0xA SLOAD PUSH1 0x1 PUSH1 0x1 PUSH1 0xA0 SHL SUB AND CALLER EQ SWAP2 POP DUP2 SWAP1 POP PUSH2 0xB07 JUMPI POP PUSH1 0xB SLOAD PUSH1 0x1 PUSH1 0x1 PUSH1 0xA0 SHL SUB AND CALLER EQ JUMPDEST PUSH2 0xB42 JUMPI PUSH1 0x40 MLOAD PUSH3 0x461BCD PUSH1 0xE5 SHL DUP2 MSTORE PUSH1 0x4 ADD DUP1 DUP1 PUSH1 0x20 ADD DUP3 DUP2 SUB DUP3 MSTORE PUSH1 0x34 DUP2 MSTORE PUSH1 0x20 ADD DUP1 PUSH2 0x1599 PUSH1 0x34 SWAP2 CODECOPY PUSH1 0x40 ADD SWAP2 POP POP PUSH1 0x40 MLOAD DUP1 SWAP2 SUB SWAP1 REVERT JUMPDEST PUSH1 0x0 DUP4 DUP2 MSTORE PUSH1 0xD PUSH1 0x20 MSTORE PUSH1 0x40 SWAP1 KECCAK256 SLOAD PUSH1 0x5 ADD TIMESTAMP LT PUSH2 0x75A JUMPI PUSH1 0x0 DUP4 DUP2 MSTORE PUSH1 0xC PUSH1 0x20 MSTORE PUSH1 0x40 SWAP1 KECCAK256 SLOAD PUSH1 0xFF AND ISZERO PUSH2 0xBA8 JUMPI PUSH1 0x40 MLOAD PUSH3 0x461BCD PUSH1 0xE5 SHL DUP2 MSTORE PUSH1 0x4 ADD DUP1 DUP1 PUSH1 0x20 ADD DUP3 DUP2 SUB DUP3 MSTORE PUSH1 0x23 DUP2 MSTORE PUSH1 0x20 ADD DUP1 PUSH2 0x15FB PUSH1 0x23 SWAP2 CODECOPY PUSH1 0x40 ADD SWAP2 POP POP PUSH1 0x40 MLOAD DUP1 SWAP2 SUB SWAP1 REVERT JUMPDEST PUSH2 0xBB3 PUSH1 0x9 DUP5 PUSH2 0x11FC JUMP JUMPDEST PUSH1 0x4 DUP1 SLOAD PUSH1 0x40 DUP1 MLOAD PUSH4 0x40C10F19 PUSH1 0xE0 SHL DUP2 MSTORE CALLER SWAP4 DUP2 ADD SWAP4 SWAP1 SWAP4 MSTORE PUSH9 0x3635C9ADC5DEA00000 PUSH1 0x24 DUP5 ADD MSTORE MLOAD PUSH1 0x1 PUSH1 0x1 PUSH1 0xA0 SHL SUB SWAP1 SWAP2 AND SWAP2 PUSH4 0x40C10F19 SWAP2 PUSH1 0x44 DUP1 DUP4 ADD SWAP3 PUSH1 0x20 SWAP3 SWAP2 SWAP1 DUP3 SWAP1 SUB ADD DUP2 PUSH1 0x0 DUP8 DUP1 EXTCODESIZE ISZERO DUP1 ISZERO PUSH2 0xC10 JUMPI PUSH1 0x0 DUP1 REVERT JUMPDEST POP GAS CALL ISZERO DUP1 ISZERO PUSH2 0xC24 JUMPI RETURNDATASIZE PUSH1 0x0 DUP1 RETURNDATACOPY RETURNDATASIZE PUSH1 0x0 REVERT JUMPDEST POP POP POP POP PUSH1 0x40 MLOAD RETURNDATASIZE PUSH1 0x20 DUP2 LT ISZERO PUSH2 0xC3A JUMPI PUSH1 0x0 DUP1 REVERT JUMPDEST POP POP PUSH1 0x40 MLOAD PUSH9 0x3635C9ADC5DEA00000 SWAP1 DUP5 SWAP1 CALLER SWAP1 PUSH32 0x6C48E695609C5CC5B9D779D70ABB26282055513FB1A55CBA442B3CBC6D43BCD SWAP1 PUSH1 0x0 SWAP1 LOG4 POP POP PUSH1 0x0 DUP2 DUP2 MSTORE PUSH1 0xC PUSH1 0x20 MSTORE PUSH1 0x40 SWAP1 KECCAK256 DUP1 SLOAD PUSH1 0xFF NOT AND PUSH1 0x1 SWAP1 DUP2 OR SWAP1 SWAP2 SSTORE PUSH2 0x2CC JUMP JUMPDEST PUSH2 0xCA7 PUSH2 0xCA2 PUSH2 0x11F8 JUMP JUMPDEST PUSH2 0x1365 JUMP JUMPDEST JUMP JUMPDEST PUSH2 0xCB4 PUSH2 0x474 PUSH2 0x11F8 JUMP JUMPDEST PUSH2 0xCEF JUMPI PUSH1 0x40 MLOAD PUSH3 0x461BCD PUSH1 0xE5 SHL DUP2 MSTORE PUSH1 0x4 ADD DUP1 DUP1 PUSH1 0x20 ADD DUP3 DUP2 SUB DUP3 MSTORE PUSH1 0x2C DUP2 MSTORE PUSH1 0x20 ADD DUP1 PUSH2 0x161E PUSH1 0x2C SWAP2 CODECOPY PUSH1 0x40 ADD SWAP2 POP POP PUSH1 0x40 MLOAD DUP1 SWAP2 SUB SWAP1 REVERT JUMPDEST PUSH2 0xCFA PUSH1 0xE DUP3 PUSH2 0x1290 JUMP JUMPDEST PUSH1 0x0 DUP2 DUP2 MSTORE PUSH1 0x11 PUSH1 0x20 SWAP1 DUP2 MSTORE PUSH1 0x40 DUP1 DUP4 KECCAK256 TIMESTAMP SWAP1 SSTORE PUSH1 0x12 SWAP1 SWAP2 MSTORE SWAP1 KECCAK256 DUP1 SLOAD PUSH1 0xFF NOT AND SWAP1 SSTORE PUSH1 0x5 SLOAD PUSH1 0x3 EQ PUSH2 0xD5E JUMPI PUSH1 0x40 MLOAD PUSH3 0x461BCD PUSH1 0xE5 SHL DUP2 MSTORE PUSH1 0x4 ADD DUP1 DUP1 PUSH1 0x20 ADD DUP3 DUP2 SUB DUP3 MSTORE PUSH1 0x30 DUP2 MSTORE PUSH1 0x20 ADD DUP1 PUSH2 0x1526 PUSH1 0x30 SWAP2 CODECOPY PUSH1 0x40 ADD SWAP2 POP POP PUSH1 0x40 MLOAD DUP1 SWAP2 SUB SWAP1 REVERT JUMPDEST PUSH1 0x0 JUMPDEST PUSH1 0x5 SLOAD DUP2 LT ISZERO PUSH2 0xDFE JUMPI PUSH1 0x5 DUP2 DUP2 SLOAD DUP2 LT PUSH2 0xD78 JUMPI INVALID JUMPDEST PUSH1 0x0 SWAP2 DUP3 MSTORE PUSH1 0x20 SWAP1 SWAP2 KECCAK256 ADD SLOAD PUSH1 0x1 PUSH1 0x1 PUSH1 0xA0 SHL SUB AND CALLER EQ ISZERO PUSH2 0xDAB JUMPI PUSH1 0xF DUP1 SLOAD PUSH1 0x1 PUSH1 0x1 PUSH1 0xA0 SHL SUB NOT AND CALLER OR SWAP1 SSTORE PUSH2 0xDF6 JUMP JUMPDEST PUSH1 0x10 PUSH1 0x5 DUP3 DUP2 SLOAD DUP2 LT PUSH2 0xDBA JUMPI INVALID JUMPDEST PUSH1 0x0 SWAP2 DUP3 MSTORE PUSH1 0x20 DUP1 DUP4 KECCAK256 SWAP1 SWAP2 ADD SLOAD DUP4 SLOAD PUSH1 0x1 DUP2 ADD DUP6 SSTORE SWAP4 DUP4 MSTORE SWAP2 KECCAK256 SWAP1 SWAP2 ADD DUP1 SLOAD PUSH1 0x1 PUSH1 0x1 PUSH1 0xA0 SHL SUB NOT AND PUSH1 0x1 PUSH1 0x1 PUSH1 0xA0 SHL SUB SWAP1 SWAP3 AND SWAP2 SWAP1 SWAP2 OR SWAP1 SSTORE JUMPDEST PUSH1 0x1 ADD PUSH2 0xD61 JUMP JUMPDEST POP PUSH1 0x40 DUP1 MLOAD DUP3 DUP2 MSTORE SWAP1 MLOAD CALLER SWAP2 PUSH32 0x3D1151F535AB57B7EEFBBF3BAAFF50EFAAC64F3F0DF368617499905F78CB2373 SWAP2 SWAP1 DUP2 SWAP1 SUB PUSH1 0x20 ADD SWAP1 LOG2 PUSH1 0x4 DUP1 SLOAD PUSH1 0x40 DUP1 MLOAD PUSH4 0x79CC679 PUSH1 0xE4 SHL DUP2 MSTORE CALLER SWAP4 DUP2 ADD SWAP4 SWAP1 SWAP4 MSTORE PUSH9 0x56BC75E2D63100000 PUSH1 0x24 DUP5 ADD MSTORE MLOAD PUSH1 0x1 PUSH1 0x1 PUSH1 0xA0 SHL SUB SWAP1 SWAP2 AND SWAP2 PUSH4 0x79CC6790 SWAP2 PUSH1 0x44 DUP1 DUP4 ADD SWAP3 PUSH1 0x0 SWAP3 SWAP2 SWAP1 DUP3 SWAP1 SUB ADD DUP2 DUP4 DUP8 DUP1 EXTCODESIZE ISZERO DUP1 ISZERO PUSH2 0xA50 JUMPI PUSH1 0x0 DUP1 REVERT JUMPDEST PUSH2 0xE9C PUSH2 0x474 PUSH2 0x11F8 JUMP JUMPDEST PUSH2 0xED7 JUMPI PUSH1 0x40 MLOAD PUSH3 0x461BCD PUSH1 0xE5 SHL DUP2 MSTORE PUSH1 0x4 ADD DUP1 DUP1 PUSH1 0x20 ADD DUP3 DUP2 SUB DUP3 MSTORE PUSH1 0x2C DUP2 MSTORE PUSH1 0x20 ADD DUP1 PUSH2 0x161E PUSH1 0x2C SWAP2 CODECOPY PUSH1 0x40 ADD SWAP2 POP POP PUSH1 0x40 MLOAD DUP1 SWAP2 SUB SWAP1 REVERT JUMPDEST PUSH2 0x920 DUP2 PUSH2 0x13AD JUMP JUMPDEST PUSH1 0x0 DUP1 JUMPDEST PUSH1 0x5 SLOAD DUP2 LT ISZERO PUSH2 0xF32 JUMPI DUP3 PUSH1 0x1 PUSH1 0x1 PUSH1 0xA0 SHL SUB AND PUSH1 0x5 DUP3 DUP2 SLOAD DUP2 LT PUSH2 0xF05 JUMPI INVALID JUMPDEST PUSH1 0x0 SWAP2 DUP3 MSTORE PUSH1 0x20 SWAP1 SWAP2 KECCAK256 ADD SLOAD PUSH1 0x1 PUSH1 0x1 PUSH1 0xA0 SHL SUB AND EQ ISZERO PUSH2 0xF2A JUMPI PUSH1 0x1 SWAP2 POP POP PUSH2 0x2CC JUMP JUMPDEST PUSH1 0x1 ADD PUSH2 0xEE4 JUMP JUMPDEST POP PUSH1 0x0 SWAP3 SWAP2 POP POP JUMP JUMPDEST PUSH1 0x6 SLOAD DUP2 EQ PUSH2 0xF83 JUMPI PUSH1 0x40 DUP1 MLOAD PUSH3 0x461BCD PUSH1 0xE5 SHL DUP2 MSTORE PUSH1 0x20 PUSH1 0x4 DUP3 ADD MSTORE PUSH1 0xF PUSH1 0x24 DUP3 ADD MSTORE PUSH15 0x2BB937B7339034B210383934B1B297 PUSH1 0x89 SHL PUSH1 0x44 DUP3 ADD MSTORE SWAP1 MLOAD SWAP1 DUP2 SWAP1 SUB PUSH1 0x64 ADD SWAP1 REVERT JUMPDEST PUSH1 0x7 SLOAD TIMESTAMP GT DUP1 ISZERO PUSH2 0xF98 JUMPI POP PUSH1 0x7 SLOAD PUSH1 0x3C ADD TIMESTAMP LT JUMPDEST ISZERO PUSH2 0x10B0 JUMPI PUSH1 0x8 SLOAD PUSH1 0xFF AND ISZERO PUSH2 0xFDF JUMPI PUSH1 0x40 MLOAD PUSH3 0x461BCD PUSH1 0xE5 SHL DUP2 MSTORE PUSH1 0x4 ADD DUP1 DUP1 PUSH1 0x20 ADD DUP3 DUP2 SUB DUP3 MSTORE PUSH1 0x23 DUP2 MSTORE PUSH1 0x20 ADD DUP1 PUSH2 0x15FB PUSH1 0x23 SWAP2 CODECOPY PUSH1 0x40 ADD SWAP2 POP POP PUSH1 0x40 MLOAD DUP1 SWAP2 SUB SWAP1 REVERT JUMPDEST PUSH1 0x4 DUP1 SLOAD PUSH1 0x40 DUP1 MLOAD PUSH4 0x40C10F19 PUSH1 0xE0 SHL DUP2 MSTORE CALLER SWAP4 DUP2 ADD SWAP4 SWAP1 SWAP4 MSTORE PUSH9 0x410D586A20A4C00000 PUSH1 0x24 DUP5 ADD MSTORE MLOAD PUSH1 0x1 PUSH1 0x1 PUSH1 0xA0 SHL SUB SWAP1 SWAP2 AND SWAP2 PUSH4 0x40C10F19 SWAP2 PUSH1 0x44 DUP1 DUP4 ADD SWAP3 PUSH1 0x20 SWAP3 SWAP2 SWAP1 DUP3 SWAP1 SUB ADD DUP2 PUSH1 0x0 DUP8 DUP1 EXTCODESIZE ISZERO DUP1 ISZERO PUSH2 0x103C JUMPI PUSH1 0x0 DUP1 REVERT JUMPDEST POP GAS CALL ISZERO DUP1 ISZERO PUSH2 0x1050 JUMPI RETURNDATASIZE PUSH1 0x0 DUP1 RETURNDATACOPY RETURNDATASIZE PUSH1 0x0 REVERT JUMPDEST POP POP POP POP PUSH1 0x40 MLOAD RETURNDATASIZE PUSH1 0x20 DUP2 LT ISZERO PUSH2 0x1066 JUMPI PUSH1 0x0 DUP1 REVERT JUMPDEST POP POP PUSH1 0x8 DUP1 SLOAD PUSH1 0xFF NOT AND PUSH1 0x1 OR SWAP1 SSTORE PUSH1 0x40 MLOAD PUSH9 0x410D586A20A4C00000 SWAP1 CALLER SWAP1 PUSH32 0x75E44BCCB8E953F3228B7BDE1DC2A77AC72025AA92A8A329378D26B4F4E1A860 SWAP1 PUSH1 0x0 SWAP1 LOG3 PUSH2 0x920 JUMP JUMPDEST PUSH1 0x4 DUP1 SLOAD PUSH1 0x2 SLOAD PUSH1 0x40 DUP1 MLOAD PUSH4 0x40C10F19 PUSH1 0xE0 SHL DUP2 MSTORE PUSH1 0x1 PUSH1 0x1 PUSH1 0xA0 SHL SUB SWAP3 DUP4 AND SWAP5 DUP2 ADD SWAP5 SWAP1 SWAP5 MSTORE PUSH9 0x6C6B935B8BBD400000 PUSH1 0x24 DUP6 ADD MSTORE MLOAD SWAP2 AND SWAP2 PUSH4 0x40C10F19 SWAP2 PUSH1 0x44 DUP1 DUP4 ADD SWAP3 PUSH1 0x20 SWAP3 SWAP2 SWAP1 DUP3 SWAP1 SUB ADD DUP2 PUSH1 0x0 DUP8 DUP1 EXTCODESIZE ISZERO DUP1 ISZERO PUSH2 0x1111 JUMPI PUSH1 0x0 DUP1 REVERT JUMPDEST POP GAS CALL ISZERO DUP1 ISZERO PUSH2 0x1125 JUMPI RETURNDATASIZE PUSH1 0x0 DUP1 RETURNDATACOPY RETURNDATASIZE PUSH1 0x0 REVERT JUMPDEST POP POP POP POP PUSH1 0x40 MLOAD RETURNDATASIZE PUSH1 0x20 DUP2 LT ISZERO PUSH2 0x113B JUMPI PUSH1 0x0 DUP1 REVERT JUMPDEST POP POP PUSH1 0x2 SLOAD PUSH1 0x40 MLOAD PUSH9 0x6C6B935B8BBD400000 SWAP2 PUSH1 0x1 PUSH1 0x1 PUSH1 0xA0 SHL SUB AND SWAP1 PUSH32 0x75E44BCCB8E953F3228B7BDE1DC2A77AC72025AA92A8A329378D26B4F4E1A860 SWAP1 PUSH1 0x0 SWAP1 LOG3 POP JUMP JUMPDEST PUSH2 0xCA7 PUSH2 0x118C PUSH2 0x11F8 JUMP JUMPDEST PUSH2 0x13F5 JUMP JUMPDEST PUSH1 0x0 PUSH1 0x1 PUSH1 0x1 PUSH1 0xA0 SHL SUB DUP3 AND PUSH2 0x11D8 JUMPI PUSH1 0x40 MLOAD PUSH3 0x461BCD PUSH1 0xE5 SHL DUP2 MSTORE PUSH1 0x4 ADD DUP1 DUP1 PUSH1 0x20 ADD DUP3 DUP2 SUB DUP3 MSTORE PUSH1 0x22 DUP2 MSTORE PUSH1 0x20 ADD DUP1 PUSH2 0x1577 PUSH1 0x22 SWAP2 CODECOPY PUSH1 0x40 ADD SWAP2 POP POP PUSH1 0x40 MLOAD DUP1 SWAP2 SUB SWAP1 REVERT JUMPDEST POP PUSH1 0x1 PUSH1 0x1 PUSH1 0xA0 SHL SUB AND PUSH1 0x0 SWAP1 DUP2 MSTORE PUSH1 0x20 SWAP2 SWAP1 SWAP2 MSTORE PUSH1 0x40 SWAP1 KECCAK256 SLOAD PUSH1 0xFF AND SWAP1 JUMP JUMPDEST CALLER SWAP1 JUMP JUMPDEST PUSH1 0x0 DUP1 JUMPDEST DUP4 SLOAD DUP2 LT ISZERO PUSH2 0x1238 JUMPI DUP3 DUP5 DUP3 DUP2 SLOAD DUP2 LT PUSH2 0x1216 JUMPI INVALID JUMPDEST SWAP1 PUSH1 0x0 MSTORE PUSH1 0x20 PUSH1 0x0 KECCAK256 ADD SLOAD EQ ISZERO PUSH2 0x1230 JUMPI PUSH1 0x1 SWAP2 POP PUSH2 0x1238 JUMP JUMPDEST PUSH1 0x1 ADD PUSH2 0x1200 JUMP JUMPDEST POP DUP1 PUSH2 0x128B JUMPI PUSH1 0x40 DUP1 MLOAD PUSH3 0x461BCD PUSH1 0xE5 SHL DUP2 MSTORE PUSH1 0x20 PUSH1 0x4 DUP3 ADD MSTORE PUSH1 0x18 PUSH1 0x24 DUP3 ADD MSTORE PUSH32 0x436F756C646E27742066696E642079756F7220666C6167210000000000000000 PUSH1 0x44 DUP3 ADD MSTORE SWAP1 MLOAD SWAP1 DUP2 SWAP1 SUB PUSH1 0x64 ADD SWAP1 REVERT JUMPDEST POP POP POP JUMP JUMPDEST PUSH1 0x0 JUMPDEST DUP3 SLOAD DUP2 LT ISZERO PUSH2 0x1304 JUMPI DUP2 DUP4 DUP3 DUP2 SLOAD DUP2 LT PUSH2 0x12A9 JUMPI INVALID JUMPDEST SWAP1 PUSH1 0x0 MSTORE PUSH1 0x20 PUSH1 0x0 KECCAK256 ADD SLOAD EQ ISZERO PUSH2 0x12FC JUMPI PUSH1 0x40 DUP1 MLOAD PUSH3 0x461BCD PUSH1 0xE5 SHL DUP2 MSTORE PUSH1 0x20 PUSH1 0x4 DUP3 ADD MSTORE PUSH1 0x12 PUSH1 0x24 DUP3 ADD MSTORE PUSH18 0x466C616720616C7265616479207573656421 PUSH1 0x70 SHL PUSH1 0x44 DUP3 ADD MSTORE SWAP1 MLOAD SWAP1 DUP2 SWAP1 SUB PUSH1 0x64 ADD SWAP1 REVERT JUMPDEST PUSH1 0x1 ADD PUSH2 0x1293 JUMP JUMPDEST POP DUP2 SLOAD PUSH1 0x1 DUP2 ADD DUP4 SSTORE PUSH1 0x0 SWAP3 DUP4 MSTORE PUSH1 0x20 SWAP1 SWAP3 KECCAK256 SWAP1 SWAP2 ADD SSTORE JUMP JUMPDEST PUSH2 0x132E PUSH1 0x0 DUP3 PUSH4 0xFFFFFFFF PUSH2 0x143D AND JUMP JUMPDEST PUSH1 0x40 MLOAD PUSH1 0x1 PUSH1 0x1 PUSH1 0xA0 SHL SUB DUP3 AND SWAP1 PUSH32 0x44D6D25963F097AD14F29F06854A01F575648A1EF82F30E562CCD3889717E339 SWAP1 PUSH1 0x0 SWAP1 LOG2 POP JUMP JUMPDEST PUSH2 0x1376 PUSH1 0x0 DUP3 PUSH4 0xFFFFFFFF PUSH2 0x14BE AND JUMP JUMPDEST PUSH1 0x40 MLOAD PUSH1 0x1 PUSH1 0x1 PUSH1 0xA0 SHL SUB DUP3 AND SWAP1 PUSH32 0xA3B62BC36326052D97EA62D63C3D60308ED4C3EA8AC079DD8499F1E9C4F80C0F SWAP1 PUSH1 0x0 SWAP1 LOG2 POP JUMP JUMPDEST PUSH2 0x13BE PUSH1 0x1 DUP3 PUSH4 0xFFFFFFFF PUSH2 0x143D AND JUMP JUMPDEST PUSH1 0x40 MLOAD PUSH1 0x1 PUSH1 0x1 PUSH1 0xA0 SHL SUB DUP3 AND SWAP1 PUSH32 0x3F5F1DB80208F0D453083A86E16909CECC1E95E2618D5D927C93ACE22B8200FC SWAP1 PUSH1 0x0 SWAP1 LOG2 POP JUMP JUMPDEST PUSH2 0x1406 PUSH1 0x1 DUP3 PUSH4 0xFFFFFFFF PUSH2 0x14BE AND JUMP JUMPDEST PUSH1 0x40 MLOAD PUSH1 0x1 PUSH1 0x1 PUSH1 0xA0 SHL SUB DUP3 AND SWAP1 PUSH32 0x26B6063D78AEFCF96F02FF06BC9822B5A623278253ADD7FFFA5FB453DB399810 SWAP1 PUSH1 0x0 SWAP1 LOG2 POP JUMP JUMPDEST PUSH2 0x1447 DUP3 DUP3 PUSH2 0x1191 JUMP JUMPDEST ISZERO PUSH2 0x1499 JUMPI PUSH1 0x40 DUP1 MLOAD PUSH3 0x461BCD PUSH1 0xE5 SHL DUP2 MSTORE PUSH1 0x20 PUSH1 0x4 DUP3 ADD MSTORE PUSH1 0x1F PUSH1 0x24 DUP3 ADD MSTORE PUSH32 0x526F6C65733A206163636F756E7420616C72656164792068617320726F6C6500 PUSH1 0x44 DUP3 ADD MSTORE SWAP1 MLOAD SWAP1 DUP2 SWAP1 SUB PUSH1 0x64 ADD SWAP1 REVERT JUMPDEST PUSH1 0x1 PUSH1 0x1 PUSH1 0xA0 SHL SUB AND PUSH1 0x0 SWAP1 DUP2 MSTORE PUSH1 0x20 SWAP2 SWAP1 SWAP2 MSTORE PUSH1 0x40 SWAP1 KECCAK256 DUP1 SLOAD PUSH1 0xFF NOT AND PUSH1 0x1 OR SWAP1 SSTORE JUMP JUMPDEST PUSH2 0x14C8 DUP3 DUP3 PUSH2 0x1191 JUMP JUMPDEST PUSH2 0x1503 JUMPI PUSH1 0x40 MLOAD PUSH3 0x461BCD PUSH1 0xE5 SHL DUP2 MSTORE PUSH1 0x4 ADD DUP1 DUP1 PUSH1 0x20 ADD DUP3 DUP2 SUB DUP3 MSTORE PUSH1 0x21 DUP2 MSTORE PUSH1 0x20 ADD DUP1 PUSH2 0x1556 PUSH1 0x21 SWAP2 CODECOPY PUSH1 0x40 ADD SWAP2 POP POP PUSH1 0x40 MLOAD DUP1 SWAP2 SUB SWAP1 REVERT JUMPDEST PUSH1 0x1 PUSH1 0x1 PUSH1 0xA0 SHL SUB AND PUSH1 0x0 SWAP1 DUP2 MSTORE PUSH1 0x20 SWAP2 SWAP1 SWAP2 MSTORE PUSH1 0x40 SWAP1 KECCAK256 DUP1 SLOAD PUSH1 0xFF NOT AND SWAP1 SSTORE JUMP INVALID NUMBER PUSH9 0x616C6C656E67652063 PUSH2 0x6E27 PUSH21 0x20737461727420756E74696C20616C6C207465616D PUSH20 0x207265676974657265642E526F6C65733A206163 PUSH4 0x6F756E74 KECCAK256 PUSH5 0x6F6573206E PUSH16 0x74206861766520726F6C65526F6C6573 GASPRICE KECCAK256 PUSH2 0x6363 PUSH16 0x756E7420697320746865207A65726F20 PUSH2 0x6464 PUSH19 0x657373596F75206D7573742062652065697468 PUSH6 0x722074686520 PUSH4 0x68616C6C PUSH6 0x6E676572206F PUSH19 0x20746865206368616C6C656E6765642E41646D PUSH10 0x6E526F6C653A2063616C PUSH13 0x657220646F6573206E6F742068 PUSH2 0x7665 KECCAK256 PUSH21 0x68652041646D696E20726F6C65546865206368616C PUSH13 0x656E67652068617320616C7265 PUSH2 0x6479 KECCAK256 PUSH3 0x65656E KECCAK256 PUSH24 0x6F6E2E5465616D526F6C653A2063616C6C657220646F6573 KECCAK256 PUSH15 0x6F7420686176652074686520546561 PUSH14 0x20726F6C65A265627A7A72315820 PUSH9 0x78C798F7A39B062019 SMOD ORIGIN CODESIZE MSTORE8 0xBC MLOAD NUMBER SWAP16 0x4F 0x4B JUMPDEST 0x2B ADDRESS SWAP14 SELFDESTRUCT 0xC1 CREATE2 DUP14 CREATE2 0xC2 0xAE 0xF9 PUSH5 0x736F6C6343 STOP SDIV GT STOP ORIGIN ",
  "sha1": "f8fc82243f917bb47de5501729e0197181b7a3da",
  "source": "pragma solidity ^0.5.0;\n\nimport \"./token_exchange.sol\" ; \nimport \"./TeamRole.sol\" ; \n\ncontract token_challenge is AdminRole, TeamRole {\n\n    //address _exchangeAddress; \n    address _fss = 0x85A8d7241Ffffee7290501473A9B11BFdA2Ae9Ff ;\n\n    //EXCHANGE & PAYCOIN\n    token_exchange fss_exchange; \n    IT_PayCoin payCoin; \n\n    //SIGNING UP & CHECKING VARIABLES\n    address[] _teamAddresses; \n\n    event Registered(address indexed teamAddress); \n\n    //PRICE OVERNIGHT VARIABLES\n    uint256 _last_id_price; \n    uint256 _startOvernightChallenge;\n    bool _overnightWon; \n    \n    event Overnight(address indexed winner, uint256 indexed coin_won); \n\n    //DIRECT CHALLENGE VARIABLES\n    uint256[] _directFlag; \n    //uint256 _startDirectChallenge; \n    address _directChallenger; \n    address _directChallenged; \n    //bool _directChallengeWon;\n    mapping (uint256 => bool) _directChallengeWon;\n    mapping (uint256 => uint256) _startDirectChallenge; \n\n    event DirectChallenge(address indexed directChallenger, address indexed directChallenged, uint256 directFlag); \n    event DirectChallengeWon(address indexed directWinner, uint256 indexed directFlag, uint256 indexed coin_amount); \n\n    //TEAM CHALLENGE VARIABLES\n    uint256[] _teamFlag; \n    address _teamChallenger; \n    address[] _teamChallenged;\n    \n    mapping (uint256 => uint256) _startTeamChallenge; \n    mapping (uint256 => bool) _teamChallengeWon; \n    \n    event TeamChallenge(address indexed teamChallenger, uint256 teamFlag);\n    event TeamChallengeWon(address indexed teamWinner, uint256 indexed teamFlag, uint256 indexed coin_amount);  \n\n    //CONSTRUCTOR\n    constructor (address exchangeAddress) public {\n        fss_exchange = token_exchange(exchangeAddress);\n        payCoin = IT_PayCoin(fss_exchange.payCoin());\n    }\n\n    //SIGNING UP & CHECKING FUNCTIONS\n    function register(address teamAddress) external {\n        //token_exchange fss_exchange = token_exchange(_exchangeAddress);\n        bool _alreadyRegistered = false; \n\n        //TODO: Remember to uncomment!\n        //require(!(fss_exchange.isOpen()), \"The market is still open, come back later\");\n\n        for(uint256 i = 0; i < _teamAddresses.length; i++){\n            if(_teamAddresses[i] == teamAddress){\n                _alreadyRegistered = true; \n            }\n        }\n        require(_alreadyRegistered == false, \"You're already registered.\"); \n\n        _teamAddresses.push(teamAddress); \n        if(!(isTeam(teamAddress))){\n            addTeam(teamAddress);\n        }\n         \n        require(_teamAddresses.length <= 3, \"Too many teams.\"); \n        \n        emit Registered(teamAddress); \n    }\n\n    function isRegistered(address teamAddress) external view returns(bool){\n        for(uint256 i = 0; i < _teamAddresses.length; i++){\n            if(_teamAddresses[i] == teamAddress){\n                return true; \n            }\n        }\n    return false; \n    }\n\n    //PRICE OVERNIGHT\n\n    function overnightStart(int256 new_delta_price) onlyAdmin external {\n        //token_exchange fss_exchange = token_exchange(_exchangeAddress); \n        //IT_PayCoin payCoin = IT_PayCoin(fss_exchange.payCoin());\n\n        //TODO: Remember to uncomment!\n        //require(!(fss_exchange.isOpen()), \"The market is still open, come back later\");\n        \n        _startOvernightChallenge = now; \n        _last_id_price = fss_exchange.setNewPrice(new_delta_price);\n        _overnightWon = false;  \n        payCoin.burnFrom(msg.sender, 200e18); \n\n    }\n\n    function overnightCheck(uint256 id_price) external {\n        //token_exchange fss_exchange = token_exchange(_exchangeAddress); \n        //IT_PayCoin payCoin = IT_PayCoin(fss_exchange.payCoin());\n\n        require(id_price == _last_id_price, \"Wrong id price.\"); \n        if( now > _startOvernightChallenge && now < _startOvernightChallenge + 1 minutes){\n            require(_overnightWon == false, \"The challenge has already been won.\"); \n\n            payCoin.mint(msg.sender, 1200e18); \n            _overnightWon = true;\n            emit Overnight(msg.sender, 1200e18); \n\n        }\n\n        else{\n            payCoin.mint(_fss, 2000e18); \n            emit Overnight(_fss, 2000e18); \n        }\n        \n    }\n\n    //DIRECT CHALLENGE\n    \n    function challengeStart(address directChallenged, uint256 flag) external {\n        //token_exchange fss_exchange = token_exchange(_exchangeAddress); \n        //IT_PayCoin payCoin = IT_PayCoin(fss_exchange.payCoin());\n        /*\n        for(uint256 i = 0; i < _directFlag.length; i++){\n            require(_directFlag[i] != flag , \"Flag already used!\");\n        }\n        */\n        checkFlag(_directFlag, flag); \n\n        require(msg.sender != directChallenged, \"The addresses must be different.\"); \n        //TODO require address must be of the teams. \n\n        //_directFlag.push(flag); \n        _startDirectChallenge[flag] = now;\n        _directChallenger = msg.sender; \n        _directChallenged = directChallenged; \n        _directChallengeWon[flag] = false; \n\n        emit DirectChallenge(_directChallenger, _directChallenged, flag);\n        payCoin.burnFrom(msg.sender, 50e18);          \n    \n    }\n\n    function winDirectChallenge(uint256 flag) external returns(bool) {\n        //token_exchange fss_exchange = token_exchange(_exchangeAddress); \n        //IT_PayCoin payCoin = IT_PayCoin(fss_exchange.payCoin());\n        bool _flagFound = false; \n\n        payCoin.burnFrom(msg.sender, 50e18);\n        \n        require(msg.sender == _directChallenger || msg.sender == _directChallenged, \"You must be either the challenger or the challenged.\"); \n        if(now >= _startDirectChallenge[flag] + 5 seconds){ //REMEMBER TO CHANGE BACK TO MINUTES!\n            require(_directChallengeWon[flag] == false, \"The challenge has already been won.\"); \n            /*\n            for(uint256 i = 0; i < _directFlag.length; i++){\n                //require( _flag[i] == flag , \"Couldn't find yuor flag!\");\n                if (_directFlag[i] == flag ){\n                    _flagFound = true; \n                    break; \n                }\n            }\n            require(_flagFound, \"Couldn't find yuor flag!\"); \n            */\n            matchFlag(_directFlag, flag); \n\n            payCoin.mint(msg.sender, 1000e18);\n            emit DirectChallengeWon(msg.sender, flag, 1000e18); \n            _directChallengeWon[flag] = true;  \n\n            return true; \n        } \n        else{\n            return false; \n        }\n\n    }\n    \n    //TEAM CHALLENGE\n    \n    function challengeStart(uint256 flag) onlyTeam external {\n        //token_exchange fss_exchange = token_exchange(_exchangeAddress); \n        //IT_PayCoin payCoin = IT_PayCoin(fss_exchange.payCoin());\n        /*\n        for(uint256 i = 0; i < _teamFlag.length; i++){\n            require(_teamFlag[i] != flag , \"Flag already used!\");\n        } \n        */\n        //TODO require address must be of the teams.\n\n        //_teamFlag.push(flag); \n        checkFlag(_teamFlag, flag); \n\n        _startTeamChallenge[flag] = now;\n        _teamChallengeWon[flag] = false; \n\n        require(_teamAddresses.length == 3, \"Challenge can't start until all teams regitered.\"); \n        for(uint256 i = 0; i < _teamAddresses.length; i++){\n            if(msg.sender == _teamAddresses[i]){\n                _teamChallenger = msg.sender; \n            }\n            else{\n                _teamChallenged.push(_teamAddresses[i]); \n            }\n        }\n\n        emit TeamChallenge(msg.sender, flag); \n\n        payCoin.burnFrom(msg.sender, 100e18); \n\n    }\n\n    function winTeamChallenge(uint256 flag) onlyTeam external returns(bool) {\n        //token_exchange fss_exchange = token_exchange(_exchangeAddress); \n        //IT_PayCoin payCoin = IT_PayCoin(fss_exchange.payCoin());    \n        bool _flagFound = false; \n\n        payCoin.burnFrom(msg.sender, 100e18);\n\n        //require(msg.sender == _teamChallenger || msg.sender == _teamChallenged[0] || msg.sender == _teamChallenged[1], \"You must be either the challenger or one fo the challenged.\"); \n        if(now >= _startTeamChallenge[flag] + 5 seconds){//REMEMBER TO CHANGE BACK TO MINUTES!\n            require(_teamChallengeWon[flag] == false, \"The challenge has already been won.\"); \n            /*\n            for(uint256 i = 0; i < _teamFlag.length; i++){\n                //require( _flag[i] == flag , \"Couldn't find yuor flag!\");\n                if (_teamFlag[i] == flag ){\n                    _flagFound = true; \n                    break; \n                }\n            }\n            require(_flagFound, \"Couldn't find yuor flag!\"); \n            */\n            matchFlag(_teamFlag, flag); \n\n            if(msg.sender == _teamChallenger){\n                payCoin.mint(msg.sender, 1500e18);\n                emit TeamChallengeWon(msg.sender, flag, 1500e18);\n            }\n            else{\n                payCoin.mint(msg.sender, 1000e18);\n                emit TeamChallengeWon(msg.sender, flag, 1000e18);\n            }\n             \n            _teamChallengeWon[flag] = true;  \n\n            return true; \n        } \n        else{\n            return false; \n        }\n    }\n\n\n    //INTERNAL FUNCTION\n\n    function checkFlag(uint256[] storage _flags, uint256 _flag) internal {\n\n        for(uint256 i = 0; i < _flags.length; i++){\n            require(_flags[i] != _flag , \"Flag already used!\");\n        }\n\n        _flags.push(_flag);\n\n    }\n\n    function matchFlag(uint256[] storage _flags, uint256 _flag) internal {\n        bool _flagFound = false;\n\n        for(uint256 i = 0; i < _flags.length; i++){\n                //require( _flag[i] == flag , \"Couldn't find yuor flag!\");\n                if (_flags[i] == _flag ){\n                    _flagFound = true; \n                    break; \n                }\n            }\n            require(_flagFound, \"Couldn't find yuor flag!\");\n\n    }\n\n\n\n\n\n\n    //EXCHANGE & PAYCOIN ADDRESS\n    /*\n    function setExchange(address exchangeAddress) onlyAdmin external {\n        fss_exchange = token_exchange(exchangeAddress); \n    }\n    \n    function setPayCoin(address payCoinAddress) onlyAdmin external {\n        payCoin = IT_PayCoin(payCoinAddress); \n    }\n    */\n\n}",
  "sourcePath": "contracts/token_challenge.sol",
  "type": "contract"
}