{
  "abi": [
    {
      "inputs": [
        {
          "internalType": "address",
          "name": "tokenAddress",
          "type": "address"
        },
        {
          "internalType": "address",
          "name": "payCoinAddress",
          "type": "address"
        }
      ],
      "payable": false,
      "stateMutability": "nonpayable",
      "type": "constructor"
    },
    {
      "anonymous": false,
      "inputs": [
        {
          "indexed": true,
          "internalType": "address",
          "name": "account",
          "type": "address"
        }
      ],
      "name": "AdminAdded",
      "type": "event"
    },
    {
      "anonymous": false,
      "inputs": [
        {
          "indexed": true,
          "internalType": "address",
          "name": "account",
          "type": "address"
        }
      ],
      "name": "AdminRemoved",
      "type": "event"
    },
    {
      "anonymous": false,
      "inputs": [
        {
          "indexed": true,
          "internalType": "address",
          "name": "account",
          "type": "address"
        }
      ],
      "name": "BrokerAdded",
      "type": "event"
    },
    {
      "anonymous": false,
      "inputs": [
        {
          "indexed": true,
          "internalType": "address",
          "name": "account",
          "type": "address"
        }
      ],
      "name": "BrokerRemoved",
      "type": "event"
    },
    {
      "anonymous": false,
      "inputs": [
        {
          "indexed": true,
          "internalType": "address",
          "name": "buyer",
          "type": "address"
        },
        {
          "indexed": true,
          "internalType": "uint256",
          "name": "amount",
          "type": "uint256"
        },
        {
          "indexed": true,
          "internalType": "uint256",
          "name": "price",
          "type": "uint256"
        }
      ],
      "name": "Buy",
      "type": "event"
    },
    {
      "anonymous": false,
      "inputs": [
        {
          "indexed": true,
          "internalType": "address",
          "name": "who",
          "type": "address"
        },
        {
          "indexed": true,
          "internalType": "uint256",
          "name": "when",
          "type": "uint256"
        }
      ],
      "name": "ChangeEnd",
      "type": "event"
    },
    {
      "anonymous": false,
      "inputs": [
        {
          "indexed": true,
          "internalType": "address",
          "name": "who",
          "type": "address"
        },
        {
          "indexed": true,
          "internalType": "uint256",
          "name": "when",
          "type": "uint256"
        }
      ],
      "name": "ChangeStart",
      "type": "event"
    },
    {
      "anonymous": false,
      "inputs": [
        {
          "indexed": true,
          "internalType": "address",
          "name": "who",
          "type": "address"
        },
        {
          "indexed": true,
          "internalType": "uint256",
          "name": "id_price",
          "type": "uint256"
        },
        {
          "indexed": true,
          "internalType": "uint256",
          "name": "price",
          "type": "uint256"
        }
      ],
      "name": "PriceChange",
      "type": "event"
    },
    {
      "anonymous": false,
      "inputs": [
        {
          "indexed": true,
          "internalType": "address",
          "name": "buyer",
          "type": "address"
        },
        {
          "indexed": true,
          "internalType": "uint256",
          "name": "amount",
          "type": "uint256"
        },
        {
          "indexed": true,
          "internalType": "uint256",
          "name": "price",
          "type": "uint256"
        }
      ],
      "name": "Sell",
      "type": "event"
    },
    {
      "constant": false,
      "inputs": [
        {
          "internalType": "address",
          "name": "account",
          "type": "address"
        }
      ],
      "name": "addAdmin",
      "outputs": [],
      "payable": false,
      "stateMutability": "nonpayable",
      "type": "function"
    },
    {
      "constant": false,
      "inputs": [
        {
          "internalType": "address",
          "name": "account",
          "type": "address"
        }
      ],
      "name": "addBroker",
      "outputs": [],
      "payable": false,
      "stateMutability": "nonpayable",
      "type": "function"
    },
    {
      "constant": false,
      "inputs": [
        {
          "internalType": "uint256",
          "name": "tokenAmount",
          "type": "uint256"
        }
      ],
      "name": "buy",
      "outputs": [
        {
          "internalType": "bool",
          "name": "",
          "type": "bool"
        }
      ],
      "payable": false,
      "stateMutability": "nonpayable",
      "type": "function"
    },
    {
      "constant": false,
      "inputs": [
        {
          "internalType": "uint256",
          "name": "end",
          "type": "uint256"
        }
      ],
      "name": "changeEnd",
      "outputs": [],
      "payable": false,
      "stateMutability": "nonpayable",
      "type": "function"
    },
    {
      "constant": false,
      "inputs": [
        {
          "internalType": "uint256",
          "name": "start",
          "type": "uint256"
        }
      ],
      "name": "changeStart",
      "outputs": [],
      "payable": false,
      "stateMutability": "nonpayable",
      "type": "function"
    },
    {
      "constant": true,
      "inputs": [
        {
          "internalType": "uint256",
          "name": "id_price",
          "type": "uint256"
        }
      ],
      "name": "getHistory",
      "outputs": [
        {
          "internalType": "uint256",
          "name": "",
          "type": "uint256"
        }
      ],
      "payable": false,
      "stateMutability": "view",
      "type": "function"
    },
    {
      "constant": true,
      "inputs": [
        {
          "internalType": "address",
          "name": "account",
          "type": "address"
        }
      ],
      "name": "isAdmin",
      "outputs": [
        {
          "internalType": "bool",
          "name": "",
          "type": "bool"
        }
      ],
      "payable": false,
      "stateMutability": "view",
      "type": "function"
    },
    {
      "constant": true,
      "inputs": [
        {
          "internalType": "address",
          "name": "account",
          "type": "address"
        }
      ],
      "name": "isBroker",
      "outputs": [
        {
          "internalType": "bool",
          "name": "",
          "type": "bool"
        }
      ],
      "payable": false,
      "stateMutability": "view",
      "type": "function"
    },
    {
      "constant": true,
      "inputs": [],
      "name": "isOpen",
      "outputs": [
        {
          "internalType": "bool",
          "name": "",
          "type": "bool"
        }
      ],
      "payable": false,
      "stateMutability": "view",
      "type": "function"
    },
    {
      "constant": true,
      "inputs": [],
      "name": "lastPrice",
      "outputs": [
        {
          "internalType": "uint256",
          "name": "",
          "type": "uint256"
        },
        {
          "internalType": "uint256",
          "name": "",
          "type": "uint256"
        }
      ],
      "payable": false,
      "stateMutability": "view",
      "type": "function"
    },
    {
      "constant": true,
      "inputs": [],
      "name": "payCoin",
      "outputs": [
        {
          "internalType": "contract PayCoin",
          "name": "",
          "type": "address"
        }
      ],
      "payable": false,
      "stateMutability": "view",
      "type": "function"
    },
    {
      "constant": false,
      "inputs": [],
      "name": "renounceAdmin",
      "outputs": [],
      "payable": false,
      "stateMutability": "nonpayable",
      "type": "function"
    },
    {
      "constant": false,
      "inputs": [],
      "name": "renounceBroker",
      "outputs": [],
      "payable": false,
      "stateMutability": "nonpayable",
      "type": "function"
    },
    {
      "constant": false,
      "inputs": [
        {
          "internalType": "uint256",
          "name": "tokenAmount",
          "type": "uint256"
        }
      ],
      "name": "sell",
      "outputs": [
        {
          "internalType": "bool",
          "name": "",
          "type": "bool"
        }
      ],
      "payable": false,
      "stateMutability": "nonpayable",
      "type": "function"
    },
    {
      "constant": false,
      "inputs": [
        {
          "internalType": "uint256",
          "name": "price",
          "type": "uint256"
        }
      ],
      "name": "setHistory",
      "outputs": [],
      "payable": false,
      "stateMutability": "nonpayable",
      "type": "function"
    },
    {
      "constant": false,
      "inputs": [
        {
          "internalType": "int256",
          "name": "delta_price",
          "type": "int256"
        }
      ],
      "name": "setNewPrice",
      "outputs": [
        {
          "internalType": "uint256",
          "name": "",
          "type": "uint256"
        }
      ],
      "payable": false,
      "stateMutability": "nonpayable",
      "type": "function"
    },
    {
      "constant": false,
      "inputs": [],
      "name": "setOpenTime",
      "outputs": [],
      "payable": false,
      "stateMutability": "nonpayable",
      "type": "function"
    },
    {
      "constant": false,
      "inputs": [
        {
          "internalType": "address",
          "name": "payCoinAddress",
          "type": "address"
        }
      ],
      "name": "setPayCoin",
      "outputs": [],
      "payable": false,
      "stateMutability": "nonpayable",
      "type": "function"
    },
    {
      "constant": false,
      "inputs": [
        {
          "internalType": "address",
          "name": "tokenAddress",
          "type": "address"
        }
      ],
      "name": "setToken",
      "outputs": [],
      "payable": false,
      "stateMutability": "nonpayable",
      "type": "function"
    }
  ],
  "bytecode": "6080604052600a80546001600160a01b0319908116732b177c1854de132e96326b454055005e62febdc717909155600b80549091167385a8d7241ffffee7290501473a9b11bfda2ae9ff1790553480156200005957600080fd5b5060405162001ccf38038062001ccf833981810160405260408110156200007f57600080fd5b508051602090910151620000ae6200009f6001600160e01b03620001b616565b6001600160e01b03620001ba16565b620000d4620000c56001600160e01b03620001b616565b6001600160e01b036200020c16565b600280546001600160a01b038085166001600160a01b031992831617909255600380548484169216919091179055635ef2f9f06004819055635ef37880600555600855635efcb3006009556006805460ff19169055600a546200014191166001600160e01b036200025e16565b8015620001695750600a5462000169906001600160a01b03166001600160e01b036200028116565b620001ae57600a546200018e906001600160a01b03166001600160e01b036200029e16565b600a54620001ae906001600160a01b03166001600160e01b036200031816565b505062000485565b3390565b620001d58160006200038f60201b620014531790919060201c565b6040516001600160a01b038216907f40c56d2c4c08eead919e7228cf5b749297271698ec38e954d322ef4bcf1d58fb90600090a250565b620002278160016200038f60201b620014531790919060201c565b6040516001600160a01b038216907f44d6d25963f097ad14f29f06854a01f575648a1ef82f30e562ccd3889717e33990600090a250565b60006200027b8260016200041c60201b62000d211790919060201c565b92915050565b60006200027b8260006200041c60201b62000d211790919060201c565b620002c4620002b56001600160e01b03620001b616565b6001600160e01b036200025e16565b620003015760405162461bcd60e51b815260040180806020018281038252602e81526020018062001ca1602e913960400191505060405180910390fd5b62000315816001600160e01b036200020c16565b50565b6200033e6200032f6001600160e01b03620001b616565b6001600160e01b036200028116565b6200037b5760405162461bcd60e51b815260040180806020018281038252603081526020018062001c4f6030913960400191505060405180910390fd5b62000315816001600160e01b03620001ba16565b620003a482826001600160e01b036200041c16565b15620003f7576040805162461bcd60e51b815260206004820152601f60248201527f526f6c65733a206163636f756e7420616c72656164792068617320726f6c6500604482015290519081900360640190fd5b6001600160a01b0316600090815260209190915260409020805460ff19166001179055565b60006001600160a01b038216620004655760405162461bcd60e51b815260040180806020018281038252602281526020018062001c7f6022913960400191505060405180910390fd5b506001600160a01b03166000908152602091909152604090205460ff1690565b6117ba80620004956000396000f3fe608060405234801561001057600080fd5b50600436106101215760003560e01c8063836cae65116100ad578063d1d5190c11610071578063d1d5190c146102ca578063d96a094a146102e7578063e37bddc314610304578063e4849b3214610321578063ffb4e0751461033e57610121565b8063836cae651461022a5780638bad0c0a146102505780639f986fbb14610258578063a96711931461027e578063c8691b2a146102ad57610121565b8063431e5c9d116100f4578063431e5c9d146101cf57806347535d7b146101d75780634f15e62e146101df57806370480275146101e7578063761909d01461020d57610121565b8063053f14da14610126578063144fa6d71461014757806322b31d9f1461016f57806324d7806c146101a9575b600080fd5b61012e610362565b6040805192835260208301919091528051918290030190f35b61016d6004803603602081101561015d57600080fd5b50356001600160a01b03166103ad565b005b6101956004803603602081101561018557600080fd5b50356001600160a01b031661041a565b604080519115158252519081900360200190f35b610195600480360360208110156101bf57600080fd5b50356001600160a01b0316610432565b61016d610445565b610195610457565b61016d6104d7565b61016d600480360360208110156101fd57600080fd5b50356001600160a01b0316610590565b61016d6004803603602081101561022357600080fd5b50356105e2565b61016d6004803603602081101561024057600080fd5b50356001600160a01b0316610662565b61016d6106b1565b61016d6004803603602081101561026e57600080fd5b50356001600160a01b03166106c1565b61029b6004803603602081101561029457600080fd5b5035610729565b60408051918252519081900360200190f35b61029b600480360360208110156102c357600080fd5b5035610a00565b61016d600480360360208110156102e057600080fd5b5035610a21565b610195600480360360208110156102fd57600080fd5b5035610aad565b61016d6004803603602081101561031a57600080fd5b5035610b77565b6101956004803603602081101561033757600080fd5b5035610c03565b610346610cc5565b604080516001600160a01b039092168252519081900360200190f35b600754600090819061037b90600163ffffffff610cd416565b6007805461039090600163ffffffff610cd416565b8154811061039a57fe5b9060005260206000200154915091509091565b6103bd6103b8610d1d565b610432565b6103f85760405162461bcd60e51b815260040180806020018281038252602e815260200180611758602e913960400191505060405180910390fd5b600280546001600160a01b0319166001600160a01b0392909216919091179055565b600061042c818363ffffffff610d2116565b92915050565b600061042c60018363ffffffff610d2116565b610455610450610d1d565b610d88565b565b6000600854421015801561046d57506009544211155b6104be576040805162461bcd60e51b815260206004820152601b60248201527f546865206d61726b6574206973206e6f74206f70656e207965742e0000000000604482015290519081900360640190fd5b60045442101580156104d257506005544211155b905090565b6104e26103b8610d1d565b61051d5760405162461bcd60e51b815260040180806020018281038252602e815260200180611758602e913960400191505060405180910390fd5b6005546004541061055f5760405162461bcd60e51b81526004018080602001828103825260408152602001806116d56040913960400191505060405180910390fd5b6005546105749061d2f063ffffffff610dd016565b600481905561058b90617e9063ffffffff610dd016565b600555565b61059b6103b8610d1d565b6105d65760405162461bcd60e51b815260040180806020018281038252602e815260200180611758602e913960400191505060405180910390fd5b6105df81610e2a565b50565b6105f26105ed610d1d565b61041a565b61062d5760405162461bcd60e51b81526004018080602001828103825260308152602001806116846030913960400191505060405180910390fd5b600780546001810182556000919091527fa66cc928b5edb82af9bd49922954155ab7b0942694bea4ce44661d9a8736c6880155565b61066d6105ed610d1d565b6106a85760405162461bcd60e51b81526004018080602001828103825260308152602001806116846030913960400191505060405180910390fd5b6105df81610e72565b6104556106bc610d1d565b610eba565b6106cc6103b8610d1d565b6107075760405162461bcd60e51b815260040180806020018281038252602e815260200180611758602e913960400191505060405180910390fd5b600380546001600160a01b0319166001600160a01b0392909216919091179055565b60006107366105ed610d1d565b6107715760405162461bcd60e51b81526004018080602001828103825260308152602001806116846030913960400191505060405180910390fd5b600780546000919061078a90600163ffffffff610cd416565b8154811061079457fe5b60009182526020822001549150838201908082136107f9576040805162461bcd60e51b815260206004820152601760248201527f5072696365206d75737420626520706f73697469766521000000000000000000604482015290519081900360640190fd5b6108046103b8610d1d565b156108b857610811610457565b610855576040805162461bcd60e51b815260206004820152601060248201526f13585c9ad95d081a5cc818db1bdcd95960821b604482015290519081900360640190fd5b61085e826105e2565b60075461087290600163ffffffff610cd416565b9050818161087e610d1d565b6001600160a01b03167f024e1c492bc15609a5125924e67e792a203a4f550a353426fad01a2c6d5ff97660405160405180910390a46109f8565b600654600460ff9091161061090d576040805162461bcd60e51b815260206004820152601660248201527520b63932b0b23c9031b0b63639901a103a34b6b2b99760511b604482015290519081900360640190fd5b61093f610932606461092686600a63ffffffff610f0216565b9063ffffffff610f5b16565b849063ffffffff610cd416565b82118015610971575061096e610961606461092686600a63ffffffff610f0216565b849063ffffffff610dd016565b82105b6109c2576040805162461bcd60e51b815260206004820152601c60248201527f43616e2774206368616e6765206d6f7265207468616e202d2b31302500000000604482015290519081900360640190fd5b6109cb826105e2565b6007546109df90600163ffffffff610cd416565b6006805460ff8082166001011660ff1990911617905590505b949350505050565b600060078281548110610a0f57fe5b90600052602060002001549050919050565b610a2c6103b8610d1d565b610a675760405162461bcd60e51b815260040180806020018281038252602e815260200180611758602e913960400191505060405180910390fd5b600881905580610a75610d1d565b6001600160a01b03167f16c752bdf6502cc829c9a81132e2e73aeb12d145e0e3b1cd632a9759485a5f5360405160405180910390a350565b6000610ab7610457565b610afb576040805162461bcd60e51b815260206004820152601060248201526f13585c9ad95d081a5cc818db1bdcd95960821b604482015290519081900360640190fd5b60085442118015610b0d575060095442105b610b5e576040805162461bcd60e51b815260206004820152601c60248201527f546865206d61726b657420697320636c6f736520666f72657665722e00000000604482015290519081900360640190fd5b610b6f610b69610d1d565b83610f9d565b506001919050565b610b826103b8610d1d565b610bbd5760405162461bcd60e51b815260040180806020018281038252602e815260200180611758602e913960400191505060405180910390fd5b600981905580610bcb610d1d565b6001600160a01b03167f9cd0f0f4c626f6284b893eff5aa9a5f50e76b4fa9811bf3ec86ac52cc6ed782760405160405180910390a350565b6000610c0d610457565b610c51576040805162461bcd60e51b815260206004820152601060248201526f13585c9ad95d081a5cc818db1bdcd95960821b604482015290519081900360640190fd5b60085442118015610c63575060095442105b610cb4576040805162461bcd60e51b815260206004820152601c60248201527f546865206d61726b657420697320636c6f736520666f72657665722e00000000604482015290519081900360640190fd5b610b6f610cbf610d1d565b83611199565b6003546001600160a01b031681565b6000610d1683836040518060400160405280601e81526020017f536166654d6174683a207375627472616374696f6e206f766572666c6f770000815250611355565b9392505050565b3390565b60006001600160a01b038216610d685760405162461bcd60e51b81526004018080602001828103825260228152602001806117366022913960400191505060405180910390fd5b506001600160a01b03166000908152602091909152604090205460ff1690565b610d9960008263ffffffff6113ec16565b6040516001600160a01b038216907fe5c6f32fb04b7de81910252a1e1d29267cd9e5fc428afad67442d00c7b127bd090600090a250565b600082820183811015610d16576040805162461bcd60e51b815260206004820152601b60248201527f536166654d6174683a206164646974696f6e206f766572666c6f770000000000604482015290519081900360640190fd5b610e3b60018263ffffffff61145316565b6040516001600160a01b038216907f44d6d25963f097ad14f29f06854a01f575648a1ef82f30e562ccd3889717e33990600090a250565b610e8360008263ffffffff61145316565b6040516001600160a01b038216907f40c56d2c4c08eead919e7228cf5b749297271698ec38e954d322ef4bcf1d58fb90600090a250565b610ecb60018263ffffffff6113ec16565b6040516001600160a01b038216907fa3b62bc36326052d97ea62d63c3d60308ed4c3ea8ac079dd8499f1e9c4f80c0f90600090a250565b600082610f115750600061042c565b82820282848281610f1e57fe5b0414610d165760405162461bcd60e51b81526004018080602001828103825260218152602001806117156021913960400191505060405180910390fd5b6000610d1683836040518060400160405280601a81526020017f536166654d6174683a206469766973696f6e206279207a65726f0000000000008152506114d4565b6001600160a01b038216610ff8576040805162461bcd60e51b815260206004820152601d60248201527f526563697069656e7420697320746865207a65726f2061646472657373000000604482015290519081900360640190fd5b600354600b546001600160a01b03918216916323b872dd9185911661101e856001611539565b6040518463ffffffff1660e01b815260040180846001600160a01b03166001600160a01b03168152602001836001600160a01b03166001600160a01b031681526020018281526020019350505050602060405180830381600087803b15801561108657600080fd5b505af115801561109a573d6000803e3d6000fd5b505050506040513d60208110156110b057600080fd5b5050600254604080516340c10f1960e01b81526001600160a01b03858116600483015260248201859052915191909216916340c10f199160448083019260209291908290030181600087803b15801561110857600080fd5b505af115801561111c573d6000803e3d6000fd5b505050506040513d602081101561113257600080fd5b50506007805461114990600163ffffffff610cd416565b8154811061115357fe5b906000526020600020015481836001600160a01b03167f1cbc5ab135991bd2b6a4b034a04aa2aa086dac1371cb9b16b8b5e2ed6b036bed60405160405180910390a45050565b6001600160a01b0382166111f4576040805162461bcd60e51b815260206004820152601a60248201527f53656c6c657220697320746865207a65726f2061646472657373000000000000604482015290519081900360640190fd5b6002546040805163079cc67960e41b81526001600160a01b03858116600483015260248201859052915191909216916379cc679091604480830192600092919082900301818387803b15801561124957600080fd5b505af115801561125d573d6000803e3d6000fd5b50506003546001600160a01b031691506340c10f19905083611280846000611539565b6040518363ffffffff1660e01b815260040180836001600160a01b03166001600160a01b0316815260200182815260200192505050602060405180830381600087803b1580156112cf57600080fd5b505af11580156112e3573d6000803e3d6000fd5b505050506040513d60208110156112f957600080fd5b50506007805461131090600163ffffffff610cd416565b8154811061131a57fe5b60009182526020822001546040519091839130917fed7a144fad14804d5c249145e3e0e2b63a9eb455b76aee5bc92d711e9bba3e4a91a45050565b600081848411156113e45760405162461bcd60e51b81526004018080602001828103825283818151815260200191508051906020019080838360005b838110156113a9578181015183820152602001611391565b50505050905090810190601f1680156113d65780820380516001836020036101000a031916815260200191505b509250505060405180910390fd5b505050900390565b6113f68282610d21565b6114315760405162461bcd60e51b81526004018080602001828103825260218152602001806116b46021913960400191505060405180910390fd5b6001600160a01b0316600090815260209190915260409020805460ff19169055565b61145d8282610d21565b156114af576040805162461bcd60e51b815260206004820152601f60248201527f526f6c65733a206163636f756e7420616c72656164792068617320726f6c6500604482015290519081900360640190fd5b6001600160a01b0316600090815260209190915260409020805460ff19166001179055565b600081836115235760405162461bcd60e51b81526020600482018181528351602484015283519092839260449091019190850190808383600083156113a9578181015183820152602001611391565b50600083858161152f57fe5b0495945050505050565b600080600260009054906101000a90046001600160a01b03166001600160a01b031663313ce5676040518163ffffffff1660e01b815260040160206040518083038186803b15801561158a57600080fd5b505afa15801561159e573d6000803e3d6000fd5b505050506040513d60208110156115b457600080fd5b505160ff1690508215611638576116306115db6103e861092687600263ffffffff610f0216565b61162483600a0a61092660076116006001600780549050610cd490919063ffffffff16565b8154811061160a57fe5b906000526020600020015489610f0290919063ffffffff16565b9063ffffffff610dd016565b91505061042c565b6116306116526103e861092687600263ffffffff610f0216565b61167783600a0a61092660076116006001600780549050610cd490919063ffffffff16565b9063ffffffff610cd41656fe42726f6b6572526f6c653a2063616c6c657220646f6573206e6f742068617665207468652042726f6b657220726f6c65526f6c65733a206163636f756e7420646f6573206e6f74206861766520726f6c65536f6d657468696e6727732077726f6e672c206d6179626520796f75207365742074686520696e697469616c205f6f70656e696e6774696d652077726f6e672e536166654d6174683a206d756c7469706c69636174696f6e206f766572666c6f77526f6c65733a206163636f756e7420697320746865207a65726f206164647265737341646d696e526f6c653a2063616c6c657220646f6573206e6f742068617665207468652041646d696e20726f6c65a265627a7a723158200697dd00fbbecb6e556cb87e791bc3462965b3142762e32fa87b842fe88afda964736f6c6343000511003242726f6b6572526f6c653a2063616c6c657220646f6573206e6f742068617665207468652042726f6b657220726f6c65526f6c65733a206163636f756e7420697320746865207a65726f206164647265737341646d696e526f6c653a2063616c6c657220646f6573206e6f742068617665207468652041646d696e20726f6c65",
  "bytecodeSha1": "da39a3ee5e6b4b0d3255bfef95601890afd80709",
  "compiler": {
    "evm_version": "istanbul",
    "optimizer": {
      "enabled": true,
      "runs": 200
    },
    "version": "0.5.17"
  },
  "contractName": "token_exchange",
  "language": "Solidity",
  "natspec": {
    "methods": {}
  },
  "opcodes": "PUSH1 0x80 PUSH1 0x40 MSTORE CALLVALUE DUP1 ISZERO PUSH2 0x10 JUMPI PUSH1 0x0 DUP1 REVERT JUMPDEST POP PUSH1 0x4 CALLDATASIZE LT PUSH2 0x121 JUMPI PUSH1 0x0 CALLDATALOAD PUSH1 0xE0 SHR DUP1 PUSH4 0x836CAE65 GT PUSH2 0xAD JUMPI DUP1 PUSH4 0xD1D5190C GT PUSH2 0x71 JUMPI DUP1 PUSH4 0xD1D5190C EQ PUSH2 0x2CA JUMPI DUP1 PUSH4 0xD96A094A EQ PUSH2 0x2E7 JUMPI DUP1 PUSH4 0xE37BDDC3 EQ PUSH2 0x304 JUMPI DUP1 PUSH4 0xE4849B32 EQ PUSH2 0x321 JUMPI DUP1 PUSH4 0xFFB4E075 EQ PUSH2 0x33E JUMPI PUSH2 0x121 JUMP JUMPDEST DUP1 PUSH4 0x836CAE65 EQ PUSH2 0x22A JUMPI DUP1 PUSH4 0x8BAD0C0A EQ PUSH2 0x250 JUMPI DUP1 PUSH4 0x9F986FBB EQ PUSH2 0x258 JUMPI DUP1 PUSH4 0xA9671193 EQ PUSH2 0x27E JUMPI DUP1 PUSH4 0xC8691B2A EQ PUSH2 0x2AD JUMPI PUSH2 0x121 JUMP JUMPDEST DUP1 PUSH4 0x431E5C9D GT PUSH2 0xF4 JUMPI DUP1 PUSH4 0x431E5C9D EQ PUSH2 0x1CF JUMPI DUP1 PUSH4 0x47535D7B EQ PUSH2 0x1D7 JUMPI DUP1 PUSH4 0x4F15E62E EQ PUSH2 0x1DF JUMPI DUP1 PUSH4 0x70480275 EQ PUSH2 0x1E7 JUMPI DUP1 PUSH4 0x761909D0 EQ PUSH2 0x20D JUMPI PUSH2 0x121 JUMP JUMPDEST DUP1 PUSH4 0x53F14DA EQ PUSH2 0x126 JUMPI DUP1 PUSH4 0x144FA6D7 EQ PUSH2 0x147 JUMPI DUP1 PUSH4 0x22B31D9F EQ PUSH2 0x16F JUMPI DUP1 PUSH4 0x24D7806C EQ PUSH2 0x1A9 JUMPI JUMPDEST PUSH1 0x0 DUP1 REVERT JUMPDEST PUSH2 0x12E PUSH2 0x362 JUMP JUMPDEST PUSH1 0x40 DUP1 MLOAD SWAP3 DUP4 MSTORE PUSH1 0x20 DUP4 ADD SWAP2 SWAP1 SWAP2 MSTORE DUP1 MLOAD SWAP2 DUP3 SWAP1 SUB ADD SWAP1 RETURN JUMPDEST PUSH2 0x16D PUSH1 0x4 DUP1 CALLDATASIZE SUB PUSH1 0x20 DUP2 LT ISZERO PUSH2 0x15D JUMPI PUSH1 0x0 DUP1 REVERT JUMPDEST POP CALLDATALOAD PUSH1 0x1 PUSH1 0x1 PUSH1 0xA0 SHL SUB AND PUSH2 0x3AD JUMP JUMPDEST STOP JUMPDEST PUSH2 0x195 PUSH1 0x4 DUP1 CALLDATASIZE SUB PUSH1 0x20 DUP2 LT ISZERO PUSH2 0x185 JUMPI PUSH1 0x0 DUP1 REVERT JUMPDEST POP CALLDATALOAD PUSH1 0x1 PUSH1 0x1 PUSH1 0xA0 SHL SUB AND PUSH2 0x41A JUMP JUMPDEST PUSH1 0x40 DUP1 MLOAD SWAP2 ISZERO ISZERO DUP3 MSTORE MLOAD SWAP1 DUP2 SWAP1 SUB PUSH1 0x20 ADD SWAP1 RETURN JUMPDEST PUSH2 0x195 PUSH1 0x4 DUP1 CALLDATASIZE SUB PUSH1 0x20 DUP2 LT ISZERO PUSH2 0x1BF JUMPI PUSH1 0x0 DUP1 REVERT JUMPDEST POP CALLDATALOAD PUSH1 0x1 PUSH1 0x1 PUSH1 0xA0 SHL SUB AND PUSH2 0x432 JUMP JUMPDEST PUSH2 0x16D PUSH2 0x445 JUMP JUMPDEST PUSH2 0x195 PUSH2 0x457 JUMP JUMPDEST PUSH2 0x16D PUSH2 0x4D7 JUMP JUMPDEST PUSH2 0x16D PUSH1 0x4 DUP1 CALLDATASIZE SUB PUSH1 0x20 DUP2 LT ISZERO PUSH2 0x1FD JUMPI PUSH1 0x0 DUP1 REVERT JUMPDEST POP CALLDATALOAD PUSH1 0x1 PUSH1 0x1 PUSH1 0xA0 SHL SUB AND PUSH2 0x590 JUMP JUMPDEST PUSH2 0x16D PUSH1 0x4 DUP1 CALLDATASIZE SUB PUSH1 0x20 DUP2 LT ISZERO PUSH2 0x223 JUMPI PUSH1 0x0 DUP1 REVERT JUMPDEST POP CALLDATALOAD PUSH2 0x5E2 JUMP JUMPDEST PUSH2 0x16D PUSH1 0x4 DUP1 CALLDATASIZE SUB PUSH1 0x20 DUP2 LT ISZERO PUSH2 0x240 JUMPI PUSH1 0x0 DUP1 REVERT JUMPDEST POP CALLDATALOAD PUSH1 0x1 PUSH1 0x1 PUSH1 0xA0 SHL SUB AND PUSH2 0x662 JUMP JUMPDEST PUSH2 0x16D PUSH2 0x6B1 JUMP JUMPDEST PUSH2 0x16D PUSH1 0x4 DUP1 CALLDATASIZE SUB PUSH1 0x20 DUP2 LT ISZERO PUSH2 0x26E JUMPI PUSH1 0x0 DUP1 REVERT JUMPDEST POP CALLDATALOAD PUSH1 0x1 PUSH1 0x1 PUSH1 0xA0 SHL SUB AND PUSH2 0x6C1 JUMP JUMPDEST PUSH2 0x29B PUSH1 0x4 DUP1 CALLDATASIZE SUB PUSH1 0x20 DUP2 LT ISZERO PUSH2 0x294 JUMPI PUSH1 0x0 DUP1 REVERT JUMPDEST POP CALLDATALOAD PUSH2 0x729 JUMP JUMPDEST PUSH1 0x40 DUP1 MLOAD SWAP2 DUP3 MSTORE MLOAD SWAP1 DUP2 SWAP1 SUB PUSH1 0x20 ADD SWAP1 RETURN JUMPDEST PUSH2 0x29B PUSH1 0x4 DUP1 CALLDATASIZE SUB PUSH1 0x20 DUP2 LT ISZERO PUSH2 0x2C3 JUMPI PUSH1 0x0 DUP1 REVERT JUMPDEST POP CALLDATALOAD PUSH2 0xA00 JUMP JUMPDEST PUSH2 0x16D PUSH1 0x4 DUP1 CALLDATASIZE SUB PUSH1 0x20 DUP2 LT ISZERO PUSH2 0x2E0 JUMPI PUSH1 0x0 DUP1 REVERT JUMPDEST POP CALLDATALOAD PUSH2 0xA21 JUMP JUMPDEST PUSH2 0x195 PUSH1 0x4 DUP1 CALLDATASIZE SUB PUSH1 0x20 DUP2 LT ISZERO PUSH2 0x2FD JUMPI PUSH1 0x0 DUP1 REVERT JUMPDEST POP CALLDATALOAD PUSH2 0xAAD JUMP JUMPDEST PUSH2 0x16D PUSH1 0x4 DUP1 CALLDATASIZE SUB PUSH1 0x20 DUP2 LT ISZERO PUSH2 0x31A JUMPI PUSH1 0x0 DUP1 REVERT JUMPDEST POP CALLDATALOAD PUSH2 0xB77 JUMP JUMPDEST PUSH2 0x195 PUSH1 0x4 DUP1 CALLDATASIZE SUB PUSH1 0x20 DUP2 LT ISZERO PUSH2 0x337 JUMPI PUSH1 0x0 DUP1 REVERT JUMPDEST POP CALLDATALOAD PUSH2 0xC03 JUMP JUMPDEST PUSH2 0x346 PUSH2 0xCC5 JUMP JUMPDEST PUSH1 0x40 DUP1 MLOAD PUSH1 0x1 PUSH1 0x1 PUSH1 0xA0 SHL SUB SWAP1 SWAP3 AND DUP3 MSTORE MLOAD SWAP1 DUP2 SWAP1 SUB PUSH1 0x20 ADD SWAP1 RETURN JUMPDEST PUSH1 0x7 SLOAD PUSH1 0x0 SWAP1 DUP2 SWAP1 PUSH2 0x37B SWAP1 PUSH1 0x1 PUSH4 0xFFFFFFFF PUSH2 0xCD4 AND JUMP JUMPDEST PUSH1 0x7 DUP1 SLOAD PUSH2 0x390 SWAP1 PUSH1 0x1 PUSH4 0xFFFFFFFF PUSH2 0xCD4 AND JUMP JUMPDEST DUP2 SLOAD DUP2 LT PUSH2 0x39A JUMPI INVALID JUMPDEST SWAP1 PUSH1 0x0 MSTORE PUSH1 0x20 PUSH1 0x0 KECCAK256 ADD SLOAD SWAP2 POP SWAP2 POP SWAP1 SWAP2 JUMP JUMPDEST PUSH2 0x3BD PUSH2 0x3B8 PUSH2 0xD1D JUMP JUMPDEST PUSH2 0x432 JUMP JUMPDEST PUSH2 0x3F8 JUMPI PUSH1 0x40 MLOAD PUSH3 0x461BCD PUSH1 0xE5 SHL DUP2 MSTORE PUSH1 0x4 ADD DUP1 DUP1 PUSH1 0x20 ADD DUP3 DUP2 SUB DUP3 MSTORE PUSH1 0x2E DUP2 MSTORE PUSH1 0x20 ADD DUP1 PUSH2 0x1758 PUSH1 0x2E SWAP2 CODECOPY PUSH1 0x40 ADD SWAP2 POP POP PUSH1 0x40 MLOAD DUP1 SWAP2 SUB SWAP1 REVERT JUMPDEST PUSH1 0x2 DUP1 SLOAD PUSH1 0x1 PUSH1 0x1 PUSH1 0xA0 SHL SUB NOT AND PUSH1 0x1 PUSH1 0x1 PUSH1 0xA0 SHL SUB SWAP3 SWAP1 SWAP3 AND SWAP2 SWAP1 SWAP2 OR SWAP1 SSTORE JUMP JUMPDEST PUSH1 0x0 PUSH2 0x42C DUP2 DUP4 PUSH4 0xFFFFFFFF PUSH2 0xD21 AND JUMP JUMPDEST SWAP3 SWAP2 POP POP JUMP JUMPDEST PUSH1 0x0 PUSH2 0x42C PUSH1 0x1 DUP4 PUSH4 0xFFFFFFFF PUSH2 0xD21 AND JUMP JUMPDEST PUSH2 0x455 PUSH2 0x450 PUSH2 0xD1D JUMP JUMPDEST PUSH2 0xD88 JUMP JUMPDEST JUMP JUMPDEST PUSH1 0x0 PUSH1 0x8 SLOAD TIMESTAMP LT ISZERO DUP1 ISZERO PUSH2 0x46D JUMPI POP PUSH1 0x9 SLOAD TIMESTAMP GT ISZERO JUMPDEST PUSH2 0x4BE JUMPI PUSH1 0x40 DUP1 MLOAD PUSH3 0x461BCD PUSH1 0xE5 SHL DUP2 MSTORE PUSH1 0x20 PUSH1 0x4 DUP3 ADD MSTORE PUSH1 0x1B PUSH1 0x24 DUP3 ADD MSTORE PUSH32 0x546865206D61726B6574206973206E6F74206F70656E207965742E0000000000 PUSH1 0x44 DUP3 ADD MSTORE SWAP1 MLOAD SWAP1 DUP2 SWAP1 SUB PUSH1 0x64 ADD SWAP1 REVERT JUMPDEST PUSH1 0x4 SLOAD TIMESTAMP LT ISZERO DUP1 ISZERO PUSH2 0x4D2 JUMPI POP PUSH1 0x5 SLOAD TIMESTAMP GT ISZERO JUMPDEST SWAP1 POP SWAP1 JUMP JUMPDEST PUSH2 0x4E2 PUSH2 0x3B8 PUSH2 0xD1D JUMP JUMPDEST PUSH2 0x51D JUMPI PUSH1 0x40 MLOAD PUSH3 0x461BCD PUSH1 0xE5 SHL DUP2 MSTORE PUSH1 0x4 ADD DUP1 DUP1 PUSH1 0x20 ADD DUP3 DUP2 SUB DUP3 MSTORE PUSH1 0x2E DUP2 MSTORE PUSH1 0x20 ADD DUP1 PUSH2 0x1758 PUSH1 0x2E SWAP2 CODECOPY PUSH1 0x40 ADD SWAP2 POP POP PUSH1 0x40 MLOAD DUP1 SWAP2 SUB SWAP1 REVERT JUMPDEST PUSH1 0x5 SLOAD PUSH1 0x4 SLOAD LT PUSH2 0x55F JUMPI PUSH1 0x40 MLOAD PUSH3 0x461BCD PUSH1 0xE5 SHL DUP2 MSTORE PUSH1 0x4 ADD DUP1 DUP1 PUSH1 0x20 ADD DUP3 DUP2 SUB DUP3 MSTORE PUSH1 0x40 DUP2 MSTORE PUSH1 0x20 ADD DUP1 PUSH2 0x16D5 PUSH1 0x40 SWAP2 CODECOPY PUSH1 0x40 ADD SWAP2 POP POP PUSH1 0x40 MLOAD DUP1 SWAP2 SUB SWAP1 REVERT JUMPDEST PUSH1 0x5 SLOAD PUSH2 0x574 SWAP1 PUSH2 0xD2F0 PUSH4 0xFFFFFFFF PUSH2 0xDD0 AND JUMP JUMPDEST PUSH1 0x4 DUP2 SWAP1 SSTORE PUSH2 0x58B SWAP1 PUSH2 0x7E90 PUSH4 0xFFFFFFFF PUSH2 0xDD0 AND JUMP JUMPDEST PUSH1 0x5 SSTORE JUMP JUMPDEST PUSH2 0x59B PUSH2 0x3B8 PUSH2 0xD1D JUMP JUMPDEST PUSH2 0x5D6 JUMPI PUSH1 0x40 MLOAD PUSH3 0x461BCD PUSH1 0xE5 SHL DUP2 MSTORE PUSH1 0x4 ADD DUP1 DUP1 PUSH1 0x20 ADD DUP3 DUP2 SUB DUP3 MSTORE PUSH1 0x2E DUP2 MSTORE PUSH1 0x20 ADD DUP1 PUSH2 0x1758 PUSH1 0x2E SWAP2 CODECOPY PUSH1 0x40 ADD SWAP2 POP POP PUSH1 0x40 MLOAD DUP1 SWAP2 SUB SWAP1 REVERT JUMPDEST PUSH2 0x5DF DUP2 PUSH2 0xE2A JUMP JUMPDEST POP JUMP JUMPDEST PUSH2 0x5F2 PUSH2 0x5ED PUSH2 0xD1D JUMP JUMPDEST PUSH2 0x41A JUMP JUMPDEST PUSH2 0x62D JUMPI PUSH1 0x40 MLOAD PUSH3 0x461BCD PUSH1 0xE5 SHL DUP2 MSTORE PUSH1 0x4 ADD DUP1 DUP1 PUSH1 0x20 ADD DUP3 DUP2 SUB DUP3 MSTORE PUSH1 0x30 DUP2 MSTORE PUSH1 0x20 ADD DUP1 PUSH2 0x1684 PUSH1 0x30 SWAP2 CODECOPY PUSH1 0x40 ADD SWAP2 POP POP PUSH1 0x40 MLOAD DUP1 SWAP2 SUB SWAP1 REVERT JUMPDEST PUSH1 0x7 DUP1 SLOAD PUSH1 0x1 DUP2 ADD DUP3 SSTORE PUSH1 0x0 SWAP2 SWAP1 SWAP2 MSTORE PUSH32 0xA66CC928B5EDB82AF9BD49922954155AB7B0942694BEA4CE44661D9A8736C688 ADD SSTORE JUMP JUMPDEST PUSH2 0x66D PUSH2 0x5ED PUSH2 0xD1D JUMP JUMPDEST PUSH2 0x6A8 JUMPI PUSH1 0x40 MLOAD PUSH3 0x461BCD PUSH1 0xE5 SHL DUP2 MSTORE PUSH1 0x4 ADD DUP1 DUP1 PUSH1 0x20 ADD DUP3 DUP2 SUB DUP3 MSTORE PUSH1 0x30 DUP2 MSTORE PUSH1 0x20 ADD DUP1 PUSH2 0x1684 PUSH1 0x30 SWAP2 CODECOPY PUSH1 0x40 ADD SWAP2 POP POP PUSH1 0x40 MLOAD DUP1 SWAP2 SUB SWAP1 REVERT JUMPDEST PUSH2 0x5DF DUP2 PUSH2 0xE72 JUMP JUMPDEST PUSH2 0x455 PUSH2 0x6BC PUSH2 0xD1D JUMP JUMPDEST PUSH2 0xEBA JUMP JUMPDEST PUSH2 0x6CC PUSH2 0x3B8 PUSH2 0xD1D JUMP JUMPDEST PUSH2 0x707 JUMPI PUSH1 0x40 MLOAD PUSH3 0x461BCD PUSH1 0xE5 SHL DUP2 MSTORE PUSH1 0x4 ADD DUP1 DUP1 PUSH1 0x20 ADD DUP3 DUP2 SUB DUP3 MSTORE PUSH1 0x2E DUP2 MSTORE PUSH1 0x20 ADD DUP1 PUSH2 0x1758 PUSH1 0x2E SWAP2 CODECOPY PUSH1 0x40 ADD SWAP2 POP POP PUSH1 0x40 MLOAD DUP1 SWAP2 SUB SWAP1 REVERT JUMPDEST PUSH1 0x3 DUP1 SLOAD PUSH1 0x1 PUSH1 0x1 PUSH1 0xA0 SHL SUB NOT AND PUSH1 0x1 PUSH1 0x1 PUSH1 0xA0 SHL SUB SWAP3 SWAP1 SWAP3 AND SWAP2 SWAP1 SWAP2 OR SWAP1 SSTORE JUMP JUMPDEST PUSH1 0x0 PUSH2 0x736 PUSH2 0x5ED PUSH2 0xD1D JUMP JUMPDEST PUSH2 0x771 JUMPI PUSH1 0x40 MLOAD PUSH3 0x461BCD PUSH1 0xE5 SHL DUP2 MSTORE PUSH1 0x4 ADD DUP1 DUP1 PUSH1 0x20 ADD DUP3 DUP2 SUB DUP3 MSTORE PUSH1 0x30 DUP2 MSTORE PUSH1 0x20 ADD DUP1 PUSH2 0x1684 PUSH1 0x30 SWAP2 CODECOPY PUSH1 0x40 ADD SWAP2 POP POP PUSH1 0x40 MLOAD DUP1 SWAP2 SUB SWAP1 REVERT JUMPDEST PUSH1 0x7 DUP1 SLOAD PUSH1 0x0 SWAP2 SWAP1 PUSH2 0x78A SWAP1 PUSH1 0x1 PUSH4 0xFFFFFFFF PUSH2 0xCD4 AND JUMP JUMPDEST DUP2 SLOAD DUP2 LT PUSH2 0x794 JUMPI INVALID JUMPDEST PUSH1 0x0 SWAP2 DUP3 MSTORE PUSH1 0x20 DUP3 KECCAK256 ADD SLOAD SWAP2 POP DUP4 DUP3 ADD SWAP1 DUP1 DUP3 SGT PUSH2 0x7F9 JUMPI PUSH1 0x40 DUP1 MLOAD PUSH3 0x461BCD PUSH1 0xE5 SHL DUP2 MSTORE PUSH1 0x20 PUSH1 0x4 DUP3 ADD MSTORE PUSH1 0x17 PUSH1 0x24 DUP3 ADD MSTORE PUSH32 0x5072696365206D75737420626520706F73697469766521000000000000000000 PUSH1 0x44 DUP3 ADD MSTORE SWAP1 MLOAD SWAP1 DUP2 SWAP1 SUB PUSH1 0x64 ADD SWAP1 REVERT JUMPDEST PUSH2 0x804 PUSH2 0x3B8 PUSH2 0xD1D JUMP JUMPDEST ISZERO PUSH2 0x8B8 JUMPI PUSH2 0x811 PUSH2 0x457 JUMP JUMPDEST PUSH2 0x855 JUMPI PUSH1 0x40 DUP1 MLOAD PUSH3 0x461BCD PUSH1 0xE5 SHL DUP2 MSTORE PUSH1 0x20 PUSH1 0x4 DUP3 ADD MSTORE PUSH1 0x10 PUSH1 0x24 DUP3 ADD MSTORE PUSH16 0x13585C9AD95D081A5CC818DB1BDCD959 PUSH1 0x82 SHL PUSH1 0x44 DUP3 ADD MSTORE SWAP1 MLOAD SWAP1 DUP2 SWAP1 SUB PUSH1 0x64 ADD SWAP1 REVERT JUMPDEST PUSH2 0x85E DUP3 PUSH2 0x5E2 JUMP JUMPDEST PUSH1 0x7 SLOAD PUSH2 0x872 SWAP1 PUSH1 0x1 PUSH4 0xFFFFFFFF PUSH2 0xCD4 AND JUMP JUMPDEST SWAP1 POP DUP2 DUP2 PUSH2 0x87E PUSH2 0xD1D JUMP JUMPDEST PUSH1 0x1 PUSH1 0x1 PUSH1 0xA0 SHL SUB AND PUSH32 0x24E1C492BC15609A5125924E67E792A203A4F550A353426FAD01A2C6D5FF976 PUSH1 0x40 MLOAD PUSH1 0x40 MLOAD DUP1 SWAP2 SUB SWAP1 LOG4 PUSH2 0x9F8 JUMP JUMPDEST PUSH1 0x6 SLOAD PUSH1 0x4 PUSH1 0xFF SWAP1 SWAP2 AND LT PUSH2 0x90D JUMPI PUSH1 0x40 DUP1 MLOAD PUSH3 0x461BCD PUSH1 0xE5 SHL DUP2 MSTORE PUSH1 0x20 PUSH1 0x4 DUP3 ADD MSTORE PUSH1 0x16 PUSH1 0x24 DUP3 ADD MSTORE PUSH22 0x20B63932B0B23C9031B0B63639901A103A34B6B2B997 PUSH1 0x51 SHL PUSH1 0x44 DUP3 ADD MSTORE SWAP1 MLOAD SWAP1 DUP2 SWAP1 SUB PUSH1 0x64 ADD SWAP1 REVERT JUMPDEST PUSH2 0x93F PUSH2 0x932 PUSH1 0x64 PUSH2 0x926 DUP7 PUSH1 0xA PUSH4 0xFFFFFFFF PUSH2 0xF02 AND JUMP JUMPDEST SWAP1 PUSH4 0xFFFFFFFF PUSH2 0xF5B AND JUMP JUMPDEST DUP5 SWAP1 PUSH4 0xFFFFFFFF PUSH2 0xCD4 AND JUMP JUMPDEST DUP3 GT DUP1 ISZERO PUSH2 0x971 JUMPI POP PUSH2 0x96E PUSH2 0x961 PUSH1 0x64 PUSH2 0x926 DUP7 PUSH1 0xA PUSH4 0xFFFFFFFF PUSH2 0xF02 AND JUMP JUMPDEST DUP5 SWAP1 PUSH4 0xFFFFFFFF PUSH2 0xDD0 AND JUMP JUMPDEST DUP3 LT JUMPDEST PUSH2 0x9C2 JUMPI PUSH1 0x40 DUP1 MLOAD PUSH3 0x461BCD PUSH1 0xE5 SHL DUP2 MSTORE PUSH1 0x20 PUSH1 0x4 DUP3 ADD MSTORE PUSH1 0x1C PUSH1 0x24 DUP3 ADD MSTORE PUSH32 0x43616E2774206368616E6765206D6F7265207468616E202D2B31302500000000 PUSH1 0x44 DUP3 ADD MSTORE SWAP1 MLOAD SWAP1 DUP2 SWAP1 SUB PUSH1 0x64 ADD SWAP1 REVERT JUMPDEST PUSH2 0x9CB DUP3 PUSH2 0x5E2 JUMP JUMPDEST PUSH1 0x7 SLOAD PUSH2 0x9DF SWAP1 PUSH1 0x1 PUSH4 0xFFFFFFFF PUSH2 0xCD4 AND JUMP JUMPDEST PUSH1 0x6 DUP1 SLOAD PUSH1 0xFF DUP1 DUP3 AND PUSH1 0x1 ADD AND PUSH1 0xFF NOT SWAP1 SWAP2 AND OR SWAP1 SSTORE SWAP1 POP JUMPDEST SWAP5 SWAP4 POP POP POP POP JUMP JUMPDEST PUSH1 0x0 PUSH1 0x7 DUP3 DUP2 SLOAD DUP2 LT PUSH2 0xA0F JUMPI INVALID JUMPDEST SWAP1 PUSH1 0x0 MSTORE PUSH1 0x20 PUSH1 0x0 KECCAK256 ADD SLOAD SWAP1 POP SWAP2 SWAP1 POP JUMP JUMPDEST PUSH2 0xA2C PUSH2 0x3B8 PUSH2 0xD1D JUMP JUMPDEST PUSH2 0xA67 JUMPI PUSH1 0x40 MLOAD PUSH3 0x461BCD PUSH1 0xE5 SHL DUP2 MSTORE PUSH1 0x4 ADD DUP1 DUP1 PUSH1 0x20 ADD DUP3 DUP2 SUB DUP3 MSTORE PUSH1 0x2E DUP2 MSTORE PUSH1 0x20 ADD DUP1 PUSH2 0x1758 PUSH1 0x2E SWAP2 CODECOPY PUSH1 0x40 ADD SWAP2 POP POP PUSH1 0x40 MLOAD DUP1 SWAP2 SUB SWAP1 REVERT JUMPDEST PUSH1 0x8 DUP2 SWAP1 SSTORE DUP1 PUSH2 0xA75 PUSH2 0xD1D JUMP JUMPDEST PUSH1 0x1 PUSH1 0x1 PUSH1 0xA0 SHL SUB AND PUSH32 0x16C752BDF6502CC829C9A81132E2E73AEB12D145E0E3B1CD632A9759485A5F53 PUSH1 0x40 MLOAD PUSH1 0x40 MLOAD DUP1 SWAP2 SUB SWAP1 LOG3 POP JUMP JUMPDEST PUSH1 0x0 PUSH2 0xAB7 PUSH2 0x457 JUMP JUMPDEST PUSH2 0xAFB JUMPI PUSH1 0x40 DUP1 MLOAD PUSH3 0x461BCD PUSH1 0xE5 SHL DUP2 MSTORE PUSH1 0x20 PUSH1 0x4 DUP3 ADD MSTORE PUSH1 0x10 PUSH1 0x24 DUP3 ADD MSTORE PUSH16 0x13585C9AD95D081A5CC818DB1BDCD959 PUSH1 0x82 SHL PUSH1 0x44 DUP3 ADD MSTORE SWAP1 MLOAD SWAP1 DUP2 SWAP1 SUB PUSH1 0x64 ADD SWAP1 REVERT JUMPDEST PUSH1 0x8 SLOAD TIMESTAMP GT DUP1 ISZERO PUSH2 0xB0D JUMPI POP PUSH1 0x9 SLOAD TIMESTAMP LT JUMPDEST PUSH2 0xB5E JUMPI PUSH1 0x40 DUP1 MLOAD PUSH3 0x461BCD PUSH1 0xE5 SHL DUP2 MSTORE PUSH1 0x20 PUSH1 0x4 DUP3 ADD MSTORE PUSH1 0x1C PUSH1 0x24 DUP3 ADD MSTORE PUSH32 0x546865206D61726B657420697320636C6F736520666F72657665722E00000000 PUSH1 0x44 DUP3 ADD MSTORE SWAP1 MLOAD SWAP1 DUP2 SWAP1 SUB PUSH1 0x64 ADD SWAP1 REVERT JUMPDEST PUSH2 0xB6F PUSH2 0xB69 PUSH2 0xD1D JUMP JUMPDEST DUP4 PUSH2 0xF9D JUMP JUMPDEST POP PUSH1 0x1 SWAP2 SWAP1 POP JUMP JUMPDEST PUSH2 0xB82 PUSH2 0x3B8 PUSH2 0xD1D JUMP JUMPDEST PUSH2 0xBBD JUMPI PUSH1 0x40 MLOAD PUSH3 0x461BCD PUSH1 0xE5 SHL DUP2 MSTORE PUSH1 0x4 ADD DUP1 DUP1 PUSH1 0x20 ADD DUP3 DUP2 SUB DUP3 MSTORE PUSH1 0x2E DUP2 MSTORE PUSH1 0x20 ADD DUP1 PUSH2 0x1758 PUSH1 0x2E SWAP2 CODECOPY PUSH1 0x40 ADD SWAP2 POP POP PUSH1 0x40 MLOAD DUP1 SWAP2 SUB SWAP1 REVERT JUMPDEST PUSH1 0x9 DUP2 SWAP1 SSTORE DUP1 PUSH2 0xBCB PUSH2 0xD1D JUMP JUMPDEST PUSH1 0x1 PUSH1 0x1 PUSH1 0xA0 SHL SUB AND PUSH32 0x9CD0F0F4C626F6284B893EFF5AA9A5F50E76B4FA9811BF3EC86AC52CC6ED7827 PUSH1 0x40 MLOAD PUSH1 0x40 MLOAD DUP1 SWAP2 SUB SWAP1 LOG3 POP JUMP JUMPDEST PUSH1 0x0 PUSH2 0xC0D PUSH2 0x457 JUMP JUMPDEST PUSH2 0xC51 JUMPI PUSH1 0x40 DUP1 MLOAD PUSH3 0x461BCD PUSH1 0xE5 SHL DUP2 MSTORE PUSH1 0x20 PUSH1 0x4 DUP3 ADD MSTORE PUSH1 0x10 PUSH1 0x24 DUP3 ADD MSTORE PUSH16 0x13585C9AD95D081A5CC818DB1BDCD959 PUSH1 0x82 SHL PUSH1 0x44 DUP3 ADD MSTORE SWAP1 MLOAD SWAP1 DUP2 SWAP1 SUB PUSH1 0x64 ADD SWAP1 REVERT JUMPDEST PUSH1 0x8 SLOAD TIMESTAMP GT DUP1 ISZERO PUSH2 0xC63 JUMPI POP PUSH1 0x9 SLOAD TIMESTAMP LT JUMPDEST PUSH2 0xCB4 JUMPI PUSH1 0x40 DUP1 MLOAD PUSH3 0x461BCD PUSH1 0xE5 SHL DUP2 MSTORE PUSH1 0x20 PUSH1 0x4 DUP3 ADD MSTORE PUSH1 0x1C PUSH1 0x24 DUP3 ADD MSTORE PUSH32 0x546865206D61726B657420697320636C6F736520666F72657665722E00000000 PUSH1 0x44 DUP3 ADD MSTORE SWAP1 MLOAD SWAP1 DUP2 SWAP1 SUB PUSH1 0x64 ADD SWAP1 REVERT JUMPDEST PUSH2 0xB6F PUSH2 0xCBF PUSH2 0xD1D JUMP JUMPDEST DUP4 PUSH2 0x1199 JUMP JUMPDEST PUSH1 0x3 SLOAD PUSH1 0x1 PUSH1 0x1 PUSH1 0xA0 SHL SUB AND DUP2 JUMP JUMPDEST PUSH1 0x0 PUSH2 0xD16 DUP4 DUP4 PUSH1 0x40 MLOAD DUP1 PUSH1 0x40 ADD PUSH1 0x40 MSTORE DUP1 PUSH1 0x1E DUP2 MSTORE PUSH1 0x20 ADD PUSH32 0x536166654D6174683A207375627472616374696F6E206F766572666C6F770000 DUP2 MSTORE POP PUSH2 0x1355 JUMP JUMPDEST SWAP4 SWAP3 POP POP POP JUMP JUMPDEST CALLER SWAP1 JUMP JUMPDEST PUSH1 0x0 PUSH1 0x1 PUSH1 0x1 PUSH1 0xA0 SHL SUB DUP3 AND PUSH2 0xD68 JUMPI PUSH1 0x40 MLOAD PUSH3 0x461BCD PUSH1 0xE5 SHL DUP2 MSTORE PUSH1 0x4 ADD DUP1 DUP1 PUSH1 0x20 ADD DUP3 DUP2 SUB DUP3 MSTORE PUSH1 0x22 DUP2 MSTORE PUSH1 0x20 ADD DUP1 PUSH2 0x1736 PUSH1 0x22 SWAP2 CODECOPY PUSH1 0x40 ADD SWAP2 POP POP PUSH1 0x40 MLOAD DUP1 SWAP2 SUB SWAP1 REVERT JUMPDEST POP PUSH1 0x1 PUSH1 0x1 PUSH1 0xA0 SHL SUB AND PUSH1 0x0 SWAP1 DUP2 MSTORE PUSH1 0x20 SWAP2 SWAP1 SWAP2 MSTORE PUSH1 0x40 SWAP1 KECCAK256 SLOAD PUSH1 0xFF AND SWAP1 JUMP JUMPDEST PUSH2 0xD99 PUSH1 0x0 DUP3 PUSH4 0xFFFFFFFF PUSH2 0x13EC AND JUMP JUMPDEST PUSH1 0x40 MLOAD PUSH1 0x1 PUSH1 0x1 PUSH1 0xA0 SHL SUB DUP3 AND SWAP1 PUSH32 0xE5C6F32FB04B7DE81910252A1E1D29267CD9E5FC428AFAD67442D00C7B127BD0 SWAP1 PUSH1 0x0 SWAP1 LOG2 POP JUMP JUMPDEST PUSH1 0x0 DUP3 DUP3 ADD DUP4 DUP2 LT ISZERO PUSH2 0xD16 JUMPI PUSH1 0x40 DUP1 MLOAD PUSH3 0x461BCD PUSH1 0xE5 SHL DUP2 MSTORE PUSH1 0x20 PUSH1 0x4 DUP3 ADD MSTORE PUSH1 0x1B PUSH1 0x24 DUP3 ADD MSTORE PUSH32 0x536166654D6174683A206164646974696F6E206F766572666C6F770000000000 PUSH1 0x44 DUP3 ADD MSTORE SWAP1 MLOAD SWAP1 DUP2 SWAP1 SUB PUSH1 0x64 ADD SWAP1 REVERT JUMPDEST PUSH2 0xE3B PUSH1 0x1 DUP3 PUSH4 0xFFFFFFFF PUSH2 0x1453 AND JUMP JUMPDEST PUSH1 0x40 MLOAD PUSH1 0x1 PUSH1 0x1 PUSH1 0xA0 SHL SUB DUP3 AND SWAP1 PUSH32 0x44D6D25963F097AD14F29F06854A01F575648A1EF82F30E562CCD3889717E339 SWAP1 PUSH1 0x0 SWAP1 LOG2 POP JUMP JUMPDEST PUSH2 0xE83 PUSH1 0x0 DUP3 PUSH4 0xFFFFFFFF PUSH2 0x1453 AND JUMP JUMPDEST PUSH1 0x40 MLOAD PUSH1 0x1 PUSH1 0x1 PUSH1 0xA0 SHL SUB DUP3 AND SWAP1 PUSH32 0x40C56D2C4C08EEAD919E7228CF5B749297271698EC38E954D322EF4BCF1D58FB SWAP1 PUSH1 0x0 SWAP1 LOG2 POP JUMP JUMPDEST PUSH2 0xECB PUSH1 0x1 DUP3 PUSH4 0xFFFFFFFF PUSH2 0x13EC AND JUMP JUMPDEST PUSH1 0x40 MLOAD PUSH1 0x1 PUSH1 0x1 PUSH1 0xA0 SHL SUB DUP3 AND SWAP1 PUSH32 0xA3B62BC36326052D97EA62D63C3D60308ED4C3EA8AC079DD8499F1E9C4F80C0F SWAP1 PUSH1 0x0 SWAP1 LOG2 POP JUMP JUMPDEST PUSH1 0x0 DUP3 PUSH2 0xF11 JUMPI POP PUSH1 0x0 PUSH2 0x42C JUMP JUMPDEST DUP3 DUP3 MUL DUP3 DUP5 DUP3 DUP2 PUSH2 0xF1E JUMPI INVALID JUMPDEST DIV EQ PUSH2 0xD16 JUMPI PUSH1 0x40 MLOAD PUSH3 0x461BCD PUSH1 0xE5 SHL DUP2 MSTORE PUSH1 0x4 ADD DUP1 DUP1 PUSH1 0x20 ADD DUP3 DUP2 SUB DUP3 MSTORE PUSH1 0x21 DUP2 MSTORE PUSH1 0x20 ADD DUP1 PUSH2 0x1715 PUSH1 0x21 SWAP2 CODECOPY PUSH1 0x40 ADD SWAP2 POP POP PUSH1 0x40 MLOAD DUP1 SWAP2 SUB SWAP1 REVERT JUMPDEST PUSH1 0x0 PUSH2 0xD16 DUP4 DUP4 PUSH1 0x40 MLOAD DUP1 PUSH1 0x40 ADD PUSH1 0x40 MSTORE DUP1 PUSH1 0x1A DUP2 MSTORE PUSH1 0x20 ADD PUSH32 0x536166654D6174683A206469766973696F6E206279207A65726F000000000000 DUP2 MSTORE POP PUSH2 0x14D4 JUMP JUMPDEST PUSH1 0x1 PUSH1 0x1 PUSH1 0xA0 SHL SUB DUP3 AND PUSH2 0xFF8 JUMPI PUSH1 0x40 DUP1 MLOAD PUSH3 0x461BCD PUSH1 0xE5 SHL DUP2 MSTORE PUSH1 0x20 PUSH1 0x4 DUP3 ADD MSTORE PUSH1 0x1D PUSH1 0x24 DUP3 ADD MSTORE PUSH32 0x526563697069656E7420697320746865207A65726F2061646472657373000000 PUSH1 0x44 DUP3 ADD MSTORE SWAP1 MLOAD SWAP1 DUP2 SWAP1 SUB PUSH1 0x64 ADD SWAP1 REVERT JUMPDEST PUSH1 0x3 SLOAD PUSH1 0xB SLOAD PUSH1 0x1 PUSH1 0x1 PUSH1 0xA0 SHL SUB SWAP2 DUP3 AND SWAP2 PUSH4 0x23B872DD SWAP2 DUP6 SWAP2 AND PUSH2 0x101E DUP6 PUSH1 0x1 PUSH2 0x1539 JUMP JUMPDEST PUSH1 0x40 MLOAD DUP5 PUSH4 0xFFFFFFFF AND PUSH1 0xE0 SHL DUP2 MSTORE PUSH1 0x4 ADD DUP1 DUP5 PUSH1 0x1 PUSH1 0x1 PUSH1 0xA0 SHL SUB AND PUSH1 0x1 PUSH1 0x1 PUSH1 0xA0 SHL SUB AND DUP2 MSTORE PUSH1 0x20 ADD DUP4 PUSH1 0x1 PUSH1 0x1 PUSH1 0xA0 SHL SUB AND PUSH1 0x1 PUSH1 0x1 PUSH1 0xA0 SHL SUB AND DUP2 MSTORE PUSH1 0x20 ADD DUP3 DUP2 MSTORE PUSH1 0x20 ADD SWAP4 POP POP POP POP PUSH1 0x20 PUSH1 0x40 MLOAD DUP1 DUP4 SUB DUP2 PUSH1 0x0 DUP8 DUP1 EXTCODESIZE ISZERO DUP1 ISZERO PUSH2 0x1086 JUMPI PUSH1 0x0 DUP1 REVERT JUMPDEST POP GAS CALL ISZERO DUP1 ISZERO PUSH2 0x109A JUMPI RETURNDATASIZE PUSH1 0x0 DUP1 RETURNDATACOPY RETURNDATASIZE PUSH1 0x0 REVERT JUMPDEST POP POP POP POP PUSH1 0x40 MLOAD RETURNDATASIZE PUSH1 0x20 DUP2 LT ISZERO PUSH2 0x10B0 JUMPI PUSH1 0x0 DUP1 REVERT JUMPDEST POP POP PUSH1 0x2 SLOAD PUSH1 0x40 DUP1 MLOAD PUSH4 0x40C10F19 PUSH1 0xE0 SHL DUP2 MSTORE PUSH1 0x1 PUSH1 0x1 PUSH1 0xA0 SHL SUB DUP6 DUP2 AND PUSH1 0x4 DUP4 ADD MSTORE PUSH1 0x24 DUP3 ADD DUP6 SWAP1 MSTORE SWAP2 MLOAD SWAP2 SWAP1 SWAP3 AND SWAP2 PUSH4 0x40C10F19 SWAP2 PUSH1 0x44 DUP1 DUP4 ADD SWAP3 PUSH1 0x20 SWAP3 SWAP2 SWAP1 DUP3 SWAP1 SUB ADD DUP2 PUSH1 0x0 DUP8 DUP1 EXTCODESIZE ISZERO DUP1 ISZERO PUSH2 0x1108 JUMPI PUSH1 0x0 DUP1 REVERT JUMPDEST POP GAS CALL ISZERO DUP1 ISZERO PUSH2 0x111C JUMPI RETURNDATASIZE PUSH1 0x0 DUP1 RETURNDATACOPY RETURNDATASIZE PUSH1 0x0 REVERT JUMPDEST POP POP POP POP PUSH1 0x40 MLOAD RETURNDATASIZE PUSH1 0x20 DUP2 LT ISZERO PUSH2 0x1132 JUMPI PUSH1 0x0 DUP1 REVERT JUMPDEST POP POP PUSH1 0x7 DUP1 SLOAD PUSH2 0x1149 SWAP1 PUSH1 0x1 PUSH4 0xFFFFFFFF PUSH2 0xCD4 AND JUMP JUMPDEST DUP2 SLOAD DUP2 LT PUSH2 0x1153 JUMPI INVALID JUMPDEST SWAP1 PUSH1 0x0 MSTORE PUSH1 0x20 PUSH1 0x0 KECCAK256 ADD SLOAD DUP2 DUP4 PUSH1 0x1 PUSH1 0x1 PUSH1 0xA0 SHL SUB AND PUSH32 0x1CBC5AB135991BD2B6A4B034A04AA2AA086DAC1371CB9B16B8B5E2ED6B036BED PUSH1 0x40 MLOAD PUSH1 0x40 MLOAD DUP1 SWAP2 SUB SWAP1 LOG4 POP POP JUMP JUMPDEST PUSH1 0x1 PUSH1 0x1 PUSH1 0xA0 SHL SUB DUP3 AND PUSH2 0x11F4 JUMPI PUSH1 0x40 DUP1 MLOAD PUSH3 0x461BCD PUSH1 0xE5 SHL DUP2 MSTORE PUSH1 0x20 PUSH1 0x4 DUP3 ADD MSTORE PUSH1 0x1A PUSH1 0x24 DUP3 ADD MSTORE PUSH32 0x53656C6C657220697320746865207A65726F2061646472657373000000000000 PUSH1 0x44 DUP3 ADD MSTORE SWAP1 MLOAD SWAP1 DUP2 SWAP1 SUB PUSH1 0x64 ADD SWAP1 REVERT JUMPDEST PUSH1 0x2 SLOAD PUSH1 0x40 DUP1 MLOAD PUSH4 0x79CC679 PUSH1 0xE4 SHL DUP2 MSTORE PUSH1 0x1 PUSH1 0x1 PUSH1 0xA0 SHL SUB DUP6 DUP2 AND PUSH1 0x4 DUP4 ADD MSTORE PUSH1 0x24 DUP3 ADD DUP6 SWAP1 MSTORE SWAP2 MLOAD SWAP2 SWAP1 SWAP3 AND SWAP2 PUSH4 0x79CC6790 SWAP2 PUSH1 0x44 DUP1 DUP4 ADD SWAP3 PUSH1 0x0 SWAP3 SWAP2 SWAP1 DUP3 SWAP1 SUB ADD DUP2 DUP4 DUP8 DUP1 EXTCODESIZE ISZERO DUP1 ISZERO PUSH2 0x1249 JUMPI PUSH1 0x0 DUP1 REVERT JUMPDEST POP GAS CALL ISZERO DUP1 ISZERO PUSH2 0x125D JUMPI RETURNDATASIZE PUSH1 0x0 DUP1 RETURNDATACOPY RETURNDATASIZE PUSH1 0x0 REVERT JUMPDEST POP POP PUSH1 0x3 SLOAD PUSH1 0x1 PUSH1 0x1 PUSH1 0xA0 SHL SUB AND SWAP2 POP PUSH4 0x40C10F19 SWAP1 POP DUP4 PUSH2 0x1280 DUP5 PUSH1 0x0 PUSH2 0x1539 JUMP JUMPDEST PUSH1 0x40 MLOAD DUP4 PUSH4 0xFFFFFFFF AND PUSH1 0xE0 SHL DUP2 MSTORE PUSH1 0x4 ADD DUP1 DUP4 PUSH1 0x1 PUSH1 0x1 PUSH1 0xA0 SHL SUB AND PUSH1 0x1 PUSH1 0x1 PUSH1 0xA0 SHL SUB AND DUP2 MSTORE PUSH1 0x20 ADD DUP3 DUP2 MSTORE PUSH1 0x20 ADD SWAP3 POP POP POP PUSH1 0x20 PUSH1 0x40 MLOAD DUP1 DUP4 SUB DUP2 PUSH1 0x0 DUP8 DUP1 EXTCODESIZE ISZERO DUP1 ISZERO PUSH2 0x12CF JUMPI PUSH1 0x0 DUP1 REVERT JUMPDEST POP GAS CALL ISZERO DUP1 ISZERO PUSH2 0x12E3 JUMPI RETURNDATASIZE PUSH1 0x0 DUP1 RETURNDATACOPY RETURNDATASIZE PUSH1 0x0 REVERT JUMPDEST POP POP POP POP PUSH1 0x40 MLOAD RETURNDATASIZE PUSH1 0x20 DUP2 LT ISZERO PUSH2 0x12F9 JUMPI PUSH1 0x0 DUP1 REVERT JUMPDEST POP POP PUSH1 0x7 DUP1 SLOAD PUSH2 0x1310 SWAP1 PUSH1 0x1 PUSH4 0xFFFFFFFF PUSH2 0xCD4 AND JUMP JUMPDEST DUP2 SLOAD DUP2 LT PUSH2 0x131A JUMPI INVALID JUMPDEST PUSH1 0x0 SWAP2 DUP3 MSTORE PUSH1 0x20 DUP3 KECCAK256 ADD SLOAD PUSH1 0x40 MLOAD SWAP1 SWAP2 DUP4 SWAP2 ADDRESS SWAP2 PUSH32 0xED7A144FAD14804D5C249145E3E0E2B63A9EB455B76AEE5BC92D711E9BBA3E4A SWAP2 LOG4 POP POP JUMP JUMPDEST PUSH1 0x0 DUP2 DUP5 DUP5 GT ISZERO PUSH2 0x13E4 JUMPI PUSH1 0x40 MLOAD PUSH3 0x461BCD PUSH1 0xE5 SHL DUP2 MSTORE PUSH1 0x4 ADD DUP1 DUP1 PUSH1 0x20 ADD DUP3 DUP2 SUB DUP3 MSTORE DUP4 DUP2 DUP2 MLOAD DUP2 MSTORE PUSH1 0x20 ADD SWAP2 POP DUP1 MLOAD SWAP1 PUSH1 0x20 ADD SWAP1 DUP1 DUP4 DUP4 PUSH1 0x0 JUMPDEST DUP4 DUP2 LT ISZERO PUSH2 0x13A9 JUMPI DUP2 DUP2 ADD MLOAD DUP4 DUP3 ADD MSTORE PUSH1 0x20 ADD PUSH2 0x1391 JUMP JUMPDEST POP POP POP POP SWAP1 POP SWAP1 DUP2 ADD SWAP1 PUSH1 0x1F AND DUP1 ISZERO PUSH2 0x13D6 JUMPI DUP1 DUP3 SUB DUP1 MLOAD PUSH1 0x1 DUP4 PUSH1 0x20 SUB PUSH2 0x100 EXP SUB NOT AND DUP2 MSTORE PUSH1 0x20 ADD SWAP2 POP JUMPDEST POP SWAP3 POP POP POP PUSH1 0x40 MLOAD DUP1 SWAP2 SUB SWAP1 REVERT JUMPDEST POP POP POP SWAP1 SUB SWAP1 JUMP JUMPDEST PUSH2 0x13F6 DUP3 DUP3 PUSH2 0xD21 JUMP JUMPDEST PUSH2 0x1431 JUMPI PUSH1 0x40 MLOAD PUSH3 0x461BCD PUSH1 0xE5 SHL DUP2 MSTORE PUSH1 0x4 ADD DUP1 DUP1 PUSH1 0x20 ADD DUP3 DUP2 SUB DUP3 MSTORE PUSH1 0x21 DUP2 MSTORE PUSH1 0x20 ADD DUP1 PUSH2 0x16B4 PUSH1 0x21 SWAP2 CODECOPY PUSH1 0x40 ADD SWAP2 POP POP PUSH1 0x40 MLOAD DUP1 SWAP2 SUB SWAP1 REVERT JUMPDEST PUSH1 0x1 PUSH1 0x1 PUSH1 0xA0 SHL SUB AND PUSH1 0x0 SWAP1 DUP2 MSTORE PUSH1 0x20 SWAP2 SWAP1 SWAP2 MSTORE PUSH1 0x40 SWAP1 KECCAK256 DUP1 SLOAD PUSH1 0xFF NOT AND SWAP1 SSTORE JUMP JUMPDEST PUSH2 0x145D DUP3 DUP3 PUSH2 0xD21 JUMP JUMPDEST ISZERO PUSH2 0x14AF JUMPI PUSH1 0x40 DUP1 MLOAD PUSH3 0x461BCD PUSH1 0xE5 SHL DUP2 MSTORE PUSH1 0x20 PUSH1 0x4 DUP3 ADD MSTORE PUSH1 0x1F PUSH1 0x24 DUP3 ADD MSTORE PUSH32 0x526F6C65733A206163636F756E7420616C72656164792068617320726F6C6500 PUSH1 0x44 DUP3 ADD MSTORE SWAP1 MLOAD SWAP1 DUP2 SWAP1 SUB PUSH1 0x64 ADD SWAP1 REVERT JUMPDEST PUSH1 0x1 PUSH1 0x1 PUSH1 0xA0 SHL SUB AND PUSH1 0x0 SWAP1 DUP2 MSTORE PUSH1 0x20 SWAP2 SWAP1 SWAP2 MSTORE PUSH1 0x40 SWAP1 KECCAK256 DUP1 SLOAD PUSH1 0xFF NOT AND PUSH1 0x1 OR SWAP1 SSTORE JUMP JUMPDEST PUSH1 0x0 DUP2 DUP4 PUSH2 0x1523 JUMPI PUSH1 0x40 MLOAD PUSH3 0x461BCD PUSH1 0xE5 SHL DUP2 MSTORE PUSH1 0x20 PUSH1 0x4 DUP3 ADD DUP2 DUP2 MSTORE DUP4 MLOAD PUSH1 0x24 DUP5 ADD MSTORE DUP4 MLOAD SWAP1 SWAP3 DUP4 SWAP3 PUSH1 0x44 SWAP1 SWAP2 ADD SWAP2 SWAP1 DUP6 ADD SWAP1 DUP1 DUP4 DUP4 PUSH1 0x0 DUP4 ISZERO PUSH2 0x13A9 JUMPI DUP2 DUP2 ADD MLOAD DUP4 DUP3 ADD MSTORE PUSH1 0x20 ADD PUSH2 0x1391 JUMP JUMPDEST POP PUSH1 0x0 DUP4 DUP6 DUP2 PUSH2 0x152F JUMPI INVALID JUMPDEST DIV SWAP6 SWAP5 POP POP POP POP POP JUMP JUMPDEST PUSH1 0x0 DUP1 PUSH1 0x2 PUSH1 0x0 SWAP1 SLOAD SWAP1 PUSH2 0x100 EXP SWAP1 DIV PUSH1 0x1 PUSH1 0x1 PUSH1 0xA0 SHL SUB AND PUSH1 0x1 PUSH1 0x1 PUSH1 0xA0 SHL SUB AND PUSH4 0x313CE567 PUSH1 0x40 MLOAD DUP2 PUSH4 0xFFFFFFFF AND PUSH1 0xE0 SHL DUP2 MSTORE PUSH1 0x4 ADD PUSH1 0x20 PUSH1 0x40 MLOAD DUP1 DUP4 SUB DUP2 DUP7 DUP1 EXTCODESIZE ISZERO DUP1 ISZERO PUSH2 0x158A JUMPI PUSH1 0x0 DUP1 REVERT JUMPDEST POP GAS STATICCALL ISZERO DUP1 ISZERO PUSH2 0x159E JUMPI RETURNDATASIZE PUSH1 0x0 DUP1 RETURNDATACOPY RETURNDATASIZE PUSH1 0x0 REVERT JUMPDEST POP POP POP POP PUSH1 0x40 MLOAD RETURNDATASIZE PUSH1 0x20 DUP2 LT ISZERO PUSH2 0x15B4 JUMPI PUSH1 0x0 DUP1 REVERT JUMPDEST POP MLOAD PUSH1 0xFF AND SWAP1 POP DUP3 ISZERO PUSH2 0x1638 JUMPI PUSH2 0x1630 PUSH2 0x15DB PUSH2 0x3E8 PUSH2 0x926 DUP8 PUSH1 0x2 PUSH4 0xFFFFFFFF PUSH2 0xF02 AND JUMP JUMPDEST PUSH2 0x1624 DUP4 PUSH1 0xA EXP PUSH2 0x926 PUSH1 0x7 PUSH2 0x1600 PUSH1 0x1 PUSH1 0x7 DUP1 SLOAD SWAP1 POP PUSH2 0xCD4 SWAP1 SWAP2 SWAP1 PUSH4 0xFFFFFFFF AND JUMP JUMPDEST DUP2 SLOAD DUP2 LT PUSH2 0x160A JUMPI INVALID JUMPDEST SWAP1 PUSH1 0x0 MSTORE PUSH1 0x20 PUSH1 0x0 KECCAK256 ADD SLOAD DUP10 PUSH2 0xF02 SWAP1 SWAP2 SWAP1 PUSH4 0xFFFFFFFF AND JUMP JUMPDEST SWAP1 PUSH4 0xFFFFFFFF PUSH2 0xDD0 AND JUMP JUMPDEST SWAP2 POP POP PUSH2 0x42C JUMP JUMPDEST PUSH2 0x1630 PUSH2 0x1652 PUSH2 0x3E8 PUSH2 0x926 DUP8 PUSH1 0x2 PUSH4 0xFFFFFFFF PUSH2 0xF02 AND JUMP JUMPDEST PUSH2 0x1677 DUP4 PUSH1 0xA EXP PUSH2 0x926 PUSH1 0x7 PUSH2 0x1600 PUSH1 0x1 PUSH1 0x7 DUP1 SLOAD SWAP1 POP PUSH2 0xCD4 SWAP1 SWAP2 SWAP1 PUSH4 0xFFFFFFFF AND JUMP JUMPDEST SWAP1 PUSH4 0xFFFFFFFF PUSH2 0xCD4 AND JUMP INVALID TIMESTAMP PUSH19 0x6F6B6572526F6C653A2063616C6C657220646F PUSH6 0x73206E6F7420 PUSH9 0x617665207468652042 PUSH19 0x6F6B657220726F6C65526F6C65733A20616363 PUSH16 0x756E7420646F6573206E6F7420686176 PUSH6 0x20726F6C6553 PUSH16 0x6D657468696E6727732077726F6E672C KECCAK256 PUSH14 0x6179626520796F75207365742074 PUSH9 0x6520696E697469616C KECCAK256 0x5F PUSH16 0x70656E696E6774696D652077726F6E67 0x2E MSTORE8 PUSH2 0x6665 0x4D PUSH2 0x7468 GASPRICE KECCAK256 PUSH14 0x756C7469706C69636174696F6E20 PUSH16 0x766572666C6F77526F6C65733A206163 PUSH4 0x6F756E74 KECCAK256 PUSH10 0x7320746865207A65726F KECCAK256 PUSH2 0x6464 PUSH19 0x65737341646D696E526F6C653A2063616C6C65 PUSH19 0x20646F6573206E6F7420686176652074686520 COINBASE PUSH5 0x6D696E2072 PUSH16 0x6C65A265627A7A723158200697DD00FB 0xBE 0xCB PUSH15 0x556CB87E791BC3462965B3142762E3 0x2F 0xA8 PUSH28 0x842FE88AFDA964736F6C634300051100320000000000000000000000 ",
  "sha1": "849ce7dfa3fd2629b3bbbe32df344f2d5798d03c",
  "source": "pragma solidity ^0.5.0;\n\n\nimport \"./PayCoin.sol\";\nimport \"../interfaces/IT_ERC20.sol\";\nimport \"./token_erc20.sol\";\nimport \"./BrokerRole.sol\";\nimport \"./AdminRole.sol\";\n\ncontract token_exchange is BrokerRole, AdminRole {\n    using SafeMath for uint256;\n    using SafeMath for int256; \n\n    IT_ERC20 private token;\n    PayCoin public payCoin;\n\n    uint256 private _openingtime;\n    uint256 private _closingtime;\n    uint8 private _overnightCalls; \n\n    uint256[] private priceHistory;\n\n    uint256 private _start;\n    uint256 private _end;\n\n    address private _fss_admin = 0x2b177c1854DE132E96326B454055005E62feBDc7; \n    address private _fss_trading = 0x85A8d7241Ffffee7290501473A9B11BFdA2Ae9Ff ; \n\n    event Buy(address indexed buyer, uint256 indexed amount, uint256 indexed price);\n    event Sell(address indexed buyer, uint256 indexed amount, uint256 indexed price);\n    event PriceChange(address indexed who, uint256 indexed id_price, uint256 indexed price); \n    event ChangeStart(address indexed who, uint256 indexed when); \n    event ChangeEnd(address indexed who, uint256 indexed when); \n\n    modifier onlyWhileOpen {\n        require(isOpen(), \"Market is closed\");\n        _;\n    }\n\n    constructor(address tokenAddress, address payCoinAddress) public {\n\n        token = token_erc20(tokenAddress);\n        payCoin = PayCoin(payCoinAddress);\n\n        //_openingtime = now ;\n        _openingtime = 1592982000 ; \n        _closingtime = _openingtime + 9 hours ; \n        _start = _openingtime; \n        _end = _start + 7 days + 9 hours; \n\n        _overnightCalls = 0; \n\n        if (!(isAdmin(_fss_admin) && isBroker(_fss_admin))){\n            addAdmin(_fss_admin);\n            addBroker(_fss_admin);\n        }\n    \n    }\n\n    function buy(uint256 tokenAmount) external onlyWhileOpen returns (bool){\n        require( now > _start && now < _end , \"The market is close forever.\");\n        //require(!(token.isMinter(_msgSender())), \"You can't buy your own tokens, my friend\");\n\n        _buy(_msgSender(), tokenAmount);\n\n        return true;\n    }\n\n    function sell(uint256 tokenAmount) external onlyWhileOpen returns (bool){\n        require( now > _start && now < _end , \"The market is close forever.\");\n        //require(!(token.isMinter(_msgSender())), \"You can't buy your own tokens, my friend\");\n\n        _sell(_msgSender(), tokenAmount);\n\n        return true;\n    }\n\n    function _buy(address recipient, uint256 amount) internal {\n        require(recipient != address(0), \"Recipient is the zero address\");\n\n        payCoin.transferFrom(recipient, _fss_trading, getFee(amount, true));\n\n        token.mint(recipient, amount);\n\n        emit Buy(recipient, amount, priceHistory[priceHistory.length.sub(1)]);\n    }\n\n    function _sell(address seller, uint256 amount) internal {\n        // token_exchange != team, so it can mint paycoin (these doesn't count vs initial 50k)\n        require(seller != address(0), \"Seller is the zero address\");\n\n        token.burnFrom(seller, amount);\n\n        payCoin.mint(seller, getFee(amount, false));\n\n        emit Sell(address(this), amount, priceHistory[priceHistory.length.sub(1)]);\n    }\n\n    function getFee(uint256 amount, bool from_buy) internal returns(uint256){\n        // amount * tk_price / 10^18 +- 2*amount/1000\n        uint256 exp = uint256(token.decimals());\n\n        if (from_buy){\n            return amount.mul(priceHistory[priceHistory.length.sub(1)]).div(10**exp).add(amount.mul(2).div(1000));\n        }\n        else{\n            return amount.mul(priceHistory[priceHistory.length.sub(1)]).div(10**exp).sub(amount.mul(2).div(1000));\n        }\n\n    }\n\n    function isOpen() public view returns(bool) {\n        require(now >= _start && now <= _end, \"The market is not open yet.\");\n        return now >= _openingtime && now <= _closingtime;\n    }\n\n    function setOpenTime() external onlyAdmin {\n        require(_openingtime < _closingtime, \"Something's wrong, maybe you set the initial _openingtime wrong.\");\n        _openingtime = _closingtime.add(15 hours) ;\n        _closingtime = _openingtime.add(9 hours) ;\n    }\n\n    function lastPrice() external view returns (uint256, uint256){\n        return (priceHistory.length.sub(1), priceHistory[priceHistory.length.sub(1)]);\n    }\n\n    function getHistory(uint256 id_price) external view returns (uint256){\n        return priceHistory[id_price] ;        \n    }\n\n    function setHistory(uint256 price) onlyBroker public {\n        priceHistory.push(price); \n    }\n\n    function setNewPrice(int256 delta_price) onlyBroker public returns (uint256) {\n        uint256 last_price = priceHistory[priceHistory.length.sub(1)]; \n        int256 new_price = int256(last_price) + delta_price; \n        uint256 last_id_price; \n\n        require (new_price > 0, \"Price must be positive!\"); \n        \n        if (isAdmin(_msgSender())) {\n            require(isOpen(), \"Market is closed\"); \n            \n            setHistory(uint256(new_price));\n            last_id_price = priceHistory.length.sub(1);\n            \n            emit PriceChange(_msgSender(), last_id_price, uint256(new_price)); \n        }\n        else{\n            require(_overnightCalls < 4, \"Already calls 4 times.\"); \n            require( uint256(new_price) > last_price.sub(last_price.mul(10).div(100)) && uint256(new_price) < last_price.add(last_price.mul(10).div(100)), \"Can't change more than -+10%\" ); \n            \n            setHistory(uint256(new_price));\n            last_id_price = priceHistory.length.sub(1);\n            \n            _overnightCalls += 1; \n        }\n\n        return last_id_price; \n    }\n\n    //TEAMTOKEN & PAYCOIN ADDRESS\n    \n    function setToken(address tokenAddress) onlyAdmin external {\n        token = token_erc20(tokenAddress); \n    }\n    \n    function setPayCoin(address payCoinAddress) onlyAdmin external {\n        payCoin = PayCoin(payCoinAddress); \n    }\n    \n    function changeStart(uint256 start) onlyAdmin external {\n      _start = start;\n      emit ChangeStart(_msgSender(), start);\n    }\n\n    function changeEnd(uint256 end) onlyAdmin external {\n      _end = end;\n      emit ChangeEnd(_msgSender(), end);\n    }\n\n\n\n}\n",
  "sourcePath": "contracts/token_exchange.sol",
  "type": "contract"
}