{
  "abi": [
    {
      "inputs": [],
      "payable": false,
      "stateMutability": "nonpayable",
      "type": "constructor"
    },
    {
      "anonymous": false,
      "inputs": [
        {
          "indexed": true,
          "internalType": "address",
          "name": "account",
          "type": "address"
        }
      ],
      "name": "AdminAdded",
      "type": "event"
    },
    {
      "anonymous": false,
      "inputs": [
        {
          "indexed": true,
          "internalType": "address",
          "name": "account",
          "type": "address"
        }
      ],
      "name": "AdminRemoved",
      "type": "event"
    },
    {
      "anonymous": false,
      "inputs": [
        {
          "indexed": true,
          "internalType": "address",
          "name": "owner",
          "type": "address"
        },
        {
          "indexed": true,
          "internalType": "address",
          "name": "spender",
          "type": "address"
        },
        {
          "indexed": false,
          "internalType": "uint256",
          "name": "value",
          "type": "uint256"
        }
      ],
      "name": "Approval",
      "type": "event"
    },
    {
      "anonymous": false,
      "inputs": [
        {
          "indexed": true,
          "internalType": "address",
          "name": "account",
          "type": "address"
        }
      ],
      "name": "BrokerAdded",
      "type": "event"
    },
    {
      "anonymous": false,
      "inputs": [
        {
          "indexed": true,
          "internalType": "address",
          "name": "account",
          "type": "address"
        }
      ],
      "name": "BrokerRemoved",
      "type": "event"
    },
    {
      "anonymous": false,
      "inputs": [
        {
          "indexed": true,
          "internalType": "address",
          "name": "account",
          "type": "address"
        }
      ],
      "name": "BurnerAdded",
      "type": "event"
    },
    {
      "anonymous": false,
      "inputs": [
        {
          "indexed": true,
          "internalType": "address",
          "name": "account",
          "type": "address"
        }
      ],
      "name": "BurnerRemoved",
      "type": "event"
    },
    {
      "anonymous": false,
      "inputs": [
        {
          "indexed": true,
          "internalType": "address",
          "name": "buyer",
          "type": "address"
        },
        {
          "indexed": true,
          "internalType": "uint256",
          "name": "amount",
          "type": "uint256"
        },
        {
          "indexed": true,
          "internalType": "uint256",
          "name": "price",
          "type": "uint256"
        }
      ],
      "name": "Buy",
      "type": "event"
    },
    {
      "anonymous": false,
      "inputs": [
        {
          "indexed": true,
          "internalType": "address",
          "name": "account",
          "type": "address"
        }
      ],
      "name": "MinterAdded",
      "type": "event"
    },
    {
      "anonymous": false,
      "inputs": [
        {
          "indexed": true,
          "internalType": "address",
          "name": "account",
          "type": "address"
        }
      ],
      "name": "MinterRemoved",
      "type": "event"
    },
    {
      "anonymous": false,
      "inputs": [
        {
          "indexed": true,
          "internalType": "address",
          "name": "buyer",
          "type": "address"
        },
        {
          "indexed": true,
          "internalType": "uint256",
          "name": "amount",
          "type": "uint256"
        },
        {
          "indexed": true,
          "internalType": "uint256",
          "name": "price",
          "type": "uint256"
        }
      ],
      "name": "Sell",
      "type": "event"
    },
    {
      "anonymous": false,
      "inputs": [
        {
          "indexed": true,
          "internalType": "address",
          "name": "from",
          "type": "address"
        },
        {
          "indexed": true,
          "internalType": "address",
          "name": "to",
          "type": "address"
        },
        {
          "indexed": false,
          "internalType": "uint256",
          "name": "value",
          "type": "uint256"
        }
      ],
      "name": "Transfer",
      "type": "event"
    },
    {
      "constant": false,
      "inputs": [
        {
          "internalType": "address",
          "name": "account",
          "type": "address"
        }
      ],
      "name": "addAdmin",
      "outputs": [],
      "payable": false,
      "stateMutability": "nonpayable",
      "type": "function"
    },
    {
      "constant": false,
      "inputs": [
        {
          "internalType": "address",
          "name": "account",
          "type": "address"
        }
      ],
      "name": "addBroker",
      "outputs": [],
      "payable": false,
      "stateMutability": "nonpayable",
      "type": "function"
    },
    {
      "constant": false,
      "inputs": [
        {
          "internalType": "address",
          "name": "account",
          "type": "address"
        }
      ],
      "name": "addBurner",
      "outputs": [],
      "payable": false,
      "stateMutability": "nonpayable",
      "type": "function"
    },
    {
      "constant": false,
      "inputs": [
        {
          "internalType": "address",
          "name": "account",
          "type": "address"
        }
      ],
      "name": "addMinter",
      "outputs": [],
      "payable": false,
      "stateMutability": "nonpayable",
      "type": "function"
    },
    {
      "constant": true,
      "inputs": [
        {
          "internalType": "address",
          "name": "owner",
          "type": "address"
        },
        {
          "internalType": "address",
          "name": "spender",
          "type": "address"
        }
      ],
      "name": "allowance",
      "outputs": [
        {
          "internalType": "uint256",
          "name": "",
          "type": "uint256"
        }
      ],
      "payable": false,
      "stateMutability": "view",
      "type": "function"
    },
    {
      "constant": false,
      "inputs": [
        {
          "internalType": "address",
          "name": "spender",
          "type": "address"
        },
        {
          "internalType": "uint256",
          "name": "amount",
          "type": "uint256"
        }
      ],
      "name": "approve",
      "outputs": [
        {
          "internalType": "bool",
          "name": "",
          "type": "bool"
        }
      ],
      "payable": false,
      "stateMutability": "nonpayable",
      "type": "function"
    },
    {
      "constant": true,
      "inputs": [
        {
          "internalType": "address",
          "name": "account",
          "type": "address"
        }
      ],
      "name": "balanceOf",
      "outputs": [
        {
          "internalType": "uint256",
          "name": "",
          "type": "uint256"
        }
      ],
      "payable": false,
      "stateMutability": "view",
      "type": "function"
    },
    {
      "constant": false,
      "inputs": [
        {
          "internalType": "uint256",
          "name": "amount",
          "type": "uint256"
        }
      ],
      "name": "burn",
      "outputs": [],
      "payable": false,
      "stateMutability": "nonpayable",
      "type": "function"
    },
    {
      "constant": false,
      "inputs": [
        {
          "internalType": "address",
          "name": "account",
          "type": "address"
        },
        {
          "internalType": "uint256",
          "name": "amount",
          "type": "uint256"
        }
      ],
      "name": "burnFrom",
      "outputs": [],
      "payable": false,
      "stateMutability": "nonpayable",
      "type": "function"
    },
    {
      "constant": false,
      "inputs": [
        {
          "internalType": "uint256",
          "name": "tokenAmount",
          "type": "uint256"
        }
      ],
      "name": "buy",
      "outputs": [
        {
          "internalType": "bool",
          "name": "",
          "type": "bool"
        }
      ],
      "payable": false,
      "stateMutability": "nonpayable",
      "type": "function"
    },
    {
      "constant": true,
      "inputs": [],
      "name": "decimals",
      "outputs": [
        {
          "internalType": "uint8",
          "name": "",
          "type": "uint8"
        }
      ],
      "payable": false,
      "stateMutability": "view",
      "type": "function"
    },
    {
      "constant": false,
      "inputs": [
        {
          "internalType": "address",
          "name": "spender",
          "type": "address"
        },
        {
          "internalType": "uint256",
          "name": "subtractedValue",
          "type": "uint256"
        }
      ],
      "name": "decreaseAllowance",
      "outputs": [
        {
          "internalType": "bool",
          "name": "",
          "type": "bool"
        }
      ],
      "payable": false,
      "stateMutability": "nonpayable",
      "type": "function"
    },
    {
      "constant": false,
      "inputs": [
        {
          "internalType": "uint256",
          "name": "amount",
          "type": "uint256"
        },
        {
          "internalType": "bool",
          "name": "from_buy",
          "type": "bool"
        }
      ],
      "name": "getFee",
      "outputs": [
        {
          "internalType": "uint256",
          "name": "",
          "type": "uint256"
        }
      ],
      "payable": false,
      "stateMutability": "nonpayable",
      "type": "function"
    },
    {
      "constant": false,
      "inputs": [
        {
          "internalType": "address",
          "name": "spender",
          "type": "address"
        },
        {
          "internalType": "uint256",
          "name": "addedValue",
          "type": "uint256"
        }
      ],
      "name": "increaseAllowance",
      "outputs": [
        {
          "internalType": "bool",
          "name": "",
          "type": "bool"
        }
      ],
      "payable": false,
      "stateMutability": "nonpayable",
      "type": "function"
    },
    {
      "constant": true,
      "inputs": [
        {
          "internalType": "address",
          "name": "account",
          "type": "address"
        }
      ],
      "name": "isAdmin",
      "outputs": [
        {
          "internalType": "bool",
          "name": "",
          "type": "bool"
        }
      ],
      "payable": false,
      "stateMutability": "view",
      "type": "function"
    },
    {
      "constant": true,
      "inputs": [
        {
          "internalType": "address",
          "name": "account",
          "type": "address"
        }
      ],
      "name": "isBroker",
      "outputs": [
        {
          "internalType": "bool",
          "name": "",
          "type": "bool"
        }
      ],
      "payable": false,
      "stateMutability": "view",
      "type": "function"
    },
    {
      "constant": true,
      "inputs": [
        {
          "internalType": "address",
          "name": "account",
          "type": "address"
        }
      ],
      "name": "isBurner",
      "outputs": [
        {
          "internalType": "bool",
          "name": "",
          "type": "bool"
        }
      ],
      "payable": false,
      "stateMutability": "view",
      "type": "function"
    },
    {
      "constant": true,
      "inputs": [
        {
          "internalType": "address",
          "name": "account",
          "type": "address"
        }
      ],
      "name": "isMinter",
      "outputs": [
        {
          "internalType": "bool",
          "name": "",
          "type": "bool"
        }
      ],
      "payable": false,
      "stateMutability": "view",
      "type": "function"
    },
    {
      "constant": true,
      "inputs": [],
      "name": "isOpen",
      "outputs": [
        {
          "internalType": "bool",
          "name": "",
          "type": "bool"
        }
      ],
      "payable": false,
      "stateMutability": "view",
      "type": "function"
    },
    {
      "constant": false,
      "inputs": [
        {
          "internalType": "address",
          "name": "account",
          "type": "address"
        },
        {
          "internalType": "uint256",
          "name": "amount",
          "type": "uint256"
        }
      ],
      "name": "mint",
      "outputs": [
        {
          "internalType": "bool",
          "name": "",
          "type": "bool"
        }
      ],
      "payable": false,
      "stateMutability": "nonpayable",
      "type": "function"
    },
    {
      "constant": true,
      "inputs": [],
      "name": "name",
      "outputs": [
        {
          "internalType": "string",
          "name": "",
          "type": "string"
        }
      ],
      "payable": false,
      "stateMutability": "view",
      "type": "function"
    },
    {
      "constant": false,
      "inputs": [],
      "name": "renounceAdmin",
      "outputs": [],
      "payable": false,
      "stateMutability": "nonpayable",
      "type": "function"
    },
    {
      "constant": false,
      "inputs": [],
      "name": "renounceBroker",
      "outputs": [],
      "payable": false,
      "stateMutability": "nonpayable",
      "type": "function"
    },
    {
      "constant": false,
      "inputs": [],
      "name": "renounceBurner",
      "outputs": [],
      "payable": false,
      "stateMutability": "nonpayable",
      "type": "function"
    },
    {
      "constant": false,
      "inputs": [],
      "name": "renounceMinter",
      "outputs": [],
      "payable": false,
      "stateMutability": "nonpayable",
      "type": "function"
    },
    {
      "constant": false,
      "inputs": [
        {
          "internalType": "uint256",
          "name": "tokenAmount",
          "type": "uint256"
        }
      ],
      "name": "sell",
      "outputs": [
        {
          "internalType": "bool",
          "name": "",
          "type": "bool"
        }
      ],
      "payable": false,
      "stateMutability": "nonpayable",
      "type": "function"
    },
    {
      "constant": false,
      "inputs": [],
      "name": "setOpenTime",
      "outputs": [],
      "payable": false,
      "stateMutability": "nonpayable",
      "type": "function"
    },
    {
      "constant": true,
      "inputs": [],
      "name": "symbol",
      "outputs": [
        {
          "internalType": "string",
          "name": "",
          "type": "string"
        }
      ],
      "payable": false,
      "stateMutability": "view",
      "type": "function"
    },
    {
      "constant": true,
      "inputs": [],
      "name": "token",
      "outputs": [
        {
          "internalType": "contract IT_ERC20",
          "name": "",
          "type": "address"
        }
      ],
      "payable": false,
      "stateMutability": "view",
      "type": "function"
    },
    {
      "constant": true,
      "inputs": [],
      "name": "totalSupply",
      "outputs": [
        {
          "internalType": "uint256",
          "name": "",
          "type": "uint256"
        }
      ],
      "payable": false,
      "stateMutability": "view",
      "type": "function"
    },
    {
      "constant": false,
      "inputs": [
        {
          "internalType": "address",
          "name": "recipient",
          "type": "address"
        },
        {
          "internalType": "uint256",
          "name": "amount",
          "type": "uint256"
        }
      ],
      "name": "transfer",
      "outputs": [
        {
          "internalType": "bool",
          "name": "",
          "type": "bool"
        }
      ],
      "payable": false,
      "stateMutability": "nonpayable",
      "type": "function"
    },
    {
      "constant": false,
      "inputs": [
        {
          "internalType": "address",
          "name": "sender",
          "type": "address"
        },
        {
          "internalType": "address",
          "name": "recipient",
          "type": "address"
        },
        {
          "internalType": "uint256",
          "name": "amount",
          "type": "uint256"
        }
      ],
      "name": "transferFrom",
      "outputs": [
        {
          "internalType": "bool",
          "name": "",
          "type": "bool"
        }
      ],
      "payable": false,
      "stateMutability": "nonpayable",
      "type": "function"
    }
  ],
  "bytecode": "6080604052600a80546001600160a01b031990811673743491ab1511287491af8de4ca25b2fbc707eb88908117909255600b80548216735831de8826c01cc7fb165b30d59356d9ba27886f1790556010805482167396e7cf89ff09659854277531fa315afc27102e37179055601180548216732fbfb1e766e6f6244669e4794ff022a653f34eff179055601280549091169091179055348015620000a257600080fd5b50604051806040016040528060078152602001662830bca1b7b4b760c91b8152506040518060400160405280600381526020016250614360e81b815250601262000104620000f5620004c760201b60201c565b6001600160e01b03620004cc16565b6200012a6200011b6001600160e01b03620004c716565b6001600160e01b036200051e16565b62000150620001416001600160e01b03620004c716565b6001600160e01b036200057016565b82516200016590600690602086019062000963565b5081516200017b90600790602085019062000963565b506008805460ff191660ff9290921691909117905550620001b09050620001a1620004c7565b6001600160e01b03620005c216565b600a54620001d0906001600160a01b03166001600160e01b036200061416565b8015620001f85750600a54620001f8906001600160a01b03166001600160e01b036200063716565b6200023d57600a546200021d906001600160a01b03166001600160e01b036200065416565b600a546200023d906001600160a01b03166001600160e01b03620006ce16565b600b546200025d906001600160a01b03166001600160e01b036200061416565b8015620002855750600b5462000285906001600160a01b03166001600160e01b036200063716565b620002ca57600b54620002aa906001600160a01b03166001600160e01b036200065416565b600b54620002ca906001600160a01b03166001600160e01b03620006ce16565b604051620002d890620009e8565b604051809103906000f080158015620002f5573d6000803e3d6000fd5b50600c80546001600160a01b0319166001600160a01b03928316179055670de0b6b3a7640000600d5542600e81905561012c01600f556010546200033a911662000745565b801562000362575060105462000362906001600160a01b03166001600160e01b036200076216565b620003a75760105462000387906001600160a01b03166001600160e01b036200077f16565b601054620003a7906001600160a01b03166001600160e01b03620007f616565b601154620003c7906001600160a01b03166001600160e01b036200074516565b8015620003ef5750601154620003ef906001600160a01b03166001600160e01b036200076216565b620004345760115462000414906001600160a01b03166001600160e01b036200077f16565b60115462000434906001600160a01b03166001600160e01b03620007f616565b60125462000454906001600160a01b03166001600160e01b036200074516565b80156200047c57506012546200047c906001600160a01b03166001600160e01b036200076216565b620004c157601254620004a1906001600160a01b03166001600160e01b036200077f16565b601254620004c1906001600160a01b03166001600160e01b03620007f616565b62000a13565b335b90565b620004e78160006200086d60201b62001a0d1790919060201c565b6040516001600160a01b038216907f40c56d2c4c08eead919e7228cf5b749297271698ec38e954d322ef4bcf1d58fb90600090a250565b620005398160016200086d60201b62001a0d1790919060201c565b6040516001600160a01b038216907f44d6d25963f097ad14f29f06854a01f575648a1ef82f30e562ccd3889717e33990600090a250565b6200058b8160056200086d60201b62001a0d1790919060201c565b6040516001600160a01b038216907f6ae172837ea30b801fbfcdd4108aa1d5bf8ff775444fd70256b44e6bf3dfc3f690600090a250565b620005dd8160096200086d60201b62001a0d1790919060201c565b6040516001600160a01b038216907f86e57fd2b90329052917118de7c3f521f400d439b9650deaa906a25b08b9456090600090a250565b600062000631826005620008fa60201b620010ef1790919060201c565b92915050565b600062000631826009620008fa60201b620010ef1790919060201c565b6200067a6200066b6001600160e01b03620004c716565b6001600160e01b036200061416565b620006b75760405162461bcd60e51b8152600401808060200182810382526030815260200180620043806030913960400191505060405180910390fd5b620006cb816001600160e01b036200057016565b50565b620006f4620006e56001600160e01b03620004c716565b6001600160e01b036200063716565b620007315760405162461bcd60e51b8152600401808060200182810382526030815260200180620043206030913960400191505060405180910390fd5b620006cb816001600160e01b03620005c216565b600062000631826001620008fa60201b620010ef1790919060201c565b600062000631826000620008fa60201b620010ef1790919060201c565b620007a5620007966001600160e01b03620004c716565b6001600160e01b036200074516565b620007e25760405162461bcd60e51b815260040180806020018281038252602e815260200180620043d2602e913960400191505060405180910390fd5b620006cb816001600160e01b036200051e16565b6200081c6200080d6001600160e01b03620004c716565b6001600160e01b036200076216565b620008595760405162461bcd60e51b8152600401808060200182810382526030815260200180620043506030913960400191505060405180910390fd5b620006cb816001600160e01b03620004cc16565b6200088282826001600160e01b03620008fa16565b15620008d5576040805162461bcd60e51b815260206004820152601f60248201527f526f6c65733a206163636f756e7420616c72656164792068617320726f6c6500604482015290519081900360640190fd5b6001600160a01b0316600090815260209190915260409020805460ff19166001179055565b60006001600160a01b038216620009435760405162461bcd60e51b8152600401808060200182810382526022815260200180620043b06022913960400191505060405180910390fd5b506001600160a01b03166000908152602091909152604090205460ff1690565b828054600181600116156101000203166002900490600052602060002090601f016020900481019282601f10620009a657805160ff1916838001178555620009d6565b82800160010185558215620009d6579182015b82811115620009d6578251825591602001919060010190620009b9565b50620009e4929150620009f6565b5090565b611a8f806200289183390190565b620004c991905b80821115620009e45760008155600101620009fd565b611e6e8062000a236000396000f3fe608060405234801561001057600080fd5b50600436106101f05760003560e01c806379cc67901161010f578063a9059cbb116100a2578063e4849b3211610071578063e4849b32146105eb578063e9ec9e8b14610608578063f44637ba14610610578063fc0c546a14610636576101f0565b8063a9059cbb1461054e578063aa271e1a1461057a578063d96a094a146105a0578063dd62ed3e146105bd576101f0565b8063983b2d56116100de578063983b2d56146104cf57806398650275146104f55780639c9795b2146104fd578063a457c2d714610522576101f0565b806379cc67901461046d578063836cae65146104995780638bad0c0a146104bf57806395d89b41146104c7576101f0565b806340c10f191161018757806347535d7b1161015657806347535d7b146104115780634f15e62e14610419578063704802751461042157806370a0823114610447576101f0565b806340c10f191461039857806342966c68146103c4578063431e5c9d146103e35780634334614a146103eb576101f0565b806323b872dd116101c357806323b872dd146102f257806324d7806c14610328578063313ce5671461034e578063395093511461036c576101f0565b806306fdde03146101f5578063095ea7b31461027257806318160ddd146102b257806322b31d9f146102cc575b600080fd5b6101fd61065a565b6040805160208082528351818301528351919283929083019185019080838360005b8381101561023757818101518382015260200161021f565b50505050905090810190601f1680156102645780820380516001836020036101000a031916815260200191505b509250505060405180910390f35b61029e6004803603604081101561028857600080fd5b506001600160a01b0381351690602001356106f0565b604080519115158252519081900360200190f35b6102ba61070e565b60408051918252519081900360200190f35b61029e600480360360208110156102e257600080fd5b50356001600160a01b0316610714565b61029e6004803603606081101561030857600080fd5b506001600160a01b03813581169160208101359091169060400135610726565b61029e6004803603602081101561033e57600080fd5b50356001600160a01b03166107b3565b6103566107c6565b6040805160ff9092168252519081900360200190f35b61029e6004803603604081101561038257600080fd5b506001600160a01b0381351690602001356107cf565b61029e600480360360408110156103ae57600080fd5b506001600160a01b038135169060200135610823565b6103e1600480360360208110156103da57600080fd5b503561087a565b005b6103e16108d1565b61029e6004803603602081101561040157600080fd5b50356001600160a01b03166108e3565b61029e6108f6565b6103e1610911565b6103e16004803603602081101561043757600080fd5b50356001600160a01b03166109cf565b6102ba6004803603602081101561045d57600080fd5b50356001600160a01b0316610a1e565b6103e16004803603604081101561048357600080fd5b506001600160a01b038135169060200135610a39565b6103e1600480360360208110156104af57600080fd5b50356001600160a01b0316610a8d565b6103e1610ae1565b6101fd610af1565b6103e1600480360360208110156104e557600080fd5b50356001600160a01b0316610b52565b6103e1610ba1565b6102ba6004803603604081101561051357600080fd5b50803590602001351515610bb1565b61029e6004803603604081101561053857600080fd5b506001600160a01b038135169060200135610cd1565b61029e6004803603604081101561056457600080fd5b506001600160a01b038135169060200135610d3f565b61029e6004803603602081101561059057600080fd5b50356001600160a01b0316610d53565b61029e600480360360208110156105b657600080fd5b5035610d66565b6102ba600480360360408110156105d357600080fd5b506001600160a01b0381358116916020013516610e51565b61029e6004803603602081101561060157600080fd5b5035610e7c565b6103e1610f91565b6103e16004803603602081101561062657600080fd5b50356001600160a01b0316610fa1565b61063e610ff0565b604080516001600160a01b039092168252519081900360200190f35b60068054604080516020601f60026000196101006001881615020190951694909404938401819004810282018101909252828152606093909290918301828280156106e65780601f106106bb576101008083540402835291602001916106e6565b820191906000526020600020905b8154815290600101906020018083116106c957829003601f168201915b5050505050905090565b60006107046106fd610fff565b8484611003565b5060015b92915050565b60045490565b6000610708818363ffffffff6110ef16565b6000610733848484611156565b6107a98461073f610fff565b6107a485604051806060016040528060288152602001611d0f602891396001600160a01b038a1660009081526003602052604081209061077d610fff565b6001600160a01b03168152602081019190915260400160002054919063ffffffff6112b416565b611003565b5060019392505050565b600061070860018363ffffffff6110ef16565b60085460ff1690565b60006107046107dc610fff565b846107a485600360006107ed610fff565b6001600160a01b03908116825260208083019390935260409182016000908120918c16815292529020549063ffffffff61134b16565b6000610835610830610fff565b610d53565b6108705760405162461bcd60e51b8152600401808060200182810382526030815260200180611c356030913960400191505060405180910390fd5b61070483836113ac565b61088a610885610fff565b6108e3565b6108c55760405162461bcd60e51b8152600401808060200182810382526030815260200180611bd56030913960400191505060405180910390fd5b6108ce8161149e565b50565b6108e16108dc610fff565b6114af565b565b600061070860098363ffffffff6110ef16565b6000600e54421015801561090c5750600f544211155b905090565b61092161091c610fff565b6107b3565b61095c5760405162461bcd60e51b815260040180806020018281038252602e815260200180611d9e602e913960400191505060405180910390fd5b600f54600e541061099e5760405162461bcd60e51b8152600401808060200182810382526040815260200180611c866040913960400191505060405180910390fd5b600f546109b39061d2f063ffffffff61134b16565b600e8190556109ca90617e9063ffffffff61134b16565b600f55565b6109da61091c610fff565b610a155760405162461bcd60e51b815260040180806020018281038252602e815260200180611d9e602e913960400191505060405180910390fd5b6108ce816114f7565b6001600160a01b031660009081526002602052604090205490565b610a44610885610fff565b610a7f5760405162461bcd60e51b8152600401808060200182810382526030815260200180611bd56030913960400191505060405180910390fd5b610a89828261153f565b5050565b610a9d610a98610fff565b610714565b610ad85760405162461bcd60e51b8152600401808060200182810382526030815260200180611c056030913960400191505060405180910390fd5b6108ce81611549565b6108e1610aec610fff565b611591565b60078054604080516020601f60026000196101006001881615020190951694909404938401819004810282018101909252828152606093909290918301828280156106e65780601f106106bb576101008083540402835291602001916106e6565b610b5d610830610fff565b610b985760405162461bcd60e51b8152600401808060200182810382526030815260200180611c356030913960400191505060405180910390fd5b6108ce816115d9565b6108e1610bac610fff565b611621565b600080600c60009054906101000a90046001600160a01b03166001600160a01b031663313ce5676040518163ffffffff1660e01b815260040160206040518083038186803b158015610c0257600080fd5b505afa158015610c16573d6000803e3d6000fd5b505050506040513d6020811015610c2c57600080fd5b505160ff1690508215610c8f57610c87610c5f6103e8610c5387600263ffffffff61166916565b9063ffffffff6116c216565b610c7b83600a0a610c53600d548961166990919063ffffffff16565b9063ffffffff61134b16565b915050610708565b610c87610ca96103e8610c5387600263ffffffff61166916565b610cc583600a0a610c53600d548961166990919063ffffffff16565b9063ffffffff61170416565b6000610704610cde610fff565b846107a485604051806060016040528060258152602001611e156025913960036000610d08610fff565b6001600160a01b03908116825260208083019390935260409182016000908120918d1681529252902054919063ffffffff6112b416565b6000610704610d4c610fff565b8484611156565b600061070860058363ffffffff6110ef16565b6000610d706108f6565b610db4576040805162461bcd60e51b815260206004820152601060248201526f13585c9ad95d081a5cc818db1bdcd95960821b604482015290519081900360640190fd5b610e49610dbf610fff565b600c546040805163313ce56760e01b81529051610e44926001600160a01b03169163313ce567916004808301926020929190829003018186803b158015610e0557600080fd5b505afa158015610e19573d6000803e3d6000fd5b505050506040513d6020811015610e2f57600080fd5b5051859060ff16600a0a63ffffffff61166916565b611746565b506001919050565b6001600160a01b03918216600090815260036020908152604080832093909416825291909152205490565b6000610e866108f6565b610eca576040805162461bcd60e51b815260206004820152601060248201526f13585c9ad95d081a5cc818db1bdcd95960821b604482015290519081900360640190fd5b600c546001600160a01b031663aa271e1a610ee3610fff565b6040518263ffffffff1660e01b815260040180826001600160a01b03166001600160a01b0316815260200191505060206040518083038186803b158015610f2957600080fd5b505afa158015610f3d573d6000803e3d6000fd5b505050506040513d6020811015610f5357600080fd5b505115610e495760405162461bcd60e51b8152600401808060200182810382526028815260200180611cc66028913960400191505060405180910390fd5b6108e1610f9c610fff565b61181a565b610fac610885610fff565b610fe75760405162461bcd60e51b8152600401808060200182810382526030815260200180611bd56030913960400191505060405180910390fd5b6108ce81611862565b600c546001600160a01b031681565b3390565b6001600160a01b0383166110485760405162461bcd60e51b8152600401808060200182810382526024815260200180611df16024913960400191505060405180910390fd5b6001600160a01b03821661108d5760405162461bcd60e51b8152600401808060200182810382526022815260200180611b8d6022913960400191505060405180910390fd5b6001600160a01b03808416600081815260036020908152604080832094871680845294825291829020859055815185815291517f8c5be1e5ebec7d5bd14f71427d1e84f3dd0314c0f7b2291e5b200ac8c7c3b9259281900390910190a3505050565b60006001600160a01b0382166111365760405162461bcd60e51b8152600401808060200182810382526022815260200180611d376022913960400191505060405180910390fd5b506001600160a01b03166000908152602091909152604090205460ff1690565b6001600160a01b03831661119b5760405162461bcd60e51b8152600401808060200182810382526025815260200180611dcc6025913960400191505060405180910390fd5b6001600160a01b0382166111e05760405162461bcd60e51b8152600401808060200182810382526023815260200180611b486023913960400191505060405180910390fd5b61122381604051806060016040528060268152602001611baf602691396001600160a01b038616600090815260026020526040902054919063ffffffff6112b416565b6001600160a01b038085166000908152600260205260408082209390935590841681522054611258908263ffffffff61134b16565b6001600160a01b0380841660008181526002602090815260409182902094909455805185815290519193928716927fddf252ad1be2c89b69c2b068fc378daa952ba7f163c4a11628f55a4df523b3ef92918290030190a3505050565b600081848411156113435760405162461bcd60e51b81526004018080602001828103825283818151815260200191508051906020019080838360005b838110156113085781810151838201526020016112f0565b50505050905090810190601f1680156113355780820380516001836020036101000a031916815260200191505b509250505060405180910390fd5b505050900390565b6000828201838110156113a5576040805162461bcd60e51b815260206004820152601b60248201527f536166654d6174683a206164646974696f6e206f766572666c6f770000000000604482015290519081900360640190fd5b9392505050565b6001600160a01b038216611407576040805162461bcd60e51b815260206004820152601f60248201527f45524332303a206d696e7420746f20746865207a65726f206164647265737300604482015290519081900360640190fd5b60045461141a908263ffffffff61134b16565b6004556001600160a01b038216600090815260026020526040902054611446908263ffffffff61134b16565b6001600160a01b03831660008181526002602090815260408083209490945583518581529351929391927fddf252ad1be2c89b69c2b068fc378daa952ba7f163c4a11628f55a4df523b3ef9281900390910190a35050565b6108ce6114a9610fff565b826118aa565b6114c060008263ffffffff6119a616565b6040516001600160a01b038216907fe5c6f32fb04b7de81910252a1e1d29267cd9e5fc428afad67442d00c7b127bd090600090a250565b61150860018263ffffffff611a0d16565b6040516001600160a01b038216907f44d6d25963f097ad14f29f06854a01f575648a1ef82f30e562ccd3889717e33990600090a250565b610a898282611a8e565b61155a60008263ffffffff611a0d16565b6040516001600160a01b038216907f40c56d2c4c08eead919e7228cf5b749297271698ec38e954d322ef4bcf1d58fb90600090a250565b6115a260018263ffffffff6119a616565b6040516001600160a01b038216907fa3b62bc36326052d97ea62d63c3d60308ed4c3ea8ac079dd8499f1e9c4f80c0f90600090a250565b6115ea60058263ffffffff611a0d16565b6040516001600160a01b038216907f6ae172837ea30b801fbfcdd4108aa1d5bf8ff775444fd70256b44e6bf3dfc3f690600090a250565b61163260058263ffffffff6119a616565b6040516001600160a01b038216907fe94479a9f7e1952cc78f2d6baab678adc1b772d936c6583def489e524cb6669290600090a250565b60008261167857506000610708565b8282028284828161168557fe5b04146113a55760405162461bcd60e51b8152600401808060200182810382526021815260200180611cee6021913960400191505060405180910390fd5b60006113a583836040518060400160405280601a81526020017f536166654d6174683a206469766973696f6e206279207a65726f000000000000815250611ae2565b60006113a583836040518060400160405280601e81526020017f536166654d6174683a207375627472616374696f6e206f766572666c6f7700008152506112b4565b61175a30611755836001610bb1565b610d3f565b50600c54604080516340c10f1960e01b81526001600160a01b03858116600483015260248201859052915191909216916340c10f199160448083019260209291908290030181600087803b1580156117b157600080fd5b505af11580156117c5573d6000803e3d6000fd5b505050506040513d60208110156117db57600080fd5b5050600d5460405182906001600160a01b038516907f1cbc5ab135991bd2b6a4b034a04aa2aa086dac1371cb9b16b8b5e2ed6b036bed90600090a45050565b61182b60098263ffffffff6119a616565b6040516001600160a01b038216907f90eabbc0c667db2a5029ed6bc0f5fe9f356d11684a4ca9fcfaec0e53f12b9c8e90600090a250565b61187360098263ffffffff611a0d16565b6040516001600160a01b038216907f86e57fd2b90329052917118de7c3f521f400d439b9650deaa906a25b08b9456090600090a250565b6001600160a01b0382166118ef5760405162461bcd60e51b8152600401808060200182810382526021815260200180611d7d6021913960400191505060405180910390fd5b61193281604051806060016040528060228152602001611b6b602291396001600160a01b038516600090815260026020526040902054919063ffffffff6112b416565b6001600160a01b03831660009081526002602052604090205560045461195e908263ffffffff61170416565b6004556040805182815290516000916001600160a01b038516917fddf252ad1be2c89b69c2b068fc378daa952ba7f163c4a11628f55a4df523b3ef9181900360200190a35050565b6119b082826110ef565b6119eb5760405162461bcd60e51b8152600401808060200182810382526021815260200180611c656021913960400191505060405180910390fd5b6001600160a01b0316600090815260209190915260409020805460ff19169055565b611a1782826110ef565b15611a69576040805162461bcd60e51b815260206004820152601f60248201527f526f6c65733a206163636f756e7420616c72656164792068617320726f6c6500604482015290519081900360640190fd5b6001600160a01b0316600090815260209190915260409020805460ff19166001179055565b611a9882826118aa565b610a8982611aa4610fff565b6107a484604051806060016040528060248152602001611d59602491396001600160a01b03881660009081526003602052604081209061077d610fff565b60008183611b315760405162461bcd60e51b81526020600482018181528351602484015283519092839260449091019190850190808383600083156113085781810151838201526020016112f0565b506000838581611b3d57fe5b049594505050505056fe45524332303a207472616e7366657220746f20746865207a65726f206164647265737345524332303a206275726e20616d6f756e7420657863656564732062616c616e636545524332303a20617070726f766520746f20746865207a65726f206164647265737345524332303a207472616e7366657220616d6f756e7420657863656564732062616c616e63654275726e6572526f6c653a2063616c6c657220646f6573206e6f74206861766520746865204275726e657220726f6c6542726f6b6572526f6c653a2063616c6c657220646f6573206e6f742068617665207468652042726f6b657220726f6c654d696e746572526f6c653a2063616c6c657220646f6573206e6f74206861766520746865204d696e74657220726f6c65526f6c65733a206163636f756e7420646f6573206e6f74206861766520726f6c65536f6d657468696e6727732077726f6e672c206d6179626520796f75207365742074686520696e697469616c205f6f70656e696e6774696d652077726f6e672e596f752063616e27742062757920796f7572206f776e20746f6b656e732c206d7920667269656e64536166654d6174683a206d756c7469706c69636174696f6e206f766572666c6f7745524332303a207472616e7366657220616d6f756e74206578636565647320616c6c6f77616e6365526f6c65733a206163636f756e7420697320746865207a65726f206164647265737345524332303a206275726e20616d6f756e74206578636565647320616c6c6f77616e636545524332303a206275726e2066726f6d20746865207a65726f206164647265737341646d696e526f6c653a2063616c6c657220646f6573206e6f742068617665207468652041646d696e20726f6c6545524332303a207472616e736665722066726f6d20746865207a65726f206164647265737345524332303a20617070726f76652066726f6d20746865207a65726f206164647265737345524332303a2064656372656173656420616c6c6f77616e63652062656c6f77207a65726fa265627a7a72315820aa13e8a0250a9368e79bd30ecc367567914b890fdfe05d349c272bd0158af60164736f6c634300051100326080604052600880546001600160a01b03199081167396e7cf89ff09659854277531fa315afc27102e3717909155600980548216732fbfb1e766e6f6244669e4794ff022a653f34eff179055600a805490911673743491ab1511287491af8de4ca25b2fbc707eb881790553480156200007757600080fd5b50604051806040016040528060078152602001662329a9a1b7b4b760c91b8152506040518060400160405280600381526020016246535360e81b8152506012620000d9620000ca620002e660201b60201c565b6001600160e01b03620002eb16565b8251620000ee906004906020860190620005b6565b50815162000104906005906020850190620005b6565b506006805460ff191660ff92909216919091179055506200013990506200012a620002e6565b6001600160e01b036200033d16565b60085462000159906001600160a01b03166001600160e01b036200038f16565b801562000181575060085462000181906001600160a01b03166001600160e01b03620003b216565b620001c657600854620001a6906001600160a01b03166001600160e01b03620003cf16565b600854620001c6906001600160a01b03166001600160e01b036200044916565b600954620001e6906001600160a01b03166001600160e01b036200038f16565b80156200020e57506009546200020e906001600160a01b03166001600160e01b03620003b216565b620002535760095462000233906001600160a01b03166001600160e01b03620003cf16565b60095462000253906001600160a01b03166001600160e01b036200044916565b600a5462000273906001600160a01b03166001600160e01b036200038f16565b80156200029b5750600a546200029b906001600160a01b03166001600160e01b03620003b216565b620002e057600a54620002c0906001600160a01b03166001600160e01b03620003cf16565b600a54620002e0906001600160a01b03166001600160e01b036200044916565b62000658565b335b90565b62000306816003620004c060201b6200103b1790919060201c565b6040516001600160a01b038216907f6ae172837ea30b801fbfcdd4108aa1d5bf8ff775444fd70256b44e6bf3dfc3f690600090a250565b62000358816007620004c060201b6200103b1790919060201c565b6040516001600160a01b038216907f86e57fd2b90329052917118de7c3f521f400d439b9650deaa906a25b08b9456090600090a250565b6000620003ac8260036200054d60201b62000d5a1790919060201c565b92915050565b6000620003ac8260076200054d60201b62000d5a1790919060201c565b620003f5620003e66001600160e01b03620002e616565b6001600160e01b036200038f16565b620004325760405162461bcd60e51b815260040180806020018281038252603081526020018062001a3d6030913960400191505060405180910390fd5b62000446816001600160e01b03620002eb16565b50565b6200046f620004606001600160e01b03620002e616565b6001600160e01b03620003b216565b620004ac5760405162461bcd60e51b815260040180806020018281038252603081526020018062001a0d6030913960400191505060405180910390fd5b62000446816001600160e01b036200033d16565b620004d582826001600160e01b036200054d16565b1562000528576040805162461bcd60e51b815260206004820152601f60248201527f526f6c65733a206163636f756e7420616c72656164792068617320726f6c6500604482015290519081900360640190fd5b6001600160a01b0316600090815260209190915260409020805460ff19166001179055565b60006001600160a01b038216620005965760405162461bcd60e51b815260040180806020018281038252602281526020018062001a6d6022913960400191505060405180910390fd5b506001600160a01b03166000908152602091909152604090205460ff1690565b828054600181600116156101000203166002900490600052602060002090601f016020900481019282601f10620005f957805160ff191683800117855562000629565b8280016001018555821562000629579182015b82811115620006295782518255916020019190600101906200060c565b50620006379291506200063b565b5090565b620002e891905b8082111562000637576000815560010162000642565b6113a580620006686000396000f3fe608060405234801561001057600080fd5b506004361061012c5760003560e01c806379cc6790116100ad578063a9059cbb11610071578063a9059cbb146103ad578063aa271e1a146103d9578063dd62ed3e146103ff578063e9ec9e8b1461042d578063f44637ba146104355761012c565b806379cc67901461031f57806395d89b411461034b578063983b2d56146103535780639865027514610379578063a457c2d7146103815761012c565b806339509351116100f4578063395093511461025c57806340c10f191461028857806342966c68146102b45780634334614a146102d357806370a08231146102f95761012c565b806306fdde0314610131578063095ea7b3146101ae57806318160ddd146101ee57806323b872dd14610208578063313ce5671461023e575b600080fd5b61013961045b565b6040805160208082528351818301528351919283929083019185019080838360005b8381101561017357818101518382015260200161015b565b50505050905090810190601f1680156101a05780820380516001836020036101000a031916815260200191505b509250505060405180910390f35b6101da600480360360408110156101c457600080fd5b506001600160a01b0381351690602001356104f1565b604080519115158252519081900360200190f35b6101f661050e565b60408051918252519081900360200190f35b6101da6004803603606081101561021e57600080fd5b506001600160a01b03813581169160208101359091169060400135610514565b6102466105a1565b6040805160ff9092168252519081900360200190f35b6101da6004803603604081101561027257600080fd5b506001600160a01b0381351690602001356105aa565b6101da6004803603604081101561029e57600080fd5b506001600160a01b0381351690602001356105fe565b6102d1600480360360208110156102ca57600080fd5b5035610655565b005b6101da600480360360208110156102e957600080fd5b50356001600160a01b03166106ac565b6101f66004803603602081101561030f57600080fd5b50356001600160a01b03166106c5565b6102d16004803603604081101561033557600080fd5b506001600160a01b0381351690602001356106e0565b610139610734565b6102d16004803603602081101561036957600080fd5b50356001600160a01b0316610795565b6102d16107e4565b6101da6004803603604081101561039757600080fd5b506001600160a01b0381351690602001356107f6565b6101da600480360360408110156103c357600080fd5b506001600160a01b038135169060200135610864565b6101da600480360360208110156103ef57600080fd5b50356001600160a01b0316610878565b6101f66004803603604081101561041557600080fd5b506001600160a01b038135811691602001351661088b565b6102d16108b6565b6102d16004803603602081101561044b57600080fd5b50356001600160a01b03166108c6565b60048054604080516020601f60026000196101006001881615020190951694909404938401819004810282018101909252828152606093909290918301828280156104e75780601f106104bc576101008083540402835291602001916104e7565b820191906000526020600020905b8154815290600101906020018083116104ca57829003601f168201915b5050505050905090565b60006105056104fe610915565b8484610919565b50600192915050565b60025490565b6000610521848484610a05565b6105978461052d610915565b61059285604051806060016040528060288152602001611274602891396001600160a01b038a1660009081526001602052604081209061056b610915565b6001600160a01b03168152602081019190915260400160002054919063ffffffff610b6116565b610919565b5060019392505050565b60065460ff1690565b60006105056105b7610915565b8461059285600160006105c8610915565b6001600160a01b03908116825260208083019390935260409182016000908120918c16815292529020549063ffffffff610bf816565b600061061061060b610915565b610878565b61064b5760405162461bcd60e51b81526004018080602001828103825260308152602001806112236030913960400191505060405180910390fd5b6105058383610c59565b610665610660610915565b6106ac565b6106a05760405162461bcd60e51b81526004018080602001828103825260308152602001806111f36030913960400191505060405180910390fd5b6106a981610d49565b50565b60006106bf60078363ffffffff610d5a16565b92915050565b6001600160a01b031660009081526020819052604090205490565b6106eb610660610915565b6107265760405162461bcd60e51b81526004018080602001828103825260308152602001806111f36030913960400191505060405180910390fd5b6107308282610dc1565b5050565b60058054604080516020601f60026000196101006001881615020190951694909404938401819004810282018101909252828152606093909290918301828280156104e75780601f106104bc576101008083540402835291602001916104e7565b6107a061060b610915565b6107db5760405162461bcd60e51b81526004018080602001828103825260308152602001806112236030913960400191505060405180910390fd5b6106a981610dcb565b6107f46107ef610915565b610e13565b565b6000610505610803610915565b846105928560405180606001604052806025815260200161134c602591396001600061082d610915565b6001600160a01b03908116825260208083019390935260409182016000908120918d1681529252902054919063ffffffff610b6116565b6000610505610871610915565b8484610a05565b60006106bf60038363ffffffff610d5a16565b6001600160a01b03918216600090815260016020908152604080832093909416825291909152205490565b6107f46108c1610915565b610e5b565b6108d1610660610915565b61090c5760405162461bcd60e51b81526004018080602001828103825260308152602001806111f36030913960400191505060405180910390fd5b6106a981610ea3565b3390565b6001600160a01b03831661095e5760405162461bcd60e51b81526004018080602001828103825260248152602001806113286024913960400191505060405180910390fd5b6001600160a01b0382166109a35760405162461bcd60e51b81526004018080602001828103825260228152602001806111ab6022913960400191505060405180910390fd5b6001600160a01b03808416600081815260016020908152604080832094871680845294825291829020859055815185815291517f8c5be1e5ebec7d5bd14f71427d1e84f3dd0314c0f7b2291e5b200ac8c7c3b9259281900390910190a3505050565b6001600160a01b038316610a4a5760405162461bcd60e51b81526004018080602001828103825260258152602001806113036025913960400191505060405180910390fd5b6001600160a01b038216610a8f5760405162461bcd60e51b81526004018080602001828103825260238152602001806111666023913960400191505060405180910390fd5b610ad2816040518060600160405280602681526020016111cd602691396001600160a01b038616600090815260208190526040902054919063ffffffff610b6116565b6001600160a01b038085166000908152602081905260408082209390935590841681522054610b07908263ffffffff610bf816565b6001600160a01b038084166000818152602081815260409182902094909455805185815290519193928716927fddf252ad1be2c89b69c2b068fc378daa952ba7f163c4a11628f55a4df523b3ef92918290030190a3505050565b60008184841115610bf05760405162461bcd60e51b81526004018080602001828103825283818151815260200191508051906020019080838360005b83811015610bb5578181015183820152602001610b9d565b50505050905090810190601f168015610be25780820380516001836020036101000a031916815260200191505b509250505060405180910390fd5b505050900390565b600082820183811015610c52576040805162461bcd60e51b815260206004820152601b60248201527f536166654d6174683a206164646974696f6e206f766572666c6f770000000000604482015290519081900360640190fd5b9392505050565b6001600160a01b038216610cb4576040805162461bcd60e51b815260206004820152601f60248201527f45524332303a206d696e7420746f20746865207a65726f206164647265737300604482015290519081900360640190fd5b600254610cc7908263ffffffff610bf816565b6002556001600160a01b038216600090815260208190526040902054610cf3908263ffffffff610bf816565b6001600160a01b0383166000818152602081815260408083209490945583518581529351929391927fddf252ad1be2c89b69c2b068fc378daa952ba7f163c4a11628f55a4df523b3ef9281900390910190a35050565b6106a9610d54610915565b82610eeb565b60006001600160a01b038216610da15760405162461bcd60e51b815260040180806020018281038252602281526020018061129c6022913960400191505060405180910390fd5b506001600160a01b03166000908152602091909152604090205460ff1690565b6107308282610fe7565b610ddc60038263ffffffff61103b16565b6040516001600160a01b038216907f6ae172837ea30b801fbfcdd4108aa1d5bf8ff775444fd70256b44e6bf3dfc3f690600090a250565b610e2460038263ffffffff6110bc16565b6040516001600160a01b038216907fe94479a9f7e1952cc78f2d6baab678adc1b772d936c6583def489e524cb6669290600090a250565b610e6c60078263ffffffff6110bc16565b6040516001600160a01b038216907f90eabbc0c667db2a5029ed6bc0f5fe9f356d11684a4ca9fcfaec0e53f12b9c8e90600090a250565b610eb460078263ffffffff61103b16565b6040516001600160a01b038216907f86e57fd2b90329052917118de7c3f521f400d439b9650deaa906a25b08b9456090600090a250565b6001600160a01b038216610f305760405162461bcd60e51b81526004018080602001828103825260218152602001806112e26021913960400191505060405180910390fd5b610f7381604051806060016040528060228152602001611189602291396001600160a01b038516600090815260208190526040902054919063ffffffff610b6116565b6001600160a01b038316600090815260208190526040902055600254610f9f908263ffffffff61112316565b6002556040805182815290516000916001600160a01b038516917fddf252ad1be2c89b69c2b068fc378daa952ba7f163c4a11628f55a4df523b3ef9181900360200190a35050565b610ff18282610eeb565b61073082610ffd610915565b610592846040518060600160405280602481526020016112be602491396001600160a01b03881660009081526001602052604081209061056b610915565b6110458282610d5a565b15611097576040805162461bcd60e51b815260206004820152601f60248201527f526f6c65733a206163636f756e7420616c72656164792068617320726f6c6500604482015290519081900360640190fd5b6001600160a01b0316600090815260209190915260409020805460ff19166001179055565b6110c68282610d5a565b6111015760405162461bcd60e51b81526004018080602001828103825260218152602001806112536021913960400191505060405180910390fd5b6001600160a01b0316600090815260209190915260409020805460ff19169055565b6000610c5283836040518060400160405280601e81526020017f536166654d6174683a207375627472616374696f6e206f766572666c6f770000815250610b6156fe45524332303a207472616e7366657220746f20746865207a65726f206164647265737345524332303a206275726e20616d6f756e7420657863656564732062616c616e636545524332303a20617070726f766520746f20746865207a65726f206164647265737345524332303a207472616e7366657220616d6f756e7420657863656564732062616c616e63654275726e6572526f6c653a2063616c6c657220646f6573206e6f74206861766520746865204275726e657220726f6c654d696e746572526f6c653a2063616c6c657220646f6573206e6f74206861766520746865204d696e74657220726f6c65526f6c65733a206163636f756e7420646f6573206e6f74206861766520726f6c6545524332303a207472616e7366657220616d6f756e74206578636565647320616c6c6f77616e6365526f6c65733a206163636f756e7420697320746865207a65726f206164647265737345524332303a206275726e20616d6f756e74206578636565647320616c6c6f77616e636545524332303a206275726e2066726f6d20746865207a65726f206164647265737345524332303a207472616e736665722066726f6d20746865207a65726f206164647265737345524332303a20617070726f76652066726f6d20746865207a65726f206164647265737345524332303a2064656372656173656420616c6c6f77616e63652062656c6f77207a65726fa265627a7a723158208ba7d46c491cdd608d1a94d557fffcc6b0ab6419e9eb37c338417e0b175c324f64736f6c634300051100324275726e6572526f6c653a2063616c6c657220646f6573206e6f74206861766520746865204275726e657220726f6c654d696e746572526f6c653a2063616c6c657220646f6573206e6f74206861766520746865204d696e74657220726f6c65526f6c65733a206163636f756e7420697320746865207a65726f20616464726573734275726e6572526f6c653a2063616c6c657220646f6573206e6f74206861766520746865204275726e657220726f6c6542726f6b6572526f6c653a2063616c6c657220646f6573206e6f742068617665207468652042726f6b657220726f6c654d696e746572526f6c653a2063616c6c657220646f6573206e6f74206861766520746865204d696e74657220726f6c65526f6c65733a206163636f756e7420697320746865207a65726f206164647265737341646d696e526f6c653a2063616c6c657220646f6573206e6f742068617665207468652041646d696e20726f6c65",
  "bytecodeSha1": "da39a3ee5e6b4b0d3255bfef95601890afd80709",
  "compiler": {
    "evm_version": "istanbul",
    "optimizer": {
      "enabled": true,
      "runs": 200
    },
    "version": "0.5.17"
  },
  "contractName": "token_exchange",
  "language": "Solidity",
  "natspec": {
    "methods": {
      "allowance(address,address)": {
        "details": "See {IERC20-allowance}."
      },
      "approve(address,uint256)": {
        "details": "See {IERC20-approve}.     * Requirements:     * - `spender` cannot be the zero address."
      },
      "balanceOf(address)": {
        "details": "See {IERC20-balanceOf}."
      },
      "decimals()": {
        "details": "Returns the number of decimals used to get its user representation. For example, if `decimals` equals `2`, a balance of `505` tokens should be displayed to a user as `5,05` (`505 / 10 ** 2`).     * Tokens usually opt for a value of 18, imitating the relationship between Ether and Wei.     * NOTE: This information is only used for _display_ purposes: it in no way affects any of the arithmetic of the contract, including {IERC20-balanceOf} and {IERC20-transfer}."
      },
      "decreaseAllowance(address,uint256)": {
        "details": "Atomically decreases the allowance granted to `spender` by the caller.     * This is an alternative to {approve} that can be used as a mitigation for problems described in {IERC20-approve}.     * Emits an {Approval} event indicating the updated allowance.     * Requirements:     * - `spender` cannot be the zero address. - `spender` must have allowance for the caller of at least `subtractedValue`."
      },
      "increaseAllowance(address,uint256)": {
        "details": "Atomically increases the allowance granted to `spender` by the caller.     * This is an alternative to {approve} that can be used as a mitigation for problems described in {IERC20-approve}.     * Emits an {Approval} event indicating the updated allowance.     * Requirements:     * - `spender` cannot be the zero address."
      },
      "mint(address,uint256)": {
        "details": "See {ERC20-_mint}.     * Requirements:     * - the caller must have the {MinterRole}."
      },
      "name()": {
        "details": "Returns the name of the token."
      },
      "symbol()": {
        "details": "Returns the symbol of the token, usually a shorter version of the name."
      },
      "totalSupply()": {
        "details": "See {IERC20-totalSupply}."
      },
      "transfer(address,uint256)": {
        "details": "See {IERC20-transfer}.     * Requirements:     * - `recipient` cannot be the zero address. - the caller must have a balance of at least `amount`."
      },
      "transferFrom(address,address,uint256)": {
        "details": "See {IERC20-transferFrom}.     * Emits an {Approval} event indicating the updated allowance. This is not required by the EIP. See the note at the beginning of {ERC20};     * Requirements: - `sender` and `recipient` cannot be the zero address. - `sender` must have a balance of at least `amount`. - the caller must have allowance for `sender`'s tokens of at least `amount`."
      }
    }
  },
  "opcodes": "PUSH1 0x80 PUSH1 0x40 MSTORE CALLVALUE DUP1 ISZERO PUSH2 0x10 JUMPI PUSH1 0x0 DUP1 REVERT JUMPDEST POP PUSH1 0x4 CALLDATASIZE LT PUSH2 0x1F0 JUMPI PUSH1 0x0 CALLDATALOAD PUSH1 0xE0 SHR DUP1 PUSH4 0x79CC6790 GT PUSH2 0x10F JUMPI DUP1 PUSH4 0xA9059CBB GT PUSH2 0xA2 JUMPI DUP1 PUSH4 0xE4849B32 GT PUSH2 0x71 JUMPI DUP1 PUSH4 0xE4849B32 EQ PUSH2 0x5EB JUMPI DUP1 PUSH4 0xE9EC9E8B EQ PUSH2 0x608 JUMPI DUP1 PUSH4 0xF44637BA EQ PUSH2 0x610 JUMPI DUP1 PUSH4 0xFC0C546A EQ PUSH2 0x636 JUMPI PUSH2 0x1F0 JUMP JUMPDEST DUP1 PUSH4 0xA9059CBB EQ PUSH2 0x54E JUMPI DUP1 PUSH4 0xAA271E1A EQ PUSH2 0x57A JUMPI DUP1 PUSH4 0xD96A094A EQ PUSH2 0x5A0 JUMPI DUP1 PUSH4 0xDD62ED3E EQ PUSH2 0x5BD JUMPI PUSH2 0x1F0 JUMP JUMPDEST DUP1 PUSH4 0x983B2D56 GT PUSH2 0xDE JUMPI DUP1 PUSH4 0x983B2D56 EQ PUSH2 0x4CF JUMPI DUP1 PUSH4 0x98650275 EQ PUSH2 0x4F5 JUMPI DUP1 PUSH4 0x9C9795B2 EQ PUSH2 0x4FD JUMPI DUP1 PUSH4 0xA457C2D7 EQ PUSH2 0x522 JUMPI PUSH2 0x1F0 JUMP JUMPDEST DUP1 PUSH4 0x79CC6790 EQ PUSH2 0x46D JUMPI DUP1 PUSH4 0x836CAE65 EQ PUSH2 0x499 JUMPI DUP1 PUSH4 0x8BAD0C0A EQ PUSH2 0x4BF JUMPI DUP1 PUSH4 0x95D89B41 EQ PUSH2 0x4C7 JUMPI PUSH2 0x1F0 JUMP JUMPDEST DUP1 PUSH4 0x40C10F19 GT PUSH2 0x187 JUMPI DUP1 PUSH4 0x47535D7B GT PUSH2 0x156 JUMPI DUP1 PUSH4 0x47535D7B EQ PUSH2 0x411 JUMPI DUP1 PUSH4 0x4F15E62E EQ PUSH2 0x419 JUMPI DUP1 PUSH4 0x70480275 EQ PUSH2 0x421 JUMPI DUP1 PUSH4 0x70A08231 EQ PUSH2 0x447 JUMPI PUSH2 0x1F0 JUMP JUMPDEST DUP1 PUSH4 0x40C10F19 EQ PUSH2 0x398 JUMPI DUP1 PUSH4 0x42966C68 EQ PUSH2 0x3C4 JUMPI DUP1 PUSH4 0x431E5C9D EQ PUSH2 0x3E3 JUMPI DUP1 PUSH4 0x4334614A EQ PUSH2 0x3EB JUMPI PUSH2 0x1F0 JUMP JUMPDEST DUP1 PUSH4 0x23B872DD GT PUSH2 0x1C3 JUMPI DUP1 PUSH4 0x23B872DD EQ PUSH2 0x2F2 JUMPI DUP1 PUSH4 0x24D7806C EQ PUSH2 0x328 JUMPI DUP1 PUSH4 0x313CE567 EQ PUSH2 0x34E JUMPI DUP1 PUSH4 0x39509351 EQ PUSH2 0x36C JUMPI PUSH2 0x1F0 JUMP JUMPDEST DUP1 PUSH4 0x6FDDE03 EQ PUSH2 0x1F5 JUMPI DUP1 PUSH4 0x95EA7B3 EQ PUSH2 0x272 JUMPI DUP1 PUSH4 0x18160DDD EQ PUSH2 0x2B2 JUMPI DUP1 PUSH4 0x22B31D9F EQ PUSH2 0x2CC JUMPI JUMPDEST PUSH1 0x0 DUP1 REVERT JUMPDEST PUSH2 0x1FD PUSH2 0x65A JUMP JUMPDEST PUSH1 0x40 DUP1 MLOAD PUSH1 0x20 DUP1 DUP3 MSTORE DUP4 MLOAD DUP2 DUP4 ADD MSTORE DUP4 MLOAD SWAP2 SWAP3 DUP4 SWAP3 SWAP1 DUP4 ADD SWAP2 DUP6 ADD SWAP1 DUP1 DUP4 DUP4 PUSH1 0x0 JUMPDEST DUP4 DUP2 LT ISZERO PUSH2 0x237 JUMPI DUP2 DUP2 ADD MLOAD DUP4 DUP3 ADD MSTORE PUSH1 0x20 ADD PUSH2 0x21F JUMP JUMPDEST POP POP POP POP SWAP1 POP SWAP1 DUP2 ADD SWAP1 PUSH1 0x1F AND DUP1 ISZERO PUSH2 0x264 JUMPI DUP1 DUP3 SUB DUP1 MLOAD PUSH1 0x1 DUP4 PUSH1 0x20 SUB PUSH2 0x100 EXP SUB NOT AND DUP2 MSTORE PUSH1 0x20 ADD SWAP2 POP JUMPDEST POP SWAP3 POP POP POP PUSH1 0x40 MLOAD DUP1 SWAP2 SUB SWAP1 RETURN JUMPDEST PUSH2 0x29E PUSH1 0x4 DUP1 CALLDATASIZE SUB PUSH1 0x40 DUP2 LT ISZERO PUSH2 0x288 JUMPI PUSH1 0x0 DUP1 REVERT JUMPDEST POP PUSH1 0x1 PUSH1 0x1 PUSH1 0xA0 SHL SUB DUP2 CALLDATALOAD AND SWAP1 PUSH1 0x20 ADD CALLDATALOAD PUSH2 0x6F0 JUMP JUMPDEST PUSH1 0x40 DUP1 MLOAD SWAP2 ISZERO ISZERO DUP3 MSTORE MLOAD SWAP1 DUP2 SWAP1 SUB PUSH1 0x20 ADD SWAP1 RETURN JUMPDEST PUSH2 0x2BA PUSH2 0x70E JUMP JUMPDEST PUSH1 0x40 DUP1 MLOAD SWAP2 DUP3 MSTORE MLOAD SWAP1 DUP2 SWAP1 SUB PUSH1 0x20 ADD SWAP1 RETURN JUMPDEST PUSH2 0x29E PUSH1 0x4 DUP1 CALLDATASIZE SUB PUSH1 0x20 DUP2 LT ISZERO PUSH2 0x2E2 JUMPI PUSH1 0x0 DUP1 REVERT JUMPDEST POP CALLDATALOAD PUSH1 0x1 PUSH1 0x1 PUSH1 0xA0 SHL SUB AND PUSH2 0x714 JUMP JUMPDEST PUSH2 0x29E PUSH1 0x4 DUP1 CALLDATASIZE SUB PUSH1 0x60 DUP2 LT ISZERO PUSH2 0x308 JUMPI PUSH1 0x0 DUP1 REVERT JUMPDEST POP PUSH1 0x1 PUSH1 0x1 PUSH1 0xA0 SHL SUB DUP2 CALLDATALOAD DUP2 AND SWAP2 PUSH1 0x20 DUP2 ADD CALLDATALOAD SWAP1 SWAP2 AND SWAP1 PUSH1 0x40 ADD CALLDATALOAD PUSH2 0x726 JUMP JUMPDEST PUSH2 0x29E PUSH1 0x4 DUP1 CALLDATASIZE SUB PUSH1 0x20 DUP2 LT ISZERO PUSH2 0x33E JUMPI PUSH1 0x0 DUP1 REVERT JUMPDEST POP CALLDATALOAD PUSH1 0x1 PUSH1 0x1 PUSH1 0xA0 SHL SUB AND PUSH2 0x7B3 JUMP JUMPDEST PUSH2 0x356 PUSH2 0x7C6 JUMP JUMPDEST PUSH1 0x40 DUP1 MLOAD PUSH1 0xFF SWAP1 SWAP3 AND DUP3 MSTORE MLOAD SWAP1 DUP2 SWAP1 SUB PUSH1 0x20 ADD SWAP1 RETURN JUMPDEST PUSH2 0x29E PUSH1 0x4 DUP1 CALLDATASIZE SUB PUSH1 0x40 DUP2 LT ISZERO PUSH2 0x382 JUMPI PUSH1 0x0 DUP1 REVERT JUMPDEST POP PUSH1 0x1 PUSH1 0x1 PUSH1 0xA0 SHL SUB DUP2 CALLDATALOAD AND SWAP1 PUSH1 0x20 ADD CALLDATALOAD PUSH2 0x7CF JUMP JUMPDEST PUSH2 0x29E PUSH1 0x4 DUP1 CALLDATASIZE SUB PUSH1 0x40 DUP2 LT ISZERO PUSH2 0x3AE JUMPI PUSH1 0x0 DUP1 REVERT JUMPDEST POP PUSH1 0x1 PUSH1 0x1 PUSH1 0xA0 SHL SUB DUP2 CALLDATALOAD AND SWAP1 PUSH1 0x20 ADD CALLDATALOAD PUSH2 0x823 JUMP JUMPDEST PUSH2 0x3E1 PUSH1 0x4 DUP1 CALLDATASIZE SUB PUSH1 0x20 DUP2 LT ISZERO PUSH2 0x3DA JUMPI PUSH1 0x0 DUP1 REVERT JUMPDEST POP CALLDATALOAD PUSH2 0x87A JUMP JUMPDEST STOP JUMPDEST PUSH2 0x3E1 PUSH2 0x8D1 JUMP JUMPDEST PUSH2 0x29E PUSH1 0x4 DUP1 CALLDATASIZE SUB PUSH1 0x20 DUP2 LT ISZERO PUSH2 0x401 JUMPI PUSH1 0x0 DUP1 REVERT JUMPDEST POP CALLDATALOAD PUSH1 0x1 PUSH1 0x1 PUSH1 0xA0 SHL SUB AND PUSH2 0x8E3 JUMP JUMPDEST PUSH2 0x29E PUSH2 0x8F6 JUMP JUMPDEST PUSH2 0x3E1 PUSH2 0x911 JUMP JUMPDEST PUSH2 0x3E1 PUSH1 0x4 DUP1 CALLDATASIZE SUB PUSH1 0x20 DUP2 LT ISZERO PUSH2 0x437 JUMPI PUSH1 0x0 DUP1 REVERT JUMPDEST POP CALLDATALOAD PUSH1 0x1 PUSH1 0x1 PUSH1 0xA0 SHL SUB AND PUSH2 0x9CF JUMP JUMPDEST PUSH2 0x2BA PUSH1 0x4 DUP1 CALLDATASIZE SUB PUSH1 0x20 DUP2 LT ISZERO PUSH2 0x45D JUMPI PUSH1 0x0 DUP1 REVERT JUMPDEST POP CALLDATALOAD PUSH1 0x1 PUSH1 0x1 PUSH1 0xA0 SHL SUB AND PUSH2 0xA1E JUMP JUMPDEST PUSH2 0x3E1 PUSH1 0x4 DUP1 CALLDATASIZE SUB PUSH1 0x40 DUP2 LT ISZERO PUSH2 0x483 JUMPI PUSH1 0x0 DUP1 REVERT JUMPDEST POP PUSH1 0x1 PUSH1 0x1 PUSH1 0xA0 SHL SUB DUP2 CALLDATALOAD AND SWAP1 PUSH1 0x20 ADD CALLDATALOAD PUSH2 0xA39 JUMP JUMPDEST PUSH2 0x3E1 PUSH1 0x4 DUP1 CALLDATASIZE SUB PUSH1 0x20 DUP2 LT ISZERO PUSH2 0x4AF JUMPI PUSH1 0x0 DUP1 REVERT JUMPDEST POP CALLDATALOAD PUSH1 0x1 PUSH1 0x1 PUSH1 0xA0 SHL SUB AND PUSH2 0xA8D JUMP JUMPDEST PUSH2 0x3E1 PUSH2 0xAE1 JUMP JUMPDEST PUSH2 0x1FD PUSH2 0xAF1 JUMP JUMPDEST PUSH2 0x3E1 PUSH1 0x4 DUP1 CALLDATASIZE SUB PUSH1 0x20 DUP2 LT ISZERO PUSH2 0x4E5 JUMPI PUSH1 0x0 DUP1 REVERT JUMPDEST POP CALLDATALOAD PUSH1 0x1 PUSH1 0x1 PUSH1 0xA0 SHL SUB AND PUSH2 0xB52 JUMP JUMPDEST PUSH2 0x3E1 PUSH2 0xBA1 JUMP JUMPDEST PUSH2 0x2BA PUSH1 0x4 DUP1 CALLDATASIZE SUB PUSH1 0x40 DUP2 LT ISZERO PUSH2 0x513 JUMPI PUSH1 0x0 DUP1 REVERT JUMPDEST POP DUP1 CALLDATALOAD SWAP1 PUSH1 0x20 ADD CALLDATALOAD ISZERO ISZERO PUSH2 0xBB1 JUMP JUMPDEST PUSH2 0x29E PUSH1 0x4 DUP1 CALLDATASIZE SUB PUSH1 0x40 DUP2 LT ISZERO PUSH2 0x538 JUMPI PUSH1 0x0 DUP1 REVERT JUMPDEST POP PUSH1 0x1 PUSH1 0x1 PUSH1 0xA0 SHL SUB DUP2 CALLDATALOAD AND SWAP1 PUSH1 0x20 ADD CALLDATALOAD PUSH2 0xCD1 JUMP JUMPDEST PUSH2 0x29E PUSH1 0x4 DUP1 CALLDATASIZE SUB PUSH1 0x40 DUP2 LT ISZERO PUSH2 0x564 JUMPI PUSH1 0x0 DUP1 REVERT JUMPDEST POP PUSH1 0x1 PUSH1 0x1 PUSH1 0xA0 SHL SUB DUP2 CALLDATALOAD AND SWAP1 PUSH1 0x20 ADD CALLDATALOAD PUSH2 0xD3F JUMP JUMPDEST PUSH2 0x29E PUSH1 0x4 DUP1 CALLDATASIZE SUB PUSH1 0x20 DUP2 LT ISZERO PUSH2 0x590 JUMPI PUSH1 0x0 DUP1 REVERT JUMPDEST POP CALLDATALOAD PUSH1 0x1 PUSH1 0x1 PUSH1 0xA0 SHL SUB AND PUSH2 0xD53 JUMP JUMPDEST PUSH2 0x29E PUSH1 0x4 DUP1 CALLDATASIZE SUB PUSH1 0x20 DUP2 LT ISZERO PUSH2 0x5B6 JUMPI PUSH1 0x0 DUP1 REVERT JUMPDEST POP CALLDATALOAD PUSH2 0xD66 JUMP JUMPDEST PUSH2 0x2BA PUSH1 0x4 DUP1 CALLDATASIZE SUB PUSH1 0x40 DUP2 LT ISZERO PUSH2 0x5D3 JUMPI PUSH1 0x0 DUP1 REVERT JUMPDEST POP PUSH1 0x1 PUSH1 0x1 PUSH1 0xA0 SHL SUB DUP2 CALLDATALOAD DUP2 AND SWAP2 PUSH1 0x20 ADD CALLDATALOAD AND PUSH2 0xE51 JUMP JUMPDEST PUSH2 0x29E PUSH1 0x4 DUP1 CALLDATASIZE SUB PUSH1 0x20 DUP2 LT ISZERO PUSH2 0x601 JUMPI PUSH1 0x0 DUP1 REVERT JUMPDEST POP CALLDATALOAD PUSH2 0xE7C JUMP JUMPDEST PUSH2 0x3E1 PUSH2 0xF91 JUMP JUMPDEST PUSH2 0x3E1 PUSH1 0x4 DUP1 CALLDATASIZE SUB PUSH1 0x20 DUP2 LT ISZERO PUSH2 0x626 JUMPI PUSH1 0x0 DUP1 REVERT JUMPDEST POP CALLDATALOAD PUSH1 0x1 PUSH1 0x1 PUSH1 0xA0 SHL SUB AND PUSH2 0xFA1 JUMP JUMPDEST PUSH2 0x63E PUSH2 0xFF0 JUMP JUMPDEST PUSH1 0x40 DUP1 MLOAD PUSH1 0x1 PUSH1 0x1 PUSH1 0xA0 SHL SUB SWAP1 SWAP3 AND DUP3 MSTORE MLOAD SWAP1 DUP2 SWAP1 SUB PUSH1 0x20 ADD SWAP1 RETURN JUMPDEST PUSH1 0x6 DUP1 SLOAD PUSH1 0x40 DUP1 MLOAD PUSH1 0x20 PUSH1 0x1F PUSH1 0x2 PUSH1 0x0 NOT PUSH2 0x100 PUSH1 0x1 DUP9 AND ISZERO MUL ADD SWAP1 SWAP6 AND SWAP5 SWAP1 SWAP5 DIV SWAP4 DUP5 ADD DUP2 SWAP1 DIV DUP2 MUL DUP3 ADD DUP2 ADD SWAP1 SWAP3 MSTORE DUP3 DUP2 MSTORE PUSH1 0x60 SWAP4 SWAP1 SWAP3 SWAP1 SWAP2 DUP4 ADD DUP3 DUP3 DUP1 ISZERO PUSH2 0x6E6 JUMPI DUP1 PUSH1 0x1F LT PUSH2 0x6BB JUMPI PUSH2 0x100 DUP1 DUP4 SLOAD DIV MUL DUP4 MSTORE SWAP2 PUSH1 0x20 ADD SWAP2 PUSH2 0x6E6 JUMP JUMPDEST DUP3 ADD SWAP2 SWAP1 PUSH1 0x0 MSTORE PUSH1 0x20 PUSH1 0x0 KECCAK256 SWAP1 JUMPDEST DUP2 SLOAD DUP2 MSTORE SWAP1 PUSH1 0x1 ADD SWAP1 PUSH1 0x20 ADD DUP1 DUP4 GT PUSH2 0x6C9 JUMPI DUP3 SWAP1 SUB PUSH1 0x1F AND DUP3 ADD SWAP2 JUMPDEST POP POP POP POP POP SWAP1 POP SWAP1 JUMP JUMPDEST PUSH1 0x0 PUSH2 0x704 PUSH2 0x6FD PUSH2 0xFFF JUMP JUMPDEST DUP5 DUP5 PUSH2 0x1003 JUMP JUMPDEST POP PUSH1 0x1 JUMPDEST SWAP3 SWAP2 POP POP JUMP JUMPDEST PUSH1 0x4 SLOAD SWAP1 JUMP JUMPDEST PUSH1 0x0 PUSH2 0x708 DUP2 DUP4 PUSH4 0xFFFFFFFF PUSH2 0x10EF AND JUMP JUMPDEST PUSH1 0x0 PUSH2 0x733 DUP5 DUP5 DUP5 PUSH2 0x1156 JUMP JUMPDEST PUSH2 0x7A9 DUP5 PUSH2 0x73F PUSH2 0xFFF JUMP JUMPDEST PUSH2 0x7A4 DUP6 PUSH1 0x40 MLOAD DUP1 PUSH1 0x60 ADD PUSH1 0x40 MSTORE DUP1 PUSH1 0x28 DUP2 MSTORE PUSH1 0x20 ADD PUSH2 0x1D0F PUSH1 0x28 SWAP2 CODECOPY PUSH1 0x1 PUSH1 0x1 PUSH1 0xA0 SHL SUB DUP11 AND PUSH1 0x0 SWAP1 DUP2 MSTORE PUSH1 0x3 PUSH1 0x20 MSTORE PUSH1 0x40 DUP2 KECCAK256 SWAP1 PUSH2 0x77D PUSH2 0xFFF JUMP JUMPDEST PUSH1 0x1 PUSH1 0x1 PUSH1 0xA0 SHL SUB AND DUP2 MSTORE PUSH1 0x20 DUP2 ADD SWAP2 SWAP1 SWAP2 MSTORE PUSH1 0x40 ADD PUSH1 0x0 KECCAK256 SLOAD SWAP2 SWAP1 PUSH4 0xFFFFFFFF PUSH2 0x12B4 AND JUMP JUMPDEST PUSH2 0x1003 JUMP JUMPDEST POP PUSH1 0x1 SWAP4 SWAP3 POP POP POP JUMP JUMPDEST PUSH1 0x0 PUSH2 0x708 PUSH1 0x1 DUP4 PUSH4 0xFFFFFFFF PUSH2 0x10EF AND JUMP JUMPDEST PUSH1 0x8 SLOAD PUSH1 0xFF AND SWAP1 JUMP JUMPDEST PUSH1 0x0 PUSH2 0x704 PUSH2 0x7DC PUSH2 0xFFF JUMP JUMPDEST DUP5 PUSH2 0x7A4 DUP6 PUSH1 0x3 PUSH1 0x0 PUSH2 0x7ED PUSH2 0xFFF JUMP JUMPDEST PUSH1 0x1 PUSH1 0x1 PUSH1 0xA0 SHL SUB SWAP1 DUP2 AND DUP3 MSTORE PUSH1 0x20 DUP1 DUP4 ADD SWAP4 SWAP1 SWAP4 MSTORE PUSH1 0x40 SWAP2 DUP3 ADD PUSH1 0x0 SWAP1 DUP2 KECCAK256 SWAP2 DUP13 AND DUP2 MSTORE SWAP3 MSTORE SWAP1 KECCAK256 SLOAD SWAP1 PUSH4 0xFFFFFFFF PUSH2 0x134B AND JUMP JUMPDEST PUSH1 0x0 PUSH2 0x835 PUSH2 0x830 PUSH2 0xFFF JUMP JUMPDEST PUSH2 0xD53 JUMP JUMPDEST PUSH2 0x870 JUMPI PUSH1 0x40 MLOAD PUSH3 0x461BCD PUSH1 0xE5 SHL DUP2 MSTORE PUSH1 0x4 ADD DUP1 DUP1 PUSH1 0x20 ADD DUP3 DUP2 SUB DUP3 MSTORE PUSH1 0x30 DUP2 MSTORE PUSH1 0x20 ADD DUP1 PUSH2 0x1C35 PUSH1 0x30 SWAP2 CODECOPY PUSH1 0x40 ADD SWAP2 POP POP PUSH1 0x40 MLOAD DUP1 SWAP2 SUB SWAP1 REVERT JUMPDEST PUSH2 0x704 DUP4 DUP4 PUSH2 0x13AC JUMP JUMPDEST PUSH2 0x88A PUSH2 0x885 PUSH2 0xFFF JUMP JUMPDEST PUSH2 0x8E3 JUMP JUMPDEST PUSH2 0x8C5 JUMPI PUSH1 0x40 MLOAD PUSH3 0x461BCD PUSH1 0xE5 SHL DUP2 MSTORE PUSH1 0x4 ADD DUP1 DUP1 PUSH1 0x20 ADD DUP3 DUP2 SUB DUP3 MSTORE PUSH1 0x30 DUP2 MSTORE PUSH1 0x20 ADD DUP1 PUSH2 0x1BD5 PUSH1 0x30 SWAP2 CODECOPY PUSH1 0x40 ADD SWAP2 POP POP PUSH1 0x40 MLOAD DUP1 SWAP2 SUB SWAP1 REVERT JUMPDEST PUSH2 0x8CE DUP2 PUSH2 0x149E JUMP JUMPDEST POP JUMP JUMPDEST PUSH2 0x8E1 PUSH2 0x8DC PUSH2 0xFFF JUMP JUMPDEST PUSH2 0x14AF JUMP JUMPDEST JUMP JUMPDEST PUSH1 0x0 PUSH2 0x708 PUSH1 0x9 DUP4 PUSH4 0xFFFFFFFF PUSH2 0x10EF AND JUMP JUMPDEST PUSH1 0x0 PUSH1 0xE SLOAD TIMESTAMP LT ISZERO DUP1 ISZERO PUSH2 0x90C JUMPI POP PUSH1 0xF SLOAD TIMESTAMP GT ISZERO JUMPDEST SWAP1 POP SWAP1 JUMP JUMPDEST PUSH2 0x921 PUSH2 0x91C PUSH2 0xFFF JUMP JUMPDEST PUSH2 0x7B3 JUMP JUMPDEST PUSH2 0x95C JUMPI PUSH1 0x40 MLOAD PUSH3 0x461BCD PUSH1 0xE5 SHL DUP2 MSTORE PUSH1 0x4 ADD DUP1 DUP1 PUSH1 0x20 ADD DUP3 DUP2 SUB DUP3 MSTORE PUSH1 0x2E DUP2 MSTORE PUSH1 0x20 ADD DUP1 PUSH2 0x1D9E PUSH1 0x2E SWAP2 CODECOPY PUSH1 0x40 ADD SWAP2 POP POP PUSH1 0x40 MLOAD DUP1 SWAP2 SUB SWAP1 REVERT JUMPDEST PUSH1 0xF SLOAD PUSH1 0xE SLOAD LT PUSH2 0x99E JUMPI PUSH1 0x40 MLOAD PUSH3 0x461BCD PUSH1 0xE5 SHL DUP2 MSTORE PUSH1 0x4 ADD DUP1 DUP1 PUSH1 0x20 ADD DUP3 DUP2 SUB DUP3 MSTORE PUSH1 0x40 DUP2 MSTORE PUSH1 0x20 ADD DUP1 PUSH2 0x1C86 PUSH1 0x40 SWAP2 CODECOPY PUSH1 0x40 ADD SWAP2 POP POP PUSH1 0x40 MLOAD DUP1 SWAP2 SUB SWAP1 REVERT JUMPDEST PUSH1 0xF SLOAD PUSH2 0x9B3 SWAP1 PUSH2 0xD2F0 PUSH4 0xFFFFFFFF PUSH2 0x134B AND JUMP JUMPDEST PUSH1 0xE DUP2 SWAP1 SSTORE PUSH2 0x9CA SWAP1 PUSH2 0x7E90 PUSH4 0xFFFFFFFF PUSH2 0x134B AND JUMP JUMPDEST PUSH1 0xF SSTORE JUMP JUMPDEST PUSH2 0x9DA PUSH2 0x91C PUSH2 0xFFF JUMP JUMPDEST PUSH2 0xA15 JUMPI PUSH1 0x40 MLOAD PUSH3 0x461BCD PUSH1 0xE5 SHL DUP2 MSTORE PUSH1 0x4 ADD DUP1 DUP1 PUSH1 0x20 ADD DUP3 DUP2 SUB DUP3 MSTORE PUSH1 0x2E DUP2 MSTORE PUSH1 0x20 ADD DUP1 PUSH2 0x1D9E PUSH1 0x2E SWAP2 CODECOPY PUSH1 0x40 ADD SWAP2 POP POP PUSH1 0x40 MLOAD DUP1 SWAP2 SUB SWAP1 REVERT JUMPDEST PUSH2 0x8CE DUP2 PUSH2 0x14F7 JUMP JUMPDEST PUSH1 0x1 PUSH1 0x1 PUSH1 0xA0 SHL SUB AND PUSH1 0x0 SWAP1 DUP2 MSTORE PUSH1 0x2 PUSH1 0x20 MSTORE PUSH1 0x40 SWAP1 KECCAK256 SLOAD SWAP1 JUMP JUMPDEST PUSH2 0xA44 PUSH2 0x885 PUSH2 0xFFF JUMP JUMPDEST PUSH2 0xA7F JUMPI PUSH1 0x40 MLOAD PUSH3 0x461BCD PUSH1 0xE5 SHL DUP2 MSTORE PUSH1 0x4 ADD DUP1 DUP1 PUSH1 0x20 ADD DUP3 DUP2 SUB DUP3 MSTORE PUSH1 0x30 DUP2 MSTORE PUSH1 0x20 ADD DUP1 PUSH2 0x1BD5 PUSH1 0x30 SWAP2 CODECOPY PUSH1 0x40 ADD SWAP2 POP POP PUSH1 0x40 MLOAD DUP1 SWAP2 SUB SWAP1 REVERT JUMPDEST PUSH2 0xA89 DUP3 DUP3 PUSH2 0x153F JUMP JUMPDEST POP POP JUMP JUMPDEST PUSH2 0xA9D PUSH2 0xA98 PUSH2 0xFFF JUMP JUMPDEST PUSH2 0x714 JUMP JUMPDEST PUSH2 0xAD8 JUMPI PUSH1 0x40 MLOAD PUSH3 0x461BCD PUSH1 0xE5 SHL DUP2 MSTORE PUSH1 0x4 ADD DUP1 DUP1 PUSH1 0x20 ADD DUP3 DUP2 SUB DUP3 MSTORE PUSH1 0x30 DUP2 MSTORE PUSH1 0x20 ADD DUP1 PUSH2 0x1C05 PUSH1 0x30 SWAP2 CODECOPY PUSH1 0x40 ADD SWAP2 POP POP PUSH1 0x40 MLOAD DUP1 SWAP2 SUB SWAP1 REVERT JUMPDEST PUSH2 0x8CE DUP2 PUSH2 0x1549 JUMP JUMPDEST PUSH2 0x8E1 PUSH2 0xAEC PUSH2 0xFFF JUMP JUMPDEST PUSH2 0x1591 JUMP JUMPDEST PUSH1 0x7 DUP1 SLOAD PUSH1 0x40 DUP1 MLOAD PUSH1 0x20 PUSH1 0x1F PUSH1 0x2 PUSH1 0x0 NOT PUSH2 0x100 PUSH1 0x1 DUP9 AND ISZERO MUL ADD SWAP1 SWAP6 AND SWAP5 SWAP1 SWAP5 DIV SWAP4 DUP5 ADD DUP2 SWAP1 DIV DUP2 MUL DUP3 ADD DUP2 ADD SWAP1 SWAP3 MSTORE DUP3 DUP2 MSTORE PUSH1 0x60 SWAP4 SWAP1 SWAP3 SWAP1 SWAP2 DUP4 ADD DUP3 DUP3 DUP1 ISZERO PUSH2 0x6E6 JUMPI DUP1 PUSH1 0x1F LT PUSH2 0x6BB JUMPI PUSH2 0x100 DUP1 DUP4 SLOAD DIV MUL DUP4 MSTORE SWAP2 PUSH1 0x20 ADD SWAP2 PUSH2 0x6E6 JUMP JUMPDEST PUSH2 0xB5D PUSH2 0x830 PUSH2 0xFFF JUMP JUMPDEST PUSH2 0xB98 JUMPI PUSH1 0x40 MLOAD PUSH3 0x461BCD PUSH1 0xE5 SHL DUP2 MSTORE PUSH1 0x4 ADD DUP1 DUP1 PUSH1 0x20 ADD DUP3 DUP2 SUB DUP3 MSTORE PUSH1 0x30 DUP2 MSTORE PUSH1 0x20 ADD DUP1 PUSH2 0x1C35 PUSH1 0x30 SWAP2 CODECOPY PUSH1 0x40 ADD SWAP2 POP POP PUSH1 0x40 MLOAD DUP1 SWAP2 SUB SWAP1 REVERT JUMPDEST PUSH2 0x8CE DUP2 PUSH2 0x15D9 JUMP JUMPDEST PUSH2 0x8E1 PUSH2 0xBAC PUSH2 0xFFF JUMP JUMPDEST PUSH2 0x1621 JUMP JUMPDEST PUSH1 0x0 DUP1 PUSH1 0xC PUSH1 0x0 SWAP1 SLOAD SWAP1 PUSH2 0x100 EXP SWAP1 DIV PUSH1 0x1 PUSH1 0x1 PUSH1 0xA0 SHL SUB AND PUSH1 0x1 PUSH1 0x1 PUSH1 0xA0 SHL SUB AND PUSH4 0x313CE567 PUSH1 0x40 MLOAD DUP2 PUSH4 0xFFFFFFFF AND PUSH1 0xE0 SHL DUP2 MSTORE PUSH1 0x4 ADD PUSH1 0x20 PUSH1 0x40 MLOAD DUP1 DUP4 SUB DUP2 DUP7 DUP1 EXTCODESIZE ISZERO DUP1 ISZERO PUSH2 0xC02 JUMPI PUSH1 0x0 DUP1 REVERT JUMPDEST POP GAS STATICCALL ISZERO DUP1 ISZERO PUSH2 0xC16 JUMPI RETURNDATASIZE PUSH1 0x0 DUP1 RETURNDATACOPY RETURNDATASIZE PUSH1 0x0 REVERT JUMPDEST POP POP POP POP PUSH1 0x40 MLOAD RETURNDATASIZE PUSH1 0x20 DUP2 LT ISZERO PUSH2 0xC2C JUMPI PUSH1 0x0 DUP1 REVERT JUMPDEST POP MLOAD PUSH1 0xFF AND SWAP1 POP DUP3 ISZERO PUSH2 0xC8F JUMPI PUSH2 0xC87 PUSH2 0xC5F PUSH2 0x3E8 PUSH2 0xC53 DUP8 PUSH1 0x2 PUSH4 0xFFFFFFFF PUSH2 0x1669 AND JUMP JUMPDEST SWAP1 PUSH4 0xFFFFFFFF PUSH2 0x16C2 AND JUMP JUMPDEST PUSH2 0xC7B DUP4 PUSH1 0xA EXP PUSH2 0xC53 PUSH1 0xD SLOAD DUP10 PUSH2 0x1669 SWAP1 SWAP2 SWAP1 PUSH4 0xFFFFFFFF AND JUMP JUMPDEST SWAP1 PUSH4 0xFFFFFFFF PUSH2 0x134B AND JUMP JUMPDEST SWAP2 POP POP PUSH2 0x708 JUMP JUMPDEST PUSH2 0xC87 PUSH2 0xCA9 PUSH2 0x3E8 PUSH2 0xC53 DUP8 PUSH1 0x2 PUSH4 0xFFFFFFFF PUSH2 0x1669 AND JUMP JUMPDEST PUSH2 0xCC5 DUP4 PUSH1 0xA EXP PUSH2 0xC53 PUSH1 0xD SLOAD DUP10 PUSH2 0x1669 SWAP1 SWAP2 SWAP1 PUSH4 0xFFFFFFFF AND JUMP JUMPDEST SWAP1 PUSH4 0xFFFFFFFF PUSH2 0x1704 AND JUMP JUMPDEST PUSH1 0x0 PUSH2 0x704 PUSH2 0xCDE PUSH2 0xFFF JUMP JUMPDEST DUP5 PUSH2 0x7A4 DUP6 PUSH1 0x40 MLOAD DUP1 PUSH1 0x60 ADD PUSH1 0x40 MSTORE DUP1 PUSH1 0x25 DUP2 MSTORE PUSH1 0x20 ADD PUSH2 0x1E15 PUSH1 0x25 SWAP2 CODECOPY PUSH1 0x3 PUSH1 0x0 PUSH2 0xD08 PUSH2 0xFFF JUMP JUMPDEST PUSH1 0x1 PUSH1 0x1 PUSH1 0xA0 SHL SUB SWAP1 DUP2 AND DUP3 MSTORE PUSH1 0x20 DUP1 DUP4 ADD SWAP4 SWAP1 SWAP4 MSTORE PUSH1 0x40 SWAP2 DUP3 ADD PUSH1 0x0 SWAP1 DUP2 KECCAK256 SWAP2 DUP14 AND DUP2 MSTORE SWAP3 MSTORE SWAP1 KECCAK256 SLOAD SWAP2 SWAP1 PUSH4 0xFFFFFFFF PUSH2 0x12B4 AND JUMP JUMPDEST PUSH1 0x0 PUSH2 0x704 PUSH2 0xD4C PUSH2 0xFFF JUMP JUMPDEST DUP5 DUP5 PUSH2 0x1156 JUMP JUMPDEST PUSH1 0x0 PUSH2 0x708 PUSH1 0x5 DUP4 PUSH4 0xFFFFFFFF PUSH2 0x10EF AND JUMP JUMPDEST PUSH1 0x0 PUSH2 0xD70 PUSH2 0x8F6 JUMP JUMPDEST PUSH2 0xDB4 JUMPI PUSH1 0x40 DUP1 MLOAD PUSH3 0x461BCD PUSH1 0xE5 SHL DUP2 MSTORE PUSH1 0x20 PUSH1 0x4 DUP3 ADD MSTORE PUSH1 0x10 PUSH1 0x24 DUP3 ADD MSTORE PUSH16 0x13585C9AD95D081A5CC818DB1BDCD959 PUSH1 0x82 SHL PUSH1 0x44 DUP3 ADD MSTORE SWAP1 MLOAD SWAP1 DUP2 SWAP1 SUB PUSH1 0x64 ADD SWAP1 REVERT JUMPDEST PUSH2 0xE49 PUSH2 0xDBF PUSH2 0xFFF JUMP JUMPDEST PUSH1 0xC SLOAD PUSH1 0x40 DUP1 MLOAD PUSH4 0x313CE567 PUSH1 0xE0 SHL DUP2 MSTORE SWAP1 MLOAD PUSH2 0xE44 SWAP3 PUSH1 0x1 PUSH1 0x1 PUSH1 0xA0 SHL SUB AND SWAP2 PUSH4 0x313CE567 SWAP2 PUSH1 0x4 DUP1 DUP4 ADD SWAP3 PUSH1 0x20 SWAP3 SWAP2 SWAP1 DUP3 SWAP1 SUB ADD DUP2 DUP7 DUP1 EXTCODESIZE ISZERO DUP1 ISZERO PUSH2 0xE05 JUMPI PUSH1 0x0 DUP1 REVERT JUMPDEST POP GAS STATICCALL ISZERO DUP1 ISZERO PUSH2 0xE19 JUMPI RETURNDATASIZE PUSH1 0x0 DUP1 RETURNDATACOPY RETURNDATASIZE PUSH1 0x0 REVERT JUMPDEST POP POP POP POP PUSH1 0x40 MLOAD RETURNDATASIZE PUSH1 0x20 DUP2 LT ISZERO PUSH2 0xE2F JUMPI PUSH1 0x0 DUP1 REVERT JUMPDEST POP MLOAD DUP6 SWAP1 PUSH1 0xFF AND PUSH1 0xA EXP PUSH4 0xFFFFFFFF PUSH2 0x1669 AND JUMP JUMPDEST PUSH2 0x1746 JUMP JUMPDEST POP PUSH1 0x1 SWAP2 SWAP1 POP JUMP JUMPDEST PUSH1 0x1 PUSH1 0x1 PUSH1 0xA0 SHL SUB SWAP2 DUP3 AND PUSH1 0x0 SWAP1 DUP2 MSTORE PUSH1 0x3 PUSH1 0x20 SWAP1 DUP2 MSTORE PUSH1 0x40 DUP1 DUP4 KECCAK256 SWAP4 SWAP1 SWAP5 AND DUP3 MSTORE SWAP2 SWAP1 SWAP2 MSTORE KECCAK256 SLOAD SWAP1 JUMP JUMPDEST PUSH1 0x0 PUSH2 0xE86 PUSH2 0x8F6 JUMP JUMPDEST PUSH2 0xECA JUMPI PUSH1 0x40 DUP1 MLOAD PUSH3 0x461BCD PUSH1 0xE5 SHL DUP2 MSTORE PUSH1 0x20 PUSH1 0x4 DUP3 ADD MSTORE PUSH1 0x10 PUSH1 0x24 DUP3 ADD MSTORE PUSH16 0x13585C9AD95D081A5CC818DB1BDCD959 PUSH1 0x82 SHL PUSH1 0x44 DUP3 ADD MSTORE SWAP1 MLOAD SWAP1 DUP2 SWAP1 SUB PUSH1 0x64 ADD SWAP1 REVERT JUMPDEST PUSH1 0xC SLOAD PUSH1 0x1 PUSH1 0x1 PUSH1 0xA0 SHL SUB AND PUSH4 0xAA271E1A PUSH2 0xEE3 PUSH2 0xFFF JUMP JUMPDEST PUSH1 0x40 MLOAD DUP3 PUSH4 0xFFFFFFFF AND PUSH1 0xE0 SHL DUP2 MSTORE PUSH1 0x4 ADD DUP1 DUP3 PUSH1 0x1 PUSH1 0x1 PUSH1 0xA0 SHL SUB AND PUSH1 0x1 PUSH1 0x1 PUSH1 0xA0 SHL SUB AND DUP2 MSTORE PUSH1 0x20 ADD SWAP2 POP POP PUSH1 0x20 PUSH1 0x40 MLOAD DUP1 DUP4 SUB DUP2 DUP7 DUP1 EXTCODESIZE ISZERO DUP1 ISZERO PUSH2 0xF29 JUMPI PUSH1 0x0 DUP1 REVERT JUMPDEST POP GAS STATICCALL ISZERO DUP1 ISZERO PUSH2 0xF3D JUMPI RETURNDATASIZE PUSH1 0x0 DUP1 RETURNDATACOPY RETURNDATASIZE PUSH1 0x0 REVERT JUMPDEST POP POP POP POP PUSH1 0x40 MLOAD RETURNDATASIZE PUSH1 0x20 DUP2 LT ISZERO PUSH2 0xF53 JUMPI PUSH1 0x0 DUP1 REVERT JUMPDEST POP MLOAD ISZERO PUSH2 0xE49 JUMPI PUSH1 0x40 MLOAD PUSH3 0x461BCD PUSH1 0xE5 SHL DUP2 MSTORE PUSH1 0x4 ADD DUP1 DUP1 PUSH1 0x20 ADD DUP3 DUP2 SUB DUP3 MSTORE PUSH1 0x28 DUP2 MSTORE PUSH1 0x20 ADD DUP1 PUSH2 0x1CC6 PUSH1 0x28 SWAP2 CODECOPY PUSH1 0x40 ADD SWAP2 POP POP PUSH1 0x40 MLOAD DUP1 SWAP2 SUB SWAP1 REVERT JUMPDEST PUSH2 0x8E1 PUSH2 0xF9C PUSH2 0xFFF JUMP JUMPDEST PUSH2 0x181A JUMP JUMPDEST PUSH2 0xFAC PUSH2 0x885 PUSH2 0xFFF JUMP JUMPDEST PUSH2 0xFE7 JUMPI PUSH1 0x40 MLOAD PUSH3 0x461BCD PUSH1 0xE5 SHL DUP2 MSTORE PUSH1 0x4 ADD DUP1 DUP1 PUSH1 0x20 ADD DUP3 DUP2 SUB DUP3 MSTORE PUSH1 0x30 DUP2 MSTORE PUSH1 0x20 ADD DUP1 PUSH2 0x1BD5 PUSH1 0x30 SWAP2 CODECOPY PUSH1 0x40 ADD SWAP2 POP POP PUSH1 0x40 MLOAD DUP1 SWAP2 SUB SWAP1 REVERT JUMPDEST PUSH2 0x8CE DUP2 PUSH2 0x1862 JUMP JUMPDEST PUSH1 0xC SLOAD PUSH1 0x1 PUSH1 0x1 PUSH1 0xA0 SHL SUB AND DUP2 JUMP JUMPDEST CALLER SWAP1 JUMP JUMPDEST PUSH1 0x1 PUSH1 0x1 PUSH1 0xA0 SHL SUB DUP4 AND PUSH2 0x1048 JUMPI PUSH1 0x40 MLOAD PUSH3 0x461BCD PUSH1 0xE5 SHL DUP2 MSTORE PUSH1 0x4 ADD DUP1 DUP1 PUSH1 0x20 ADD DUP3 DUP2 SUB DUP3 MSTORE PUSH1 0x24 DUP2 MSTORE PUSH1 0x20 ADD DUP1 PUSH2 0x1DF1 PUSH1 0x24 SWAP2 CODECOPY PUSH1 0x40 ADD SWAP2 POP POP PUSH1 0x40 MLOAD DUP1 SWAP2 SUB SWAP1 REVERT JUMPDEST PUSH1 0x1 PUSH1 0x1 PUSH1 0xA0 SHL SUB DUP3 AND PUSH2 0x108D JUMPI PUSH1 0x40 MLOAD PUSH3 0x461BCD PUSH1 0xE5 SHL DUP2 MSTORE PUSH1 0x4 ADD DUP1 DUP1 PUSH1 0x20 ADD DUP3 DUP2 SUB DUP3 MSTORE PUSH1 0x22 DUP2 MSTORE PUSH1 0x20 ADD DUP1 PUSH2 0x1B8D PUSH1 0x22 SWAP2 CODECOPY PUSH1 0x40 ADD SWAP2 POP POP PUSH1 0x40 MLOAD DUP1 SWAP2 SUB SWAP1 REVERT JUMPDEST PUSH1 0x1 PUSH1 0x1 PUSH1 0xA0 SHL SUB DUP1 DUP5 AND PUSH1 0x0 DUP2 DUP2 MSTORE PUSH1 0x3 PUSH1 0x20 SWAP1 DUP2 MSTORE PUSH1 0x40 DUP1 DUP4 KECCAK256 SWAP5 DUP8 AND DUP1 DUP5 MSTORE SWAP5 DUP3 MSTORE SWAP2 DUP3 SWAP1 KECCAK256 DUP6 SWAP1 SSTORE DUP2 MLOAD DUP6 DUP2 MSTORE SWAP2 MLOAD PUSH32 0x8C5BE1E5EBEC7D5BD14F71427D1E84F3DD0314C0F7B2291E5B200AC8C7C3B925 SWAP3 DUP2 SWAP1 SUB SWAP1 SWAP2 ADD SWAP1 LOG3 POP POP POP JUMP JUMPDEST PUSH1 0x0 PUSH1 0x1 PUSH1 0x1 PUSH1 0xA0 SHL SUB DUP3 AND PUSH2 0x1136 JUMPI PUSH1 0x40 MLOAD PUSH3 0x461BCD PUSH1 0xE5 SHL DUP2 MSTORE PUSH1 0x4 ADD DUP1 DUP1 PUSH1 0x20 ADD DUP3 DUP2 SUB DUP3 MSTORE PUSH1 0x22 DUP2 MSTORE PUSH1 0x20 ADD DUP1 PUSH2 0x1D37 PUSH1 0x22 SWAP2 CODECOPY PUSH1 0x40 ADD SWAP2 POP POP PUSH1 0x40 MLOAD DUP1 SWAP2 SUB SWAP1 REVERT JUMPDEST POP PUSH1 0x1 PUSH1 0x1 PUSH1 0xA0 SHL SUB AND PUSH1 0x0 SWAP1 DUP2 MSTORE PUSH1 0x20 SWAP2 SWAP1 SWAP2 MSTORE PUSH1 0x40 SWAP1 KECCAK256 SLOAD PUSH1 0xFF AND SWAP1 JUMP JUMPDEST PUSH1 0x1 PUSH1 0x1 PUSH1 0xA0 SHL SUB DUP4 AND PUSH2 0x119B JUMPI PUSH1 0x40 MLOAD PUSH3 0x461BCD PUSH1 0xE5 SHL DUP2 MSTORE PUSH1 0x4 ADD DUP1 DUP1 PUSH1 0x20 ADD DUP3 DUP2 SUB DUP3 MSTORE PUSH1 0x25 DUP2 MSTORE PUSH1 0x20 ADD DUP1 PUSH2 0x1DCC PUSH1 0x25 SWAP2 CODECOPY PUSH1 0x40 ADD SWAP2 POP POP PUSH1 0x40 MLOAD DUP1 SWAP2 SUB SWAP1 REVERT JUMPDEST PUSH1 0x1 PUSH1 0x1 PUSH1 0xA0 SHL SUB DUP3 AND PUSH2 0x11E0 JUMPI PUSH1 0x40 MLOAD PUSH3 0x461BCD PUSH1 0xE5 SHL DUP2 MSTORE PUSH1 0x4 ADD DUP1 DUP1 PUSH1 0x20 ADD DUP3 DUP2 SUB DUP3 MSTORE PUSH1 0x23 DUP2 MSTORE PUSH1 0x20 ADD DUP1 PUSH2 0x1B48 PUSH1 0x23 SWAP2 CODECOPY PUSH1 0x40 ADD SWAP2 POP POP PUSH1 0x40 MLOAD DUP1 SWAP2 SUB SWAP1 REVERT JUMPDEST PUSH2 0x1223 DUP2 PUSH1 0x40 MLOAD DUP1 PUSH1 0x60 ADD PUSH1 0x40 MSTORE DUP1 PUSH1 0x26 DUP2 MSTORE PUSH1 0x20 ADD PUSH2 0x1BAF PUSH1 0x26 SWAP2 CODECOPY PUSH1 0x1 PUSH1 0x1 PUSH1 0xA0 SHL SUB DUP7 AND PUSH1 0x0 SWAP1 DUP2 MSTORE PUSH1 0x2 PUSH1 0x20 MSTORE PUSH1 0x40 SWAP1 KECCAK256 SLOAD SWAP2 SWAP1 PUSH4 0xFFFFFFFF PUSH2 0x12B4 AND JUMP JUMPDEST PUSH1 0x1 PUSH1 0x1 PUSH1 0xA0 SHL SUB DUP1 DUP6 AND PUSH1 0x0 SWAP1 DUP2 MSTORE PUSH1 0x2 PUSH1 0x20 MSTORE PUSH1 0x40 DUP1 DUP3 KECCAK256 SWAP4 SWAP1 SWAP4 SSTORE SWAP1 DUP5 AND DUP2 MSTORE KECCAK256 SLOAD PUSH2 0x1258 SWAP1 DUP3 PUSH4 0xFFFFFFFF PUSH2 0x134B AND JUMP JUMPDEST PUSH1 0x1 PUSH1 0x1 PUSH1 0xA0 SHL SUB DUP1 DUP5 AND PUSH1 0x0 DUP2 DUP2 MSTORE PUSH1 0x2 PUSH1 0x20 SWAP1 DUP2 MSTORE PUSH1 0x40 SWAP2 DUP3 SWAP1 KECCAK256 SWAP5 SWAP1 SWAP5 SSTORE DUP1 MLOAD DUP6 DUP2 MSTORE SWAP1 MLOAD SWAP2 SWAP4 SWAP3 DUP8 AND SWAP3 PUSH32 0xDDF252AD1BE2C89B69C2B068FC378DAA952BA7F163C4A11628F55A4DF523B3EF SWAP3 SWAP2 DUP3 SWAP1 SUB ADD SWAP1 LOG3 POP POP POP JUMP JUMPDEST PUSH1 0x0 DUP2 DUP5 DUP5 GT ISZERO PUSH2 0x1343 JUMPI PUSH1 0x40 MLOAD PUSH3 0x461BCD PUSH1 0xE5 SHL DUP2 MSTORE PUSH1 0x4 ADD DUP1 DUP1 PUSH1 0x20 ADD DUP3 DUP2 SUB DUP3 MSTORE DUP4 DUP2 DUP2 MLOAD DUP2 MSTORE PUSH1 0x20 ADD SWAP2 POP DUP1 MLOAD SWAP1 PUSH1 0x20 ADD SWAP1 DUP1 DUP4 DUP4 PUSH1 0x0 JUMPDEST DUP4 DUP2 LT ISZERO PUSH2 0x1308 JUMPI DUP2 DUP2 ADD MLOAD DUP4 DUP3 ADD MSTORE PUSH1 0x20 ADD PUSH2 0x12F0 JUMP JUMPDEST POP POP POP POP SWAP1 POP SWAP1 DUP2 ADD SWAP1 PUSH1 0x1F AND DUP1 ISZERO PUSH2 0x1335 JUMPI DUP1 DUP3 SUB DUP1 MLOAD PUSH1 0x1 DUP4 PUSH1 0x20 SUB PUSH2 0x100 EXP SUB NOT AND DUP2 MSTORE PUSH1 0x20 ADD SWAP2 POP JUMPDEST POP SWAP3 POP POP POP PUSH1 0x40 MLOAD DUP1 SWAP2 SUB SWAP1 REVERT JUMPDEST POP POP POP SWAP1 SUB SWAP1 JUMP JUMPDEST PUSH1 0x0 DUP3 DUP3 ADD DUP4 DUP2 LT ISZERO PUSH2 0x13A5 JUMPI PUSH1 0x40 DUP1 MLOAD PUSH3 0x461BCD PUSH1 0xE5 SHL DUP2 MSTORE PUSH1 0x20 PUSH1 0x4 DUP3 ADD MSTORE PUSH1 0x1B PUSH1 0x24 DUP3 ADD MSTORE PUSH32 0x536166654D6174683A206164646974696F6E206F766572666C6F770000000000 PUSH1 0x44 DUP3 ADD MSTORE SWAP1 MLOAD SWAP1 DUP2 SWAP1 SUB PUSH1 0x64 ADD SWAP1 REVERT JUMPDEST SWAP4 SWAP3 POP POP POP JUMP JUMPDEST PUSH1 0x1 PUSH1 0x1 PUSH1 0xA0 SHL SUB DUP3 AND PUSH2 0x1407 JUMPI PUSH1 0x40 DUP1 MLOAD PUSH3 0x461BCD PUSH1 0xE5 SHL DUP2 MSTORE PUSH1 0x20 PUSH1 0x4 DUP3 ADD MSTORE PUSH1 0x1F PUSH1 0x24 DUP3 ADD MSTORE PUSH32 0x45524332303A206D696E7420746F20746865207A65726F206164647265737300 PUSH1 0x44 DUP3 ADD MSTORE SWAP1 MLOAD SWAP1 DUP2 SWAP1 SUB PUSH1 0x64 ADD SWAP1 REVERT JUMPDEST PUSH1 0x4 SLOAD PUSH2 0x141A SWAP1 DUP3 PUSH4 0xFFFFFFFF PUSH2 0x134B AND JUMP JUMPDEST PUSH1 0x4 SSTORE PUSH1 0x1 PUSH1 0x1 PUSH1 0xA0 SHL SUB DUP3 AND PUSH1 0x0 SWAP1 DUP2 MSTORE PUSH1 0x2 PUSH1 0x20 MSTORE PUSH1 0x40 SWAP1 KECCAK256 SLOAD PUSH2 0x1446 SWAP1 DUP3 PUSH4 0xFFFFFFFF PUSH2 0x134B AND JUMP JUMPDEST PUSH1 0x1 PUSH1 0x1 PUSH1 0xA0 SHL SUB DUP4 AND PUSH1 0x0 DUP2 DUP2 MSTORE PUSH1 0x2 PUSH1 0x20 SWAP1 DUP2 MSTORE PUSH1 0x40 DUP1 DUP4 KECCAK256 SWAP5 SWAP1 SWAP5 SSTORE DUP4 MLOAD DUP6 DUP2 MSTORE SWAP4 MLOAD SWAP3 SWAP4 SWAP2 SWAP3 PUSH32 0xDDF252AD1BE2C89B69C2B068FC378DAA952BA7F163C4A11628F55A4DF523B3EF SWAP3 DUP2 SWAP1 SUB SWAP1 SWAP2 ADD SWAP1 LOG3 POP POP JUMP JUMPDEST PUSH2 0x8CE PUSH2 0x14A9 PUSH2 0xFFF JUMP JUMPDEST DUP3 PUSH2 0x18AA JUMP JUMPDEST PUSH2 0x14C0 PUSH1 0x0 DUP3 PUSH4 0xFFFFFFFF PUSH2 0x19A6 AND JUMP JUMPDEST PUSH1 0x40 MLOAD PUSH1 0x1 PUSH1 0x1 PUSH1 0xA0 SHL SUB DUP3 AND SWAP1 PUSH32 0xE5C6F32FB04B7DE81910252A1E1D29267CD9E5FC428AFAD67442D00C7B127BD0 SWAP1 PUSH1 0x0 SWAP1 LOG2 POP JUMP JUMPDEST PUSH2 0x1508 PUSH1 0x1 DUP3 PUSH4 0xFFFFFFFF PUSH2 0x1A0D AND JUMP JUMPDEST PUSH1 0x40 MLOAD PUSH1 0x1 PUSH1 0x1 PUSH1 0xA0 SHL SUB DUP3 AND SWAP1 PUSH32 0x44D6D25963F097AD14F29F06854A01F575648A1EF82F30E562CCD3889717E339 SWAP1 PUSH1 0x0 SWAP1 LOG2 POP JUMP JUMPDEST PUSH2 0xA89 DUP3 DUP3 PUSH2 0x1A8E JUMP JUMPDEST PUSH2 0x155A PUSH1 0x0 DUP3 PUSH4 0xFFFFFFFF PUSH2 0x1A0D AND JUMP JUMPDEST PUSH1 0x40 MLOAD PUSH1 0x1 PUSH1 0x1 PUSH1 0xA0 SHL SUB DUP3 AND SWAP1 PUSH32 0x40C56D2C4C08EEAD919E7228CF5B749297271698EC38E954D322EF4BCF1D58FB SWAP1 PUSH1 0x0 SWAP1 LOG2 POP JUMP JUMPDEST PUSH2 0x15A2 PUSH1 0x1 DUP3 PUSH4 0xFFFFFFFF PUSH2 0x19A6 AND JUMP JUMPDEST PUSH1 0x40 MLOAD PUSH1 0x1 PUSH1 0x1 PUSH1 0xA0 SHL SUB DUP3 AND SWAP1 PUSH32 0xA3B62BC36326052D97EA62D63C3D60308ED4C3EA8AC079DD8499F1E9C4F80C0F SWAP1 PUSH1 0x0 SWAP1 LOG2 POP JUMP JUMPDEST PUSH2 0x15EA PUSH1 0x5 DUP3 PUSH4 0xFFFFFFFF PUSH2 0x1A0D AND JUMP JUMPDEST PUSH1 0x40 MLOAD PUSH1 0x1 PUSH1 0x1 PUSH1 0xA0 SHL SUB DUP3 AND SWAP1 PUSH32 0x6AE172837EA30B801FBFCDD4108AA1D5BF8FF775444FD70256B44E6BF3DFC3F6 SWAP1 PUSH1 0x0 SWAP1 LOG2 POP JUMP JUMPDEST PUSH2 0x1632 PUSH1 0x5 DUP3 PUSH4 0xFFFFFFFF PUSH2 0x19A6 AND JUMP JUMPDEST PUSH1 0x40 MLOAD PUSH1 0x1 PUSH1 0x1 PUSH1 0xA0 SHL SUB DUP3 AND SWAP1 PUSH32 0xE94479A9F7E1952CC78F2D6BAAB678ADC1B772D936C6583DEF489E524CB66692 SWAP1 PUSH1 0x0 SWAP1 LOG2 POP JUMP JUMPDEST PUSH1 0x0 DUP3 PUSH2 0x1678 JUMPI POP PUSH1 0x0 PUSH2 0x708 JUMP JUMPDEST DUP3 DUP3 MUL DUP3 DUP5 DUP3 DUP2 PUSH2 0x1685 JUMPI INVALID JUMPDEST DIV EQ PUSH2 0x13A5 JUMPI PUSH1 0x40 MLOAD PUSH3 0x461BCD PUSH1 0xE5 SHL DUP2 MSTORE PUSH1 0x4 ADD DUP1 DUP1 PUSH1 0x20 ADD DUP3 DUP2 SUB DUP3 MSTORE PUSH1 0x21 DUP2 MSTORE PUSH1 0x20 ADD DUP1 PUSH2 0x1CEE PUSH1 0x21 SWAP2 CODECOPY PUSH1 0x40 ADD SWAP2 POP POP PUSH1 0x40 MLOAD DUP1 SWAP2 SUB SWAP1 REVERT JUMPDEST PUSH1 0x0 PUSH2 0x13A5 DUP4 DUP4 PUSH1 0x40 MLOAD DUP1 PUSH1 0x40 ADD PUSH1 0x40 MSTORE DUP1 PUSH1 0x1A DUP2 MSTORE PUSH1 0x20 ADD PUSH32 0x536166654D6174683A206469766973696F6E206279207A65726F000000000000 DUP2 MSTORE POP PUSH2 0x1AE2 JUMP JUMPDEST PUSH1 0x0 PUSH2 0x13A5 DUP4 DUP4 PUSH1 0x40 MLOAD DUP1 PUSH1 0x40 ADD PUSH1 0x40 MSTORE DUP1 PUSH1 0x1E DUP2 MSTORE PUSH1 0x20 ADD PUSH32 0x536166654D6174683A207375627472616374696F6E206F766572666C6F770000 DUP2 MSTORE POP PUSH2 0x12B4 JUMP JUMPDEST PUSH2 0x175A ADDRESS PUSH2 0x1755 DUP4 PUSH1 0x1 PUSH2 0xBB1 JUMP JUMPDEST PUSH2 0xD3F JUMP JUMPDEST POP PUSH1 0xC SLOAD PUSH1 0x40 DUP1 MLOAD PUSH4 0x40C10F19 PUSH1 0xE0 SHL DUP2 MSTORE PUSH1 0x1 PUSH1 0x1 PUSH1 0xA0 SHL SUB DUP6 DUP2 AND PUSH1 0x4 DUP4 ADD MSTORE PUSH1 0x24 DUP3 ADD DUP6 SWAP1 MSTORE SWAP2 MLOAD SWAP2 SWAP1 SWAP3 AND SWAP2 PUSH4 0x40C10F19 SWAP2 PUSH1 0x44 DUP1 DUP4 ADD SWAP3 PUSH1 0x20 SWAP3 SWAP2 SWAP1 DUP3 SWAP1 SUB ADD DUP2 PUSH1 0x0 DUP8 DUP1 EXTCODESIZE ISZERO DUP1 ISZERO PUSH2 0x17B1 JUMPI PUSH1 0x0 DUP1 REVERT JUMPDEST POP GAS CALL ISZERO DUP1 ISZERO PUSH2 0x17C5 JUMPI RETURNDATASIZE PUSH1 0x0 DUP1 RETURNDATACOPY RETURNDATASIZE PUSH1 0x0 REVERT JUMPDEST POP POP POP POP PUSH1 0x40 MLOAD RETURNDATASIZE PUSH1 0x20 DUP2 LT ISZERO PUSH2 0x17DB JUMPI PUSH1 0x0 DUP1 REVERT JUMPDEST POP POP PUSH1 0xD SLOAD PUSH1 0x40 MLOAD DUP3 SWAP1 PUSH1 0x1 PUSH1 0x1 PUSH1 0xA0 SHL SUB DUP6 AND SWAP1 PUSH32 0x1CBC5AB135991BD2B6A4B034A04AA2AA086DAC1371CB9B16B8B5E2ED6B036BED SWAP1 PUSH1 0x0 SWAP1 LOG4 POP POP JUMP JUMPDEST PUSH2 0x182B PUSH1 0x9 DUP3 PUSH4 0xFFFFFFFF PUSH2 0x19A6 AND JUMP JUMPDEST PUSH1 0x40 MLOAD PUSH1 0x1 PUSH1 0x1 PUSH1 0xA0 SHL SUB DUP3 AND SWAP1 PUSH32 0x90EABBC0C667DB2A5029ED6BC0F5FE9F356D11684A4CA9FCFAEC0E53F12B9C8E SWAP1 PUSH1 0x0 SWAP1 LOG2 POP JUMP JUMPDEST PUSH2 0x1873 PUSH1 0x9 DUP3 PUSH4 0xFFFFFFFF PUSH2 0x1A0D AND JUMP JUMPDEST PUSH1 0x40 MLOAD PUSH1 0x1 PUSH1 0x1 PUSH1 0xA0 SHL SUB DUP3 AND SWAP1 PUSH32 0x86E57FD2B90329052917118DE7C3F521F400D439B9650DEAA906A25B08B94560 SWAP1 PUSH1 0x0 SWAP1 LOG2 POP JUMP JUMPDEST PUSH1 0x1 PUSH1 0x1 PUSH1 0xA0 SHL SUB DUP3 AND PUSH2 0x18EF JUMPI PUSH1 0x40 MLOAD PUSH3 0x461BCD PUSH1 0xE5 SHL DUP2 MSTORE PUSH1 0x4 ADD DUP1 DUP1 PUSH1 0x20 ADD DUP3 DUP2 SUB DUP3 MSTORE PUSH1 0x21 DUP2 MSTORE PUSH1 0x20 ADD DUP1 PUSH2 0x1D7D PUSH1 0x21 SWAP2 CODECOPY PUSH1 0x40 ADD SWAP2 POP POP PUSH1 0x40 MLOAD DUP1 SWAP2 SUB SWAP1 REVERT JUMPDEST PUSH2 0x1932 DUP2 PUSH1 0x40 MLOAD DUP1 PUSH1 0x60 ADD PUSH1 0x40 MSTORE DUP1 PUSH1 0x22 DUP2 MSTORE PUSH1 0x20 ADD PUSH2 0x1B6B PUSH1 0x22 SWAP2 CODECOPY PUSH1 0x1 PUSH1 0x1 PUSH1 0xA0 SHL SUB DUP6 AND PUSH1 0x0 SWAP1 DUP2 MSTORE PUSH1 0x2 PUSH1 0x20 MSTORE PUSH1 0x40 SWAP1 KECCAK256 SLOAD SWAP2 SWAP1 PUSH4 0xFFFFFFFF PUSH2 0x12B4 AND JUMP JUMPDEST PUSH1 0x1 PUSH1 0x1 PUSH1 0xA0 SHL SUB DUP4 AND PUSH1 0x0 SWAP1 DUP2 MSTORE PUSH1 0x2 PUSH1 0x20 MSTORE PUSH1 0x40 SWAP1 KECCAK256 SSTORE PUSH1 0x4 SLOAD PUSH2 0x195E SWAP1 DUP3 PUSH4 0xFFFFFFFF PUSH2 0x1704 AND JUMP JUMPDEST PUSH1 0x4 SSTORE PUSH1 0x40 DUP1 MLOAD DUP3 DUP2 MSTORE SWAP1 MLOAD PUSH1 0x0 SWAP2 PUSH1 0x1 PUSH1 0x1 PUSH1 0xA0 SHL SUB DUP6 AND SWAP2 PUSH32 0xDDF252AD1BE2C89B69C2B068FC378DAA952BA7F163C4A11628F55A4DF523B3EF SWAP2 DUP2 SWAP1 SUB PUSH1 0x20 ADD SWAP1 LOG3 POP POP JUMP JUMPDEST PUSH2 0x19B0 DUP3 DUP3 PUSH2 0x10EF JUMP JUMPDEST PUSH2 0x19EB JUMPI PUSH1 0x40 MLOAD PUSH3 0x461BCD PUSH1 0xE5 SHL DUP2 MSTORE PUSH1 0x4 ADD DUP1 DUP1 PUSH1 0x20 ADD DUP3 DUP2 SUB DUP3 MSTORE PUSH1 0x21 DUP2 MSTORE PUSH1 0x20 ADD DUP1 PUSH2 0x1C65 PUSH1 0x21 SWAP2 CODECOPY PUSH1 0x40 ADD SWAP2 POP POP PUSH1 0x40 MLOAD DUP1 SWAP2 SUB SWAP1 REVERT JUMPDEST PUSH1 0x1 PUSH1 0x1 PUSH1 0xA0 SHL SUB AND PUSH1 0x0 SWAP1 DUP2 MSTORE PUSH1 0x20 SWAP2 SWAP1 SWAP2 MSTORE PUSH1 0x40 SWAP1 KECCAK256 DUP1 SLOAD PUSH1 0xFF NOT AND SWAP1 SSTORE JUMP JUMPDEST PUSH2 0x1A17 DUP3 DUP3 PUSH2 0x10EF JUMP JUMPDEST ISZERO PUSH2 0x1A69 JUMPI PUSH1 0x40 DUP1 MLOAD PUSH3 0x461BCD PUSH1 0xE5 SHL DUP2 MSTORE PUSH1 0x20 PUSH1 0x4 DUP3 ADD MSTORE PUSH1 0x1F PUSH1 0x24 DUP3 ADD MSTORE PUSH32 0x526F6C65733A206163636F756E7420616C72656164792068617320726F6C6500 PUSH1 0x44 DUP3 ADD MSTORE SWAP1 MLOAD SWAP1 DUP2 SWAP1 SUB PUSH1 0x64 ADD SWAP1 REVERT JUMPDEST PUSH1 0x1 PUSH1 0x1 PUSH1 0xA0 SHL SUB AND PUSH1 0x0 SWAP1 DUP2 MSTORE PUSH1 0x20 SWAP2 SWAP1 SWAP2 MSTORE PUSH1 0x40 SWAP1 KECCAK256 DUP1 SLOAD PUSH1 0xFF NOT AND PUSH1 0x1 OR SWAP1 SSTORE JUMP JUMPDEST PUSH2 0x1A98 DUP3 DUP3 PUSH2 0x18AA JUMP JUMPDEST PUSH2 0xA89 DUP3 PUSH2 0x1AA4 PUSH2 0xFFF JUMP JUMPDEST PUSH2 0x7A4 DUP5 PUSH1 0x40 MLOAD DUP1 PUSH1 0x60 ADD PUSH1 0x40 MSTORE DUP1 PUSH1 0x24 DUP2 MSTORE PUSH1 0x20 ADD PUSH2 0x1D59 PUSH1 0x24 SWAP2 CODECOPY PUSH1 0x1 PUSH1 0x1 PUSH1 0xA0 SHL SUB DUP9 AND PUSH1 0x0 SWAP1 DUP2 MSTORE PUSH1 0x3 PUSH1 0x20 MSTORE PUSH1 0x40 DUP2 KECCAK256 SWAP1 PUSH2 0x77D PUSH2 0xFFF JUMP JUMPDEST PUSH1 0x0 DUP2 DUP4 PUSH2 0x1B31 JUMPI PUSH1 0x40 MLOAD PUSH3 0x461BCD PUSH1 0xE5 SHL DUP2 MSTORE PUSH1 0x20 PUSH1 0x4 DUP3 ADD DUP2 DUP2 MSTORE DUP4 MLOAD PUSH1 0x24 DUP5 ADD MSTORE DUP4 MLOAD SWAP1 SWAP3 DUP4 SWAP3 PUSH1 0x44 SWAP1 SWAP2 ADD SWAP2 SWAP1 DUP6 ADD SWAP1 DUP1 DUP4 DUP4 PUSH1 0x0 DUP4 ISZERO PUSH2 0x1308 JUMPI DUP2 DUP2 ADD MLOAD DUP4 DUP3 ADD MSTORE PUSH1 0x20 ADD PUSH2 0x12F0 JUMP JUMPDEST POP PUSH1 0x0 DUP4 DUP6 DUP2 PUSH2 0x1B3D JUMPI INVALID JUMPDEST DIV SWAP6 SWAP5 POP POP POP POP POP JUMP INVALID GASLIMIT MSTORE NUMBER ORIGIN ADDRESS GASPRICE KECCAK256 PUSH21 0x72616E7366657220746F20746865207A65726F2061 PUSH5 0x6472657373 GASLIMIT MSTORE NUMBER ORIGIN ADDRESS GASPRICE KECCAK256 PUSH3 0x75726E KECCAK256 PUSH2 0x6D6F PUSH22 0x6E7420657863656564732062616C616E636545524332 ADDRESS GASPRICE KECCAK256 PUSH2 0x7070 PUSH19 0x6F766520746F20746865207A65726F20616464 PUSH19 0x65737345524332303A207472616E7366657220 PUSH2 0x6D6F PUSH22 0x6E7420657863656564732062616C616E63654275726E PUSH6 0x72526F6C653A KECCAK256 PUSH4 0x616C6C65 PUSH19 0x20646F6573206E6F7420686176652074686520 TIMESTAMP PUSH22 0x726E657220726F6C6542726F6B6572526F6C653A2063 PUSH2 0x6C6C PUSH6 0x7220646F6573 KECCAK256 PUSH15 0x6F742068617665207468652042726F PUSH12 0x657220726F6C654D696E7465 PUSH19 0x526F6C653A2063616C6C657220646F6573206E PUSH16 0x74206861766520746865204D696E7465 PUSH19 0x20726F6C65526F6C65733A206163636F756E74 KECCAK256 PUSH5 0x6F6573206E PUSH16 0x74206861766520726F6C65536F6D6574 PUSH9 0x696E6727732077726F PUSH15 0x672C206D6179626520796F75207365 PUSH21 0x2074686520696E697469616C205F6F70656E696E67 PUSH21 0x696D652077726F6E672E596F752063616E27742062 PUSH22 0x7920796F7572206F776E20746F6B656E732C206D7920 PUSH7 0x7269656E645361 PUSH7 0x654D6174683A20 PUSH14 0x756C7469706C69636174696F6E20 PUSH16 0x766572666C6F7745524332303A207472 PUSH2 0x6E73 PUSH7 0x657220616D6F75 PUSH15 0x74206578636565647320616C6C6F77 PUSH2 0x6E63 PUSH6 0x526F6C65733A KECCAK256 PUSH2 0x6363 PUSH16 0x756E7420697320746865207A65726F20 PUSH2 0x6464 PUSH19 0x65737345524332303A206275726E20616D6F75 PUSH15 0x74206578636565647320616C6C6F77 PUSH2 0x6E63 PUSH6 0x45524332303A KECCAK256 PUSH3 0x75726E KECCAK256 PUSH7 0x726F6D20746865 KECCAK256 PUSH27 0x65726F206164647265737341646D696E526F6C653A2063616C6C65 PUSH19 0x20646F6573206E6F7420686176652074686520 COINBASE PUSH5 0x6D696E2072 PUSH16 0x6C6545524332303A207472616E736665 PUSH19 0x2066726F6D20746865207A65726F2061646472 PUSH6 0x737345524332 ADDRESS GASPRICE KECCAK256 PUSH2 0x7070 PUSH19 0x6F76652066726F6D20746865207A65726F2061 PUSH5 0x6472657373 GASLIMIT MSTORE NUMBER ORIGIN ADDRESS GASPRICE KECCAK256 PUSH5 0x6563726561 PUSH20 0x656420616C6C6F77616E63652062656C6F77207A PUSH6 0x726FA265627A PUSH27 0x72315820AA13E8A0250A9368E79BD30ECC367567914B890FDFE05D CALLVALUE SWAP13 0x27 0x2B 0xD0 ISZERO DUP11 0xF6 ADD PUSH5 0x736F6C6343 STOP SDIV GT STOP ORIGIN ",
  "sha1": "9a602a3cf7ffc78bc1bed8a97a4a85c5e0625e56",
  "source": "pragma solidity ^0.5.0;\n\n\nimport \"./PayCoin.sol\";\n\nimport \"../interfaces/IT_ERC20.sol\";\nimport \"./token_erc20.sol\";\nimport \"./BrokerRole.sol\";\nimport \"./AdminRole.sol\";\n\ncontract token_exchange is BrokerRole, AdminRole, PayCoin { //inheriting PayCoin is not \"right\", but it's the only solution we found at the present time.\n    using SafeMath for uint256;\n\n    IT_ERC20 public token;\n    uint256 private tk_price;\n    uint256 private _openingtime;\n    uint256 private _closingtime;\n\n    //address _addressPC ;\n    //= 0xc429620C4451d820B96FD3E5209FADa0F5a89852\n\n    address _frama = 0x96E7Cf89FF09659854277531FA315AFc27102E37 ;\n    address _libra = 0x2FbfB1e766E6F6244669E4794ff022a653F34eFf ;\n    address _pirot = 0x743491ab1511287491af8De4Ca25b2fbc707eB88 ;\n\n    event Buy(address indexed buyer, uint256 indexed amount, uint256 indexed price);\n    event Sell(address indexed buyer, uint256 indexed amount, uint256 indexed price);\n\n    modifier onlyWhileOpen {\n        require(isOpen(), \"Market is closed\");\n        _;\n    }\n\n    constructor() public {\n\n        token = new token_erc20();\n        tk_price = 1e18 ; //accounts for PayCoin's decimals\n        _openingtime = now ;\n        _closingtime = now + 5 minutes ;\n        //_addressPC = addressPC ;\n\n        if (!(isAdmin(_frama) && isBroker(_frama))){\n            addAdmin(_frama);\n            addBroker(_frama);\n        }\n        if (!(isAdmin(_libra) && isBroker(_libra))){\n            addAdmin(_libra);\n            addBroker(_libra);\n        }\n        if (!(isAdmin(_pirot) && isBroker(_pirot))){\n            addAdmin(_pirot);\n            addBroker(_pirot);\n        }\n\n    }\n\n    function buy(uint256 tokenAmount) external onlyWhileOpen returns (bool){\n        /*\n        require(msg.value > 0, \"You have to pay, my friend\");\n        require(msg.value == getFee(tokenAmount), \"That's not enough money!\");\n        */\n        //require(!(token.isMinter(_msgSender())), \"You can't buy your own tokens, my friend\");\n\n        _buy(_msgSender(), tokenAmount.mul(10**uint256(token.decimals())));\n\n        return true;\n    }\n\n    function sell(uint256 tokenAmount) external onlyWhileOpen returns (bool){\n        /*\n        require(msg.value > 0, \"You have to pay, my friend\");\n        require(msg.value == getFee(tokenAmount), \"That's not enough money!\");\n        */\n        require(!(token.isMinter(_msgSender())), \"You can't buy your own tokens, my friend\");\n\n        //_sell(_msgSender(), tokenAmount.mul(10**uint256(token.decimals())));\n\n        return true;\n    }\n\n    function _buy(address recipient, uint256 amount) internal {\n        // TODO Implement allowances for transferFrom\n\n        //PayCoin pcn = PayCoin(_addressPC);\n        //pcn.transferFrom(recipient, address(this), getFee(amount));\n        transfer(address(this), getFee(amount, true));\n\n        token.mint(recipient, amount);\n        //token.increaseAllowance(recipient, amount);\n\n        emit Buy(recipient, amount, tk_price);\n    }\n/*\n    function _sell(address seller, uint256 amount) internal {\n        // TODO: Implement allowances for transferFrom\n\n        //PayCoin pcn = PayCoin(_addressPC);\n        //pcn.transfer(seller,getFee(amount, false));\n\n        token.transferFrom(seller, address(this), amount);\n\n        emit Sell(address(this), amount, tk_price);\n    }\n*/\n    function getFee(uint256 amount, bool from_buy) public returns (uint256){\n        // TODO: Implement different fees for buying and selling\n        // amount * tk_price / 10^18 +- 2*amount/1000\n        uint256 exp = uint256(token.decimals());\n\n        if (from_buy){\n            return amount.mul(tk_price).div(10**exp).add(amount.mul(2).div(1000));\n        }\n        else{\n            return amount.mul(tk_price).div(10**exp).sub(amount.mul(2).div(1000));\n        }\n\n    }\n\n    function isOpen() public view returns (bool) {\n        return now >= _openingtime && now <= _closingtime;\n    }\n\n    function setOpenTime() external onlyAdmin {\n        require(_openingtime < _closingtime, \"Something's wrong, maybe you set the initial _openingtime wrong.\");\n        _openingtime = _closingtime.add(15 hours) ;\n        _closingtime = _openingtime.add(9 hours) ;\n    }\n\n\n\n\n}\n",
  "sourcePath": "contracts/token_exchange.sol",
  "type": "contract"
}