{
  "abi": [
    {
      "inputs": [
        {
          "internalType": "address",
          "name": "exchangeAddress",
          "type": "address"
        }
      ],
      "payable": false,
      "stateMutability": "nonpayable",
      "type": "constructor"
    },
    {
      "anonymous": false,
      "inputs": [
        {
          "indexed": true,
          "internalType": "address",
          "name": "account",
          "type": "address"
        }
      ],
      "name": "AdminAdded",
      "type": "event"
    },
    {
      "anonymous": false,
      "inputs": [
        {
          "indexed": true,
          "internalType": "address",
          "name": "account",
          "type": "address"
        }
      ],
      "name": "AdminRemoved",
      "type": "event"
    },
    {
      "anonymous": false,
      "inputs": [
        {
          "indexed": true,
          "internalType": "address",
          "name": "challenger",
          "type": "address"
        },
        {
          "indexed": true,
          "internalType": "address",
          "name": "challenged",
          "type": "address"
        },
        {
          "indexed": false,
          "internalType": "uint256",
          "name": "_flag",
          "type": "uint256"
        }
      ],
      "name": "DirectChallenge",
      "type": "event"
    },
    {
      "anonymous": false,
      "inputs": [
        {
          "indexed": true,
          "internalType": "address",
          "name": "winner",
          "type": "address"
        },
        {
          "indexed": true,
          "internalType": "uint256",
          "name": "_flag",
          "type": "uint256"
        },
        {
          "indexed": true,
          "internalType": "uint256",
          "name": "_amount",
          "type": "uint256"
        }
      ],
      "name": "DirectChallengeWon",
      "type": "event"
    },
    {
      "anonymous": false,
      "inputs": [
        {
          "indexed": true,
          "internalType": "address",
          "name": "winner",
          "type": "address"
        },
        {
          "indexed": true,
          "internalType": "uint256",
          "name": "coin_won",
          "type": "uint256"
        }
      ],
      "name": "Overnight",
      "type": "event"
    },
    {
      "anonymous": false,
      "inputs": [
        {
          "indexed": true,
          "internalType": "address",
          "name": "teamAddress",
          "type": "address"
        }
      ],
      "name": "Registered",
      "type": "event"
    },
    {
      "anonymous": false,
      "inputs": [
        {
          "indexed": true,
          "internalType": "address",
          "name": "account",
          "type": "address"
        }
      ],
      "name": "TeamAdded",
      "type": "event"
    },
    {
      "anonymous": false,
      "inputs": [
        {
          "indexed": true,
          "internalType": "address",
          "name": "challenger",
          "type": "address"
        },
        {
          "indexed": false,
          "internalType": "uint256",
          "name": "_flag",
          "type": "uint256"
        }
      ],
      "name": "TeamChallenge",
      "type": "event"
    },
    {
      "anonymous": false,
      "inputs": [
        {
          "indexed": true,
          "internalType": "address",
          "name": "winner",
          "type": "address"
        },
        {
          "indexed": true,
          "internalType": "uint256",
          "name": "_flag",
          "type": "uint256"
        },
        {
          "indexed": true,
          "internalType": "uint256",
          "name": "_amount",
          "type": "uint256"
        }
      ],
      "name": "TeamChallengeWon",
      "type": "event"
    },
    {
      "anonymous": false,
      "inputs": [
        {
          "indexed": true,
          "internalType": "address",
          "name": "account",
          "type": "address"
        }
      ],
      "name": "TeamRemoved",
      "type": "event"
    },
    {
      "constant": false,
      "inputs": [
        {
          "internalType": "address",
          "name": "account",
          "type": "address"
        }
      ],
      "name": "addAdmin",
      "outputs": [],
      "payable": false,
      "stateMutability": "nonpayable",
      "type": "function"
    },
    {
      "constant": false,
      "inputs": [
        {
          "internalType": "address",
          "name": "account",
          "type": "address"
        }
      ],
      "name": "addTeam",
      "outputs": [],
      "payable": false,
      "stateMutability": "nonpayable",
      "type": "function"
    },
    {
      "constant": false,
      "inputs": [
        {
          "internalType": "address",
          "name": "directChallenged",
          "type": "address"
        },
        {
          "internalType": "uint256",
          "name": "flag",
          "type": "uint256"
        }
      ],
      "name": "challengeStart",
      "outputs": [],
      "payable": false,
      "stateMutability": "nonpayable",
      "type": "function"
    },
    {
      "constant": false,
      "inputs": [
        {
          "internalType": "uint256",
          "name": "flag",
          "type": "uint256"
        }
      ],
      "name": "challengeStart",
      "outputs": [],
      "payable": false,
      "stateMutability": "nonpayable",
      "type": "function"
    },
    {
      "constant": true,
      "inputs": [
        {
          "internalType": "address",
          "name": "account",
          "type": "address"
        }
      ],
      "name": "isAdmin",
      "outputs": [
        {
          "internalType": "bool",
          "name": "",
          "type": "bool"
        }
      ],
      "payable": false,
      "stateMutability": "view",
      "type": "function"
    },
    {
      "constant": true,
      "inputs": [
        {
          "internalType": "address",
          "name": "teamAddress",
          "type": "address"
        }
      ],
      "name": "isRegistered",
      "outputs": [
        {
          "internalType": "bool",
          "name": "",
          "type": "bool"
        }
      ],
      "payable": false,
      "stateMutability": "view",
      "type": "function"
    },
    {
      "constant": true,
      "inputs": [
        {
          "internalType": "address",
          "name": "account",
          "type": "address"
        }
      ],
      "name": "isTeam",
      "outputs": [
        {
          "internalType": "bool",
          "name": "",
          "type": "bool"
        }
      ],
      "payable": false,
      "stateMutability": "view",
      "type": "function"
    },
    {
      "constant": false,
      "inputs": [
        {
          "internalType": "uint256",
          "name": "id_price",
          "type": "uint256"
        }
      ],
      "name": "overnightCheck",
      "outputs": [],
      "payable": false,
      "stateMutability": "nonpayable",
      "type": "function"
    },
    {
      "constant": false,
      "inputs": [
        {
          "internalType": "int256",
          "name": "new_delta_price",
          "type": "int256"
        }
      ],
      "name": "overnightStart",
      "outputs": [],
      "payable": false,
      "stateMutability": "nonpayable",
      "type": "function"
    },
    {
      "constant": false,
      "inputs": [
        {
          "internalType": "address",
          "name": "teamAddress",
          "type": "address"
        }
      ],
      "name": "register",
      "outputs": [],
      "payable": false,
      "stateMutability": "nonpayable",
      "type": "function"
    },
    {
      "constant": false,
      "inputs": [],
      "name": "renounceAdmin",
      "outputs": [],
      "payable": false,
      "stateMutability": "nonpayable",
      "type": "function"
    },
    {
      "constant": false,
      "inputs": [],
      "name": "renounceTeam",
      "outputs": [],
      "payable": false,
      "stateMutability": "nonpayable",
      "type": "function"
    },
    {
      "constant": false,
      "inputs": [
        {
          "internalType": "address",
          "name": "exchangeAddress",
          "type": "address"
        }
      ],
      "name": "setExchange",
      "outputs": [],
      "payable": false,
      "stateMutability": "nonpayable",
      "type": "function"
    },
    {
      "constant": false,
      "inputs": [
        {
          "internalType": "address",
          "name": "payCoinAddress",
          "type": "address"
        }
      ],
      "name": "setPayCoin",
      "outputs": [],
      "payable": false,
      "stateMutability": "nonpayable",
      "type": "function"
    },
    {
      "constant": false,
      "inputs": [
        {
          "internalType": "uint256",
          "name": "flag",
          "type": "uint256"
        }
      ],
      "name": "winDirectChallenge",
      "outputs": [
        {
          "internalType": "bool",
          "name": "",
          "type": "bool"
        }
      ],
      "payable": false,
      "stateMutability": "nonpayable",
      "type": "function"
    },
    {
      "constant": false,
      "inputs": [
        {
          "internalType": "uint256",
          "name": "flag",
          "type": "uint256"
        }
      ],
      "name": "winTeamChallenge",
      "outputs": [
        {
          "internalType": "bool",
          "name": "",
          "type": "bool"
        }
      ],
      "payable": false,
      "stateMutability": "nonpayable",
      "type": "function"
    }
  ],
  "bytecode": "6080604052600280546001600160a01b0319908116732b177c1854de132e96326b454055005e62febdc717909155600380549091167385a8d7241ffffee7290501473a9b11bfda2ae9ff1790553480156200005957600080fd5b5060405162001ea538038062001ea5833981810160405260208110156200007f57600080fd5b5051620000a7620000986001600160e01b03620001f316565b6001600160e01b03620001f716565b620000cd620000be6001600160e01b03620001f316565b6001600160e01b036200024916565b600480546001600160a01b0319166001600160a01b0383811691909117808355604080516001624b1f8b60e01b031981529051919092169263ffb4e07592808201926020929091829003018186803b1580156200012957600080fd5b505afa1580156200013e573d6000803e3d6000fd5b505050506040513d60208110156200015557600080fd5b5051600580546001600160a01b0319166001600160a01b039283161790556002546200018291166200029b565b620001a757600254620001a7906001600160a01b03166001600160e01b03620002be16565b600354620001c7906001600160a01b03166001600160e01b036200029b16565b620001ec57600354620001ec906001600160a01b03166001600160e01b03620002be16565b506200042e565b3390565b620002128160006200033860201b620017d61790919060201c565b6040516001600160a01b038216907f44d6d25963f097ad14f29f06854a01f575648a1ef82f30e562ccd3889717e33990600090a250565b620002648160016200033860201b620017d61790919060201c565b6040516001600160a01b038216907f3f5f1db80208f0d453083a86e16909cecc1e95e2618d5d927c93ace22b8200fc90600090a250565b6000620002b8826000620003c560201b6200152a1790919060201c565b92915050565b620002e4620002d56001600160e01b03620001f316565b6001600160e01b036200029b16565b620003215760405162461bcd60e51b815260040180806020018281038252602e81526020018062001e77602e913960400191505060405180910390fd5b62000335816001600160e01b03620001f716565b50565b6200034d82826001600160e01b03620003c516565b15620003a0576040805162461bcd60e51b815260206004820152601f60248201527f526f6c65733a206163636f756e7420616c72656164792068617320726f6c6500604482015290519081900360640190fd5b6001600160a01b0316600090815260209190915260409020805460ff19166001179055565b60006001600160a01b0382166200040e5760405162461bcd60e51b815260040180806020018281038252602281526020018062001e556022913960400191505060405180910390fd5b506001600160a01b03166000908152602091909152604090205460ff1690565b611a17806200043e6000396000f3fe608060405234801561001057600080fd5b50600436106101005760003560e01c806378591bfd11610097578063b463a75c11610066578063b463a75c146102a7578063c3c5a547146102cd578063d5d35f95146102f3578063d9a431b31461031057610100565b806378591bfd1461023f5780638bad0c0a1461025c5780639f986fbb14610264578063a5c6a0221461028a57610100565b8063612b7543116100d3578063612b7543146101aa57806367b1f5df146101d657806370480275146101fc57806376a9e7b31461022257610100565b8063248519141461010557806324d7806c1461013f5780634420e48614610165578063561675e11461018d575b600080fd5b61012b6004803603602081101561011b57600080fd5b50356001600160a01b0316610318565b604080519115158252519081900360200190f35b61012b6004803603602081101561015557600080fd5b50356001600160a01b0316610333565b61018b6004803603602081101561017b57600080fd5b50356001600160a01b0316610345565b005b61012b600480360360208110156101a357600080fd5b50356104c9565b61018b600480360360408110156101c057600080fd5b506001600160a01b03813516906020013561083a565b61018b600480360360208110156101ec57600080fd5b50356001600160a01b0316610a21565b61018b6004803603602081101561021257600080fd5b50356001600160a01b0316610a8e565b61018b6004803603602081101561023857600080fd5b5035610ae0565b61012b6004803603602081101561025557600080fd5b5035610c3c565b61018b610f0d565b61018b6004803603602081101561027a57600080fd5b50356001600160a01b0316610f1f565b61018b600480360360208110156102a057600080fd5b5035610f87565b61018b600480360360208110156102bd57600080fd5b50356001600160a01b03166111bd565b61012b600480360360208110156102e357600080fd5b50356001600160a01b031661120c565b61018b6004803603602081101561030957600080fd5b5035611267565b61018b61151a565b600061032b60018363ffffffff61152a16565b90505b919050565b600061032b818363ffffffff61152a16565b6000805b60065481101561039257826001600160a01b03166006828154811061036a57fe5b6000918252602090912001546001600160a01b0316141561038a57600191505b600101610349565b5080156103e6576040805162461bcd60e51b815260206004820152601a60248201527f596f7527726520616c726561647920726567697374657265642e000000000000604482015290519081900360640190fd5b600680546001810182556000919091527ff652222313e28459528d920b65115c16c04f3efc82aaedc97be59f3f377c0d3f0180546001600160a01b0319166001600160a01b03841617905561043a82610318565b61044757610447826111bd565b60065460031015610491576040805162461bcd60e51b815260206004820152600f60248201526e2a37b79036b0b73c903a32b0b6b99760891b604482015290519081900360640190fd5b6040516001600160a01b038316907f2d3734a8e47ac8316e500ac231c90a6e1848ca2285f40d07eaa52005e4b3a0e990600090a25050565b60006104db6104d6611591565b610318565b6105165760405162461bcd60e51b815260040180806020018281038252602c8152602001806119b7602c913960400191505060405180910390fd5b6005546000906001600160a01b03166379cc6790610532611591565b68056bc75e2d631000006040518363ffffffff1660e01b815260040180836001600160a01b03166001600160a01b0316815260200182815260200192505050600060405180830381600087803b15801561058b57600080fd5b505af115801561059f573d6000803e3d6000fd5b50505060008481526012602052604090205461012c01421090506108305760008381526013602052604090205460ff161561060b5760405162461bcd60e51b81526004018080602001828103825260238152602001806119946023913960400191505060405180910390fd5b610616600f84611595565b6010546001600160a01b031661062a611591565b6001600160a01b03161415610725576005546001600160a01b03166340c10f19610652611591565b685150ae84a8cdf000006040518363ffffffff1660e01b815260040180836001600160a01b03166001600160a01b0316815260200182815260200192505050602060405180830381600087803b1580156106ab57600080fd5b505af11580156106bf573d6000803e3d6000fd5b505050506040513d60208110156106d557600080fd5b50685150ae84a8cdf000009050836106eb611591565b6001600160a01b03167ffa5c135de8c72e98296cdf12890ca8b3682f079fbb46849f6f549372f634802960405160405180910390a461080d565b6005546001600160a01b03166340c10f1961073e611591565b683635c9adc5dea000006040518363ffffffff1660e01b815260040180836001600160a01b03166001600160a01b0316815260200182815260200192505050602060405180830381600087803b15801561079757600080fd5b505af11580156107ab573d6000803e3d6000fd5b505050506040513d60208110156107c157600080fd5b50683635c9adc5dea000009050836107d7611591565b6001600160a01b03167ffa5c135de8c72e98296cdf12890ca8b3682f079fbb46849f6f549372f634802960405160405180910390a45b50506000818152601360205260409020805460ff1916600190811790915561032e565b600091505061032e565b6108456104d6611591565b6108805760405162461bcd60e51b815260040180806020018281038252602c8152602001806119b7602c913960400191505060405180910390fd5b61088b600a82611629565b816001600160a01b031661089d611591565b6001600160a01b031614156108f9576040805162461bcd60e51b815260206004820181905260248201527f54686520616464726573736573206d75737420626520646966666572656e742e604482015290519081900360640190fd5b6000818152600e60205260409020429055610912611591565b600b80546001600160a01b03199081166001600160a01b03938416178255600c80549091168584161781556000848152600d6020908152604091829020805460ff1916905591549254815186815291519385169416927fed4685cef203f43449f0207532eb272e1f2de4f8a6992033ed24099f086c2106929181900390910190a36005546001600160a01b03166379cc67906109ac611591565b6802b5e3af16b18800006040518363ffffffff1660e01b815260040180836001600160a01b03166001600160a01b0316815260200182815260200192505050600060405180830381600087803b158015610a0557600080fd5b505af1158015610a19573d6000803e3d6000fd5b505050505050565b610a31610a2c611591565b610333565b610a6c5760405162461bcd60e51b815260040180806020018281038252602e815260200180611966602e913960400191505060405180910390fd5b600480546001600160a01b0319166001600160a01b0392909216919091179055565b610a99610a2c611591565b610ad45760405162461bcd60e51b815260040180806020018281038252602e815260200180611966602e913960400191505060405180910390fd5b610add816116b6565b50565b610aeb610a2c611591565b610b265760405162461bcd60e51b815260040180806020018281038252602e815260200180611966602e913960400191505060405180910390fd5b42600855600480546040805163a967119360e01b8152928301849052516001600160a01b039091169163a96711939160248083019260209291908290030181600087803b158015610b7657600080fd5b505af1158015610b8a573d6000803e3d6000fd5b505050506040513d6020811015610ba057600080fd5b50516007556009805460ff191690556005546001600160a01b03166379cc6790610bc8611591565b680ad78ebc5ac62000006040518363ffffffff1660e01b815260040180836001600160a01b03166001600160a01b0316815260200182815260200192505050600060405180830381600087803b158015610c2157600080fd5b505af1158015610c35573d6000803e3d6000fd5b5050505050565b6000610c496104d6611591565b610c845760405162461bcd60e51b815260040180806020018281038252602c8152602001806119b7602c913960400191505060405180910390fd5b6005546000906001600160a01b03166379cc6790610ca0611591565b6802b5e3af16b18800006040518363ffffffff1660e01b815260040180836001600160a01b03166001600160a01b0316815260200182815260200192505050600060405180830381600087803b158015610cf957600080fd5b505af1158015610d0d573d6000803e3d6000fd5b5050600b546001600160a01b03169150610d279050611591565b6001600160a01b03161480610d565750600c546001600160a01b0316610d4b611591565b6001600160a01b0316145b610d915760405162461bcd60e51b81526004018080602001828103825260348152602001806119326034913960400191505060405180910390fd5b6000838152600e602052604090205461012c014210610830576000838152600d602052604090205460ff1615610df85760405162461bcd60e51b81526004018080602001828103825260238152602001806119946023913960400191505060405180910390fd5b610e03600a84611595565b6005546001600160a01b03166340c10f19610e1c611591565b683635c9adc5dea000006040518363ffffffff1660e01b815260040180836001600160a01b03166001600160a01b0316815260200182815260200192505050602060405180830381600087803b158015610e7557600080fd5b505af1158015610e89573d6000803e3d6000fd5b505050506040513d6020811015610e9f57600080fd5b50683635c9adc5dea00000905083610eb5611591565b6001600160a01b03167f06c48e695609c5cc5b9d779d70abb26282055513fb1a55cba442b3cbc6d43bcd60405160405180910390a450506000818152600d60205260409020805460ff1916600190811790915561032e565b610f1d610f18611591565b6116fe565b565b610f2a610a2c611591565b610f655760405162461bcd60e51b815260040180806020018281038252602e815260200180611966602e913960400191505060405180910390fd5b600580546001600160a01b0319166001600160a01b0392909216919091179055565b610f926104d6611591565b610fcd5760405162461bcd60e51b815260040180806020018281038252602c8152602001806119b7602c913960400191505060405180910390fd5b610fd8600f82611629565b600081815260126020908152604080832042905560139091529020805460ff1916905560065460031461103c5760405162461bcd60e51b81526004018080602001828103825260308152602001806118bf6030913960400191505060405180910390fd5b60005b600654811015611102576006818154811061105657fe5b6000918252602090912001546001600160a01b0316611073611591565b6001600160a01b031614156110af5761108a611591565b601080546001600160a01b0319166001600160a01b03929092169190911790556110fa565b6011600682815481106110be57fe5b60009182526020808320909101548354600181018555938352912090910180546001600160a01b0319166001600160a01b039092169190911790555b60010161103f565b5061110b611591565b6001600160a01b03167f3d1151f535ab57b7eefbbf3baaff50efaac64f3f0df368617499905f78cb2373826040518082815260200191505060405180910390a26005546001600160a01b03166379cc6790611164611591565b68056bc75e2d631000006040518363ffffffff1660e01b815260040180836001600160a01b03166001600160a01b0316815260200182815260200192505050600060405180830381600087803b158015610c2157600080fd5b6111c86104d6611591565b6112035760405162461bcd60e51b815260040180806020018281038252602c8152602001806119b7602c913960400191505060405180910390fd5b610add81611746565b6000805b60065481101561125e57826001600160a01b03166006828154811061123157fe5b6000918252602090912001546001600160a01b0316141561125657600191505061032e565b600101611210565b50600092915050565b6112726104d6611591565b6112ad5760405162461bcd60e51b815260040180806020018281038252602c8152602001806119b7602c913960400191505060405180910390fd5b60075481146112f5576040805162461bcd60e51b815260206004820152600f60248201526e2bb937b7339034b210383934b1b29760891b604482015290519081900360640190fd5b6008544211801561130b5750600854610e100142105b156114495760095460ff16156113525760405162461bcd60e51b81526004018080602001828103825260238152602001806119946023913960400191505060405180910390fd5b6005546001600160a01b03166340c10f1961136b611591565b68410d586a20a4c000006040518363ffffffff1660e01b815260040180836001600160a01b03166001600160a01b0316815260200182815260200192505050602060405180830381600087803b1580156113c457600080fd5b505af11580156113d8573d6000803e3d6000fd5b505050506040513d60208110156113ee57600080fd5b50506009805460ff1916600117905568410d586a20a4c0000061140f611591565b6001600160a01b03167f75e44bccb8e953f3228b7bde1dc2a77ac72025aa92a8a329378d26b4f4e1a86060405160405180910390a3610add565b600554600354604080516340c10f1960e01b81526001600160a01b039283166004820152686c6b935b8bbd4000006024820152905191909216916340c10f199160448083019260209291908290030181600087803b1580156114aa57600080fd5b505af11580156114be573d6000803e3d6000fd5b505050506040513d60208110156114d457600080fd5b5050600354604051686c6b935b8bbd400000916001600160a01b0316907f75e44bccb8e953f3228b7bde1dc2a77ac72025aa92a8a329378d26b4f4e1a86090600090a350565b610f1d611525611591565b61178e565b60006001600160a01b0382166115715760405162461bcd60e51b81526004018080602001828103825260228152602001806119106022913960400191505060405180910390fd5b506001600160a01b03166000908152602091909152604090205460ff1690565b3390565b6000805b83548110156115d157828482815481106115af57fe5b906000526020600020015414156115c957600191506115d1565b600101611599565b5080611624576040805162461bcd60e51b815260206004820152601860248201527f436f756c646e27742066696e642079756f7220666c6167210000000000000000604482015290519081900360640190fd5b505050565b60005b825481101561169d578183828154811061164257fe5b90600052602060002001541415611695576040805162461bcd60e51b8152602060048201526012602482015271466c616720616c726561647920757365642160701b604482015290519081900360640190fd5b60010161162c565b5081546001810183556000928352602090922090910155565b6116c760008263ffffffff6117d616565b6040516001600160a01b038216907f44d6d25963f097ad14f29f06854a01f575648a1ef82f30e562ccd3889717e33990600090a250565b61170f60008263ffffffff61185716565b6040516001600160a01b038216907fa3b62bc36326052d97ea62d63c3d60308ed4c3ea8ac079dd8499f1e9c4f80c0f90600090a250565b61175760018263ffffffff6117d616565b6040516001600160a01b038216907f3f5f1db80208f0d453083a86e16909cecc1e95e2618d5d927c93ace22b8200fc90600090a250565b61179f60018263ffffffff61185716565b6040516001600160a01b038216907f26b6063d78aefcf96f02ff06bc9822b5a623278253add7fffa5fb453db39981090600090a250565b6117e0828261152a565b15611832576040805162461bcd60e51b815260206004820152601f60248201527f526f6c65733a206163636f756e7420616c72656164792068617320726f6c6500604482015290519081900360640190fd5b6001600160a01b0316600090815260209190915260409020805460ff19166001179055565b611861828261152a565b61189c5760405162461bcd60e51b81526004018080602001828103825260218152602001806118ef6021913960400191505060405180910390fd5b6001600160a01b0316600090815260209190915260409020805460ff1916905556fe4368616c6c656e67652063616e277420737461727420756e74696c20616c6c207465616d73207265676974657265642e526f6c65733a206163636f756e7420646f6573206e6f74206861766520726f6c65526f6c65733a206163636f756e7420697320746865207a65726f2061646472657373596f75206d7573742062652065697468657220746865206368616c6c656e676572206f7220746865206368616c6c656e6765642e41646d696e526f6c653a2063616c6c657220646f6573206e6f742068617665207468652041646d696e20726f6c65546865206368616c6c656e67652068617320616c7265616479206265656e20776f6e2e5465616d526f6c653a2063616c6c657220646f6573206e6f74206861766520746865205465616d20726f6c65a265627a7a7231582031848323f537c00ec33c135d285811e06b811d5b110003004c918b6206897d9764736f6c63430005110032526f6c65733a206163636f756e7420697320746865207a65726f206164647265737341646d696e526f6c653a2063616c6c657220646f6573206e6f742068617665207468652041646d696e20726f6c65",
  "bytecodeSha1": "da39a3ee5e6b4b0d3255bfef95601890afd80709",
  "compiler": {
    "evm_version": "istanbul",
    "optimizer": {
      "enabled": true,
      "runs": 200
    },
    "version": "0.5.17"
  },
  "contractName": "token_challenge",
  "language": "Solidity",
  "natspec": {
    "methods": {}
  },
  "opcodes": "PUSH1 0x80 PUSH1 0x40 MSTORE CALLVALUE DUP1 ISZERO PUSH2 0x10 JUMPI PUSH1 0x0 DUP1 REVERT JUMPDEST POP PUSH1 0x4 CALLDATASIZE LT PUSH2 0x100 JUMPI PUSH1 0x0 CALLDATALOAD PUSH1 0xE0 SHR DUP1 PUSH4 0x78591BFD GT PUSH2 0x97 JUMPI DUP1 PUSH4 0xB463A75C GT PUSH2 0x66 JUMPI DUP1 PUSH4 0xB463A75C EQ PUSH2 0x2A7 JUMPI DUP1 PUSH4 0xC3C5A547 EQ PUSH2 0x2CD JUMPI DUP1 PUSH4 0xD5D35F95 EQ PUSH2 0x2F3 JUMPI DUP1 PUSH4 0xD9A431B3 EQ PUSH2 0x310 JUMPI PUSH2 0x100 JUMP JUMPDEST DUP1 PUSH4 0x78591BFD EQ PUSH2 0x23F JUMPI DUP1 PUSH4 0x8BAD0C0A EQ PUSH2 0x25C JUMPI DUP1 PUSH4 0x9F986FBB EQ PUSH2 0x264 JUMPI DUP1 PUSH4 0xA5C6A022 EQ PUSH2 0x28A JUMPI PUSH2 0x100 JUMP JUMPDEST DUP1 PUSH4 0x612B7543 GT PUSH2 0xD3 JUMPI DUP1 PUSH4 0x612B7543 EQ PUSH2 0x1AA JUMPI DUP1 PUSH4 0x67B1F5DF EQ PUSH2 0x1D6 JUMPI DUP1 PUSH4 0x70480275 EQ PUSH2 0x1FC JUMPI DUP1 PUSH4 0x76A9E7B3 EQ PUSH2 0x222 JUMPI PUSH2 0x100 JUMP JUMPDEST DUP1 PUSH4 0x24851914 EQ PUSH2 0x105 JUMPI DUP1 PUSH4 0x24D7806C EQ PUSH2 0x13F JUMPI DUP1 PUSH4 0x4420E486 EQ PUSH2 0x165 JUMPI DUP1 PUSH4 0x561675E1 EQ PUSH2 0x18D JUMPI JUMPDEST PUSH1 0x0 DUP1 REVERT JUMPDEST PUSH2 0x12B PUSH1 0x4 DUP1 CALLDATASIZE SUB PUSH1 0x20 DUP2 LT ISZERO PUSH2 0x11B JUMPI PUSH1 0x0 DUP1 REVERT JUMPDEST POP CALLDATALOAD PUSH1 0x1 PUSH1 0x1 PUSH1 0xA0 SHL SUB AND PUSH2 0x318 JUMP JUMPDEST PUSH1 0x40 DUP1 MLOAD SWAP2 ISZERO ISZERO DUP3 MSTORE MLOAD SWAP1 DUP2 SWAP1 SUB PUSH1 0x20 ADD SWAP1 RETURN JUMPDEST PUSH2 0x12B PUSH1 0x4 DUP1 CALLDATASIZE SUB PUSH1 0x20 DUP2 LT ISZERO PUSH2 0x155 JUMPI PUSH1 0x0 DUP1 REVERT JUMPDEST POP CALLDATALOAD PUSH1 0x1 PUSH1 0x1 PUSH1 0xA0 SHL SUB AND PUSH2 0x333 JUMP JUMPDEST PUSH2 0x18B PUSH1 0x4 DUP1 CALLDATASIZE SUB PUSH1 0x20 DUP2 LT ISZERO PUSH2 0x17B JUMPI PUSH1 0x0 DUP1 REVERT JUMPDEST POP CALLDATALOAD PUSH1 0x1 PUSH1 0x1 PUSH1 0xA0 SHL SUB AND PUSH2 0x345 JUMP JUMPDEST STOP JUMPDEST PUSH2 0x12B PUSH1 0x4 DUP1 CALLDATASIZE SUB PUSH1 0x20 DUP2 LT ISZERO PUSH2 0x1A3 JUMPI PUSH1 0x0 DUP1 REVERT JUMPDEST POP CALLDATALOAD PUSH2 0x4C9 JUMP JUMPDEST PUSH2 0x18B PUSH1 0x4 DUP1 CALLDATASIZE SUB PUSH1 0x40 DUP2 LT ISZERO PUSH2 0x1C0 JUMPI PUSH1 0x0 DUP1 REVERT JUMPDEST POP PUSH1 0x1 PUSH1 0x1 PUSH1 0xA0 SHL SUB DUP2 CALLDATALOAD AND SWAP1 PUSH1 0x20 ADD CALLDATALOAD PUSH2 0x83A JUMP JUMPDEST PUSH2 0x18B PUSH1 0x4 DUP1 CALLDATASIZE SUB PUSH1 0x20 DUP2 LT ISZERO PUSH2 0x1EC JUMPI PUSH1 0x0 DUP1 REVERT JUMPDEST POP CALLDATALOAD PUSH1 0x1 PUSH1 0x1 PUSH1 0xA0 SHL SUB AND PUSH2 0xA21 JUMP JUMPDEST PUSH2 0x18B PUSH1 0x4 DUP1 CALLDATASIZE SUB PUSH1 0x20 DUP2 LT ISZERO PUSH2 0x212 JUMPI PUSH1 0x0 DUP1 REVERT JUMPDEST POP CALLDATALOAD PUSH1 0x1 PUSH1 0x1 PUSH1 0xA0 SHL SUB AND PUSH2 0xA8E JUMP JUMPDEST PUSH2 0x18B PUSH1 0x4 DUP1 CALLDATASIZE SUB PUSH1 0x20 DUP2 LT ISZERO PUSH2 0x238 JUMPI PUSH1 0x0 DUP1 REVERT JUMPDEST POP CALLDATALOAD PUSH2 0xAE0 JUMP JUMPDEST PUSH2 0x12B PUSH1 0x4 DUP1 CALLDATASIZE SUB PUSH1 0x20 DUP2 LT ISZERO PUSH2 0x255 JUMPI PUSH1 0x0 DUP1 REVERT JUMPDEST POP CALLDATALOAD PUSH2 0xC3C JUMP JUMPDEST PUSH2 0x18B PUSH2 0xF0D JUMP JUMPDEST PUSH2 0x18B PUSH1 0x4 DUP1 CALLDATASIZE SUB PUSH1 0x20 DUP2 LT ISZERO PUSH2 0x27A JUMPI PUSH1 0x0 DUP1 REVERT JUMPDEST POP CALLDATALOAD PUSH1 0x1 PUSH1 0x1 PUSH1 0xA0 SHL SUB AND PUSH2 0xF1F JUMP JUMPDEST PUSH2 0x18B PUSH1 0x4 DUP1 CALLDATASIZE SUB PUSH1 0x20 DUP2 LT ISZERO PUSH2 0x2A0 JUMPI PUSH1 0x0 DUP1 REVERT JUMPDEST POP CALLDATALOAD PUSH2 0xF87 JUMP JUMPDEST PUSH2 0x18B PUSH1 0x4 DUP1 CALLDATASIZE SUB PUSH1 0x20 DUP2 LT ISZERO PUSH2 0x2BD JUMPI PUSH1 0x0 DUP1 REVERT JUMPDEST POP CALLDATALOAD PUSH1 0x1 PUSH1 0x1 PUSH1 0xA0 SHL SUB AND PUSH2 0x11BD JUMP JUMPDEST PUSH2 0x12B PUSH1 0x4 DUP1 CALLDATASIZE SUB PUSH1 0x20 DUP2 LT ISZERO PUSH2 0x2E3 JUMPI PUSH1 0x0 DUP1 REVERT JUMPDEST POP CALLDATALOAD PUSH1 0x1 PUSH1 0x1 PUSH1 0xA0 SHL SUB AND PUSH2 0x120C JUMP JUMPDEST PUSH2 0x18B PUSH1 0x4 DUP1 CALLDATASIZE SUB PUSH1 0x20 DUP2 LT ISZERO PUSH2 0x309 JUMPI PUSH1 0x0 DUP1 REVERT JUMPDEST POP CALLDATALOAD PUSH2 0x1267 JUMP JUMPDEST PUSH2 0x18B PUSH2 0x151A JUMP JUMPDEST PUSH1 0x0 PUSH2 0x32B PUSH1 0x1 DUP4 PUSH4 0xFFFFFFFF PUSH2 0x152A AND JUMP JUMPDEST SWAP1 POP JUMPDEST SWAP2 SWAP1 POP JUMP JUMPDEST PUSH1 0x0 PUSH2 0x32B DUP2 DUP4 PUSH4 0xFFFFFFFF PUSH2 0x152A AND JUMP JUMPDEST PUSH1 0x0 DUP1 JUMPDEST PUSH1 0x6 SLOAD DUP2 LT ISZERO PUSH2 0x392 JUMPI DUP3 PUSH1 0x1 PUSH1 0x1 PUSH1 0xA0 SHL SUB AND PUSH1 0x6 DUP3 DUP2 SLOAD DUP2 LT PUSH2 0x36A JUMPI INVALID JUMPDEST PUSH1 0x0 SWAP2 DUP3 MSTORE PUSH1 0x20 SWAP1 SWAP2 KECCAK256 ADD SLOAD PUSH1 0x1 PUSH1 0x1 PUSH1 0xA0 SHL SUB AND EQ ISZERO PUSH2 0x38A JUMPI PUSH1 0x1 SWAP2 POP JUMPDEST PUSH1 0x1 ADD PUSH2 0x349 JUMP JUMPDEST POP DUP1 ISZERO PUSH2 0x3E6 JUMPI PUSH1 0x40 DUP1 MLOAD PUSH3 0x461BCD PUSH1 0xE5 SHL DUP2 MSTORE PUSH1 0x20 PUSH1 0x4 DUP3 ADD MSTORE PUSH1 0x1A PUSH1 0x24 DUP3 ADD MSTORE PUSH32 0x596F7527726520616C726561647920726567697374657265642E000000000000 PUSH1 0x44 DUP3 ADD MSTORE SWAP1 MLOAD SWAP1 DUP2 SWAP1 SUB PUSH1 0x64 ADD SWAP1 REVERT JUMPDEST PUSH1 0x6 DUP1 SLOAD PUSH1 0x1 DUP2 ADD DUP3 SSTORE PUSH1 0x0 SWAP2 SWAP1 SWAP2 MSTORE PUSH32 0xF652222313E28459528D920B65115C16C04F3EFC82AAEDC97BE59F3F377C0D3F ADD DUP1 SLOAD PUSH1 0x1 PUSH1 0x1 PUSH1 0xA0 SHL SUB NOT AND PUSH1 0x1 PUSH1 0x1 PUSH1 0xA0 SHL SUB DUP5 AND OR SWAP1 SSTORE PUSH2 0x43A DUP3 PUSH2 0x318 JUMP JUMPDEST PUSH2 0x447 JUMPI PUSH2 0x447 DUP3 PUSH2 0x11BD JUMP JUMPDEST PUSH1 0x6 SLOAD PUSH1 0x3 LT ISZERO PUSH2 0x491 JUMPI PUSH1 0x40 DUP1 MLOAD PUSH3 0x461BCD PUSH1 0xE5 SHL DUP2 MSTORE PUSH1 0x20 PUSH1 0x4 DUP3 ADD MSTORE PUSH1 0xF PUSH1 0x24 DUP3 ADD MSTORE PUSH15 0x2A37B79036B0B73C903A32B0B6B997 PUSH1 0x89 SHL PUSH1 0x44 DUP3 ADD MSTORE SWAP1 MLOAD SWAP1 DUP2 SWAP1 SUB PUSH1 0x64 ADD SWAP1 REVERT JUMPDEST PUSH1 0x40 MLOAD PUSH1 0x1 PUSH1 0x1 PUSH1 0xA0 SHL SUB DUP4 AND SWAP1 PUSH32 0x2D3734A8E47AC8316E500AC231C90A6E1848CA2285F40D07EAA52005E4B3A0E9 SWAP1 PUSH1 0x0 SWAP1 LOG2 POP POP JUMP JUMPDEST PUSH1 0x0 PUSH2 0x4DB PUSH2 0x4D6 PUSH2 0x1591 JUMP JUMPDEST PUSH2 0x318 JUMP JUMPDEST PUSH2 0x516 JUMPI PUSH1 0x40 MLOAD PUSH3 0x461BCD PUSH1 0xE5 SHL DUP2 MSTORE PUSH1 0x4 ADD DUP1 DUP1 PUSH1 0x20 ADD DUP3 DUP2 SUB DUP3 MSTORE PUSH1 0x2C DUP2 MSTORE PUSH1 0x20 ADD DUP1 PUSH2 0x19B7 PUSH1 0x2C SWAP2 CODECOPY PUSH1 0x40 ADD SWAP2 POP POP PUSH1 0x40 MLOAD DUP1 SWAP2 SUB SWAP1 REVERT JUMPDEST PUSH1 0x5 SLOAD PUSH1 0x0 SWAP1 PUSH1 0x1 PUSH1 0x1 PUSH1 0xA0 SHL SUB AND PUSH4 0x79CC6790 PUSH2 0x532 PUSH2 0x1591 JUMP JUMPDEST PUSH9 0x56BC75E2D63100000 PUSH1 0x40 MLOAD DUP4 PUSH4 0xFFFFFFFF AND PUSH1 0xE0 SHL DUP2 MSTORE PUSH1 0x4 ADD DUP1 DUP4 PUSH1 0x1 PUSH1 0x1 PUSH1 0xA0 SHL SUB AND PUSH1 0x1 PUSH1 0x1 PUSH1 0xA0 SHL SUB AND DUP2 MSTORE PUSH1 0x20 ADD DUP3 DUP2 MSTORE PUSH1 0x20 ADD SWAP3 POP POP POP PUSH1 0x0 PUSH1 0x40 MLOAD DUP1 DUP4 SUB DUP2 PUSH1 0x0 DUP8 DUP1 EXTCODESIZE ISZERO DUP1 ISZERO PUSH2 0x58B JUMPI PUSH1 0x0 DUP1 REVERT JUMPDEST POP GAS CALL ISZERO DUP1 ISZERO PUSH2 0x59F JUMPI RETURNDATASIZE PUSH1 0x0 DUP1 RETURNDATACOPY RETURNDATASIZE PUSH1 0x0 REVERT JUMPDEST POP POP POP PUSH1 0x0 DUP5 DUP2 MSTORE PUSH1 0x12 PUSH1 0x20 MSTORE PUSH1 0x40 SWAP1 KECCAK256 SLOAD PUSH2 0x12C ADD TIMESTAMP LT SWAP1 POP PUSH2 0x830 JUMPI PUSH1 0x0 DUP4 DUP2 MSTORE PUSH1 0x13 PUSH1 0x20 MSTORE PUSH1 0x40 SWAP1 KECCAK256 SLOAD PUSH1 0xFF AND ISZERO PUSH2 0x60B JUMPI PUSH1 0x40 MLOAD PUSH3 0x461BCD PUSH1 0xE5 SHL DUP2 MSTORE PUSH1 0x4 ADD DUP1 DUP1 PUSH1 0x20 ADD DUP3 DUP2 SUB DUP3 MSTORE PUSH1 0x23 DUP2 MSTORE PUSH1 0x20 ADD DUP1 PUSH2 0x1994 PUSH1 0x23 SWAP2 CODECOPY PUSH1 0x40 ADD SWAP2 POP POP PUSH1 0x40 MLOAD DUP1 SWAP2 SUB SWAP1 REVERT JUMPDEST PUSH2 0x616 PUSH1 0xF DUP5 PUSH2 0x1595 JUMP JUMPDEST PUSH1 0x10 SLOAD PUSH1 0x1 PUSH1 0x1 PUSH1 0xA0 SHL SUB AND PUSH2 0x62A PUSH2 0x1591 JUMP JUMPDEST PUSH1 0x1 PUSH1 0x1 PUSH1 0xA0 SHL SUB AND EQ ISZERO PUSH2 0x725 JUMPI PUSH1 0x5 SLOAD PUSH1 0x1 PUSH1 0x1 PUSH1 0xA0 SHL SUB AND PUSH4 0x40C10F19 PUSH2 0x652 PUSH2 0x1591 JUMP JUMPDEST PUSH9 0x5150AE84A8CDF00000 PUSH1 0x40 MLOAD DUP4 PUSH4 0xFFFFFFFF AND PUSH1 0xE0 SHL DUP2 MSTORE PUSH1 0x4 ADD DUP1 DUP4 PUSH1 0x1 PUSH1 0x1 PUSH1 0xA0 SHL SUB AND PUSH1 0x1 PUSH1 0x1 PUSH1 0xA0 SHL SUB AND DUP2 MSTORE PUSH1 0x20 ADD DUP3 DUP2 MSTORE PUSH1 0x20 ADD SWAP3 POP POP POP PUSH1 0x20 PUSH1 0x40 MLOAD DUP1 DUP4 SUB DUP2 PUSH1 0x0 DUP8 DUP1 EXTCODESIZE ISZERO DUP1 ISZERO PUSH2 0x6AB JUMPI PUSH1 0x0 DUP1 REVERT JUMPDEST POP GAS CALL ISZERO DUP1 ISZERO PUSH2 0x6BF JUMPI RETURNDATASIZE PUSH1 0x0 DUP1 RETURNDATACOPY RETURNDATASIZE PUSH1 0x0 REVERT JUMPDEST POP POP POP POP PUSH1 0x40 MLOAD RETURNDATASIZE PUSH1 0x20 DUP2 LT ISZERO PUSH2 0x6D5 JUMPI PUSH1 0x0 DUP1 REVERT JUMPDEST POP PUSH9 0x5150AE84A8CDF00000 SWAP1 POP DUP4 PUSH2 0x6EB PUSH2 0x1591 JUMP JUMPDEST PUSH1 0x1 PUSH1 0x1 PUSH1 0xA0 SHL SUB AND PUSH32 0xFA5C135DE8C72E98296CDF12890CA8B3682F079FBB46849F6F549372F6348029 PUSH1 0x40 MLOAD PUSH1 0x40 MLOAD DUP1 SWAP2 SUB SWAP1 LOG4 PUSH2 0x80D JUMP JUMPDEST PUSH1 0x5 SLOAD PUSH1 0x1 PUSH1 0x1 PUSH1 0xA0 SHL SUB AND PUSH4 0x40C10F19 PUSH2 0x73E PUSH2 0x1591 JUMP JUMPDEST PUSH9 0x3635C9ADC5DEA00000 PUSH1 0x40 MLOAD DUP4 PUSH4 0xFFFFFFFF AND PUSH1 0xE0 SHL DUP2 MSTORE PUSH1 0x4 ADD DUP1 DUP4 PUSH1 0x1 PUSH1 0x1 PUSH1 0xA0 SHL SUB AND PUSH1 0x1 PUSH1 0x1 PUSH1 0xA0 SHL SUB AND DUP2 MSTORE PUSH1 0x20 ADD DUP3 DUP2 MSTORE PUSH1 0x20 ADD SWAP3 POP POP POP PUSH1 0x20 PUSH1 0x40 MLOAD DUP1 DUP4 SUB DUP2 PUSH1 0x0 DUP8 DUP1 EXTCODESIZE ISZERO DUP1 ISZERO PUSH2 0x797 JUMPI PUSH1 0x0 DUP1 REVERT JUMPDEST POP GAS CALL ISZERO DUP1 ISZERO PUSH2 0x7AB JUMPI RETURNDATASIZE PUSH1 0x0 DUP1 RETURNDATACOPY RETURNDATASIZE PUSH1 0x0 REVERT JUMPDEST POP POP POP POP PUSH1 0x40 MLOAD RETURNDATASIZE PUSH1 0x20 DUP2 LT ISZERO PUSH2 0x7C1 JUMPI PUSH1 0x0 DUP1 REVERT JUMPDEST POP PUSH9 0x3635C9ADC5DEA00000 SWAP1 POP DUP4 PUSH2 0x7D7 PUSH2 0x1591 JUMP JUMPDEST PUSH1 0x1 PUSH1 0x1 PUSH1 0xA0 SHL SUB AND PUSH32 0xFA5C135DE8C72E98296CDF12890CA8B3682F079FBB46849F6F549372F6348029 PUSH1 0x40 MLOAD PUSH1 0x40 MLOAD DUP1 SWAP2 SUB SWAP1 LOG4 JUMPDEST POP POP PUSH1 0x0 DUP2 DUP2 MSTORE PUSH1 0x13 PUSH1 0x20 MSTORE PUSH1 0x40 SWAP1 KECCAK256 DUP1 SLOAD PUSH1 0xFF NOT AND PUSH1 0x1 SWAP1 DUP2 OR SWAP1 SWAP2 SSTORE PUSH2 0x32E JUMP JUMPDEST PUSH1 0x0 SWAP2 POP POP PUSH2 0x32E JUMP JUMPDEST PUSH2 0x845 PUSH2 0x4D6 PUSH2 0x1591 JUMP JUMPDEST PUSH2 0x880 JUMPI PUSH1 0x40 MLOAD PUSH3 0x461BCD PUSH1 0xE5 SHL DUP2 MSTORE PUSH1 0x4 ADD DUP1 DUP1 PUSH1 0x20 ADD DUP3 DUP2 SUB DUP3 MSTORE PUSH1 0x2C DUP2 MSTORE PUSH1 0x20 ADD DUP1 PUSH2 0x19B7 PUSH1 0x2C SWAP2 CODECOPY PUSH1 0x40 ADD SWAP2 POP POP PUSH1 0x40 MLOAD DUP1 SWAP2 SUB SWAP1 REVERT JUMPDEST PUSH2 0x88B PUSH1 0xA DUP3 PUSH2 0x1629 JUMP JUMPDEST DUP2 PUSH1 0x1 PUSH1 0x1 PUSH1 0xA0 SHL SUB AND PUSH2 0x89D PUSH2 0x1591 JUMP JUMPDEST PUSH1 0x1 PUSH1 0x1 PUSH1 0xA0 SHL SUB AND EQ ISZERO PUSH2 0x8F9 JUMPI PUSH1 0x40 DUP1 MLOAD PUSH3 0x461BCD PUSH1 0xE5 SHL DUP2 MSTORE PUSH1 0x20 PUSH1 0x4 DUP3 ADD DUP2 SWAP1 MSTORE PUSH1 0x24 DUP3 ADD MSTORE PUSH32 0x54686520616464726573736573206D75737420626520646966666572656E742E PUSH1 0x44 DUP3 ADD MSTORE SWAP1 MLOAD SWAP1 DUP2 SWAP1 SUB PUSH1 0x64 ADD SWAP1 REVERT JUMPDEST PUSH1 0x0 DUP2 DUP2 MSTORE PUSH1 0xE PUSH1 0x20 MSTORE PUSH1 0x40 SWAP1 KECCAK256 TIMESTAMP SWAP1 SSTORE PUSH2 0x912 PUSH2 0x1591 JUMP JUMPDEST PUSH1 0xB DUP1 SLOAD PUSH1 0x1 PUSH1 0x1 PUSH1 0xA0 SHL SUB NOT SWAP1 DUP2 AND PUSH1 0x1 PUSH1 0x1 PUSH1 0xA0 SHL SUB SWAP4 DUP5 AND OR DUP3 SSTORE PUSH1 0xC DUP1 SLOAD SWAP1 SWAP2 AND DUP6 DUP5 AND OR DUP2 SSTORE PUSH1 0x0 DUP5 DUP2 MSTORE PUSH1 0xD PUSH1 0x20 SWAP1 DUP2 MSTORE PUSH1 0x40 SWAP2 DUP3 SWAP1 KECCAK256 DUP1 SLOAD PUSH1 0xFF NOT AND SWAP1 SSTORE SWAP2 SLOAD SWAP3 SLOAD DUP2 MLOAD DUP7 DUP2 MSTORE SWAP2 MLOAD SWAP4 DUP6 AND SWAP5 AND SWAP3 PUSH32 0xED4685CEF203F43449F0207532EB272E1F2DE4F8A6992033ED24099F086C2106 SWAP3 SWAP2 DUP2 SWAP1 SUB SWAP1 SWAP2 ADD SWAP1 LOG3 PUSH1 0x5 SLOAD PUSH1 0x1 PUSH1 0x1 PUSH1 0xA0 SHL SUB AND PUSH4 0x79CC6790 PUSH2 0x9AC PUSH2 0x1591 JUMP JUMPDEST PUSH9 0x2B5E3AF16B1880000 PUSH1 0x40 MLOAD DUP4 PUSH4 0xFFFFFFFF AND PUSH1 0xE0 SHL DUP2 MSTORE PUSH1 0x4 ADD DUP1 DUP4 PUSH1 0x1 PUSH1 0x1 PUSH1 0xA0 SHL SUB AND PUSH1 0x1 PUSH1 0x1 PUSH1 0xA0 SHL SUB AND DUP2 MSTORE PUSH1 0x20 ADD DUP3 DUP2 MSTORE PUSH1 0x20 ADD SWAP3 POP POP POP PUSH1 0x0 PUSH1 0x40 MLOAD DUP1 DUP4 SUB DUP2 PUSH1 0x0 DUP8 DUP1 EXTCODESIZE ISZERO DUP1 ISZERO PUSH2 0xA05 JUMPI PUSH1 0x0 DUP1 REVERT JUMPDEST POP GAS CALL ISZERO DUP1 ISZERO PUSH2 0xA19 JUMPI RETURNDATASIZE PUSH1 0x0 DUP1 RETURNDATACOPY RETURNDATASIZE PUSH1 0x0 REVERT JUMPDEST POP POP POP POP POP POP JUMP JUMPDEST PUSH2 0xA31 PUSH2 0xA2C PUSH2 0x1591 JUMP JUMPDEST PUSH2 0x333 JUMP JUMPDEST PUSH2 0xA6C JUMPI PUSH1 0x40 MLOAD PUSH3 0x461BCD PUSH1 0xE5 SHL DUP2 MSTORE PUSH1 0x4 ADD DUP1 DUP1 PUSH1 0x20 ADD DUP3 DUP2 SUB DUP3 MSTORE PUSH1 0x2E DUP2 MSTORE PUSH1 0x20 ADD DUP1 PUSH2 0x1966 PUSH1 0x2E SWAP2 CODECOPY PUSH1 0x40 ADD SWAP2 POP POP PUSH1 0x40 MLOAD DUP1 SWAP2 SUB SWAP1 REVERT JUMPDEST PUSH1 0x4 DUP1 SLOAD PUSH1 0x1 PUSH1 0x1 PUSH1 0xA0 SHL SUB NOT AND PUSH1 0x1 PUSH1 0x1 PUSH1 0xA0 SHL SUB SWAP3 SWAP1 SWAP3 AND SWAP2 SWAP1 SWAP2 OR SWAP1 SSTORE JUMP JUMPDEST PUSH2 0xA99 PUSH2 0xA2C PUSH2 0x1591 JUMP JUMPDEST PUSH2 0xAD4 JUMPI PUSH1 0x40 MLOAD PUSH3 0x461BCD PUSH1 0xE5 SHL DUP2 MSTORE PUSH1 0x4 ADD DUP1 DUP1 PUSH1 0x20 ADD DUP3 DUP2 SUB DUP3 MSTORE PUSH1 0x2E DUP2 MSTORE PUSH1 0x20 ADD DUP1 PUSH2 0x1966 PUSH1 0x2E SWAP2 CODECOPY PUSH1 0x40 ADD SWAP2 POP POP PUSH1 0x40 MLOAD DUP1 SWAP2 SUB SWAP1 REVERT JUMPDEST PUSH2 0xADD DUP2 PUSH2 0x16B6 JUMP JUMPDEST POP JUMP JUMPDEST PUSH2 0xAEB PUSH2 0xA2C PUSH2 0x1591 JUMP JUMPDEST PUSH2 0xB26 JUMPI PUSH1 0x40 MLOAD PUSH3 0x461BCD PUSH1 0xE5 SHL DUP2 MSTORE PUSH1 0x4 ADD DUP1 DUP1 PUSH1 0x20 ADD DUP3 DUP2 SUB DUP3 MSTORE PUSH1 0x2E DUP2 MSTORE PUSH1 0x20 ADD DUP1 PUSH2 0x1966 PUSH1 0x2E SWAP2 CODECOPY PUSH1 0x40 ADD SWAP2 POP POP PUSH1 0x40 MLOAD DUP1 SWAP2 SUB SWAP1 REVERT JUMPDEST TIMESTAMP PUSH1 0x8 SSTORE PUSH1 0x4 DUP1 SLOAD PUSH1 0x40 DUP1 MLOAD PUSH4 0xA9671193 PUSH1 0xE0 SHL DUP2 MSTORE SWAP3 DUP4 ADD DUP5 SWAP1 MSTORE MLOAD PUSH1 0x1 PUSH1 0x1 PUSH1 0xA0 SHL SUB SWAP1 SWAP2 AND SWAP2 PUSH4 0xA9671193 SWAP2 PUSH1 0x24 DUP1 DUP4 ADD SWAP3 PUSH1 0x20 SWAP3 SWAP2 SWAP1 DUP3 SWAP1 SUB ADD DUP2 PUSH1 0x0 DUP8 DUP1 EXTCODESIZE ISZERO DUP1 ISZERO PUSH2 0xB76 JUMPI PUSH1 0x0 DUP1 REVERT JUMPDEST POP GAS CALL ISZERO DUP1 ISZERO PUSH2 0xB8A JUMPI RETURNDATASIZE PUSH1 0x0 DUP1 RETURNDATACOPY RETURNDATASIZE PUSH1 0x0 REVERT JUMPDEST POP POP POP POP PUSH1 0x40 MLOAD RETURNDATASIZE PUSH1 0x20 DUP2 LT ISZERO PUSH2 0xBA0 JUMPI PUSH1 0x0 DUP1 REVERT JUMPDEST POP MLOAD PUSH1 0x7 SSTORE PUSH1 0x9 DUP1 SLOAD PUSH1 0xFF NOT AND SWAP1 SSTORE PUSH1 0x5 SLOAD PUSH1 0x1 PUSH1 0x1 PUSH1 0xA0 SHL SUB AND PUSH4 0x79CC6790 PUSH2 0xBC8 PUSH2 0x1591 JUMP JUMPDEST PUSH9 0xAD78EBC5AC6200000 PUSH1 0x40 MLOAD DUP4 PUSH4 0xFFFFFFFF AND PUSH1 0xE0 SHL DUP2 MSTORE PUSH1 0x4 ADD DUP1 DUP4 PUSH1 0x1 PUSH1 0x1 PUSH1 0xA0 SHL SUB AND PUSH1 0x1 PUSH1 0x1 PUSH1 0xA0 SHL SUB AND DUP2 MSTORE PUSH1 0x20 ADD DUP3 DUP2 MSTORE PUSH1 0x20 ADD SWAP3 POP POP POP PUSH1 0x0 PUSH1 0x40 MLOAD DUP1 DUP4 SUB DUP2 PUSH1 0x0 DUP8 DUP1 EXTCODESIZE ISZERO DUP1 ISZERO PUSH2 0xC21 JUMPI PUSH1 0x0 DUP1 REVERT JUMPDEST POP GAS CALL ISZERO DUP1 ISZERO PUSH2 0xC35 JUMPI RETURNDATASIZE PUSH1 0x0 DUP1 RETURNDATACOPY RETURNDATASIZE PUSH1 0x0 REVERT JUMPDEST POP POP POP POP POP JUMP JUMPDEST PUSH1 0x0 PUSH2 0xC49 PUSH2 0x4D6 PUSH2 0x1591 JUMP JUMPDEST PUSH2 0xC84 JUMPI PUSH1 0x40 MLOAD PUSH3 0x461BCD PUSH1 0xE5 SHL DUP2 MSTORE PUSH1 0x4 ADD DUP1 DUP1 PUSH1 0x20 ADD DUP3 DUP2 SUB DUP3 MSTORE PUSH1 0x2C DUP2 MSTORE PUSH1 0x20 ADD DUP1 PUSH2 0x19B7 PUSH1 0x2C SWAP2 CODECOPY PUSH1 0x40 ADD SWAP2 POP POP PUSH1 0x40 MLOAD DUP1 SWAP2 SUB SWAP1 REVERT JUMPDEST PUSH1 0x5 SLOAD PUSH1 0x0 SWAP1 PUSH1 0x1 PUSH1 0x1 PUSH1 0xA0 SHL SUB AND PUSH4 0x79CC6790 PUSH2 0xCA0 PUSH2 0x1591 JUMP JUMPDEST PUSH9 0x2B5E3AF16B1880000 PUSH1 0x40 MLOAD DUP4 PUSH4 0xFFFFFFFF AND PUSH1 0xE0 SHL DUP2 MSTORE PUSH1 0x4 ADD DUP1 DUP4 PUSH1 0x1 PUSH1 0x1 PUSH1 0xA0 SHL SUB AND PUSH1 0x1 PUSH1 0x1 PUSH1 0xA0 SHL SUB AND DUP2 MSTORE PUSH1 0x20 ADD DUP3 DUP2 MSTORE PUSH1 0x20 ADD SWAP3 POP POP POP PUSH1 0x0 PUSH1 0x40 MLOAD DUP1 DUP4 SUB DUP2 PUSH1 0x0 DUP8 DUP1 EXTCODESIZE ISZERO DUP1 ISZERO PUSH2 0xCF9 JUMPI PUSH1 0x0 DUP1 REVERT JUMPDEST POP GAS CALL ISZERO DUP1 ISZERO PUSH2 0xD0D JUMPI RETURNDATASIZE PUSH1 0x0 DUP1 RETURNDATACOPY RETURNDATASIZE PUSH1 0x0 REVERT JUMPDEST POP POP PUSH1 0xB SLOAD PUSH1 0x1 PUSH1 0x1 PUSH1 0xA0 SHL SUB AND SWAP2 POP PUSH2 0xD27 SWAP1 POP PUSH2 0x1591 JUMP JUMPDEST PUSH1 0x1 PUSH1 0x1 PUSH1 0xA0 SHL SUB AND EQ DUP1 PUSH2 0xD56 JUMPI POP PUSH1 0xC SLOAD PUSH1 0x1 PUSH1 0x1 PUSH1 0xA0 SHL SUB AND PUSH2 0xD4B PUSH2 0x1591 JUMP JUMPDEST PUSH1 0x1 PUSH1 0x1 PUSH1 0xA0 SHL SUB AND EQ JUMPDEST PUSH2 0xD91 JUMPI PUSH1 0x40 MLOAD PUSH3 0x461BCD PUSH1 0xE5 SHL DUP2 MSTORE PUSH1 0x4 ADD DUP1 DUP1 PUSH1 0x20 ADD DUP3 DUP2 SUB DUP3 MSTORE PUSH1 0x34 DUP2 MSTORE PUSH1 0x20 ADD DUP1 PUSH2 0x1932 PUSH1 0x34 SWAP2 CODECOPY PUSH1 0x40 ADD SWAP2 POP POP PUSH1 0x40 MLOAD DUP1 SWAP2 SUB SWAP1 REVERT JUMPDEST PUSH1 0x0 DUP4 DUP2 MSTORE PUSH1 0xE PUSH1 0x20 MSTORE PUSH1 0x40 SWAP1 KECCAK256 SLOAD PUSH2 0x12C ADD TIMESTAMP LT PUSH2 0x830 JUMPI PUSH1 0x0 DUP4 DUP2 MSTORE PUSH1 0xD PUSH1 0x20 MSTORE PUSH1 0x40 SWAP1 KECCAK256 SLOAD PUSH1 0xFF AND ISZERO PUSH2 0xDF8 JUMPI PUSH1 0x40 MLOAD PUSH3 0x461BCD PUSH1 0xE5 SHL DUP2 MSTORE PUSH1 0x4 ADD DUP1 DUP1 PUSH1 0x20 ADD DUP3 DUP2 SUB DUP3 MSTORE PUSH1 0x23 DUP2 MSTORE PUSH1 0x20 ADD DUP1 PUSH2 0x1994 PUSH1 0x23 SWAP2 CODECOPY PUSH1 0x40 ADD SWAP2 POP POP PUSH1 0x40 MLOAD DUP1 SWAP2 SUB SWAP1 REVERT JUMPDEST PUSH2 0xE03 PUSH1 0xA DUP5 PUSH2 0x1595 JUMP JUMPDEST PUSH1 0x5 SLOAD PUSH1 0x1 PUSH1 0x1 PUSH1 0xA0 SHL SUB AND PUSH4 0x40C10F19 PUSH2 0xE1C PUSH2 0x1591 JUMP JUMPDEST PUSH9 0x3635C9ADC5DEA00000 PUSH1 0x40 MLOAD DUP4 PUSH4 0xFFFFFFFF AND PUSH1 0xE0 SHL DUP2 MSTORE PUSH1 0x4 ADD DUP1 DUP4 PUSH1 0x1 PUSH1 0x1 PUSH1 0xA0 SHL SUB AND PUSH1 0x1 PUSH1 0x1 PUSH1 0xA0 SHL SUB AND DUP2 MSTORE PUSH1 0x20 ADD DUP3 DUP2 MSTORE PUSH1 0x20 ADD SWAP3 POP POP POP PUSH1 0x20 PUSH1 0x40 MLOAD DUP1 DUP4 SUB DUP2 PUSH1 0x0 DUP8 DUP1 EXTCODESIZE ISZERO DUP1 ISZERO PUSH2 0xE75 JUMPI PUSH1 0x0 DUP1 REVERT JUMPDEST POP GAS CALL ISZERO DUP1 ISZERO PUSH2 0xE89 JUMPI RETURNDATASIZE PUSH1 0x0 DUP1 RETURNDATACOPY RETURNDATASIZE PUSH1 0x0 REVERT JUMPDEST POP POP POP POP PUSH1 0x40 MLOAD RETURNDATASIZE PUSH1 0x20 DUP2 LT ISZERO PUSH2 0xE9F JUMPI PUSH1 0x0 DUP1 REVERT JUMPDEST POP PUSH9 0x3635C9ADC5DEA00000 SWAP1 POP DUP4 PUSH2 0xEB5 PUSH2 0x1591 JUMP JUMPDEST PUSH1 0x1 PUSH1 0x1 PUSH1 0xA0 SHL SUB AND PUSH32 0x6C48E695609C5CC5B9D779D70ABB26282055513FB1A55CBA442B3CBC6D43BCD PUSH1 0x40 MLOAD PUSH1 0x40 MLOAD DUP1 SWAP2 SUB SWAP1 LOG4 POP POP PUSH1 0x0 DUP2 DUP2 MSTORE PUSH1 0xD PUSH1 0x20 MSTORE PUSH1 0x40 SWAP1 KECCAK256 DUP1 SLOAD PUSH1 0xFF NOT AND PUSH1 0x1 SWAP1 DUP2 OR SWAP1 SWAP2 SSTORE PUSH2 0x32E JUMP JUMPDEST PUSH2 0xF1D PUSH2 0xF18 PUSH2 0x1591 JUMP JUMPDEST PUSH2 0x16FE JUMP JUMPDEST JUMP JUMPDEST PUSH2 0xF2A PUSH2 0xA2C PUSH2 0x1591 JUMP JUMPDEST PUSH2 0xF65 JUMPI PUSH1 0x40 MLOAD PUSH3 0x461BCD PUSH1 0xE5 SHL DUP2 MSTORE PUSH1 0x4 ADD DUP1 DUP1 PUSH1 0x20 ADD DUP3 DUP2 SUB DUP3 MSTORE PUSH1 0x2E DUP2 MSTORE PUSH1 0x20 ADD DUP1 PUSH2 0x1966 PUSH1 0x2E SWAP2 CODECOPY PUSH1 0x40 ADD SWAP2 POP POP PUSH1 0x40 MLOAD DUP1 SWAP2 SUB SWAP1 REVERT JUMPDEST PUSH1 0x5 DUP1 SLOAD PUSH1 0x1 PUSH1 0x1 PUSH1 0xA0 SHL SUB NOT AND PUSH1 0x1 PUSH1 0x1 PUSH1 0xA0 SHL SUB SWAP3 SWAP1 SWAP3 AND SWAP2 SWAP1 SWAP2 OR SWAP1 SSTORE JUMP JUMPDEST PUSH2 0xF92 PUSH2 0x4D6 PUSH2 0x1591 JUMP JUMPDEST PUSH2 0xFCD JUMPI PUSH1 0x40 MLOAD PUSH3 0x461BCD PUSH1 0xE5 SHL DUP2 MSTORE PUSH1 0x4 ADD DUP1 DUP1 PUSH1 0x20 ADD DUP3 DUP2 SUB DUP3 MSTORE PUSH1 0x2C DUP2 MSTORE PUSH1 0x20 ADD DUP1 PUSH2 0x19B7 PUSH1 0x2C SWAP2 CODECOPY PUSH1 0x40 ADD SWAP2 POP POP PUSH1 0x40 MLOAD DUP1 SWAP2 SUB SWAP1 REVERT JUMPDEST PUSH2 0xFD8 PUSH1 0xF DUP3 PUSH2 0x1629 JUMP JUMPDEST PUSH1 0x0 DUP2 DUP2 MSTORE PUSH1 0x12 PUSH1 0x20 SWAP1 DUP2 MSTORE PUSH1 0x40 DUP1 DUP4 KECCAK256 TIMESTAMP SWAP1 SSTORE PUSH1 0x13 SWAP1 SWAP2 MSTORE SWAP1 KECCAK256 DUP1 SLOAD PUSH1 0xFF NOT AND SWAP1 SSTORE PUSH1 0x6 SLOAD PUSH1 0x3 EQ PUSH2 0x103C JUMPI PUSH1 0x40 MLOAD PUSH3 0x461BCD PUSH1 0xE5 SHL DUP2 MSTORE PUSH1 0x4 ADD DUP1 DUP1 PUSH1 0x20 ADD DUP3 DUP2 SUB DUP3 MSTORE PUSH1 0x30 DUP2 MSTORE PUSH1 0x20 ADD DUP1 PUSH2 0x18BF PUSH1 0x30 SWAP2 CODECOPY PUSH1 0x40 ADD SWAP2 POP POP PUSH1 0x40 MLOAD DUP1 SWAP2 SUB SWAP1 REVERT JUMPDEST PUSH1 0x0 JUMPDEST PUSH1 0x6 SLOAD DUP2 LT ISZERO PUSH2 0x1102 JUMPI PUSH1 0x6 DUP2 DUP2 SLOAD DUP2 LT PUSH2 0x1056 JUMPI INVALID JUMPDEST PUSH1 0x0 SWAP2 DUP3 MSTORE PUSH1 0x20 SWAP1 SWAP2 KECCAK256 ADD SLOAD PUSH1 0x1 PUSH1 0x1 PUSH1 0xA0 SHL SUB AND PUSH2 0x1073 PUSH2 0x1591 JUMP JUMPDEST PUSH1 0x1 PUSH1 0x1 PUSH1 0xA0 SHL SUB AND EQ ISZERO PUSH2 0x10AF JUMPI PUSH2 0x108A PUSH2 0x1591 JUMP JUMPDEST PUSH1 0x10 DUP1 SLOAD PUSH1 0x1 PUSH1 0x1 PUSH1 0xA0 SHL SUB NOT AND PUSH1 0x1 PUSH1 0x1 PUSH1 0xA0 SHL SUB SWAP3 SWAP1 SWAP3 AND SWAP2 SWAP1 SWAP2 OR SWAP1 SSTORE PUSH2 0x10FA JUMP JUMPDEST PUSH1 0x11 PUSH1 0x6 DUP3 DUP2 SLOAD DUP2 LT PUSH2 0x10BE JUMPI INVALID JUMPDEST PUSH1 0x0 SWAP2 DUP3 MSTORE PUSH1 0x20 DUP1 DUP4 KECCAK256 SWAP1 SWAP2 ADD SLOAD DUP4 SLOAD PUSH1 0x1 DUP2 ADD DUP6 SSTORE SWAP4 DUP4 MSTORE SWAP2 KECCAK256 SWAP1 SWAP2 ADD DUP1 SLOAD PUSH1 0x1 PUSH1 0x1 PUSH1 0xA0 SHL SUB NOT AND PUSH1 0x1 PUSH1 0x1 PUSH1 0xA0 SHL SUB SWAP1 SWAP3 AND SWAP2 SWAP1 SWAP2 OR SWAP1 SSTORE JUMPDEST PUSH1 0x1 ADD PUSH2 0x103F JUMP JUMPDEST POP PUSH2 0x110B PUSH2 0x1591 JUMP JUMPDEST PUSH1 0x1 PUSH1 0x1 PUSH1 0xA0 SHL SUB AND PUSH32 0x3D1151F535AB57B7EEFBBF3BAAFF50EFAAC64F3F0DF368617499905F78CB2373 DUP3 PUSH1 0x40 MLOAD DUP1 DUP3 DUP2 MSTORE PUSH1 0x20 ADD SWAP2 POP POP PUSH1 0x40 MLOAD DUP1 SWAP2 SUB SWAP1 LOG2 PUSH1 0x5 SLOAD PUSH1 0x1 PUSH1 0x1 PUSH1 0xA0 SHL SUB AND PUSH4 0x79CC6790 PUSH2 0x1164 PUSH2 0x1591 JUMP JUMPDEST PUSH9 0x56BC75E2D63100000 PUSH1 0x40 MLOAD DUP4 PUSH4 0xFFFFFFFF AND PUSH1 0xE0 SHL DUP2 MSTORE PUSH1 0x4 ADD DUP1 DUP4 PUSH1 0x1 PUSH1 0x1 PUSH1 0xA0 SHL SUB AND PUSH1 0x1 PUSH1 0x1 PUSH1 0xA0 SHL SUB AND DUP2 MSTORE PUSH1 0x20 ADD DUP3 DUP2 MSTORE PUSH1 0x20 ADD SWAP3 POP POP POP PUSH1 0x0 PUSH1 0x40 MLOAD DUP1 DUP4 SUB DUP2 PUSH1 0x0 DUP8 DUP1 EXTCODESIZE ISZERO DUP1 ISZERO PUSH2 0xC21 JUMPI PUSH1 0x0 DUP1 REVERT JUMPDEST PUSH2 0x11C8 PUSH2 0x4D6 PUSH2 0x1591 JUMP JUMPDEST PUSH2 0x1203 JUMPI PUSH1 0x40 MLOAD PUSH3 0x461BCD PUSH1 0xE5 SHL DUP2 MSTORE PUSH1 0x4 ADD DUP1 DUP1 PUSH1 0x20 ADD DUP3 DUP2 SUB DUP3 MSTORE PUSH1 0x2C DUP2 MSTORE PUSH1 0x20 ADD DUP1 PUSH2 0x19B7 PUSH1 0x2C SWAP2 CODECOPY PUSH1 0x40 ADD SWAP2 POP POP PUSH1 0x40 MLOAD DUP1 SWAP2 SUB SWAP1 REVERT JUMPDEST PUSH2 0xADD DUP2 PUSH2 0x1746 JUMP JUMPDEST PUSH1 0x0 DUP1 JUMPDEST PUSH1 0x6 SLOAD DUP2 LT ISZERO PUSH2 0x125E JUMPI DUP3 PUSH1 0x1 PUSH1 0x1 PUSH1 0xA0 SHL SUB AND PUSH1 0x6 DUP3 DUP2 SLOAD DUP2 LT PUSH2 0x1231 JUMPI INVALID JUMPDEST PUSH1 0x0 SWAP2 DUP3 MSTORE PUSH1 0x20 SWAP1 SWAP2 KECCAK256 ADD SLOAD PUSH1 0x1 PUSH1 0x1 PUSH1 0xA0 SHL SUB AND EQ ISZERO PUSH2 0x1256 JUMPI PUSH1 0x1 SWAP2 POP POP PUSH2 0x32E JUMP JUMPDEST PUSH1 0x1 ADD PUSH2 0x1210 JUMP JUMPDEST POP PUSH1 0x0 SWAP3 SWAP2 POP POP JUMP JUMPDEST PUSH2 0x1272 PUSH2 0x4D6 PUSH2 0x1591 JUMP JUMPDEST PUSH2 0x12AD JUMPI PUSH1 0x40 MLOAD PUSH3 0x461BCD PUSH1 0xE5 SHL DUP2 MSTORE PUSH1 0x4 ADD DUP1 DUP1 PUSH1 0x20 ADD DUP3 DUP2 SUB DUP3 MSTORE PUSH1 0x2C DUP2 MSTORE PUSH1 0x20 ADD DUP1 PUSH2 0x19B7 PUSH1 0x2C SWAP2 CODECOPY PUSH1 0x40 ADD SWAP2 POP POP PUSH1 0x40 MLOAD DUP1 SWAP2 SUB SWAP1 REVERT JUMPDEST PUSH1 0x7 SLOAD DUP2 EQ PUSH2 0x12F5 JUMPI PUSH1 0x40 DUP1 MLOAD PUSH3 0x461BCD PUSH1 0xE5 SHL DUP2 MSTORE PUSH1 0x20 PUSH1 0x4 DUP3 ADD MSTORE PUSH1 0xF PUSH1 0x24 DUP3 ADD MSTORE PUSH15 0x2BB937B7339034B210383934B1B297 PUSH1 0x89 SHL PUSH1 0x44 DUP3 ADD MSTORE SWAP1 MLOAD SWAP1 DUP2 SWAP1 SUB PUSH1 0x64 ADD SWAP1 REVERT JUMPDEST PUSH1 0x8 SLOAD TIMESTAMP GT DUP1 ISZERO PUSH2 0x130B JUMPI POP PUSH1 0x8 SLOAD PUSH2 0xE10 ADD TIMESTAMP LT JUMPDEST ISZERO PUSH2 0x1449 JUMPI PUSH1 0x9 SLOAD PUSH1 0xFF AND ISZERO PUSH2 0x1352 JUMPI PUSH1 0x40 MLOAD PUSH3 0x461BCD PUSH1 0xE5 SHL DUP2 MSTORE PUSH1 0x4 ADD DUP1 DUP1 PUSH1 0x20 ADD DUP3 DUP2 SUB DUP3 MSTORE PUSH1 0x23 DUP2 MSTORE PUSH1 0x20 ADD DUP1 PUSH2 0x1994 PUSH1 0x23 SWAP2 CODECOPY PUSH1 0x40 ADD SWAP2 POP POP PUSH1 0x40 MLOAD DUP1 SWAP2 SUB SWAP1 REVERT JUMPDEST PUSH1 0x5 SLOAD PUSH1 0x1 PUSH1 0x1 PUSH1 0xA0 SHL SUB AND PUSH4 0x40C10F19 PUSH2 0x136B PUSH2 0x1591 JUMP JUMPDEST PUSH9 0x410D586A20A4C00000 PUSH1 0x40 MLOAD DUP4 PUSH4 0xFFFFFFFF AND PUSH1 0xE0 SHL DUP2 MSTORE PUSH1 0x4 ADD DUP1 DUP4 PUSH1 0x1 PUSH1 0x1 PUSH1 0xA0 SHL SUB AND PUSH1 0x1 PUSH1 0x1 PUSH1 0xA0 SHL SUB AND DUP2 MSTORE PUSH1 0x20 ADD DUP3 DUP2 MSTORE PUSH1 0x20 ADD SWAP3 POP POP POP PUSH1 0x20 PUSH1 0x40 MLOAD DUP1 DUP4 SUB DUP2 PUSH1 0x0 DUP8 DUP1 EXTCODESIZE ISZERO DUP1 ISZERO PUSH2 0x13C4 JUMPI PUSH1 0x0 DUP1 REVERT JUMPDEST POP GAS CALL ISZERO DUP1 ISZERO PUSH2 0x13D8 JUMPI RETURNDATASIZE PUSH1 0x0 DUP1 RETURNDATACOPY RETURNDATASIZE PUSH1 0x0 REVERT JUMPDEST POP POP POP POP PUSH1 0x40 MLOAD RETURNDATASIZE PUSH1 0x20 DUP2 LT ISZERO PUSH2 0x13EE JUMPI PUSH1 0x0 DUP1 REVERT JUMPDEST POP POP PUSH1 0x9 DUP1 SLOAD PUSH1 0xFF NOT AND PUSH1 0x1 OR SWAP1 SSTORE PUSH9 0x410D586A20A4C00000 PUSH2 0x140F PUSH2 0x1591 JUMP JUMPDEST PUSH1 0x1 PUSH1 0x1 PUSH1 0xA0 SHL SUB AND PUSH32 0x75E44BCCB8E953F3228B7BDE1DC2A77AC72025AA92A8A329378D26B4F4E1A860 PUSH1 0x40 MLOAD PUSH1 0x40 MLOAD DUP1 SWAP2 SUB SWAP1 LOG3 PUSH2 0xADD JUMP JUMPDEST PUSH1 0x5 SLOAD PUSH1 0x3 SLOAD PUSH1 0x40 DUP1 MLOAD PUSH4 0x40C10F19 PUSH1 0xE0 SHL DUP2 MSTORE PUSH1 0x1 PUSH1 0x1 PUSH1 0xA0 SHL SUB SWAP3 DUP4 AND PUSH1 0x4 DUP3 ADD MSTORE PUSH9 0x6C6B935B8BBD400000 PUSH1 0x24 DUP3 ADD MSTORE SWAP1 MLOAD SWAP2 SWAP1 SWAP3 AND SWAP2 PUSH4 0x40C10F19 SWAP2 PUSH1 0x44 DUP1 DUP4 ADD SWAP3 PUSH1 0x20 SWAP3 SWAP2 SWAP1 DUP3 SWAP1 SUB ADD DUP2 PUSH1 0x0 DUP8 DUP1 EXTCODESIZE ISZERO DUP1 ISZERO PUSH2 0x14AA JUMPI PUSH1 0x0 DUP1 REVERT JUMPDEST POP GAS CALL ISZERO DUP1 ISZERO PUSH2 0x14BE JUMPI RETURNDATASIZE PUSH1 0x0 DUP1 RETURNDATACOPY RETURNDATASIZE PUSH1 0x0 REVERT JUMPDEST POP POP POP POP PUSH1 0x40 MLOAD RETURNDATASIZE PUSH1 0x20 DUP2 LT ISZERO PUSH2 0x14D4 JUMPI PUSH1 0x0 DUP1 REVERT JUMPDEST POP POP PUSH1 0x3 SLOAD PUSH1 0x40 MLOAD PUSH9 0x6C6B935B8BBD400000 SWAP2 PUSH1 0x1 PUSH1 0x1 PUSH1 0xA0 SHL SUB AND SWAP1 PUSH32 0x75E44BCCB8E953F3228B7BDE1DC2A77AC72025AA92A8A329378D26B4F4E1A860 SWAP1 PUSH1 0x0 SWAP1 LOG3 POP JUMP JUMPDEST PUSH2 0xF1D PUSH2 0x1525 PUSH2 0x1591 JUMP JUMPDEST PUSH2 0x178E JUMP JUMPDEST PUSH1 0x0 PUSH1 0x1 PUSH1 0x1 PUSH1 0xA0 SHL SUB DUP3 AND PUSH2 0x1571 JUMPI PUSH1 0x40 MLOAD PUSH3 0x461BCD PUSH1 0xE5 SHL DUP2 MSTORE PUSH1 0x4 ADD DUP1 DUP1 PUSH1 0x20 ADD DUP3 DUP2 SUB DUP3 MSTORE PUSH1 0x22 DUP2 MSTORE PUSH1 0x20 ADD DUP1 PUSH2 0x1910 PUSH1 0x22 SWAP2 CODECOPY PUSH1 0x40 ADD SWAP2 POP POP PUSH1 0x40 MLOAD DUP1 SWAP2 SUB SWAP1 REVERT JUMPDEST POP PUSH1 0x1 PUSH1 0x1 PUSH1 0xA0 SHL SUB AND PUSH1 0x0 SWAP1 DUP2 MSTORE PUSH1 0x20 SWAP2 SWAP1 SWAP2 MSTORE PUSH1 0x40 SWAP1 KECCAK256 SLOAD PUSH1 0xFF AND SWAP1 JUMP JUMPDEST CALLER SWAP1 JUMP JUMPDEST PUSH1 0x0 DUP1 JUMPDEST DUP4 SLOAD DUP2 LT ISZERO PUSH2 0x15D1 JUMPI DUP3 DUP5 DUP3 DUP2 SLOAD DUP2 LT PUSH2 0x15AF JUMPI INVALID JUMPDEST SWAP1 PUSH1 0x0 MSTORE PUSH1 0x20 PUSH1 0x0 KECCAK256 ADD SLOAD EQ ISZERO PUSH2 0x15C9 JUMPI PUSH1 0x1 SWAP2 POP PUSH2 0x15D1 JUMP JUMPDEST PUSH1 0x1 ADD PUSH2 0x1599 JUMP JUMPDEST POP DUP1 PUSH2 0x1624 JUMPI PUSH1 0x40 DUP1 MLOAD PUSH3 0x461BCD PUSH1 0xE5 SHL DUP2 MSTORE PUSH1 0x20 PUSH1 0x4 DUP3 ADD MSTORE PUSH1 0x18 PUSH1 0x24 DUP3 ADD MSTORE PUSH32 0x436F756C646E27742066696E642079756F7220666C6167210000000000000000 PUSH1 0x44 DUP3 ADD MSTORE SWAP1 MLOAD SWAP1 DUP2 SWAP1 SUB PUSH1 0x64 ADD SWAP1 REVERT JUMPDEST POP POP POP JUMP JUMPDEST PUSH1 0x0 JUMPDEST DUP3 SLOAD DUP2 LT ISZERO PUSH2 0x169D JUMPI DUP2 DUP4 DUP3 DUP2 SLOAD DUP2 LT PUSH2 0x1642 JUMPI INVALID JUMPDEST SWAP1 PUSH1 0x0 MSTORE PUSH1 0x20 PUSH1 0x0 KECCAK256 ADD SLOAD EQ ISZERO PUSH2 0x1695 JUMPI PUSH1 0x40 DUP1 MLOAD PUSH3 0x461BCD PUSH1 0xE5 SHL DUP2 MSTORE PUSH1 0x20 PUSH1 0x4 DUP3 ADD MSTORE PUSH1 0x12 PUSH1 0x24 DUP3 ADD MSTORE PUSH18 0x466C616720616C7265616479207573656421 PUSH1 0x70 SHL PUSH1 0x44 DUP3 ADD MSTORE SWAP1 MLOAD SWAP1 DUP2 SWAP1 SUB PUSH1 0x64 ADD SWAP1 REVERT JUMPDEST PUSH1 0x1 ADD PUSH2 0x162C JUMP JUMPDEST POP DUP2 SLOAD PUSH1 0x1 DUP2 ADD DUP4 SSTORE PUSH1 0x0 SWAP3 DUP4 MSTORE PUSH1 0x20 SWAP1 SWAP3 KECCAK256 SWAP1 SWAP2 ADD SSTORE JUMP JUMPDEST PUSH2 0x16C7 PUSH1 0x0 DUP3 PUSH4 0xFFFFFFFF PUSH2 0x17D6 AND JUMP JUMPDEST PUSH1 0x40 MLOAD PUSH1 0x1 PUSH1 0x1 PUSH1 0xA0 SHL SUB DUP3 AND SWAP1 PUSH32 0x44D6D25963F097AD14F29F06854A01F575648A1EF82F30E562CCD3889717E339 SWAP1 PUSH1 0x0 SWAP1 LOG2 POP JUMP JUMPDEST PUSH2 0x170F PUSH1 0x0 DUP3 PUSH4 0xFFFFFFFF PUSH2 0x1857 AND JUMP JUMPDEST PUSH1 0x40 MLOAD PUSH1 0x1 PUSH1 0x1 PUSH1 0xA0 SHL SUB DUP3 AND SWAP1 PUSH32 0xA3B62BC36326052D97EA62D63C3D60308ED4C3EA8AC079DD8499F1E9C4F80C0F SWAP1 PUSH1 0x0 SWAP1 LOG2 POP JUMP JUMPDEST PUSH2 0x1757 PUSH1 0x1 DUP3 PUSH4 0xFFFFFFFF PUSH2 0x17D6 AND JUMP JUMPDEST PUSH1 0x40 MLOAD PUSH1 0x1 PUSH1 0x1 PUSH1 0xA0 SHL SUB DUP3 AND SWAP1 PUSH32 0x3F5F1DB80208F0D453083A86E16909CECC1E95E2618D5D927C93ACE22B8200FC SWAP1 PUSH1 0x0 SWAP1 LOG2 POP JUMP JUMPDEST PUSH2 0x179F PUSH1 0x1 DUP3 PUSH4 0xFFFFFFFF PUSH2 0x1857 AND JUMP JUMPDEST PUSH1 0x40 MLOAD PUSH1 0x1 PUSH1 0x1 PUSH1 0xA0 SHL SUB DUP3 AND SWAP1 PUSH32 0x26B6063D78AEFCF96F02FF06BC9822B5A623278253ADD7FFFA5FB453DB399810 SWAP1 PUSH1 0x0 SWAP1 LOG2 POP JUMP JUMPDEST PUSH2 0x17E0 DUP3 DUP3 PUSH2 0x152A JUMP JUMPDEST ISZERO PUSH2 0x1832 JUMPI PUSH1 0x40 DUP1 MLOAD PUSH3 0x461BCD PUSH1 0xE5 SHL DUP2 MSTORE PUSH1 0x20 PUSH1 0x4 DUP3 ADD MSTORE PUSH1 0x1F PUSH1 0x24 DUP3 ADD MSTORE PUSH32 0x526F6C65733A206163636F756E7420616C72656164792068617320726F6C6500 PUSH1 0x44 DUP3 ADD MSTORE SWAP1 MLOAD SWAP1 DUP2 SWAP1 SUB PUSH1 0x64 ADD SWAP1 REVERT JUMPDEST PUSH1 0x1 PUSH1 0x1 PUSH1 0xA0 SHL SUB AND PUSH1 0x0 SWAP1 DUP2 MSTORE PUSH1 0x20 SWAP2 SWAP1 SWAP2 MSTORE PUSH1 0x40 SWAP1 KECCAK256 DUP1 SLOAD PUSH1 0xFF NOT AND PUSH1 0x1 OR SWAP1 SSTORE JUMP JUMPDEST PUSH2 0x1861 DUP3 DUP3 PUSH2 0x152A JUMP JUMPDEST PUSH2 0x189C JUMPI PUSH1 0x40 MLOAD PUSH3 0x461BCD PUSH1 0xE5 SHL DUP2 MSTORE PUSH1 0x4 ADD DUP1 DUP1 PUSH1 0x20 ADD DUP3 DUP2 SUB DUP3 MSTORE PUSH1 0x21 DUP2 MSTORE PUSH1 0x20 ADD DUP1 PUSH2 0x18EF PUSH1 0x21 SWAP2 CODECOPY PUSH1 0x40 ADD SWAP2 POP POP PUSH1 0x40 MLOAD DUP1 SWAP2 SUB SWAP1 REVERT JUMPDEST PUSH1 0x1 PUSH1 0x1 PUSH1 0xA0 SHL SUB AND PUSH1 0x0 SWAP1 DUP2 MSTORE PUSH1 0x20 SWAP2 SWAP1 SWAP2 MSTORE PUSH1 0x40 SWAP1 KECCAK256 DUP1 SLOAD PUSH1 0xFF NOT AND SWAP1 SSTORE JUMP INVALID NUMBER PUSH9 0x616C6C656E67652063 PUSH2 0x6E27 PUSH21 0x20737461727420756E74696C20616C6C207465616D PUSH20 0x207265676974657265642E526F6C65733A206163 PUSH4 0x6F756E74 KECCAK256 PUSH5 0x6F6573206E PUSH16 0x74206861766520726F6C65526F6C6573 GASPRICE KECCAK256 PUSH2 0x6363 PUSH16 0x756E7420697320746865207A65726F20 PUSH2 0x6464 PUSH19 0x657373596F75206D7573742062652065697468 PUSH6 0x722074686520 PUSH4 0x68616C6C PUSH6 0x6E676572206F PUSH19 0x20746865206368616C6C656E6765642E41646D PUSH10 0x6E526F6C653A2063616C PUSH13 0x657220646F6573206E6F742068 PUSH2 0x7665 KECCAK256 PUSH21 0x68652041646D696E20726F6C65546865206368616C PUSH13 0x656E67652068617320616C7265 PUSH2 0x6479 KECCAK256 PUSH3 0x65656E KECCAK256 PUSH24 0x6F6E2E5465616D526F6C653A2063616C6C657220646F6573 KECCAK256 PUSH15 0x6F7420686176652074686520546561 PUSH14 0x20726F6C65A265627A7A72315820 BALANCE DUP5 DUP4 0x23 CREATE2 CALLDATACOPY 0xC0 0xE 0xC3 EXTCODECOPY SGT 0x5D 0x28 PC GT 0xE0 PUSH12 0x811D5B110003004C918B6206 DUP10 PUSH30 0x9764736F6C63430005110032000000000000000000000000000000000000 ",
  "sha1": "2e7a36507150cef45f73814263a3e38b47b883eb",
  "source": "pragma solidity ^0.5.0;\n\n// import \"OpenZeppelin/openzeppelin-contracts@2.5.0/contracts/GSN/Context.sol\";\nimport \"./token_exchange.sol\" ; \nimport \"./TeamRole.sol\" ; \n\ncontract token_challenge is AdminRole, TeamRole {\n\n    //address _exchangeAddress; \n    address private _fss_admin = 0x2b177c1854DE132E96326B454055005E62feBDc7; \n    address private _fss_trading = 0x85A8d7241Ffffee7290501473A9B11BFdA2Ae9Ff ;\n\n    //EXCHANGE & PAYCOIN\n    token_exchange fss_exchange; \n    IT_PayCoin payCoin; \n\n    //SIGNING UP & CHECKING VARIABLES\n    address[] _teamAddresses; \n\n    event Registered(address indexed teamAddress); \n\n    //PRICE OVERNIGHT VARIABLES\n    uint256 _last_id_price; \n    uint256 _startOvernightChallenge;\n    bool _overnightWon; \n    \n    event Overnight(address indexed winner, uint256 indexed coin_won); \n\n    //DIRECT CHALLENGE VARIABLES\n    uint256[] _directFlag;    \n    address _directChallenger; \n    address _directChallenged; \n    \n    mapping (uint256 => bool) _directChallengeWon;\n    mapping (uint256 => uint256) _startDirectChallenge; \n\n    event DirectChallenge(address indexed challenger, address indexed challenged, uint256 _flag); \n    event DirectChallengeWon(address indexed winner, uint256 indexed _flag, uint256 indexed _amount); \n\n    //TEAM CHALLENGE VARIABLES\n    uint256[] _teamFlag; \n    address _teamChallenger; \n    address[] _teamChallenged;\n    \n    mapping (uint256 => uint256) _startTeamChallenge; \n    mapping (uint256 => bool) _teamChallengeWon; \n    \n    event TeamChallenge(address indexed challenger, uint256 _flag);\n    event TeamChallengeWon(address indexed winner, uint256 indexed _flag, uint256 indexed _amount);  \n\n    //CONSTRUCTOR\n    constructor (address exchangeAddress) public {\n        fss_exchange = token_exchange(exchangeAddress);\n        payCoin = IT_PayCoin(fss_exchange.payCoin());\n\n        if (!(isAdmin(_fss_admin))){\n            addAdmin(_fss_admin);\n        }\n\n        if (!(isAdmin(_fss_trading))){\n            addAdmin(_fss_trading);\n        }\n\n        //register(_fss_trading); \n\n    }\n\n    //SIGNING UP & CHECKING FUNCTIONS\n    function register(address teamAddress) external {\n        bool _alreadyRegistered = false; \n\n        //TODO: Remember to uncomment!\n        //require(!(fss_exchange.isOpen()), \"The market is still open, come back later\");\n\n        for(uint256 i = 0; i < _teamAddresses.length; i++){\n            if(_teamAddresses[i] == teamAddress){\n                _alreadyRegistered = true; \n            }\n        }\n        require(_alreadyRegistered == false, \"You're already registered.\"); \n\n        _teamAddresses.push(teamAddress); \n        if(!(isTeam(teamAddress))){\n            addTeam(teamAddress);\n        }\n         \n        require(_teamAddresses.length <= 3, \"Too many teams.\"); \n        \n        emit Registered(teamAddress); \n    }\n\n    function isRegistered(address teamAddress) external view returns(bool){\n        for(uint256 i = 0; i < _teamAddresses.length; i++){\n            if(_teamAddresses[i] == teamAddress){\n                return true; \n            }\n        }\n    return false; \n    }\n\n    //PRICE OVERNIGHT\n\n    function overnightStart(int256 new_delta_price) onlyAdmin external {\n        //TODO: Remember to uncomment!\n        //require(!(fss_exchange.isOpen()), \"The market is still open, come back later\");\n        \n        _startOvernightChallenge = now; \n        _last_id_price = fss_exchange.setNewPrice(new_delta_price);\n        _overnightWon = false;  \n        payCoin.burnFrom(_msgSender(), 200e18); \n\n    }\n\n    function overnightCheck(uint256 id_price) onlyTeam external {\n\n        require(id_price == _last_id_price, \"Wrong id price.\"); \n        if( now > _startOvernightChallenge && now < _startOvernightChallenge + 1 hours){\n            require(_overnightWon == false, \"The challenge has already been won.\"); \n\n            payCoin.mint(_msgSender(), 1200e18); \n            _overnightWon = true;\n            emit Overnight(_msgSender(), 1200e18); \n\n        }\n\n        else{\n            payCoin.mint(_fss_trading, 2000e18); \n            emit Overnight(_fss_trading, 2000e18); \n        }\n        \n    }\n\n    //DIRECT CHALLENGE\n    \n    function challengeStart(address directChallenged, uint256 flag) onlyTeam external {\n        checkFlag(_directFlag, flag); \n\n        require(_msgSender() != directChallenged, \"The addresses must be different.\");  \n\n        _startDirectChallenge[flag] = now;\n        _directChallenger = _msgSender(); \n        _directChallenged = directChallenged; \n        _directChallengeWon[flag] = false; \n\n        emit DirectChallenge(_directChallenger, _directChallenged, flag);\n        payCoin.burnFrom(_msgSender(), 50e18);          \n    \n    }\n\n    function winDirectChallenge(uint256 flag) onlyTeam external returns(bool) {\n        bool _flagFound = false; \n\n        payCoin.burnFrom(_msgSender(), 50e18);\n        \n        require(_msgSender() == _directChallenger || _msgSender() == _directChallenged, \"You must be either the challenger or the challenged.\"); \n        if(now >= _startDirectChallenge[flag] + 5 minutes){ //REMEMBER TO CHANGE BACK TO MINUTES!\n            require(_directChallengeWon[flag] == false, \"The challenge has already been won.\"); \n    \n            matchFlag(_directFlag, flag); \n\n            payCoin.mint(_msgSender(), 1000e18);\n            emit DirectChallengeWon(_msgSender(), flag, 1000e18); \n            _directChallengeWon[flag] = true;  \n\n            return true; \n        } \n        else{\n            return false; \n        }\n\n    }\n    \n    //TEAM CHALLENGE\n    \n    function challengeStart(uint256 flag) onlyTeam external {\n    \n        checkFlag(_teamFlag, flag); \n\n        _startTeamChallenge[flag] = now;\n        _teamChallengeWon[flag] = false; \n\n        require(_teamAddresses.length == 3, \"Challenge can't start until all teams regitered.\"); \n        for(uint256 i = 0; i < _teamAddresses.length; i++){\n            if(_msgSender() == _teamAddresses[i]){\n                _teamChallenger = _msgSender(); \n            }\n            else{\n                _teamChallenged.push(_teamAddresses[i]); \n            }\n        }\n\n        emit TeamChallenge(_msgSender(), flag); \n\n        payCoin.burnFrom(_msgSender(), 100e18); \n\n    }\n\n    function winTeamChallenge(uint256 flag) onlyTeam external returns(bool) {    \n        bool _flagFound = false; \n\n        payCoin.burnFrom(_msgSender(), 100e18);\n \n        if(now >= _startTeamChallenge[flag] + 5 minutes){//REMEMBER TO CHANGE BACK TO MINUTES!\n            require(_teamChallengeWon[flag] == false, \"The challenge has already been won.\"); \n        \n            matchFlag(_teamFlag, flag); \n\n            if(_msgSender() == _teamChallenger){\n                payCoin.mint(_msgSender(), 1500e18);\n                emit TeamChallengeWon(_msgSender(), flag, 1500e18);\n            }\n            else{\n                payCoin.mint(_msgSender(), 1000e18);\n                emit TeamChallengeWon(_msgSender(), flag, 1000e18);\n            }\n             \n            _teamChallengeWon[flag] = true;  \n\n            return true; \n        } \n        else{\n            return false; \n        }\n    }\n\n\n    //INTERNAL FUNCTION\n\n    function checkFlag(uint256[] storage _flags, uint256 _flag) internal {\n\n        for(uint256 i = 0; i < _flags.length; i++){\n            require(_flags[i] != _flag , \"Flag already used!\");\n        }\n\n        _flags.push(_flag);\n\n    }\n\n    function matchFlag(uint256[] storage _flags, uint256 _flag) internal {\n        bool _flagFound = false;\n\n        for(uint256 i = 0; i < _flags.length; i++){\n                if (_flags[i] == _flag ){\n                    _flagFound = true; \n                    break; \n                }\n            }\n            require(_flagFound, \"Couldn't find yuor flag!\");\n\n    }\n\n    //EXCHANGE & PAYCOIN ADDRESS\n    function setExchange(address exchangeAddress) onlyAdmin external {\n        fss_exchange = token_exchange(exchangeAddress); \n    }\n    \n    function setPayCoin(address payCoinAddress) onlyAdmin external {\n        payCoin = IT_PayCoin(payCoinAddress); \n    }\n    \n\n}",
  "sourcePath": "contracts/token_challenge.sol",
  "type": "contract"
}