{
  "abi": [
    {
      "inputs": [
        {
          "internalType": "address",
          "name": "exchangeAddress",
          "type": "address"
        },
        {
          "internalType": "address",
          "name": "payCoinAddress",
          "type": "address"
        }
      ],
      "payable": false,
      "stateMutability": "nonpayable",
      "type": "constructor"
    },
    {
      "anonymous": false,
      "inputs": [
        {
          "indexed": true,
          "internalType": "address",
          "name": "account",
          "type": "address"
        }
      ],
      "name": "AdminAdded",
      "type": "event"
    },
    {
      "anonymous": false,
      "inputs": [
        {
          "indexed": true,
          "internalType": "address",
          "name": "account",
          "type": "address"
        }
      ],
      "name": "AdminRemoved",
      "type": "event"
    },
    {
      "anonymous": false,
      "inputs": [
        {
          "indexed": true,
          "internalType": "address",
          "name": "challenger",
          "type": "address"
        },
        {
          "indexed": true,
          "internalType": "address",
          "name": "challenged",
          "type": "address"
        },
        {
          "indexed": false,
          "internalType": "uint256",
          "name": "_flag",
          "type": "uint256"
        }
      ],
      "name": "DirectChallenge",
      "type": "event"
    },
    {
      "anonymous": false,
      "inputs": [
        {
          "indexed": true,
          "internalType": "address",
          "name": "winner",
          "type": "address"
        },
        {
          "indexed": true,
          "internalType": "uint256",
          "name": "_flag",
          "type": "uint256"
        },
        {
          "indexed": true,
          "internalType": "uint256",
          "name": "_amount",
          "type": "uint256"
        }
      ],
      "name": "DirectChallengeWon",
      "type": "event"
    },
    {
      "anonymous": false,
      "inputs": [
        {
          "indexed": true,
          "internalType": "address",
          "name": "winner",
          "type": "address"
        },
        {
          "indexed": true,
          "internalType": "uint256",
          "name": "coin_won",
          "type": "uint256"
        }
      ],
      "name": "Overnight",
      "type": "event"
    },
    {
      "anonymous": false,
      "inputs": [
        {
          "indexed": true,
          "internalType": "address",
          "name": "teamAddress",
          "type": "address"
        }
      ],
      "name": "Registered",
      "type": "event"
    },
    {
      "anonymous": false,
      "inputs": [
        {
          "indexed": true,
          "internalType": "address",
          "name": "account",
          "type": "address"
        }
      ],
      "name": "TeamAdded",
      "type": "event"
    },
    {
      "anonymous": false,
      "inputs": [
        {
          "indexed": true,
          "internalType": "address",
          "name": "challenger",
          "type": "address"
        },
        {
          "indexed": false,
          "internalType": "uint256",
          "name": "_flag",
          "type": "uint256"
        }
      ],
      "name": "TeamChallenge",
      "type": "event"
    },
    {
      "anonymous": false,
      "inputs": [
        {
          "indexed": true,
          "internalType": "address",
          "name": "winner",
          "type": "address"
        },
        {
          "indexed": true,
          "internalType": "uint256",
          "name": "_flag",
          "type": "uint256"
        },
        {
          "indexed": true,
          "internalType": "uint256",
          "name": "_amount",
          "type": "uint256"
        }
      ],
      "name": "TeamChallengeWon",
      "type": "event"
    },
    {
      "anonymous": false,
      "inputs": [
        {
          "indexed": true,
          "internalType": "address",
          "name": "account",
          "type": "address"
        }
      ],
      "name": "TeamRemoved",
      "type": "event"
    },
    {
      "constant": false,
      "inputs": [
        {
          "internalType": "address",
          "name": "account",
          "type": "address"
        }
      ],
      "name": "addAdmin",
      "outputs": [],
      "payable": false,
      "stateMutability": "nonpayable",
      "type": "function"
    },
    {
      "constant": false,
      "inputs": [
        {
          "internalType": "address",
          "name": "account",
          "type": "address"
        }
      ],
      "name": "addTeam",
      "outputs": [],
      "payable": false,
      "stateMutability": "nonpayable",
      "type": "function"
    },
    {
      "constant": false,
      "inputs": [
        {
          "internalType": "address",
          "name": "directChallenged",
          "type": "address"
        },
        {
          "internalType": "uint256",
          "name": "flag",
          "type": "uint256"
        }
      ],
      "name": "challengeStart",
      "outputs": [],
      "payable": false,
      "stateMutability": "nonpayable",
      "type": "function"
    },
    {
      "constant": false,
      "inputs": [
        {
          "internalType": "uint256",
          "name": "flag",
          "type": "uint256"
        }
      ],
      "name": "challengeStart",
      "outputs": [],
      "payable": false,
      "stateMutability": "nonpayable",
      "type": "function"
    },
    {
      "constant": true,
      "inputs": [
        {
          "internalType": "address",
          "name": "account",
          "type": "address"
        }
      ],
      "name": "isAdmin",
      "outputs": [
        {
          "internalType": "bool",
          "name": "",
          "type": "bool"
        }
      ],
      "payable": false,
      "stateMutability": "view",
      "type": "function"
    },
    {
      "constant": true,
      "inputs": [
        {
          "internalType": "address",
          "name": "teamAddress",
          "type": "address"
        }
      ],
      "name": "isRegistered",
      "outputs": [
        {
          "internalType": "bool",
          "name": "",
          "type": "bool"
        }
      ],
      "payable": false,
      "stateMutability": "view",
      "type": "function"
    },
    {
      "constant": true,
      "inputs": [
        {
          "internalType": "address",
          "name": "account",
          "type": "address"
        }
      ],
      "name": "isTeam",
      "outputs": [
        {
          "internalType": "bool",
          "name": "",
          "type": "bool"
        }
      ],
      "payable": false,
      "stateMutability": "view",
      "type": "function"
    },
    {
      "constant": false,
      "inputs": [
        {
          "internalType": "uint256",
          "name": "id_price",
          "type": "uint256"
        }
      ],
      "name": "overnightCheck",
      "outputs": [],
      "payable": false,
      "stateMutability": "nonpayable",
      "type": "function"
    },
    {
      "constant": false,
      "inputs": [
        {
          "internalType": "int256",
          "name": "new_delta_price",
          "type": "int256"
        }
      ],
      "name": "overnightStart",
      "outputs": [],
      "payable": false,
      "stateMutability": "nonpayable",
      "type": "function"
    },
    {
      "constant": false,
      "inputs": [
        {
          "internalType": "address",
          "name": "teamAddress",
          "type": "address"
        }
      ],
      "name": "register",
      "outputs": [],
      "payable": false,
      "stateMutability": "nonpayable",
      "type": "function"
    },
    {
      "constant": false,
      "inputs": [],
      "name": "renounceAdmin",
      "outputs": [],
      "payable": false,
      "stateMutability": "nonpayable",
      "type": "function"
    },
    {
      "constant": false,
      "inputs": [],
      "name": "renounceTeam",
      "outputs": [],
      "payable": false,
      "stateMutability": "nonpayable",
      "type": "function"
    },
    {
      "constant": false,
      "inputs": [
        {
          "internalType": "address",
          "name": "exchangeAddress",
          "type": "address"
        }
      ],
      "name": "setExchange",
      "outputs": [],
      "payable": false,
      "stateMutability": "nonpayable",
      "type": "function"
    },
    {
      "constant": false,
      "inputs": [
        {
          "internalType": "address",
          "name": "payCoinAddress",
          "type": "address"
        }
      ],
      "name": "setPayCoin",
      "outputs": [],
      "payable": false,
      "stateMutability": "nonpayable",
      "type": "function"
    },
    {
      "constant": false,
      "inputs": [
        {
          "internalType": "uint256",
          "name": "flag",
          "type": "uint256"
        }
      ],
      "name": "winDirectChallenge",
      "outputs": [
        {
          "internalType": "bool",
          "name": "",
          "type": "bool"
        }
      ],
      "payable": false,
      "stateMutability": "nonpayable",
      "type": "function"
    },
    {
      "constant": false,
      "inputs": [
        {
          "internalType": "uint256",
          "name": "flag",
          "type": "uint256"
        }
      ],
      "name": "winTeamChallenge",
      "outputs": [
        {
          "internalType": "bool",
          "name": "",
          "type": "bool"
        }
      ],
      "payable": false,
      "stateMutability": "nonpayable",
      "type": "function"
    }
  ],
  "bytecode": "6080604052600280546001600160a01b0319908116732b177c1854de132e96326b454055005e62febdc717909155600380549091167385a8d7241ffffee7290501473a9b11bfda2ae9ff1790553480156200005957600080fd5b506040516200201038038062002010833981810160405260408110156200007f57600080fd5b508051602090910151620000ae6200009f6001600160e01b03620001de16565b6001600160e01b03620001e216565b620000d4620000c56001600160e01b03620001de16565b6001600160e01b036200023416565b600480546001600160a01b038085166001600160a01b0319928316179092556005805484841692169190911790556002546200011a91166001600160e01b036200028616565b6200013f576002546200013f906001600160a01b03166001600160e01b03620002a916565b6003546200015f906001600160a01b03166001600160e01b036200028616565b620001845760035462000184906001600160a01b03166001600160e01b03620002a916565b5050600354600680546001810182556000919091527ff652222313e28459528d920b65115c16c04f3efc82aaedc97be59f3f377c0d3f0180546001600160a01b0319166001600160a01b0390921691909117905562000419565b3390565b620001fd8160006200032360201b6200192d1790919060201c565b6040516001600160a01b038216907f44d6d25963f097ad14f29f06854a01f575648a1ef82f30e562ccd3889717e33990600090a250565b6200024f8160016200032360201b6200192d1790919060201c565b6040516001600160a01b038216907f3f5f1db80208f0d453083a86e16909cecc1e95e2618d5d927c93ace22b8200fc90600090a250565b6000620002a3826000620003b060201b620016811790919060201c565b92915050565b620002cf620002c06001600160e01b03620001de16565b6001600160e01b036200028616565b6200030c5760405162461bcd60e51b815260040180806020018281038252602e81526020018062001fe2602e913960400191505060405180910390fd5b62000320816001600160e01b03620001e216565b50565b6200033882826001600160e01b03620003b016565b156200038b576040805162461bcd60e51b815260206004820152601f60248201527f526f6c65733a206163636f756e7420616c72656164792068617320726f6c6500604482015290519081900360640190fd5b6001600160a01b0316600090815260209190915260409020805460ff19166001179055565b60006001600160a01b038216620003f95760405162461bcd60e51b815260040180806020018281038252602281526020018062001fc06022913960400191505060405180910390fd5b506001600160a01b03166000908152602091909152604090205460ff1690565b611b9780620004296000396000f3fe608060405234801561001057600080fd5b50600436106101005760003560e01c806378591bfd11610097578063b463a75c11610066578063b463a75c146102a7578063c3c5a547146102cd578063d5d35f95146102f3578063d9a431b31461031057610100565b806378591bfd1461023f5780638bad0c0a1461025c5780639f986fbb14610264578063a5c6a0221461028a57610100565b8063612b7543116100d3578063612b7543146101aa57806367b1f5df146101d657806370480275146101fc57806376a9e7b31461022257610100565b8063248519141461010557806324d7806c1461013f5780634420e48614610165578063561675e11461018d575b600080fd5b61012b6004803603602081101561011b57600080fd5b50356001600160a01b0316610318565b604080519115158252519081900360200190f35b61012b6004803603602081101561015557600080fd5b50356001600160a01b0316610333565b61018b6004803603602081101561017b57600080fd5b50356001600160a01b0316610345565b005b61012b600480360360208110156101a357600080fd5b5035610576565b61018b600480360360408110156101c057600080fd5b506001600160a01b0381351690602001356108e7565b61018b600480360360208110156101ec57600080fd5b50356001600160a01b0316610ace565b61018b6004803603602081101561021257600080fd5b50356001600160a01b0316610b3b565b61018b6004803603602081101561023857600080fd5b5035610b8d565b61012b6004803603602081101561025557600080fd5b5035610d93565b61018b611064565b61018b6004803603602081101561027a57600080fd5b50356001600160a01b0316611076565b61018b600480360360208110156102a057600080fd5b50356110de565b61018b600480360360208110156102bd57600080fd5b50356001600160a01b0316611314565b61012b600480360360208110156102e357600080fd5b50356001600160a01b0316611363565b61018b6004803603602081101561030957600080fd5b50356113be565b61018b611671565b600061032b60018363ffffffff61168116565b90505b919050565b600061032b818363ffffffff61168116565b60048054604080516347535d7b60e01b815290516000936001600160a01b03909316926347535d7b92808201926020929091829003018186803b15801561038b57600080fd5b505afa15801561039f573d6000803e3d6000fd5b505050506040513d60208110156103b557600080fd5b5051156103f35760405162461bcd60e51b8152600401808060200182810382526029815260200180611a676029913960400191505060405180910390fd5b60005b60065481101561043f57826001600160a01b03166006828154811061041757fe5b6000918252602090912001546001600160a01b0316141561043757600191505b6001016103f6565b508015610493576040805162461bcd60e51b815260206004820152601a60248201527f596f7527726520616c726561647920726567697374657265642e000000000000604482015290519081900360640190fd5b600680546001810182556000919091527ff652222313e28459528d920b65115c16c04f3efc82aaedc97be59f3f377c0d3f0180546001600160a01b0319166001600160a01b0384161790556104e782610318565b6104f4576104f482611314565b6006546003101561053e576040805162461bcd60e51b815260206004820152600f60248201526e2a37b79036b0b73c903a32b0b6b99760891b604482015290519081900360640190fd5b6040516001600160a01b038316907f2d3734a8e47ac8316e500ac231c90a6e1848ca2285f40d07eaa52005e4b3a0e990600090a25050565b60006105886105836116e8565b610318565b6105c35760405162461bcd60e51b815260040180806020018281038252602c815260200180611b37602c913960400191505060405180910390fd5b6005546000906001600160a01b03166379cc67906105df6116e8565b68056bc75e2d631000006040518363ffffffff1660e01b815260040180836001600160a01b03166001600160a01b0316815260200182815260200192505050600060405180830381600087803b15801561063857600080fd5b505af115801561064c573d6000803e3d6000fd5b50505060008481526012602052604090205461012c01421090506108dd5760008381526013602052604090205460ff16156106b85760405162461bcd60e51b8152600401808060200182810382526023815260200180611b146023913960400191505060405180910390fd5b6106c3600f846116ec565b6010546001600160a01b03166106d76116e8565b6001600160a01b031614156107d2576005546001600160a01b03166340c10f196106ff6116e8565b685150ae84a8cdf000006040518363ffffffff1660e01b815260040180836001600160a01b03166001600160a01b0316815260200182815260200192505050602060405180830381600087803b15801561075857600080fd5b505af115801561076c573d6000803e3d6000fd5b505050506040513d602081101561078257600080fd5b50685150ae84a8cdf000009050836107986116e8565b6001600160a01b03167ffa5c135de8c72e98296cdf12890ca8b3682f079fbb46849f6f549372f634802960405160405180910390a46108ba565b6005546001600160a01b03166340c10f196107eb6116e8565b683635c9adc5dea000006040518363ffffffff1660e01b815260040180836001600160a01b03166001600160a01b0316815260200182815260200192505050602060405180830381600087803b15801561084457600080fd5b505af1158015610858573d6000803e3d6000fd5b505050506040513d602081101561086e57600080fd5b50683635c9adc5dea000009050836108846116e8565b6001600160a01b03167ffa5c135de8c72e98296cdf12890ca8b3682f079fbb46849f6f549372f634802960405160405180910390a45b50506000818152601360205260409020805460ff1916600190811790915561032e565b600091505061032e565b6108f26105836116e8565b61092d5760405162461bcd60e51b815260040180806020018281038252602c815260200180611b37602c913960400191505060405180910390fd5b610938600a82611780565b816001600160a01b031661094a6116e8565b6001600160a01b031614156109a6576040805162461bcd60e51b815260206004820181905260248201527f54686520616464726573736573206d75737420626520646966666572656e742e604482015290519081900360640190fd5b6000818152600e602052604090204290556109bf6116e8565b600b80546001600160a01b03199081166001600160a01b03938416178255600c80549091168584161781556000848152600d6020908152604091829020805460ff1916905591549254815186815291519385169416927fed4685cef203f43449f0207532eb272e1f2de4f8a6992033ed24099f086c2106929181900390910190a36005546001600160a01b03166379cc6790610a596116e8565b6802b5e3af16b18800006040518363ffffffff1660e01b815260040180836001600160a01b03166001600160a01b0316815260200182815260200192505050600060405180830381600087803b158015610ab257600080fd5b505af1158015610ac6573d6000803e3d6000fd5b505050505050565b610ade610ad96116e8565b610333565b610b195760405162461bcd60e51b815260040180806020018281038252602e815260200180611ae6602e913960400191505060405180910390fd5b600480546001600160a01b0319166001600160a01b0392909216919091179055565b610b46610ad96116e8565b610b815760405162461bcd60e51b815260040180806020018281038252602e815260200180611ae6602e913960400191505060405180910390fd5b610b8a8161180d565b50565b610b98610ad96116e8565b610bd35760405162461bcd60e51b815260040180806020018281038252602e815260200180611ae6602e913960400191505060405180910390fd5b60048054604080516347535d7b60e01b815290516001600160a01b03909216926347535d7b928282019260209290829003018186803b158015610c1557600080fd5b505afa158015610c29573d6000803e3d6000fd5b505050506040513d6020811015610c3f57600080fd5b505115610c7d5760405162461bcd60e51b8152600401808060200182810382526029815260200180611a676029913960400191505060405180910390fd5b42600855600480546040805163a967119360e01b8152928301849052516001600160a01b039091169163a96711939160248083019260209291908290030181600087803b158015610ccd57600080fd5b505af1158015610ce1573d6000803e3d6000fd5b505050506040513d6020811015610cf757600080fd5b50516007556009805460ff191690556005546001600160a01b03166379cc6790610d1f6116e8565b680ad78ebc5ac62000006040518363ffffffff1660e01b815260040180836001600160a01b03166001600160a01b0316815260200182815260200192505050600060405180830381600087803b158015610d7857600080fd5b505af1158015610d8c573d6000803e3d6000fd5b5050505050565b6000610da06105836116e8565b610ddb5760405162461bcd60e51b815260040180806020018281038252602c815260200180611b37602c913960400191505060405180910390fd5b6005546000906001600160a01b03166379cc6790610df76116e8565b6802b5e3af16b18800006040518363ffffffff1660e01b815260040180836001600160a01b03166001600160a01b0316815260200182815260200192505050600060405180830381600087803b158015610e5057600080fd5b505af1158015610e64573d6000803e3d6000fd5b5050600b546001600160a01b03169150610e7e90506116e8565b6001600160a01b03161480610ead5750600c546001600160a01b0316610ea26116e8565b6001600160a01b0316145b610ee85760405162461bcd60e51b8152600401808060200182810382526034815260200180611ab26034913960400191505060405180910390fd5b6000838152600e602052604090205461012c0142106108dd576000838152600d602052604090205460ff1615610f4f5760405162461bcd60e51b8152600401808060200182810382526023815260200180611b146023913960400191505060405180910390fd5b610f5a600a846116ec565b6005546001600160a01b03166340c10f19610f736116e8565b683635c9adc5dea000006040518363ffffffff1660e01b815260040180836001600160a01b03166001600160a01b0316815260200182815260200192505050602060405180830381600087803b158015610fcc57600080fd5b505af1158015610fe0573d6000803e3d6000fd5b505050506040513d6020811015610ff657600080fd5b50683635c9adc5dea0000090508361100c6116e8565b6001600160a01b03167f06c48e695609c5cc5b9d779d70abb26282055513fb1a55cba442b3cbc6d43bcd60405160405180910390a450506000818152600d60205260409020805460ff1916600190811790915561032e565b61107461106f6116e8565b611855565b565b611081610ad96116e8565b6110bc5760405162461bcd60e51b815260040180806020018281038252602e815260200180611ae6602e913960400191505060405180910390fd5b600580546001600160a01b0319166001600160a01b0392909216919091179055565b6110e96105836116e8565b6111245760405162461bcd60e51b815260040180806020018281038252602c815260200180611b37602c913960400191505060405180910390fd5b61112f600f82611780565b600081815260126020908152604080832042905560139091529020805460ff191690556006546003146111935760405162461bcd60e51b8152600401808060200182810382526030815260200180611a166030913960400191505060405180910390fd5b60005b60065481101561125957600681815481106111ad57fe5b6000918252602090912001546001600160a01b03166111ca6116e8565b6001600160a01b03161415611206576111e16116e8565b601080546001600160a01b0319166001600160a01b0392909216919091179055611251565b60116006828154811061121557fe5b60009182526020808320909101548354600181018555938352912090910180546001600160a01b0319166001600160a01b039092169190911790555b600101611196565b506112626116e8565b6001600160a01b03167f3d1151f535ab57b7eefbbf3baaff50efaac64f3f0df368617499905f78cb2373826040518082815260200191505060405180910390a26005546001600160a01b03166379cc67906112bb6116e8565b68056bc75e2d631000006040518363ffffffff1660e01b815260040180836001600160a01b03166001600160a01b0316815260200182815260200192505050600060405180830381600087803b158015610d7857600080fd5b61131f6105836116e8565b61135a5760405162461bcd60e51b815260040180806020018281038252602c815260200180611b37602c913960400191505060405180910390fd5b610b8a8161189d565b6000805b6006548110156113b557826001600160a01b03166006828154811061138857fe5b6000918252602090912001546001600160a01b031614156113ad57600191505061032e565b600101611367565b50600092915050565b6113c96105836116e8565b6114045760405162461bcd60e51b815260040180806020018281038252602c815260200180611b37602c913960400191505060405180910390fd5b600754811461144c576040805162461bcd60e51b815260206004820152600f60248201526e2bb937b7339034b210383934b1b29760891b604482015290519081900360640190fd5b600854421180156114625750600854610e100142105b156115a05760095460ff16156114a95760405162461bcd60e51b8152600401808060200182810382526023815260200180611b146023913960400191505060405180910390fd5b6005546001600160a01b03166340c10f196114c26116e8565b68410d586a20a4c000006040518363ffffffff1660e01b815260040180836001600160a01b03166001600160a01b0316815260200182815260200192505050602060405180830381600087803b15801561151b57600080fd5b505af115801561152f573d6000803e3d6000fd5b505050506040513d602081101561154557600080fd5b50506009805460ff1916600117905568410d586a20a4c000006115666116e8565b6001600160a01b03167f75e44bccb8e953f3228b7bde1dc2a77ac72025aa92a8a329378d26b4f4e1a86060405160405180910390a3610b8a565b600554600354604080516340c10f1960e01b81526001600160a01b039283166004820152686c6b935b8bbd4000006024820152905191909216916340c10f199160448083019260209291908290030181600087803b15801561160157600080fd5b505af1158015611615573d6000803e3d6000fd5b505050506040513d602081101561162b57600080fd5b5050600354604051686c6b935b8bbd400000916001600160a01b0316907f75e44bccb8e953f3228b7bde1dc2a77ac72025aa92a8a329378d26b4f4e1a86090600090a350565b61107461167c6116e8565b6118e5565b60006001600160a01b0382166116c85760405162461bcd60e51b8152600401808060200182810382526022815260200180611a906022913960400191505060405180910390fd5b506001600160a01b03166000908152602091909152604090205460ff1690565b3390565b6000805b8354811015611728578284828154811061170657fe5b906000526020600020015414156117205760019150611728565b6001016116f0565b508061177b576040805162461bcd60e51b815260206004820152601860248201527f436f756c646e27742066696e642079756f7220666c6167210000000000000000604482015290519081900360640190fd5b505050565b60005b82548110156117f4578183828154811061179957fe5b906000526020600020015414156117ec576040805162461bcd60e51b8152602060048201526012602482015271466c616720616c726561647920757365642160701b604482015290519081900360640190fd5b600101611783565b5081546001810183556000928352602090922090910155565b61181e60008263ffffffff61192d16565b6040516001600160a01b038216907f44d6d25963f097ad14f29f06854a01f575648a1ef82f30e562ccd3889717e33990600090a250565b61186660008263ffffffff6119ae16565b6040516001600160a01b038216907fa3b62bc36326052d97ea62d63c3d60308ed4c3ea8ac079dd8499f1e9c4f80c0f90600090a250565b6118ae60018263ffffffff61192d16565b6040516001600160a01b038216907f3f5f1db80208f0d453083a86e16909cecc1e95e2618d5d927c93ace22b8200fc90600090a250565b6118f660018263ffffffff6119ae16565b6040516001600160a01b038216907f26b6063d78aefcf96f02ff06bc9822b5a623278253add7fffa5fb453db39981090600090a250565b6119378282611681565b15611989576040805162461bcd60e51b815260206004820152601f60248201527f526f6c65733a206163636f756e7420616c72656164792068617320726f6c6500604482015290519081900360640190fd5b6001600160a01b0316600090815260209190915260409020805460ff19166001179055565b6119b88282611681565b6119f35760405162461bcd60e51b8152600401808060200182810382526021815260200180611a466021913960400191505060405180910390fd5b6001600160a01b0316600090815260209190915260409020805460ff1916905556fe4368616c6c656e67652063616e277420737461727420756e74696c20616c6c207465616d73207265676974657265642e526f6c65733a206163636f756e7420646f6573206e6f74206861766520726f6c65546865206d61726b6574206973207374696c6c206f70656e2c20636f6d65206261636b206c61746572526f6c65733a206163636f756e7420697320746865207a65726f2061646472657373596f75206d7573742062652065697468657220746865206368616c6c656e676572206f7220746865206368616c6c656e6765642e41646d696e526f6c653a2063616c6c657220646f6573206e6f742068617665207468652041646d696e20726f6c65546865206368616c6c656e67652068617320616c7265616479206265656e20776f6e2e5465616d526f6c653a2063616c6c657220646f6573206e6f74206861766520746865205465616d20726f6c65a265627a7a72315820af773fc9300e49c5ee33ca915784db92fbfbaf4edf64fdc012f601906ceb2c1764736f6c63430005110032526f6c65733a206163636f756e7420697320746865207a65726f206164647265737341646d696e526f6c653a2063616c6c657220646f6573206e6f742068617665207468652041646d696e20726f6c65",
  "bytecodeSha1": "da39a3ee5e6b4b0d3255bfef95601890afd80709",
  "compiler": {
    "evm_version": "istanbul",
    "optimizer": {
      "enabled": true,
      "runs": 200
    },
    "version": "0.5.17"
  },
  "contractName": "token_challenge",
  "language": "Solidity",
  "natspec": {
    "methods": {}
  },
  "opcodes": "PUSH1 0x80 PUSH1 0x40 MSTORE CALLVALUE DUP1 ISZERO PUSH2 0x10 JUMPI PUSH1 0x0 DUP1 REVERT JUMPDEST POP PUSH1 0x4 CALLDATASIZE LT PUSH2 0x100 JUMPI PUSH1 0x0 CALLDATALOAD PUSH1 0xE0 SHR DUP1 PUSH4 0x78591BFD GT PUSH2 0x97 JUMPI DUP1 PUSH4 0xB463A75C GT PUSH2 0x66 JUMPI DUP1 PUSH4 0xB463A75C EQ PUSH2 0x2A7 JUMPI DUP1 PUSH4 0xC3C5A547 EQ PUSH2 0x2CD JUMPI DUP1 PUSH4 0xD5D35F95 EQ PUSH2 0x2F3 JUMPI DUP1 PUSH4 0xD9A431B3 EQ PUSH2 0x310 JUMPI PUSH2 0x100 JUMP JUMPDEST DUP1 PUSH4 0x78591BFD EQ PUSH2 0x23F JUMPI DUP1 PUSH4 0x8BAD0C0A EQ PUSH2 0x25C JUMPI DUP1 PUSH4 0x9F986FBB EQ PUSH2 0x264 JUMPI DUP1 PUSH4 0xA5C6A022 EQ PUSH2 0x28A JUMPI PUSH2 0x100 JUMP JUMPDEST DUP1 PUSH4 0x612B7543 GT PUSH2 0xD3 JUMPI DUP1 PUSH4 0x612B7543 EQ PUSH2 0x1AA JUMPI DUP1 PUSH4 0x67B1F5DF EQ PUSH2 0x1D6 JUMPI DUP1 PUSH4 0x70480275 EQ PUSH2 0x1FC JUMPI DUP1 PUSH4 0x76A9E7B3 EQ PUSH2 0x222 JUMPI PUSH2 0x100 JUMP JUMPDEST DUP1 PUSH4 0x24851914 EQ PUSH2 0x105 JUMPI DUP1 PUSH4 0x24D7806C EQ PUSH2 0x13F JUMPI DUP1 PUSH4 0x4420E486 EQ PUSH2 0x165 JUMPI DUP1 PUSH4 0x561675E1 EQ PUSH2 0x18D JUMPI JUMPDEST PUSH1 0x0 DUP1 REVERT JUMPDEST PUSH2 0x12B PUSH1 0x4 DUP1 CALLDATASIZE SUB PUSH1 0x20 DUP2 LT ISZERO PUSH2 0x11B JUMPI PUSH1 0x0 DUP1 REVERT JUMPDEST POP CALLDATALOAD PUSH1 0x1 PUSH1 0x1 PUSH1 0xA0 SHL SUB AND PUSH2 0x318 JUMP JUMPDEST PUSH1 0x40 DUP1 MLOAD SWAP2 ISZERO ISZERO DUP3 MSTORE MLOAD SWAP1 DUP2 SWAP1 SUB PUSH1 0x20 ADD SWAP1 RETURN JUMPDEST PUSH2 0x12B PUSH1 0x4 DUP1 CALLDATASIZE SUB PUSH1 0x20 DUP2 LT ISZERO PUSH2 0x155 JUMPI PUSH1 0x0 DUP1 REVERT JUMPDEST POP CALLDATALOAD PUSH1 0x1 PUSH1 0x1 PUSH1 0xA0 SHL SUB AND PUSH2 0x333 JUMP JUMPDEST PUSH2 0x18B PUSH1 0x4 DUP1 CALLDATASIZE SUB PUSH1 0x20 DUP2 LT ISZERO PUSH2 0x17B JUMPI PUSH1 0x0 DUP1 REVERT JUMPDEST POP CALLDATALOAD PUSH1 0x1 PUSH1 0x1 PUSH1 0xA0 SHL SUB AND PUSH2 0x345 JUMP JUMPDEST STOP JUMPDEST PUSH2 0x12B PUSH1 0x4 DUP1 CALLDATASIZE SUB PUSH1 0x20 DUP2 LT ISZERO PUSH2 0x1A3 JUMPI PUSH1 0x0 DUP1 REVERT JUMPDEST POP CALLDATALOAD PUSH2 0x576 JUMP JUMPDEST PUSH2 0x18B PUSH1 0x4 DUP1 CALLDATASIZE SUB PUSH1 0x40 DUP2 LT ISZERO PUSH2 0x1C0 JUMPI PUSH1 0x0 DUP1 REVERT JUMPDEST POP PUSH1 0x1 PUSH1 0x1 PUSH1 0xA0 SHL SUB DUP2 CALLDATALOAD AND SWAP1 PUSH1 0x20 ADD CALLDATALOAD PUSH2 0x8E7 JUMP JUMPDEST PUSH2 0x18B PUSH1 0x4 DUP1 CALLDATASIZE SUB PUSH1 0x20 DUP2 LT ISZERO PUSH2 0x1EC JUMPI PUSH1 0x0 DUP1 REVERT JUMPDEST POP CALLDATALOAD PUSH1 0x1 PUSH1 0x1 PUSH1 0xA0 SHL SUB AND PUSH2 0xACE JUMP JUMPDEST PUSH2 0x18B PUSH1 0x4 DUP1 CALLDATASIZE SUB PUSH1 0x20 DUP2 LT ISZERO PUSH2 0x212 JUMPI PUSH1 0x0 DUP1 REVERT JUMPDEST POP CALLDATALOAD PUSH1 0x1 PUSH1 0x1 PUSH1 0xA0 SHL SUB AND PUSH2 0xB3B JUMP JUMPDEST PUSH2 0x18B PUSH1 0x4 DUP1 CALLDATASIZE SUB PUSH1 0x20 DUP2 LT ISZERO PUSH2 0x238 JUMPI PUSH1 0x0 DUP1 REVERT JUMPDEST POP CALLDATALOAD PUSH2 0xB8D JUMP JUMPDEST PUSH2 0x12B PUSH1 0x4 DUP1 CALLDATASIZE SUB PUSH1 0x20 DUP2 LT ISZERO PUSH2 0x255 JUMPI PUSH1 0x0 DUP1 REVERT JUMPDEST POP CALLDATALOAD PUSH2 0xD93 JUMP JUMPDEST PUSH2 0x18B PUSH2 0x1064 JUMP JUMPDEST PUSH2 0x18B PUSH1 0x4 DUP1 CALLDATASIZE SUB PUSH1 0x20 DUP2 LT ISZERO PUSH2 0x27A JUMPI PUSH1 0x0 DUP1 REVERT JUMPDEST POP CALLDATALOAD PUSH1 0x1 PUSH1 0x1 PUSH1 0xA0 SHL SUB AND PUSH2 0x1076 JUMP JUMPDEST PUSH2 0x18B PUSH1 0x4 DUP1 CALLDATASIZE SUB PUSH1 0x20 DUP2 LT ISZERO PUSH2 0x2A0 JUMPI PUSH1 0x0 DUP1 REVERT JUMPDEST POP CALLDATALOAD PUSH2 0x10DE JUMP JUMPDEST PUSH2 0x18B PUSH1 0x4 DUP1 CALLDATASIZE SUB PUSH1 0x20 DUP2 LT ISZERO PUSH2 0x2BD JUMPI PUSH1 0x0 DUP1 REVERT JUMPDEST POP CALLDATALOAD PUSH1 0x1 PUSH1 0x1 PUSH1 0xA0 SHL SUB AND PUSH2 0x1314 JUMP JUMPDEST PUSH2 0x12B PUSH1 0x4 DUP1 CALLDATASIZE SUB PUSH1 0x20 DUP2 LT ISZERO PUSH2 0x2E3 JUMPI PUSH1 0x0 DUP1 REVERT JUMPDEST POP CALLDATALOAD PUSH1 0x1 PUSH1 0x1 PUSH1 0xA0 SHL SUB AND PUSH2 0x1363 JUMP JUMPDEST PUSH2 0x18B PUSH1 0x4 DUP1 CALLDATASIZE SUB PUSH1 0x20 DUP2 LT ISZERO PUSH2 0x309 JUMPI PUSH1 0x0 DUP1 REVERT JUMPDEST POP CALLDATALOAD PUSH2 0x13BE JUMP JUMPDEST PUSH2 0x18B PUSH2 0x1671 JUMP JUMPDEST PUSH1 0x0 PUSH2 0x32B PUSH1 0x1 DUP4 PUSH4 0xFFFFFFFF PUSH2 0x1681 AND JUMP JUMPDEST SWAP1 POP JUMPDEST SWAP2 SWAP1 POP JUMP JUMPDEST PUSH1 0x0 PUSH2 0x32B DUP2 DUP4 PUSH4 0xFFFFFFFF PUSH2 0x1681 AND JUMP JUMPDEST PUSH1 0x4 DUP1 SLOAD PUSH1 0x40 DUP1 MLOAD PUSH4 0x47535D7B PUSH1 0xE0 SHL DUP2 MSTORE SWAP1 MLOAD PUSH1 0x0 SWAP4 PUSH1 0x1 PUSH1 0x1 PUSH1 0xA0 SHL SUB SWAP1 SWAP4 AND SWAP3 PUSH4 0x47535D7B SWAP3 DUP1 DUP3 ADD SWAP3 PUSH1 0x20 SWAP3 SWAP1 SWAP2 DUP3 SWAP1 SUB ADD DUP2 DUP7 DUP1 EXTCODESIZE ISZERO DUP1 ISZERO PUSH2 0x38B JUMPI PUSH1 0x0 DUP1 REVERT JUMPDEST POP GAS STATICCALL ISZERO DUP1 ISZERO PUSH2 0x39F JUMPI RETURNDATASIZE PUSH1 0x0 DUP1 RETURNDATACOPY RETURNDATASIZE PUSH1 0x0 REVERT JUMPDEST POP POP POP POP PUSH1 0x40 MLOAD RETURNDATASIZE PUSH1 0x20 DUP2 LT ISZERO PUSH2 0x3B5 JUMPI PUSH1 0x0 DUP1 REVERT JUMPDEST POP MLOAD ISZERO PUSH2 0x3F3 JUMPI PUSH1 0x40 MLOAD PUSH3 0x461BCD PUSH1 0xE5 SHL DUP2 MSTORE PUSH1 0x4 ADD DUP1 DUP1 PUSH1 0x20 ADD DUP3 DUP2 SUB DUP3 MSTORE PUSH1 0x29 DUP2 MSTORE PUSH1 0x20 ADD DUP1 PUSH2 0x1A67 PUSH1 0x29 SWAP2 CODECOPY PUSH1 0x40 ADD SWAP2 POP POP PUSH1 0x40 MLOAD DUP1 SWAP2 SUB SWAP1 REVERT JUMPDEST PUSH1 0x0 JUMPDEST PUSH1 0x6 SLOAD DUP2 LT ISZERO PUSH2 0x43F JUMPI DUP3 PUSH1 0x1 PUSH1 0x1 PUSH1 0xA0 SHL SUB AND PUSH1 0x6 DUP3 DUP2 SLOAD DUP2 LT PUSH2 0x417 JUMPI INVALID JUMPDEST PUSH1 0x0 SWAP2 DUP3 MSTORE PUSH1 0x20 SWAP1 SWAP2 KECCAK256 ADD SLOAD PUSH1 0x1 PUSH1 0x1 PUSH1 0xA0 SHL SUB AND EQ ISZERO PUSH2 0x437 JUMPI PUSH1 0x1 SWAP2 POP JUMPDEST PUSH1 0x1 ADD PUSH2 0x3F6 JUMP JUMPDEST POP DUP1 ISZERO PUSH2 0x493 JUMPI PUSH1 0x40 DUP1 MLOAD PUSH3 0x461BCD PUSH1 0xE5 SHL DUP2 MSTORE PUSH1 0x20 PUSH1 0x4 DUP3 ADD MSTORE PUSH1 0x1A PUSH1 0x24 DUP3 ADD MSTORE PUSH32 0x596F7527726520616C726561647920726567697374657265642E000000000000 PUSH1 0x44 DUP3 ADD MSTORE SWAP1 MLOAD SWAP1 DUP2 SWAP1 SUB PUSH1 0x64 ADD SWAP1 REVERT JUMPDEST PUSH1 0x6 DUP1 SLOAD PUSH1 0x1 DUP2 ADD DUP3 SSTORE PUSH1 0x0 SWAP2 SWAP1 SWAP2 MSTORE PUSH32 0xF652222313E28459528D920B65115C16C04F3EFC82AAEDC97BE59F3F377C0D3F ADD DUP1 SLOAD PUSH1 0x1 PUSH1 0x1 PUSH1 0xA0 SHL SUB NOT AND PUSH1 0x1 PUSH1 0x1 PUSH1 0xA0 SHL SUB DUP5 AND OR SWAP1 SSTORE PUSH2 0x4E7 DUP3 PUSH2 0x318 JUMP JUMPDEST PUSH2 0x4F4 JUMPI PUSH2 0x4F4 DUP3 PUSH2 0x1314 JUMP JUMPDEST PUSH1 0x6 SLOAD PUSH1 0x3 LT ISZERO PUSH2 0x53E JUMPI PUSH1 0x40 DUP1 MLOAD PUSH3 0x461BCD PUSH1 0xE5 SHL DUP2 MSTORE PUSH1 0x20 PUSH1 0x4 DUP3 ADD MSTORE PUSH1 0xF PUSH1 0x24 DUP3 ADD MSTORE PUSH15 0x2A37B79036B0B73C903A32B0B6B997 PUSH1 0x89 SHL PUSH1 0x44 DUP3 ADD MSTORE SWAP1 MLOAD SWAP1 DUP2 SWAP1 SUB PUSH1 0x64 ADD SWAP1 REVERT JUMPDEST PUSH1 0x40 MLOAD PUSH1 0x1 PUSH1 0x1 PUSH1 0xA0 SHL SUB DUP4 AND SWAP1 PUSH32 0x2D3734A8E47AC8316E500AC231C90A6E1848CA2285F40D07EAA52005E4B3A0E9 SWAP1 PUSH1 0x0 SWAP1 LOG2 POP POP JUMP JUMPDEST PUSH1 0x0 PUSH2 0x588 PUSH2 0x583 PUSH2 0x16E8 JUMP JUMPDEST PUSH2 0x318 JUMP JUMPDEST PUSH2 0x5C3 JUMPI PUSH1 0x40 MLOAD PUSH3 0x461BCD PUSH1 0xE5 SHL DUP2 MSTORE PUSH1 0x4 ADD DUP1 DUP1 PUSH1 0x20 ADD DUP3 DUP2 SUB DUP3 MSTORE PUSH1 0x2C DUP2 MSTORE PUSH1 0x20 ADD DUP1 PUSH2 0x1B37 PUSH1 0x2C SWAP2 CODECOPY PUSH1 0x40 ADD SWAP2 POP POP PUSH1 0x40 MLOAD DUP1 SWAP2 SUB SWAP1 REVERT JUMPDEST PUSH1 0x5 SLOAD PUSH1 0x0 SWAP1 PUSH1 0x1 PUSH1 0x1 PUSH1 0xA0 SHL SUB AND PUSH4 0x79CC6790 PUSH2 0x5DF PUSH2 0x16E8 JUMP JUMPDEST PUSH9 0x56BC75E2D63100000 PUSH1 0x40 MLOAD DUP4 PUSH4 0xFFFFFFFF AND PUSH1 0xE0 SHL DUP2 MSTORE PUSH1 0x4 ADD DUP1 DUP4 PUSH1 0x1 PUSH1 0x1 PUSH1 0xA0 SHL SUB AND PUSH1 0x1 PUSH1 0x1 PUSH1 0xA0 SHL SUB AND DUP2 MSTORE PUSH1 0x20 ADD DUP3 DUP2 MSTORE PUSH1 0x20 ADD SWAP3 POP POP POP PUSH1 0x0 PUSH1 0x40 MLOAD DUP1 DUP4 SUB DUP2 PUSH1 0x0 DUP8 DUP1 EXTCODESIZE ISZERO DUP1 ISZERO PUSH2 0x638 JUMPI PUSH1 0x0 DUP1 REVERT JUMPDEST POP GAS CALL ISZERO DUP1 ISZERO PUSH2 0x64C JUMPI RETURNDATASIZE PUSH1 0x0 DUP1 RETURNDATACOPY RETURNDATASIZE PUSH1 0x0 REVERT JUMPDEST POP POP POP PUSH1 0x0 DUP5 DUP2 MSTORE PUSH1 0x12 PUSH1 0x20 MSTORE PUSH1 0x40 SWAP1 KECCAK256 SLOAD PUSH2 0x12C ADD TIMESTAMP LT SWAP1 POP PUSH2 0x8DD JUMPI PUSH1 0x0 DUP4 DUP2 MSTORE PUSH1 0x13 PUSH1 0x20 MSTORE PUSH1 0x40 SWAP1 KECCAK256 SLOAD PUSH1 0xFF AND ISZERO PUSH2 0x6B8 JUMPI PUSH1 0x40 MLOAD PUSH3 0x461BCD PUSH1 0xE5 SHL DUP2 MSTORE PUSH1 0x4 ADD DUP1 DUP1 PUSH1 0x20 ADD DUP3 DUP2 SUB DUP3 MSTORE PUSH1 0x23 DUP2 MSTORE PUSH1 0x20 ADD DUP1 PUSH2 0x1B14 PUSH1 0x23 SWAP2 CODECOPY PUSH1 0x40 ADD SWAP2 POP POP PUSH1 0x40 MLOAD DUP1 SWAP2 SUB SWAP1 REVERT JUMPDEST PUSH2 0x6C3 PUSH1 0xF DUP5 PUSH2 0x16EC JUMP JUMPDEST PUSH1 0x10 SLOAD PUSH1 0x1 PUSH1 0x1 PUSH1 0xA0 SHL SUB AND PUSH2 0x6D7 PUSH2 0x16E8 JUMP JUMPDEST PUSH1 0x1 PUSH1 0x1 PUSH1 0xA0 SHL SUB AND EQ ISZERO PUSH2 0x7D2 JUMPI PUSH1 0x5 SLOAD PUSH1 0x1 PUSH1 0x1 PUSH1 0xA0 SHL SUB AND PUSH4 0x40C10F19 PUSH2 0x6FF PUSH2 0x16E8 JUMP JUMPDEST PUSH9 0x5150AE84A8CDF00000 PUSH1 0x40 MLOAD DUP4 PUSH4 0xFFFFFFFF AND PUSH1 0xE0 SHL DUP2 MSTORE PUSH1 0x4 ADD DUP1 DUP4 PUSH1 0x1 PUSH1 0x1 PUSH1 0xA0 SHL SUB AND PUSH1 0x1 PUSH1 0x1 PUSH1 0xA0 SHL SUB AND DUP2 MSTORE PUSH1 0x20 ADD DUP3 DUP2 MSTORE PUSH1 0x20 ADD SWAP3 POP POP POP PUSH1 0x20 PUSH1 0x40 MLOAD DUP1 DUP4 SUB DUP2 PUSH1 0x0 DUP8 DUP1 EXTCODESIZE ISZERO DUP1 ISZERO PUSH2 0x758 JUMPI PUSH1 0x0 DUP1 REVERT JUMPDEST POP GAS CALL ISZERO DUP1 ISZERO PUSH2 0x76C JUMPI RETURNDATASIZE PUSH1 0x0 DUP1 RETURNDATACOPY RETURNDATASIZE PUSH1 0x0 REVERT JUMPDEST POP POP POP POP PUSH1 0x40 MLOAD RETURNDATASIZE PUSH1 0x20 DUP2 LT ISZERO PUSH2 0x782 JUMPI PUSH1 0x0 DUP1 REVERT JUMPDEST POP PUSH9 0x5150AE84A8CDF00000 SWAP1 POP DUP4 PUSH2 0x798 PUSH2 0x16E8 JUMP JUMPDEST PUSH1 0x1 PUSH1 0x1 PUSH1 0xA0 SHL SUB AND PUSH32 0xFA5C135DE8C72E98296CDF12890CA8B3682F079FBB46849F6F549372F6348029 PUSH1 0x40 MLOAD PUSH1 0x40 MLOAD DUP1 SWAP2 SUB SWAP1 LOG4 PUSH2 0x8BA JUMP JUMPDEST PUSH1 0x5 SLOAD PUSH1 0x1 PUSH1 0x1 PUSH1 0xA0 SHL SUB AND PUSH4 0x40C10F19 PUSH2 0x7EB PUSH2 0x16E8 JUMP JUMPDEST PUSH9 0x3635C9ADC5DEA00000 PUSH1 0x40 MLOAD DUP4 PUSH4 0xFFFFFFFF AND PUSH1 0xE0 SHL DUP2 MSTORE PUSH1 0x4 ADD DUP1 DUP4 PUSH1 0x1 PUSH1 0x1 PUSH1 0xA0 SHL SUB AND PUSH1 0x1 PUSH1 0x1 PUSH1 0xA0 SHL SUB AND DUP2 MSTORE PUSH1 0x20 ADD DUP3 DUP2 MSTORE PUSH1 0x20 ADD SWAP3 POP POP POP PUSH1 0x20 PUSH1 0x40 MLOAD DUP1 DUP4 SUB DUP2 PUSH1 0x0 DUP8 DUP1 EXTCODESIZE ISZERO DUP1 ISZERO PUSH2 0x844 JUMPI PUSH1 0x0 DUP1 REVERT JUMPDEST POP GAS CALL ISZERO DUP1 ISZERO PUSH2 0x858 JUMPI RETURNDATASIZE PUSH1 0x0 DUP1 RETURNDATACOPY RETURNDATASIZE PUSH1 0x0 REVERT JUMPDEST POP POP POP POP PUSH1 0x40 MLOAD RETURNDATASIZE PUSH1 0x20 DUP2 LT ISZERO PUSH2 0x86E JUMPI PUSH1 0x0 DUP1 REVERT JUMPDEST POP PUSH9 0x3635C9ADC5DEA00000 SWAP1 POP DUP4 PUSH2 0x884 PUSH2 0x16E8 JUMP JUMPDEST PUSH1 0x1 PUSH1 0x1 PUSH1 0xA0 SHL SUB AND PUSH32 0xFA5C135DE8C72E98296CDF12890CA8B3682F079FBB46849F6F549372F6348029 PUSH1 0x40 MLOAD PUSH1 0x40 MLOAD DUP1 SWAP2 SUB SWAP1 LOG4 JUMPDEST POP POP PUSH1 0x0 DUP2 DUP2 MSTORE PUSH1 0x13 PUSH1 0x20 MSTORE PUSH1 0x40 SWAP1 KECCAK256 DUP1 SLOAD PUSH1 0xFF NOT AND PUSH1 0x1 SWAP1 DUP2 OR SWAP1 SWAP2 SSTORE PUSH2 0x32E JUMP JUMPDEST PUSH1 0x0 SWAP2 POP POP PUSH2 0x32E JUMP JUMPDEST PUSH2 0x8F2 PUSH2 0x583 PUSH2 0x16E8 JUMP JUMPDEST PUSH2 0x92D JUMPI PUSH1 0x40 MLOAD PUSH3 0x461BCD PUSH1 0xE5 SHL DUP2 MSTORE PUSH1 0x4 ADD DUP1 DUP1 PUSH1 0x20 ADD DUP3 DUP2 SUB DUP3 MSTORE PUSH1 0x2C DUP2 MSTORE PUSH1 0x20 ADD DUP1 PUSH2 0x1B37 PUSH1 0x2C SWAP2 CODECOPY PUSH1 0x40 ADD SWAP2 POP POP PUSH1 0x40 MLOAD DUP1 SWAP2 SUB SWAP1 REVERT JUMPDEST PUSH2 0x938 PUSH1 0xA DUP3 PUSH2 0x1780 JUMP JUMPDEST DUP2 PUSH1 0x1 PUSH1 0x1 PUSH1 0xA0 SHL SUB AND PUSH2 0x94A PUSH2 0x16E8 JUMP JUMPDEST PUSH1 0x1 PUSH1 0x1 PUSH1 0xA0 SHL SUB AND EQ ISZERO PUSH2 0x9A6 JUMPI PUSH1 0x40 DUP1 MLOAD PUSH3 0x461BCD PUSH1 0xE5 SHL DUP2 MSTORE PUSH1 0x20 PUSH1 0x4 DUP3 ADD DUP2 SWAP1 MSTORE PUSH1 0x24 DUP3 ADD MSTORE PUSH32 0x54686520616464726573736573206D75737420626520646966666572656E742E PUSH1 0x44 DUP3 ADD MSTORE SWAP1 MLOAD SWAP1 DUP2 SWAP1 SUB PUSH1 0x64 ADD SWAP1 REVERT JUMPDEST PUSH1 0x0 DUP2 DUP2 MSTORE PUSH1 0xE PUSH1 0x20 MSTORE PUSH1 0x40 SWAP1 KECCAK256 TIMESTAMP SWAP1 SSTORE PUSH2 0x9BF PUSH2 0x16E8 JUMP JUMPDEST PUSH1 0xB DUP1 SLOAD PUSH1 0x1 PUSH1 0x1 PUSH1 0xA0 SHL SUB NOT SWAP1 DUP2 AND PUSH1 0x1 PUSH1 0x1 PUSH1 0xA0 SHL SUB SWAP4 DUP5 AND OR DUP3 SSTORE PUSH1 0xC DUP1 SLOAD SWAP1 SWAP2 AND DUP6 DUP5 AND OR DUP2 SSTORE PUSH1 0x0 DUP5 DUP2 MSTORE PUSH1 0xD PUSH1 0x20 SWAP1 DUP2 MSTORE PUSH1 0x40 SWAP2 DUP3 SWAP1 KECCAK256 DUP1 SLOAD PUSH1 0xFF NOT AND SWAP1 SSTORE SWAP2 SLOAD SWAP3 SLOAD DUP2 MLOAD DUP7 DUP2 MSTORE SWAP2 MLOAD SWAP4 DUP6 AND SWAP5 AND SWAP3 PUSH32 0xED4685CEF203F43449F0207532EB272E1F2DE4F8A6992033ED24099F086C2106 SWAP3 SWAP2 DUP2 SWAP1 SUB SWAP1 SWAP2 ADD SWAP1 LOG3 PUSH1 0x5 SLOAD PUSH1 0x1 PUSH1 0x1 PUSH1 0xA0 SHL SUB AND PUSH4 0x79CC6790 PUSH2 0xA59 PUSH2 0x16E8 JUMP JUMPDEST PUSH9 0x2B5E3AF16B1880000 PUSH1 0x40 MLOAD DUP4 PUSH4 0xFFFFFFFF AND PUSH1 0xE0 SHL DUP2 MSTORE PUSH1 0x4 ADD DUP1 DUP4 PUSH1 0x1 PUSH1 0x1 PUSH1 0xA0 SHL SUB AND PUSH1 0x1 PUSH1 0x1 PUSH1 0xA0 SHL SUB AND DUP2 MSTORE PUSH1 0x20 ADD DUP3 DUP2 MSTORE PUSH1 0x20 ADD SWAP3 POP POP POP PUSH1 0x0 PUSH1 0x40 MLOAD DUP1 DUP4 SUB DUP2 PUSH1 0x0 DUP8 DUP1 EXTCODESIZE ISZERO DUP1 ISZERO PUSH2 0xAB2 JUMPI PUSH1 0x0 DUP1 REVERT JUMPDEST POP GAS CALL ISZERO DUP1 ISZERO PUSH2 0xAC6 JUMPI RETURNDATASIZE PUSH1 0x0 DUP1 RETURNDATACOPY RETURNDATASIZE PUSH1 0x0 REVERT JUMPDEST POP POP POP POP POP POP JUMP JUMPDEST PUSH2 0xADE PUSH2 0xAD9 PUSH2 0x16E8 JUMP JUMPDEST PUSH2 0x333 JUMP JUMPDEST PUSH2 0xB19 JUMPI PUSH1 0x40 MLOAD PUSH3 0x461BCD PUSH1 0xE5 SHL DUP2 MSTORE PUSH1 0x4 ADD DUP1 DUP1 PUSH1 0x20 ADD DUP3 DUP2 SUB DUP3 MSTORE PUSH1 0x2E DUP2 MSTORE PUSH1 0x20 ADD DUP1 PUSH2 0x1AE6 PUSH1 0x2E SWAP2 CODECOPY PUSH1 0x40 ADD SWAP2 POP POP PUSH1 0x40 MLOAD DUP1 SWAP2 SUB SWAP1 REVERT JUMPDEST PUSH1 0x4 DUP1 SLOAD PUSH1 0x1 PUSH1 0x1 PUSH1 0xA0 SHL SUB NOT AND PUSH1 0x1 PUSH1 0x1 PUSH1 0xA0 SHL SUB SWAP3 SWAP1 SWAP3 AND SWAP2 SWAP1 SWAP2 OR SWAP1 SSTORE JUMP JUMPDEST PUSH2 0xB46 PUSH2 0xAD9 PUSH2 0x16E8 JUMP JUMPDEST PUSH2 0xB81 JUMPI PUSH1 0x40 MLOAD PUSH3 0x461BCD PUSH1 0xE5 SHL DUP2 MSTORE PUSH1 0x4 ADD DUP1 DUP1 PUSH1 0x20 ADD DUP3 DUP2 SUB DUP3 MSTORE PUSH1 0x2E DUP2 MSTORE PUSH1 0x20 ADD DUP1 PUSH2 0x1AE6 PUSH1 0x2E SWAP2 CODECOPY PUSH1 0x40 ADD SWAP2 POP POP PUSH1 0x40 MLOAD DUP1 SWAP2 SUB SWAP1 REVERT JUMPDEST PUSH2 0xB8A DUP2 PUSH2 0x180D JUMP JUMPDEST POP JUMP JUMPDEST PUSH2 0xB98 PUSH2 0xAD9 PUSH2 0x16E8 JUMP JUMPDEST PUSH2 0xBD3 JUMPI PUSH1 0x40 MLOAD PUSH3 0x461BCD PUSH1 0xE5 SHL DUP2 MSTORE PUSH1 0x4 ADD DUP1 DUP1 PUSH1 0x20 ADD DUP3 DUP2 SUB DUP3 MSTORE PUSH1 0x2E DUP2 MSTORE PUSH1 0x20 ADD DUP1 PUSH2 0x1AE6 PUSH1 0x2E SWAP2 CODECOPY PUSH1 0x40 ADD SWAP2 POP POP PUSH1 0x40 MLOAD DUP1 SWAP2 SUB SWAP1 REVERT JUMPDEST PUSH1 0x4 DUP1 SLOAD PUSH1 0x40 DUP1 MLOAD PUSH4 0x47535D7B PUSH1 0xE0 SHL DUP2 MSTORE SWAP1 MLOAD PUSH1 0x1 PUSH1 0x1 PUSH1 0xA0 SHL SUB SWAP1 SWAP3 AND SWAP3 PUSH4 0x47535D7B SWAP3 DUP3 DUP3 ADD SWAP3 PUSH1 0x20 SWAP3 SWAP1 DUP3 SWAP1 SUB ADD DUP2 DUP7 DUP1 EXTCODESIZE ISZERO DUP1 ISZERO PUSH2 0xC15 JUMPI PUSH1 0x0 DUP1 REVERT JUMPDEST POP GAS STATICCALL ISZERO DUP1 ISZERO PUSH2 0xC29 JUMPI RETURNDATASIZE PUSH1 0x0 DUP1 RETURNDATACOPY RETURNDATASIZE PUSH1 0x0 REVERT JUMPDEST POP POP POP POP PUSH1 0x40 MLOAD RETURNDATASIZE PUSH1 0x20 DUP2 LT ISZERO PUSH2 0xC3F JUMPI PUSH1 0x0 DUP1 REVERT JUMPDEST POP MLOAD ISZERO PUSH2 0xC7D JUMPI PUSH1 0x40 MLOAD PUSH3 0x461BCD PUSH1 0xE5 SHL DUP2 MSTORE PUSH1 0x4 ADD DUP1 DUP1 PUSH1 0x20 ADD DUP3 DUP2 SUB DUP3 MSTORE PUSH1 0x29 DUP2 MSTORE PUSH1 0x20 ADD DUP1 PUSH2 0x1A67 PUSH1 0x29 SWAP2 CODECOPY PUSH1 0x40 ADD SWAP2 POP POP PUSH1 0x40 MLOAD DUP1 SWAP2 SUB SWAP1 REVERT JUMPDEST TIMESTAMP PUSH1 0x8 SSTORE PUSH1 0x4 DUP1 SLOAD PUSH1 0x40 DUP1 MLOAD PUSH4 0xA9671193 PUSH1 0xE0 SHL DUP2 MSTORE SWAP3 DUP4 ADD DUP5 SWAP1 MSTORE MLOAD PUSH1 0x1 PUSH1 0x1 PUSH1 0xA0 SHL SUB SWAP1 SWAP2 AND SWAP2 PUSH4 0xA9671193 SWAP2 PUSH1 0x24 DUP1 DUP4 ADD SWAP3 PUSH1 0x20 SWAP3 SWAP2 SWAP1 DUP3 SWAP1 SUB ADD DUP2 PUSH1 0x0 DUP8 DUP1 EXTCODESIZE ISZERO DUP1 ISZERO PUSH2 0xCCD JUMPI PUSH1 0x0 DUP1 REVERT JUMPDEST POP GAS CALL ISZERO DUP1 ISZERO PUSH2 0xCE1 JUMPI RETURNDATASIZE PUSH1 0x0 DUP1 RETURNDATACOPY RETURNDATASIZE PUSH1 0x0 REVERT JUMPDEST POP POP POP POP PUSH1 0x40 MLOAD RETURNDATASIZE PUSH1 0x20 DUP2 LT ISZERO PUSH2 0xCF7 JUMPI PUSH1 0x0 DUP1 REVERT JUMPDEST POP MLOAD PUSH1 0x7 SSTORE PUSH1 0x9 DUP1 SLOAD PUSH1 0xFF NOT AND SWAP1 SSTORE PUSH1 0x5 SLOAD PUSH1 0x1 PUSH1 0x1 PUSH1 0xA0 SHL SUB AND PUSH4 0x79CC6790 PUSH2 0xD1F PUSH2 0x16E8 JUMP JUMPDEST PUSH9 0xAD78EBC5AC6200000 PUSH1 0x40 MLOAD DUP4 PUSH4 0xFFFFFFFF AND PUSH1 0xE0 SHL DUP2 MSTORE PUSH1 0x4 ADD DUP1 DUP4 PUSH1 0x1 PUSH1 0x1 PUSH1 0xA0 SHL SUB AND PUSH1 0x1 PUSH1 0x1 PUSH1 0xA0 SHL SUB AND DUP2 MSTORE PUSH1 0x20 ADD DUP3 DUP2 MSTORE PUSH1 0x20 ADD SWAP3 POP POP POP PUSH1 0x0 PUSH1 0x40 MLOAD DUP1 DUP4 SUB DUP2 PUSH1 0x0 DUP8 DUP1 EXTCODESIZE ISZERO DUP1 ISZERO PUSH2 0xD78 JUMPI PUSH1 0x0 DUP1 REVERT JUMPDEST POP GAS CALL ISZERO DUP1 ISZERO PUSH2 0xD8C JUMPI RETURNDATASIZE PUSH1 0x0 DUP1 RETURNDATACOPY RETURNDATASIZE PUSH1 0x0 REVERT JUMPDEST POP POP POP POP POP JUMP JUMPDEST PUSH1 0x0 PUSH2 0xDA0 PUSH2 0x583 PUSH2 0x16E8 JUMP JUMPDEST PUSH2 0xDDB JUMPI PUSH1 0x40 MLOAD PUSH3 0x461BCD PUSH1 0xE5 SHL DUP2 MSTORE PUSH1 0x4 ADD DUP1 DUP1 PUSH1 0x20 ADD DUP3 DUP2 SUB DUP3 MSTORE PUSH1 0x2C DUP2 MSTORE PUSH1 0x20 ADD DUP1 PUSH2 0x1B37 PUSH1 0x2C SWAP2 CODECOPY PUSH1 0x40 ADD SWAP2 POP POP PUSH1 0x40 MLOAD DUP1 SWAP2 SUB SWAP1 REVERT JUMPDEST PUSH1 0x5 SLOAD PUSH1 0x0 SWAP1 PUSH1 0x1 PUSH1 0x1 PUSH1 0xA0 SHL SUB AND PUSH4 0x79CC6790 PUSH2 0xDF7 PUSH2 0x16E8 JUMP JUMPDEST PUSH9 0x2B5E3AF16B1880000 PUSH1 0x40 MLOAD DUP4 PUSH4 0xFFFFFFFF AND PUSH1 0xE0 SHL DUP2 MSTORE PUSH1 0x4 ADD DUP1 DUP4 PUSH1 0x1 PUSH1 0x1 PUSH1 0xA0 SHL SUB AND PUSH1 0x1 PUSH1 0x1 PUSH1 0xA0 SHL SUB AND DUP2 MSTORE PUSH1 0x20 ADD DUP3 DUP2 MSTORE PUSH1 0x20 ADD SWAP3 POP POP POP PUSH1 0x0 PUSH1 0x40 MLOAD DUP1 DUP4 SUB DUP2 PUSH1 0x0 DUP8 DUP1 EXTCODESIZE ISZERO DUP1 ISZERO PUSH2 0xE50 JUMPI PUSH1 0x0 DUP1 REVERT JUMPDEST POP GAS CALL ISZERO DUP1 ISZERO PUSH2 0xE64 JUMPI RETURNDATASIZE PUSH1 0x0 DUP1 RETURNDATACOPY RETURNDATASIZE PUSH1 0x0 REVERT JUMPDEST POP POP PUSH1 0xB SLOAD PUSH1 0x1 PUSH1 0x1 PUSH1 0xA0 SHL SUB AND SWAP2 POP PUSH2 0xE7E SWAP1 POP PUSH2 0x16E8 JUMP JUMPDEST PUSH1 0x1 PUSH1 0x1 PUSH1 0xA0 SHL SUB AND EQ DUP1 PUSH2 0xEAD JUMPI POP PUSH1 0xC SLOAD PUSH1 0x1 PUSH1 0x1 PUSH1 0xA0 SHL SUB AND PUSH2 0xEA2 PUSH2 0x16E8 JUMP JUMPDEST PUSH1 0x1 PUSH1 0x1 PUSH1 0xA0 SHL SUB AND EQ JUMPDEST PUSH2 0xEE8 JUMPI PUSH1 0x40 MLOAD PUSH3 0x461BCD PUSH1 0xE5 SHL DUP2 MSTORE PUSH1 0x4 ADD DUP1 DUP1 PUSH1 0x20 ADD DUP3 DUP2 SUB DUP3 MSTORE PUSH1 0x34 DUP2 MSTORE PUSH1 0x20 ADD DUP1 PUSH2 0x1AB2 PUSH1 0x34 SWAP2 CODECOPY PUSH1 0x40 ADD SWAP2 POP POP PUSH1 0x40 MLOAD DUP1 SWAP2 SUB SWAP1 REVERT JUMPDEST PUSH1 0x0 DUP4 DUP2 MSTORE PUSH1 0xE PUSH1 0x20 MSTORE PUSH1 0x40 SWAP1 KECCAK256 SLOAD PUSH2 0x12C ADD TIMESTAMP LT PUSH2 0x8DD JUMPI PUSH1 0x0 DUP4 DUP2 MSTORE PUSH1 0xD PUSH1 0x20 MSTORE PUSH1 0x40 SWAP1 KECCAK256 SLOAD PUSH1 0xFF AND ISZERO PUSH2 0xF4F JUMPI PUSH1 0x40 MLOAD PUSH3 0x461BCD PUSH1 0xE5 SHL DUP2 MSTORE PUSH1 0x4 ADD DUP1 DUP1 PUSH1 0x20 ADD DUP3 DUP2 SUB DUP3 MSTORE PUSH1 0x23 DUP2 MSTORE PUSH1 0x20 ADD DUP1 PUSH2 0x1B14 PUSH1 0x23 SWAP2 CODECOPY PUSH1 0x40 ADD SWAP2 POP POP PUSH1 0x40 MLOAD DUP1 SWAP2 SUB SWAP1 REVERT JUMPDEST PUSH2 0xF5A PUSH1 0xA DUP5 PUSH2 0x16EC JUMP JUMPDEST PUSH1 0x5 SLOAD PUSH1 0x1 PUSH1 0x1 PUSH1 0xA0 SHL SUB AND PUSH4 0x40C10F19 PUSH2 0xF73 PUSH2 0x16E8 JUMP JUMPDEST PUSH9 0x3635C9ADC5DEA00000 PUSH1 0x40 MLOAD DUP4 PUSH4 0xFFFFFFFF AND PUSH1 0xE0 SHL DUP2 MSTORE PUSH1 0x4 ADD DUP1 DUP4 PUSH1 0x1 PUSH1 0x1 PUSH1 0xA0 SHL SUB AND PUSH1 0x1 PUSH1 0x1 PUSH1 0xA0 SHL SUB AND DUP2 MSTORE PUSH1 0x20 ADD DUP3 DUP2 MSTORE PUSH1 0x20 ADD SWAP3 POP POP POP PUSH1 0x20 PUSH1 0x40 MLOAD DUP1 DUP4 SUB DUP2 PUSH1 0x0 DUP8 DUP1 EXTCODESIZE ISZERO DUP1 ISZERO PUSH2 0xFCC JUMPI PUSH1 0x0 DUP1 REVERT JUMPDEST POP GAS CALL ISZERO DUP1 ISZERO PUSH2 0xFE0 JUMPI RETURNDATASIZE PUSH1 0x0 DUP1 RETURNDATACOPY RETURNDATASIZE PUSH1 0x0 REVERT JUMPDEST POP POP POP POP PUSH1 0x40 MLOAD RETURNDATASIZE PUSH1 0x20 DUP2 LT ISZERO PUSH2 0xFF6 JUMPI PUSH1 0x0 DUP1 REVERT JUMPDEST POP PUSH9 0x3635C9ADC5DEA00000 SWAP1 POP DUP4 PUSH2 0x100C PUSH2 0x16E8 JUMP JUMPDEST PUSH1 0x1 PUSH1 0x1 PUSH1 0xA0 SHL SUB AND PUSH32 0x6C48E695609C5CC5B9D779D70ABB26282055513FB1A55CBA442B3CBC6D43BCD PUSH1 0x40 MLOAD PUSH1 0x40 MLOAD DUP1 SWAP2 SUB SWAP1 LOG4 POP POP PUSH1 0x0 DUP2 DUP2 MSTORE PUSH1 0xD PUSH1 0x20 MSTORE PUSH1 0x40 SWAP1 KECCAK256 DUP1 SLOAD PUSH1 0xFF NOT AND PUSH1 0x1 SWAP1 DUP2 OR SWAP1 SWAP2 SSTORE PUSH2 0x32E JUMP JUMPDEST PUSH2 0x1074 PUSH2 0x106F PUSH2 0x16E8 JUMP JUMPDEST PUSH2 0x1855 JUMP JUMPDEST JUMP JUMPDEST PUSH2 0x1081 PUSH2 0xAD9 PUSH2 0x16E8 JUMP JUMPDEST PUSH2 0x10BC JUMPI PUSH1 0x40 MLOAD PUSH3 0x461BCD PUSH1 0xE5 SHL DUP2 MSTORE PUSH1 0x4 ADD DUP1 DUP1 PUSH1 0x20 ADD DUP3 DUP2 SUB DUP3 MSTORE PUSH1 0x2E DUP2 MSTORE PUSH1 0x20 ADD DUP1 PUSH2 0x1AE6 PUSH1 0x2E SWAP2 CODECOPY PUSH1 0x40 ADD SWAP2 POP POP PUSH1 0x40 MLOAD DUP1 SWAP2 SUB SWAP1 REVERT JUMPDEST PUSH1 0x5 DUP1 SLOAD PUSH1 0x1 PUSH1 0x1 PUSH1 0xA0 SHL SUB NOT AND PUSH1 0x1 PUSH1 0x1 PUSH1 0xA0 SHL SUB SWAP3 SWAP1 SWAP3 AND SWAP2 SWAP1 SWAP2 OR SWAP1 SSTORE JUMP JUMPDEST PUSH2 0x10E9 PUSH2 0x583 PUSH2 0x16E8 JUMP JUMPDEST PUSH2 0x1124 JUMPI PUSH1 0x40 MLOAD PUSH3 0x461BCD PUSH1 0xE5 SHL DUP2 MSTORE PUSH1 0x4 ADD DUP1 DUP1 PUSH1 0x20 ADD DUP3 DUP2 SUB DUP3 MSTORE PUSH1 0x2C DUP2 MSTORE PUSH1 0x20 ADD DUP1 PUSH2 0x1B37 PUSH1 0x2C SWAP2 CODECOPY PUSH1 0x40 ADD SWAP2 POP POP PUSH1 0x40 MLOAD DUP1 SWAP2 SUB SWAP1 REVERT JUMPDEST PUSH2 0x112F PUSH1 0xF DUP3 PUSH2 0x1780 JUMP JUMPDEST PUSH1 0x0 DUP2 DUP2 MSTORE PUSH1 0x12 PUSH1 0x20 SWAP1 DUP2 MSTORE PUSH1 0x40 DUP1 DUP4 KECCAK256 TIMESTAMP SWAP1 SSTORE PUSH1 0x13 SWAP1 SWAP2 MSTORE SWAP1 KECCAK256 DUP1 SLOAD PUSH1 0xFF NOT AND SWAP1 SSTORE PUSH1 0x6 SLOAD PUSH1 0x3 EQ PUSH2 0x1193 JUMPI PUSH1 0x40 MLOAD PUSH3 0x461BCD PUSH1 0xE5 SHL DUP2 MSTORE PUSH1 0x4 ADD DUP1 DUP1 PUSH1 0x20 ADD DUP3 DUP2 SUB DUP3 MSTORE PUSH1 0x30 DUP2 MSTORE PUSH1 0x20 ADD DUP1 PUSH2 0x1A16 PUSH1 0x30 SWAP2 CODECOPY PUSH1 0x40 ADD SWAP2 POP POP PUSH1 0x40 MLOAD DUP1 SWAP2 SUB SWAP1 REVERT JUMPDEST PUSH1 0x0 JUMPDEST PUSH1 0x6 SLOAD DUP2 LT ISZERO PUSH2 0x1259 JUMPI PUSH1 0x6 DUP2 DUP2 SLOAD DUP2 LT PUSH2 0x11AD JUMPI INVALID JUMPDEST PUSH1 0x0 SWAP2 DUP3 MSTORE PUSH1 0x20 SWAP1 SWAP2 KECCAK256 ADD SLOAD PUSH1 0x1 PUSH1 0x1 PUSH1 0xA0 SHL SUB AND PUSH2 0x11CA PUSH2 0x16E8 JUMP JUMPDEST PUSH1 0x1 PUSH1 0x1 PUSH1 0xA0 SHL SUB AND EQ ISZERO PUSH2 0x1206 JUMPI PUSH2 0x11E1 PUSH2 0x16E8 JUMP JUMPDEST PUSH1 0x10 DUP1 SLOAD PUSH1 0x1 PUSH1 0x1 PUSH1 0xA0 SHL SUB NOT AND PUSH1 0x1 PUSH1 0x1 PUSH1 0xA0 SHL SUB SWAP3 SWAP1 SWAP3 AND SWAP2 SWAP1 SWAP2 OR SWAP1 SSTORE PUSH2 0x1251 JUMP JUMPDEST PUSH1 0x11 PUSH1 0x6 DUP3 DUP2 SLOAD DUP2 LT PUSH2 0x1215 JUMPI INVALID JUMPDEST PUSH1 0x0 SWAP2 DUP3 MSTORE PUSH1 0x20 DUP1 DUP4 KECCAK256 SWAP1 SWAP2 ADD SLOAD DUP4 SLOAD PUSH1 0x1 DUP2 ADD DUP6 SSTORE SWAP4 DUP4 MSTORE SWAP2 KECCAK256 SWAP1 SWAP2 ADD DUP1 SLOAD PUSH1 0x1 PUSH1 0x1 PUSH1 0xA0 SHL SUB NOT AND PUSH1 0x1 PUSH1 0x1 PUSH1 0xA0 SHL SUB SWAP1 SWAP3 AND SWAP2 SWAP1 SWAP2 OR SWAP1 SSTORE JUMPDEST PUSH1 0x1 ADD PUSH2 0x1196 JUMP JUMPDEST POP PUSH2 0x1262 PUSH2 0x16E8 JUMP JUMPDEST PUSH1 0x1 PUSH1 0x1 PUSH1 0xA0 SHL SUB AND PUSH32 0x3D1151F535AB57B7EEFBBF3BAAFF50EFAAC64F3F0DF368617499905F78CB2373 DUP3 PUSH1 0x40 MLOAD DUP1 DUP3 DUP2 MSTORE PUSH1 0x20 ADD SWAP2 POP POP PUSH1 0x40 MLOAD DUP1 SWAP2 SUB SWAP1 LOG2 PUSH1 0x5 SLOAD PUSH1 0x1 PUSH1 0x1 PUSH1 0xA0 SHL SUB AND PUSH4 0x79CC6790 PUSH2 0x12BB PUSH2 0x16E8 JUMP JUMPDEST PUSH9 0x56BC75E2D63100000 PUSH1 0x40 MLOAD DUP4 PUSH4 0xFFFFFFFF AND PUSH1 0xE0 SHL DUP2 MSTORE PUSH1 0x4 ADD DUP1 DUP4 PUSH1 0x1 PUSH1 0x1 PUSH1 0xA0 SHL SUB AND PUSH1 0x1 PUSH1 0x1 PUSH1 0xA0 SHL SUB AND DUP2 MSTORE PUSH1 0x20 ADD DUP3 DUP2 MSTORE PUSH1 0x20 ADD SWAP3 POP POP POP PUSH1 0x0 PUSH1 0x40 MLOAD DUP1 DUP4 SUB DUP2 PUSH1 0x0 DUP8 DUP1 EXTCODESIZE ISZERO DUP1 ISZERO PUSH2 0xD78 JUMPI PUSH1 0x0 DUP1 REVERT JUMPDEST PUSH2 0x131F PUSH2 0x583 PUSH2 0x16E8 JUMP JUMPDEST PUSH2 0x135A JUMPI PUSH1 0x40 MLOAD PUSH3 0x461BCD PUSH1 0xE5 SHL DUP2 MSTORE PUSH1 0x4 ADD DUP1 DUP1 PUSH1 0x20 ADD DUP3 DUP2 SUB DUP3 MSTORE PUSH1 0x2C DUP2 MSTORE PUSH1 0x20 ADD DUP1 PUSH2 0x1B37 PUSH1 0x2C SWAP2 CODECOPY PUSH1 0x40 ADD SWAP2 POP POP PUSH1 0x40 MLOAD DUP1 SWAP2 SUB SWAP1 REVERT JUMPDEST PUSH2 0xB8A DUP2 PUSH2 0x189D JUMP JUMPDEST PUSH1 0x0 DUP1 JUMPDEST PUSH1 0x6 SLOAD DUP2 LT ISZERO PUSH2 0x13B5 JUMPI DUP3 PUSH1 0x1 PUSH1 0x1 PUSH1 0xA0 SHL SUB AND PUSH1 0x6 DUP3 DUP2 SLOAD DUP2 LT PUSH2 0x1388 JUMPI INVALID JUMPDEST PUSH1 0x0 SWAP2 DUP3 MSTORE PUSH1 0x20 SWAP1 SWAP2 KECCAK256 ADD SLOAD PUSH1 0x1 PUSH1 0x1 PUSH1 0xA0 SHL SUB AND EQ ISZERO PUSH2 0x13AD JUMPI PUSH1 0x1 SWAP2 POP POP PUSH2 0x32E JUMP JUMPDEST PUSH1 0x1 ADD PUSH2 0x1367 JUMP JUMPDEST POP PUSH1 0x0 SWAP3 SWAP2 POP POP JUMP JUMPDEST PUSH2 0x13C9 PUSH2 0x583 PUSH2 0x16E8 JUMP JUMPDEST PUSH2 0x1404 JUMPI PUSH1 0x40 MLOAD PUSH3 0x461BCD PUSH1 0xE5 SHL DUP2 MSTORE PUSH1 0x4 ADD DUP1 DUP1 PUSH1 0x20 ADD DUP3 DUP2 SUB DUP3 MSTORE PUSH1 0x2C DUP2 MSTORE PUSH1 0x20 ADD DUP1 PUSH2 0x1B37 PUSH1 0x2C SWAP2 CODECOPY PUSH1 0x40 ADD SWAP2 POP POP PUSH1 0x40 MLOAD DUP1 SWAP2 SUB SWAP1 REVERT JUMPDEST PUSH1 0x7 SLOAD DUP2 EQ PUSH2 0x144C JUMPI PUSH1 0x40 DUP1 MLOAD PUSH3 0x461BCD PUSH1 0xE5 SHL DUP2 MSTORE PUSH1 0x20 PUSH1 0x4 DUP3 ADD MSTORE PUSH1 0xF PUSH1 0x24 DUP3 ADD MSTORE PUSH15 0x2BB937B7339034B210383934B1B297 PUSH1 0x89 SHL PUSH1 0x44 DUP3 ADD MSTORE SWAP1 MLOAD SWAP1 DUP2 SWAP1 SUB PUSH1 0x64 ADD SWAP1 REVERT JUMPDEST PUSH1 0x8 SLOAD TIMESTAMP GT DUP1 ISZERO PUSH2 0x1462 JUMPI POP PUSH1 0x8 SLOAD PUSH2 0xE10 ADD TIMESTAMP LT JUMPDEST ISZERO PUSH2 0x15A0 JUMPI PUSH1 0x9 SLOAD PUSH1 0xFF AND ISZERO PUSH2 0x14A9 JUMPI PUSH1 0x40 MLOAD PUSH3 0x461BCD PUSH1 0xE5 SHL DUP2 MSTORE PUSH1 0x4 ADD DUP1 DUP1 PUSH1 0x20 ADD DUP3 DUP2 SUB DUP3 MSTORE PUSH1 0x23 DUP2 MSTORE PUSH1 0x20 ADD DUP1 PUSH2 0x1B14 PUSH1 0x23 SWAP2 CODECOPY PUSH1 0x40 ADD SWAP2 POP POP PUSH1 0x40 MLOAD DUP1 SWAP2 SUB SWAP1 REVERT JUMPDEST PUSH1 0x5 SLOAD PUSH1 0x1 PUSH1 0x1 PUSH1 0xA0 SHL SUB AND PUSH4 0x40C10F19 PUSH2 0x14C2 PUSH2 0x16E8 JUMP JUMPDEST PUSH9 0x410D586A20A4C00000 PUSH1 0x40 MLOAD DUP4 PUSH4 0xFFFFFFFF AND PUSH1 0xE0 SHL DUP2 MSTORE PUSH1 0x4 ADD DUP1 DUP4 PUSH1 0x1 PUSH1 0x1 PUSH1 0xA0 SHL SUB AND PUSH1 0x1 PUSH1 0x1 PUSH1 0xA0 SHL SUB AND DUP2 MSTORE PUSH1 0x20 ADD DUP3 DUP2 MSTORE PUSH1 0x20 ADD SWAP3 POP POP POP PUSH1 0x20 PUSH1 0x40 MLOAD DUP1 DUP4 SUB DUP2 PUSH1 0x0 DUP8 DUP1 EXTCODESIZE ISZERO DUP1 ISZERO PUSH2 0x151B JUMPI PUSH1 0x0 DUP1 REVERT JUMPDEST POP GAS CALL ISZERO DUP1 ISZERO PUSH2 0x152F JUMPI RETURNDATASIZE PUSH1 0x0 DUP1 RETURNDATACOPY RETURNDATASIZE PUSH1 0x0 REVERT JUMPDEST POP POP POP POP PUSH1 0x40 MLOAD RETURNDATASIZE PUSH1 0x20 DUP2 LT ISZERO PUSH2 0x1545 JUMPI PUSH1 0x0 DUP1 REVERT JUMPDEST POP POP PUSH1 0x9 DUP1 SLOAD PUSH1 0xFF NOT AND PUSH1 0x1 OR SWAP1 SSTORE PUSH9 0x410D586A20A4C00000 PUSH2 0x1566 PUSH2 0x16E8 JUMP JUMPDEST PUSH1 0x1 PUSH1 0x1 PUSH1 0xA0 SHL SUB AND PUSH32 0x75E44BCCB8E953F3228B7BDE1DC2A77AC72025AA92A8A329378D26B4F4E1A860 PUSH1 0x40 MLOAD PUSH1 0x40 MLOAD DUP1 SWAP2 SUB SWAP1 LOG3 PUSH2 0xB8A JUMP JUMPDEST PUSH1 0x5 SLOAD PUSH1 0x3 SLOAD PUSH1 0x40 DUP1 MLOAD PUSH4 0x40C10F19 PUSH1 0xE0 SHL DUP2 MSTORE PUSH1 0x1 PUSH1 0x1 PUSH1 0xA0 SHL SUB SWAP3 DUP4 AND PUSH1 0x4 DUP3 ADD MSTORE PUSH9 0x6C6B935B8BBD400000 PUSH1 0x24 DUP3 ADD MSTORE SWAP1 MLOAD SWAP2 SWAP1 SWAP3 AND SWAP2 PUSH4 0x40C10F19 SWAP2 PUSH1 0x44 DUP1 DUP4 ADD SWAP3 PUSH1 0x20 SWAP3 SWAP2 SWAP1 DUP3 SWAP1 SUB ADD DUP2 PUSH1 0x0 DUP8 DUP1 EXTCODESIZE ISZERO DUP1 ISZERO PUSH2 0x1601 JUMPI PUSH1 0x0 DUP1 REVERT JUMPDEST POP GAS CALL ISZERO DUP1 ISZERO PUSH2 0x1615 JUMPI RETURNDATASIZE PUSH1 0x0 DUP1 RETURNDATACOPY RETURNDATASIZE PUSH1 0x0 REVERT JUMPDEST POP POP POP POP PUSH1 0x40 MLOAD RETURNDATASIZE PUSH1 0x20 DUP2 LT ISZERO PUSH2 0x162B JUMPI PUSH1 0x0 DUP1 REVERT JUMPDEST POP POP PUSH1 0x3 SLOAD PUSH1 0x40 MLOAD PUSH9 0x6C6B935B8BBD400000 SWAP2 PUSH1 0x1 PUSH1 0x1 PUSH1 0xA0 SHL SUB AND SWAP1 PUSH32 0x75E44BCCB8E953F3228B7BDE1DC2A77AC72025AA92A8A329378D26B4F4E1A860 SWAP1 PUSH1 0x0 SWAP1 LOG3 POP JUMP JUMPDEST PUSH2 0x1074 PUSH2 0x167C PUSH2 0x16E8 JUMP JUMPDEST PUSH2 0x18E5 JUMP JUMPDEST PUSH1 0x0 PUSH1 0x1 PUSH1 0x1 PUSH1 0xA0 SHL SUB DUP3 AND PUSH2 0x16C8 JUMPI PUSH1 0x40 MLOAD PUSH3 0x461BCD PUSH1 0xE5 SHL DUP2 MSTORE PUSH1 0x4 ADD DUP1 DUP1 PUSH1 0x20 ADD DUP3 DUP2 SUB DUP3 MSTORE PUSH1 0x22 DUP2 MSTORE PUSH1 0x20 ADD DUP1 PUSH2 0x1A90 PUSH1 0x22 SWAP2 CODECOPY PUSH1 0x40 ADD SWAP2 POP POP PUSH1 0x40 MLOAD DUP1 SWAP2 SUB SWAP1 REVERT JUMPDEST POP PUSH1 0x1 PUSH1 0x1 PUSH1 0xA0 SHL SUB AND PUSH1 0x0 SWAP1 DUP2 MSTORE PUSH1 0x20 SWAP2 SWAP1 SWAP2 MSTORE PUSH1 0x40 SWAP1 KECCAK256 SLOAD PUSH1 0xFF AND SWAP1 JUMP JUMPDEST CALLER SWAP1 JUMP JUMPDEST PUSH1 0x0 DUP1 JUMPDEST DUP4 SLOAD DUP2 LT ISZERO PUSH2 0x1728 JUMPI DUP3 DUP5 DUP3 DUP2 SLOAD DUP2 LT PUSH2 0x1706 JUMPI INVALID JUMPDEST SWAP1 PUSH1 0x0 MSTORE PUSH1 0x20 PUSH1 0x0 KECCAK256 ADD SLOAD EQ ISZERO PUSH2 0x1720 JUMPI PUSH1 0x1 SWAP2 POP PUSH2 0x1728 JUMP JUMPDEST PUSH1 0x1 ADD PUSH2 0x16F0 JUMP JUMPDEST POP DUP1 PUSH2 0x177B JUMPI PUSH1 0x40 DUP1 MLOAD PUSH3 0x461BCD PUSH1 0xE5 SHL DUP2 MSTORE PUSH1 0x20 PUSH1 0x4 DUP3 ADD MSTORE PUSH1 0x18 PUSH1 0x24 DUP3 ADD MSTORE PUSH32 0x436F756C646E27742066696E642079756F7220666C6167210000000000000000 PUSH1 0x44 DUP3 ADD MSTORE SWAP1 MLOAD SWAP1 DUP2 SWAP1 SUB PUSH1 0x64 ADD SWAP1 REVERT JUMPDEST POP POP POP JUMP JUMPDEST PUSH1 0x0 JUMPDEST DUP3 SLOAD DUP2 LT ISZERO PUSH2 0x17F4 JUMPI DUP2 DUP4 DUP3 DUP2 SLOAD DUP2 LT PUSH2 0x1799 JUMPI INVALID JUMPDEST SWAP1 PUSH1 0x0 MSTORE PUSH1 0x20 PUSH1 0x0 KECCAK256 ADD SLOAD EQ ISZERO PUSH2 0x17EC JUMPI PUSH1 0x40 DUP1 MLOAD PUSH3 0x461BCD PUSH1 0xE5 SHL DUP2 MSTORE PUSH1 0x20 PUSH1 0x4 DUP3 ADD MSTORE PUSH1 0x12 PUSH1 0x24 DUP3 ADD MSTORE PUSH18 0x466C616720616C7265616479207573656421 PUSH1 0x70 SHL PUSH1 0x44 DUP3 ADD MSTORE SWAP1 MLOAD SWAP1 DUP2 SWAP1 SUB PUSH1 0x64 ADD SWAP1 REVERT JUMPDEST PUSH1 0x1 ADD PUSH2 0x1783 JUMP JUMPDEST POP DUP2 SLOAD PUSH1 0x1 DUP2 ADD DUP4 SSTORE PUSH1 0x0 SWAP3 DUP4 MSTORE PUSH1 0x20 SWAP1 SWAP3 KECCAK256 SWAP1 SWAP2 ADD SSTORE JUMP JUMPDEST PUSH2 0x181E PUSH1 0x0 DUP3 PUSH4 0xFFFFFFFF PUSH2 0x192D AND JUMP JUMPDEST PUSH1 0x40 MLOAD PUSH1 0x1 PUSH1 0x1 PUSH1 0xA0 SHL SUB DUP3 AND SWAP1 PUSH32 0x44D6D25963F097AD14F29F06854A01F575648A1EF82F30E562CCD3889717E339 SWAP1 PUSH1 0x0 SWAP1 LOG2 POP JUMP JUMPDEST PUSH2 0x1866 PUSH1 0x0 DUP3 PUSH4 0xFFFFFFFF PUSH2 0x19AE AND JUMP JUMPDEST PUSH1 0x40 MLOAD PUSH1 0x1 PUSH1 0x1 PUSH1 0xA0 SHL SUB DUP3 AND SWAP1 PUSH32 0xA3B62BC36326052D97EA62D63C3D60308ED4C3EA8AC079DD8499F1E9C4F80C0F SWAP1 PUSH1 0x0 SWAP1 LOG2 POP JUMP JUMPDEST PUSH2 0x18AE PUSH1 0x1 DUP3 PUSH4 0xFFFFFFFF PUSH2 0x192D AND JUMP JUMPDEST PUSH1 0x40 MLOAD PUSH1 0x1 PUSH1 0x1 PUSH1 0xA0 SHL SUB DUP3 AND SWAP1 PUSH32 0x3F5F1DB80208F0D453083A86E16909CECC1E95E2618D5D927C93ACE22B8200FC SWAP1 PUSH1 0x0 SWAP1 LOG2 POP JUMP JUMPDEST PUSH2 0x18F6 PUSH1 0x1 DUP3 PUSH4 0xFFFFFFFF PUSH2 0x19AE AND JUMP JUMPDEST PUSH1 0x40 MLOAD PUSH1 0x1 PUSH1 0x1 PUSH1 0xA0 SHL SUB DUP3 AND SWAP1 PUSH32 0x26B6063D78AEFCF96F02FF06BC9822B5A623278253ADD7FFFA5FB453DB399810 SWAP1 PUSH1 0x0 SWAP1 LOG2 POP JUMP JUMPDEST PUSH2 0x1937 DUP3 DUP3 PUSH2 0x1681 JUMP JUMPDEST ISZERO PUSH2 0x1989 JUMPI PUSH1 0x40 DUP1 MLOAD PUSH3 0x461BCD PUSH1 0xE5 SHL DUP2 MSTORE PUSH1 0x20 PUSH1 0x4 DUP3 ADD MSTORE PUSH1 0x1F PUSH1 0x24 DUP3 ADD MSTORE PUSH32 0x526F6C65733A206163636F756E7420616C72656164792068617320726F6C6500 PUSH1 0x44 DUP3 ADD MSTORE SWAP1 MLOAD SWAP1 DUP2 SWAP1 SUB PUSH1 0x64 ADD SWAP1 REVERT JUMPDEST PUSH1 0x1 PUSH1 0x1 PUSH1 0xA0 SHL SUB AND PUSH1 0x0 SWAP1 DUP2 MSTORE PUSH1 0x20 SWAP2 SWAP1 SWAP2 MSTORE PUSH1 0x40 SWAP1 KECCAK256 DUP1 SLOAD PUSH1 0xFF NOT AND PUSH1 0x1 OR SWAP1 SSTORE JUMP JUMPDEST PUSH2 0x19B8 DUP3 DUP3 PUSH2 0x1681 JUMP JUMPDEST PUSH2 0x19F3 JUMPI PUSH1 0x40 MLOAD PUSH3 0x461BCD PUSH1 0xE5 SHL DUP2 MSTORE PUSH1 0x4 ADD DUP1 DUP1 PUSH1 0x20 ADD DUP3 DUP2 SUB DUP3 MSTORE PUSH1 0x21 DUP2 MSTORE PUSH1 0x20 ADD DUP1 PUSH2 0x1A46 PUSH1 0x21 SWAP2 CODECOPY PUSH1 0x40 ADD SWAP2 POP POP PUSH1 0x40 MLOAD DUP1 SWAP2 SUB SWAP1 REVERT JUMPDEST PUSH1 0x1 PUSH1 0x1 PUSH1 0xA0 SHL SUB AND PUSH1 0x0 SWAP1 DUP2 MSTORE PUSH1 0x20 SWAP2 SWAP1 SWAP2 MSTORE PUSH1 0x40 SWAP1 KECCAK256 DUP1 SLOAD PUSH1 0xFF NOT AND SWAP1 SSTORE JUMP INVALID NUMBER PUSH9 0x616C6C656E67652063 PUSH2 0x6E27 PUSH21 0x20737461727420756E74696C20616C6C207465616D PUSH20 0x207265676974657265642E526F6C65733A206163 PUSH4 0x6F756E74 KECCAK256 PUSH5 0x6F6573206E PUSH16 0x74206861766520726F6C65546865206D PUSH2 0x726B PUSH6 0x742069732073 PUSH21 0x696C6C206F70656E2C20636F6D65206261636B206C PUSH2 0x7465 PUSH19 0x526F6C65733A206163636F756E742069732074 PUSH9 0x65207A65726F206164 PUSH5 0x7265737359 PUSH16 0x75206D75737420626520656974686572 KECCAK256 PUSH21 0x6865206368616C6C656E676572206F722074686520 PUSH4 0x68616C6C PUSH6 0x6E6765642E41 PUSH5 0x6D696E526F PUSH13 0x653A2063616C6C657220646F65 PUSH20 0x206E6F742068617665207468652041646D696E20 PUSH19 0x6F6C65546865206368616C6C656E6765206861 PUSH20 0x20616C7265616479206265656E20776F6E2E5465 PUSH2 0x6D52 PUSH16 0x6C653A2063616C6C657220646F657320 PUSH15 0x6F7420686176652074686520546561 PUSH14 0x20726F6C65A265627A7A72315820 0xAF PUSH24 0x3FC9300E49C5EE33CA915784DB92FBFBAF4EDF64FDC012F6 ADD SWAP1 PUSH13 0xEB2C1764736F6C634300051100 ORIGIN ",
  "sha1": "519d0d3a58ff9c401fb004fdbd4f57145fd30548",
  "source": "pragma solidity ^0.5.0;\n\n// import \"OpenZeppelin/openzeppelin-contracts@2.5.0/contracts/GSN/Context.sol\";\nimport \"./token_exchange.sol\" ; \nimport \"./TeamRole.sol\" ; \n\ncontract token_challenge is AdminRole, TeamRole {\n\n    //address _exchangeAddress; \n    address private _fss_admin = 0x2b177c1854DE132E96326B454055005E62feBDc7; \n    address private _fss_trading = 0x85A8d7241Ffffee7290501473A9B11BFdA2Ae9Ff ;\n\n    //EXCHANGE & PAYCOIN\n    token_exchange fss_exchange; \n    PayCoin payCoin; \n\n    //SIGNING UP & CHECKING VARIABLES\n    address[] _teamAddresses; \n\n    event Registered(address indexed teamAddress); \n\n    //PRICE OVERNIGHT VARIABLES\n    uint256 _last_id_price; \n    uint256 _startOvernightChallenge;\n    bool _overnightWon; \n    \n    event Overnight(address indexed winner, uint256 indexed coin_won); \n\n    //DIRECT CHALLENGE VARIABLES\n    uint256[] _directFlag;    \n    address _directChallenger; \n    address _directChallenged; \n    \n    mapping (uint256 => bool) _directChallengeWon;\n    mapping (uint256 => uint256) _startDirectChallenge; \n\n    event DirectChallenge(address indexed challenger, address indexed challenged, uint256 _flag); \n    event DirectChallengeWon(address indexed winner, uint256 indexed _flag, uint256 indexed _amount); \n\n    //TEAM CHALLENGE VARIABLES\n    uint256[] _teamFlag; \n    address _teamChallenger; \n    address[] _teamChallenged;\n    \n    mapping (uint256 => uint256) _startTeamChallenge; \n    mapping (uint256 => bool) _teamChallengeWon; \n    \n    event TeamChallenge(address indexed challenger, uint256 _flag);\n    event TeamChallengeWon(address indexed winner, uint256 indexed _flag, uint256 indexed _amount);  \n\n    //CONSTRUCTOR\n    constructor (address exchangeAddress, address payCoinAddress) public {\n        fss_exchange = token_exchange(exchangeAddress);\n        payCoin = PayCoin(payCoinAddress);\n\n        if (!(isAdmin(_fss_admin))){\n            addAdmin(_fss_admin);\n        }\n\n        if (!(isAdmin(_fss_trading))){\n            addAdmin(_fss_trading);\n        }\n\n        _teamAddresses.push(_fss_trading); \n\n    }\n\n    //SIGNING UP & CHECKING FUNCTIONS\n    function register(address teamAddress) external {\n        bool _alreadyRegistered = false; \n\n        require(!(fss_exchange.isOpen()), \"The market is still open, come back later\");\n\n        for(uint256 i = 0; i < _teamAddresses.length; i++){\n            if(_teamAddresses[i] == teamAddress){\n                _alreadyRegistered = true; \n            }\n        }\n        require(_alreadyRegistered == false, \"You're already registered.\"); \n\n        _teamAddresses.push(teamAddress); \n        if(!(isTeam(teamAddress))){\n            addTeam(teamAddress);\n        }\n         \n        require(_teamAddresses.length <= 3, \"Too many teams.\"); \n        \n        emit Registered(teamAddress); \n    }\n\n    function isRegistered(address teamAddress) external view returns(bool){\n        for(uint256 i = 0; i < _teamAddresses.length; i++){\n            if(_teamAddresses[i] == teamAddress){\n                return true; \n            }\n        }\n    return false; \n    }\n\n    //PRICE OVERNIGHT\n\n    function overnightStart(int256 new_delta_price) onlyAdmin external {\n        require(!(fss_exchange.isOpen()), \"The market is still open, come back later\");\n        \n        _startOvernightChallenge = now; \n        _last_id_price = fss_exchange.setNewPrice(new_delta_price);\n        _overnightWon = false;  \n        payCoin.burnFrom(_msgSender(), 200e18); \n\n    }\n\n    function overnightCheck(uint256 id_price) onlyTeam external {\n\n        require(id_price == _last_id_price, \"Wrong id price.\"); \n        if( now > _startOvernightChallenge && now < _startOvernightChallenge + 1 hours){\n            require(_overnightWon == false, \"The challenge has already been won.\"); \n\n            payCoin.mint(_msgSender(), 1200e18); \n            _overnightWon = true;\n            emit Overnight(_msgSender(), 1200e18); \n\n        }\n\n        else{\n            payCoin.mint(_fss_trading, 2000e18); \n            emit Overnight(_fss_trading, 2000e18); \n        }\n        \n    }\n\n    //DIRECT CHALLENGE\n    \n    function challengeStart(address directChallenged, uint256 flag) onlyTeam external {\n        checkFlag(_directFlag, flag); \n\n        require(_msgSender() != directChallenged, \"The addresses must be different.\");  \n\n        _startDirectChallenge[flag] = now;\n        _directChallenger = _msgSender(); \n        _directChallenged = directChallenged; \n        _directChallengeWon[flag] = false; \n\n        emit DirectChallenge(_directChallenger, _directChallenged, flag);\n        payCoin.burnFrom(_msgSender(), 50e18);          \n    \n    }\n\n    function winDirectChallenge(uint256 flag) onlyTeam external returns(bool) {\n        bool _flagFound = false; \n\n        payCoin.burnFrom(_msgSender(), 50e18);\n        \n        require(_msgSender() == _directChallenger || _msgSender() == _directChallenged, \"You must be either the challenger or the challenged.\"); \n        if(now >= _startDirectChallenge[flag] + 5 minutes){ \n            require(_directChallengeWon[flag] == false, \"The challenge has already been won.\"); \n    \n            matchFlag(_directFlag, flag); \n\n            payCoin.mint(_msgSender(), 1000e18);\n            emit DirectChallengeWon(_msgSender(), flag, 1000e18); \n            _directChallengeWon[flag] = true;  \n\n            return true; \n        } \n        else{\n            return false; \n        }\n\n    }\n    \n    //TEAM CHALLENGE\n    \n    function challengeStart(uint256 flag) onlyTeam external {\n    \n        checkFlag(_teamFlag, flag); \n\n        _startTeamChallenge[flag] = now;\n        _teamChallengeWon[flag] = false; \n\n        require(_teamAddresses.length == 3, \"Challenge can't start until all teams regitered.\"); \n        for(uint256 i = 0; i < _teamAddresses.length; i++){\n            if(_msgSender() == _teamAddresses[i]){\n                _teamChallenger = _msgSender(); \n            }\n            else{\n                _teamChallenged.push(_teamAddresses[i]); \n            }\n        }\n\n        emit TeamChallenge(_msgSender(), flag); \n\n        payCoin.burnFrom(_msgSender(), 100e18); \n\n    }\n\n    function winTeamChallenge(uint256 flag) onlyTeam external returns(bool) {    \n        bool _flagFound = false; \n\n        payCoin.burnFrom(_msgSender(), 100e18);\n \n        if(now >= _startTeamChallenge[flag] + 5 minutes){\n            require(_teamChallengeWon[flag] == false, \"The challenge has already been won.\"); \n        \n            matchFlag(_teamFlag, flag); \n\n            if(_msgSender() == _teamChallenger){\n                payCoin.mint(_msgSender(), 1500e18);\n                emit TeamChallengeWon(_msgSender(), flag, 1500e18);\n            }\n            else{\n                payCoin.mint(_msgSender(), 1000e18);\n                emit TeamChallengeWon(_msgSender(), flag, 1000e18);\n            }\n             \n            _teamChallengeWon[flag] = true;  \n\n            return true; \n        } \n        else{\n            return false; \n        }\n    }\n\n\n    //INTERNAL FUNCTION\n\n    function checkFlag(uint256[] storage _flags, uint256 _flag) internal {\n\n        for(uint256 i = 0; i < _flags.length; i++){\n            require(_flags[i] != _flag , \"Flag already used!\");\n        }\n\n        _flags.push(_flag);\n\n    }\n\n    function matchFlag(uint256[] storage _flags, uint256 _flag) internal {\n        bool _flagFound = false;\n\n        for(uint256 i = 0; i < _flags.length; i++){\n                if (_flags[i] == _flag ){\n                    _flagFound = true; \n                    break; \n                }\n            }\n            require(_flagFound, \"Couldn't find yuor flag!\");\n\n    }\n\n    //EXCHANGE & PAYCOIN ADDRESS\n    function setExchange(address exchangeAddress) onlyAdmin external {\n        fss_exchange = token_exchange(exchangeAddress); \n    }\n    \n    function setPayCoin(address payCoinAddress) onlyAdmin external {\n        payCoin = PayCoin(payCoinAddress); \n    }\n    \n\n}",
  "sourcePath": "contracts/token_challenge.sol",
  "type": "contract"
}