{
  "abi": [
    {
      "inputs": [
        {
          "internalType": "address",
          "name": "exchangeAddress",
          "type": "address"
        }
      ],
      "payable": false,
      "stateMutability": "nonpayable",
      "type": "constructor"
    },
    {
      "anonymous": false,
      "inputs": [
        {
          "indexed": true,
          "internalType": "address",
          "name": "account",
          "type": "address"
        }
      ],
      "name": "AdminAdded",
      "type": "event"
    },
    {
      "anonymous": false,
      "inputs": [
        {
          "indexed": true,
          "internalType": "address",
          "name": "account",
          "type": "address"
        }
      ],
      "name": "AdminRemoved",
      "type": "event"
    },
    {
      "anonymous": false,
      "inputs": [
        {
          "indexed": true,
          "internalType": "address",
          "name": "directChallenger",
          "type": "address"
        },
        {
          "indexed": true,
          "internalType": "address",
          "name": "directChallenged",
          "type": "address"
        },
        {
          "indexed": false,
          "internalType": "uint256",
          "name": "directFlag",
          "type": "uint256"
        }
      ],
      "name": "DirectChallenge",
      "type": "event"
    },
    {
      "anonymous": false,
      "inputs": [
        {
          "indexed": true,
          "internalType": "address",
          "name": "directWinner",
          "type": "address"
        },
        {
          "indexed": true,
          "internalType": "uint256",
          "name": "directFlag",
          "type": "uint256"
        },
        {
          "indexed": true,
          "internalType": "uint256",
          "name": "coin_amount",
          "type": "uint256"
        }
      ],
      "name": "DirectChallengeWon",
      "type": "event"
    },
    {
      "anonymous": false,
      "inputs": [
        {
          "indexed": true,
          "internalType": "address",
          "name": "winner",
          "type": "address"
        },
        {
          "indexed": true,
          "internalType": "uint256",
          "name": "coin_won",
          "type": "uint256"
        }
      ],
      "name": "Overnight",
      "type": "event"
    },
    {
      "anonymous": false,
      "inputs": [
        {
          "indexed": true,
          "internalType": "address",
          "name": "teamAddress",
          "type": "address"
        }
      ],
      "name": "Registered",
      "type": "event"
    },
    {
      "anonymous": false,
      "inputs": [
        {
          "indexed": true,
          "internalType": "address",
          "name": "teamChallenger",
          "type": "address"
        },
        {
          "indexed": false,
          "internalType": "uint256",
          "name": "teamFlag",
          "type": "uint256"
        }
      ],
      "name": "TeamChallenge",
      "type": "event"
    },
    {
      "anonymous": false,
      "inputs": [
        {
          "indexed": true,
          "internalType": "address",
          "name": "teamWinner",
          "type": "address"
        },
        {
          "indexed": true,
          "internalType": "uint256",
          "name": "teamFlag",
          "type": "uint256"
        },
        {
          "indexed": true,
          "internalType": "uint256",
          "name": "coin_amount",
          "type": "uint256"
        }
      ],
      "name": "TeamChallengeWon",
      "type": "event"
    },
    {
      "constant": false,
      "inputs": [
        {
          "internalType": "address",
          "name": "account",
          "type": "address"
        }
      ],
      "name": "addAdmin",
      "outputs": [],
      "payable": false,
      "stateMutability": "nonpayable",
      "type": "function"
    },
    {
      "constant": false,
      "inputs": [
        {
          "internalType": "address",
          "name": "directChallenged",
          "type": "address"
        },
        {
          "internalType": "uint256",
          "name": "flag",
          "type": "uint256"
        }
      ],
      "name": "challengeStart",
      "outputs": [],
      "payable": false,
      "stateMutability": "nonpayable",
      "type": "function"
    },
    {
      "constant": false,
      "inputs": [
        {
          "internalType": "uint256",
          "name": "flag",
          "type": "uint256"
        }
      ],
      "name": "challengeStart",
      "outputs": [],
      "payable": false,
      "stateMutability": "nonpayable",
      "type": "function"
    },
    {
      "constant": true,
      "inputs": [
        {
          "internalType": "address",
          "name": "account",
          "type": "address"
        }
      ],
      "name": "isAdmin",
      "outputs": [
        {
          "internalType": "bool",
          "name": "",
          "type": "bool"
        }
      ],
      "payable": false,
      "stateMutability": "view",
      "type": "function"
    },
    {
      "constant": true,
      "inputs": [
        {
          "internalType": "address",
          "name": "teamAddress",
          "type": "address"
        }
      ],
      "name": "isRegistered",
      "outputs": [
        {
          "internalType": "bool",
          "name": "",
          "type": "bool"
        }
      ],
      "payable": false,
      "stateMutability": "view",
      "type": "function"
    },
    {
      "constant": false,
      "inputs": [
        {
          "internalType": "uint256",
          "name": "id_price",
          "type": "uint256"
        }
      ],
      "name": "overnightCheck",
      "outputs": [],
      "payable": false,
      "stateMutability": "nonpayable",
      "type": "function"
    },
    {
      "constant": false,
      "inputs": [
        {
          "internalType": "int256",
          "name": "new_delta_price",
          "type": "int256"
        }
      ],
      "name": "overnightStart",
      "outputs": [],
      "payable": false,
      "stateMutability": "nonpayable",
      "type": "function"
    },
    {
      "constant": false,
      "inputs": [
        {
          "internalType": "address",
          "name": "teamAddress",
          "type": "address"
        }
      ],
      "name": "register",
      "outputs": [],
      "payable": false,
      "stateMutability": "nonpayable",
      "type": "function"
    },
    {
      "constant": false,
      "inputs": [],
      "name": "renounceAdmin",
      "outputs": [],
      "payable": false,
      "stateMutability": "nonpayable",
      "type": "function"
    },
    {
      "constant": false,
      "inputs": [
        {
          "internalType": "uint256",
          "name": "flag",
          "type": "uint256"
        }
      ],
      "name": "winDirectChallenge",
      "outputs": [
        {
          "internalType": "bool",
          "name": "",
          "type": "bool"
        }
      ],
      "payable": false,
      "stateMutability": "nonpayable",
      "type": "function"
    },
    {
      "constant": false,
      "inputs": [
        {
          "internalType": "uint256",
          "name": "flag",
          "type": "uint256"
        }
      ],
      "name": "winTeamChallenge",
      "outputs": [
        {
          "internalType": "bool",
          "name": "",
          "type": "bool"
        }
      ],
      "payable": false,
      "stateMutability": "nonpayable",
      "type": "function"
    }
  ],
  "bytecode": "6080604052600180546001600160a01b0319167385a8d7241ffffee7290501473a9b11bfda2ae9ff1790553480156200003757600080fd5b50604051620018b6380380620018b6833981810160405260208110156200005d57600080fd5b505162000085620000766001600160e01b036200013916565b6001600160e01b036200013d16565b600280546001600160a01b0319166001600160a01b038381169190911791829055604080516001624b1f8b60e01b031981529051929091169163ffb4e07591600480820192602092909190829003018186803b158015620000e557600080fd5b505afa158015620000fa573d6000803e3d6000fd5b505050506040513d60208110156200011157600080fd5b5051600380546001600160a01b0319166001600160a01b039092169190911790555062000285565b3390565b620001588160006200018f60201b620013af1790919060201c565b6040516001600160a01b038216907f44d6d25963f097ad14f29f06854a01f575648a1ef82f30e562ccd3889717e33990600090a250565b620001a482826001600160e01b036200021c16565b15620001f7576040805162461bcd60e51b815260206004820152601f60248201527f526f6c65733a206163636f756e7420616c72656164792068617320726f6c6500604482015290519081900360640190fd5b6001600160a01b0316600090815260209190915260409020805460ff19166001179055565b60006001600160a01b038216620002655760405162461bcd60e51b8152600401808060200182810382526022815260200180620018946022913960400191505060405180910390fd5b506001600160a01b03166000908152602091909152604090205460ff1690565b6115ff80620002956000396000f3fe608060405234801561001057600080fd5b50600436106100a95760003560e01c806376a9e7b31161007157806376a9e7b31461017f57806378591bfd1461019c5780638bad0c0a146101b9578063a5c6a022146101c1578063c3c5a547146101de578063d5d35f9514610204576100a9565b806324d7806c146100ae5780634420e486146100e8578063561675e114610110578063612b75431461012d5780637048027514610159575b600080fd5b6100d4600480360360208110156100c457600080fd5b50356001600160a01b0316610221565b604080519115158252519081900360200190f35b61010e600480360360208110156100fe57600080fd5b50356001600160a01b031661023b565b005b6100d46004803603602081101561012657600080fd5b50356103a6565b61010e6004803603604081101561014357600080fd5b506001600160a01b038135169060200135610778565b61010e6004803603602081101561016f57600080fd5b50356001600160a01b031661097b565b61010e6004803603602081101561019557600080fd5b50356109d2565b6100d4600480360360208110156101b257600080fd5b5035610b19565b61010e610dc5565b61010e600480360360208110156101d757600080fd5b5035610dd7565b6100d4600480360360208110156101f457600080fd5b50356001600160a01b0316611014565b61010e6004803603602081101561021a57600080fd5b503561106f565b6000610233818363ffffffff6112b416565b90505b919050565b6000805b60045481101561028857826001600160a01b03166004828154811061026057fe5b6000918252602090912001546001600160a01b0316141561028057600191505b60010161023f565b5080156102dc576040805162461bcd60e51b815260206004820152601a60248201527f596f7527726520616c726561647920726567697374657265642e000000000000604482015290519081900360640190fd5b6004805460018101825560008290527f8a35acfbc15ff81a39ae7d344fd709f28e8600b4aa8c65c6b64bfe7fe36bd19b0180546001600160a01b0319166001600160a01b038516179055546003101561036e576040805162461bcd60e51b815260206004820152600f60248201526e2a37b79036b0b73c903a32b0b6b99760891b604482015290519081900360640190fd5b6040516001600160a01b038316907f2d3734a8e47ac8316e500ac231c90a6e1848ca2285f40d07eaa52005e4b3a0e990600090a25050565b6003546040805163079cc67960e41b815233600482015268056bc75e2d631000006024820152905160009283926001600160a01b03909116916379cc679091604480820192869290919082900301818387803b15801561040557600080fd5b505af1158015610419573d6000803e3d6000fd5b5050600e546001600160a01b0316331491508190506104595750600f60008154811061044157fe5b6000918252602090912001546001600160a01b031633145b806104855750600f60018154811061046d57fe5b6000918252602090912001546001600160a01b031633145b6104c05760405162461bcd60e51b815260040180806020018281038252603b815260200180611498603b913960400191505060405180910390fd5b60008381526010602052604090205461012c01421061076e5760008381526011602052604090205460ff16156105275760405162461bcd60e51b81526004018080602001828103825260238152602001806115a86023913960400191505060405180910390fd5b60005b600d548110156105645783600d828154811061054257fe5b9060005260206000200154141561055c5760019150610564565b60010161052a565b50806105b2576040805162461bcd60e51b8152602060048201526018602482015277436f756c646e27742066696e642079756f7220666c61672160401b604482015290519081900360640190fd5b600e546001600160a01b031633141561068a57600354604080516340c10f1960e01b8152336004820152685150ae84a8cdf00000602482015290516001600160a01b03909216916340c10f19916044808201926020929091908290030181600087803b15801561062157600080fd5b505af1158015610635573d6000803e3d6000fd5b505050506040513d602081101561064b57600080fd5b5050604051685150ae84a8cdf0000090849033907ffa5c135de8c72e98296cdf12890ca8b3682f079fbb46849f6f549372f634802990600090a461074b565b600354604080516340c10f1960e01b8152336004820152683635c9adc5dea00000602482015290516001600160a01b03909216916340c10f19916044808201926020929091908290030181600087803b1580156106e657600080fd5b505af11580156106fa573d6000803e3d6000fd5b505050506040513d602081101561071057600080fd5b5050604051683635c9adc5dea0000090849033907ffa5c135de8c72e98296cdf12890ca8b3682f079fbb46849f6f549372f634802990600090a45b50506000818152600b60205260409020805460ff19166001908117909155610236565b6000915050610236565b60005b6008548110156107ee57816008828154811061079357fe5b906000526020600020015414156107e6576040805162461bcd60e51b8152602060048201526012602482015271466c616720616c726561647920757365642160701b604482015290519081900360640190fd5b60010161077b565b50336001600160a01b038316141561084d576040805162461bcd60e51b815260206004820181905260248201527f54686520616464726573736573206d75737420626520646966666572656e742e604482015290519081900360640190fd5b60088054600181019091557ff3f7a9fe364faab93b216da50a3214154f22a0a2b415b23a84c8169e8b636ee3018190556000818152600c60209081526040808320429055600980546001600160a01b031990811633178255600a80546001600160a01b0389811691909316178155600b855294839020805460ff1916905593549054825186815292519185169416927fed4685cef203f43449f0207532eb272e1f2de4f8a6992033ed24099f086c2106928290030190a36003546040805163079cc67960e41b81523360048201526802b5e3af16b1880000602482015290516001600160a01b03909216916379cc67909160448082019260009290919082900301818387803b15801561095f57600080fd5b505af1158015610973573d6000803e3d6000fd5b505050505050565b61098b61098661131b565b610221565b6109c65760405162461bcd60e51b815260040180806020018281038252602e81526020018061157a602e913960400191505060405180910390fd5b6109cf8161131f565b50565b6109dd61098661131b565b610a185760405162461bcd60e51b815260040180806020018281038252602e81526020018061157a602e913960400191505060405180910390fd5b426006556002546040805163a967119360e01b81526004810184905290516001600160a01b039092169163a9671193916024808201926020929091908290030181600087803b158015610a6a57600080fd5b505af1158015610a7e573d6000803e3d6000fd5b505050506040513d6020811015610a9457600080fd5b50516005556007805460ff191690556003546040805163079cc67960e41b8152336004820152680ad78ebc5ac6200000602482015290516001600160a01b03909216916379cc67909160448082019260009290919082900301818387803b158015610afe57600080fd5b505af1158015610b12573d6000803e3d6000fd5b5050505050565b6003546040805163079cc67960e41b81523360048201526802b5e3af16b18800006024820152905160009283926001600160a01b03909116916379cc679091604480820192869290919082900301818387803b158015610b7857600080fd5b505af1158015610b8c573d6000803e3d6000fd5b50506009546001600160a01b031633149150819050610bb55750600a546001600160a01b031633145b610bf05760405162461bcd60e51b81526004018080602001828103825260348152602001806115466034913960400191505060405180910390fd5b6000838152600c602052604090205461012c01421061076e576000838152600b602052604090205460ff1615610c575760405162461bcd60e51b81526004018080602001828103825260238152602001806115a86023913960400191505060405180910390fd5b60005b600854811015610c94578360088281548110610c7257fe5b90600052602060002001541415610c8c5760019150610c94565b600101610c5a565b5080610ce2576040805162461bcd60e51b8152602060048201526018602482015277436f756c646e27742066696e642079756f7220666c61672160401b604482015290519081900360640190fd5b600354604080516340c10f1960e01b8152336004820152683635c9adc5dea00000602482015290516001600160a01b03909216916340c10f19916044808201926020929091908290030181600087803b158015610d3e57600080fd5b505af1158015610d52573d6000803e3d6000fd5b505050506040513d6020811015610d6857600080fd5b5050604051683635c9adc5dea0000090849033907f06c48e695609c5cc5b9d779d70abb26282055513fb1a55cba442b3cbc6d43bcd90600090a450506000818152600b60205260409020805460ff19166001908117909155610236565b610dd5610dd061131b565b611367565b565b60005b600d54811015610e4d5781600d8281548110610df257fe5b90600052602060002001541415610e45576040805162461bcd60e51b8152602060048201526012602482015271466c616720616c726561647920757365642160701b604482015290519081900360640190fd5b600101610dda565b50600d8054600181019091557fd7b6990105719101dabeb77144f2a3385c8033acd3af97e9423a695e81ad1eb501819055600081815260106020908152604080832042905560119091529020805460ff19169055600454600314610ee25760405162461bcd60e51b81526004018080602001828103825260308152602001806114d36030913960400191505060405180910390fd5b60005b600454811015610f825760048181548110610efc57fe5b6000918252602090912001546001600160a01b0316331415610f2f57600e80546001600160a01b03191633179055610f7a565b600f60048281548110610f3e57fe5b60009182526020808320909101548354600181018555938352912090910180546001600160a01b0319166001600160a01b039092169190911790555b600101610ee5565b5060408051828152905133917f3d1151f535ab57b7eefbbf3baaff50efaac64f3f0df368617499905f78cb2373919081900360200190a26003546040805163079cc67960e41b815233600482015268056bc75e2d63100000602482015290516001600160a01b03909216916379cc67909160448082019260009290919082900301818387803b158015610afe57600080fd5b6000805b60045481101561106657826001600160a01b03166004828154811061103957fe5b6000918252602090912001546001600160a01b0316141561105e576001915050610236565b600101611018565b50600092915050565b60055481146110b7576040805162461bcd60e51b815260206004820152600f60248201526e2bb937b7339034b210383934b1b29760891b604482015290519081900360640190fd5b600654421180156110cc5750600654603c0142105b156111e35760075460ff16156111135760405162461bcd60e51b81526004018080602001828103825260238152602001806115a86023913960400191505060405180910390fd5b600354604080516340c10f1960e01b815233600482015268410d586a20a4c00000602482015290516001600160a01b03909216916340c10f19916044808201926020929091908290030181600087803b15801561116f57600080fd5b505af1158015611183573d6000803e3d6000fd5b505050506040513d602081101561119957600080fd5b50506007805460ff1916600117905560405168410d586a20a4c000009033907f75e44bccb8e953f3228b7bde1dc2a77ac72025aa92a8a329378d26b4f4e1a86090600090a36109cf565b600354600154604080516340c10f1960e01b81526001600160a01b039283166004820152686c6b935b8bbd4000006024820152905191909216916340c10f199160448083019260209291908290030181600087803b15801561124457600080fd5b505af1158015611258573d6000803e3d6000fd5b505050506040513d602081101561126e57600080fd5b5050600154604051686c6b935b8bbd400000916001600160a01b0316907f75e44bccb8e953f3228b7bde1dc2a77ac72025aa92a8a329378d26b4f4e1a86090600090a350565b60006001600160a01b0382166112fb5760405162461bcd60e51b81526004018080602001828103825260228152602001806115246022913960400191505060405180910390fd5b506001600160a01b03166000908152602091909152604090205460ff1690565b3390565b61133060008263ffffffff6113af16565b6040516001600160a01b038216907f44d6d25963f097ad14f29f06854a01f575648a1ef82f30e562ccd3889717e33990600090a250565b61137860008263ffffffff61143016565b6040516001600160a01b038216907fa3b62bc36326052d97ea62d63c3d60308ed4c3ea8ac079dd8499f1e9c4f80c0f90600090a250565b6113b982826112b4565b1561140b576040805162461bcd60e51b815260206004820152601f60248201527f526f6c65733a206163636f756e7420616c72656164792068617320726f6c6500604482015290519081900360640190fd5b6001600160a01b0316600090815260209190915260409020805460ff19166001179055565b61143a82826112b4565b6114755760405162461bcd60e51b81526004018080602001828103825260218152602001806115036021913960400191505060405180910390fd5b6001600160a01b0316600090815260209190915260409020805460ff1916905556fe596f75206d7573742062652065697468657220746865206368616c6c656e676572206f72206f6e6520666f20746865206368616c6c656e6765642e4368616c6c656e67652063616e277420737461727420756e74696c20616c6c207465616d73207265676974657265642e526f6c65733a206163636f756e7420646f6573206e6f74206861766520726f6c65526f6c65733a206163636f756e7420697320746865207a65726f2061646472657373596f75206d7573742062652065697468657220746865206368616c6c656e676572206f7220746865206368616c6c656e6765642e41646d696e526f6c653a2063616c6c657220646f6573206e6f742068617665207468652041646d696e20726f6c65546865206368616c6c656e67652068617320616c7265616479206265656e20776f6e2ea265627a7a7231582037b6ff01d17852e736c9aa2102c183f91d345fb4ad63d11ea347b212b99f7d1d64736f6c63430005110032526f6c65733a206163636f756e7420697320746865207a65726f2061646472657373",
  "bytecodeSha1": "da39a3ee5e6b4b0d3255bfef95601890afd80709",
  "compiler": {
    "evm_version": "istanbul",
    "optimizer": {
      "enabled": true,
      "runs": 200
    },
    "version": "0.5.17"
  },
  "contractName": "token_challenge",
  "language": "Solidity",
  "natspec": {
    "methods": {}
  },
  "opcodes": "PUSH1 0x80 PUSH1 0x40 MSTORE CALLVALUE DUP1 ISZERO PUSH2 0x10 JUMPI PUSH1 0x0 DUP1 REVERT JUMPDEST POP PUSH1 0x4 CALLDATASIZE LT PUSH2 0xA9 JUMPI PUSH1 0x0 CALLDATALOAD PUSH1 0xE0 SHR DUP1 PUSH4 0x76A9E7B3 GT PUSH2 0x71 JUMPI DUP1 PUSH4 0x76A9E7B3 EQ PUSH2 0x17F JUMPI DUP1 PUSH4 0x78591BFD EQ PUSH2 0x19C JUMPI DUP1 PUSH4 0x8BAD0C0A EQ PUSH2 0x1B9 JUMPI DUP1 PUSH4 0xA5C6A022 EQ PUSH2 0x1C1 JUMPI DUP1 PUSH4 0xC3C5A547 EQ PUSH2 0x1DE JUMPI DUP1 PUSH4 0xD5D35F95 EQ PUSH2 0x204 JUMPI PUSH2 0xA9 JUMP JUMPDEST DUP1 PUSH4 0x24D7806C EQ PUSH2 0xAE JUMPI DUP1 PUSH4 0x4420E486 EQ PUSH2 0xE8 JUMPI DUP1 PUSH4 0x561675E1 EQ PUSH2 0x110 JUMPI DUP1 PUSH4 0x612B7543 EQ PUSH2 0x12D JUMPI DUP1 PUSH4 0x70480275 EQ PUSH2 0x159 JUMPI JUMPDEST PUSH1 0x0 DUP1 REVERT JUMPDEST PUSH2 0xD4 PUSH1 0x4 DUP1 CALLDATASIZE SUB PUSH1 0x20 DUP2 LT ISZERO PUSH2 0xC4 JUMPI PUSH1 0x0 DUP1 REVERT JUMPDEST POP CALLDATALOAD PUSH1 0x1 PUSH1 0x1 PUSH1 0xA0 SHL SUB AND PUSH2 0x221 JUMP JUMPDEST PUSH1 0x40 DUP1 MLOAD SWAP2 ISZERO ISZERO DUP3 MSTORE MLOAD SWAP1 DUP2 SWAP1 SUB PUSH1 0x20 ADD SWAP1 RETURN JUMPDEST PUSH2 0x10E PUSH1 0x4 DUP1 CALLDATASIZE SUB PUSH1 0x20 DUP2 LT ISZERO PUSH2 0xFE JUMPI PUSH1 0x0 DUP1 REVERT JUMPDEST POP CALLDATALOAD PUSH1 0x1 PUSH1 0x1 PUSH1 0xA0 SHL SUB AND PUSH2 0x23B JUMP JUMPDEST STOP JUMPDEST PUSH2 0xD4 PUSH1 0x4 DUP1 CALLDATASIZE SUB PUSH1 0x20 DUP2 LT ISZERO PUSH2 0x126 JUMPI PUSH1 0x0 DUP1 REVERT JUMPDEST POP CALLDATALOAD PUSH2 0x3A6 JUMP JUMPDEST PUSH2 0x10E PUSH1 0x4 DUP1 CALLDATASIZE SUB PUSH1 0x40 DUP2 LT ISZERO PUSH2 0x143 JUMPI PUSH1 0x0 DUP1 REVERT JUMPDEST POP PUSH1 0x1 PUSH1 0x1 PUSH1 0xA0 SHL SUB DUP2 CALLDATALOAD AND SWAP1 PUSH1 0x20 ADD CALLDATALOAD PUSH2 0x778 JUMP JUMPDEST PUSH2 0x10E PUSH1 0x4 DUP1 CALLDATASIZE SUB PUSH1 0x20 DUP2 LT ISZERO PUSH2 0x16F JUMPI PUSH1 0x0 DUP1 REVERT JUMPDEST POP CALLDATALOAD PUSH1 0x1 PUSH1 0x1 PUSH1 0xA0 SHL SUB AND PUSH2 0x97B JUMP JUMPDEST PUSH2 0x10E PUSH1 0x4 DUP1 CALLDATASIZE SUB PUSH1 0x20 DUP2 LT ISZERO PUSH2 0x195 JUMPI PUSH1 0x0 DUP1 REVERT JUMPDEST POP CALLDATALOAD PUSH2 0x9D2 JUMP JUMPDEST PUSH2 0xD4 PUSH1 0x4 DUP1 CALLDATASIZE SUB PUSH1 0x20 DUP2 LT ISZERO PUSH2 0x1B2 JUMPI PUSH1 0x0 DUP1 REVERT JUMPDEST POP CALLDATALOAD PUSH2 0xB19 JUMP JUMPDEST PUSH2 0x10E PUSH2 0xDC5 JUMP JUMPDEST PUSH2 0x10E PUSH1 0x4 DUP1 CALLDATASIZE SUB PUSH1 0x20 DUP2 LT ISZERO PUSH2 0x1D7 JUMPI PUSH1 0x0 DUP1 REVERT JUMPDEST POP CALLDATALOAD PUSH2 0xDD7 JUMP JUMPDEST PUSH2 0xD4 PUSH1 0x4 DUP1 CALLDATASIZE SUB PUSH1 0x20 DUP2 LT ISZERO PUSH2 0x1F4 JUMPI PUSH1 0x0 DUP1 REVERT JUMPDEST POP CALLDATALOAD PUSH1 0x1 PUSH1 0x1 PUSH1 0xA0 SHL SUB AND PUSH2 0x1014 JUMP JUMPDEST PUSH2 0x10E PUSH1 0x4 DUP1 CALLDATASIZE SUB PUSH1 0x20 DUP2 LT ISZERO PUSH2 0x21A JUMPI PUSH1 0x0 DUP1 REVERT JUMPDEST POP CALLDATALOAD PUSH2 0x106F JUMP JUMPDEST PUSH1 0x0 PUSH2 0x233 DUP2 DUP4 PUSH4 0xFFFFFFFF PUSH2 0x12B4 AND JUMP JUMPDEST SWAP1 POP JUMPDEST SWAP2 SWAP1 POP JUMP JUMPDEST PUSH1 0x0 DUP1 JUMPDEST PUSH1 0x4 SLOAD DUP2 LT ISZERO PUSH2 0x288 JUMPI DUP3 PUSH1 0x1 PUSH1 0x1 PUSH1 0xA0 SHL SUB AND PUSH1 0x4 DUP3 DUP2 SLOAD DUP2 LT PUSH2 0x260 JUMPI INVALID JUMPDEST PUSH1 0x0 SWAP2 DUP3 MSTORE PUSH1 0x20 SWAP1 SWAP2 KECCAK256 ADD SLOAD PUSH1 0x1 PUSH1 0x1 PUSH1 0xA0 SHL SUB AND EQ ISZERO PUSH2 0x280 JUMPI PUSH1 0x1 SWAP2 POP JUMPDEST PUSH1 0x1 ADD PUSH2 0x23F JUMP JUMPDEST POP DUP1 ISZERO PUSH2 0x2DC JUMPI PUSH1 0x40 DUP1 MLOAD PUSH3 0x461BCD PUSH1 0xE5 SHL DUP2 MSTORE PUSH1 0x20 PUSH1 0x4 DUP3 ADD MSTORE PUSH1 0x1A PUSH1 0x24 DUP3 ADD MSTORE PUSH32 0x596F7527726520616C726561647920726567697374657265642E000000000000 PUSH1 0x44 DUP3 ADD MSTORE SWAP1 MLOAD SWAP1 DUP2 SWAP1 SUB PUSH1 0x64 ADD SWAP1 REVERT JUMPDEST PUSH1 0x4 DUP1 SLOAD PUSH1 0x1 DUP2 ADD DUP3 SSTORE PUSH1 0x0 DUP3 SWAP1 MSTORE PUSH32 0x8A35ACFBC15FF81A39AE7D344FD709F28E8600B4AA8C65C6B64BFE7FE36BD19B ADD DUP1 SLOAD PUSH1 0x1 PUSH1 0x1 PUSH1 0xA0 SHL SUB NOT AND PUSH1 0x1 PUSH1 0x1 PUSH1 0xA0 SHL SUB DUP6 AND OR SWAP1 SSTORE SLOAD PUSH1 0x3 LT ISZERO PUSH2 0x36E JUMPI PUSH1 0x40 DUP1 MLOAD PUSH3 0x461BCD PUSH1 0xE5 SHL DUP2 MSTORE PUSH1 0x20 PUSH1 0x4 DUP3 ADD MSTORE PUSH1 0xF PUSH1 0x24 DUP3 ADD MSTORE PUSH15 0x2A37B79036B0B73C903A32B0B6B997 PUSH1 0x89 SHL PUSH1 0x44 DUP3 ADD MSTORE SWAP1 MLOAD SWAP1 DUP2 SWAP1 SUB PUSH1 0x64 ADD SWAP1 REVERT JUMPDEST PUSH1 0x40 MLOAD PUSH1 0x1 PUSH1 0x1 PUSH1 0xA0 SHL SUB DUP4 AND SWAP1 PUSH32 0x2D3734A8E47AC8316E500AC231C90A6E1848CA2285F40D07EAA52005E4B3A0E9 SWAP1 PUSH1 0x0 SWAP1 LOG2 POP POP JUMP JUMPDEST PUSH1 0x3 SLOAD PUSH1 0x40 DUP1 MLOAD PUSH4 0x79CC679 PUSH1 0xE4 SHL DUP2 MSTORE CALLER PUSH1 0x4 DUP3 ADD MSTORE PUSH9 0x56BC75E2D63100000 PUSH1 0x24 DUP3 ADD MSTORE SWAP1 MLOAD PUSH1 0x0 SWAP3 DUP4 SWAP3 PUSH1 0x1 PUSH1 0x1 PUSH1 0xA0 SHL SUB SWAP1 SWAP2 AND SWAP2 PUSH4 0x79CC6790 SWAP2 PUSH1 0x44 DUP1 DUP3 ADD SWAP3 DUP7 SWAP3 SWAP1 SWAP2 SWAP1 DUP3 SWAP1 SUB ADD DUP2 DUP4 DUP8 DUP1 EXTCODESIZE ISZERO DUP1 ISZERO PUSH2 0x405 JUMPI PUSH1 0x0 DUP1 REVERT JUMPDEST POP GAS CALL ISZERO DUP1 ISZERO PUSH2 0x419 JUMPI RETURNDATASIZE PUSH1 0x0 DUP1 RETURNDATACOPY RETURNDATASIZE PUSH1 0x0 REVERT JUMPDEST POP POP PUSH1 0xE SLOAD PUSH1 0x1 PUSH1 0x1 PUSH1 0xA0 SHL SUB AND CALLER EQ SWAP2 POP DUP2 SWAP1 POP PUSH2 0x459 JUMPI POP PUSH1 0xF PUSH1 0x0 DUP2 SLOAD DUP2 LT PUSH2 0x441 JUMPI INVALID JUMPDEST PUSH1 0x0 SWAP2 DUP3 MSTORE PUSH1 0x20 SWAP1 SWAP2 KECCAK256 ADD SLOAD PUSH1 0x1 PUSH1 0x1 PUSH1 0xA0 SHL SUB AND CALLER EQ JUMPDEST DUP1 PUSH2 0x485 JUMPI POP PUSH1 0xF PUSH1 0x1 DUP2 SLOAD DUP2 LT PUSH2 0x46D JUMPI INVALID JUMPDEST PUSH1 0x0 SWAP2 DUP3 MSTORE PUSH1 0x20 SWAP1 SWAP2 KECCAK256 ADD SLOAD PUSH1 0x1 PUSH1 0x1 PUSH1 0xA0 SHL SUB AND CALLER EQ JUMPDEST PUSH2 0x4C0 JUMPI PUSH1 0x40 MLOAD PUSH3 0x461BCD PUSH1 0xE5 SHL DUP2 MSTORE PUSH1 0x4 ADD DUP1 DUP1 PUSH1 0x20 ADD DUP3 DUP2 SUB DUP3 MSTORE PUSH1 0x3B DUP2 MSTORE PUSH1 0x20 ADD DUP1 PUSH2 0x1498 PUSH1 0x3B SWAP2 CODECOPY PUSH1 0x40 ADD SWAP2 POP POP PUSH1 0x40 MLOAD DUP1 SWAP2 SUB SWAP1 REVERT JUMPDEST PUSH1 0x0 DUP4 DUP2 MSTORE PUSH1 0x10 PUSH1 0x20 MSTORE PUSH1 0x40 SWAP1 KECCAK256 SLOAD PUSH2 0x12C ADD TIMESTAMP LT PUSH2 0x76E JUMPI PUSH1 0x0 DUP4 DUP2 MSTORE PUSH1 0x11 PUSH1 0x20 MSTORE PUSH1 0x40 SWAP1 KECCAK256 SLOAD PUSH1 0xFF AND ISZERO PUSH2 0x527 JUMPI PUSH1 0x40 MLOAD PUSH3 0x461BCD PUSH1 0xE5 SHL DUP2 MSTORE PUSH1 0x4 ADD DUP1 DUP1 PUSH1 0x20 ADD DUP3 DUP2 SUB DUP3 MSTORE PUSH1 0x23 DUP2 MSTORE PUSH1 0x20 ADD DUP1 PUSH2 0x15A8 PUSH1 0x23 SWAP2 CODECOPY PUSH1 0x40 ADD SWAP2 POP POP PUSH1 0x40 MLOAD DUP1 SWAP2 SUB SWAP1 REVERT JUMPDEST PUSH1 0x0 JUMPDEST PUSH1 0xD SLOAD DUP2 LT ISZERO PUSH2 0x564 JUMPI DUP4 PUSH1 0xD DUP3 DUP2 SLOAD DUP2 LT PUSH2 0x542 JUMPI INVALID JUMPDEST SWAP1 PUSH1 0x0 MSTORE PUSH1 0x20 PUSH1 0x0 KECCAK256 ADD SLOAD EQ ISZERO PUSH2 0x55C JUMPI PUSH1 0x1 SWAP2 POP PUSH2 0x564 JUMP JUMPDEST PUSH1 0x1 ADD PUSH2 0x52A JUMP JUMPDEST POP DUP1 PUSH2 0x5B2 JUMPI PUSH1 0x40 DUP1 MLOAD PUSH3 0x461BCD PUSH1 0xE5 SHL DUP2 MSTORE PUSH1 0x20 PUSH1 0x4 DUP3 ADD MSTORE PUSH1 0x18 PUSH1 0x24 DUP3 ADD MSTORE PUSH24 0x436F756C646E27742066696E642079756F7220666C616721 PUSH1 0x40 SHL PUSH1 0x44 DUP3 ADD MSTORE SWAP1 MLOAD SWAP1 DUP2 SWAP1 SUB PUSH1 0x64 ADD SWAP1 REVERT JUMPDEST PUSH1 0xE SLOAD PUSH1 0x1 PUSH1 0x1 PUSH1 0xA0 SHL SUB AND CALLER EQ ISZERO PUSH2 0x68A JUMPI PUSH1 0x3 SLOAD PUSH1 0x40 DUP1 MLOAD PUSH4 0x40C10F19 PUSH1 0xE0 SHL DUP2 MSTORE CALLER PUSH1 0x4 DUP3 ADD MSTORE PUSH9 0x5150AE84A8CDF00000 PUSH1 0x24 DUP3 ADD MSTORE SWAP1 MLOAD PUSH1 0x1 PUSH1 0x1 PUSH1 0xA0 SHL SUB SWAP1 SWAP3 AND SWAP2 PUSH4 0x40C10F19 SWAP2 PUSH1 0x44 DUP1 DUP3 ADD SWAP3 PUSH1 0x20 SWAP3 SWAP1 SWAP2 SWAP1 DUP3 SWAP1 SUB ADD DUP2 PUSH1 0x0 DUP8 DUP1 EXTCODESIZE ISZERO DUP1 ISZERO PUSH2 0x621 JUMPI PUSH1 0x0 DUP1 REVERT JUMPDEST POP GAS CALL ISZERO DUP1 ISZERO PUSH2 0x635 JUMPI RETURNDATASIZE PUSH1 0x0 DUP1 RETURNDATACOPY RETURNDATASIZE PUSH1 0x0 REVERT JUMPDEST POP POP POP POP PUSH1 0x40 MLOAD RETURNDATASIZE PUSH1 0x20 DUP2 LT ISZERO PUSH2 0x64B JUMPI PUSH1 0x0 DUP1 REVERT JUMPDEST POP POP PUSH1 0x40 MLOAD PUSH9 0x5150AE84A8CDF00000 SWAP1 DUP5 SWAP1 CALLER SWAP1 PUSH32 0xFA5C135DE8C72E98296CDF12890CA8B3682F079FBB46849F6F549372F6348029 SWAP1 PUSH1 0x0 SWAP1 LOG4 PUSH2 0x74B JUMP JUMPDEST PUSH1 0x3 SLOAD PUSH1 0x40 DUP1 MLOAD PUSH4 0x40C10F19 PUSH1 0xE0 SHL DUP2 MSTORE CALLER PUSH1 0x4 DUP3 ADD MSTORE PUSH9 0x3635C9ADC5DEA00000 PUSH1 0x24 DUP3 ADD MSTORE SWAP1 MLOAD PUSH1 0x1 PUSH1 0x1 PUSH1 0xA0 SHL SUB SWAP1 SWAP3 AND SWAP2 PUSH4 0x40C10F19 SWAP2 PUSH1 0x44 DUP1 DUP3 ADD SWAP3 PUSH1 0x20 SWAP3 SWAP1 SWAP2 SWAP1 DUP3 SWAP1 SUB ADD DUP2 PUSH1 0x0 DUP8 DUP1 EXTCODESIZE ISZERO DUP1 ISZERO PUSH2 0x6E6 JUMPI PUSH1 0x0 DUP1 REVERT JUMPDEST POP GAS CALL ISZERO DUP1 ISZERO PUSH2 0x6FA JUMPI RETURNDATASIZE PUSH1 0x0 DUP1 RETURNDATACOPY RETURNDATASIZE PUSH1 0x0 REVERT JUMPDEST POP POP POP POP PUSH1 0x40 MLOAD RETURNDATASIZE PUSH1 0x20 DUP2 LT ISZERO PUSH2 0x710 JUMPI PUSH1 0x0 DUP1 REVERT JUMPDEST POP POP PUSH1 0x40 MLOAD PUSH9 0x3635C9ADC5DEA00000 SWAP1 DUP5 SWAP1 CALLER SWAP1 PUSH32 0xFA5C135DE8C72E98296CDF12890CA8B3682F079FBB46849F6F549372F6348029 SWAP1 PUSH1 0x0 SWAP1 LOG4 JUMPDEST POP POP PUSH1 0x0 DUP2 DUP2 MSTORE PUSH1 0xB PUSH1 0x20 MSTORE PUSH1 0x40 SWAP1 KECCAK256 DUP1 SLOAD PUSH1 0xFF NOT AND PUSH1 0x1 SWAP1 DUP2 OR SWAP1 SWAP2 SSTORE PUSH2 0x236 JUMP JUMPDEST PUSH1 0x0 SWAP2 POP POP PUSH2 0x236 JUMP JUMPDEST PUSH1 0x0 JUMPDEST PUSH1 0x8 SLOAD DUP2 LT ISZERO PUSH2 0x7EE JUMPI DUP2 PUSH1 0x8 DUP3 DUP2 SLOAD DUP2 LT PUSH2 0x793 JUMPI INVALID JUMPDEST SWAP1 PUSH1 0x0 MSTORE PUSH1 0x20 PUSH1 0x0 KECCAK256 ADD SLOAD EQ ISZERO PUSH2 0x7E6 JUMPI PUSH1 0x40 DUP1 MLOAD PUSH3 0x461BCD PUSH1 0xE5 SHL DUP2 MSTORE PUSH1 0x20 PUSH1 0x4 DUP3 ADD MSTORE PUSH1 0x12 PUSH1 0x24 DUP3 ADD MSTORE PUSH18 0x466C616720616C7265616479207573656421 PUSH1 0x70 SHL PUSH1 0x44 DUP3 ADD MSTORE SWAP1 MLOAD SWAP1 DUP2 SWAP1 SUB PUSH1 0x64 ADD SWAP1 REVERT JUMPDEST PUSH1 0x1 ADD PUSH2 0x77B JUMP JUMPDEST POP CALLER PUSH1 0x1 PUSH1 0x1 PUSH1 0xA0 SHL SUB DUP4 AND EQ ISZERO PUSH2 0x84D JUMPI PUSH1 0x40 DUP1 MLOAD PUSH3 0x461BCD PUSH1 0xE5 SHL DUP2 MSTORE PUSH1 0x20 PUSH1 0x4 DUP3 ADD DUP2 SWAP1 MSTORE PUSH1 0x24 DUP3 ADD MSTORE PUSH32 0x54686520616464726573736573206D75737420626520646966666572656E742E PUSH1 0x44 DUP3 ADD MSTORE SWAP1 MLOAD SWAP1 DUP2 SWAP1 SUB PUSH1 0x64 ADD SWAP1 REVERT JUMPDEST PUSH1 0x8 DUP1 SLOAD PUSH1 0x1 DUP2 ADD SWAP1 SWAP2 SSTORE PUSH32 0xF3F7A9FE364FAAB93B216DA50A3214154F22A0A2B415B23A84C8169E8B636EE3 ADD DUP2 SWAP1 SSTORE PUSH1 0x0 DUP2 DUP2 MSTORE PUSH1 0xC PUSH1 0x20 SWAP1 DUP2 MSTORE PUSH1 0x40 DUP1 DUP4 KECCAK256 TIMESTAMP SWAP1 SSTORE PUSH1 0x9 DUP1 SLOAD PUSH1 0x1 PUSH1 0x1 PUSH1 0xA0 SHL SUB NOT SWAP1 DUP2 AND CALLER OR DUP3 SSTORE PUSH1 0xA DUP1 SLOAD PUSH1 0x1 PUSH1 0x1 PUSH1 0xA0 SHL SUB DUP10 DUP2 AND SWAP2 SWAP1 SWAP4 AND OR DUP2 SSTORE PUSH1 0xB DUP6 MSTORE SWAP5 DUP4 SWAP1 KECCAK256 DUP1 SLOAD PUSH1 0xFF NOT AND SWAP1 SSTORE SWAP4 SLOAD SWAP1 SLOAD DUP3 MLOAD DUP7 DUP2 MSTORE SWAP3 MLOAD SWAP2 DUP6 AND SWAP5 AND SWAP3 PUSH32 0xED4685CEF203F43449F0207532EB272E1F2DE4F8A6992033ED24099F086C2106 SWAP3 DUP3 SWAP1 SUB ADD SWAP1 LOG3 PUSH1 0x3 SLOAD PUSH1 0x40 DUP1 MLOAD PUSH4 0x79CC679 PUSH1 0xE4 SHL DUP2 MSTORE CALLER PUSH1 0x4 DUP3 ADD MSTORE PUSH9 0x2B5E3AF16B1880000 PUSH1 0x24 DUP3 ADD MSTORE SWAP1 MLOAD PUSH1 0x1 PUSH1 0x1 PUSH1 0xA0 SHL SUB SWAP1 SWAP3 AND SWAP2 PUSH4 0x79CC6790 SWAP2 PUSH1 0x44 DUP1 DUP3 ADD SWAP3 PUSH1 0x0 SWAP3 SWAP1 SWAP2 SWAP1 DUP3 SWAP1 SUB ADD DUP2 DUP4 DUP8 DUP1 EXTCODESIZE ISZERO DUP1 ISZERO PUSH2 0x95F JUMPI PUSH1 0x0 DUP1 REVERT JUMPDEST POP GAS CALL ISZERO DUP1 ISZERO PUSH2 0x973 JUMPI RETURNDATASIZE PUSH1 0x0 DUP1 RETURNDATACOPY RETURNDATASIZE PUSH1 0x0 REVERT JUMPDEST POP POP POP POP POP POP JUMP JUMPDEST PUSH2 0x98B PUSH2 0x986 PUSH2 0x131B JUMP JUMPDEST PUSH2 0x221 JUMP JUMPDEST PUSH2 0x9C6 JUMPI PUSH1 0x40 MLOAD PUSH3 0x461BCD PUSH1 0xE5 SHL DUP2 MSTORE PUSH1 0x4 ADD DUP1 DUP1 PUSH1 0x20 ADD DUP3 DUP2 SUB DUP3 MSTORE PUSH1 0x2E DUP2 MSTORE PUSH1 0x20 ADD DUP1 PUSH2 0x157A PUSH1 0x2E SWAP2 CODECOPY PUSH1 0x40 ADD SWAP2 POP POP PUSH1 0x40 MLOAD DUP1 SWAP2 SUB SWAP1 REVERT JUMPDEST PUSH2 0x9CF DUP2 PUSH2 0x131F JUMP JUMPDEST POP JUMP JUMPDEST PUSH2 0x9DD PUSH2 0x986 PUSH2 0x131B JUMP JUMPDEST PUSH2 0xA18 JUMPI PUSH1 0x40 MLOAD PUSH3 0x461BCD PUSH1 0xE5 SHL DUP2 MSTORE PUSH1 0x4 ADD DUP1 DUP1 PUSH1 0x20 ADD DUP3 DUP2 SUB DUP3 MSTORE PUSH1 0x2E DUP2 MSTORE PUSH1 0x20 ADD DUP1 PUSH2 0x157A PUSH1 0x2E SWAP2 CODECOPY PUSH1 0x40 ADD SWAP2 POP POP PUSH1 0x40 MLOAD DUP1 SWAP2 SUB SWAP1 REVERT JUMPDEST TIMESTAMP PUSH1 0x6 SSTORE PUSH1 0x2 SLOAD PUSH1 0x40 DUP1 MLOAD PUSH4 0xA9671193 PUSH1 0xE0 SHL DUP2 MSTORE PUSH1 0x4 DUP2 ADD DUP5 SWAP1 MSTORE SWAP1 MLOAD PUSH1 0x1 PUSH1 0x1 PUSH1 0xA0 SHL SUB SWAP1 SWAP3 AND SWAP2 PUSH4 0xA9671193 SWAP2 PUSH1 0x24 DUP1 DUP3 ADD SWAP3 PUSH1 0x20 SWAP3 SWAP1 SWAP2 SWAP1 DUP3 SWAP1 SUB ADD DUP2 PUSH1 0x0 DUP8 DUP1 EXTCODESIZE ISZERO DUP1 ISZERO PUSH2 0xA6A JUMPI PUSH1 0x0 DUP1 REVERT JUMPDEST POP GAS CALL ISZERO DUP1 ISZERO PUSH2 0xA7E JUMPI RETURNDATASIZE PUSH1 0x0 DUP1 RETURNDATACOPY RETURNDATASIZE PUSH1 0x0 REVERT JUMPDEST POP POP POP POP PUSH1 0x40 MLOAD RETURNDATASIZE PUSH1 0x20 DUP2 LT ISZERO PUSH2 0xA94 JUMPI PUSH1 0x0 DUP1 REVERT JUMPDEST POP MLOAD PUSH1 0x5 SSTORE PUSH1 0x7 DUP1 SLOAD PUSH1 0xFF NOT AND SWAP1 SSTORE PUSH1 0x3 SLOAD PUSH1 0x40 DUP1 MLOAD PUSH4 0x79CC679 PUSH1 0xE4 SHL DUP2 MSTORE CALLER PUSH1 0x4 DUP3 ADD MSTORE PUSH9 0xAD78EBC5AC6200000 PUSH1 0x24 DUP3 ADD MSTORE SWAP1 MLOAD PUSH1 0x1 PUSH1 0x1 PUSH1 0xA0 SHL SUB SWAP1 SWAP3 AND SWAP2 PUSH4 0x79CC6790 SWAP2 PUSH1 0x44 DUP1 DUP3 ADD SWAP3 PUSH1 0x0 SWAP3 SWAP1 SWAP2 SWAP1 DUP3 SWAP1 SUB ADD DUP2 DUP4 DUP8 DUP1 EXTCODESIZE ISZERO DUP1 ISZERO PUSH2 0xAFE JUMPI PUSH1 0x0 DUP1 REVERT JUMPDEST POP GAS CALL ISZERO DUP1 ISZERO PUSH2 0xB12 JUMPI RETURNDATASIZE PUSH1 0x0 DUP1 RETURNDATACOPY RETURNDATASIZE PUSH1 0x0 REVERT JUMPDEST POP POP POP POP POP JUMP JUMPDEST PUSH1 0x3 SLOAD PUSH1 0x40 DUP1 MLOAD PUSH4 0x79CC679 PUSH1 0xE4 SHL DUP2 MSTORE CALLER PUSH1 0x4 DUP3 ADD MSTORE PUSH9 0x2B5E3AF16B1880000 PUSH1 0x24 DUP3 ADD MSTORE SWAP1 MLOAD PUSH1 0x0 SWAP3 DUP4 SWAP3 PUSH1 0x1 PUSH1 0x1 PUSH1 0xA0 SHL SUB SWAP1 SWAP2 AND SWAP2 PUSH4 0x79CC6790 SWAP2 PUSH1 0x44 DUP1 DUP3 ADD SWAP3 DUP7 SWAP3 SWAP1 SWAP2 SWAP1 DUP3 SWAP1 SUB ADD DUP2 DUP4 DUP8 DUP1 EXTCODESIZE ISZERO DUP1 ISZERO PUSH2 0xB78 JUMPI PUSH1 0x0 DUP1 REVERT JUMPDEST POP GAS CALL ISZERO DUP1 ISZERO PUSH2 0xB8C JUMPI RETURNDATASIZE PUSH1 0x0 DUP1 RETURNDATACOPY RETURNDATASIZE PUSH1 0x0 REVERT JUMPDEST POP POP PUSH1 0x9 SLOAD PUSH1 0x1 PUSH1 0x1 PUSH1 0xA0 SHL SUB AND CALLER EQ SWAP2 POP DUP2 SWAP1 POP PUSH2 0xBB5 JUMPI POP PUSH1 0xA SLOAD PUSH1 0x1 PUSH1 0x1 PUSH1 0xA0 SHL SUB AND CALLER EQ JUMPDEST PUSH2 0xBF0 JUMPI PUSH1 0x40 MLOAD PUSH3 0x461BCD PUSH1 0xE5 SHL DUP2 MSTORE PUSH1 0x4 ADD DUP1 DUP1 PUSH1 0x20 ADD DUP3 DUP2 SUB DUP3 MSTORE PUSH1 0x34 DUP2 MSTORE PUSH1 0x20 ADD DUP1 PUSH2 0x1546 PUSH1 0x34 SWAP2 CODECOPY PUSH1 0x40 ADD SWAP2 POP POP PUSH1 0x40 MLOAD DUP1 SWAP2 SUB SWAP1 REVERT JUMPDEST PUSH1 0x0 DUP4 DUP2 MSTORE PUSH1 0xC PUSH1 0x20 MSTORE PUSH1 0x40 SWAP1 KECCAK256 SLOAD PUSH2 0x12C ADD TIMESTAMP LT PUSH2 0x76E JUMPI PUSH1 0x0 DUP4 DUP2 MSTORE PUSH1 0xB PUSH1 0x20 MSTORE PUSH1 0x40 SWAP1 KECCAK256 SLOAD PUSH1 0xFF AND ISZERO PUSH2 0xC57 JUMPI PUSH1 0x40 MLOAD PUSH3 0x461BCD PUSH1 0xE5 SHL DUP2 MSTORE PUSH1 0x4 ADD DUP1 DUP1 PUSH1 0x20 ADD DUP3 DUP2 SUB DUP3 MSTORE PUSH1 0x23 DUP2 MSTORE PUSH1 0x20 ADD DUP1 PUSH2 0x15A8 PUSH1 0x23 SWAP2 CODECOPY PUSH1 0x40 ADD SWAP2 POP POP PUSH1 0x40 MLOAD DUP1 SWAP2 SUB SWAP1 REVERT JUMPDEST PUSH1 0x0 JUMPDEST PUSH1 0x8 SLOAD DUP2 LT ISZERO PUSH2 0xC94 JUMPI DUP4 PUSH1 0x8 DUP3 DUP2 SLOAD DUP2 LT PUSH2 0xC72 JUMPI INVALID JUMPDEST SWAP1 PUSH1 0x0 MSTORE PUSH1 0x20 PUSH1 0x0 KECCAK256 ADD SLOAD EQ ISZERO PUSH2 0xC8C JUMPI PUSH1 0x1 SWAP2 POP PUSH2 0xC94 JUMP JUMPDEST PUSH1 0x1 ADD PUSH2 0xC5A JUMP JUMPDEST POP DUP1 PUSH2 0xCE2 JUMPI PUSH1 0x40 DUP1 MLOAD PUSH3 0x461BCD PUSH1 0xE5 SHL DUP2 MSTORE PUSH1 0x20 PUSH1 0x4 DUP3 ADD MSTORE PUSH1 0x18 PUSH1 0x24 DUP3 ADD MSTORE PUSH24 0x436F756C646E27742066696E642079756F7220666C616721 PUSH1 0x40 SHL PUSH1 0x44 DUP3 ADD MSTORE SWAP1 MLOAD SWAP1 DUP2 SWAP1 SUB PUSH1 0x64 ADD SWAP1 REVERT JUMPDEST PUSH1 0x3 SLOAD PUSH1 0x40 DUP1 MLOAD PUSH4 0x40C10F19 PUSH1 0xE0 SHL DUP2 MSTORE CALLER PUSH1 0x4 DUP3 ADD MSTORE PUSH9 0x3635C9ADC5DEA00000 PUSH1 0x24 DUP3 ADD MSTORE SWAP1 MLOAD PUSH1 0x1 PUSH1 0x1 PUSH1 0xA0 SHL SUB SWAP1 SWAP3 AND SWAP2 PUSH4 0x40C10F19 SWAP2 PUSH1 0x44 DUP1 DUP3 ADD SWAP3 PUSH1 0x20 SWAP3 SWAP1 SWAP2 SWAP1 DUP3 SWAP1 SUB ADD DUP2 PUSH1 0x0 DUP8 DUP1 EXTCODESIZE ISZERO DUP1 ISZERO PUSH2 0xD3E JUMPI PUSH1 0x0 DUP1 REVERT JUMPDEST POP GAS CALL ISZERO DUP1 ISZERO PUSH2 0xD52 JUMPI RETURNDATASIZE PUSH1 0x0 DUP1 RETURNDATACOPY RETURNDATASIZE PUSH1 0x0 REVERT JUMPDEST POP POP POP POP PUSH1 0x40 MLOAD RETURNDATASIZE PUSH1 0x20 DUP2 LT ISZERO PUSH2 0xD68 JUMPI PUSH1 0x0 DUP1 REVERT JUMPDEST POP POP PUSH1 0x40 MLOAD PUSH9 0x3635C9ADC5DEA00000 SWAP1 DUP5 SWAP1 CALLER SWAP1 PUSH32 0x6C48E695609C5CC5B9D779D70ABB26282055513FB1A55CBA442B3CBC6D43BCD SWAP1 PUSH1 0x0 SWAP1 LOG4 POP POP PUSH1 0x0 DUP2 DUP2 MSTORE PUSH1 0xB PUSH1 0x20 MSTORE PUSH1 0x40 SWAP1 KECCAK256 DUP1 SLOAD PUSH1 0xFF NOT AND PUSH1 0x1 SWAP1 DUP2 OR SWAP1 SWAP2 SSTORE PUSH2 0x236 JUMP JUMPDEST PUSH2 0xDD5 PUSH2 0xDD0 PUSH2 0x131B JUMP JUMPDEST PUSH2 0x1367 JUMP JUMPDEST JUMP JUMPDEST PUSH1 0x0 JUMPDEST PUSH1 0xD SLOAD DUP2 LT ISZERO PUSH2 0xE4D JUMPI DUP2 PUSH1 0xD DUP3 DUP2 SLOAD DUP2 LT PUSH2 0xDF2 JUMPI INVALID JUMPDEST SWAP1 PUSH1 0x0 MSTORE PUSH1 0x20 PUSH1 0x0 KECCAK256 ADD SLOAD EQ ISZERO PUSH2 0xE45 JUMPI PUSH1 0x40 DUP1 MLOAD PUSH3 0x461BCD PUSH1 0xE5 SHL DUP2 MSTORE PUSH1 0x20 PUSH1 0x4 DUP3 ADD MSTORE PUSH1 0x12 PUSH1 0x24 DUP3 ADD MSTORE PUSH18 0x466C616720616C7265616479207573656421 PUSH1 0x70 SHL PUSH1 0x44 DUP3 ADD MSTORE SWAP1 MLOAD SWAP1 DUP2 SWAP1 SUB PUSH1 0x64 ADD SWAP1 REVERT JUMPDEST PUSH1 0x1 ADD PUSH2 0xDDA JUMP JUMPDEST POP PUSH1 0xD DUP1 SLOAD PUSH1 0x1 DUP2 ADD SWAP1 SWAP2 SSTORE PUSH32 0xD7B6990105719101DABEB77144F2A3385C8033ACD3AF97E9423A695E81AD1EB5 ADD DUP2 SWAP1 SSTORE PUSH1 0x0 DUP2 DUP2 MSTORE PUSH1 0x10 PUSH1 0x20 SWAP1 DUP2 MSTORE PUSH1 0x40 DUP1 DUP4 KECCAK256 TIMESTAMP SWAP1 SSTORE PUSH1 0x11 SWAP1 SWAP2 MSTORE SWAP1 KECCAK256 DUP1 SLOAD PUSH1 0xFF NOT AND SWAP1 SSTORE PUSH1 0x4 SLOAD PUSH1 0x3 EQ PUSH2 0xEE2 JUMPI PUSH1 0x40 MLOAD PUSH3 0x461BCD PUSH1 0xE5 SHL DUP2 MSTORE PUSH1 0x4 ADD DUP1 DUP1 PUSH1 0x20 ADD DUP3 DUP2 SUB DUP3 MSTORE PUSH1 0x30 DUP2 MSTORE PUSH1 0x20 ADD DUP1 PUSH2 0x14D3 PUSH1 0x30 SWAP2 CODECOPY PUSH1 0x40 ADD SWAP2 POP POP PUSH1 0x40 MLOAD DUP1 SWAP2 SUB SWAP1 REVERT JUMPDEST PUSH1 0x0 JUMPDEST PUSH1 0x4 SLOAD DUP2 LT ISZERO PUSH2 0xF82 JUMPI PUSH1 0x4 DUP2 DUP2 SLOAD DUP2 LT PUSH2 0xEFC JUMPI INVALID JUMPDEST PUSH1 0x0 SWAP2 DUP3 MSTORE PUSH1 0x20 SWAP1 SWAP2 KECCAK256 ADD SLOAD PUSH1 0x1 PUSH1 0x1 PUSH1 0xA0 SHL SUB AND CALLER EQ ISZERO PUSH2 0xF2F JUMPI PUSH1 0xE DUP1 SLOAD PUSH1 0x1 PUSH1 0x1 PUSH1 0xA0 SHL SUB NOT AND CALLER OR SWAP1 SSTORE PUSH2 0xF7A JUMP JUMPDEST PUSH1 0xF PUSH1 0x4 DUP3 DUP2 SLOAD DUP2 LT PUSH2 0xF3E JUMPI INVALID JUMPDEST PUSH1 0x0 SWAP2 DUP3 MSTORE PUSH1 0x20 DUP1 DUP4 KECCAK256 SWAP1 SWAP2 ADD SLOAD DUP4 SLOAD PUSH1 0x1 DUP2 ADD DUP6 SSTORE SWAP4 DUP4 MSTORE SWAP2 KECCAK256 SWAP1 SWAP2 ADD DUP1 SLOAD PUSH1 0x1 PUSH1 0x1 PUSH1 0xA0 SHL SUB NOT AND PUSH1 0x1 PUSH1 0x1 PUSH1 0xA0 SHL SUB SWAP1 SWAP3 AND SWAP2 SWAP1 SWAP2 OR SWAP1 SSTORE JUMPDEST PUSH1 0x1 ADD PUSH2 0xEE5 JUMP JUMPDEST POP PUSH1 0x40 DUP1 MLOAD DUP3 DUP2 MSTORE SWAP1 MLOAD CALLER SWAP2 PUSH32 0x3D1151F535AB57B7EEFBBF3BAAFF50EFAAC64F3F0DF368617499905F78CB2373 SWAP2 SWAP1 DUP2 SWAP1 SUB PUSH1 0x20 ADD SWAP1 LOG2 PUSH1 0x3 SLOAD PUSH1 0x40 DUP1 MLOAD PUSH4 0x79CC679 PUSH1 0xE4 SHL DUP2 MSTORE CALLER PUSH1 0x4 DUP3 ADD MSTORE PUSH9 0x56BC75E2D63100000 PUSH1 0x24 DUP3 ADD MSTORE SWAP1 MLOAD PUSH1 0x1 PUSH1 0x1 PUSH1 0xA0 SHL SUB SWAP1 SWAP3 AND SWAP2 PUSH4 0x79CC6790 SWAP2 PUSH1 0x44 DUP1 DUP3 ADD SWAP3 PUSH1 0x0 SWAP3 SWAP1 SWAP2 SWAP1 DUP3 SWAP1 SUB ADD DUP2 DUP4 DUP8 DUP1 EXTCODESIZE ISZERO DUP1 ISZERO PUSH2 0xAFE JUMPI PUSH1 0x0 DUP1 REVERT JUMPDEST PUSH1 0x0 DUP1 JUMPDEST PUSH1 0x4 SLOAD DUP2 LT ISZERO PUSH2 0x1066 JUMPI DUP3 PUSH1 0x1 PUSH1 0x1 PUSH1 0xA0 SHL SUB AND PUSH1 0x4 DUP3 DUP2 SLOAD DUP2 LT PUSH2 0x1039 JUMPI INVALID JUMPDEST PUSH1 0x0 SWAP2 DUP3 MSTORE PUSH1 0x20 SWAP1 SWAP2 KECCAK256 ADD SLOAD PUSH1 0x1 PUSH1 0x1 PUSH1 0xA0 SHL SUB AND EQ ISZERO PUSH2 0x105E JUMPI PUSH1 0x1 SWAP2 POP POP PUSH2 0x236 JUMP JUMPDEST PUSH1 0x1 ADD PUSH2 0x1018 JUMP JUMPDEST POP PUSH1 0x0 SWAP3 SWAP2 POP POP JUMP JUMPDEST PUSH1 0x5 SLOAD DUP2 EQ PUSH2 0x10B7 JUMPI PUSH1 0x40 DUP1 MLOAD PUSH3 0x461BCD PUSH1 0xE5 SHL DUP2 MSTORE PUSH1 0x20 PUSH1 0x4 DUP3 ADD MSTORE PUSH1 0xF PUSH1 0x24 DUP3 ADD MSTORE PUSH15 0x2BB937B7339034B210383934B1B297 PUSH1 0x89 SHL PUSH1 0x44 DUP3 ADD MSTORE SWAP1 MLOAD SWAP1 DUP2 SWAP1 SUB PUSH1 0x64 ADD SWAP1 REVERT JUMPDEST PUSH1 0x6 SLOAD TIMESTAMP GT DUP1 ISZERO PUSH2 0x10CC JUMPI POP PUSH1 0x6 SLOAD PUSH1 0x3C ADD TIMESTAMP LT JUMPDEST ISZERO PUSH2 0x11E3 JUMPI PUSH1 0x7 SLOAD PUSH1 0xFF AND ISZERO PUSH2 0x1113 JUMPI PUSH1 0x40 MLOAD PUSH3 0x461BCD PUSH1 0xE5 SHL DUP2 MSTORE PUSH1 0x4 ADD DUP1 DUP1 PUSH1 0x20 ADD DUP3 DUP2 SUB DUP3 MSTORE PUSH1 0x23 DUP2 MSTORE PUSH1 0x20 ADD DUP1 PUSH2 0x15A8 PUSH1 0x23 SWAP2 CODECOPY PUSH1 0x40 ADD SWAP2 POP POP PUSH1 0x40 MLOAD DUP1 SWAP2 SUB SWAP1 REVERT JUMPDEST PUSH1 0x3 SLOAD PUSH1 0x40 DUP1 MLOAD PUSH4 0x40C10F19 PUSH1 0xE0 SHL DUP2 MSTORE CALLER PUSH1 0x4 DUP3 ADD MSTORE PUSH9 0x410D586A20A4C00000 PUSH1 0x24 DUP3 ADD MSTORE SWAP1 MLOAD PUSH1 0x1 PUSH1 0x1 PUSH1 0xA0 SHL SUB SWAP1 SWAP3 AND SWAP2 PUSH4 0x40C10F19 SWAP2 PUSH1 0x44 DUP1 DUP3 ADD SWAP3 PUSH1 0x20 SWAP3 SWAP1 SWAP2 SWAP1 DUP3 SWAP1 SUB ADD DUP2 PUSH1 0x0 DUP8 DUP1 EXTCODESIZE ISZERO DUP1 ISZERO PUSH2 0x116F JUMPI PUSH1 0x0 DUP1 REVERT JUMPDEST POP GAS CALL ISZERO DUP1 ISZERO PUSH2 0x1183 JUMPI RETURNDATASIZE PUSH1 0x0 DUP1 RETURNDATACOPY RETURNDATASIZE PUSH1 0x0 REVERT JUMPDEST POP POP POP POP PUSH1 0x40 MLOAD RETURNDATASIZE PUSH1 0x20 DUP2 LT ISZERO PUSH2 0x1199 JUMPI PUSH1 0x0 DUP1 REVERT JUMPDEST POP POP PUSH1 0x7 DUP1 SLOAD PUSH1 0xFF NOT AND PUSH1 0x1 OR SWAP1 SSTORE PUSH1 0x40 MLOAD PUSH9 0x410D586A20A4C00000 SWAP1 CALLER SWAP1 PUSH32 0x75E44BCCB8E953F3228B7BDE1DC2A77AC72025AA92A8A329378D26B4F4E1A860 SWAP1 PUSH1 0x0 SWAP1 LOG3 PUSH2 0x9CF JUMP JUMPDEST PUSH1 0x3 SLOAD PUSH1 0x1 SLOAD PUSH1 0x40 DUP1 MLOAD PUSH4 0x40C10F19 PUSH1 0xE0 SHL DUP2 MSTORE PUSH1 0x1 PUSH1 0x1 PUSH1 0xA0 SHL SUB SWAP3 DUP4 AND PUSH1 0x4 DUP3 ADD MSTORE PUSH9 0x6C6B935B8BBD400000 PUSH1 0x24 DUP3 ADD MSTORE SWAP1 MLOAD SWAP2 SWAP1 SWAP3 AND SWAP2 PUSH4 0x40C10F19 SWAP2 PUSH1 0x44 DUP1 DUP4 ADD SWAP3 PUSH1 0x20 SWAP3 SWAP2 SWAP1 DUP3 SWAP1 SUB ADD DUP2 PUSH1 0x0 DUP8 DUP1 EXTCODESIZE ISZERO DUP1 ISZERO PUSH2 0x1244 JUMPI PUSH1 0x0 DUP1 REVERT JUMPDEST POP GAS CALL ISZERO DUP1 ISZERO PUSH2 0x1258 JUMPI RETURNDATASIZE PUSH1 0x0 DUP1 RETURNDATACOPY RETURNDATASIZE PUSH1 0x0 REVERT JUMPDEST POP POP POP POP PUSH1 0x40 MLOAD RETURNDATASIZE PUSH1 0x20 DUP2 LT ISZERO PUSH2 0x126E JUMPI PUSH1 0x0 DUP1 REVERT JUMPDEST POP POP PUSH1 0x1 SLOAD PUSH1 0x40 MLOAD PUSH9 0x6C6B935B8BBD400000 SWAP2 PUSH1 0x1 PUSH1 0x1 PUSH1 0xA0 SHL SUB AND SWAP1 PUSH32 0x75E44BCCB8E953F3228B7BDE1DC2A77AC72025AA92A8A329378D26B4F4E1A860 SWAP1 PUSH1 0x0 SWAP1 LOG3 POP JUMP JUMPDEST PUSH1 0x0 PUSH1 0x1 PUSH1 0x1 PUSH1 0xA0 SHL SUB DUP3 AND PUSH2 0x12FB JUMPI PUSH1 0x40 MLOAD PUSH3 0x461BCD PUSH1 0xE5 SHL DUP2 MSTORE PUSH1 0x4 ADD DUP1 DUP1 PUSH1 0x20 ADD DUP3 DUP2 SUB DUP3 MSTORE PUSH1 0x22 DUP2 MSTORE PUSH1 0x20 ADD DUP1 PUSH2 0x1524 PUSH1 0x22 SWAP2 CODECOPY PUSH1 0x40 ADD SWAP2 POP POP PUSH1 0x40 MLOAD DUP1 SWAP2 SUB SWAP1 REVERT JUMPDEST POP PUSH1 0x1 PUSH1 0x1 PUSH1 0xA0 SHL SUB AND PUSH1 0x0 SWAP1 DUP2 MSTORE PUSH1 0x20 SWAP2 SWAP1 SWAP2 MSTORE PUSH1 0x40 SWAP1 KECCAK256 SLOAD PUSH1 0xFF AND SWAP1 JUMP JUMPDEST CALLER SWAP1 JUMP JUMPDEST PUSH2 0x1330 PUSH1 0x0 DUP3 PUSH4 0xFFFFFFFF PUSH2 0x13AF AND JUMP JUMPDEST PUSH1 0x40 MLOAD PUSH1 0x1 PUSH1 0x1 PUSH1 0xA0 SHL SUB DUP3 AND SWAP1 PUSH32 0x44D6D25963F097AD14F29F06854A01F575648A1EF82F30E562CCD3889717E339 SWAP1 PUSH1 0x0 SWAP1 LOG2 POP JUMP JUMPDEST PUSH2 0x1378 PUSH1 0x0 DUP3 PUSH4 0xFFFFFFFF PUSH2 0x1430 AND JUMP JUMPDEST PUSH1 0x40 MLOAD PUSH1 0x1 PUSH1 0x1 PUSH1 0xA0 SHL SUB DUP3 AND SWAP1 PUSH32 0xA3B62BC36326052D97EA62D63C3D60308ED4C3EA8AC079DD8499F1E9C4F80C0F SWAP1 PUSH1 0x0 SWAP1 LOG2 POP JUMP JUMPDEST PUSH2 0x13B9 DUP3 DUP3 PUSH2 0x12B4 JUMP JUMPDEST ISZERO PUSH2 0x140B JUMPI PUSH1 0x40 DUP1 MLOAD PUSH3 0x461BCD PUSH1 0xE5 SHL DUP2 MSTORE PUSH1 0x20 PUSH1 0x4 DUP3 ADD MSTORE PUSH1 0x1F PUSH1 0x24 DUP3 ADD MSTORE PUSH32 0x526F6C65733A206163636F756E7420616C72656164792068617320726F6C6500 PUSH1 0x44 DUP3 ADD MSTORE SWAP1 MLOAD SWAP1 DUP2 SWAP1 SUB PUSH1 0x64 ADD SWAP1 REVERT JUMPDEST PUSH1 0x1 PUSH1 0x1 PUSH1 0xA0 SHL SUB AND PUSH1 0x0 SWAP1 DUP2 MSTORE PUSH1 0x20 SWAP2 SWAP1 SWAP2 MSTORE PUSH1 0x40 SWAP1 KECCAK256 DUP1 SLOAD PUSH1 0xFF NOT AND PUSH1 0x1 OR SWAP1 SSTORE JUMP JUMPDEST PUSH2 0x143A DUP3 DUP3 PUSH2 0x12B4 JUMP JUMPDEST PUSH2 0x1475 JUMPI PUSH1 0x40 MLOAD PUSH3 0x461BCD PUSH1 0xE5 SHL DUP2 MSTORE PUSH1 0x4 ADD DUP1 DUP1 PUSH1 0x20 ADD DUP3 DUP2 SUB DUP3 MSTORE PUSH1 0x21 DUP2 MSTORE PUSH1 0x20 ADD DUP1 PUSH2 0x1503 PUSH1 0x21 SWAP2 CODECOPY PUSH1 0x40 ADD SWAP2 POP POP PUSH1 0x40 MLOAD DUP1 SWAP2 SUB SWAP1 REVERT JUMPDEST PUSH1 0x1 PUSH1 0x1 PUSH1 0xA0 SHL SUB AND PUSH1 0x0 SWAP1 DUP2 MSTORE PUSH1 0x20 SWAP2 SWAP1 SWAP2 MSTORE PUSH1 0x40 SWAP1 KECCAK256 DUP1 SLOAD PUSH1 0xFF NOT AND SWAP1 SSTORE JUMP INVALID MSIZE PUSH16 0x75206D75737420626520656974686572 KECCAK256 PUSH21 0x6865206368616C6C656E676572206F72206F6E6520 PUSH7 0x6F207468652063 PUSH9 0x616C6C656E6765642E NUMBER PUSH9 0x616C6C656E67652063 PUSH2 0x6E27 PUSH21 0x20737461727420756E74696C20616C6C207465616D PUSH20 0x207265676974657265642E526F6C65733A206163 PUSH4 0x6F756E74 KECCAK256 PUSH5 0x6F6573206E PUSH16 0x74206861766520726F6C65526F6C6573 GASPRICE KECCAK256 PUSH2 0x6363 PUSH16 0x756E7420697320746865207A65726F20 PUSH2 0x6464 PUSH19 0x657373596F75206D7573742062652065697468 PUSH6 0x722074686520 PUSH4 0x68616C6C PUSH6 0x6E676572206F PUSH19 0x20746865206368616C6C656E6765642E41646D PUSH10 0x6E526F6C653A2063616C PUSH13 0x657220646F6573206E6F742068 PUSH2 0x7665 KECCAK256 PUSH21 0x68652041646D696E20726F6C65546865206368616C PUSH13 0x656E67652068617320616C7265 PUSH2 0x6479 KECCAK256 PUSH3 0x65656E KECCAK256 PUSH24 0x6F6E2EA265627A7A7231582037B6FF01D17852E736C9AA21 MUL 0xC1 DUP4 0xF9 SAR CALLVALUE 0x5F 0xB4 0xAD PUSH4 0xD11EA347 0xB2 SLT 0xB9 SWAP16 PUSH30 0x1D64736F6C63430005110032000000000000000000000000000000000000 ",
  "sha1": "2dc94d876ab5171ddad99025b005e1ad5468fb1e",
  "source": "pragma solidity ^0.5.0;\n\nimport \"./token_exchange.sol\" ; \n\ncontract token_challenge is AdminRole {\n\n    //address _exchangeAddress; \n    address _fss = 0x85A8d7241Ffffee7290501473A9B11BFdA2Ae9Ff ;\n\n    //EXCHANGE & PAYCOIN\n    token_exchange fss_exchange; \n    IT_PayCoin payCoin; \n\n    //SIGNING UP & CHECKING VARIABLES\n    address[] _teamAddresses; \n\n    event Registered(address indexed teamAddress); \n\n    //PRICE OVERNIGHT VARIABLES\n    uint256 _last_id_price; \n    uint256 _startOvernightChallenge;\n    bool _overnightWon; \n    \n    event Overnight(address indexed winner, uint256 indexed coin_won); \n\n    //DIRECT CHALLENGE VARIABLES\n    uint256[] _directFlag; \n    //uint256 _startDirectChallenge; \n    address _directChallenger; \n    address _directChallenged; \n    //bool _directChallengeWon;\n    mapping (uint256 => bool) _directChallengeWon;\n    mapping (uint256 => uint256) _startDirectChallenge; \n\n    event DirectChallenge(address indexed directChallenger, address indexed directChallenged, uint256 directFlag); \n    event DirectChallengeWon(address indexed directWinner, uint256 indexed directFlag, uint256 indexed coin_amount); \n\n    //TEAM CHALLENGE VARIABLES\n    uint256[] _teamFlag; \n    address _teamChallenger; \n    address[] _teamChallenged;\n    \n    mapping (uint256 => uint256) _startTeamChallenge; \n    mapping (uint256 => bool) _teamChallengeWon; \n    \n    event TeamChallenge(address indexed teamChallenger, uint256 teamFlag);\n    event TeamChallengeWon(address indexed teamWinner, uint256 indexed teamFlag, uint256 indexed coin_amount);  \n\n    //CONSTRUCTOR\n    constructor (address exchangeAddress) public {\n        fss_exchange = token_exchange(exchangeAddress);\n        payCoin = IT_PayCoin(fss_exchange.payCoin());\n    }\n\n    //SIGNING UP & CHECKING FUNCTIONS\n    function register(address teamAddress) external {\n        //token_exchange fss_exchange = token_exchange(_exchangeAddress);\n        bool _alreadyRegistered = false; \n\n        //TODO: Remember to uncomment!\n        //require(!(fss_exchange.isOpen()), \"The market is still open, come back later\");\n\n        for(uint256 i = 0; i < _teamAddresses.length; i++){\n            if(_teamAddresses[i] == teamAddress){\n                _alreadyRegistered = true; \n            }\n        }\n        require(_alreadyRegistered == false, \"You're already registered.\"); \n\n        _teamAddresses.push(teamAddress); \n\n        require(_teamAddresses.length <= 3, \"Too many teams.\"); \n        \n        emit Registered(teamAddress); \n    }\n\n    function isRegistered(address teamAddress) external view returns(bool){\n        for(uint256 i = 0; i < _teamAddresses.length; i++){\n            if(_teamAddresses[i] == teamAddress){\n                return true; \n            }\n        }\n    return false; \n    }\n\n    //PRICE OVERNIGHT\n\n    function overnightStart(int256 new_delta_price) onlyAdmin external {\n        //token_exchange fss_exchange = token_exchange(_exchangeAddress); \n        //IT_PayCoin payCoin = IT_PayCoin(fss_exchange.payCoin());\n\n        //TODO: Remember to uncomment!\n        //require(!(fss_exchange.isOpen()), \"The market is still open, come back later\");\n        \n        _startOvernightChallenge = now; \n        _last_id_price = fss_exchange.setNewPrice(new_delta_price);\n        _overnightWon = false;  \n        payCoin.burnFrom(msg.sender, 200e18); \n\n    }\n\n    function overnightCheck(uint256 id_price) external {\n        //token_exchange fss_exchange = token_exchange(_exchangeAddress); \n        //IT_PayCoin payCoin = IT_PayCoin(fss_exchange.payCoin());\n\n        require(id_price == _last_id_price, \"Wrong id price.\"); \n        if( now > _startOvernightChallenge && now < _startOvernightChallenge + 1 minutes){\n            require(_overnightWon == false, \"The challenge has already been won.\"); \n\n            payCoin.mint(msg.sender, 1200e18); \n            _overnightWon = true;\n            emit Overnight(msg.sender, 1200e18); \n\n        }\n\n        else{\n            payCoin.mint(_fss, 2000e18); \n            emit Overnight(_fss, 2000e18); \n        }\n        \n    }\n\n    //DIRECT CHALLENGE\n    \n    function challengeStart(address directChallenged, uint256 flag) external {\n        //token_exchange fss_exchange = token_exchange(_exchangeAddress); \n        //IT_PayCoin payCoin = IT_PayCoin(fss_exchange.payCoin());\n\n        for(uint256 i = 0; i < _directFlag.length; i++){\n            require(_directFlag[i] != flag , \"Flag already used!\");\n        }\n        require(msg.sender != directChallenged, \"The addresses must be different.\"); \n        //TODO require address must be of the teams. \n\n        _directFlag.push(flag); \n        _startDirectChallenge[flag] = now;\n        _directChallenger = msg.sender; \n        _directChallenged = directChallenged; \n        _directChallengeWon[flag] = false; \n\n        emit DirectChallenge(_directChallenger, _directChallenged, flag);\n        payCoin.burnFrom(msg.sender, 50e18);          \n    \n    }\n\n    function winDirectChallenge(uint256 flag) external returns(bool) {\n        //token_exchange fss_exchange = token_exchange(_exchangeAddress); \n        //IT_PayCoin payCoin = IT_PayCoin(fss_exchange.payCoin());\n        bool _flagFound = false; \n\n        payCoin.burnFrom(msg.sender, 50e18);\n        \n        require(msg.sender == _directChallenger || msg.sender == _directChallenged, \"You must be either the challenger or the challenged.\"); \n        if(now >= _startDirectChallenge[flag] + 5 minutes){\n            require(_directChallengeWon[flag] == false, \"The challenge has already been won.\"); \n            for(uint256 i = 0; i < _directFlag.length; i++){\n                //require( _flag[i] == flag , \"Couldn't find yuor flag!\");\n                if (_directFlag[i] == flag ){\n                    _flagFound = true; \n                    break; \n                }\n            }\n            require(_flagFound, \"Couldn't find yuor flag!\"); \n            \n            payCoin.mint(msg.sender, 1000e18);\n            emit DirectChallengeWon(msg.sender, flag, 1000e18); \n            _directChallengeWon[flag] = true;  \n\n            return true; \n        } \n        else{\n            return false; \n        }\n\n    }\n    \n    //TEAM CHALLENGE\n    \n    function challengeStart(uint256 flag) external {\n        //token_exchange fss_exchange = token_exchange(_exchangeAddress); \n        //IT_PayCoin payCoin = IT_PayCoin(fss_exchange.payCoin());\n\n        for(uint256 i = 0; i < _teamFlag.length; i++){\n            require(_teamFlag[i] != flag , \"Flag already used!\");\n        } \n        //TODO require address must be of the teams.\n\n        _teamFlag.push(flag); \n        _startTeamChallenge[flag] = now;\n        _teamChallengeWon[flag] = false; \n\n        require(_teamAddresses.length == 3, \"Challenge can't start until all teams regitered.\"); \n        for(uint256 i = 0; i < _teamAddresses.length; i++){\n            if(msg.sender == _teamAddresses[i]){\n                _teamChallenger = msg.sender; \n            }\n            else{\n                _teamChallenged.push(_teamAddresses[i]); \n            }\n        }\n\n        emit TeamChallenge(msg.sender, flag); \n\n        payCoin.burnFrom(msg.sender, 100e18); \n\n    }\n\n    function winTeamChallenge(uint256 flag) external returns(bool) {\n        //token_exchange fss_exchange = token_exchange(_exchangeAddress); \n        //IT_PayCoin payCoin = IT_PayCoin(fss_exchange.payCoin());    \n        bool _flagFound = false; \n\n        payCoin.burnFrom(msg.sender, 100e18);\n\n        require(msg.sender == _teamChallenger || msg.sender == _teamChallenged[0] || msg.sender == _teamChallenged[1], \"You must be either the challenger or one fo the challenged.\"); \n        if(now >= _startTeamChallenge[flag] + 5 minutes){\n            require(_teamChallengeWon[flag] == false, \"The challenge has already been won.\"); \n            for(uint256 i = 0; i < _teamFlag.length; i++){\n                //require( _flag[i] == flag , \"Couldn't find yuor flag!\");\n                if (_teamFlag[i] == flag ){\n                    _flagFound = true; \n                    break; \n                }\n            }\n            require(_flagFound, \"Couldn't find yuor flag!\"); \n            \n            if(msg.sender == _teamChallenger){\n                payCoin.mint(msg.sender, 1500e18);\n                emit TeamChallengeWon(msg.sender, flag, 1500e18);\n            }\n            else{\n                payCoin.mint(msg.sender, 1000e18);\n                emit TeamChallengeWon(msg.sender, flag, 1000e18);\n            }\n             \n            _directChallengeWon[flag] = true;  \n\n            return true; \n        } \n        else{\n            return false; \n        }\n    }\n\n    //EXCHANGE & PAYCOIN ADDRESS\n    /*\n    function setExchange(address exchangeAddress) onlyAdmin external {\n        fss_exchange = token_exchange(exchangeAddress); \n    }\n    \n    function setPayCoin(address payCoinAddress) onlyAdmin external {\n        payCoin = IT_PayCoin(payCoinAddress); \n    }\n    */\n\n}",
  "sourcePath": "contracts/token_challenge.sol",
  "type": "contract"
}