{
  "abi": [
    {
      "inputs": [
        {
          "internalType": "address",
          "name": "exchangeAddress",
          "type": "address"
        }
      ],
      "payable": false,
      "stateMutability": "nonpayable",
      "type": "constructor"
    },
    {
      "constant": false,
      "inputs": [
        {
          "internalType": "int256",
          "name": "new_delta_price",
          "type": "int256"
        }
      ],
      "name": "overnightStart",
      "outputs": [],
      "payable": false,
      "stateMutability": "nonpayable",
      "type": "function"
    }
  ],
  "bytecode": "608060405234801561001057600080fd5b5060405161023d38038061023d8339818101604052602081101561003357600080fd5b5051600080546001600160a01b039092166001600160a01b03199092169190911790556101d8806100656000396000f3fe608060405234801561001057600080fd5b506004361061002b5760003560e01c806376a9e7b314610030575b600080fd5b61004d6004803603602081101561004657600080fd5b503561004f565b005b60008054604080516347535d7b60e01b8152905183926001600160a01b03169182916347535d7b91600480820192602092909190829003018186803b15801561009757600080fd5b505afa1580156100ab573d6000803e3d6000fd5b505050506040513d60208110156100c157600080fd5b5051156100ff5760405162461bcd60e51b815260040180806020018281038252602981526020018061017b6029913960400191505060405180910390fd5b429150806001600160a01b031663a9671193856040518263ffffffff1660e01b815260040180828152602001915050602060405180830381600087803b15801561014857600080fd5b505af115801561015c573d6000803e3d6000fd5b505050506040513d602081101561017257600080fd5b50505050505056fe546865206d61726b6574206973207374696c6c206f70656e2c20636f6d65206261636b206c61746572a265627a7a72315820942eda3b0e5648074553a7439ff5ccf9f5963c7020cd02596cf7bea947c8c65a64736f6c63430005110032",
  "bytecodeSha1": "1f53f54f70930cad82bc1efa94d5a27cd76b2252",
  "compiler": {
    "evm_version": "istanbul",
    "optimizer": {
      "enabled": true,
      "runs": 200
    },
    "version": "0.5.17"
  },
  "contractName": "token_challenge",
  "language": "Solidity",
  "natspec": {
    "methods": {}
  },
  "opcodes": "PUSH1 0x80 PUSH1 0x40 MSTORE CALLVALUE DUP1 ISZERO PUSH2 0x10 JUMPI PUSH1 0x0 DUP1 REVERT JUMPDEST POP PUSH1 0x4 CALLDATASIZE LT PUSH2 0x2B JUMPI PUSH1 0x0 CALLDATALOAD PUSH1 0xE0 SHR DUP1 PUSH4 0x76A9E7B3 EQ PUSH2 0x30 JUMPI JUMPDEST PUSH1 0x0 DUP1 REVERT JUMPDEST PUSH2 0x4D PUSH1 0x4 DUP1 CALLDATASIZE SUB PUSH1 0x20 DUP2 LT ISZERO PUSH2 0x46 JUMPI PUSH1 0x0 DUP1 REVERT JUMPDEST POP CALLDATALOAD PUSH2 0x4F JUMP JUMPDEST STOP JUMPDEST PUSH1 0x0 DUP1 SLOAD PUSH1 0x40 DUP1 MLOAD PUSH4 0x47535D7B PUSH1 0xE0 SHL DUP2 MSTORE SWAP1 MLOAD DUP4 SWAP3 PUSH1 0x1 PUSH1 0x1 PUSH1 0xA0 SHL SUB AND SWAP2 DUP3 SWAP2 PUSH4 0x47535D7B SWAP2 PUSH1 0x4 DUP1 DUP3 ADD SWAP3 PUSH1 0x20 SWAP3 SWAP1 SWAP2 SWAP1 DUP3 SWAP1 SUB ADD DUP2 DUP7 DUP1 EXTCODESIZE ISZERO DUP1 ISZERO PUSH2 0x97 JUMPI PUSH1 0x0 DUP1 REVERT JUMPDEST POP GAS STATICCALL ISZERO DUP1 ISZERO PUSH2 0xAB JUMPI RETURNDATASIZE PUSH1 0x0 DUP1 RETURNDATACOPY RETURNDATASIZE PUSH1 0x0 REVERT JUMPDEST POP POP POP POP PUSH1 0x40 MLOAD RETURNDATASIZE PUSH1 0x20 DUP2 LT ISZERO PUSH2 0xC1 JUMPI PUSH1 0x0 DUP1 REVERT JUMPDEST POP MLOAD ISZERO PUSH2 0xFF JUMPI PUSH1 0x40 MLOAD PUSH3 0x461BCD PUSH1 0xE5 SHL DUP2 MSTORE PUSH1 0x4 ADD DUP1 DUP1 PUSH1 0x20 ADD DUP3 DUP2 SUB DUP3 MSTORE PUSH1 0x29 DUP2 MSTORE PUSH1 0x20 ADD DUP1 PUSH2 0x17B PUSH1 0x29 SWAP2 CODECOPY PUSH1 0x40 ADD SWAP2 POP POP PUSH1 0x40 MLOAD DUP1 SWAP2 SUB SWAP1 REVERT JUMPDEST TIMESTAMP SWAP2 POP DUP1 PUSH1 0x1 PUSH1 0x1 PUSH1 0xA0 SHL SUB AND PUSH4 0xA9671193 DUP6 PUSH1 0x40 MLOAD DUP3 PUSH4 0xFFFFFFFF AND PUSH1 0xE0 SHL DUP2 MSTORE PUSH1 0x4 ADD DUP1 DUP3 DUP2 MSTORE PUSH1 0x20 ADD SWAP2 POP POP PUSH1 0x20 PUSH1 0x40 MLOAD DUP1 DUP4 SUB DUP2 PUSH1 0x0 DUP8 DUP1 EXTCODESIZE ISZERO DUP1 ISZERO PUSH2 0x148 JUMPI PUSH1 0x0 DUP1 REVERT JUMPDEST POP GAS CALL ISZERO DUP1 ISZERO PUSH2 0x15C JUMPI RETURNDATASIZE PUSH1 0x0 DUP1 RETURNDATACOPY RETURNDATASIZE PUSH1 0x0 REVERT JUMPDEST POP POP POP POP PUSH1 0x40 MLOAD RETURNDATASIZE PUSH1 0x20 DUP2 LT ISZERO PUSH2 0x172 JUMPI PUSH1 0x0 DUP1 REVERT JUMPDEST POP POP POP POP POP POP JUMP INVALID SLOAD PUSH9 0x65206D61726B657420 PUSH10 0x73207374696C6C206F70 PUSH6 0x6E2C20636F6D PUSH6 0x206261636B20 PUSH13 0x61746572A265627A7A72315820 SWAP5 0x2E 0xDA EXTCODESIZE 0xE JUMP 0x48 SMOD GASLIMIT MSTORE8 0xA7 NUMBER SWAP16 CREATE2 0xCC 0xF9 CREATE2 SWAP7 EXTCODECOPY PUSH17 0x20CD02596CF7BEA947C8C65A64736F6C63 NUMBER STOP SDIV GT STOP ORIGIN ",
  "sha1": "fc3f18c91e35aff283946d3af805991b270c975c",
  "source": "pragma solidity ^0.5.0;\n\nimport \"./token_exchange.sol\" ; \n\ncontract token_challenge {\n\n    address _exchangeAddress; \n\n    constructor (address exchangeAddress) public {\n        _exchangeAddress = exchangeAddress; \n    }\n\n    function overnightStart(int256 new_delta_price) public {\n        uint256 last_id_price; \n        uint256 startChallenge; \n        token_exchange fss_exchange = token_exchange(_exchangeAddress); \n        \n        require(!(fss_exchange.isOpen()), \"The market is still open, come back later\"); \n\n        startChallenge = now; \n        last_id_price = fss_exchange.setNewPrice(new_delta_price); \n\n    }\n\n\n}",
  "sourcePath": "contracts/token_challenge.sol",
  "type": "contract"
}