{
  "abi": [
    {
      "inputs": [
        {
          "internalType": "address",
          "name": "tokenAddress",
          "type": "address"
        },
        {
          "internalType": "address",
          "name": "payCoinAddress",
          "type": "address"
        }
      ],
      "payable": false,
      "stateMutability": "nonpayable",
      "type": "constructor"
    },
    {
      "anonymous": false,
      "inputs": [
        {
          "indexed": true,
          "internalType": "address",
          "name": "account",
          "type": "address"
        }
      ],
      "name": "AdminAdded",
      "type": "event"
    },
    {
      "anonymous": false,
      "inputs": [
        {
          "indexed": true,
          "internalType": "address",
          "name": "account",
          "type": "address"
        }
      ],
      "name": "AdminRemoved",
      "type": "event"
    },
    {
      "anonymous": false,
      "inputs": [
        {
          "indexed": true,
          "internalType": "address",
          "name": "account",
          "type": "address"
        }
      ],
      "name": "BrokerAdded",
      "type": "event"
    },
    {
      "anonymous": false,
      "inputs": [
        {
          "indexed": true,
          "internalType": "address",
          "name": "account",
          "type": "address"
        }
      ],
      "name": "BrokerRemoved",
      "type": "event"
    },
    {
      "anonymous": false,
      "inputs": [
        {
          "indexed": true,
          "internalType": "address",
          "name": "buyer",
          "type": "address"
        },
        {
          "indexed": true,
          "internalType": "uint256",
          "name": "amount",
          "type": "uint256"
        },
        {
          "indexed": true,
          "internalType": "uint256",
          "name": "price",
          "type": "uint256"
        }
      ],
      "name": "Buy",
      "type": "event"
    },
    {
      "anonymous": false,
      "inputs": [
        {
          "indexed": true,
          "internalType": "address",
          "name": "who",
          "type": "address"
        },
        {
          "indexed": true,
          "internalType": "uint256",
          "name": "when",
          "type": "uint256"
        }
      ],
      "name": "ChangeEnd",
      "type": "event"
    },
    {
      "anonymous": false,
      "inputs": [
        {
          "indexed": true,
          "internalType": "address",
          "name": "who",
          "type": "address"
        },
        {
          "indexed": true,
          "internalType": "uint256",
          "name": "when",
          "type": "uint256"
        }
      ],
      "name": "ChangeStart",
      "type": "event"
    },
    {
      "anonymous": false,
      "inputs": [
        {
          "indexed": true,
          "internalType": "address",
          "name": "who",
          "type": "address"
        },
        {
          "indexed": true,
          "internalType": "uint256",
          "name": "id_price",
          "type": "uint256"
        },
        {
          "indexed": true,
          "internalType": "uint256",
          "name": "price",
          "type": "uint256"
        }
      ],
      "name": "PriceChange",
      "type": "event"
    },
    {
      "anonymous": false,
      "inputs": [
        {
          "indexed": true,
          "internalType": "address",
          "name": "buyer",
          "type": "address"
        },
        {
          "indexed": true,
          "internalType": "uint256",
          "name": "amount",
          "type": "uint256"
        },
        {
          "indexed": true,
          "internalType": "uint256",
          "name": "price",
          "type": "uint256"
        }
      ],
      "name": "Sell",
      "type": "event"
    },
    {
      "constant": false,
      "inputs": [
        {
          "internalType": "address",
          "name": "account",
          "type": "address"
        }
      ],
      "name": "addAdmin",
      "outputs": [],
      "payable": false,
      "stateMutability": "nonpayable",
      "type": "function"
    },
    {
      "constant": false,
      "inputs": [
        {
          "internalType": "address",
          "name": "account",
          "type": "address"
        }
      ],
      "name": "addBroker",
      "outputs": [],
      "payable": false,
      "stateMutability": "nonpayable",
      "type": "function"
    },
    {
      "constant": false,
      "inputs": [
        {
          "internalType": "uint256",
          "name": "tokenAmount",
          "type": "uint256"
        }
      ],
      "name": "buy",
      "outputs": [
        {
          "internalType": "bool",
          "name": "",
          "type": "bool"
        }
      ],
      "payable": false,
      "stateMutability": "nonpayable",
      "type": "function"
    },
    {
      "constant": false,
      "inputs": [
        {
          "internalType": "uint256",
          "name": "end",
          "type": "uint256"
        }
      ],
      "name": "changeEnd",
      "outputs": [],
      "payable": false,
      "stateMutability": "nonpayable",
      "type": "function"
    },
    {
      "constant": false,
      "inputs": [
        {
          "internalType": "uint256",
          "name": "start",
          "type": "uint256"
        }
      ],
      "name": "changeStart",
      "outputs": [],
      "payable": false,
      "stateMutability": "nonpayable",
      "type": "function"
    },
    {
      "constant": true,
      "inputs": [
        {
          "internalType": "uint256",
          "name": "id_price",
          "type": "uint256"
        }
      ],
      "name": "getHistory",
      "outputs": [
        {
          "internalType": "uint256",
          "name": "",
          "type": "uint256"
        }
      ],
      "payable": false,
      "stateMutability": "view",
      "type": "function"
    },
    {
      "constant": true,
      "inputs": [
        {
          "internalType": "address",
          "name": "account",
          "type": "address"
        }
      ],
      "name": "isAdmin",
      "outputs": [
        {
          "internalType": "bool",
          "name": "",
          "type": "bool"
        }
      ],
      "payable": false,
      "stateMutability": "view",
      "type": "function"
    },
    {
      "constant": true,
      "inputs": [
        {
          "internalType": "address",
          "name": "account",
          "type": "address"
        }
      ],
      "name": "isBroker",
      "outputs": [
        {
          "internalType": "bool",
          "name": "",
          "type": "bool"
        }
      ],
      "payable": false,
      "stateMutability": "view",
      "type": "function"
    },
    {
      "constant": true,
      "inputs": [],
      "name": "isOpen",
      "outputs": [
        {
          "internalType": "bool",
          "name": "",
          "type": "bool"
        }
      ],
      "payable": false,
      "stateMutability": "view",
      "type": "function"
    },
    {
      "constant": true,
      "inputs": [],
      "name": "lastPrice",
      "outputs": [
        {
          "internalType": "uint256",
          "name": "",
          "type": "uint256"
        },
        {
          "internalType": "uint256",
          "name": "",
          "type": "uint256"
        }
      ],
      "payable": false,
      "stateMutability": "view",
      "type": "function"
    },
    {
      "constant": false,
      "inputs": [
        {
          "internalType": "uint256",
          "name": "price1",
          "type": "uint256"
        },
        {
          "internalType": "uint256",
          "name": "price2",
          "type": "uint256"
        },
        {
          "internalType": "uint256",
          "name": "price3",
          "type": "uint256"
        },
        {
          "internalType": "uint256",
          "name": "price4",
          "type": "uint256"
        },
        {
          "internalType": "uint256",
          "name": "price5",
          "type": "uint256"
        },
        {
          "internalType": "uint256",
          "name": "price6",
          "type": "uint256"
        },
        {
          "internalType": "uint256",
          "name": "price7",
          "type": "uint256"
        },
        {
          "internalType": "uint256",
          "name": "price8",
          "type": "uint256"
        },
        {
          "internalType": "uint256",
          "name": "price9",
          "type": "uint256"
        },
        {
          "internalType": "uint256",
          "name": "price10",
          "type": "uint256"
        }
      ],
      "name": "massiveLoad",
      "outputs": [],
      "payable": false,
      "stateMutability": "nonpayable",
      "type": "function"
    },
    {
      "constant": true,
      "inputs": [],
      "name": "payCoin",
      "outputs": [
        {
          "internalType": "contract PayCoin",
          "name": "",
          "type": "address"
        }
      ],
      "payable": false,
      "stateMutability": "view",
      "type": "function"
    },
    {
      "constant": false,
      "inputs": [],
      "name": "renounceAdmin",
      "outputs": [],
      "payable": false,
      "stateMutability": "nonpayable",
      "type": "function"
    },
    {
      "constant": false,
      "inputs": [],
      "name": "renounceBroker",
      "outputs": [],
      "payable": false,
      "stateMutability": "nonpayable",
      "type": "function"
    },
    {
      "constant": false,
      "inputs": [
        {
          "internalType": "uint256",
          "name": "tokenAmount",
          "type": "uint256"
        }
      ],
      "name": "sell",
      "outputs": [
        {
          "internalType": "bool",
          "name": "",
          "type": "bool"
        }
      ],
      "payable": false,
      "stateMutability": "nonpayable",
      "type": "function"
    },
    {
      "constant": false,
      "inputs": [
        {
          "internalType": "int256",
          "name": "delta_price",
          "type": "int256"
        }
      ],
      "name": "setNewPrice",
      "outputs": [
        {
          "internalType": "uint256",
          "name": "",
          "type": "uint256"
        }
      ],
      "payable": false,
      "stateMutability": "nonpayable",
      "type": "function"
    },
    {
      "constant": false,
      "inputs": [],
      "name": "setOpenTime",
      "outputs": [],
      "payable": false,
      "stateMutability": "nonpayable",
      "type": "function"
    },
    {
      "constant": false,
      "inputs": [
        {
          "internalType": "address",
          "name": "payCoinAddress",
          "type": "address"
        }
      ],
      "name": "setPayCoin",
      "outputs": [],
      "payable": false,
      "stateMutability": "nonpayable",
      "type": "function"
    },
    {
      "constant": false,
      "inputs": [
        {
          "internalType": "address",
          "name": "tokenAddress",
          "type": "address"
        }
      ],
      "name": "setToken",
      "outputs": [],
      "payable": false,
      "stateMutability": "nonpayable",
      "type": "function"
    }
  ],
  "bytecode": "6080604052600a80546001600160a01b0319908116732b177c1854de132e96326b454055005e62febdc717909155600b80549091167385a8d7241ffffee7290501473a9b11bfda2ae9ff1790553480156200005957600080fd5b5060405162001d1a38038062001d1a833981810160405260408110156200007f57600080fd5b508051602090910151620000ae6200009f6001600160e01b03620001b616565b6001600160e01b03620001ba16565b620000d4620000c56001600160e01b03620001b616565b6001600160e01b036200020c16565b600280546001600160a01b038085166001600160a01b031992831617909255600380548484169216919091179055635ef2f9f06004819055635ef37880600555600855635efcb3006009556006805460ff19169055600a546200014191166001600160e01b036200025e16565b8015620001695750600a5462000169906001600160a01b03166001600160e01b036200028116565b620001ae57600a546200018e906001600160a01b03166001600160e01b036200029e16565b600a54620001ae906001600160a01b03166001600160e01b036200031816565b505062000485565b3390565b620001d58160006200038f60201b6200149e1790919060201c565b6040516001600160a01b038216907f40c56d2c4c08eead919e7228cf5b749297271698ec38e954d322ef4bcf1d58fb90600090a250565b620002278160016200038f60201b6200149e1790919060201c565b6040516001600160a01b038216907f44d6d25963f097ad14f29f06854a01f575648a1ef82f30e562ccd3889717e33990600090a250565b60006200027b8260016200041c60201b62000d321790919060201c565b92915050565b60006200027b8260006200041c60201b62000d321790919060201c565b620002c4620002b56001600160e01b03620001b616565b6001600160e01b036200025e16565b620003015760405162461bcd60e51b815260040180806020018281038252602e81526020018062001cec602e913960400191505060405180910390fd5b62000315816001600160e01b036200020c16565b50565b6200033e6200032f6001600160e01b03620001b616565b6001600160e01b036200028116565b6200037b5760405162461bcd60e51b815260040180806020018281038252603081526020018062001c9a6030913960400191505060405180910390fd5b62000315816001600160e01b03620001ba16565b620003a482826001600160e01b036200041c16565b15620003f7576040805162461bcd60e51b815260206004820152601f60248201527f526f6c65733a206163636f756e7420616c72656164792068617320726f6c6500604482015290519081900360640190fd5b6001600160a01b0316600090815260209190915260409020805460ff19166001179055565b60006001600160a01b038216620004655760405162461bcd60e51b815260040180806020018281038252602281526020018062001cca6022913960400191505060405180910390fd5b506001600160a01b03166000908152602091909152604090205460ff1690565b61180580620004956000396000f3fe608060405234801561001057600080fd5b50600436106101215760003560e01c8063836cae65116100ad578063d1d5190c11610071578063d1d5190c14610303578063d96a094a14610320578063e37bddc31461033d578063e4849b321461035a578063ffb4e0751461037757610121565b8063836cae65146102635780638bad0c0a146102895780639f986fbb14610291578063a9671193146102b7578063c8691b2a146102e657610121565b8063264d359d116100f4578063264d359d146101cf578063431e5c9d1461022557806347535d7b1461022d5780634f15e62e14610235578063704802751461023d57610121565b8063053f14da14610126578063144fa6d71461014757806322b31d9f1461016f57806324d7806c146101a9575b600080fd5b61012e61039b565b6040805192835260208301919091528051918290030190f35b61016d6004803603602081101561015d57600080fd5b50356001600160a01b03166103e6565b005b6101956004803603602081101561018557600080fd5b50356001600160a01b0316610453565b604080519115158252519081900360200190f35b610195600480360360208110156101bf57600080fd5b50356001600160a01b031661046b565b61016d60048036036101408110156101e657600080fd5b5080359060208101359060408101359060608101359060808101359060a08101359060c08101359060e08101359061010081013590610120013561047e565b61016d610539565b61019561054b565b61016d610566565b61016d6004803603602081101561025357600080fd5b50356001600160a01b031661061f565b61016d6004803603602081101561027957600080fd5b50356001600160a01b0316610671565b61016d6106c0565b61016d600480360360208110156102a757600080fd5b50356001600160a01b03166106d0565b6102d4600480360360208110156102cd57600080fd5b5035610738565b60408051918252519081900360200190f35b6102d4600480360360208110156102fc57600080fd5b5035610a11565b61016d6004803603602081101561031957600080fd5b5035610a32565b6101956004803603602081101561033657600080fd5b5035610abe565b61016d6004803603602081101561035357600080fd5b5035610b88565b6101956004803603602081101561037057600080fd5b5035610c14565b61037f610cd6565b604080516001600160a01b039092168252519081900360200190f35b60075460009081906103b490600163ffffffff610ce516565b600780546103c990600163ffffffff610ce516565b815481106103d357fe5b9060005260206000200154915091509091565b6103f66103f1610d2e565b61046b565b6104315760405162461bcd60e51b815260040180806020018281038252602e8152602001806117a3602e913960400191505060405180910390fd5b600280546001600160a01b0319166001600160a01b0392909216919091179055565b6000610465818363ffffffff610d3216565b92915050565b600061046560018363ffffffff610d3216565b61048e610489610d2e565b610453565b6104c95760405162461bcd60e51b81526004018080602001828103825260308152602001806116cf6030913960400191505060405180910390fd5b6104d28a610d99565b506104dc89610d99565b506104e688610d99565b506104f087610d99565b506104fa86610d99565b5061050485610d99565b5061050e84610d99565b5061051883610d99565b5061052282610d99565b5061052c81610d99565b5050505050505050505050565b610549610544610d2e565b610dd3565b565b6000600454421015801561056157506005544211155b905090565b6105716103f1610d2e565b6105ac5760405162461bcd60e51b815260040180806020018281038252602e8152602001806117a3602e913960400191505060405180910390fd5b600554600454106105ee5760405162461bcd60e51b81526004018080602001828103825260408152602001806117206040913960400191505060405180910390fd5b6005546106039061d2f063ffffffff610e1b16565b600481905561061a90617e9063ffffffff610e1b16565b600555565b61062a6103f1610d2e565b6106655760405162461bcd60e51b815260040180806020018281038252602e8152602001806117a3602e913960400191505060405180910390fd5b61066e81610e75565b50565b61067c610489610d2e565b6106b75760405162461bcd60e51b81526004018080602001828103825260308152602001806116cf6030913960400191505060405180910390fd5b61066e81610ebd565b6105496106cb610d2e565b610f05565b6106db6103f1610d2e565b6107165760405162461bcd60e51b815260040180806020018281038252602e8152602001806117a3602e913960400191505060405180910390fd5b600380546001600160a01b0319166001600160a01b0392909216919091179055565b6000610745610489610d2e565b6107805760405162461bcd60e51b81526004018080602001828103825260308152602001806116cf6030913960400191505060405180910390fd5b600780546000919061079990600163ffffffff610ce516565b815481106107a357fe5b6000918252602082200154915083820190808213610808576040805162461bcd60e51b815260206004820152601760248201527f5072696365206d75737420626520706f73697469766521000000000000000000604482015290519081900360640190fd5b6108136103f1610d2e565b156108c85761082061054b565b610864576040805162461bcd60e51b815260206004820152601060248201526f13585c9ad95d081a5cc818db1bdcd95960821b604482015290519081900360640190fd5b61086d82610d99565b5060075461088290600163ffffffff610ce516565b9050818161088e610d2e565b6001600160a01b03167f024e1c492bc15609a5125924e67e792a203a4f550a353426fad01a2c6d5ff97660405160405180910390a4610a09565b600654600460ff9091161061091d576040805162461bcd60e51b815260206004820152601660248201527520b63932b0b23c9031b0b63639901a103a34b6b2b99760511b604482015290519081900360640190fd5b61094f610942606461093686600a63ffffffff610f4d16565b9063ffffffff610fa616565b849063ffffffff610ce516565b82118015610981575061097e610971606461093686600a63ffffffff610f4d16565b849063ffffffff610e1b16565b82105b6109d2576040805162461bcd60e51b815260206004820152601c60248201527f43616e2774206368616e6765206d6f7265207468616e202d2b31302500000000604482015290519081900360640190fd5b6109db82610d99565b506007546109f090600163ffffffff610ce516565b6006805460ff8082166001011660ff1990911617905590505b949350505050565b600060078281548110610a2057fe5b90600052602060002001549050919050565b610a3d6103f1610d2e565b610a785760405162461bcd60e51b815260040180806020018281038252602e8152602001806117a3602e913960400191505060405180910390fd5b600881905580610a86610d2e565b6001600160a01b03167f16c752bdf6502cc829c9a81132e2e73aeb12d145e0e3b1cd632a9759485a5f5360405160405180910390a350565b6000610ac861054b565b610b0c576040805162461bcd60e51b815260206004820152601060248201526f13585c9ad95d081a5cc818db1bdcd95960821b604482015290519081900360640190fd5b60085442118015610b1e575060095442105b610b6f576040805162461bcd60e51b815260206004820152601c60248201527f546865206d61726b657420697320636c6f736520666f72657665722e00000000604482015290519081900360640190fd5b610b80610b7a610d2e565b83610fe8565b506001919050565b610b936103f1610d2e565b610bce5760405162461bcd60e51b815260040180806020018281038252602e8152602001806117a3602e913960400191505060405180910390fd5b600981905580610bdc610d2e565b6001600160a01b03167f9cd0f0f4c626f6284b893eff5aa9a5f50e76b4fa9811bf3ec86ac52cc6ed782760405160405180910390a350565b6000610c1e61054b565b610c62576040805162461bcd60e51b815260206004820152601060248201526f13585c9ad95d081a5cc818db1bdcd95960821b604482015290519081900360640190fd5b60085442118015610c74575060095442105b610cc5576040805162461bcd60e51b815260206004820152601c60248201527f546865206d61726b657420697320636c6f736520666f72657665722e00000000604482015290519081900360640190fd5b610b80610cd0610d2e565b836111e4565b6003546001600160a01b031681565b6000610d2783836040518060400160405280601e81526020017f536166654d6174683a207375627472616374696f6e206f766572666c6f7700008152506113a0565b9392505050565b3390565b60006001600160a01b038216610d795760405162461bcd60e51b81526004018080602001828103825260228152602001806117816022913960400191505060405180910390fd5b506001600160a01b03166000908152602091909152604090205460ff1690565b60078054600180820183556000929092527fa66cc928b5edb82af9bd49922954155ab7b0942694bea4ce44661d9a8736c688019190915590565b610de460008263ffffffff61143716565b6040516001600160a01b038216907fe5c6f32fb04b7de81910252a1e1d29267cd9e5fc428afad67442d00c7b127bd090600090a250565b600082820183811015610d27576040805162461bcd60e51b815260206004820152601b60248201527f536166654d6174683a206164646974696f6e206f766572666c6f770000000000604482015290519081900360640190fd5b610e8660018263ffffffff61149e16565b6040516001600160a01b038216907f44d6d25963f097ad14f29f06854a01f575648a1ef82f30e562ccd3889717e33990600090a250565b610ece60008263ffffffff61149e16565b6040516001600160a01b038216907f40c56d2c4c08eead919e7228cf5b749297271698ec38e954d322ef4bcf1d58fb90600090a250565b610f1660018263ffffffff61143716565b6040516001600160a01b038216907fa3b62bc36326052d97ea62d63c3d60308ed4c3ea8ac079dd8499f1e9c4f80c0f90600090a250565b600082610f5c57506000610465565b82820282848281610f6957fe5b0414610d275760405162461bcd60e51b81526004018080602001828103825260218152602001806117606021913960400191505060405180910390fd5b6000610d2783836040518060400160405280601a81526020017f536166654d6174683a206469766973696f6e206279207a65726f00000000000081525061151f565b6001600160a01b038216611043576040805162461bcd60e51b815260206004820152601d60248201527f526563697069656e7420697320746865207a65726f2061646472657373000000604482015290519081900360640190fd5b600354600b546001600160a01b03918216916323b872dd91859116611069856001611584565b6040518463ffffffff1660e01b815260040180846001600160a01b03166001600160a01b03168152602001836001600160a01b03166001600160a01b031681526020018281526020019350505050602060405180830381600087803b1580156110d157600080fd5b505af11580156110e5573d6000803e3d6000fd5b505050506040513d60208110156110fb57600080fd5b5050600254604080516340c10f1960e01b81526001600160a01b03858116600483015260248201859052915191909216916340c10f199160448083019260209291908290030181600087803b15801561115357600080fd5b505af1158015611167573d6000803e3d6000fd5b505050506040513d602081101561117d57600080fd5b50506007805461119490600163ffffffff610ce516565b8154811061119e57fe5b906000526020600020015481836001600160a01b03167f1cbc5ab135991bd2b6a4b034a04aa2aa086dac1371cb9b16b8b5e2ed6b036bed60405160405180910390a45050565b6001600160a01b03821661123f576040805162461bcd60e51b815260206004820152601a60248201527f53656c6c657220697320746865207a65726f2061646472657373000000000000604482015290519081900360640190fd5b6002546040805163079cc67960e41b81526001600160a01b03858116600483015260248201859052915191909216916379cc679091604480830192600092919082900301818387803b15801561129457600080fd5b505af11580156112a8573d6000803e3d6000fd5b50506003546001600160a01b031691506340c10f199050836112cb846000611584565b6040518363ffffffff1660e01b815260040180836001600160a01b03166001600160a01b0316815260200182815260200192505050602060405180830381600087803b15801561131a57600080fd5b505af115801561132e573d6000803e3d6000fd5b505050506040513d602081101561134457600080fd5b50506007805461135b90600163ffffffff610ce516565b8154811061136557fe5b60009182526020822001546040519091839130917fed7a144fad14804d5c249145e3e0e2b63a9eb455b76aee5bc92d711e9bba3e4a91a45050565b6000818484111561142f5760405162461bcd60e51b81526004018080602001828103825283818151815260200191508051906020019080838360005b838110156113f45781810151838201526020016113dc565b50505050905090810190601f1680156114215780820380516001836020036101000a031916815260200191505b509250505060405180910390fd5b505050900390565b6114418282610d32565b61147c5760405162461bcd60e51b81526004018080602001828103825260218152602001806116ff6021913960400191505060405180910390fd5b6001600160a01b0316600090815260209190915260409020805460ff19169055565b6114a88282610d32565b156114fa576040805162461bcd60e51b815260206004820152601f60248201527f526f6c65733a206163636f756e7420616c72656164792068617320726f6c6500604482015290519081900360640190fd5b6001600160a01b0316600090815260209190915260409020805460ff19166001179055565b6000818361156e5760405162461bcd60e51b81526020600482018181528351602484015283519092839260449091019190850190808383600083156113f45781810151838201526020016113dc565b50600083858161157a57fe5b0495945050505050565b600080600260009054906101000a90046001600160a01b03166001600160a01b031663313ce5676040518163ffffffff1660e01b815260040160206040518083038186803b1580156115d557600080fd5b505afa1580156115e9573d6000803e3d6000fd5b505050506040513d60208110156115ff57600080fd5b505160ff16905082156116835761167b6116266103e861093687600263ffffffff610f4d16565b61166f83600a0a610936600761164b6001600780549050610ce590919063ffffffff16565b8154811061165557fe5b906000526020600020015489610f4d90919063ffffffff16565b9063ffffffff610e1b16565b915050610465565b61167b61169d6103e861093687600263ffffffff610f4d16565b6116c283600a0a610936600761164b6001600780549050610ce590919063ffffffff16565b9063ffffffff610ce51656fe42726f6b6572526f6c653a2063616c6c657220646f6573206e6f742068617665207468652042726f6b657220726f6c65526f6c65733a206163636f756e7420646f6573206e6f74206861766520726f6c65536f6d657468696e6727732077726f6e672c206d6179626520796f75207365742074686520696e697469616c205f6f70656e696e6774696d652077726f6e672e536166654d6174683a206d756c7469706c69636174696f6e206f766572666c6f77526f6c65733a206163636f756e7420697320746865207a65726f206164647265737341646d696e526f6c653a2063616c6c657220646f6573206e6f742068617665207468652041646d696e20726f6c65a265627a7a72315820b16baf230ff9f629cdad94978493318b9a7019edd23e784206ec44b7313b24dd64736f6c6343000511003242726f6b6572526f6c653a2063616c6c657220646f6573206e6f742068617665207468652042726f6b657220726f6c65526f6c65733a206163636f756e7420697320746865207a65726f206164647265737341646d696e526f6c653a2063616c6c657220646f6573206e6f742068617665207468652041646d696e20726f6c65",
  "bytecodeSha1": "da39a3ee5e6b4b0d3255bfef95601890afd80709",
  "compiler": {
    "evm_version": "istanbul",
    "optimizer": {
      "enabled": true,
      "runs": 200
    },
    "version": "0.5.17"
  },
  "contractName": "token_exchange",
  "language": "Solidity",
  "natspec": {
    "methods": {}
  },
  "opcodes": "PUSH1 0x80 PUSH1 0x40 MSTORE CALLVALUE DUP1 ISZERO PUSH2 0x10 JUMPI PUSH1 0x0 DUP1 REVERT JUMPDEST POP PUSH1 0x4 CALLDATASIZE LT PUSH2 0x121 JUMPI PUSH1 0x0 CALLDATALOAD PUSH1 0xE0 SHR DUP1 PUSH4 0x836CAE65 GT PUSH2 0xAD JUMPI DUP1 PUSH4 0xD1D5190C GT PUSH2 0x71 JUMPI DUP1 PUSH4 0xD1D5190C EQ PUSH2 0x303 JUMPI DUP1 PUSH4 0xD96A094A EQ PUSH2 0x320 JUMPI DUP1 PUSH4 0xE37BDDC3 EQ PUSH2 0x33D JUMPI DUP1 PUSH4 0xE4849B32 EQ PUSH2 0x35A JUMPI DUP1 PUSH4 0xFFB4E075 EQ PUSH2 0x377 JUMPI PUSH2 0x121 JUMP JUMPDEST DUP1 PUSH4 0x836CAE65 EQ PUSH2 0x263 JUMPI DUP1 PUSH4 0x8BAD0C0A EQ PUSH2 0x289 JUMPI DUP1 PUSH4 0x9F986FBB EQ PUSH2 0x291 JUMPI DUP1 PUSH4 0xA9671193 EQ PUSH2 0x2B7 JUMPI DUP1 PUSH4 0xC8691B2A EQ PUSH2 0x2E6 JUMPI PUSH2 0x121 JUMP JUMPDEST DUP1 PUSH4 0x264D359D GT PUSH2 0xF4 JUMPI DUP1 PUSH4 0x264D359D EQ PUSH2 0x1CF JUMPI DUP1 PUSH4 0x431E5C9D EQ PUSH2 0x225 JUMPI DUP1 PUSH4 0x47535D7B EQ PUSH2 0x22D JUMPI DUP1 PUSH4 0x4F15E62E EQ PUSH2 0x235 JUMPI DUP1 PUSH4 0x70480275 EQ PUSH2 0x23D JUMPI PUSH2 0x121 JUMP JUMPDEST DUP1 PUSH4 0x53F14DA EQ PUSH2 0x126 JUMPI DUP1 PUSH4 0x144FA6D7 EQ PUSH2 0x147 JUMPI DUP1 PUSH4 0x22B31D9F EQ PUSH2 0x16F JUMPI DUP1 PUSH4 0x24D7806C EQ PUSH2 0x1A9 JUMPI JUMPDEST PUSH1 0x0 DUP1 REVERT JUMPDEST PUSH2 0x12E PUSH2 0x39B JUMP JUMPDEST PUSH1 0x40 DUP1 MLOAD SWAP3 DUP4 MSTORE PUSH1 0x20 DUP4 ADD SWAP2 SWAP1 SWAP2 MSTORE DUP1 MLOAD SWAP2 DUP3 SWAP1 SUB ADD SWAP1 RETURN JUMPDEST PUSH2 0x16D PUSH1 0x4 DUP1 CALLDATASIZE SUB PUSH1 0x20 DUP2 LT ISZERO PUSH2 0x15D JUMPI PUSH1 0x0 DUP1 REVERT JUMPDEST POP CALLDATALOAD PUSH1 0x1 PUSH1 0x1 PUSH1 0xA0 SHL SUB AND PUSH2 0x3E6 JUMP JUMPDEST STOP JUMPDEST PUSH2 0x195 PUSH1 0x4 DUP1 CALLDATASIZE SUB PUSH1 0x20 DUP2 LT ISZERO PUSH2 0x185 JUMPI PUSH1 0x0 DUP1 REVERT JUMPDEST POP CALLDATALOAD PUSH1 0x1 PUSH1 0x1 PUSH1 0xA0 SHL SUB AND PUSH2 0x453 JUMP JUMPDEST PUSH1 0x40 DUP1 MLOAD SWAP2 ISZERO ISZERO DUP3 MSTORE MLOAD SWAP1 DUP2 SWAP1 SUB PUSH1 0x20 ADD SWAP1 RETURN JUMPDEST PUSH2 0x195 PUSH1 0x4 DUP1 CALLDATASIZE SUB PUSH1 0x20 DUP2 LT ISZERO PUSH2 0x1BF JUMPI PUSH1 0x0 DUP1 REVERT JUMPDEST POP CALLDATALOAD PUSH1 0x1 PUSH1 0x1 PUSH1 0xA0 SHL SUB AND PUSH2 0x46B JUMP JUMPDEST PUSH2 0x16D PUSH1 0x4 DUP1 CALLDATASIZE SUB PUSH2 0x140 DUP2 LT ISZERO PUSH2 0x1E6 JUMPI PUSH1 0x0 DUP1 REVERT JUMPDEST POP DUP1 CALLDATALOAD SWAP1 PUSH1 0x20 DUP2 ADD CALLDATALOAD SWAP1 PUSH1 0x40 DUP2 ADD CALLDATALOAD SWAP1 PUSH1 0x60 DUP2 ADD CALLDATALOAD SWAP1 PUSH1 0x80 DUP2 ADD CALLDATALOAD SWAP1 PUSH1 0xA0 DUP2 ADD CALLDATALOAD SWAP1 PUSH1 0xC0 DUP2 ADD CALLDATALOAD SWAP1 PUSH1 0xE0 DUP2 ADD CALLDATALOAD SWAP1 PUSH2 0x100 DUP2 ADD CALLDATALOAD SWAP1 PUSH2 0x120 ADD CALLDATALOAD PUSH2 0x47E JUMP JUMPDEST PUSH2 0x16D PUSH2 0x539 JUMP JUMPDEST PUSH2 0x195 PUSH2 0x54B JUMP JUMPDEST PUSH2 0x16D PUSH2 0x566 JUMP JUMPDEST PUSH2 0x16D PUSH1 0x4 DUP1 CALLDATASIZE SUB PUSH1 0x20 DUP2 LT ISZERO PUSH2 0x253 JUMPI PUSH1 0x0 DUP1 REVERT JUMPDEST POP CALLDATALOAD PUSH1 0x1 PUSH1 0x1 PUSH1 0xA0 SHL SUB AND PUSH2 0x61F JUMP JUMPDEST PUSH2 0x16D PUSH1 0x4 DUP1 CALLDATASIZE SUB PUSH1 0x20 DUP2 LT ISZERO PUSH2 0x279 JUMPI PUSH1 0x0 DUP1 REVERT JUMPDEST POP CALLDATALOAD PUSH1 0x1 PUSH1 0x1 PUSH1 0xA0 SHL SUB AND PUSH2 0x671 JUMP JUMPDEST PUSH2 0x16D PUSH2 0x6C0 JUMP JUMPDEST PUSH2 0x16D PUSH1 0x4 DUP1 CALLDATASIZE SUB PUSH1 0x20 DUP2 LT ISZERO PUSH2 0x2A7 JUMPI PUSH1 0x0 DUP1 REVERT JUMPDEST POP CALLDATALOAD PUSH1 0x1 PUSH1 0x1 PUSH1 0xA0 SHL SUB AND PUSH2 0x6D0 JUMP JUMPDEST PUSH2 0x2D4 PUSH1 0x4 DUP1 CALLDATASIZE SUB PUSH1 0x20 DUP2 LT ISZERO PUSH2 0x2CD JUMPI PUSH1 0x0 DUP1 REVERT JUMPDEST POP CALLDATALOAD PUSH2 0x738 JUMP JUMPDEST PUSH1 0x40 DUP1 MLOAD SWAP2 DUP3 MSTORE MLOAD SWAP1 DUP2 SWAP1 SUB PUSH1 0x20 ADD SWAP1 RETURN JUMPDEST PUSH2 0x2D4 PUSH1 0x4 DUP1 CALLDATASIZE SUB PUSH1 0x20 DUP2 LT ISZERO PUSH2 0x2FC JUMPI PUSH1 0x0 DUP1 REVERT JUMPDEST POP CALLDATALOAD PUSH2 0xA11 JUMP JUMPDEST PUSH2 0x16D PUSH1 0x4 DUP1 CALLDATASIZE SUB PUSH1 0x20 DUP2 LT ISZERO PUSH2 0x319 JUMPI PUSH1 0x0 DUP1 REVERT JUMPDEST POP CALLDATALOAD PUSH2 0xA32 JUMP JUMPDEST PUSH2 0x195 PUSH1 0x4 DUP1 CALLDATASIZE SUB PUSH1 0x20 DUP2 LT ISZERO PUSH2 0x336 JUMPI PUSH1 0x0 DUP1 REVERT JUMPDEST POP CALLDATALOAD PUSH2 0xABE JUMP JUMPDEST PUSH2 0x16D PUSH1 0x4 DUP1 CALLDATASIZE SUB PUSH1 0x20 DUP2 LT ISZERO PUSH2 0x353 JUMPI PUSH1 0x0 DUP1 REVERT JUMPDEST POP CALLDATALOAD PUSH2 0xB88 JUMP JUMPDEST PUSH2 0x195 PUSH1 0x4 DUP1 CALLDATASIZE SUB PUSH1 0x20 DUP2 LT ISZERO PUSH2 0x370 JUMPI PUSH1 0x0 DUP1 REVERT JUMPDEST POP CALLDATALOAD PUSH2 0xC14 JUMP JUMPDEST PUSH2 0x37F PUSH2 0xCD6 JUMP JUMPDEST PUSH1 0x40 DUP1 MLOAD PUSH1 0x1 PUSH1 0x1 PUSH1 0xA0 SHL SUB SWAP1 SWAP3 AND DUP3 MSTORE MLOAD SWAP1 DUP2 SWAP1 SUB PUSH1 0x20 ADD SWAP1 RETURN JUMPDEST PUSH1 0x7 SLOAD PUSH1 0x0 SWAP1 DUP2 SWAP1 PUSH2 0x3B4 SWAP1 PUSH1 0x1 PUSH4 0xFFFFFFFF PUSH2 0xCE5 AND JUMP JUMPDEST PUSH1 0x7 DUP1 SLOAD PUSH2 0x3C9 SWAP1 PUSH1 0x1 PUSH4 0xFFFFFFFF PUSH2 0xCE5 AND JUMP JUMPDEST DUP2 SLOAD DUP2 LT PUSH2 0x3D3 JUMPI INVALID JUMPDEST SWAP1 PUSH1 0x0 MSTORE PUSH1 0x20 PUSH1 0x0 KECCAK256 ADD SLOAD SWAP2 POP SWAP2 POP SWAP1 SWAP2 JUMP JUMPDEST PUSH2 0x3F6 PUSH2 0x3F1 PUSH2 0xD2E JUMP JUMPDEST PUSH2 0x46B JUMP JUMPDEST PUSH2 0x431 JUMPI PUSH1 0x40 MLOAD PUSH3 0x461BCD PUSH1 0xE5 SHL DUP2 MSTORE PUSH1 0x4 ADD DUP1 DUP1 PUSH1 0x20 ADD DUP3 DUP2 SUB DUP3 MSTORE PUSH1 0x2E DUP2 MSTORE PUSH1 0x20 ADD DUP1 PUSH2 0x17A3 PUSH1 0x2E SWAP2 CODECOPY PUSH1 0x40 ADD SWAP2 POP POP PUSH1 0x40 MLOAD DUP1 SWAP2 SUB SWAP1 REVERT JUMPDEST PUSH1 0x2 DUP1 SLOAD PUSH1 0x1 PUSH1 0x1 PUSH1 0xA0 SHL SUB NOT AND PUSH1 0x1 PUSH1 0x1 PUSH1 0xA0 SHL SUB SWAP3 SWAP1 SWAP3 AND SWAP2 SWAP1 SWAP2 OR SWAP1 SSTORE JUMP JUMPDEST PUSH1 0x0 PUSH2 0x465 DUP2 DUP4 PUSH4 0xFFFFFFFF PUSH2 0xD32 AND JUMP JUMPDEST SWAP3 SWAP2 POP POP JUMP JUMPDEST PUSH1 0x0 PUSH2 0x465 PUSH1 0x1 DUP4 PUSH4 0xFFFFFFFF PUSH2 0xD32 AND JUMP JUMPDEST PUSH2 0x48E PUSH2 0x489 PUSH2 0xD2E JUMP JUMPDEST PUSH2 0x453 JUMP JUMPDEST PUSH2 0x4C9 JUMPI PUSH1 0x40 MLOAD PUSH3 0x461BCD PUSH1 0xE5 SHL DUP2 MSTORE PUSH1 0x4 ADD DUP1 DUP1 PUSH1 0x20 ADD DUP3 DUP2 SUB DUP3 MSTORE PUSH1 0x30 DUP2 MSTORE PUSH1 0x20 ADD DUP1 PUSH2 0x16CF PUSH1 0x30 SWAP2 CODECOPY PUSH1 0x40 ADD SWAP2 POP POP PUSH1 0x40 MLOAD DUP1 SWAP2 SUB SWAP1 REVERT JUMPDEST PUSH2 0x4D2 DUP11 PUSH2 0xD99 JUMP JUMPDEST POP PUSH2 0x4DC DUP10 PUSH2 0xD99 JUMP JUMPDEST POP PUSH2 0x4E6 DUP9 PUSH2 0xD99 JUMP JUMPDEST POP PUSH2 0x4F0 DUP8 PUSH2 0xD99 JUMP JUMPDEST POP PUSH2 0x4FA DUP7 PUSH2 0xD99 JUMP JUMPDEST POP PUSH2 0x504 DUP6 PUSH2 0xD99 JUMP JUMPDEST POP PUSH2 0x50E DUP5 PUSH2 0xD99 JUMP JUMPDEST POP PUSH2 0x518 DUP4 PUSH2 0xD99 JUMP JUMPDEST POP PUSH2 0x522 DUP3 PUSH2 0xD99 JUMP JUMPDEST POP PUSH2 0x52C DUP2 PUSH2 0xD99 JUMP JUMPDEST POP POP POP POP POP POP POP POP POP POP POP JUMP JUMPDEST PUSH2 0x549 PUSH2 0x544 PUSH2 0xD2E JUMP JUMPDEST PUSH2 0xDD3 JUMP JUMPDEST JUMP JUMPDEST PUSH1 0x0 PUSH1 0x4 SLOAD TIMESTAMP LT ISZERO DUP1 ISZERO PUSH2 0x561 JUMPI POP PUSH1 0x5 SLOAD TIMESTAMP GT ISZERO JUMPDEST SWAP1 POP SWAP1 JUMP JUMPDEST PUSH2 0x571 PUSH2 0x3F1 PUSH2 0xD2E JUMP JUMPDEST PUSH2 0x5AC JUMPI PUSH1 0x40 MLOAD PUSH3 0x461BCD PUSH1 0xE5 SHL DUP2 MSTORE PUSH1 0x4 ADD DUP1 DUP1 PUSH1 0x20 ADD DUP3 DUP2 SUB DUP3 MSTORE PUSH1 0x2E DUP2 MSTORE PUSH1 0x20 ADD DUP1 PUSH2 0x17A3 PUSH1 0x2E SWAP2 CODECOPY PUSH1 0x40 ADD SWAP2 POP POP PUSH1 0x40 MLOAD DUP1 SWAP2 SUB SWAP1 REVERT JUMPDEST PUSH1 0x5 SLOAD PUSH1 0x4 SLOAD LT PUSH2 0x5EE JUMPI PUSH1 0x40 MLOAD PUSH3 0x461BCD PUSH1 0xE5 SHL DUP2 MSTORE PUSH1 0x4 ADD DUP1 DUP1 PUSH1 0x20 ADD DUP3 DUP2 SUB DUP3 MSTORE PUSH1 0x40 DUP2 MSTORE PUSH1 0x20 ADD DUP1 PUSH2 0x1720 PUSH1 0x40 SWAP2 CODECOPY PUSH1 0x40 ADD SWAP2 POP POP PUSH1 0x40 MLOAD DUP1 SWAP2 SUB SWAP1 REVERT JUMPDEST PUSH1 0x5 SLOAD PUSH2 0x603 SWAP1 PUSH2 0xD2F0 PUSH4 0xFFFFFFFF PUSH2 0xE1B AND JUMP JUMPDEST PUSH1 0x4 DUP2 SWAP1 SSTORE PUSH2 0x61A SWAP1 PUSH2 0x7E90 PUSH4 0xFFFFFFFF PUSH2 0xE1B AND JUMP JUMPDEST PUSH1 0x5 SSTORE JUMP JUMPDEST PUSH2 0x62A PUSH2 0x3F1 PUSH2 0xD2E JUMP JUMPDEST PUSH2 0x665 JUMPI PUSH1 0x40 MLOAD PUSH3 0x461BCD PUSH1 0xE5 SHL DUP2 MSTORE PUSH1 0x4 ADD DUP1 DUP1 PUSH1 0x20 ADD DUP3 DUP2 SUB DUP3 MSTORE PUSH1 0x2E DUP2 MSTORE PUSH1 0x20 ADD DUP1 PUSH2 0x17A3 PUSH1 0x2E SWAP2 CODECOPY PUSH1 0x40 ADD SWAP2 POP POP PUSH1 0x40 MLOAD DUP1 SWAP2 SUB SWAP1 REVERT JUMPDEST PUSH2 0x66E DUP2 PUSH2 0xE75 JUMP JUMPDEST POP JUMP JUMPDEST PUSH2 0x67C PUSH2 0x489 PUSH2 0xD2E JUMP JUMPDEST PUSH2 0x6B7 JUMPI PUSH1 0x40 MLOAD PUSH3 0x461BCD PUSH1 0xE5 SHL DUP2 MSTORE PUSH1 0x4 ADD DUP1 DUP1 PUSH1 0x20 ADD DUP3 DUP2 SUB DUP3 MSTORE PUSH1 0x30 DUP2 MSTORE PUSH1 0x20 ADD DUP1 PUSH2 0x16CF PUSH1 0x30 SWAP2 CODECOPY PUSH1 0x40 ADD SWAP2 POP POP PUSH1 0x40 MLOAD DUP1 SWAP2 SUB SWAP1 REVERT JUMPDEST PUSH2 0x66E DUP2 PUSH2 0xEBD JUMP JUMPDEST PUSH2 0x549 PUSH2 0x6CB PUSH2 0xD2E JUMP JUMPDEST PUSH2 0xF05 JUMP JUMPDEST PUSH2 0x6DB PUSH2 0x3F1 PUSH2 0xD2E JUMP JUMPDEST PUSH2 0x716 JUMPI PUSH1 0x40 MLOAD PUSH3 0x461BCD PUSH1 0xE5 SHL DUP2 MSTORE PUSH1 0x4 ADD DUP1 DUP1 PUSH1 0x20 ADD DUP3 DUP2 SUB DUP3 MSTORE PUSH1 0x2E DUP2 MSTORE PUSH1 0x20 ADD DUP1 PUSH2 0x17A3 PUSH1 0x2E SWAP2 CODECOPY PUSH1 0x40 ADD SWAP2 POP POP PUSH1 0x40 MLOAD DUP1 SWAP2 SUB SWAP1 REVERT JUMPDEST PUSH1 0x3 DUP1 SLOAD PUSH1 0x1 PUSH1 0x1 PUSH1 0xA0 SHL SUB NOT AND PUSH1 0x1 PUSH1 0x1 PUSH1 0xA0 SHL SUB SWAP3 SWAP1 SWAP3 AND SWAP2 SWAP1 SWAP2 OR SWAP1 SSTORE JUMP JUMPDEST PUSH1 0x0 PUSH2 0x745 PUSH2 0x489 PUSH2 0xD2E JUMP JUMPDEST PUSH2 0x780 JUMPI PUSH1 0x40 MLOAD PUSH3 0x461BCD PUSH1 0xE5 SHL DUP2 MSTORE PUSH1 0x4 ADD DUP1 DUP1 PUSH1 0x20 ADD DUP3 DUP2 SUB DUP3 MSTORE PUSH1 0x30 DUP2 MSTORE PUSH1 0x20 ADD DUP1 PUSH2 0x16CF PUSH1 0x30 SWAP2 CODECOPY PUSH1 0x40 ADD SWAP2 POP POP PUSH1 0x40 MLOAD DUP1 SWAP2 SUB SWAP1 REVERT JUMPDEST PUSH1 0x7 DUP1 SLOAD PUSH1 0x0 SWAP2 SWAP1 PUSH2 0x799 SWAP1 PUSH1 0x1 PUSH4 0xFFFFFFFF PUSH2 0xCE5 AND JUMP JUMPDEST DUP2 SLOAD DUP2 LT PUSH2 0x7A3 JUMPI INVALID JUMPDEST PUSH1 0x0 SWAP2 DUP3 MSTORE PUSH1 0x20 DUP3 KECCAK256 ADD SLOAD SWAP2 POP DUP4 DUP3 ADD SWAP1 DUP1 DUP3 SGT PUSH2 0x808 JUMPI PUSH1 0x40 DUP1 MLOAD PUSH3 0x461BCD PUSH1 0xE5 SHL DUP2 MSTORE PUSH1 0x20 PUSH1 0x4 DUP3 ADD MSTORE PUSH1 0x17 PUSH1 0x24 DUP3 ADD MSTORE PUSH32 0x5072696365206D75737420626520706F73697469766521000000000000000000 PUSH1 0x44 DUP3 ADD MSTORE SWAP1 MLOAD SWAP1 DUP2 SWAP1 SUB PUSH1 0x64 ADD SWAP1 REVERT JUMPDEST PUSH2 0x813 PUSH2 0x3F1 PUSH2 0xD2E JUMP JUMPDEST ISZERO PUSH2 0x8C8 JUMPI PUSH2 0x820 PUSH2 0x54B JUMP JUMPDEST PUSH2 0x864 JUMPI PUSH1 0x40 DUP1 MLOAD PUSH3 0x461BCD PUSH1 0xE5 SHL DUP2 MSTORE PUSH1 0x20 PUSH1 0x4 DUP3 ADD MSTORE PUSH1 0x10 PUSH1 0x24 DUP3 ADD MSTORE PUSH16 0x13585C9AD95D081A5CC818DB1BDCD959 PUSH1 0x82 SHL PUSH1 0x44 DUP3 ADD MSTORE SWAP1 MLOAD SWAP1 DUP2 SWAP1 SUB PUSH1 0x64 ADD SWAP1 REVERT JUMPDEST PUSH2 0x86D DUP3 PUSH2 0xD99 JUMP JUMPDEST POP PUSH1 0x7 SLOAD PUSH2 0x882 SWAP1 PUSH1 0x1 PUSH4 0xFFFFFFFF PUSH2 0xCE5 AND JUMP JUMPDEST SWAP1 POP DUP2 DUP2 PUSH2 0x88E PUSH2 0xD2E JUMP JUMPDEST PUSH1 0x1 PUSH1 0x1 PUSH1 0xA0 SHL SUB AND PUSH32 0x24E1C492BC15609A5125924E67E792A203A4F550A353426FAD01A2C6D5FF976 PUSH1 0x40 MLOAD PUSH1 0x40 MLOAD DUP1 SWAP2 SUB SWAP1 LOG4 PUSH2 0xA09 JUMP JUMPDEST PUSH1 0x6 SLOAD PUSH1 0x4 PUSH1 0xFF SWAP1 SWAP2 AND LT PUSH2 0x91D JUMPI PUSH1 0x40 DUP1 MLOAD PUSH3 0x461BCD PUSH1 0xE5 SHL DUP2 MSTORE PUSH1 0x20 PUSH1 0x4 DUP3 ADD MSTORE PUSH1 0x16 PUSH1 0x24 DUP3 ADD MSTORE PUSH22 0x20B63932B0B23C9031B0B63639901A103A34B6B2B997 PUSH1 0x51 SHL PUSH1 0x44 DUP3 ADD MSTORE SWAP1 MLOAD SWAP1 DUP2 SWAP1 SUB PUSH1 0x64 ADD SWAP1 REVERT JUMPDEST PUSH2 0x94F PUSH2 0x942 PUSH1 0x64 PUSH2 0x936 DUP7 PUSH1 0xA PUSH4 0xFFFFFFFF PUSH2 0xF4D AND JUMP JUMPDEST SWAP1 PUSH4 0xFFFFFFFF PUSH2 0xFA6 AND JUMP JUMPDEST DUP5 SWAP1 PUSH4 0xFFFFFFFF PUSH2 0xCE5 AND JUMP JUMPDEST DUP3 GT DUP1 ISZERO PUSH2 0x981 JUMPI POP PUSH2 0x97E PUSH2 0x971 PUSH1 0x64 PUSH2 0x936 DUP7 PUSH1 0xA PUSH4 0xFFFFFFFF PUSH2 0xF4D AND JUMP JUMPDEST DUP5 SWAP1 PUSH4 0xFFFFFFFF PUSH2 0xE1B AND JUMP JUMPDEST DUP3 LT JUMPDEST PUSH2 0x9D2 JUMPI PUSH1 0x40 DUP1 MLOAD PUSH3 0x461BCD PUSH1 0xE5 SHL DUP2 MSTORE PUSH1 0x20 PUSH1 0x4 DUP3 ADD MSTORE PUSH1 0x1C PUSH1 0x24 DUP3 ADD MSTORE PUSH32 0x43616E2774206368616E6765206D6F7265207468616E202D2B31302500000000 PUSH1 0x44 DUP3 ADD MSTORE SWAP1 MLOAD SWAP1 DUP2 SWAP1 SUB PUSH1 0x64 ADD SWAP1 REVERT JUMPDEST PUSH2 0x9DB DUP3 PUSH2 0xD99 JUMP JUMPDEST POP PUSH1 0x7 SLOAD PUSH2 0x9F0 SWAP1 PUSH1 0x1 PUSH4 0xFFFFFFFF PUSH2 0xCE5 AND JUMP JUMPDEST PUSH1 0x6 DUP1 SLOAD PUSH1 0xFF DUP1 DUP3 AND PUSH1 0x1 ADD AND PUSH1 0xFF NOT SWAP1 SWAP2 AND OR SWAP1 SSTORE SWAP1 POP JUMPDEST SWAP5 SWAP4 POP POP POP POP JUMP JUMPDEST PUSH1 0x0 PUSH1 0x7 DUP3 DUP2 SLOAD DUP2 LT PUSH2 0xA20 JUMPI INVALID JUMPDEST SWAP1 PUSH1 0x0 MSTORE PUSH1 0x20 PUSH1 0x0 KECCAK256 ADD SLOAD SWAP1 POP SWAP2 SWAP1 POP JUMP JUMPDEST PUSH2 0xA3D PUSH2 0x3F1 PUSH2 0xD2E JUMP JUMPDEST PUSH2 0xA78 JUMPI PUSH1 0x40 MLOAD PUSH3 0x461BCD PUSH1 0xE5 SHL DUP2 MSTORE PUSH1 0x4 ADD DUP1 DUP1 PUSH1 0x20 ADD DUP3 DUP2 SUB DUP3 MSTORE PUSH1 0x2E DUP2 MSTORE PUSH1 0x20 ADD DUP1 PUSH2 0x17A3 PUSH1 0x2E SWAP2 CODECOPY PUSH1 0x40 ADD SWAP2 POP POP PUSH1 0x40 MLOAD DUP1 SWAP2 SUB SWAP1 REVERT JUMPDEST PUSH1 0x8 DUP2 SWAP1 SSTORE DUP1 PUSH2 0xA86 PUSH2 0xD2E JUMP JUMPDEST PUSH1 0x1 PUSH1 0x1 PUSH1 0xA0 SHL SUB AND PUSH32 0x16C752BDF6502CC829C9A81132E2E73AEB12D145E0E3B1CD632A9759485A5F53 PUSH1 0x40 MLOAD PUSH1 0x40 MLOAD DUP1 SWAP2 SUB SWAP1 LOG3 POP JUMP JUMPDEST PUSH1 0x0 PUSH2 0xAC8 PUSH2 0x54B JUMP JUMPDEST PUSH2 0xB0C JUMPI PUSH1 0x40 DUP1 MLOAD PUSH3 0x461BCD PUSH1 0xE5 SHL DUP2 MSTORE PUSH1 0x20 PUSH1 0x4 DUP3 ADD MSTORE PUSH1 0x10 PUSH1 0x24 DUP3 ADD MSTORE PUSH16 0x13585C9AD95D081A5CC818DB1BDCD959 PUSH1 0x82 SHL PUSH1 0x44 DUP3 ADD MSTORE SWAP1 MLOAD SWAP1 DUP2 SWAP1 SUB PUSH1 0x64 ADD SWAP1 REVERT JUMPDEST PUSH1 0x8 SLOAD TIMESTAMP GT DUP1 ISZERO PUSH2 0xB1E JUMPI POP PUSH1 0x9 SLOAD TIMESTAMP LT JUMPDEST PUSH2 0xB6F JUMPI PUSH1 0x40 DUP1 MLOAD PUSH3 0x461BCD PUSH1 0xE5 SHL DUP2 MSTORE PUSH1 0x20 PUSH1 0x4 DUP3 ADD MSTORE PUSH1 0x1C PUSH1 0x24 DUP3 ADD MSTORE PUSH32 0x546865206D61726B657420697320636C6F736520666F72657665722E00000000 PUSH1 0x44 DUP3 ADD MSTORE SWAP1 MLOAD SWAP1 DUP2 SWAP1 SUB PUSH1 0x64 ADD SWAP1 REVERT JUMPDEST PUSH2 0xB80 PUSH2 0xB7A PUSH2 0xD2E JUMP JUMPDEST DUP4 PUSH2 0xFE8 JUMP JUMPDEST POP PUSH1 0x1 SWAP2 SWAP1 POP JUMP JUMPDEST PUSH2 0xB93 PUSH2 0x3F1 PUSH2 0xD2E JUMP JUMPDEST PUSH2 0xBCE JUMPI PUSH1 0x40 MLOAD PUSH3 0x461BCD PUSH1 0xE5 SHL DUP2 MSTORE PUSH1 0x4 ADD DUP1 DUP1 PUSH1 0x20 ADD DUP3 DUP2 SUB DUP3 MSTORE PUSH1 0x2E DUP2 MSTORE PUSH1 0x20 ADD DUP1 PUSH2 0x17A3 PUSH1 0x2E SWAP2 CODECOPY PUSH1 0x40 ADD SWAP2 POP POP PUSH1 0x40 MLOAD DUP1 SWAP2 SUB SWAP1 REVERT JUMPDEST PUSH1 0x9 DUP2 SWAP1 SSTORE DUP1 PUSH2 0xBDC PUSH2 0xD2E JUMP JUMPDEST PUSH1 0x1 PUSH1 0x1 PUSH1 0xA0 SHL SUB AND PUSH32 0x9CD0F0F4C626F6284B893EFF5AA9A5F50E76B4FA9811BF3EC86AC52CC6ED7827 PUSH1 0x40 MLOAD PUSH1 0x40 MLOAD DUP1 SWAP2 SUB SWAP1 LOG3 POP JUMP JUMPDEST PUSH1 0x0 PUSH2 0xC1E PUSH2 0x54B JUMP JUMPDEST PUSH2 0xC62 JUMPI PUSH1 0x40 DUP1 MLOAD PUSH3 0x461BCD PUSH1 0xE5 SHL DUP2 MSTORE PUSH1 0x20 PUSH1 0x4 DUP3 ADD MSTORE PUSH1 0x10 PUSH1 0x24 DUP3 ADD MSTORE PUSH16 0x13585C9AD95D081A5CC818DB1BDCD959 PUSH1 0x82 SHL PUSH1 0x44 DUP3 ADD MSTORE SWAP1 MLOAD SWAP1 DUP2 SWAP1 SUB PUSH1 0x64 ADD SWAP1 REVERT JUMPDEST PUSH1 0x8 SLOAD TIMESTAMP GT DUP1 ISZERO PUSH2 0xC74 JUMPI POP PUSH1 0x9 SLOAD TIMESTAMP LT JUMPDEST PUSH2 0xCC5 JUMPI PUSH1 0x40 DUP1 MLOAD PUSH3 0x461BCD PUSH1 0xE5 SHL DUP2 MSTORE PUSH1 0x20 PUSH1 0x4 DUP3 ADD MSTORE PUSH1 0x1C PUSH1 0x24 DUP3 ADD MSTORE PUSH32 0x546865206D61726B657420697320636C6F736520666F72657665722E00000000 PUSH1 0x44 DUP3 ADD MSTORE SWAP1 MLOAD SWAP1 DUP2 SWAP1 SUB PUSH1 0x64 ADD SWAP1 REVERT JUMPDEST PUSH2 0xB80 PUSH2 0xCD0 PUSH2 0xD2E JUMP JUMPDEST DUP4 PUSH2 0x11E4 JUMP JUMPDEST PUSH1 0x3 SLOAD PUSH1 0x1 PUSH1 0x1 PUSH1 0xA0 SHL SUB AND DUP2 JUMP JUMPDEST PUSH1 0x0 PUSH2 0xD27 DUP4 DUP4 PUSH1 0x40 MLOAD DUP1 PUSH1 0x40 ADD PUSH1 0x40 MSTORE DUP1 PUSH1 0x1E DUP2 MSTORE PUSH1 0x20 ADD PUSH32 0x536166654D6174683A207375627472616374696F6E206F766572666C6F770000 DUP2 MSTORE POP PUSH2 0x13A0 JUMP JUMPDEST SWAP4 SWAP3 POP POP POP JUMP JUMPDEST CALLER SWAP1 JUMP JUMPDEST PUSH1 0x0 PUSH1 0x1 PUSH1 0x1 PUSH1 0xA0 SHL SUB DUP3 AND PUSH2 0xD79 JUMPI PUSH1 0x40 MLOAD PUSH3 0x461BCD PUSH1 0xE5 SHL DUP2 MSTORE PUSH1 0x4 ADD DUP1 DUP1 PUSH1 0x20 ADD DUP3 DUP2 SUB DUP3 MSTORE PUSH1 0x22 DUP2 MSTORE PUSH1 0x20 ADD DUP1 PUSH2 0x1781 PUSH1 0x22 SWAP2 CODECOPY PUSH1 0x40 ADD SWAP2 POP POP PUSH1 0x40 MLOAD DUP1 SWAP2 SUB SWAP1 REVERT JUMPDEST POP PUSH1 0x1 PUSH1 0x1 PUSH1 0xA0 SHL SUB AND PUSH1 0x0 SWAP1 DUP2 MSTORE PUSH1 0x20 SWAP2 SWAP1 SWAP2 MSTORE PUSH1 0x40 SWAP1 KECCAK256 SLOAD PUSH1 0xFF AND SWAP1 JUMP JUMPDEST PUSH1 0x7 DUP1 SLOAD PUSH1 0x1 DUP1 DUP3 ADD DUP4 SSTORE PUSH1 0x0 SWAP3 SWAP1 SWAP3 MSTORE PUSH32 0xA66CC928B5EDB82AF9BD49922954155AB7B0942694BEA4CE44661D9A8736C688 ADD SWAP2 SWAP1 SWAP2 SSTORE SWAP1 JUMP JUMPDEST PUSH2 0xDE4 PUSH1 0x0 DUP3 PUSH4 0xFFFFFFFF PUSH2 0x1437 AND JUMP JUMPDEST PUSH1 0x40 MLOAD PUSH1 0x1 PUSH1 0x1 PUSH1 0xA0 SHL SUB DUP3 AND SWAP1 PUSH32 0xE5C6F32FB04B7DE81910252A1E1D29267CD9E5FC428AFAD67442D00C7B127BD0 SWAP1 PUSH1 0x0 SWAP1 LOG2 POP JUMP JUMPDEST PUSH1 0x0 DUP3 DUP3 ADD DUP4 DUP2 LT ISZERO PUSH2 0xD27 JUMPI PUSH1 0x40 DUP1 MLOAD PUSH3 0x461BCD PUSH1 0xE5 SHL DUP2 MSTORE PUSH1 0x20 PUSH1 0x4 DUP3 ADD MSTORE PUSH1 0x1B PUSH1 0x24 DUP3 ADD MSTORE PUSH32 0x536166654D6174683A206164646974696F6E206F766572666C6F770000000000 PUSH1 0x44 DUP3 ADD MSTORE SWAP1 MLOAD SWAP1 DUP2 SWAP1 SUB PUSH1 0x64 ADD SWAP1 REVERT JUMPDEST PUSH2 0xE86 PUSH1 0x1 DUP3 PUSH4 0xFFFFFFFF PUSH2 0x149E AND JUMP JUMPDEST PUSH1 0x40 MLOAD PUSH1 0x1 PUSH1 0x1 PUSH1 0xA0 SHL SUB DUP3 AND SWAP1 PUSH32 0x44D6D25963F097AD14F29F06854A01F575648A1EF82F30E562CCD3889717E339 SWAP1 PUSH1 0x0 SWAP1 LOG2 POP JUMP JUMPDEST PUSH2 0xECE PUSH1 0x0 DUP3 PUSH4 0xFFFFFFFF PUSH2 0x149E AND JUMP JUMPDEST PUSH1 0x40 MLOAD PUSH1 0x1 PUSH1 0x1 PUSH1 0xA0 SHL SUB DUP3 AND SWAP1 PUSH32 0x40C56D2C4C08EEAD919E7228CF5B749297271698EC38E954D322EF4BCF1D58FB SWAP1 PUSH1 0x0 SWAP1 LOG2 POP JUMP JUMPDEST PUSH2 0xF16 PUSH1 0x1 DUP3 PUSH4 0xFFFFFFFF PUSH2 0x1437 AND JUMP JUMPDEST PUSH1 0x40 MLOAD PUSH1 0x1 PUSH1 0x1 PUSH1 0xA0 SHL SUB DUP3 AND SWAP1 PUSH32 0xA3B62BC36326052D97EA62D63C3D60308ED4C3EA8AC079DD8499F1E9C4F80C0F SWAP1 PUSH1 0x0 SWAP1 LOG2 POP JUMP JUMPDEST PUSH1 0x0 DUP3 PUSH2 0xF5C JUMPI POP PUSH1 0x0 PUSH2 0x465 JUMP JUMPDEST DUP3 DUP3 MUL DUP3 DUP5 DUP3 DUP2 PUSH2 0xF69 JUMPI INVALID JUMPDEST DIV EQ PUSH2 0xD27 JUMPI PUSH1 0x40 MLOAD PUSH3 0x461BCD PUSH1 0xE5 SHL DUP2 MSTORE PUSH1 0x4 ADD DUP1 DUP1 PUSH1 0x20 ADD DUP3 DUP2 SUB DUP3 MSTORE PUSH1 0x21 DUP2 MSTORE PUSH1 0x20 ADD DUP1 PUSH2 0x1760 PUSH1 0x21 SWAP2 CODECOPY PUSH1 0x40 ADD SWAP2 POP POP PUSH1 0x40 MLOAD DUP1 SWAP2 SUB SWAP1 REVERT JUMPDEST PUSH1 0x0 PUSH2 0xD27 DUP4 DUP4 PUSH1 0x40 MLOAD DUP1 PUSH1 0x40 ADD PUSH1 0x40 MSTORE DUP1 PUSH1 0x1A DUP2 MSTORE PUSH1 0x20 ADD PUSH32 0x536166654D6174683A206469766973696F6E206279207A65726F000000000000 DUP2 MSTORE POP PUSH2 0x151F JUMP JUMPDEST PUSH1 0x1 PUSH1 0x1 PUSH1 0xA0 SHL SUB DUP3 AND PUSH2 0x1043 JUMPI PUSH1 0x40 DUP1 MLOAD PUSH3 0x461BCD PUSH1 0xE5 SHL DUP2 MSTORE PUSH1 0x20 PUSH1 0x4 DUP3 ADD MSTORE PUSH1 0x1D PUSH1 0x24 DUP3 ADD MSTORE PUSH32 0x526563697069656E7420697320746865207A65726F2061646472657373000000 PUSH1 0x44 DUP3 ADD MSTORE SWAP1 MLOAD SWAP1 DUP2 SWAP1 SUB PUSH1 0x64 ADD SWAP1 REVERT JUMPDEST PUSH1 0x3 SLOAD PUSH1 0xB SLOAD PUSH1 0x1 PUSH1 0x1 PUSH1 0xA0 SHL SUB SWAP2 DUP3 AND SWAP2 PUSH4 0x23B872DD SWAP2 DUP6 SWAP2 AND PUSH2 0x1069 DUP6 PUSH1 0x1 PUSH2 0x1584 JUMP JUMPDEST PUSH1 0x40 MLOAD DUP5 PUSH4 0xFFFFFFFF AND PUSH1 0xE0 SHL DUP2 MSTORE PUSH1 0x4 ADD DUP1 DUP5 PUSH1 0x1 PUSH1 0x1 PUSH1 0xA0 SHL SUB AND PUSH1 0x1 PUSH1 0x1 PUSH1 0xA0 SHL SUB AND DUP2 MSTORE PUSH1 0x20 ADD DUP4 PUSH1 0x1 PUSH1 0x1 PUSH1 0xA0 SHL SUB AND PUSH1 0x1 PUSH1 0x1 PUSH1 0xA0 SHL SUB AND DUP2 MSTORE PUSH1 0x20 ADD DUP3 DUP2 MSTORE PUSH1 0x20 ADD SWAP4 POP POP POP POP PUSH1 0x20 PUSH1 0x40 MLOAD DUP1 DUP4 SUB DUP2 PUSH1 0x0 DUP8 DUP1 EXTCODESIZE ISZERO DUP1 ISZERO PUSH2 0x10D1 JUMPI PUSH1 0x0 DUP1 REVERT JUMPDEST POP GAS CALL ISZERO DUP1 ISZERO PUSH2 0x10E5 JUMPI RETURNDATASIZE PUSH1 0x0 DUP1 RETURNDATACOPY RETURNDATASIZE PUSH1 0x0 REVERT JUMPDEST POP POP POP POP PUSH1 0x40 MLOAD RETURNDATASIZE PUSH1 0x20 DUP2 LT ISZERO PUSH2 0x10FB JUMPI PUSH1 0x0 DUP1 REVERT JUMPDEST POP POP PUSH1 0x2 SLOAD PUSH1 0x40 DUP1 MLOAD PUSH4 0x40C10F19 PUSH1 0xE0 SHL DUP2 MSTORE PUSH1 0x1 PUSH1 0x1 PUSH1 0xA0 SHL SUB DUP6 DUP2 AND PUSH1 0x4 DUP4 ADD MSTORE PUSH1 0x24 DUP3 ADD DUP6 SWAP1 MSTORE SWAP2 MLOAD SWAP2 SWAP1 SWAP3 AND SWAP2 PUSH4 0x40C10F19 SWAP2 PUSH1 0x44 DUP1 DUP4 ADD SWAP3 PUSH1 0x20 SWAP3 SWAP2 SWAP1 DUP3 SWAP1 SUB ADD DUP2 PUSH1 0x0 DUP8 DUP1 EXTCODESIZE ISZERO DUP1 ISZERO PUSH2 0x1153 JUMPI PUSH1 0x0 DUP1 REVERT JUMPDEST POP GAS CALL ISZERO DUP1 ISZERO PUSH2 0x1167 JUMPI RETURNDATASIZE PUSH1 0x0 DUP1 RETURNDATACOPY RETURNDATASIZE PUSH1 0x0 REVERT JUMPDEST POP POP POP POP PUSH1 0x40 MLOAD RETURNDATASIZE PUSH1 0x20 DUP2 LT ISZERO PUSH2 0x117D JUMPI PUSH1 0x0 DUP1 REVERT JUMPDEST POP POP PUSH1 0x7 DUP1 SLOAD PUSH2 0x1194 SWAP1 PUSH1 0x1 PUSH4 0xFFFFFFFF PUSH2 0xCE5 AND JUMP JUMPDEST DUP2 SLOAD DUP2 LT PUSH2 0x119E JUMPI INVALID JUMPDEST SWAP1 PUSH1 0x0 MSTORE PUSH1 0x20 PUSH1 0x0 KECCAK256 ADD SLOAD DUP2 DUP4 PUSH1 0x1 PUSH1 0x1 PUSH1 0xA0 SHL SUB AND PUSH32 0x1CBC5AB135991BD2B6A4B034A04AA2AA086DAC1371CB9B16B8B5E2ED6B036BED PUSH1 0x40 MLOAD PUSH1 0x40 MLOAD DUP1 SWAP2 SUB SWAP1 LOG4 POP POP JUMP JUMPDEST PUSH1 0x1 PUSH1 0x1 PUSH1 0xA0 SHL SUB DUP3 AND PUSH2 0x123F JUMPI PUSH1 0x40 DUP1 MLOAD PUSH3 0x461BCD PUSH1 0xE5 SHL DUP2 MSTORE PUSH1 0x20 PUSH1 0x4 DUP3 ADD MSTORE PUSH1 0x1A PUSH1 0x24 DUP3 ADD MSTORE PUSH32 0x53656C6C657220697320746865207A65726F2061646472657373000000000000 PUSH1 0x44 DUP3 ADD MSTORE SWAP1 MLOAD SWAP1 DUP2 SWAP1 SUB PUSH1 0x64 ADD SWAP1 REVERT JUMPDEST PUSH1 0x2 SLOAD PUSH1 0x40 DUP1 MLOAD PUSH4 0x79CC679 PUSH1 0xE4 SHL DUP2 MSTORE PUSH1 0x1 PUSH1 0x1 PUSH1 0xA0 SHL SUB DUP6 DUP2 AND PUSH1 0x4 DUP4 ADD MSTORE PUSH1 0x24 DUP3 ADD DUP6 SWAP1 MSTORE SWAP2 MLOAD SWAP2 SWAP1 SWAP3 AND SWAP2 PUSH4 0x79CC6790 SWAP2 PUSH1 0x44 DUP1 DUP4 ADD SWAP3 PUSH1 0x0 SWAP3 SWAP2 SWAP1 DUP3 SWAP1 SUB ADD DUP2 DUP4 DUP8 DUP1 EXTCODESIZE ISZERO DUP1 ISZERO PUSH2 0x1294 JUMPI PUSH1 0x0 DUP1 REVERT JUMPDEST POP GAS CALL ISZERO DUP1 ISZERO PUSH2 0x12A8 JUMPI RETURNDATASIZE PUSH1 0x0 DUP1 RETURNDATACOPY RETURNDATASIZE PUSH1 0x0 REVERT JUMPDEST POP POP PUSH1 0x3 SLOAD PUSH1 0x1 PUSH1 0x1 PUSH1 0xA0 SHL SUB AND SWAP2 POP PUSH4 0x40C10F19 SWAP1 POP DUP4 PUSH2 0x12CB DUP5 PUSH1 0x0 PUSH2 0x1584 JUMP JUMPDEST PUSH1 0x40 MLOAD DUP4 PUSH4 0xFFFFFFFF AND PUSH1 0xE0 SHL DUP2 MSTORE PUSH1 0x4 ADD DUP1 DUP4 PUSH1 0x1 PUSH1 0x1 PUSH1 0xA0 SHL SUB AND PUSH1 0x1 PUSH1 0x1 PUSH1 0xA0 SHL SUB AND DUP2 MSTORE PUSH1 0x20 ADD DUP3 DUP2 MSTORE PUSH1 0x20 ADD SWAP3 POP POP POP PUSH1 0x20 PUSH1 0x40 MLOAD DUP1 DUP4 SUB DUP2 PUSH1 0x0 DUP8 DUP1 EXTCODESIZE ISZERO DUP1 ISZERO PUSH2 0x131A JUMPI PUSH1 0x0 DUP1 REVERT JUMPDEST POP GAS CALL ISZERO DUP1 ISZERO PUSH2 0x132E JUMPI RETURNDATASIZE PUSH1 0x0 DUP1 RETURNDATACOPY RETURNDATASIZE PUSH1 0x0 REVERT JUMPDEST POP POP POP POP PUSH1 0x40 MLOAD RETURNDATASIZE PUSH1 0x20 DUP2 LT ISZERO PUSH2 0x1344 JUMPI PUSH1 0x0 DUP1 REVERT JUMPDEST POP POP PUSH1 0x7 DUP1 SLOAD PUSH2 0x135B SWAP1 PUSH1 0x1 PUSH4 0xFFFFFFFF PUSH2 0xCE5 AND JUMP JUMPDEST DUP2 SLOAD DUP2 LT PUSH2 0x1365 JUMPI INVALID JUMPDEST PUSH1 0x0 SWAP2 DUP3 MSTORE PUSH1 0x20 DUP3 KECCAK256 ADD SLOAD PUSH1 0x40 MLOAD SWAP1 SWAP2 DUP4 SWAP2 ADDRESS SWAP2 PUSH32 0xED7A144FAD14804D5C249145E3E0E2B63A9EB455B76AEE5BC92D711E9BBA3E4A SWAP2 LOG4 POP POP JUMP JUMPDEST PUSH1 0x0 DUP2 DUP5 DUP5 GT ISZERO PUSH2 0x142F JUMPI PUSH1 0x40 MLOAD PUSH3 0x461BCD PUSH1 0xE5 SHL DUP2 MSTORE PUSH1 0x4 ADD DUP1 DUP1 PUSH1 0x20 ADD DUP3 DUP2 SUB DUP3 MSTORE DUP4 DUP2 DUP2 MLOAD DUP2 MSTORE PUSH1 0x20 ADD SWAP2 POP DUP1 MLOAD SWAP1 PUSH1 0x20 ADD SWAP1 DUP1 DUP4 DUP4 PUSH1 0x0 JUMPDEST DUP4 DUP2 LT ISZERO PUSH2 0x13F4 JUMPI DUP2 DUP2 ADD MLOAD DUP4 DUP3 ADD MSTORE PUSH1 0x20 ADD PUSH2 0x13DC JUMP JUMPDEST POP POP POP POP SWAP1 POP SWAP1 DUP2 ADD SWAP1 PUSH1 0x1F AND DUP1 ISZERO PUSH2 0x1421 JUMPI DUP1 DUP3 SUB DUP1 MLOAD PUSH1 0x1 DUP4 PUSH1 0x20 SUB PUSH2 0x100 EXP SUB NOT AND DUP2 MSTORE PUSH1 0x20 ADD SWAP2 POP JUMPDEST POP SWAP3 POP POP POP PUSH1 0x40 MLOAD DUP1 SWAP2 SUB SWAP1 REVERT JUMPDEST POP POP POP SWAP1 SUB SWAP1 JUMP JUMPDEST PUSH2 0x1441 DUP3 DUP3 PUSH2 0xD32 JUMP JUMPDEST PUSH2 0x147C JUMPI PUSH1 0x40 MLOAD PUSH3 0x461BCD PUSH1 0xE5 SHL DUP2 MSTORE PUSH1 0x4 ADD DUP1 DUP1 PUSH1 0x20 ADD DUP3 DUP2 SUB DUP3 MSTORE PUSH1 0x21 DUP2 MSTORE PUSH1 0x20 ADD DUP1 PUSH2 0x16FF PUSH1 0x21 SWAP2 CODECOPY PUSH1 0x40 ADD SWAP2 POP POP PUSH1 0x40 MLOAD DUP1 SWAP2 SUB SWAP1 REVERT JUMPDEST PUSH1 0x1 PUSH1 0x1 PUSH1 0xA0 SHL SUB AND PUSH1 0x0 SWAP1 DUP2 MSTORE PUSH1 0x20 SWAP2 SWAP1 SWAP2 MSTORE PUSH1 0x40 SWAP1 KECCAK256 DUP1 SLOAD PUSH1 0xFF NOT AND SWAP1 SSTORE JUMP JUMPDEST PUSH2 0x14A8 DUP3 DUP3 PUSH2 0xD32 JUMP JUMPDEST ISZERO PUSH2 0x14FA JUMPI PUSH1 0x40 DUP1 MLOAD PUSH3 0x461BCD PUSH1 0xE5 SHL DUP2 MSTORE PUSH1 0x20 PUSH1 0x4 DUP3 ADD MSTORE PUSH1 0x1F PUSH1 0x24 DUP3 ADD MSTORE PUSH32 0x526F6C65733A206163636F756E7420616C72656164792068617320726F6C6500 PUSH1 0x44 DUP3 ADD MSTORE SWAP1 MLOAD SWAP1 DUP2 SWAP1 SUB PUSH1 0x64 ADD SWAP1 REVERT JUMPDEST PUSH1 0x1 PUSH1 0x1 PUSH1 0xA0 SHL SUB AND PUSH1 0x0 SWAP1 DUP2 MSTORE PUSH1 0x20 SWAP2 SWAP1 SWAP2 MSTORE PUSH1 0x40 SWAP1 KECCAK256 DUP1 SLOAD PUSH1 0xFF NOT AND PUSH1 0x1 OR SWAP1 SSTORE JUMP JUMPDEST PUSH1 0x0 DUP2 DUP4 PUSH2 0x156E JUMPI PUSH1 0x40 MLOAD PUSH3 0x461BCD PUSH1 0xE5 SHL DUP2 MSTORE PUSH1 0x20 PUSH1 0x4 DUP3 ADD DUP2 DUP2 MSTORE DUP4 MLOAD PUSH1 0x24 DUP5 ADD MSTORE DUP4 MLOAD SWAP1 SWAP3 DUP4 SWAP3 PUSH1 0x44 SWAP1 SWAP2 ADD SWAP2 SWAP1 DUP6 ADD SWAP1 DUP1 DUP4 DUP4 PUSH1 0x0 DUP4 ISZERO PUSH2 0x13F4 JUMPI DUP2 DUP2 ADD MLOAD DUP4 DUP3 ADD MSTORE PUSH1 0x20 ADD PUSH2 0x13DC JUMP JUMPDEST POP PUSH1 0x0 DUP4 DUP6 DUP2 PUSH2 0x157A JUMPI INVALID JUMPDEST DIV SWAP6 SWAP5 POP POP POP POP POP JUMP JUMPDEST PUSH1 0x0 DUP1 PUSH1 0x2 PUSH1 0x0 SWAP1 SLOAD SWAP1 PUSH2 0x100 EXP SWAP1 DIV PUSH1 0x1 PUSH1 0x1 PUSH1 0xA0 SHL SUB AND PUSH1 0x1 PUSH1 0x1 PUSH1 0xA0 SHL SUB AND PUSH4 0x313CE567 PUSH1 0x40 MLOAD DUP2 PUSH4 0xFFFFFFFF AND PUSH1 0xE0 SHL DUP2 MSTORE PUSH1 0x4 ADD PUSH1 0x20 PUSH1 0x40 MLOAD DUP1 DUP4 SUB DUP2 DUP7 DUP1 EXTCODESIZE ISZERO DUP1 ISZERO PUSH2 0x15D5 JUMPI PUSH1 0x0 DUP1 REVERT JUMPDEST POP GAS STATICCALL ISZERO DUP1 ISZERO PUSH2 0x15E9 JUMPI RETURNDATASIZE PUSH1 0x0 DUP1 RETURNDATACOPY RETURNDATASIZE PUSH1 0x0 REVERT JUMPDEST POP POP POP POP PUSH1 0x40 MLOAD RETURNDATASIZE PUSH1 0x20 DUP2 LT ISZERO PUSH2 0x15FF JUMPI PUSH1 0x0 DUP1 REVERT JUMPDEST POP MLOAD PUSH1 0xFF AND SWAP1 POP DUP3 ISZERO PUSH2 0x1683 JUMPI PUSH2 0x167B PUSH2 0x1626 PUSH2 0x3E8 PUSH2 0x936 DUP8 PUSH1 0x2 PUSH4 0xFFFFFFFF PUSH2 0xF4D AND JUMP JUMPDEST PUSH2 0x166F DUP4 PUSH1 0xA EXP PUSH2 0x936 PUSH1 0x7 PUSH2 0x164B PUSH1 0x1 PUSH1 0x7 DUP1 SLOAD SWAP1 POP PUSH2 0xCE5 SWAP1 SWAP2 SWAP1 PUSH4 0xFFFFFFFF AND JUMP JUMPDEST DUP2 SLOAD DUP2 LT PUSH2 0x1655 JUMPI INVALID JUMPDEST SWAP1 PUSH1 0x0 MSTORE PUSH1 0x20 PUSH1 0x0 KECCAK256 ADD SLOAD DUP10 PUSH2 0xF4D SWAP1 SWAP2 SWAP1 PUSH4 0xFFFFFFFF AND JUMP JUMPDEST SWAP1 PUSH4 0xFFFFFFFF PUSH2 0xE1B AND JUMP JUMPDEST SWAP2 POP POP PUSH2 0x465 JUMP JUMPDEST PUSH2 0x167B PUSH2 0x169D PUSH2 0x3E8 PUSH2 0x936 DUP8 PUSH1 0x2 PUSH4 0xFFFFFFFF PUSH2 0xF4D AND JUMP JUMPDEST PUSH2 0x16C2 DUP4 PUSH1 0xA EXP PUSH2 0x936 PUSH1 0x7 PUSH2 0x164B PUSH1 0x1 PUSH1 0x7 DUP1 SLOAD SWAP1 POP PUSH2 0xCE5 SWAP1 SWAP2 SWAP1 PUSH4 0xFFFFFFFF AND JUMP JUMPDEST SWAP1 PUSH4 0xFFFFFFFF PUSH2 0xCE5 AND JUMP INVALID TIMESTAMP PUSH19 0x6F6B6572526F6C653A2063616C6C657220646F PUSH6 0x73206E6F7420 PUSH9 0x617665207468652042 PUSH19 0x6F6B657220726F6C65526F6C65733A20616363 PUSH16 0x756E7420646F6573206E6F7420686176 PUSH6 0x20726F6C6553 PUSH16 0x6D657468696E6727732077726F6E672C KECCAK256 PUSH14 0x6179626520796F75207365742074 PUSH9 0x6520696E697469616C KECCAK256 0x5F PUSH16 0x70656E696E6774696D652077726F6E67 0x2E MSTORE8 PUSH2 0x6665 0x4D PUSH2 0x7468 GASPRICE KECCAK256 PUSH14 0x756C7469706C69636174696F6E20 PUSH16 0x766572666C6F77526F6C65733A206163 PUSH4 0x6F756E74 KECCAK256 PUSH10 0x7320746865207A65726F KECCAK256 PUSH2 0x6464 PUSH19 0x65737341646D696E526F6C653A2063616C6C65 PUSH19 0x20646F6573206E6F7420686176652074686520 COINBASE PUSH5 0x6D696E2072 PUSH16 0x6C65A265627A7A72315820B16BAF230F 0xF9 0xF6 0x29 0xCD 0xAD SWAP5 SWAP8 DUP5 SWAP4 BALANCE DUP12 SWAP11 PUSH17 0x19EDD23E784206EC44B7313B24DD64736F PUSH13 0x63430005110032000000000000 ",
  "sha1": "419bc80250722edf77c85c8c0460a5c556c7ec2e",
  "source": "pragma solidity ^0.5.0;\n\n\nimport \"./PayCoin.sol\";\nimport \"../interfaces/IT_ERC20.sol\";\nimport \"./token_erc20.sol\";\nimport \"./BrokerRole.sol\";\nimport \"./AdminRole.sol\";\n\ncontract token_exchange is BrokerRole, AdminRole {\n    using SafeMath for uint256;\n    using SafeMath for int256; \n\n    IT_ERC20 private token;\n    PayCoin public payCoin;\n\n    uint256 private _openingtime;\n    uint256 private _closingtime;\n    uint8 private _overnightCalls; \n\n    uint256[] private priceHistory;\n\n    uint256 private _start;\n    uint256 private _end;\n\n    address private _fss_admin = 0x2b177c1854DE132E96326B454055005E62feBDc7; \n    address private _fss_trading = 0x85A8d7241Ffffee7290501473A9B11BFdA2Ae9Ff ; \n\n    event Buy(address indexed buyer, uint256 indexed amount, uint256 indexed price);\n    event Sell(address indexed buyer, uint256 indexed amount, uint256 indexed price);\n    event PriceChange(address indexed who, uint256 indexed id_price, uint256 indexed price); \n    event ChangeStart(address indexed who, uint256 indexed when); \n    event ChangeEnd(address indexed who, uint256 indexed when); \n\n    modifier onlyWhileOpen {\n        require(isOpen(), \"Market is closed\");\n        _;\n    }\n\n    constructor(address tokenAddress, address payCoinAddress) public {\n\n        token = token_erc20(tokenAddress);\n        payCoin = PayCoin(payCoinAddress);\n\n        //_openingtime = now ;\n        _openingtime = 1592982000 ; \n        _closingtime = _openingtime + 9 hours ; \n        _start = _openingtime; \n        _end = _start + 7 days + 9 hours; \n\n        _overnightCalls = 0; \n\n        if (!(isAdmin(_fss_admin) && isBroker(_fss_admin))){\n            addAdmin(_fss_admin);\n            addBroker(_fss_admin);\n        }\n    \n    }\n\n    function buy(uint256 tokenAmount) external onlyWhileOpen returns (bool){\n        require( now > _start && now < _end , \"The market is close forever.\");\n        //require(!(token.isMinter(_msgSender())), \"You can't buy your own tokens, my friend\");\n\n        _buy(_msgSender(), tokenAmount);\n\n        return true;\n    }\n\n    function sell(uint256 tokenAmount) external onlyWhileOpen returns (bool){\n        require( now > _start && now < _end , \"The market is close forever.\");\n        //require(!(token.isMinter(_msgSender())), \"You can't buy your own tokens, my friend\");\n\n        _sell(_msgSender(), tokenAmount);\n\n        return true;\n    }\n\n    function _buy(address recipient, uint256 amount) internal {\n        require(recipient != address(0), \"Recipient is the zero address\");\n\n        payCoin.transferFrom(recipient, _fss_trading, getFee(amount, true));\n\n        token.mint(recipient, amount);\n\n        emit Buy(recipient, amount, priceHistory[priceHistory.length.sub(1)]);\n    }\n\n    function _sell(address seller, uint256 amount) internal {\n        // token_exchange != team, so it can mint paycoin (these doesn't count vs initial 50k)\n        require(seller != address(0), \"Seller is the zero address\");\n\n        token.burnFrom(seller, amount);\n\n        payCoin.mint(seller, getFee(amount, false));\n\n        emit Sell(address(this), amount, priceHistory[priceHistory.length.sub(1)]);\n    }\n\n    function getFee(uint256 amount, bool from_buy) internal returns(uint256){\n        // amount * tk_price / 10^18 +- 2*amount/1000\n        uint256 exp = uint256(token.decimals());\n\n        if (from_buy){\n            return amount.mul(priceHistory[priceHistory.length.sub(1)]).div(10**exp).add(amount.mul(2).div(1000));\n        }\n        else{\n            return amount.mul(priceHistory[priceHistory.length.sub(1)]).div(10**exp).sub(amount.mul(2).div(1000));\n        }\n\n    }\n\n    function isOpen() public view returns(bool) {\n        //require(now >= _start && now <= _end, \"The market is not open yet.\");\n        return now >= _openingtime && now <= _closingtime;\n    }\n\n    function setOpenTime() external onlyAdmin {\n        require(_openingtime < _closingtime, \"Something's wrong, maybe you set the initial _openingtime wrong.\");\n        _openingtime = _closingtime.add(15 hours) ;\n        _closingtime = _openingtime.add(9 hours) ;\n    }\n\n    function lastPrice() external view returns (uint256, uint256){\n        return (priceHistory.length.sub(1), priceHistory[priceHistory.length.sub(1)]);\n    }\n\n    function getHistory(uint256 id_price) external view returns (uint256){\n        return priceHistory[id_price] ;        \n    }\n\n    function setHistory(uint256 price) internal returns(bool) {\n        priceHistory.push(price); \n        return true;\n    }\n\n    function massiveLoad(uint256 price1, uint256 price2, uint256 price3, uint256 price4, uint256 price5, uint256 price6, uint256 price7, uint256 price8, uint256 price9, uint256 price10) onlyBroker external{\n        setHistory(price1); \n        setHistory(price2);\n        setHistory(price3);\n        setHistory(price4);\n        setHistory(price5);\n        setHistory(price6);\n        setHistory(price7);\n        setHistory(price8);\n        setHistory(price9);\n        setHistory(price10);\n    }\n\n    function setNewPrice(int256 delta_price) onlyBroker public returns (uint256) {\n        uint256 last_price = priceHistory[priceHistory.length.sub(1)]; \n        int256 new_price = int256(last_price) + delta_price; \n        uint256 last_id_price; \n\n        require (new_price > 0, \"Price must be positive!\"); \n        \n        if (isAdmin(_msgSender())) {\n            require(isOpen(), \"Market is closed\"); \n            \n            setHistory(uint256(new_price));\n            last_id_price = priceHistory.length.sub(1);\n            \n            emit PriceChange(_msgSender(), last_id_price, uint256(new_price)); \n        }\n        else{\n            require(_overnightCalls < 4, \"Already calls 4 times.\"); \n            require( uint256(new_price) > last_price.sub(last_price.mul(10).div(100)) && uint256(new_price) < last_price.add(last_price.mul(10).div(100)), \"Can't change more than -+10%\" ); \n            \n            setHistory(uint256(new_price));\n            last_id_price = priceHistory.length.sub(1);\n            \n            _overnightCalls += 1; \n        }\n\n        return last_id_price; \n    }\n\n    //TEAMTOKEN & PAYCOIN ADDRESS\n    \n    function setToken(address tokenAddress) onlyAdmin external {\n        token = token_erc20(tokenAddress); \n    }\n    \n    function setPayCoin(address payCoinAddress) onlyAdmin external {\n        payCoin = PayCoin(payCoinAddress); \n    }\n    \n    function changeStart(uint256 start) onlyAdmin external {\n      _start = start;\n      emit ChangeStart(_msgSender(), start);\n    }\n\n    function changeEnd(uint256 end) onlyAdmin external {\n      _end = end;\n      emit ChangeEnd(_msgSender(), end);\n    }\n\n\n\n}\n",
  "sourcePath": "contracts/token_exchange.sol",
  "type": "contract"
}